:020000040800F2
:10000000004001204529000845280008492800082B
:100010008D2900088D2900088D29000800000000A6
:100020000000000000000000000000008D29000812
:100030004D280008000000008D2900085128000804
:100040008D2900088D2900088D2900088D290008B8
:100050008D2900088D2900088D2900088D290008A8
:100060008D2900088D2900088D2900088D29000898
:100070008D2900088D2900088D2900088D29000888
:100080008D2900088D2900088D2900088D29000878
:100090008D2900088D2900088D2900088D29000868
:1000A0008D2900088D2900088D2900088D29000858
:1000B0008D290008552800088D2900088D29000881
:1000C0008D2900088D2900088D2900088D29000838
:1000D0008D2900088D2900088D2900088D29000828
:1000E000612800088D2900088D2900088D29000845
:1000F0008D290008000000008D2900088D290008C6
:100100008D2900088D2900088D2900088D290008F7
:100110008D2900088D2900088D29000800000000A5
:100120008D29000800000000000000000000000011
:1001300000000000000000005FF808F1000000006F
:10014000044B05481B1A062B02D9044B03B1184770
:10015000704700BF47040020440400200000000056
:1001600005490648091A891001EBD171491002D0DE
:10017000034B03B118477047440400204404002097
:100180000000000010B5064C237843B9FFF7D8FFF4
:10019000044B13B10448AFF300800123237010BD5A
:1001A000440400200000000098DA000808B5084B5D
:1001B0001BB108490848AFF300800848036813B929
:1001C000BDE80840CCE7064B002BF9D09847F7E78D
:1001D000000000004804002098DA000844040020D1
:1001E0000000000081F0004102E000BF83F0004306
:1001F00030B54FEA41044FEA430594EA050F08BFC2
:1002000090EA020F1FBF54EA000C55EA020C7FEA85
:10021000645C7FEA655C00F0E2804FEA5454D4EB02
:100220005555B8BF6D420CDD2C4480EA020281EACC
:10023000030382EA000083EA010180EA020281EA04
:100240000303362D88BF30BD11F0004F4FEA013156
:100250004FF4801C4CEA113102D0404261EB410165
:1002600013F0004F4FEA03334CEA133302D05242EB
:1002700063EB430394EA050F00F0A780A4F10104A7
:10028000D5F1200E0DDB02FA0EFC22FA05F28018E1
:1002900041F1000103FA0EF2801843FA05F35941C7
:1002A0000EE0A5F120050EF1200E012A03FA0EFC46
:1002B00028BF4CF0020C43FA05F3C01851EBE37170
:1002C00001F0004507D54FF0000EDCF1000C7EEB8D
:1002D00000006EEB0101B1F5801F1BD3B1F5001FCB
:1002E0000CD349085FEA30004FEA3C0C04F10104EA
:1002F0004FEA445212F5800F80F09A80BCF1004F13
:1003000008BF5FEA500C50F1000041EB045141EA94
:10031000050130BD5FEA4C0C404141EB010111F495
:10032000801FA4F10104E9D191F0000F04BF014640
:100330000020B1FA81F308BF2033A3F10B03B3F11E
:1003400020020CDA0C3208DD02F1140CC2F10C02AE
:1003500001FA0CF021FA02F10CE002F11402D8BF0C
:10036000C2F1200C01FA02F120FA0CFCDCBF41EAD8
:100370000C019040E41AA2BF01EB0451294330BDA7
:100380006FEA04041F3C1CDA0C340EDC04F1140484
:10039000C4F1200220FA04F001FA02F340EA03005B
:1003A00021FA04F345EA030130BDC4F10C04C4F1A1
:1003B000200220FA02F001FA04F340EA0300294681
:1003C00030BD21FA04F0294630BD94F0000F83F4CB
:1003D000801306BF81F480110134013D4EE77FEAAE
:1003E000645C18BF7FEA655C29D094EA050F08BFFA
:1003F00090EA020F05D054EA000C04BF19461046DB
:1004000030BD91EA030F1EBF0021002030BD5FEA1E
:10041000545C05D14000494128BF41F0004130BD46
:1004200014F580043CBF01F5801130BD01F000459A
:1004300045F0FE4141F470014FF0000030BD7FEA0D
:10044000645C1ABF194610467FEA655C1CBF0B4608
:10045000024650EA013406BF52EA033591EA030F1F
:1004600041F4002130BD00BF90F0000F04BF002117
:10047000704730B54FF4806404F132044FF000054A
:100480004FF0000150E700BF90F0000F04BF0021C3
:10049000704730B54FF4806404F1320410F0004529
:1004A00048BF40424FF000013EE700BF42004FEA24
:1004B000E2014FEA31014FEA02701FBF12F07F43A1
:1004C00093F07F4F81F06051704792F0000F14BF9E
:1004D00093F07F4F704730B54FF4607401F00045E2
:1004E00021F0004120E700BF50EA010208BF704739
:1004F00030B54FF000050AE050EA010208BF70472E
:1005000030B511F0004502D5404261EB41014FF496
:10051000806404F132045FEA915C3FF4DCAE4FF09A
:1005200003025FEADC0C18BF03325FEADC0C18BF81
:10053000033202EBDC02C2F1200300FA03FC20FAD2
:1005400002F001FA03FE40EA0E0021FA02F114441F
:10055000C1E600BF70B54FF0FF0C4CF4E06C1CEA34
:1005600011541DBF1CEA135594EA0C0F95EA0C0FA9
:1005700000F0DEF82C4481EA030621EA4C5123EA1C
:100580004C5350EA013518BF52EA033541F480114B
:1005900043F4801338D0A0FB02CE4FF00005E1FBFE
:1005A00002E506F00042E0FB03E54FF00006E1FB48
:1005B00003569CF0000F18BF4EF0010EA4F1FF048B
:1005C000B6F5007F64F5407404D25FEA4E0E6D41CB
:1005D00046EB060642EAC62141EA55514FEAC520DC
:1005E00040EA5E504FEACE2EB4F1FD0C88BFBCF558
:1005F000E06F1ED8BEF1004F08BF5FEA500E50F109
:10060000000041EB045170BD06F0004646EA0101CE
:1006100040EA020081EA0301B4EB5C04C2BFD4EB00
:100620000C0541EA045170BD41F480114FF0000EF9
:10063000013C00F3AB8014F1360FDEBF002001F067
:10064000004170BDC4F10004203C35DA0C341BDCE1
:1006500004F11404C4F1200500FA05F320FA04F0B3
:1006600001FA05F240EA020001F0004221F00041E7
:1006700010EBD37021FA04F642EB06015EEA430E5A
:1006800008BF20EAD37070BDC4F10C04C4F120058A
:1006900000FA04F320FA05F001FA04F240EA02003D
:1006A00001F0004110EBD37041F100015EEA430E0E
:1006B00008BF20EAD37070BDC4F1200500FA05F22E
:1006C0004EEA020E20FA04F301FA05F243EA0203AD
:1006D00021FA04F001F0004121FA04F220EA0200BC
:1006E00000EBD3705EEA430E08BF20EAD37070BD02
:1006F00094F0000F0FD101F00046400041EB0101E2
:1007000011F4801F08BF013CF7D041EA060195F0C3
:10071000000F18BF704703F00046520043EB03037D
:1007200013F4801F08BF013DF7D043EA060370476A
:1007300094EA0C0F0CEA135518BF95EA0C0F0CD075
:1007400050EA410618BF52EA4306D1D181EA0301BB
:1007500001F000414FF0000070BD50EA410606BFB5
:100760001046194652EA430619D094EA0C0F02D1FA
:1007700050EA013613D195EA0C0F05D152EA03363F
:100780001CBF104619460AD181EA030101F000415D
:1007900041F0FE4141F470014FF0000070BD41F0A6
:1007A000FE4141F4780170BD70B54FF0FF0C4CF480
:1007B000E06C1CEA11541DBF1CEA135594EA0C0F9F
:1007C00095EA0C0F00F0A7F8A4EB050481EA030EEC
:1007D00052EA03354FEA013100F088804FEA0333D3
:1007E0004FF0805545EA131343EA12634FEA0222A1
:1007F00045EA111545EA10654FEA00260EF0004162
:100800009D4208BF964244F1FD0404F5407402D2B3
:100810005B084FEA3202B61A65EB03055B084FEA44
:1008200032024FF480104FF4002CB6EB020E75EB41
:10083000030E22BFB61A754640EA0C005B084FEA69
:100840003202B6EB020E75EB030E22BFB61A7546E6
:1008500040EA5C005B084FEA3202B6EB020E75EB31
:10086000030E22BFB61A754640EA9C005B084FEAA9
:100870003202B6EB020E75EB030E22BFB61A7546B6
:1008800040EADC0055EA060E18D04FEA051545EAA5
:1008900016754FEA06164FEAC30343EA52734FEA4E
:1008A000C2025FEA1C1CC0D111F4801F0BD141EAC7
:1008B00000014FF000004FF0004CB6E711F4801F2C
:1008C00004BF01430020B4F1FD0C88BFBCF5E06F0C
:1008D0003FF6AFAEB5EB030C04BFB6EB020C5FEA1C
:1008E000500C50F1000041EB045170BD0EF0004E71
:1008F0004EEA113114EB5C04C2BFD4EB0C0541EAA3
:10090000045170BD41F480114FF0000E013C90E69F
:1009100045EA060E8DE60CEA135594EA0C0F08BF63
:1009200095EA0C0F3FF43BAF94EA0C0F0AD150EA62
:1009300001347FF434AF95EA0C0F7FF425AF1046F5
:1009400019462CE795EA0C0F06D152EA03353FF41D
:10095000FDAE1046194622E750EA410618BF52EA9A
:1009600043067FF4C5AE50EA41047FF40DAF52EA6E
:1009700043057FF4EBAE12E74FF0FF3C06E000BF0B
:100980004FF0010C02E000BF4FF0010C4DF804CD18
:100990004FEA410C7FEA6C5C4FEA430C18BF7FEAD8
:1009A0006C5C1BD001B050EA410C0CBF52EA430C06
:1009B00091EA030F02BF90EA020F0020704710F186
:1009C000000F91EA030F58BF994208BF90422CBF15
:1009D000D8176FEAE37040F0010070474FEA410C0E
:1009E0007FEA6C5C02D150EA013C07D14FEA430C2C
:1009F0007FEA6C5CD6D152EA033CD3D05DF8040B9D
:100A0000704700BF8446104662468C4619466346CE
:100A100000E000BF01B5FFF7B7FF002848BF10F1A5
:100A2000000F01BD4DF808EDFFF7F4FF0CBF0120EA
:100A300000205DF808FB00BF4DF808EDFFF7EAFF66
:100A400034BF012000205DF808FB00BF4DF808ED21
:100A5000FFF7E0FF94BF012000205DF808FB00BF16
:100A60004DF808EDFFF7CEFF94BF012000205DF8A0
:100A700008FB00BF4DF808EDFFF7C4FF34BF0120AD
:100A800000205DF808FB00BF4FEA4102B2F1E043ED
:100A900024BFB3F5001CDCF1FE5C0DD901F0004C65
:100AA0004FEAC0024CEA5070B2F1004F40EB8300B5
:100AB00008BF20F00100704711F0804F21D113F1E1
:100AC0003872BCBF01F00040704741F480114FEA1A
:100AD0005252C2F11802C2F1200C10FA0CF320FAA3
:100AE00002F018BF40F001004FEAC1234FEAD323C0
:100AF00003FA0CFC40EA0C0023FA02F34FEA43032A
:100B0000CCE77FEA625307D150EA01331EBF4FF0B2
:100B1000FE4040F44000704701F0004040F0FE40CD
:100B200040F40000704700BF80F0004002E000BFCA
:100B300081F0004142001FBF5FEA410392EA030FC8
:100B40007FEA226C7FEA236C6AD04FEA1262D2EB12
:100B50001363C1BFD218414048404140B8BF5B4217
:100B6000192B88BF704710F0004F40F4000020F0B0
:100B70007F4018BF404211F0004F41F4000121F0C6
:100B80007F4118BF494292EA030F3FD0A2F1010210
:100B900041FA03FC10EB0C00C3F1200301FA03F14E
:100BA00000F0004302D5494260EB4000B0F5000F71
:100BB00013D3B0F1807F06D340084FEA310102F130
:100BC0000102FE2A51D2B1F1004F40EBC25008BFE2
:100BD00020F0010040EA03007047490040EB0000AC
:100BE00010F4000FA2F10102EDD1B0FA80FCACF1DB
:100BF000080CB2EB0C0200FA0CF0AABF00EBC250DA
:100C000052421843BCBFD0401843704792F0000FC7
:100C100081F4000106BF80F400000132013BB5E71A
:100C20004FEA41037FEA226C18BF7FEA236C21D090
:100C300092EA030F04D092F0000F08BF08467047F5
:100C400090EA010F1CBF0020704712F07F4F04D1C3
:100C5000400028BF40F00040704712F100723CBFD6
:100C600000F50000704700F0004343F0FE4040F400
:100C7000000070477FEA226216BF08467FEA2363BE
:100C80000146420206BF5FEA412390EA010F40F4A9
:100C9000800070474FF0000304E000BF10F00043F5
:100CA00048BF40425FEA000C08BF704743F09643DC
:100CB00001464FF000001CE050EA010208BF7047F7
:100CC0004FF000030AE000BF50EA010208BF70477E
:100CD00011F0004302D5404261EB41015FEA010C93
:100CE00002BF84460146002043F0B64308BFA3F18B
:100CF0008053A3F50003BCFA8CF2083AA3EBC2536D
:100D000010DB01FA02FC634400FA02FCC2F120028B
:100D1000BCF1004F20FA02F243EB020008BF20F0C2
:100D20000100704702F1200201FA02FCC2F1200228
:100D300050EA4C0021FA02F243EB020008BF20EA1D
:100D4000DC7070474FF0FF0C1CEAD0521EBF1CEA4B
:100D5000D15392EA0C0F93EA0C0F6FD01A4480EA39
:100D6000010C400218BF5FEA41211ED04FF0006322
:100D700043EA501043EA5111A0FB01310CF000404E
:100D8000B1F5000F3EBF490041EAD3715B0040EA74
:100D9000010062F17F02FD2A1DD8B3F1004F40EB44
:100DA000C25008BF20F00100704790F0000F0CF017
:100DB000004C08BF49024CEA502040EA51207F3ADB
:100DC000C2BFD2F1FF0340EAC250704740F40000B6
:100DD0004FF00003013A5DDC12F1190FDCBF00F0A7
:100DE00000407047C2F10002410021FA02F1C2F155
:100DF000200200FA02FC5FEA310040F1000053EAF1
:100E00004C0308BF20EADC70704792F0000F00F03E
:100E1000004C02BF400010F4000F013AF9D040EA44
:100E20000C0093F0000F01F0004C02BF490011F4D8
:100E3000000F013BF9D041EA0C018FE70CEAD153D6
:100E400092EA0C0F18BF93EA0C0F0AD030F0004C56
:100E500018BF31F0004CD8D180EA010000F000400A
:100E6000704790F0000F17BF90F0004F084691F0C8
:100E7000000F91F0004F14D092EA0C0F01D1420202
:100E80000FD193EA0C0F03D14B0218BF084608D1CB
:100E900080EA010000F0004040F0FE4040F4000015
:100EA000704740F0FE4040F4400070474FF0FF0CA8
:100EB0001CEAD0521EBF1CEAD15392EA0C0F93EAEF
:100EC0000C0F69D0A2EB030280EA010C49024FEA41
:100ED000402037D04FF0805343EA111143EA1013FA
:100EE0000CF000408B4238BF5B0042F17D024FF4B2
:100EF000000C8B4224BF5B1A40EA0C00B3EB510F8D
:100F000024BFA3EB510340EA5C00B3EB910F24BF75
:100F1000A3EB910340EA9C00B3EBD10F24BFA3EBFA
:100F2000D10340EADC001B0118BF5FEA1C1CE0D1C2
:100F3000FD2A3FF650AF8B4240EBC25008BF20F075
:100F4000010070470CF0004C4CEA50207F32C2BFC9
:100F5000D2F1FF0340EAC250704740F400004FF066
:100F60000003013A37E792F0000F00F0004C02BF97
:100F7000400010F4000F013AF9D040EA0C0093F061
:100F8000000F01F0004C02BF490011F4000F013BBB
:100F9000F9D041EA0C0195E70CEAD15392EA0C0F23
:100FA00008D142027FF47DAF93EA0C0F7FF470AF5B
:100FB000084676E793EA0C0F04D14B023FF44CAF9E
:100FC00008466EE730F0004C18BF31F0004CCAD133
:100FD00030F000427FF45CAF31F000437FF43CAF6F
:100FE0005FE700BF4FF0FF3C06E000BF4FF0010C91
:100FF00002E000BF4FF0010C4DF804CD4FEA400273
:101000004FEA41037FEA226C18BF7FEA236C11D0BC
:1010100001B052EA530C18BF90EA010F58BFB2EB6F
:10102000030088BFC81738BF6FEAE17018BF40F0EF
:10103000010070477FEA226C02D15FEA402C05D1A3
:101040007FEA236CE4D15FEA412CE1D05DF8040B28
:10105000704700BF844608466146FFE70FB5FFF7BB
:10106000C9FF002848BF10F1000F0FBD4DF808ED73
:10107000FFF7F4FF0CBF012000205DF808FB00BF64
:101080004DF808EDFFF7EAFF34BF012000205DF8BE
:1010900008FB00BF4DF808EDFFF7E0FF94BF01200B
:1010A00000205DF808FB00BF4DF808EDFFF7D2FF08
:1010B00094BF012000205DF808FB00BF4DF808ED4B
:1010C000FFF7C8FF34BF012000205DF808FB00BF18
:1010D0004FEA4002B2F1FE4F0FD34FF09E03B3EB45
:1010E00012620DD94FEA002343F0004310F0004F85
:1010F00023FA02F018BF404270474FF000007047DB
:1011000012F1610F01D1420205D110F0004008BF79
:101110006FF0004070474FF00000704742000ED261
:10112000B2F1FE4F0BD34FF09E03B3EB126209D422
:101130004FEA002343F0004323FA02F070474FF0D8
:101140000000704712F1610F01D1420202D14FF04D
:10115000FF3070474FF00000704700BF7BB972B995
:101160000029BEBF00204FF0004106E008BF002864
:101170001CBF6FF000414FF0FF3000F0B5B9ADF18A
:10118000080C6DE904CE002909DB002B1ADB00F006
:1011900035F8DDF804E0DDE9022304B07047404291
:1011A00061EB4101002B1BDB00F028F8DDF804E0C7
:1011B000DDE9022304B0404261EB4101524263EB9E
:1011C00043037047524263EB430300F017F8DDF826
:1011D00004E0DDE9022304B0404261EB41017047C5
:1011E000524263EB430300F009F8DDF804E0DDE967
:1011F000022304B0524263EB430370472DE9F04FE2
:101200008C460C460546099E002B4FD18A42174654
:101210006BD9B2FA82FEBEF1000F0BD0CEF12005E1
:1012200020FA05F501FA0EF345EA030C02FA0EF76F
:1012300000FA0EF5390CBCFBF1F0BAB201FB10C399
:1012400000FB02F84FEA154C4CEA0344A04509D9CB
:10125000E41900F1FF3380F02881A04540F2258198
:1012600002383C44C8EB0404B4FBF1F301FB134C1B
:1012700003FB02F2ACB244EA0C418A4209D9C91913
:1012800003F1FF3480F00F818A4240F20C81023B6F
:1012900039448A1A43EA00400021002E63D022FA22
:1012A0000EF2002386E80C00BDE8F08F8B4207D9D0
:1012B000002E56D0002186E811000846BDE8F08FC8
:1012C000B3FA83F1002940F09380A34202D3824213
:1012D00000F2FE80851A64EB03039C460120002E79
:1012E00041D086E82010BDE8F08F12B90127B7FB86
:1012F000F2F7B7FA87FEBEF1000F36D1E41B4FEAD2
:1013000017481FFA87F90121B4FBF8F308FB1344CF
:1013100009FB03F24FEA154C4CEA0444A24207D9F8
:10132000E41903F1FF3002D2A24200F2D380034657
:10133000A41AB4FBF8F008FB104809FB00F9ACB2A2
:1013400044EA0842914507D9D21900F1FF3402D28C
:10135000914500F2BA802046C9EB020240EA034000
:101360009BE731463046BDE8F08F07FA0EF7CEF125
:10137000200C24FA0CF34FEA1748B3FBF8FA1FFAD3
:1013800087F908FB1A3520FA0CFC04FA0EF40AFB64
:1013900009FB4CEA040C4FEA1C4242EA05439B4518
:1013A00000FA0EF50AD9DB190AF1FF3280F08B80C2
:1013B0009B4540F28880AAF1020A3B44CBEB030331
:1013C000B3FBF8F008FB103300FB09F41FFA8CFCA8
:1013D0004CEA03439C4207D9DB1900F1FF326ED27D
:1013E0009C426CD902383B441C1B40EA0A418BE703
:1013F000C1F1200E8B4022FA0EFC4CEA030C24FAB9
:101400000EF74FEA1C49B7FBF9FA1FFA8CF309FBF8
:101410001A7720FA0EF88C400AFB03F548EA040418
:101420004FEA144848EA0747BD4202FA01F200FABF
:1014300001FB09D917EB0C070AF1FF3041D2BD427D
:101440003FD9AAF1020A67447F1BB7FBF9F509FBF4
:10145000157705FB03F3A4B244EA0747BB4208D95A
:1014600017EB0C0705F1FF3027D2BB4225D9023D0F
:10147000674445EA0A40A0FB0289FF1A4F454546EA
:101480004C4614D329D066B3BBEB050367EB0407C6
:1014900007FA0EFECB40CF404EEA030386E88800F1
:1014A0000021BDE8F08F2346F3E61846DAE6B8EBF4
:1014B000020569EB0C040138E5E70546D9E710465B
:1014C00092E78246C0E7924678E702383A4443E71B
:1014D000084604E7023B3C442AE7C345E7D33C46C1
:1014E000D1E73146BDE8F08F704700BF114B0022B5
:1014F00019681148914210B40ABF03464FF4803472
:10150000144603E00832B2F5803F06D0181D984219
:1015100088BF196808330029F4D1084908480B68C6
:1015200023441A4482428CBF002001200A6010BC70
:10153000704700BF000005080000040800000020FC
:101540005FFA05082DE9F843054601F0FFFB41F677
:101550000272214B9A61002D3AD06F1E1F4EFFB2CE
:10156000ED001F4C0137C5F10065B04605F5C025FB
:1015700004EBC7074FF0010916E0226801F0CEFB2B
:1015800018BBD8F800300433C8F8003062683168FE
:10159000022001F0C3FBA8B9D8F800300433C8F822
:1015A00000300834A74208D031680220A942E4D3B1
:1015B0000834A7424FF00009F6D101F0E5FB484698
:1015C000BDE8F88300F086FFEBE700F083FFDDE77E
:1015D0004FF00109F1E700BF003C0240000000208D
:1015E0006C08002010B5104A84B04FF4007300243A
:1015F000029203930094019401F0A8FB41F6027259
:101600000A4B69469A6101A801F050FC40B90124D7
:1016100001F0BAFB2046064B034A1A6004B010BD25
:1016200000F058FFF4E700BF00000408003C02404F
:1016300000000020B9B10C4A30B4031D002500F1B0
:101640000804A04205F1010505D200689C42106023
:1016500084BF186850608D4202F10802204603F1F1
:101660000803ECD130BC70476C08002010B4054B67
:1016700032211C78082203230471417182710360B6
:1016800010BC7047080000200268012A40F28380E5
:10169000F0B5067983B0322E02D0002003B0F0BD41
:1016A000847905460C2C00F0AB8152D8052C00F053
:1016B000338172D8012C00F01281022CEDD1032A63
:1016C000EBD1C04BEA1D03F1080105F10F07914270
:1016D00088BF9F4244794FF082002C716E71A871CF
:1016E00000F2C581510740F0C281D3E90001083BF7
:1016F000C2E90001D3E90401C7E9000105F11704BB
:10170000D3E90601C4E9000105F11F02D3E908018C
:10171000C2E9000193F8282085F8272093F82920B2
:1017200085F8282093F82A2085F8292093F82B2083
:1017300085F82A2093F82C2085F82B2093F82D305B
:1017400085F82C30292328462B6000F02BFA012045
:10175000A4E7622C00F0D08052D80E2C00F0B480A8
:10176000602C9AD1022A98D04179974AE0230171DE
:1017700046710DF10701AB71106804F069FD9DF829
:101780000730002B54D104220321E81D00F0E2FFB2
:1017900007232B604CE000207047082C4DD0092C0B
:1017A0007FF47BAF022A3FF478AF884B002488484F
:1017B0001C7003F0B5FA844B186804F031FD854BBA
:1017C000186804F05BFE844B186804F0BBFB834B85
:1017D000186804F029FA824B186804F0FDFA814B6E
:1017E000186804F05DFCAB7969797F4A803B284634
:1017F000AB7129716E71146000F0D4F901204DE7CE
:10180000762C4ED07A2C7FF448AF022A3FF445AFB5
:101810004179744AFA23017146710DF10701AB71E8
:10182000106804F055FC9DF80730002B00F0FE8096
:10183000284600F0B7F9012030E7022A3FF42DAF27
:101840000421073000F07AFF674CC307206000F1E5
:101850000881870700F1FF80460700F1F680C10686
:1018600000F1ED80820600F1E480430603D55D4B74
:10187000186804F005FC564803F046FAAB796A791B
:10188000524F5A4E803B0124322003213C7032706B
:101890006871AB7128462A71296000F083F92046EF
:1018A000FCE6022A3FF4F9AE41794D4AF623017174
:1018B00046710DF10701AB71106804F0A5FA9DF8AF
:1018C0000730002BB4D15EE7032A7FF4E6AE4179FE
:1018D0008E2302600171467183710120DEE6032AC6
:1018E0007FF4DBAE4179812302600171467183711F
:1018F00000F058F92046D1E6022A3FF4CEAE4279F4
:10190000E22302714671837104220121E81D00F077
:1019100021FF07232B608BE7022A3FF4BEAE344F32
:1019200004223B68841803F1774303F57C031E0E01
:10193000180C190AEB712E716871A97141F2883384
:101940002A6021462B4803F029FD2B4E3B68B34209
:1019500030D92A4D30460421FFF76CFE2B68D5F8AC
:1019600004E0A868E96823603B68B2B203F17743FA
:1019700003F57C03C4F804E0A060E1609A1AD5F88E
:1019800014E02B69A869E969202A28BF202292B2B5
:101990002361C4F814E041F28833A061E161154885
:1019A000164903F0FBFC0A2001F02EF83B682036B4
:1019B000B342CFD8FFF716FE002004F0BBFD012094
:1019C0006CE600BF10000020A4040020B304002037
:1019D000E00E00209C040020A004002090040020C1
:1019E00094040020980400208004002008000020B7
:1019F0000000002058090020000004086C080020A6
:101A0000022A3FF44AAE417903238C2201714671C8
:101A100082710360427A017AC07900F041FD6B7BEC
:101A20002A7BE97AA87A00F021FD01E7042202214D
:101A30006CE7144B186804F0BFF9206815E7124BE7
:101A4000186804F0E1F820680CE7104B186804F0FF
:101A500069FA206803E70E4B186804F0FFFC206861
:101A6000FAE60C4B186804F0CBFB2068F1E60A4B51
:101A7000AA1D03F1260013F8011F834202F8011F7B
:101A8000F9D15FE69404002090040020A004002017
:101A90009C040020A40400200F0000200BF0DABDFD
:101AA0000BF0FEBD10B50C460BF0D4FF206010BD4E
:101AB0002DE9F04F814683B0374800F049F918B15D
:101AC000002003B0BDE8F08F334800F099F9334BA4
:101AD000C0F500709C8883B2A34236BFC4F5007B7A
:101AE000C4EB030B9B4401931FFA8BF30093002B71
:101AF000E6D04FF0000A5546D046DFF8A4B056466F
:101B000005E00136009B1FFA86F843453CD9621C6C
:101B10001BF8043094B2B4F5007F28BF0024F02BEA
:101B2000EFD11E4B9C880EB3002701E047451DD224
:101B300004F1010A09EB0502CAF3080A1BF80400C4
:101B400004321BF80A1000F01DFDC0B283B21F441E
:101B500001352344BFB2C3F30804ADB20028E5D178
:101B60000E4BA3F804A003B0BDE8F08F01340B4B7B
:101B7000C4F30804C9F8005048469C8000F076FD84
:101B80000028BED001209CE7B3F5807F98D9034B95
:101B9000BDF804209A8093E70C090020500900202A
:101BA000DC09002070B50546074C00F0FDFC294615
:101BB000204600F0B9FC2146BDE8704082B241F2F7
:101BC0008833024803F0EABBDC0B002058090020F0
:101BD000324BF0B5DA698BB042F00102DA61DA69B2
:101BE000042002F001020192019ADA69002542F014
:101BF0000102DA61DA69072402F001020292029A14
:101C00005A6A05A942F400325A625A6A022602F45C
:101C100000320392039ADA6942F08072DA61DB697A
:101C2000059003F0807304931D48049B0994069665
:101C30000896079501F090F9082305A9184809941A
:101C4000059301F089F9174B174C1968174A0C23B3
:101C500020466160A560E5602561A5612260636141
:101C600003F06EFB10B100F035FCFEE70746104DA7
:101C7000104E284600F0C8F8284600F041FF4FF407
:101C8000007331461A46204665636C62E763A662BC
:101C9000A38503F04FFC0BB0F0BD00BF003802403D
:101CA0000000024038000020580900200044004095
:101CB0000C090020DC09002030B5002395B019463E
:101CC000342207A8029303930493059306930125F6
:101CD0000AF0D8FD102402234FF400214FF4000233
:101CE00007A8079310930A950B941291139201F091
:101CF00077FF28BB1449154B0A46586A40F08050BC
:101D000058625B6A03F080530193019B0B6823F4D4
:101D1000C05343F400630B60536813F01003FBD10E
:101D20000F24032202A80121049305930693029431
:101D3000039202F061FB08B100F0CCFB15B030BD9E
:101D400000F0C8FBD6E700BF00700040003802403A
:101D50000368264A934218D9254902F560728B42DE
:101D600012682ED014318B422FD014318B422ED0DA
:101D700014318B4234D01F4883420CBF4FF40023F0
:101D80004FF0006303EA020070471B4A1B4993426D
:101D9000086813D01432934215D0143293421CD0E9
:101DA000143293421FD01432934213D01432934210
:101DB0000CBF4FF400034FF0006300E0082318400D
:101DC00070470823DEE78023F9E78023DAE74FF442
:101DD0000063D7E74FF40023F1E74FF40063EEE729
:101DE0004FF40043CEE74FF40043E8E78060024041
:101DF00008640240586402400860024000600240EB
:101E000003685868704700BF30B4084D0023802431
:101E100020214FF480520560C4608161C26143603B
:101E200083600361436130BC704700BF6C60024057
:101E300070B5104D86B0044601A90022284602F074
:101E4000D7FE69462846002202F098FE9DF8016000
:101E50009DF802509DF803009DF804109DF80520A0
:101E60009DF8063026706570A070E1702271637174
:101E700006B070BD6004002070B54B4C84B0236A7E
:101E8000DB0601D404B070BD484D2868FEF706FF9C
:101E90004749FFF70BF801906868FEF7FFFE4449D9
:101EA000FFF704F80290A868FEF7F8FE4049FEF735
:101EB000FDFF0390002004F033FB01A804F124018E
:101EC000FFF7EEFD94F82500012811D0002004F062
:101ED00031FB94F82560344D16B1012E0BD0FEE78E
:101EE00095F824100422334800F034FC04B070BD8F
:101EF00000F08AFDEAE7304B1A78012A31D095F8D4
:101F00002C00132823D894F8242094F82D30264E42
:101F10009A4213D0294D05EBC000FFF789FF96F8D0
:101F20002C2096F82430501C05EBC205C0B20122CB
:101F300086F82C00AA71EB7186F82D30A36A1A4D31
:101F4000B3F5965F23D20133AB6204B070BDFFF7E7
:101F5000F9FA08B985F82E600023184684F82C3069
:101F6000D1E7164E002430461C70AC6285F82C4038
:101F7000FFF75EFF95F82C3085F82D4006EBC30681
:101F80000133B471F47185F82C3004B070BDFFF7E3
:101F9000D9FA10B9012385F82E300023A36284F802
:101FA0002C3004B070BD00BF60040020180F00206A
:101FB00000007A44170E00203C0000206C0800202E
:101FC00030B5154C83B0236A0022DB068DF807205C
:101FD00001D403B030BD0DF10701206B03F034FED6
:101FE0000028F6D19DF80730012BF2D10B4D206B64
:101FF000294603F031FE29680422094800F0AAFBB3
:1020000069680422074800F0A5FBA9680422064875
:1020100000F0A0FBDDE700BF60040020180F0020E7
:10202000F30D0020F70D0020FB0D00202DE9F04FEF
:102030009BB000F0C5FCFFF73FFE00220E214FF0E1
:10204000FF3000F001FD002004F042FA01210020E1
:1020500004F082FAB94BBA4CDA6904F1300142F467
:102060008052DA61DB694FF0FF3003F48053019353
:10207000019B03F0D5FC4FF08341206B03F0FEFD84
:102080000221206B03F00AFE04F134014FF0FF300F
:1020900003F014FE04F138014FF0FF3003F07CFF31
:1020A00004F13C014FF0FF3004F0ECF804F1400182
:1020B0004FF0FF3003F0C2FE04F144014FF0FF3057
:1020C00004F020F8FFF7EAFC694604A8FFF7EAFCF1
:1020D0000125FFF77DFD0C2200230DA80D9216931C
:1020E00012930F9501F07CFD7F22F8B14FF49873A5
:1020F000A564A260E360E364924900234022904813
:1021000084E8060023616361A36102F095FB00B1DE
:10211000FEE74FF001331AAE46F8603D314601222A
:10212000874802F099FC034630B1FEE7FF23A06424
:10213000A260E360E364DFE701220DA980480D930C
:102140001093119302F0D0FB074600B1FEE743F66F
:102150007F617D4D7D4A772328462A606960EB6068
:10216000AF602F6102F08AFD4FF480530DA928461D
:102170000D9302F0E5FD314628460297039702F0E1
:1021800033FFFFF7B3F9DFF8CC9189F8010000289D
:1021900040F0BF8004F0C4F96D4F694DBB4631E09B
:1021A00094F82E309BB14FF00008674885F82E80D8
:1021B00002F0B6FD286B03F037FD2B6A95F82C0072
:1021C00023F010032B62FFF7BDF985F8258094F802
:1021D000513093B100234FF00108286B85F851303E
:1021E00089F8008003F010FD2B6A574843F0100374
:1021F0002B6202F089FD85F8258094F85230DFF8D3
:1022000040815BBB5248FFF753FC20B19BF8043080
:10221000322B00F0898094F85030002BC0D000237E
:10222000184685F8503004F085F9FFF7DBF94FF0D8
:102230000308002004F088F94FF4FA7000F0E4FB82
:10224000002004F081F94FF47A7000F0DDFBB8F162
:102250000108EED1012389F80130A1E798F825A003
:10226000002388F85230BAF1000F08D0BAF1010FFC
:1022700000D0FEE7FFF7A4FEFFF7FEFDC2E75246DF
:102280000DA9404602F0B4FC52463146404602F0E9
:1022900075FCD8F84C200E996423511A03FB01F306
:1022A000013293FBF2F39DF834009DF835109DF850
:1022B0003620BB72F87139727A72FFF781FED8F856
:1022C00020308DF808A09B0600F19C80236A002234
:1022D00058068DF8082063D4236A002259078DF828
:1022E00008207BD4236A00228DF808209A0745D461
:1022F000236A0022DB078DF808202DD4FFF7BCFDF0
:102300001348FFF7B3F93B2311483B60FFF74AFC42
:1023100078E7384604F004F94FF4FA7000F074FBE3
:10232000384604F007F937E794F82530002B7FF49E
:1023300072AF0748FFF7A8F96DE700BF0038024009
:102340006004002000280040E00E0020000400404F
:10235000DC0D00203C0000203146686C03F070FF6B
:102360000028CBD19DF80830012BC7D10DA9686C8E
:1023700003F076FF0D98344B1860BFE73146E86BE9
:1023800004F08CF80028B3D19DF80830012BAFD1B0
:102390000DA9E86B04F08AF80D982C4B1860A7E79C
:1023A0003146A86B03F08CFE002895D19DF80830CB
:1023B000012B91D10DA9A86B03F092FE0D99042277
:1023C000234800F0C7F90E990422224800F0C2F910
:1023D00004220F99204800F0BDF97DE73146286CB2
:1023E00003F0C0FD00287FF47DAF9DF80830012B7D
:1023F0007FF478AF0DA9286C03F0BCFD0D98174B46
:1024000018606FE73146D8F8340003F0F5FC002877
:102410007FF45CAF9DF80830012B7FF457AF0DA916
:10242000D8F8340003F0F8FC0D9904220C4800F0B1
:1024300091F90E9904220B4800F08CF904220F99AF
:10244000094800F087F941E7E70D0020EB0D002077
:102450000B0E00200F0E0020130E0020EF0D0020A9
:10246000FF0D0020030E0020070E002030B50024D1
:1024700063F3070461F30F2483B062F3174402ADE2
:1024800060F31F6445F8044D29460022034802F01A
:10249000E3FA00B1FEE703B030BD00BF60040020E6
:1024A00000B5002387B08DF804008DF805108DF875
:1024B000062001A91A4606488DF8073002930493B6
:1024C000059302F011FA00B1FEE707B05DF804FBD6
:1024D00060040020FEE700BFB0F5005F00D0704749
:1024E00008B5002004F076F830B9074B93F82520A2
:1024F0001AB1012A05D0FEE708BD012283F8512058
:1025000008BD83F82E2008BD600400200268044B3B
:102510009A4200D07047034B012283F85220704743
:1025200000040040600400200A68F0B507463AB392
:1025300000221046CD1C4FF0F10C4FF0F20E09E0D6
:10254000F12B1AD12370637002260B68013083428D
:1025500032440ED915F8013FBC18F02BF0D107F822
:1025600002C084F801E00B68013002268342324445
:10257000F0D8501CF023BB54F0BD01262370E4E7D3
:102580000120F7E7F12802D0107001207047F129EF
:1025900003D0F22904D00020704711700220704748
:1025A000F0231370022070470268002A58D0F0B55B
:1025B000161FB608531E0136042B4FEA86044CD969
:1025C00000273D4600F1040E5EF8043B01376FEA38
:1025D000030C03F07F31C1F180310CF080334B40AC
:1025E00003F07F316B4005F07F3503F080330D44FD
:1025F000BE4285EA0305E7D82146C5F307232B44ED
:10260000C5F307441C4404EB15639142DBB21FD0B1
:10261000441825794C1C5B1B9442DBB218D204444D
:1026200025798C1C5B1BA242DBB211D904442579AD
:10263000CC1C5B1BA242DBB20AD9044424790431CE
:102640001B1B8A42DBB203D9014409795B1ADBB256
:10265000511C024413710160F0BD00210B46D7E705
:1026600013460121024413710160704701682DE98E
:10267000F04100295ED00C1FA4084F1E0134062F24
:102680004FEA840253D90026354600F1040C5CF869
:10269000043B05F07F3803F07F3E01366B4003F0CA
:1026A000803308EB0E05A64285EA0305EFD3C5F398
:1026B0000723EC18C5F30743234403EB156391424A
:1026C000DBB22DD084182579541C2B448C42DBB20C
:1026D00026D204442579941C2B44A142DBB21FD995
:1026E00004442579D41C2B44A142DBB218D90444FC
:1026F0002579141D2B44A142DBB211D9044425795C
:10270000541D2B44A142DBB20AD904442479063279
:1027100023449142DBB203D9024412791344DBB261
:10272000B3FA83F35B0907601846BDE8F081002225
:102730001346C7E701234FF0FF37F4E70139431889
:10274000425C29B113F8011D984201EB0222F9D134
:102750001046704732B1024400F8011B90424FEA24
:102760002121F9D1704700BF00B5244B91B01B68FF
:102770000C2153BB01220DEB01000C930893039134
:10278000059201F02DFAA8BB01224FF48033684670
:102790008DE80C0001F084FF08B1FFF79BFE4FF4B9
:1027A000800292FAA2F2B2FA82F2154B012113448E
:1027B0009B00196000220F21022000F045F9022041
:1027C00000F07AF911B05DF804FB002301220DEB53
:1027D000010003910C930593089201F001FA18B9D6
:1027E00001224FF40033D2E7FFF774FE01224FF4C9
:1027F0000033CCE7FFF76EFEC6E700BFA804002059
:10280000A0C1911002680E4B9A4200D0704703F5A8
:102810000D33586A00B540F0020058625B6A83B01D
:1028200003F0020300220F2101931D20019B00F001
:102830000BF91D2000F040F903B05DF804FB00BF68
:1028400000040040704700BFFEE700BF704700BFB4
:1028500000F0CCB8014802F03BBB00BFE00E002006
:10286000124B5A69920419D5114A12789AB9114B30
:1028700010B51C789CB940F6AC5000F0C5F8204665
:1028800003F0A8FE10B90C4B01221A70074B4FF44D
:1028900000525A6110BD4FF400525A6170474FF414
:1028A0000050BDE8104000F05DBC00BF00040140D6
:1028B000B30400203D000020B004002070B5161EB7
:1028C00007DD0C468D19AFF3008004F8010BA5421B
:1028D000F9D1304670BD00BF70B5161E07DD0C463D
:1028E0008D1914F8010BAFF30080A542F9D13046E1
:1028F00070BD00BF0A4A08B50346106860B169465A
:1029000003448B4201D8136008BD09F08FFF0C23EC
:1029100003604FF0FF3008BD024908461160EEE742
:10292000B4040020580F00204FF0FF30704700BF64
:102930004FF400534B600020704700BF01207047E8
:1029400000207047002103E00B4B5B5843500431DB
:102950000A480B4B42189A42F6D30A4A02E0002377
:1029600042F8043B084B9A42F9D302F057FE09F0B3
:1029700063FFFFF75BFB70478CDC00080000002062
:102980004404002044040020580F0020FEE700000B
:10299000704700BF10B50446074B08481B68A0FBF2
:1029A0000330800900F094F8214600224FF0FF30F8
:1029B00000F04AF8002010BD40000020D34D621006
:1029C00008B5094B03201A6842F004021A601A681D
:1029D00042F002021A6000F025F80F20FFF7DAFF3C
:1029E000FFF7D6FF002008BD003C0240024A1368F2
:1029F00001331360704700BF240F0020014B18689B
:102A0000704700BF240F002010B582B00190FFF77F
:102A1000F5FF0446FFF7F2FF019B001B9842F9D334
:102A200002B010BD4FF6FF0206490002CB6800F469
:102A3000E0601A4042F0BF6343F400330343CB60CD
:102A4000704700BF00ED00E0194B30B4DB68C3F302
:102A50000223C3F10705042D03F1040428BF042554
:102A6000062C18D9033B01249C40013C2240012440
:102A7000AC40013C214001FA03F3002842EA030282
:102A80000CDB120100F16040D2B200F5614080F829
:102A9000002330BC704700221346E8E7054B00F0E6
:102AA0000F001201D2B203441A7630BC704700BF47
:102AB00000ED00E0FCEC00E000F01F010123034A00
:102AC00040098B4042F82030704700BF00E100E031
:102AD0000138B0F1807F0DD230B4074B074CF025A0
:102AE0005860002284F823500721104630BC9A60B9
:102AF000196070470120704710E000E000ED00E031
:102B000000283DD0F0B41F4A0568034695422ED9EF
:102B10001D4A1E492A44A1FB02121D4812099200B7
:102B200099685C68DF680C430226196983F82160A4
:102B30003C435F699E690C4329683C43DF69344329
:102B400021F47F513C4321F030010C430126002148
:102B5000D8631A6408462C609963996283F82160EF
:102B6000D9621963596383F82010F0BC7047094A91
:102B700006492A44A1FB0212120992000648CFE737
:102B80000120704707640240F89BFDBFCDCCCCCC40
:102B900000640240F89FFDBF00600240F0B490F86E
:102BA0002040012C0DD090F821400125E4B2AC4228
:102BB00080F8205008D0002380F820300220F0BC9C
:102BC00070470220F0BC704705680227002680F895
:102BD00021708663076C2E68BC4026F00106C76B27
:102BE0002E6046687C606B60C36A102E0BBFAA60C3
:102BF000A960E960EA604BB12B6843F00E032B60DB
:102C00002B68002043F001032B60D8E72B6823F0EA
:102C100004032B602B6843F00A032B60F0E700BF2E
:102C2000F8B5FFF7EBFE3B4C06464CF2503504E09E
:102C3000FFF7E4FE801BA84264D8A369354ADB078E
:102C4000F6D493699F0744BF02239361314B9A697D
:102C5000D60505D49A69150502D49A69D40453D5CA
:102C60002C4B9B6913F4807336D14FF480524FF490
:102C7000C0544FF400614FF4905E4FF4D0574FF4BE
:102C800020664FF400752348806980050BD5724695
:102C90003C4631462B46DFF880C0DCF8140040F09B
:102CA0000100CCF814001B488069000506D52246B7
:102CB000194D0B46686940F004016961154989693D
:102CC000C90405D5144913464A6942F020024A61F5
:102CD000104A01209361F8BD0F494FF488524B69A7
:102CE0004FF4C85443F002034B614FF4985E4FF425
:102CF00010614FF4D8574FF430664FF440754FF4DD
:102D00008073C0E70320F8BD9B6913F40070A7D15E
:102D1000F9E700BF003C0240280F002070B50A4CC4
:102D2000237C012B01D1022070BD012316460D46E4
:102D30002374FFF775FF10B10023237470BD606129
:102D40002E60FFF76DFFF7E7280F0020094B5A6848
:102D500091070DD55A68D20703D50749074AD960AC
:102D6000DA60044B0649074A196100201A6170476E
:102D700001207047003C0240EFCDAB8905040302FF
:102D8000BFAE9D8C16151413034A0020536843F000
:102D900002035360704700BF003C0240F8B5044690
:102DA000FFF72CFE06463F4D601C4CD13D4A93690F
:102DB000D907FCD43B4B9A69970744BF02229A611A
:102DC000384B9A69D60502D49A6915055CD5354BFE
:102DD0009B6913F4807341D14FF480524FF4C05477
:102DE0004FF400614FF4905E4FF4D0574FF42066DB
:102DF0004FF400752B48806980050BD572463C4620
:102E000031462B46DFF8A0C0DCF8140040F001008A
:102E1000CCF8140023488069000506D52246224DCF
:102E20000B46686940F0040169611E498969C9045B
:102E300005D51D4913464A6942F020024A61194AE4
:102E400001209361F8BDAB69DB07B3D524B1FFF76F
:102E5000D5FD801B8442A7D20320F8BD12494FF450
:102E600088524B694FF4C85443F002034B614FF44E
:102E7000985E4FF410614FF4D8574FF430664FF41A
:102E800040754FF48073B5E79A69D4049FD49B6969
:102E900013F40070D6D0034B9B6913F480739BD05E
:102EA000DCE700BF003C0240280F00202DE9F0477E
:102EB000DFF8A09099F81030012B02D10220BDE874
:102EC000F087012306464CF25030884689F81030CE
:102ED000FFF764FF0746002833D14FF0FF33C8F8EF
:102EE00000307568B36805EB03239D4229D2824602
:102EF000174C07E0B268736805F5807503EB022391
:102F0000AB421ED9C9F814A0626825F0FF0342F451
:102F10000072626062684CF2503042F008026260F7
:102F2000C3F800A0FFF73AFF636823F0080363606B
:102F3000636823F4007363600028DBD00746C8F899
:102F400000500023384689F81030BDE8F08700BFF4
:102F5000003C0240280F0020D1F800C0BCF1000F57
:102F600000F0E0802DE9F04F884683B0DFF8D4917F
:102F7000002579E0D0F800E001F0030A0EEA030E24
:102F80000AFA07FA013E4AEA0E0E012EC0F800E0E6
:102F900040F29C80C668D8F808203340BA401343FA
:102FA000CF00C3605CD5604B5F4E1B6A25F0030207
:102FB00043F001033362336A02F1804203F00103FC
:102FC000019302F5803205F00303019E9B00976890
:102FD0000F269E4027EA0606544FB84200F08C8028
:102FE00007F58067B84200F08980514FB84200F081
:102FF0008980504FB84200F089804F4FB84200F0AE
:1030000089804E4FB84200F089804D4FB8420CBFC6
:103010000627072707FA03F333439360E243D9F8FF
:103020000030CE034CBF23431340C9F80030D9F819
:1030300004308F034CBF23431340C9F80430D9F840
:103040000830CE024CBF23431340C9F80830D9F8EA
:103050000C30890254BF02EA03041C43C9F80C4037
:1030600001353CFA05F344D00122AA4012EA0C04CF
:10307000F6D0D8F804106F0021F010060323BB40EF
:10308000022E6FEA03037FF475AF4FEAD50A00EB17
:103090008A0A05F0070EDAF820B04FEA8E0E0F26E6
:1030A00006FA0EF62BEA060BD8F8106006FA0EF6B2
:1030B00046EA0B06CAF82060066801F0030A06EA31
:1030C000030E5646BE4046EA0E060660866806EACD
:1030D000030ED8F80C60BE4046EA0E0686604668CD
:1030E000C1F3001E26EA02067246AA40324342603D
:1030F00050E703B0BDE8F08F00238DE7012707FA02
:1031000003F389E7022707FA03F385E7032707FAA2
:1031100003F381E7042707FA03F37DE7052707FA9E
:1031200003F379E7704700BF003802400000024017
:1031300000080240000C024000100240001402404F
:1031400000180240000401400369194214BF012025
:103150000020704702B909048161704743695940F2
:1031600041617047044A5169014200D1704708B576
:103170005061FFF7B1F908BD00040140F8B50446FD
:103180000D46164623685869C04310F0020026D049
:103190005A69510511D51A6800216FF4806742F40D
:1031A0000072042620251A6001205F61266484F8DD
:1031B0003C10216384F83D50F8BD6A1CE3D045B94A
:1031C00000232022236384F83C3084F83D20032030
:1031D000F8BDFFF713FC801B8542D3D2F0E7F8BDA2
:1031E0002DE9F041884616461F460546006882B024
:1031F000046844F480740460089C621C41D14369F3
:10320000DB07FCD508F0FE010161631C14D04369A3
:103210009B0714D443695A053FD4002C00F09380D7
:10322000FFF7ECFB099BC01A8442C0F08C80286831
:10323000EBE743695A0530D443699907F9D5002370
:1032400001934369019383690193019B621C5CD1E3
:1032500043691B0648D443695905F9D500236FF427
:103260008064042120224461296485F83C302B636A
:1032700085F83D202B6C042B2FD0032002B0BDE835
:10328000F0814369D907BDD4E4B1FFF7B7FB099BCF
:10329000C01A844216D32868AFE7036800226FF48F
:1032A000806643F4007304242021036046612C648B
:1032B00085F83C202A6385F83D102B6C042BDCD16B
:1032C0000120DBE7002320222B6385F83C3085F8C2
:1032D0003D20032085F83E30D0E72A68012013689E
:1032E00043F400731360C9E7012F0AD0330A036166
:1032F000671C19D14369190603D443695A05ADD433
:10330000F8E7F6B206610020B8E743691A06EBD485
:1033100043695905A2D4F4B1FFF770FB099BC01AA9
:10332000844218D3286891E743691B06E9D44369AE
:103330005B0593D47CB1FFF761FB099BC01A844203
:1033400009D32868D4E7002320222B6385F83C307A
:1033500085F83D20B1E72B6C002243F020032021AB
:103360002B6485F83C202A6385F83D1082E700BF76
:103370002DE9F043984604460068894601681746DF
:1033800041F480610160026883B042F480720A9E59
:103390000B9D0260711C42D14369DA07FCD55FFACC
:1033A00089F909F0FE030361721C13D043699A077F
:1033B00013D4436959053DD4002E00F0A880FFF7CF
:1033C0001DFB401B8642C0F0A2802068ECE74369E9
:1033D00059052FD443699B07F9D50023019343690D
:1033E000019383690193019B711C63D143691A06A0
:1033F00047D443695B05F9D500236FF48065042148
:1034000020224561216484F83C30236384F83D2008
:10341000236C042B2ED0032003B0BDE8F083436956
:10342000DB07BCD4DEB1FFF7E9FA401B864216D3B6
:103430002068AFE7036800226FF4806643F40073EE
:103440000425202103604661256484F83C20226322
:1034500084F83D10236C042BDDD10120DCE7002330
:103460002022236384F83C3084F83D20032084F834
:103470003E30D1E722680120136843F400731360E3
:10348000CAE7B8F1010F0AD03B0A0361731C2FD1C0
:103490004369190603D443695A05ADD4F8E7FFB26E
:1034A0000761711C15D143691A0638D443695B055D
:1034B000A2D4F8E743691906E3D443695B059BD4BA
:1034C000002E4CD0FFF79AFA401B864247D3206863
:1034D0008AE743691F0622D443695F058CD4002E16
:1034E0003DD0FFF78BFA401B864238D32068D8E7DF
:1034F00043691B06D3D443695A053FF57DAF76B3C4
:10350000FFF77CFA401B864229D32068BEE70023E0
:103510002022236384F83C3084F83D209AE7036836
:1035200043F480730360711C0DD14369DA07FCD545
:1035300049F0010303612A4631462046FFF71EFE8B
:10354000002887D168E74369DB07F1D4002E86D0D5
:10355000FFF754FA401B864281D32068E3E7236CCF
:10356000002243F020032021236484F83C202263BE
:1035700084F83D104CE700BF704700BF002800F002
:103580009080F8B590F83D30044603F0FF02002B20
:1035900074D001F055F8444B98426DD92368242229
:1035A00084F83D201A68414922F00102A1FB005134
:1035B0001A605A68890C22F03F020A435A603C4E56
:1035C00062681D6AB24225F03F0539D85200B0FB4F
:1035D000F2F2013129431962D969C2F30B0521F4D2
:1035E0004F41032D21F0FF0198BF04220A43DA6105
:1035F0001968E669226A21F0C00132430A431A6061
:1036000099682769E66821F403423E4322F0FF02ED
:1036100032439A60D9686669A26921F0FF0132439A
:103620000A43DA601A680025202142F001021A607C
:103630002846256484F83D10256384F83E50F8BD83
:103640004FF4967606FB01F11A4FA668A7FB0171AD
:103650008909013129431962D96921F44F4121F0C7
:10366000FF0186B902EB4202B0FBF2F0C0F30B029D
:10367000AAB140F40042B9E70120F8BD80F83C202F
:10368000FFF77AFF85E702EB820202EB8202B0FBD2
:10369000F2F0C0F30B0212B140F44042A6E701225F
:1036A000A4E70120704700BF7F841E0083DE1B4318
:1036B000A0860100D34D6210704700BFB0B110B5B5
:1036C00004460268242380F83D30136823F0010388
:1036D0001360FFF7F1FF0023236484F83C3084F883
:1036E0003D301846236384F83E3010BD01207047FA
:1036F0002DE9F047044682B099460F469046BDF842
:103700002C60FFF77BF994F83D30202B04D0022683
:10371000304602B0BDE8F0870A9B03B126B9012606
:10372000304602B0BDE8F087054605E0FFF766F9D0
:10373000401B192800F2898022689369DB4313F04B
:10374000020AF3D094F83C30012BE0D01368012139
:10375000D80784F83C1002D413680B431360136835
:103760005A4923F4006313604FF0000A21224023DA
:1037700084F83D2084F83E30C4F840A066850A9E57
:10378000E162608D66620C9E019500964B46208535
:10379000424639462046FFF723FD064600286FD1F2
:1037A0002368228D4AB30C9A013259D15A69120604
:1037B0002DD45A695705F9D500226FF4806504208D
:1037C00020215D61206484F83C20226384F83D1050
:1037D000236C042B73D003269AE75A69520755D4F9
:1037E0005A695705E8D40C9B002B5CD0FFF706F90B
:1037F0000C9B401B834256D323680C9A0132ECD1B8
:103800005A69500742D45A695105D5D4F8E7606A1D
:10381000278D421C626201787A1E1961618D92B215
:10382000013989B26185596922854907BAD5002ACB
:10383000E3D0821C62624178BA1E1961618D92B236
:10384000013989B222856185ACE72023C4F830A014
:1038500084F83CA084F83D30022684F83EA057E767
:103860005A691006D3D45A695105A5D40C9BD3B11B
:10387000FFF7C4F80C9B401B834214D3236892E7E4
:10388000236C84F83CA0042BA5D148E71A680021DA
:10389000202042F400721A6084F83D0084F83C1045
:1038A00084F83E1034E7236C002243F020032021EB
:1038B000236484F83C20226384F83D1088E7226862
:1038C0000126136843F40073136021E70000FFFF33
:1038D0002DE9F047044686B099460F469046BDF85C
:1038E0003C60FFF78BF894F83D30202B04D0022782
:1038F000384606B0BDE8F0870E9B03B126B9012714
:10390000384606B0BDE8F087054604E0FFF776F8D4
:10391000401B192839D822689369DB4313F0020A47
:10392000F4D094F83C30012BE1D013680121D80782
:1039300084F83C1002D413680B43136013689D494C
:1039400023F4006313604FF0000A2222402384F81E
:103950003D2084F83E30C4F840A06685E1623946D7
:103960000E9F608D6762109F019500974B462085E2
:1039700042462046FFF7FCFC074688B1236C84F8DA
:103980003CA0042BBBD00327B2E72023C4F830A00F
:1039900084F83CA084F83D30022784F83EA0A7E7D5
:1039A000238D2268012B00F0F680022B00F00481A9
:1039B00005905169059192690592059A002B00F0D6
:1039C000E280032B65D8012B00F0C280022E00F0AC
:1039D0009D80109B2268013338D153695807FCD56C
:1039E0001368616A23F48063136013694A1C62627E
:1039F0000B70638D228D013B9BB2013A6385109B56
:103A000022850133226837D153695B07FCD51368DF
:103A1000616A43F40073136013694A1C62620B709D
:103A2000638D2268013B9BB26385616A238D1269B5
:103A3000013B481C238560620A70238D628D013B27
:103A4000013A9BB292B223856285B7E75369590761
:103A5000C6D4109B2BB1FEF7D1FF109B401B8342B5
:103A6000B7D200232022236384F83C3084F83D2021
:103A7000032784F83E303BE753695807C7D4109BAF
:103A8000002BEED0FEF7BAFF109B401B8342B8D24A
:103A9000E7E7109B4BB924E05A69D0064CD4FEF7F7
:103AA000ADFF109B401B834222D323685A69520604
:103AB000F2D5626A1B69511C61621370628D2168C4
:103AC000013A92B2238D62854A69013B9BB252074B
:103AD00023857FF573AF636A0A69591C61621A70A6
:103AE000ABE723685A695106E3D45A69D10623D457
:103AF000236C202213430021236484F83C1084F8B3
:103B00003D20236C202B7FF4FAAE3CE7109B013361
:103B1000226803D153695907FCD578E753695B07DD
:103B20003FF575AF109B002B9BD0FEF767FF109BF6
:103B3000401B8342EBD294E700226FF0100020215B
:103B40005861226484F83C20226384F83D10D8E751
:103B5000109B4BB912E05A69D206EDD4FEF74EFF26
:103B6000109B401B8342C3D323685A695106F2D588
:103B7000626A1B69511C616213705EE723685A69AF
:103B80005006B2D5F4E7202284F83D2084F83C307A
:103B900084F83E30ACE6116821F480611160039036
:103BA00051690391916903910399116841F400717E
:103BB000116003E70000FFFF116821F480611160CC
:103BC000116841F400611160049051690491926997
:103BD0000492049AF2E600BF90F83D00704700BFDF
:103BE0002DE9F043036885B0DE0704463BD5BD49A7
:103BF0008A6802F00C02082A00F0B6818A6802F096
:103C00000C020C2A00F0AC816368012B00F0B98231
:103C1000002B00F00D82052BB24B1A6800F0B9831F
:103C200022F480321A601A6822F480221A60FEF7A9
:103C3000E5FE4FF400380746AA4E012505E0FEF7E1
:103C4000DDFEC01B642800F26A8298FAA8F332688D
:103C500098FAA8F3B3FA83F303F01F0305FA03F30A
:103C60001342ECD02368980745D59E498A6802F034
:103C70000C02042A00F05B828A6802F00C020C2A13
:103C800000F05182E2680125002A00F0878195FA50
:103C9000A5F3B3FA83F303F1845303F58E139B006A
:103CA0001D60FEF7ABFE4FF0020807468D4E05E0A3
:103CB000FEF7A4FEC01B022800F2318298FAA8F396
:103CC0008849326898FAA8F3B3FA83F303F01F0324
:103CD00005FA03F31342EBD04A684FF4F85393FA12
:103CE000A3F3B3FA83F3206922F4F85200FA03F342
:103CF00013434B602368DA0600F1AD801D0728D519
:103D00006269002A00F07081012292FAA2F1B1FAF0
:103D100081F1754B16460B449B001A60FEF76EFE50
:103D20004FF0020807466F4D05E0FEF767FEC01B27
:103D3000022800F2F48198FAA8F36A6B98FAA8F3C3
:103D4000B3FA83F303F01F0306FA03F31342ECD034
:103D50002368580748D5634B5A6AD10000F10E8298
:103D60005A6A4FF0010842F080525A625B6A03F0CF
:103D700080530193019B5D4B1A68D20540F1BE81CF
:103D8000A368012B00F0A482002B00F02582052BF4
:103D9000544B5A6B00F0948222F480725A635A6B2F
:103DA00022F480625A63FEF729FE4FF40079074639
:103DB0004C4E012507E0FEF721FE41F28833C01B7F
:103DC000984200F2AC8199FAA9F3726B99FAA9F3BF
:103DD000B3FA83F303F01F0305FA03F31342EAD0A7
:103DE000B8F1000F40F06682636A83B33D4DAA6864
:103DF00002F00C020C2A00F0CD80022B4FF08073F1
:103E000000F06C8293FAA3F3B3FA83F303F18453C3
:103E100003F58E139B0000221A60FEF7EFFD4FF0B2
:103E200000740746012605E0FEF7E8FDC01B0228E6
:103E300000F2758194FAA4F32A6894FAA4F3B3FA11
:103E400083F303F01F0306FA03F31342ECD10020BF
:103E500005B0BDE8F083234DAB6813F00C0F47D0DD
:103E6000A2694FF48073002A00F0918193FAA3F3C2
:103E7000B3FA83F303F1845303F58E139B000126F9
:103E80001E60FEF7BBFD4FF40078074605E0FEF725
:103E9000B5FDC01B022800F2428198FAA8F311492F
:103EA0002A6898FAA8F3B3FA83F303F01F0306FA1B
:103EB00003F31342EBD04A68236A22F460421343AF
:103EC0004B604A684FF07F4393FAA3F3B3FA83F34E
:103ED000E06922F07F4200FA03F313434B6023684A
:103EE0000CE700BF00380240A0C1911000700040F4
:103EF0004FF4007393FAA3F2296893FAA3F3B3FA89
:103F000083F3012203F01F0302FA03F30B4202D0F2
:103F1000A369002B3ED0C54B216A5A6802F4604267
:103F2000914240F28D819A6812F0F00F40F0A48027
:103F30005A6AD70040F14782A3F5E4331A6802F4C5
:103F4000C052B2F5C05F40F09780B1F5404F40F0ED
:103F50009380B74A0120136843F0040313608CE098
:103F60008A68D5037FF550AE4FF4003292FAA2F181
:103F7000AE49086892FAA2F2B2FA82F2012102F086
:103F80001F0201FA02F202423FF46DAE6268002A9B
:103F90007FF469AE012005B0BDE8F08395FAA5F382
:103FA000B3FA83F303F1845303F58E139B001A6075
:103FB000FEF724FD4FF0020807469C4E05E0FEF791
:103FC0001DFDC01B022800F2AA8098FAA8F33268EF
:103FD00098FAA8F3B3FA83F303F01F0305FA03F387
:103FE0001342ECD1236886E6012595FAA5F1B1FAD2
:103FF00081F1904B4FF002080B449B001A60FEF7D2
:10400000FDFC8A4E074605E0FEF7F8FCC01B0228BF
:1040100000F2858098FAA8F3726B98FAA8F3B3FAC5
:1040200083F303F01F0305FA03F31342ECD18FE689
:104030007E4B4FF400381A681E4622F480321A6014
:104040001A68012522F480221A60FEF7D7FC074681
:1040500004E0FEF7D3FCC01B642860D898FAA8F3EC
:10406000326898FAA8F3B3FA83F303F01F0305FA52
:1040700003F31342EDD1F5E500206D4A136823F0F8
:10408000010303431360136803F00103984281D1D5
:1040900066484FF07F43426822F46042114341601A
:1040A000426893FAA3F3B3FA83F3E16922F07F4203
:1040B00001FA03F313434360216A4FF4604393FA18
:1040C000A3F35A4AB3FA83F39268F02090FAA0F06F
:1040D000B0FA80F002F0F002574DC24021FA03F32B
:1040E0000133A95C4FF4004202FA03F3534ACB4078
:1040F0000F201360FEF74EFC2368FFE51A681D468B
:1041000042F480721A60FEF779FC06462B68DB05E4
:104110003FF536AEFEF772FC801B6428F6D903200B
:1041200005B0BDE8F0838A68D1033FF5ABAD02224C
:1041300092FAA2F13D49086892FAA2F2B2FA82F22A
:10414000012102F01F0201FA02F2024203D0E268EA
:104150008A427FF41FAF354D4FF4F852696892FAE6
:10416000A2F2B2FA82F2206921F4F85100FA02F2C6
:104170000A436A60DA067FF5C1AD6CE64FF00008CD
:10418000F9E52A4A136843F4803313604FE593FA44
:10419000A3F3B3FA83F303F1845303F58E139B0067
:1041A0001A60FEF72BFC4FF400780746012604E066
:1041B000FEF724FCC01B0228B1D898FAA8F32A689D
:1041C00098FAA8F3B3FA83F303F01F0306FA03F394
:1041D0001342EDD1236891E5144B4FF400795A6BEB
:1041E0001E4622F480725A635A6B012522F48062C3
:1041F0005A63FEF703FC074606E0FEF7FFFB41F2B9
:104200008833C01B98428AD899FAA9F3726B99FA3D
:10421000A9F3B3FA83F303F01F0305FA03F3134280
:10422000EBD1B8F1000F3FF4DFAD43E000380240BE
:10423000003C0240A0C19110BCDA00084000002000
:1042400058684FF07F4220F4604008435860586837
:1042500092FAA2F2B2FA82F2E56920F07F4005FA02
:1042600002F202435A609A6812F0F00F14D15A6AAF
:10427000D60040F196805D4B1A6802F4C052B2F548
:10428000C05F09D1B1F5404F06D1594A01201368EA
:1042900043F00403136000E00020554A136823F044
:1042A000010303431360136803F0010398427FF492
:1042B00071AE02E74F4A536A23F08053536293E58D
:1042C00042F480625A635A6B42F480725A636AE520
:1042D000484A536B43F48073536364E593FAA3F342
:1042E000B3FA83F303F1845303F58E139B0000228A
:1042F0001A60FEF783FB4FF000780746012605E0C1
:10430000FEF77CFBC01B02283FF609AF98FAA8F322
:1043100038492A6898FAA8F3B3FA83F303F01F0325
:1043200006FA03F313424FF00100E9D1A66AE56AE9
:10433000226B8B6846EA0504224323F47D03134372
:104340008B604FF0807393FAA3F3B3FA83F303F116
:10435000845303F58E139B0018600C460546FEF748
:104360004DFB4FF00076074605E0FEF747FBC01B0C
:1043700002283FF6D4AE96FAA6F3226896FAA6F380
:10438000B3FA83F303F01F0305FA03F31342ECD0EF
:104390005DE542F480221A601A6842F480321A60A5
:1043A00045E45A6A114842F080525A625A6A02F051
:1043B00080520392039A0268586A02F4C05220F0B5
:1043C000805058625BE75A6A084842F080525A624D
:1043D0005A6A02F080520292029A0268586A02F403
:1043E000C05220F080505862ABE500BF0070004022
:1043F000003C0240003802408A4A2DE9F04113682F
:1044000003F001038B4215D20129136807D023F072
:1044100001031943116001201368BDE8F08143F0E6
:1044200004031360136843F0010313601368DE078D
:1044300040F18D8003689F0706D57B4D8268AC688C
:1044400024F0F0042243AA60DD0706460C4637D567
:104450004368022B00F0CE80032B00F0C580012BB7
:1044600000F0CF804FF4007292FAA2F16E49086812
:1044700092FAA2F2B2FA82F2012102F01F0201FACC
:1044800002F2024263D0684D41F28838AA6822F0F5
:1044900003021343AB60FEF7B1FA73680746022BC1
:1044A0005DD0032B66D0012B06D16EE0FEF7A6FA95
:1044B000C01B404500F29B80AB6813F00C0FF5D198
:1044C000584A136803F001039C4239D333685807F4
:1044D00006D55548F268816821F4E0610A4382609C
:1044E000190758D450498B6803F00C02082A00F0D1
:1044F00086800C2A58D0042A7FD04B684FF4604243
:1045000092FAA2F2B2FA82F203F46043D3405A1C48
:104510004FF400439340444AF021926891FAA1F18C
:10452000B1FA81F1414802F0F002CA40815C404A90
:10453000CB400F201360FEF72DFA0020BDE8F0817C
:10454000136823F0010313601368DC07BED5012054
:10455000BDE8F081FEF752FAC01B404547D8AB6872
:1045600003F00C03082BF5D1AAE7FEF747FAC01BAE
:1045700040453CD8AB6803F00C030C2BF5D19FE70A
:10458000FEF73CFAC01B404531D8AB6803F00C0382
:10459000042BF5D194E7244A3169936823F46053DE
:1045A00043EAC10393609DE74FF4701292FAA2F2BE
:1045B000B2FA82F203F470101E4C20FA02F2A05CF0
:1045C0004FF4400292FAA2F2B2FA82F2896803F43E
:1045D0004003D340CA034CBF174A184A013302FBB9
:1045E00000F0B0FBF3F396E74FF000723CE70320D6
:1045F000BDE8F0814FF4003236E7104B8BE70E4BED
:1046000089E7022292FAA2F10749096892FAA2F216
:10461000B2FA82F202F01F0203FA02F20A427FF4B7
:1046200032AF94E7003C024000380240BCDA000898
:1046300040000020B0DA000800127A000024F400E4
:10464000084B4FF4E0629B6892FAA2F2B2FA82F24F
:104650000548064903F4E063D340C35C0868D840CA
:10466000704700BF00380240CCDA0008400000204C
:10467000084B4FF460529B6892FAA2F2B2FA82F2AF
:104680000548064903F46053D340C35C0868D8402A
:10469000704700BF00380240CCDA0008400000201C
:1046A00003689B074DD02DE9F043604B83B05A6AF5
:1046B000D10023D55E4B00251A680446D2052CD5BF
:1046C0005A4A6168136801F0C04003F0C043834256
:1046D00000F0828001F44032B2F5403F534B32D0BB
:1046E0005B6B13F4403335D150494B6B1A434A632B
:1046F000002D69D1002003B0BDE8F0835A6A01257E
:1047000042F080525A625B6A044603F08053019380
:10471000019B474B1A68D205D2D41A681E4642F450
:1047200080721A60FEF76AF907463368DB05C7D462
:10473000FEF764F9C01B6428F7D9032003B0BDE875
:10474000F083002070471E68B70352D45B6B13F4EC
:10475000403330D0934202D02068C60707D4A06807
:1047600000F44030984221D0236898071ED52F4E80
:104770004FF40003706B20F4403E93FAA3F1B1FABA
:1047800081F12C4A01270A449200176093FAA3F39F
:10479000B3FA83F3274A00211A449200C30511603B
:1047A000C6F834E027D4616801F44032B2F5403FE6
:1047B0009AD101F0C0401D494FF440320B6823F0FC
:1047C000C043184308608FE74B6A002023F08053F2
:1047D0004B6203B0BDE8F083A66806F0C046B34262
:1047E0007FF478AF536B01F4403213F44033B1D10E
:1047F000DCE701207FE7FEF701F980464FF40079FE
:1048000099FAA9F3726B99FAA9F3B3FA83F303F057
:104810001F0307FA03F31342C5D1FEF7EFF841F285
:104820008833C8EB00009842EAD986E70038024096
:1048300000700040A0C19110002852D0437F70B595
:1048400003F0FF020446002B47D02368CA215322FD
:104850000220607759625A62DA68510626D59A6852
:10486000606822F4E00222F040029A609A682169AE
:10487000104362690143E0680A439A60186119694C
:10488000A068A26941EA00411961D968FF2621F0B8
:104890008001D960196C012521F480211964196CFB
:1048A00000200A431A645E62657770BD4FF0FF32E4
:1048B000DA60FEF7A3F805462368DA685206CED41C
:1048C000FEF79CF8401BB0F57A7FF5D92268FF21EE
:1048D000042351620120637770BD0277FDF744FF26
:1048E000B3E70120704700BF2DE9F843037F012B98
:1048F00000F0868001240223047743770468002AAD
:1049000040D0A7684E7817F0400518BFCF780B78D5
:1049100018BF3D044FEA06268F7808BFCD7046EADF
:10492000034343EA070308BF046843EA0507532328
:10493000CA2262626362E36888465B06064662D505
:1049400007F07F3323F0FE432360A268D8F80C30D1
:1049500022F48022A260A168D8F810200B431343F0
:10496000A360E368304623F08003E36000F06AF957
:10497000002863D13268FF210123516230777377B9
:10498000BDE8F883A6680B7816F0400615BFCE7810
:10499000CE7036040468092B5AD900220A3BDBB2D8
:1049A000092B02F10102F9D84FEA021E5FFA8EFECE
:1049B0004A7843EA0E03092A4FEA034E4FF00005F6
:1049C00007D90A3AD2B2092A05F10105F9D82D0111
:1049D000EDB28B782A43092B4FEA02254FF00007EE
:1049E00007D90A3BDBB2092B07F10107F9D83F01D0
:1049F000FFB24EEA06022A433B4342EA030796E728
:104A00000220BDE8F8834FF0FF33E360FDF7F6FFC7
:104A100081463468E36813F0400591D1FDF7EEFF5D
:104A2000C9EB0000B0F57A7FF3D93268FF21042387
:104A30005162012035777377BDE8F8833168FF2034
:104A4000042200234862012072773377BDE8F8839F
:104A50004FF0000EACE700BFF8B5037F012B61D02B
:104A600001240223047743773AB34D78CA782D02A4
:104A70008E7845EA02420C78324342EA44340268B6
:104A80005323CA2151625362D36807465B064BD554
:104A900024F07F4424F0C0045460D368384623F0E7
:104AA0008003D36000F0CEF800285CD13A68FF2183
:104AB0000123516238777B77F8BD4B78DA064CD406
:104AC000CA780024092A07D90A3AD2B2092A04F17D
:104AD0000104F9D82401E4B22243092B4FEA02422F
:104AE0004AD900240A3BDBB2092B04F10104F9D8AE
:104AF0002501EDB28C782B43092C4FEA03254FF0AA
:104B0000000607D90A3CE4B2092C06F10106F9D8DF
:104B10003601F6B20B78344342EA433242EA0503E7
:104B20001C43ACE70220F8BD4FF0FF33D360FDF724
:104B300065FF06463A68D36813F04005A8D1FDF733
:104B40005DFF801BB0F57A7FF4D93A68FF2104231A
:104B5000516201203D777B77F8BD23F010030A33C3
:104B6000DBB24B70ACE73968FF20042200234862B7
:104B700001207A773B77F8BD0025BBE70368F0B4E6
:104B80005B6823F07F4323F0C003C3F30725DEB245
:104B9000C3F3423705F01F001B0C0F708E70CB70F3
:104BA0004870BAB9000934091A09870004EB840473
:104BB00005F00F0506F00F06384402EB820203F001
:104BC0000F0306EB440405EB400003EB42038C703B
:104BD0004870CB700020F0BC704700BF030903EBA6
:104BE000830300F00F0000EB4300C0B2704700BF2A
:104BF000F8B503689E6A1D691C68B6B204F07F337D
:104C000023F0FE43180C00F04007C5F30E0504F036
:104C10007F04C3F3062300F03F004E608D608C706C
:104C20004B70CF7008705AB90C46FFF7D7FF207051
:104C30006078FFF7D3FF6070A078FFF7CFFFA07018
:104C40000020F8BD38B503689A68920601D50020A7
:104C500038BDDA68044622F0A002DA60FDF7CEFE25
:104C600005462368DB689B06F1D4FDF7C7FE401BB1
:104C7000B0F57A7FF5D9032038BD00BF00283ED0BB
:104C800090F8353070B503F0FF02044693B3236803
:104C9000022284F83520B3F1804F1A6817D01949E1
:104CA0008B4214D001F580618B4210D001F58061F8
:104CB0008B420CD001F57C418B4208D001F580611C
:104CC0008B4208D001F580618B4208D103E0A168D6
:104CD00022F070020A43216922F440720A43E66816
:104CE000656801211A600020DE629D62596184F8C6
:104CF000351070BD80F83420FDF784FDC7E7012032
:104D0000704700BF0004004003680020DA6842F0EA
:104D10000102DA601A6842F001021A60704700BFAF
:104D200041F211120368D96821F00101D960196AB2
:104D30000A401AB91A6822F001021A60002070476E
:104D400090F83430012B40D00222036870B480F810
:104D500035209A680C6822F47F4222F07702012500
:104D6000402C80F834509A6073D018D9702C60D0E1
:104D70002DD9B4F5805F57D0B4F5005F1CD19C6885
:104D80008D684A6824F47F44C9682A43224342EA72
:104D900001229A609A6842F480429A600CE0102CDA
:104DA00032D038D9202C6CD0302C05D19A6822F022
:104DB000700242F037029A600023012280F8352009
:104DC00080F8343070BC1846704702207047502C71
:104DD0005ED0602CF0D11C6A4D6824F01004CE68BF
:104DE0001C6299691A6A21F4704122F0A00242EA19
:104DF000051241EA063199611A629A6822F070023E
:104E000042F067029A60D7E79A6822F0700242F097
:104E100017029A60D0E7002CCED19A6822F0700277
:104E200042F007029A60C7E79A6822F007029A6088
:104E3000C2E79C688D684A6824F47F44C9682A43A5
:104E4000224342EA01229A609A6842F077029A600D
:104E5000B2E71A6A1C6A4E6824F00104CD681C622D
:104E6000996922F00A0221F0F001324341EA05116A
:104E700099611A629A6822F0700242F047029A60C1
:104E80009AE79A6822F0700242F027029A6093E74C
:104E90001A6A1C6A4E6824F00104CD681C62996984
:104EA00022F00A0221F0F001324341EA0511996132
:104EB0001A629A6822F0700242F057029A607BE709
:104EC000704700BF704700BF704700BF704700BF0A
:104ED000036810B51A690446910702D5DA6892078B
:104EE00056D41A69520702D5DA6850073DD41A69B8
:104EF000110702D5DA68120725D41A69D00602D53F
:104F0000DA68D1060CD41A69D20702D5DA68D0075C
:104F100056D41A69510602D5DA68520649D410BD32
:104F20006FF010021A61DB69082213F4407F2275CA
:104F3000204656D1FFF7C4FF2046FFF7C5FF0022E9
:104F400023682275DFE76FF008021A61DB6904222B
:104F50009B072275204641D1FFF7B2FF2046FFF79D
:104F6000B3FF002223682275C7E76FF004021A61BD
:104F70009B69022213F4407F227520462BD1FFF754
:104F80009FFF2046FFF7A0FF002223682275AEE7AF
:104F90006FF002021A619B6901229907027517D10D
:104FA000FFF78EFF2046FFF78FFF00222368227550
:104FB00097E76FF0400220461A61FFF787FF10BDA8
:104FC0006FF001021A612046FDF7A0FA2368A0E7FE
:104FD000FFF778FFE9E7FFF775FFD5E7FFF772FF07
:104FE000BFE7FFF76FFFAAE790F83430012B1ED020
:104FF00002460220136830B482F835005C68086805
:1050000024F070045C605C684968204358609868CC
:10501000002420F080009860986801250143996081
:10502000204682F8355082F8344030BC7047022068
:10503000704700BF2DE9F04782460668C0683469B2
:10504000DAF8085024F4405420433061DAF81010A4
:10505000F368DAF81420DAF81C00294323F4164325
:105060000A43024323F00C031343F3607269DAF836
:10507000183022F440721343B0F5004F7361AD4B0A
:105080005CD09E4200F0B780FFF7DAFADAF80450FD
:1050900000EB800000EB8000AD00B0FBF5F5FFF702
:1050A000CFFAA54F00EB8000A7FB0535DAF80430F6
:1050B00000EB80009C00B0FBF4F4FFF7C1FADAF8D3
:1050C000043000EB80009B0000EB8000B0FBF3F0AD
:1050D000A7FB00304FF06408400908FB1044FFF7BD
:1050E000AFFADAF8041000EB80008A0000EB8000D1
:1050F000B0FBF2F9FFF7A4FADAF8042000EB800025
:10510000920000EB8000B0FBF2F0A7FB003024011E
:105110003234A7FB0434400908FB10926D0964097E
:105120002D0104F0F00412013232A7FB0223C3F375
:1051300043131C442544B560BDE8F0879E4200F04F
:10514000AA80FFF77DFADAF8045000EB800000EB4C
:1051500080006D00B0FBF5F5FFF772FA764F00EBBB
:105160008000A7FB0535DAF8043000EB80005C0016
:10517000B0FBF4F4FFF764FADAF8042000EB8000E7
:10518000530000EB8000B0FBF3F3A7FB03234FF0C9
:1051900064085B0908FB1344FFF752FAE400323459
:1051A000A7FB0434DAF8043000EB80005A0000EB6F
:1051B0008000B0FBF2F9FFF743FADAF8042000EBC5
:1051C0008000520000EB8000B0FBF2F0A7FB003241
:1051D0006D0924092D0104F4F874520908FB129298
:1051E000D2003232A7FB0223C3F342132B441C44E8
:1051F000B460BDE8F087FFF73BFADAF8045000EB43
:10520000800000EB8000AD00B0FBF5F5FFF730FA51
:10521000494F00EB8000A7FB0535DAF8043000EBBE
:1052200080009C00B0FBF4F4FFF722FADAF80420C7
:1052300000EB8000930000EB8000B0FBF3F3A7FBD2
:1052400003234FF064085B0908FB1344FFF710FACF
:1052500024013234A7FB0434DAF8043000EB800078
:105260009A0000EB8000B0FBF2F9FFF701FADAF8E0
:10527000042000EB8000920000EB8000B0FBF2F015
:10528000A7FB00326D09640952092D0104F0F004F6
:1052900008FB129247E7FFF7EBF9DAF8045000EB4E
:1052A000800000EB80006D00B0FBF5F5FFF7E0F942
:1052B000214F00EB8000A7FB0535DAF8043000EB46
:1052C00080005C00B0FBF4F4FFF7D2F9DAF80420B8
:1052D00000EB8000530000EB8000B0FBF3F3A7FB72
:1052E00003234FF064085B0908FB1344FFF7C0F980
:1052F000E4003234A7FB0434DAF8043000EB800019
:105300005A0000EB8000B0FBF2F9FFF7B1F9DAF8D0
:10531000043000EB800000EB80005B00B0FBF3F397
:10532000A7FB03236D0924092D0104F4F8745A091D
:1053300054E700BF003801401F85EB51704700BFA4
:1053400050B338B590F83930044603F0FF02F3B19A
:105350002268022384F83930D368204623F40053AE
:10536000D360FFF767FE236800211A69012522F444
:1053700090421A615A69084622F02A025A61DA6894
:1053800042F40052DA60E16384F8395038BD80F8A5
:105390003820FFF7D3FFDBE7012070472DE9F0410C
:1053A000054690F839000E46C1B201291F4604D0C7
:1053B000222902D00220BDE8F081002E00F08D806D
:1053C000002A00F08A8095F83830012BF2D0104680
:1053D0000023EB6395F839300121222B0CBF3223D7
:1053E000122385F8381085F83930AA84AB68013863
:1053F000B3F5805FE8844DD0FDF700FB80467A1C52
:105400002C6821D1226802F08002002AFAD0337879
:1054100001366360E88C0028E8D1FDF7EFFA044616
:105420007B1C2A685CD1136803F04003002BFAD080
:1054300095F83930322B78D0012385F839300020A7
:1054400085F83800BDE8F081236803F08003002B65
:10545000DDD137B1FDF7D2FAC8EB00008742CED2DA
:105460002C68E368012123F08003E360E3680022F5
:1054700023F02003E360E368032023F48073E360F8
:10548000636923F00103636185F8391085F83820DA
:10549000BDE8F081FDF7B2FA8046791C2C680CD18A
:1054A000226802F08002002AFAD033882A69C3F306
:1054B000080363607AB90236ACE7236803F080031F
:1054C000002BF2D1002FCCD0FDF798FAC8EB0000EA
:1054D0008742E2D2C4E701369CE70120BDE8F081B3
:1054E000136803F04003002BA2D12FB1FDF786FA19
:1054F000001B874294D22A68D368012423F08003DA
:10550000D360D368002123F02003D360D368032045
:1055100023F48073D360536923F00103536185F84A
:10552000394085F83810BDE8F081222385F83930FC
:1055300085E700BFF8B590F83940E4B2012C03D0FC
:10554000122C01D00220F8BD59B352B390F8383074
:10555000012BF7D0012480F8384004460023C363B0
:1055600090F839308162122B0CBF322322238285BE
:1055700080F839300C4F406B13460C4E0A460C4DE8
:1055800021688762C66205630431FDF707FB216865
:1055900000224B69104643F040034B6184F83820E9
:1055A000F8BD0120F8BD00BFB9550008ED55000851
:1055B000FD550008704700BF08B50368406A1B68C6
:1055C00013F020030DD10268C385536923F0400313
:1055D000536190F83930322B0CBF1223012380F82D
:1055E0003930FFF7E7FF08BD704700BF08B5406AD4
:1055F000FFF7FAFF08BD00BF704700BF406A08B55B
:10560000012380F83930C36B002243F01003C363D9
:10561000C285C284FFF7F0FF08BD00BF0F4B10B476
:1056200019680F4A41F48071196099680D480A4061
:105630009A601A68002422F0885222F001121A603F
:105640001A684FF0006122F480221A609A6822F4EE
:105650007D029A60DC60816010BC704700380240B7
:105660000CC0FF8800ED00E0F0B52C4C89B020465E
:10567000FEF7B2FA38B12948FEF7AEFA203818BF63
:10568000012009B0F0BD0646254D264B264A236071
:10569000EB694FF4804143F00203EB61EB694FF497
:1056A000407003F0020301934FF0330E019B6260E0
:1056B000042302222161039003A912271B48C4F886
:1056C0000CE006920793A66005960497FDF744FC4C
:1056D0006B6A314643F400136B626B6A012203F478
:1056E00000130293029BAB691F2043F40013AB61CC
:1056F000AB6923F40013AB61FDF7A6F91F20FDF79A
:10570000DBF9324631462020FDF79EF92020FDF7D7
:10571000D3F92046FDF732FFADE700BFBC040020FF
:105720000038024000540040801A06000004024085
:10573000F0B52C4C89B02046FEF74EFA38B1294816
:10574000FEF74AFA203818BF012009B0F0BD06461E
:10575000254D264B264A2360EB694FF4804143F0E8
:105760000203EB61EB694FF4407003F00203019315
:105770004FF0330E019B62600423022221610390EB
:1057800003A912271B48C4F80CE006920793A660F1
:1057900005960497FDF7E0FB6B6A314643F400136E
:1057A0006B626B6A012203F400130293029BAB69E4
:1057B0001F2043F40013AB61AB6923F40013AB610A
:1057C000FDF742F91F20FDF777F9324631462020D8
:1057D000FDF73AF92020FDF76FF92046FDF7CEFEE0
:1057E000ADE700BFBC040020003802400054004078
:1057F000801A0600000402402DE9F041002488B020
:10580000234D04940394069405940794EB69214F67
:1058100043F00203EB61EB691F4E03F002034FF00C
:105820000208019303A9202338460393019A0496A2
:10583000CDF81880FDF790FB224621461720FDF792
:1058400003F91720FDF738F903940494069405949E
:105850000794EB6903A943EA0803EB61EB69384657
:1058600003EA0803029310230393029A0496CDF8E7
:105870001880FDF771FB224621460A20FDF7E4F867
:105880000A20FDF719F9204608B0BDE8F08100BFF5
:10589000003802400004024000001110114B70B5A6
:1058A000DA6986B042F00202DA61DB690222134053
:1058B0000D4E0024009301A94FF480650B48009B16
:1058C0000492029601950394FDF746FB2246214679
:1058D0002820FDF7B9F82820FDF7EEF8204606B09D
:1058E00070BD00BF003802400000111000040240EB
:1058F0002DE9F0470546007884B040280E4617464B
:1059000098462ED02BD9B12817D123B300244FF4B9
:10591000805A4FF001093B193219A978D2B200938D
:10592000CDF808A0CDF8049001231648FDF7E0FE5D
:105930000134E0B9A045EED10DE0BC2811D04FF400
:105940008053A978324602938DE8800101230D48E7
:10595000FDF7CEFE58B9002004B0BDE8F08733282B
:10596000EDD1B8F1010FEAD946F08006E7E7054826
:10597000FDF7A4FE08B9FFF777FE012004B0BDE8EB
:10598000F08700BFBC0400202DE9F04705460078F1
:1059900084B040280E46174698462ED02BD9B12801
:1059A00017D123B300244FF4805A4FF001093B195B
:1059B0003219A978D2B20093CDF808A0CDF804909E
:1059C00001231648FDF784FF0134E0B9A045EED16C
:1059D0000DE0BC2811D04FF48053A97832460293D1
:1059E0008DE8800101230D48FDF772FF58B90020B2
:1059F00004B0BDE8F0873328EDD1B8F1010FEAD942
:105A000046F08006E7E70548FDF758FE08B9FFF7BE
:105A10002BFE012004B0BDE8F08700BFBC040020CD
:105A2000F8B500250F460D600646714C002800F0C1
:105A3000948001282FD1637E012B00F08C80FFF72A
:105A400077FE012800F0878023466A4ADFF8B0C15C
:105A500043F8402F4FF0330E322104F1300204F1AD
:105A60001400657526766576A576E6762363C4F818
:105A700020C084F814E0A17565626563E261386056
:105A8000236A1B68002B00F09C809847012800F0D7
:105A900090800020F8BD6379012B2CD0FFF748FEE1
:105AA000012828D02346544ADFF858E143F8382F1C
:105AB000524EA3626A2004F12803D62101226570A8
:105AC00025716571A571C4F80CE02070A170E271B8
:105AD000A360E56226613C60E3681B68002B7FD011
