:020000040800F2
:1000000000200020D93000083D3000083F300008B3
:1000100000000000000000000000000000000000E0
:10002000000000000000000000000000293100086E
:1000300000000000000000002931000841300008E5
:100040002931000829310008293100082931000828
:1000500029310008293100082931000849300008F9
:100060002931000829310008293100082931000808
:10007000293100082931000800000000293100085A
:10008000000000002931000800000000000000000E
:10009000293100080000000029310008293100083A
:1000A00029310008293100082931000829310008C8
:1000B00029310008293100082931000829310008B8
:1000C000054B0648033310B51B1A062B03D9044B06
:1000D000002B00D0984710BD740500207405002047
:1000E000000000000648074910B5091A8910CB0F17
:1000F0005918491003D0044B002B00D0984710BD6D
:1001000074050020740500200000000010B5074CA5
:100110002378002B09D1FFF7D3FF054B002B02D02A
:10012000044800E000BF0123237010BD74050020C7
:10013000000000006CBF0008094B10B5002B03D075
:100140000849094800E000BF08480368002B02D1B5
:10015000FFF7C8FF10BD064B002BF9D09847F7E713
:1001600000000000780500206CBF00087405002026
:10017000000000000023C25C0133002AFBD1581E9E
:100180007047000002B4714649084900095C490003
:100190008E4402BC7047C046002243088B4274D391
:1001A00003098B425FD3030A8B4244D3030B8B4278
:1001B00028D3030C8B420DD3FF22090212BA030C81
:1001C0008B4202D31212090265D0030B8B4219D362
:1001D00000E0090AC30B8B4201D3CB03C01A524182
:1001E000830B8B4201D38B03C01A5241430B8B42CA
:1001F00001D34B03C01A5241030B8B4201D30B03B3
:10020000C01A5241C30A8B4201D3CB02C01A5241D9
:10021000830A8B4201D38B02C01A5241430A8B429C
:1002200001D34B02C01A5241030A8B4201D30B0285
:10023000C01A5241CDD2C3098B4201D3CB01C01A9F
:10024000524183098B4201D38B01C01A52414309A9
:100250008B4201D34B01C01A524103098B4201D397
:100260000B01C01A5241C3088B4201D3CB00C01A04
:10027000524183088B4201D38B00C01A524143087C
:100280008B4201D34B00C01A5241411A00D20146A1
:10029000524110467047FFE701B5002000F0F0F82A
:1002A00002BDC0460029F7D076E7704703460B43EE
:1002B0007FD4002243088B4274D303098B425FD35F
:1002C000030A8B4244D3030B8B4228D3030C8B428B
:1002D0000DD3FF22090212BA030C8B4202D3121271
:1002E000090265D0030B8B4219D300E0090AC30B46
:1002F0008B4201D3CB03C01A5241830B8B4201D3F3
:100300008B03C01A5241430B8B4201D34B03C01ADB
:100310005241030B8B4201D30B03C01A5241C30A53
:100320008B4201D3CB02C01A5241830A8B4201D3C4
:100330008B02C01A5241430A8B4201D34B02C01AAE
:100340005241030A8B4201D30B02C01A5241CDD253
:10035000C3098B4201D3CB01C01A524183098B429E
:1003600001D38B01C01A524143098B4201D34B0187
:10037000C01A524103098B4201D30B01C01A5241EA
:10038000C3088B4201D3CB00C01A524183088B4271
:1003900001D38B00C01A524143088B4201D34B005A
:1003A000C01A5241411A00D20146524110467047CC
:1003B0005DE0CA0F00D04942031000D340425340D1
:1003C00000229C4603098B422DD3030A8B4212D391
:1003D000FC22890112BA030A8B420CD389019211C3
:1003E0008B4208D3890192118B4204D389013AD000
:1003F000921100E08909C3098B4201D3CB01C01AD5
:10040000524183098B4201D38B01C01A52414309E7
:100410008B4201D34B01C01A524103098B4201D3D5
:100420000B01C01A5241C3088B4201D3CB00C01A42
:10043000524183088B4201D38B00C01A5241D9D25A
:1004400043088B4201D34B00C01A5241411A00D2DB
:100450000146634652415B10104601D34042002BD7
:1004600000D54942704763465B1000D3404201B556
:10047000002000F005F802BD0029F8D016E770470B
:100480007047C0468446081C6146FFE71FB500F070
:1004900093FC002801D40021C8421FBD10B500F014
:1004A0001FFC4042013010BD10B500F085FC002853
:1004B00001DB002010BD012010BDC04610B500F0CA
:1004C0007BFC002801DD002010BD012010BDC046CE
:1004D00010B500F02DFC002801DC002010BD01202B
:1004E00010BDC04610B500F023FC002801DA002042
:1004F00010BD012010BDC046002B15D1002A13D11C
:10050000002906DB01DC002806D00020C04341089A
:1005100002E080210906002007B4024801A140182A
:10052000029003BD5DFFFFFF03B4684601B502986A
:1005300000F02AF9019B9E4602B00CBC7047C046F1
:10054000002B11D1002A0FD1002900D1002802D0A0
:100550000021C943081C07B4024802A140180290B8
:1005600003BDC0461DFFFFFF03B4684601B50298F6
:1005700000F04AF8019B9E4602B00CBC7047C04692
:10058000F0B54F464646C0B41604360C99463300C3
:1005900005042C0C070C150C63437E436F43654325
:1005A0001C0CAD1964199C46A64203D980235B023A
:1005B000984647446346250CEF191D044B464A43B1
:1005C00043432D0C240464199918C91920000CBC4C
:1005D00090469946F0BDC0469E2110B5C905041C41
:1005E000FFF780FF002803D1201C00F0C3FE10BDE0
:1005F0009E21201CC90500F037FD00F0BBFE8023C2
:100600001B069C466044F2E7F0B54D46564644460C
:100610005F46F0B4924683B004000D0099468B42C9
:100620002FD82CD04946504601F06EFA290006001A
:10063000200001F069FA331A9846203B9B4600D50A
:1006400074E053465A4693401F0053464246934037
:100650001E00AF4229D826D05B46A41BBD41002B0B
:1006600000DA79E0002200230092019301235A4628
:1006700093400193012342469340009319E0824244
:10068000D0D900220023009201930C9B002B01D0B3
:100690001C605D600098019903B03CBC904699468F
:1006A000A246AB46F0BDA342D6D900220023009259
:1006B00001934346002BE8D0FB0772081A434646D5
:1006C0007B080EE0AB4201D1A2420CD8A41A9D4196
:1006D000012024196D410021013E24184D41002EB6
:1006E00006D0AB42EED9013E24196D41002EF8D15F
:1006F0005B460098019900196941002B22DB2B0011
:100700005A46D3402A004446E2401C005B4615008E
:10071000002B2CDB26009E40330026004746BE40BF
:100720003200801A994100900191AEE742462023A1
:100730009B1A5246DA40414613004A468A40170047
:100740001F4382E7424620239B1A2A0046469A40CE
:100750002300F3401343D5E74246202300219B1A90
:100760000022009101920122DA40019282E7424682
:10077000202326009B1ADE402F00B4469740664691
:100780003B003343C9E7C046F0B583B016001F00F5
:100790000090019101F0C4F904000D0002000B006B
:1007A00030003900FFF7ECFE009A019B121A8B41D2
:1007B000089920000A604B60290003B0F0BDC046D4
:1007C000F8B54A02430244004E00C50F240E28002B
:1007D0009B09360EC90F92098D4259D0A01B0028E3
:1007E00000DC8DE0002E1AD1002A00D079E05A07F3
:1007F00004D00F221A40042A00D004335A0138D5FD
:100800000134FF2C00D189E028009B015B0AE4B28F
:100810005B02E4055B0A2343C0071843F8BDFF2CC5
:10082000E5D08021C9040A431B2800DD89E01600B9
:100830002021C640081A8240511E8A4132439B1A29
:100840005A0114D59B019E09300001F03FF905388B
:100850008640844265DC041B330020200134E340E1
:10086000041BA640721E964100243343BFE75A077B
:10087000BFD1DF082800FF2C2FD1002F00D187E047
:100880008022D20313003B435B025B0AFF24BFE7D5
:10089000A11B002949DD002E29D0FF2CA7D08026DE
:1008A000F60432431B2900DD8DE017002026CF40DF
:1008B000711A8A40511E8A413A439B185A01D6D573
:1008C0000134FF2C64D0012276491A405B080B40AA
:1008D00013438CE7031ECAD100207B025B0AE4B2FB
:1008E00096E701380028AAD0FF2C9DD17FE7002A87
:1008F00000D17CE701390029DFD0FF2CD2D176E787
:10090000002820D1601CC0B2012853DD80279E1A28
:10091000FF0437402FD0D61A0D0095E7280000239A
:1009200076E7614B241A334061E700294DD1611C01
:10093000CEB2012E2FDDFF292AD09B185B080C00B8
:1009400055E701227BE7002C1BD1002B5BD0C04375
:1009500000280CD0FF2E7ED01B2800DD92E01D0069
:100960002024C540201A8340581E83412B43D31AAC
:1009700034000D0064E7002E00D065E7002000245D
:10098000ABE7FF2E67D08024E40440422343E3E733
:10099000FF2400233CE7002C61D1002B7ED0002AED
:1009A00000D124E79B185A0100D460E73E4A0C00AE
:1009B00013401CE7002C1ED1002B2FD1002A66D03B
:1009C00013000D0013E7012277E7002C1FD1002B45
:1009D0005AD0C94300290BD0FF2E50D01B295FDC11
:1009E0001F002024CF40611A8B40591E8B413B438E
:1009F0009B18340062E7002B1CD1002A4AD0130058
:100A00000D00FF24F3E6130034000D00EFE6FF2E87
:100A100035D08024E40449422343DFE7002A00D193
:100A2000E5E68027981AFF04074000D152E7D31A61
:100A30000D00DCE6FF24002A00D1D8E68020DB0888
:100A4000C003034204D0D208024201D113000D00BA
:100A5000DB00FF24CBE61300FF240D00C7E6002BCC
:100A60000DD0FF24002A00D1C1E68021DB08C90394
:100A70000B42EDD0D2080A42EAD11300E8E7130096
:100A8000FF24B4E6012372E713003400AFE6002729
:100A9000002022E780270020FF03F1E61300A6E6EE
:100AA0000123A5E7FFFFFF7DFFFFFFFBF0B55646E3
:100AB00044465F464D46F0B444024600C70F83B03B
:100AC0008846650A360EBA463DD0FF2E22D0002356
:100AD000EC00802599469B46ED0425437F3E434626
:100AE0005C025800DB0F640A000E984636D0FF28DF
:100AF00030D080230021E400DB041C437F38301A0F
:100B00000190484642460843724E800030587A4071
:100B100013008746002D44D108239946063B9B4687
:100B2000DDE70122FF2000241A406402C305640AA5
:100B3000D2071C431443200003B03CBC90469946A6
:100B4000A246AB46F0BD002D20D104239946033BBD
:100B50009B46C4E7002C17D1022102E0002C0AD1E9
:100B60000121321A01924A4643460A435A489200EA
:100B700082587B409746200000F0A8FF431F763044
:100B80009C4040420021BAE70321B8E7280000F06A
:100B90009DFF431F9D4000237630464299469B4669
:100BA0009DE70C239946093B9B4698E78024002249
:100BB000E403FF20B9E70024C2468B465A46534659
:100BC000022AAED0032A7DD0012A31D10122002091
:100BD0001A400024A9E70122101A1B2856DD1A40EA
:100BE00000200024A1E78023DB031D424BD180239A
:100BF000DB032B435C02640A3A00FF2095E76D019A
:100C00006001854230D2019A0024013A01921B22F0
:100C10000127290064006D00002901DBA84201D8EA
:100C20002D1A3C43013A002AF3D16A1E95412C4308
:100C300001987F300028CEDD620704D00F222240C9
:100C4000042A00D00434220103D5244A0198144018
:100C50008030FE2800DD64E70122A401640AC0B2EE
:100C60001A4062E72C00A9E72D1A1A220124CFE7C7
:100C70006B02BCD500248023DB031C436402640A9E
:100C80004246FF2051E71C42B3D1F4E72100202265
:100C9000C140101A8440621E94410C43620704D084
:100CA0000F222240042A00D00434620104D501221C
:100CB00001201A40002438E70122A401640A1A40E6
:100CC000002032E78023DB031C436402640A52469F
:100CD000FF202AE724C0000864C00008FFFFFFF7D8
:100CE000430270B542004C005D0AC30F4802120E69
:100CF000460A240EC90FFF2A0FD0FF2C11D0012065
:100D0000A24200D070BDB542FCD18B420DD0002A6A
:100D1000F8D12800431E9841F4E70120002DF1D1BD
:100D2000EBE70120002EEDD1E9E70020EAE7C0461D
:100D30004302F0B542005D0AC30F4802440A48006E
:100D4000120E000EC90FFF2A1FD0FF2822D0002A42
:100D500009D16E426E4100280FD1002C0DD1002028
:100D6000002D09D005E0002801D1002C01D08B42D4
:100D700013D0584201231843F0BD002EF7D048424B
:100D80004141012049420843F6E7002DDDD0022011
:100D90004042F1E7002CDAD0F9E78242E9DC04DBDB
:100DA000A542E6D80020A542E6D2584243410120A0
:100DB0005B421843E0E7C0464302F0B542004C00F6
:100DC0005E0AC30F4802120E450A240EC90FFF2AFD
:100DD00017D0FF2C19D0002A0BD170427041002C83
:100DE00017D0002807D0484241410120494208431A
:100DF000F0BD002C13D08B4214D05842012318436D
:100E0000F6E70220002EF3D1E3E70220002DEFD118
:100E1000E1E7002DE5D10020002EE9D0EDE7002D1F
:100E2000E9D1EAE7A242E8DC04DBAE42E5D80020E3
:100E3000AE42DDD25842434101205B421843D7E71E
:100E4000F0B557464E4645464300E0B44602884654
:100E5000760A1F0EC40F002F47D0FF2F25D0002386
:100E600080259A469946F600ED042E437F3F43467F
:100E700042465D02D20F5B006D0A1B0E904640D0C9
:100E8000FF2B39D080220020ED00D20415437F3B98
:100E9000FB1842465746591C62408C4607430F2FA9
:100EA0005CD86F49BF00C9598F46002E45D1082331
:100EB0009A46063B9946DAE7424602282DD0032897
:100EC00000D1C3E0012800D0A2E0002500260240A6
:100ED000D4B27602ED05760A2E43E40726433000AD
:100EE0001CBC90469946A246F0BD002E1AD10423A0
:100EF0009A46033B9946BAE72A00511E8A41901C44
:100F0000C6E70120002DC3D0280000F0DFFD431FFD
:100F100076309D4043420020BAE70124FF2514406B
:100F20000026D6E7300000F0D1FD431F9E4000238D
:100F3000763047429A46994699E70C239A46093BF0
:100F4000994694E780260024F603FF25C1E7350083
:100F50004846B2E7350022004846AEE72904090CAE
:100F60000800370C3604360C2C0C79437043674369
:100F70007443060C64183619B14203D98021490222
:100F8000884647440004000C310409188D01681E8E
:100F90008541890E2943350CED19AD010D43290119
:100FA00004D5012369081D4063460D4319007F31B4
:100FB000002925DD680704D00F202840042800D030
:100FC0000435280103D5274980330D401900FE2937
:100FD000A3DC0124AD016E0A1440CDB279E7802074
:100FE000C003064207D0054205D128434602760ACF
:100FF0004446FF256DE706437602760AFF2568E73B
:101000000124611A1B2905DD14400025002660E734
:101010006346CBE72E002023CE40591A8D406B1E2D
:101020009D412E43730704D00F233340042B00D07F
:101030000436730104D5012401251440002648E735
:101040000124B601760A1440002542E780260124D7
:10105000F6032E437602760A1440FF2539E7C04690
:10106000A4C00008FFFFFFF7F8B54A024E00430294
:101070004400240EC50F9B09360EC90F9209FF2E9E
:1010800000D183E001204140A01BA9425CD0002890
:1010900000DC95E0002E1CD1002A00D081E05A0728
:1010A00004D00F221A40042A00D004335A013BD541
:1010B0000134FF2C00D191E001209B015B0AE4B2D6
:1010C00005405B02E4055B0AED0723432B43180050
:1010D000F8BDFF2CE3D08021C9040A431B2800DDA2
:1010E00090E016002021C640081A8240511E8A4115
:1010F00032439B1A5A0115D59B019E09300000F01E
:10110000E5FC0538864084426CDC041B330020205B
:101110000134E340041BA640721E96410024334371
:10112000BDE70D005A07BCD1DF0801231D40FF2C8D
:1011300033D1002F00D190E08022D20313003B4333
:101140005B025B0AFF24BCE700284FDD002E2ED097
:10115000FF2CA4D08025ED042A431B2800DD97E056
:1011600016002025C640281A8240501E8241324374
:101170009B185A01D5D50134FF2C6DD001227B4834
:101180001A405B08034013430D0088E7002A00D093
:101190007AE777E7031EC5D100257B025B0AE4B23C
:1011A0008FE701380028A4D0FF2C97D177E7002AD9
:1011B00000D174E701380028DAD0FF2CCDD16EE7DA
:1011C000002821D1601CC0B2012858DD80279E1A5A
:1011D000FF0437402FD0D61A0D008FE701231D40A2
:1011E00000236EE7624B241A334058E7002851D1A0
:1011F000601CC6B2012E33DDFF282DD09B185B0882
:1012000004004CE7012274E7002C1AD0FF2E1FD0F7
:101210008024E404404223431B2800DD96E01D00A7
:101220002024C540201A8340581E83412B43D31AE3
:1012300034000D005EE7002E00D05FE7002500249B
:10124000ABE7002B44D0C0430028F0D0FF2EE3D101
:101250001300FF240D0022E70D00FF24002330E7D8
:10126000002C5DD1002B7DD0002A00D117E79B1800
:101270005A0100D456E73E4A040013400FE7002C01
:101280001ED1002B2FD1002A65D013000D0006E7D8
:1012900001226DE7002C1FD1002B59D0C04300283C
:1012A0000BD0FF2E4FD01B285EDC1D002024C54034
:1012B000201A8340581E83412B439B18340058E763
:1012C000002B1CD1002A49D013000D00FF24E6E6B4
:1012D000130034000D00E2E6FF2E34D08024E40435
:1012E00040422343DFE7002A00D1D8E68027981A3E
:1012F000FF04074000D14DE7D31A0D00CFE6FF24CD
:10130000002A00D1CBE68020DB08C003034204D0D2
:10131000D208024201D113000D00DB00FF24BEE61B
:10132000002B10D0FF24002A00D1B8E68020DB0873
:10133000C003034203D0D208024200D11300DB00F5
:101340000D00FF24ABE61300FF24A8E601236EE79F
:1013500013003400A3E6002700251EE780270025A0
:10136000FF03E9E613009AE60123A6E7FFFFFF7DEE
:10137000FFFFFFFB4302590A4300C20F1B0E002070
:101380007E2B0EDD9D2B0DDC802000040143952B70
:101390000BDC9620C31AD9400B005842002A00D11A
:1013A00018007047034BD018FBE7963B99400B00A1
:1013B000F3E7C046FFFFFF7F70B5002830D0C317AA
:1013C000C5185D40C40F280000F080FB9E231B1A47
:1013D000962B0DDC9622D21A95406A02520AD8B298
:1013E0005202C005520AE40702432243100070BDB6
:1013F000992B19DC9922D21A9540124A2A40690782
:1014000004D00F210D40042D00D00432510103D52A
:101410000C4B1A409F231B1A9201520AD8B2DFE7E5
:10142000002400200022DBE705222E00121AB92139
:10143000D6402A00C91A8A40551EAA4135001543D4
:10144000DBE7C046FFFFFFFB70B5041E28D000F0AD
:101450003DFB9E231B1A962B0ADC9622D21A94403F
:101460006202520AD8B25202520AC005104370BD3D
:10147000992B18DC9922D21A9440114A2240610714
:1014800004D00F210C40042C00D00432510103D5AC
:101490000B4B1A409F231B1A9201520AD8B2E2E763
:1014A00000200022DFE705222500121AB921D540CD
:1014B0002200C91A8A40541EA2412C001443DCE7C2
:1014C000FFFFFFFBF0B55F4656464D464446F0B47D
:1014D0000D0399464E002B0B87B0070092468046BD
:1014E0009B46760DCC0F002E69D06D4B9E4235D0B9
:1014F0005B468022DD001204430F13432B439B46BF
:10150000C3009846674B00279C460023664401931E
:101510004A4615035000D20F53462D0B400D9146FD
:1015200000D176E05E4A90426CD080225B0F1204BC
:1015300013435C4AED0094461D4353460022DB00F2
:10154000604449463618701C6140029017430F2FC3
:1015500000D9AFE05448BF00C759BF465B461F43A0
:1015600000D088E000239B46984602330827019369
:10157000CEE74946022A6AD0032A00D109E2012AAD
:1015800000D0BBE111400022002300259046CCB2E0
:1015900000212D030A0D12052D0B1543434A1B058F
:1015A00015401D436D00E4076D08254340462900A2
:1015B00007B03CBC90469946A246AB46F0BD0343FB
:1015C00052D05B46002B00D18AE1584600F07EFAEB
:1015D00003000B3B1C2B00DD7BE11D22D31A3A00DC
:1015E00001005D46DA4008398D4013008F402B43DF
:1015F0009B46B8462E4B00279C460023604446423B
:10160000019385E752462A432CD10025002302226C
:1016100097E752462A4321D0002D00D154E12800FB
:1016200000F054FA03000B3B1C2B00DD46E11D21AA
:10163000CB1A51460200D9405346083A9540934090
:101640000D431B4A944660444042002279E701243E
:1016500000220C40124B0025904699E700250023FC
:1016600001226EE703226CE700239B469846013374
:10167000042701934CE703230C27019348E7002339
:101680008025984600242D03054B81E75D4643469F
:10169000019A6FE75D4643462100019A6AE7C0461A
:1016A000FF07000001FCFFFFE4C00008FFFF0F8000
:1016B000F30300004246120C91461A0C944642462F
:1016C00017044A461B041B0C5A43604690464A4680
:1016D00042431000039262461C003F0C7A437C4355
:1016E00042440192220C9246019A5244904506D9F6
:1016F0008246802040028046C24450460390100C2F
:10170000049048462404240C1204121905922A0C51
:101710002D042D0C68432C00824648467C435043E0
:101720008146200C8046574357444744BA4503D965
:10173000802040028046C144380C3F04B8464844EB
:101740002404240C01900498A0444044049058467A
:10175000000C814658460404200C82460700484687
:101760005F434C464343604660436446834650466D
:101770004443380C8446E4186444A34203D98023CC
:101780005B029C46E34448463F04230C3F0C240480
:10179000E419574668436F4384464D4650465543C7
:1017A0004243380C814662444A445B44944503D921
:1017B000802040028446654403983F048346049891
:1017C0003F0C8446E344C3458041404282461004B6
:1017D00084460198674484466744A344BC46A345B5
:1017E000A4419946D44464428742BF41D4458041D4
:1017F000E144A04699459B417F424042C84407438B
:10180000120CBA18A045A4415F423B006442234336
:10181000D71843467D19DB0D6D021D435B465A0206
:10182000059B1A43531E9A415B46DB0D1A43434600
:101830005B021343EA0107D501225C0813402343EE
:10184000EA07029E13436D08574AB218002A4BDD7F
:10185000580709D00F201840042805D0181D9842B9
:101860009B415B42ED180300E80104D54F4A154047
:101870008022D200B2184E48824200DDE7E6012401
:10188000DB08680718436D02530580462D0B5B0D7E
:101890000C407DE6802259461203114208D01542C1
:1018A00006D115432D0398462D0B4C46414B6FE650
:1018B0005D4615432D032D0B3E4B69E6030055464F
:1018C000283B9D400023BCE6504600F0FFF8203046
:1018D000A8E60300283B9F400023BB46984689E6C4
:1018E00000F0F4F8203073E60124A61A382E07DD44
:1018F00000220C4000230025904649E6029EA3E703
:101900001F2E20DC20222C001800921BF040944057
:1019100093400443581E83411C43F540630709D09C
:101920000F232340042B05D023001C1D9C42924111
:101930005242AD182B021FD5012400220C40012376
:101940000025904624E61F202C004042821AD440F5
:10195000202E1CD04022961BB5402B43581E83419D
:101960000720234318400025002809D00F22002516
:101970001A401C00042AD8D1230068076D022D0BE1
:101980000124DB08034398460C40002300E60025B1
:10199000E3E780220124120315432D0398462D0B03
:1019A0000C40044BF4E5C046FF030000FFFFFFFEC0
:1019B000FE070000FF0700000B0330B5134D1A0BA4
:1019C0004B005B0DC90F0024AB4211DD104CA3424C
:1019D00010DC8024640322430E4CE41A1F2C0CDD1F
:1019E0000D48C31ADA4013005C42002900D11C00E4
:1019F000200030BD094BCC18FAE7E040084CA44663
:101A000063449A4013000343EEE7C046FE03000020
:101A10001D0400003304000013040000FFFFFF7FDB
:101A2000EDFBFFFF4200120E511C4302C9B270B51C
:101A30005D0AC40F012915DDE02189008C466D0780
:101A40001B0B6244002128000D0D2D052B431C4D5E
:101A500052052B40520813435B00E4075B08234305
:101A6000190070BD002A15D1002D1FD0280000F0EC
:101A70002DF80A281DDC0B232A001B1ADA4013005C
:101A80000200153295400F4A1B03121A52051B0B18
:101A9000520DD7E7002D06D080221B0B12031343F3
:101AA0006D07094ACEE7084A0023CBE7002200234E
:101AB000C8E703000B3B9D402B000025E3E7C04631
:101AC000FFFF0F8089030000FF0700001C21012396
:101AD0001B04984201D3000C10391B0A984201D311
:101AE000000A08391B09984201D30009043902A2EF
:101AF000105C40187047C046040302020101010156
:101B0000000000000000000010B5002903D1FFF71D
:101B1000DDFF203002E0081CFFF7D8FF10BDC046F3
:101B2000F0B544465F4656464D46F0B41C0083B0BF
:101B3000002900DA92E00F00002106008A4610001A
:101B40001900002C00DA80E034003D008146884610
:101B5000B94269D866D041464846FFF7D5FF83466B
:101B600039003000FFF7D0FF5B461B1A9C46203B34
:101B70009B4600D586E04946584681400B004946C1
:101B8000604681400A00BB4200D971E06DD034004C
:101B90003D005946A41A9D41002900DA89E0002140
:101BA000002001260090019159468E400196614621
:101BB00001268E4061460096002960D0D90756085C
:101BC0000E435F086146012200230CE0AF4201D1C1
:101BD000A6420AD8A41BBD4124196D410139A4189D
:101BE0005D41002906D0AF42F0D9013924196D4179
:101BF0000029F8D15B460098019900196941002B32
:101C00004CDB2E00DE4063462C00DC405B46002BA4
:101C10005ADB34009C4023006446A6403200801A00
:101C2000994103E0B04296D9002000215346002B91
:101C300004D003000C0000215842A14103B03CBC79
:101C400090469946A246AB46F0BD5346DB430C0096
:101C50009A46130000215842A14175E700274642E9
:101C60008F41012149428A4669E7B14200D88EE797
:101C70000021002000900191614600299ED100982A
:101C80000199D3E7624640462023494690409B1A7B
:101C9000D9400300009100990B4370E7624620236E
:101CA0009B1A2A009A40260013006246D6401E4323
:101CB000A9E7614620260127761A00200021F74077
:101CC00000900191019772E762462023350094400D
:101CD0009B1ADD4023002B439EE7C04643790371E6
:101CE000322343718379803B83717047044B1B78A7
:101CF0000371322343712A3B8371053B03607047B4
:101D000000000020F8B5076804000025012F7DD9E8
:101D10000379322B7AD18679082E4AD006D8022E42
:101D20001FD0042E30D0012E6FD10AE00C2E60D0CF
:101D300002D8092E54D068E00E2E0CD0502E33D08D
:101D400063E0032F62D1FFF7C9FF2760200000F096
:101D5000DBF835005AE0032F58D1FFF7BFFF2760AB
:101D600020E0032F52D1FFF7B9FF294B0133E95C83
:101D700062190135D171282DF9D12B232000236060
:101D800000F0C2F8273D41E0022F3FD0FFF7A6FF49
:101D9000E01D3200652101F002F9072323602000D5
:101DA00000F0B2F8012531E0042F2FD901F064F8DA
:101DB000F8E7022F2AD00421073001F0E5F80125C9
:101DC000144B1860144B20001D706279104B1A7070
:101DD000FFF784FF03232000236000F095F815E04F
:101DE000022F13D00B4B1D600B4B1D70FFF776FFBE
:101DF000D5E7022F0AD0FFF771FF0323627A236031
:101E0000217AE07900F062FDC9E700252800F8BDDD
:101E100000000020AC05002040070020F0B5364C43
:101E200085B00700200000F02BF900285FD12000CA
:101E300000F05AF980239B00181A82B200922F4AB0
:101E40009488009AA24201D3131B02E0009A1B1B44
:101E5000D318002635009BB20293029B9D423ED0D0
:101E6000274B284A1B5D0134A4B2DBB2944200D94F
:101E70000024F02B30D1214B9C8800230193019A40
:101E8000631CAA421ED2DB05DB0D0393039A1C4B95
:101E9000185D995CBA19C0B2C9B2043201F03AF8BF
:101EA000C0B2002804D16A46144B92899A8021E07E
:101EB00080B2019B2418E40501361818E40DB6B26F
:101EC00083B2DBE7DC050D4B3E60E40D38009C80FF
:101ED00001F041F800280CD10135ADB2BDE78023F7
:101EE0005B009D4203D96A46044B12889A80002009
:101EF00000E0012005B0F0BD440700208407002069
:101F00003C080020FF01000070B5050001F013F847
:101F1000054C2900200000F0E9FF044B82B22100AB
:101F2000034803F045F870BD3C0A00208813000008
:101F30008C07002010B5054C200000F0D9F82000D7
:101F400001F08AF9024B5C66A36210BD44070020D1
:101F50008C07002001228020284B30B5D96A89B037
:101F60001143D962D96A8002114000910099D96A5F
:101F700000251143D962D96A0424114001910199C5
:101F8000996B01439963196BA020114319631B6B73
:101F900003A91A400292029B0223C00503940493F2
:101FA00005950693079401F019FAA020082303A9C8
:101FB000C0050393079401F011FA114C114B200056
:101FC0002360114BA5601B68E56063600C232561ED
:101FD000A561636103F086F8051E00D0FEE7FFF7F8
:101FE000A9FF23008022094958339200200061652F
:101FF0001A80E56602F07AFD09B030BD001002409B
:102000008C070020004400402C0000203C080020E9
:10201000802270B5174C5205A36B94B01343164A37
:10202000A3631168154B00250B40802109010B4368
:1020300013600223069310938023DB021293802304
:1020400001261022DB0306A80A9213930996119524
:1020500001F016FE0F233100019301A80C3B0293FF
:1020600003950495059502F0C1F8616B31436163F6
:1020700014B070BD0010024000700040FFE7FFFF89
:10208000124B13491A68036808208B421CD011496F
:1020900078308B4218D010498B420BD00F498B42BD
:1020A0000BD00F498B420BD00E4980208B420AD0B7
:1020B000000509E08020000106E08020000203E026
:1020C0008020000300E00004104070470000024040
:1020D000080002401C000240300002404400024060
:1020E000580002406C0002400368586870470000C6
:1020F000084B8022036000238360C36043618361D7
:102100002033C361C0239B01036204230261436047
:102110007047C0465800024070B50D000021041CF5
:10212000FEF7E0F9002802D000232B7004E0012321
:102130002B7080231B06E418201CFFF71BF9686036
:10214000FFF782F9011C201CFEF78EFFFFF76AFCE7
:102150000022034BFFF7B6F9FFF72EFCA86070BD15
:1021600000005940F0B5D1B000F0F4FFFFF750FF88
:10217000002003F057FF002003F07CFF0121002026
:1021800003F090FFFFF7E6FE0C2380220F9300235D
:102190000FAC52002000A3626361A26001F070FDE9
:1021A000C14B002806D001221A607F23BF4A9360EA
:1021B000B13304E018607F23BC4A93608033D3605E
:1021C000BB4A1360B94ABB4B1000136040235360F5
:1021D000002313619361D36102F0DEFA002800D07E
:1021E000FEE7142304AAD3760226182356769376A4
:1021F00016760AA90122AD4802F0A2FB002800D001
:10220000FEE708231027A070E070E0602061012243
:102210002100A6482370677002F014FB002800D04C
:10222000FEE70120A44D4042290003F0B1F901204E
:10223000291D404203F0A6FA29000120083140423E
:1022400003F058FC290001200C31404203F07EFBD2
:10225000290001201031404203F042FE29000120F4
:102260001431404203F020FD059606972000FFF749
:10227000D5FD914D914E00280AD02379322B07D1FC
:102280002000FFF73FFD3378002B01D000232B7691
:10229000EB692A6A9A423BD00122EB6968692B629A
:1022A000EB69134202D003F00AFD01E003F017FDD1
:1022B0000422EB69E868134202D003F052FB01E00C
:1022C00003F05FFBEB69059A2869134202D003F023
:1022D00023FE01E003F030FEEB69069A2868134202
:1022E00002D003F071F901E003F07EF9EB69686850
:1022F0009B0602D503F051FA01E003F05EFAEB69A8
:10230000A8685B0602D503F000FC01E003F00DFCB9
:102310003078C0B2002802D12B7E002B13D00022CF
:102320000AA9624802F084FB002209A95F4802F072
:10233000A9FB5F4B19680B9BC81A642301315843F2
:10234000FDF7B4FFC0B25D4B1B78002B08D00AAB81
:102350001A78E2715A7822729B78A07263721BE03D
:102360002B7E002B18D0802104AB1B7E04AA029088
:10237000927E534D019204AA527E49000092280099
:10238000504A08F029FD2800FDF7F4FE4E4B82B2BA
:1023900029004E4802F00CFE0122474DEB69134222
:1023A0004BD0132704ABFF18002309AE390068692E
:1023B0003B70337003F0A3FC00283ED13B78012B27
:1023C0003BD13100686903F0F0FC3378002B34D046
:1023D00008216A1DD37F3E4E0133D377AA1DD37FD8
:1023E00068690B433100D37703F09DFC334B1B78B6
:1023F000002B07D0372004AB04223100C01808F0AE
:10240000BFFC1AE02B7E002B17D00AA93068FFF71B
:1024100083FE80212A4D0C9B2E4A4900079300938E
:1024200028000B9B08F0D8FC2800FDF7A3FE264BE4
:1024300082B22900254802F0BBFD04221E4DEB6943
:10244000134266D0132704ABFF18002309AE3900EE
:10245000E8683B70337003F0A4FA002859D13B7848
:10246000012B56D13100E86803F0F1FA3378002BE4
:102470004FD06A1DD37F06990133D377AA1DD37F2E
:10248000154E0B43E8683100D37703F09EFA0B4BEF
:102490001B78002B22D03F2004AB04223100C0184F
:1024A00008F06EFC35E0C046D4050020600D002029
:1024B000900D0020002800409005002040070020DB
:1024C000540C002024C10008881300008C07002051
:1024D000400C00203DC10008500C00202B7E002B3A
:1024E00017D00AA93068FFF717FE8021D34D0C9B47
:1024F000D34A49000793009328000B9B08F06CFC1B
:102500002800FDF737FECF4B82B22900CE4802F0FB
:102510004FFDCE4D059AEB69134253D0132704AB00
:10252000FF18002309AE390028693B70337003F0AF
:1025300013FD002846D13B78012B43D13100286997
:1025400003F060FD3378002B3CD020216A1DD37F3F
:10255000BF4E0133D377AA1DD37F28690B433100C7
:10256000D37703F00DFDBB4B1B78002B07D03B202E
:1025700004AB04223100C01808F002FC22E02B7EDC
:10258000002B1FD00AAD29003068FFF7C5FD0022DF
:10259000AA562D23002A00D1023B80210C9AA74D78
:1025A00001920B9A4900079200922800AA4A08F06B
:1025B00013FC2800FDF7DEFDA24B82B22900A248E1
:1025C00002F0F6FCA14D069AEB69134253D00023AA
:1025D00009AF0AAE390028683B70337003F014F875
:1025E000002848D13F78012F45D13100286803F0F9
:1025F00071F83378002B3ED06A1DD37F974E01339C
:10260000D377AA1DD37F31001F432868D77703F003
:102610000FF8904B1B78002B15D0432004AB31688A
:10262000C018042200F0BBFC472004AB7168C0183E
:10263000042200F0B4FC4B2004AB0422B168C018A3
:1026400000F0ADFC17E02B7E002B14D08021B36886
:102650007A4D01937368824A0093336849002800D9
:1026600008F0BAFB2800FDF785FD764B82B2290001
:10267000754802F09DFC754DEB699B0654D500230F
:1026800009AF0AAE390068683B70337003F0A5F8F3
:10269000002849D13B78012B46D13100686803F00E
:1026A00002F93378002B3FD06A1DD37F059901339F
:1026B000D377AA1DD37F6B4E0B4368683100D37765
:1026C00003F09FF8634B1B78002B15D04F2004AB11
:1026D0003168C018042200F062FC532004AB71681A
:1026E000C018042200F05BFC572004AB0422B16840
:1026F000C01800F054FC17E02B7E002B14D0802172
:10270000B3684E4D01937368574A0093336849008C
:10271000280008F061FB2800FDF72CFD494B82B230
:102720002900494802F044FC484DEB695B0654D54A
:10273000002309AF0AAE3900A8683B70337003F07C
:1027400004FA002849D13B78012B46D13100A86812
:1027500003F051FA3378002B3FD004216A1DD37F58
:10276000424E0133D377AA1DD37FA8680B433100B3
:10277000D37703F0FEF9374B1B78002B15D05B2085
:1027800004AB3168C018042200F009FC5F2004ABE0
:102790007168C018042200F002FC632004AB04221C
:1027A000B168C01800F0FBFB17E02B7E002B14D0A3
:1027B0008021B368214D019373682D4A00933368DB
:1027C0004900280008F008FB2800FDF7D3FC1D4B4A
:1027D00082B229001C4802F0EBFB1E4E1B4D3378E1
:1027E000002B03D1287EC0B2002803D0002003F0C4
:1027F0004DFC01E003F03EFC3378002B14D06E1D3D
:10280000F37F002B10D02000FFF770FA6723063506
:10281000EA7F04A95B181A70382320000F93FFF792
:1028200073FB0023F377EB77084B1B7E002B00D163
:102830001CE5FA20400000F0AFFC17E5540C002026
:102840004EC10008881300008C070020900500206E
:102850003C0C0020400700205DC10008540D002002
:102860006FC10008440C002091C10008840D0020B5
:10287000B3C10008802310B59B01984221D1114CAF
:10288000A36A002B06D1E36A002B03D100F07EFC83
:10289000A0620BE000F07AFCE062E36AA26A9B1A95
:1028A0009622520093420CD9E36AA362064B1B782E
:1028B000002B01D0002303E0237E5A425341DBB2B8
:1028C000237610BD900500204007002010B51400AD
:1028D000002286B001AB1870597007481900DA70F1
:1028E0009C7002920492059201F0ACFF002800D087
:1028F000FEE706B010BDC046600D0020FEE70000F8
:1029000037B50500007A00230138052830D86B461A
:10291000DC1D697A2200FDF735FC03080D12171C37
:10292000144B186802F0B5FE17E0134B186802F05C
:1029300099FF12E0114B186803F03CF90DE0104BC1
:10294000186803F03EFB08E00E4B186803F05EF8D1
:1029500003E00D4B186803F007FA2800FFF7BEF9F3
:1029600023782800AB7207232B60FFF7CDFA0123F1
:1029700018003EBD90050020940500209805002019
:10298000A00500209C050020A405002010B504002F
:10299000007A0023013805282CD8A27A617AFDF745
:1029A000F1FB03080D12171C134B186802F082FE8E
:1029B00017E0124B186802F066FF12E0104B18681F
:1029C00003F009F90DE00F4B186803F00BFB08E06A
:1029D0000D4B186803F02BF803E00C4B186803F05C
:1029E000D4F92000FFF77AF9072320002360FFF7CE
:1029F0008BFA0123180010BD9005002094050020DB
:102A000098050020A00500209C050020A4050020BA
:102A100010B504210400093000F0B6FA0200207A53
:102A20000023013804281ED8FDF7ACFB030C141456
:102A300014001000FEF708FD0C4B011C186802F092
:102A400018FE07E01000FEF7FFFC094B011C186898
:102A500002F0F8FE2000FFF741F90923200023606F
:102A6000FFF752FA0123180010BDC0469005002060
:102A70009405002070B505000E000024FFF72EF924
:102A80003000FDF777FBA04204D9325D2B195A7252
:102A90000134F5E705342C602800FFF735FA70BDE6
:102AA00037B50500007A0023013805284DD86B465C
:102AB000DC1D2100FDF766FB030D1A24343E244B78
:102AC000186802F0ABFD2478002C09D0012C14D03A
:102AD0003AE0204B186802F08AFE2378002B33D1AD
:102AE0001D492800FFF7C6FF01232EE01B4B186885
:102AF00003F035F82378002B26D117490831F0E789
:102B0000174B186803F032FA2478002C0FD0012CF0
:102B10001AD1114928001931FFF7ACFF230014E046
:102B2000104B186802F047FF2378002B0CD10A499C
:102B30001231D6E70C4B186803F0EBF82378002B22
:102B400002D105491931CCE7002318003EBDC0462B
:102B500090050020940500203000002098050020FA
:102B6000A00500209C050020A4050020F8B5040065
:102B70000E00FFF7B3F82000042209303168270067
:102B800000F0FAF900250D3732682B0001359A4222
:102B900007D9AB0038000422F15800F0EDF90437F2
:102BA000F2E79B00093323602000FFF7ADF9F8BD81
:102BB00037B50500007A00230138052855D86B4643
:102BC000DC1D2100FDF7DEFA0316202A3C46284BC7
:102BD000186802F023FD2478002C04D0012C43D186
:102BE0002449383101E0234924312800FFF7BEFF92
:102BF00001233AE0204B186802F0F9FD2378002BFE
:102C000032D11C494C31F0E71C4B186802F0A7FF89
:102C10002378002B28D117496031E6E7184B186854
:102C200003F0A4F92478002C08D0012C1CD11549FC
:102C300028000431FFF79AFF230016E01149D4E77A
:102C4000114B186802F0B7FE2378002B0CD10D4908
:102C50000831CAE70D4B186803F05BF82378002BA6
:102C600002D108490C31C0E7002318003EBDC04620
:102C700090050020300000209405002098050020D9
:102C8000A0050020C40500209C050020A40500200C
:102C900007B50422019101A908F072F807BDF7B544
:102CA0000E000400FFF71AF83068FEF763FB01001E
:102CB000200004220930270000F05EF900250D37BE
:102CC00001950198FEF778FB31680135FDF7ECFBC3
:102CD000002806D0AB003800F158FFF7D9FF0437C1
:102CE000EEE7019B20009B0009332360FFF70CF9FE
:102CF000F7BD000037B50500007A0023013805282C
:102D000055D86B46DC1D2100FDF73CFA0316202A3E
:102D10003C46284B186802F081FC2478002C04D033
:102D2000012C43D12449143101E0244968312800A1
:102D3000FFF7B5FF01233AE0214B186802F057FD79
:102D40002378002B32D11C493431F0E71D4B186831
:102D500002F005FF2378002B28D117496031E6E700
:102D6000194B186803F002F92478002C07D0012CC5
:102D70001CD116492800FFF792FF230017E00E49E7
:102D80007031D4E7124B186802F015FE2378002B3F
:102D90000CD10E491831CAE70E4B186802F0B9FF82
:102DA0002378002B02D109492831C0E700231800FD
:102DB0003EBDC04690050020B0000020300000203D
:102DC0009405002098050020A00500203001002077
:102DD0009C050020A40500200B0010B50100042272
:102DE000180007F0CDFF10BD13B5040001A909308C
:102DF000FFF7F2FF207A0023013805282DD801992A
:102E0000FDF7C0F903080D12171C154B186802F0E6
:102E100020FC19E0134B186802F004FD14E0124B7B
:102E2000186802F0B7FE0FE0104B186803F0B9F80D
:102E30000AE00F4B186802F0D9FD05E00D4B186849
:102E400002F082FF002308E02000FEF747FF09237D
:102E500020002360FFF758F80123180016BDC04674
:102E6000900500209405002098050020A005002072
:102E70009C050020A405002010B5C2790300013A8A
:102E80000020062A21D81000FDF77CF904080C1058
:102E900014181C001800FFF703FE16E01800FFF7D7
:102EA0002FFD12E01800FFF771FD0EE01800FFF78C
:102EB0007FFE0AE01800FFF7ABFD06E01800FFF701
:102EC00019FF02E01800FFF78FFF10BDF02904D0B2
:102ED000F12908D10170417003E0F123037001333F
:102EE0004370022001E0017001207047F8B507002F
:102EF0000E000D0000243268AB1B01359A4205D943
:102F00003819E978FFF7E2FF2418F4E7F023601C92
:102F10003B55F8BDF1280BD1F12902D11170EF38E2
:102F200008E00020F22905D1F0230230137001E0FF
:102F300010700120704703000022016830B544186A
:102F4000A34204D01D790133521BD2B2F8E70131FC
:102F50001A71016030BD01000023026830B5841889
:102F6000A14204D00D7901315B19DBB2F8E7013AD7
:102F700002605842584130BD8218904203D001701F
:102F8000090A0130F9E7704701390200405C002965
:102F900004D001390302505CC018F8E7704782186A
:102FA000904203D0017009120130F9E77047000028
:102FB0000C2200B51F4B99B01B680A92002B17D149
:102FC000F4320AA814930C920F9300F059FE0028D3
:102FD00001D0FFF793FC2023019380235B0201A81B
:102FE000029301F0D7F9002813D0FFF787FC10E017
:102FF000002301220AA814930F920C9300F040FEC4
:10300000002801D0FFF77AFC2023019380239B0244
:10301000E5E78021084AC902136D02200B431365BE
:103020000F21002200F0C4F8022000F0F1F819B0DE
:1030300000BDC046D4050020001002407047FEE7E6
:1030400010B500F09BF810BD802010B5800100F095
:1030500085FA10BD70B50E0015000C00A31B9D4233
:1030600004DD00E000BF20700134F7E7280070BDE8
:1030700070B50E0015000C00A31B9D4204DD2078E6
:1030800000E000BF0134F7E7280070BD0A4B10B51F
:103090001A68002A01D1094A1A6069461A6810188C
:1030A000884206D907F040FE0C230360012040420D
:1030B00001E01860100010BDD8050020AC0D002004
:1030C00001204042704780239B0100204B607047E5
:1030D00001207047002070470D488546002103E01D
:1030E0000C4B5B58435004310B480C4B42189A422E
:1030F000F6D30B4A02E0002313600432094B9A42D4
:10310000F9D302F025F807F015FEFFF72BF8FEE7DC
:103110000020002000C300080000002074050020EB
:1031200074050020AC0D0020FEE77047FA21084B23
:1031300010B5890004001868FDF72EF800F072F849
:10314000012000222100404200F032F8002010BD92
:10315000700100204021084B10B51A6803200A4373
:103160001A601A683E390A431A60FFF7DFFFFFF75B
:10317000DCFF002010BDC04600200240024A136858
:10318000013313607047C046940D0020014B18684E
:103190007047C046940D002013B50190FFF7F6FF6D
:1031A0000400FFF7F3FF019B001B9842F9D313BD06
:1031B00070B58901002814DA0F23C0B20340083B20
:1031C000114A9B0803249B009B18FF222040A0402B
:1031D00014000A4084408240DD69A5432A43DA6135
:1031E00011E08208094B03259200D218FF232840E2
:1031F000A8401D00C02485400B408340A400165900
:10320000AE433343135170BD00ED00E000E100E038
:103210001F2318401E3B8340014A13607047C0467D
:1032200000E100E0094A431E012093420DD8C0206E
:10323000074A084953600B6A00061B021B0A034336
:103240000B6200200723906013607047FFFFFF00B0
:1032500010E000E000ED00E0030030B50120002B9D
:1032600072D0991DCA7FD2B2002A01D1581DC277EF
:103270000222CA771A6835481468DD6804409868E5
:1032800028431D6928435D6928439D692843DD69FA
:1032900028431D6A2843204310602D48824207D1ED
:1032A0000F242C4A1068A043106010685B6846E049
:1032B0002948824208D1F024264A1068A0431060B1
:1032C0005B6810681B013AE02448824208D1214A19
:1032D00023481468204010605B6810681B022EE0D1
:1032E0002048824208D11B4A1F48146820401060C1
:1032F0005B6810681B0322E01C48824208D1154A13
:103300001B481468204010605B6810681B0416E0BE
:103310001848824208D10F4A1748146820401060AC
:103320005B6810681B050AE01448824209D1094A0B
:1033300013481468204010605B6810681B06034344
:10334000136001230020CB7730BDC0460FC0FFFFC4
:1033500008000240A80002401C0002403000024069
:10336000FFF0FFFF44000240FF0FFFFF5800024044
:10337000FFFFF0FF6C000240FFFF0FFF80000240E4
:10338000FFFFFFF0F0B50225471DFE7F2C00012E48
:1033900021D00126841DFE77E57704682568B543B2
:1033A000256063608368102B02D1A260E16001E0B8
:1033B000A160E2600222236813432360236892180D
:1033C0001343236023680432134323602368073ABE
:1033D0001343236000242000F0BD0000F0B5534AE1
:1033E0000B688218541EA24185B001930023053258
:1033F0000392019ADA4000D196E001269E40019A9C
:103400003240009200D18DE04A6894461022644612
:1034100094432200013C022A0ED107240F271C40AE
:10342000A400A740DA0892008218156ABD430F690C
:10343000A7403D43156201E0012C10D803245D0034
:10344000AC408268A243CC68AC4022436446E406A8
:10345000E40F9C4082604268B243224342600326EC
:1034600034005D00AC406746E4433740AF4002683B
:1034700022403A430260C26814408A68AA4014435A
:103480006246C460D2004DD50125294C0F27626BDE
:103490002A431D003540AD00AF406263254A9C08B9
:1034A000A400A418A268BA43A0270292FF05002234
:1034B000B8420CD0204F0132B84208D01F4F013221
:1034C000B84204D032001E4EB04200D0039AAA4047
:1034D0006746029D2A43A2601A4A009C1668009D16
:1034E000E4433543FF0301D43500254067461560AA
:1034F0005668009D3543BF0301D43500254067461B
:1035000055609668009D3543FF0201D43500254083
:1035100067469560D568009E2E43BF0201D42540C2
:103520002E00D660013364E705B0F0BD00E4FFAFC4
:10353000001002400000014000040050000800504C
:10354000000C005000040140002A01D0816100E01D
:10355000816270474369594041617047044B10B51F
:103560005A69104202D05861FFF784F910BDC04675
:103570000004014003689A69920701D500229A620B
:1035800001219A690A4202D19A690A439A617047F5
:1035900070B5049E89053343890D194312040A430B
:1035A00080210468730DC9000B40034960680B4318
:1035B00098430243626070BDFF63FF03F8B50400E7
:1035C0000E0017001D002268936933409B1B59426F
:1035D0004B41BB4216D16B1CF6D0002D0BD1230002
:1035E000202241331A7022000023423240341370EB
:1035F0000320237007E0FFF7C9FD069BC01A854230
:10360000E1D2ECE70020F8BDF8B503680400986942
:1036100010230D001700184031D0236820269A6926
:10362000324215D16A1CF9D0002D0BD12300202283
:1036300041331A70220000234232403413700320B9
:1036400023701CE0FFF7A2FDC01B8542E5D2EDE729
:1036500010222000DA61DE61FFF78CFF2268084B40
:10366000516801200B40536004236364230022004F
:1036700041331E7000234232403413702370F8BD72
:1036800000E800FEF8B504000D00160002272368CC
:103690009B693B421FD1320029002000FFF7B4FF95
:1036A00000281AD16B1CF2D0002D0ED12022636CA1
:1036B000032013436364230041331A702200002364
:1036C000423240341370237008E0FFF75FFD801B27
:1036D0008542DCD2EAE7002000E00120F8BD0000CE
:1036E00073B515001E00DAB2164B04000093802358
:1036F0005B04FFF74DFF079A06992000FFF7C2FF12
:10370000002805D0636C0120042B1AD0032018E098
:103710002368012E09D02A0A9A620699079A200086
:10372000FFF7B0FF0028EDD12368EDB29D62079B43
:10373000002200938021069B2000FFF73FFF002816
:10374000E4D176BD0020008073B5040015001E0092
:10375000DAB2164B00930023FFF71AFF079A069977
:103760002000FFF78FFF002805D0636C0120042B99
:103770001AD0032018E02368012E09D02A0A9A6281
:103780000699079A2000FFF77DFF0028EDD12368F6
:10379000EDB29D62079B002200934021069B200012
:1037A000FFF70CFF0028E4D176BDC0460020008062
:1037B000F8B504000D001600202723689B693B42E2
:1037C0001DD1320029002000FFF71EFF002818D16C
:1037D000002D0ED12022636C032013436364230069
:1037E00041331A7022000023423240341370237098
:1037F00008E0FFF7CBFC801B8542DED2EAE7002021
:1038000000E00120F8BD704770B504000120002CD5
:103810004AD0250041352B78DBB2002B05D12200A0
:10382000403213702000FFF7EEFF242301212B709C
:1038300023681A688A431A6061681C4A0A401A6140
:1038400098681B4A10409860E0681100A26801283F
:1038500004D18020000202439A6008E084263602E8
:1038600032439A60022802D1802212015A605A68BB
:10387000104802435A60DA6800200A40DA60216981
:1038800062691143A26912020A43DA60216AE2699D
:103890000A4301211A601A680A431A6020236064EF
:1038A0002B7020634234207070BDC046FFFFFFF0D4
:1038B000FF7FFFFF00800002704770B50400012009
:1038C000002C13D025002423226841352B70136867
:1038D000834313602000FFF7EFFF002023006064A4
:1038E00042332870206340341870207070BD00008F
:1038F000F0B589B007930EAB069204CB04001B8889
:103900000E0004930300413305931B780220202B03
:1039100000D0ACE0002A39D0049B002B36D0230025
:10392000403303931B78012B00D1A0E00122039BBD
:103930001A70FFF72BFC802100900500192301224B
:1039400009022000FFF73AFE071E60D12123059AE5
:10395000310013702300423305934023059A1370FE
:103960000E9B606463626B461B8A60636385109B79
:1039700001950093069A079B2000FFF7B1FE0028EF
:1039800009D0636C042B03D1039B1F7001206EE0F0
:10399000039B1F703BE0638DFF2B0AD9FF2280231E
:1039A00022855B04009031002000FFF7F1FDFF2726
:1039B0001AE08023628D9B0492B22285D2B20090DD
:1039C000F1E7636A2268591C61621B789362638D18
:1039D000228D013B013A9BB292B263852285002A77
:1039E0000AD0638D002B29D02A0010992000FFF700
:1039F00049FE0028E5D028E0638D002BF1D000952A
:103A0000109B80212000FFF7D9FD002801D0032062
:103A10002DE0638DFF2B05D9802327855B04009063
:103A2000FF2206E08023628D9B0492B22285D2B2EF
:103A3000009031002000FFF7ABFDD2E72A0010997B
:103A40002000FFF7B5FE002803D0636C042BDED105
:103A50009CE720212368074AD9615D682A405A60A3
:103A6000230041331970059B40341870207009B051
:103A7000F0BDC04600E800FEF0B589B007930EAB7C
:103A8000069204CB04001B880E000493030041330C
:103A900005931B780220202B00D0AFE0002A3AD0FB
:103AA000049B002B37D02300403303931B78012B5A
:103AB00000D1A3E00122039B1A70FFF767FB80216E
:103AC000009005001923012209022000FFF776FD6E
:103AD000071E00D082E02223059A310013702300D4
:103AE000423305934023059A13700E9B6064636212
:103AF0006B461B8A60636385109B01950093069A51
:103B0000079B2000FFF720FE002809D0636C042BE0
:103B100003D1039B1F70012070E0039B1F705DE0C9
:103B2000628D374BFF2A0AD9FF222285009380231A
:103B30005B0431002000FFF72BFDFF271AE0628DA8
:103B400092B2228500938023D2B29B04F1E7636A8C
:103B50005A1C62622268526A1A70228D638D013A81
:103B6000013B92B29BB222856385002A0CD0638D03
:103B7000002B29D00095109B002204212000FFF784
:103B80001DFD0028E3D029E0638D002BEFD00095C8
:103B9000109B80212000FFF711FD00281ED1638DAE
:103BA000FF2B05D9802327855B040090FF2206E0C8
:103BB0008023628D9B0492B22285D2B200903100A4
:103BC0002000FFF7E5FCD2E72A0010992000FFF75C
:103BD000EFFD002804D0636C042B9CD003200DE083
:103BE00020212368074AD9615D682A405A60230072
:103BF00041331970059B40341870207009B0F0BD36
:103C00000024008000E800FE41300078C0B2704718
:103C1000F022164B30B5D968114201D000231BE0C9
:103C20008025C022996B6D05114C5201294202D0AA
:103C300023681A4008E0996B2943996321689C6BBB
:103C40000A400C4921409963C0235B019A42E5D1A7
:103C5000094BC01843424341012008490A68824386
:103C60001A430A600A681040584030BD00100240F4
:103C700000700040FFFFFFEF0040FFFF0020024008
:103C8000F0B5036885B00400DB0703D423689B0705
:103C900057D4A0E00C23C64DEA681A40082A08D081
:103CA0008021EA68490213400C2B0AD1EB680B42D1
:103CB00007D02B689B03E9D56368002BE6D1012070
:103CC00043E2802362685B028A4202D12B680B4385
:103CD0000AE0A021C9028A4208D180212A68C902CB
:103CE0000A432A602A6813432B600DE02868B14913
:103CF0000140296029680B400393039B2968AE4B60
:103D00000B402B60002A0ED0FFF740FA80260700F8
:103D1000B6022B683342B9D1FFF738FAC01B6428CA
:103D2000F7D9032011E2FFF731FA80260700B60227
:103D30002B683342AAD0FFF729FAC01B6428F7D9B1
:103D4000EFE70C239A4DEA681A40042A06D0EA6885
:103D500013400C2B10D1EB68DB030DD42B685B07F1
:103D600002D5E368012BAAD122696B681102934A3C
:103D700013400B436B602EE0E368002B1AD009213F
:103D80002A6804268A4313432B60FFF7FFF90700D4
:103D90002B688748334205D1FFF7F8F9C01B02288A
:103DA000F6D9BEE7226943681102844A13400B43E7
:103DB000436010E001222B68042693432B60FFF739
:103DC000E5F907002B68334205D0FFF7DFF9C01B88
:103DD0000228F7D9A5E72368DB0600D480E00C238E
:103DE000734DEA681A4244D12B689B0503D5E369F9
:103DF000002B00D163E7E0236A68606A1B026C4E07
:103E00001340984212D9FFF703FF002800D056E76D
:103E100072686B4B1340626A134373607368226A63
:103E20001B0212061B0A1343736010E07268644B96
:103E30001340034373607368226A1B0212061B0A55
:103E400013437360FFF7E4FE002800D037E7636A8E
:103E5000EA68590B802301311B028B401206594935
:103E6000120F8A5C0320D340574A1360FFF75EF9B4
:103E700036E0E369002B21D080222B6852001343E7
:103E80002B60FFF783F980260700B6002B68484AAD
:103E9000334205D1FFF77AF9C01B0228F6D940E773
:103EA0005168474B0B40616A0B4353605368216A6A
:103EB0001B0209061B0A0B43536011E02A68434B9F
:103EC000802613402B60FFF761F90700B6002B68CE
:103ED000334205D0FFF75AF9C01B0228F7D920E773
:103EE00023681B0703D423685B0725D4A8E0636914
:103EF00001222F4D002B0FD02B6D022613432B6573
:103F0000FFF744F907002B6D3342ECD1FFF73EF980
:103F1000C01B0228F7D904E72B6D022693432B65BB
:103F2000FFF734F907002B6D3342DCD0FFF72EF991
:103F3000C01B0228F7D9F4E6802200211C4D52054F
:103F4000AB6B0091134204D1AB6B1343AB63012302
:103F5000009380271E4E7F0033683B4207D08021AC
:103F6000A36849008B4212D12A6D134347E033689E
:103F70003B433360FFF70AF9019033683B42EED1CF
:103F8000FFF704F9019BC01A6428F6D9C9E6002B93
:103F900022D12A6D0D4B802713402B652A6D0D4BC6
:103FA000BF0013402B65FFF7F1F806003EE0C04666
:103FB00000100240FFFFFEFFFFFFFBFFFFE0FFFFDF
:103FC000FF1FFFFFA2BF000870010020FFFEFFFFE0
:103FD00000700040FFFBFFFFA022D200934207D1F8
:103FE00080232A6DDB001A432A652B6D0B4306E004
:103FF0002A6D574B13402B652A6D564B13402B658A
:10400000FFF7C4F880270600BF002B6D3B4210D19C
:10401000FFF7BCF8504B801B9842F6D981E6FFF7BA
:10402000B5F84D4B801B984200D97AE62B6D3B4288
:10403000F5D1009B012B03D1AA6B484B1340AB6316
:1040400023689B0603D4A26A002A32D15EE0A269EB
:104050000121434D434B002A17D0AA6802260A4388
:10406000AA606A6B1143696380211A6A89010A4355
:104070001A62FFF78BF80700AB683342E3D1FFF712
:1040800085F8C01B0228F7D94BE6AA6802268A43A6
:10409000AA60196A344A0A401A62FFF777F80700E3
:1040A000AB683342CFD0FFF771F8C01B0228F7D9B5
:1040B00037E60C232A4D0120E9680B400C2B44D035
:1040C0002A4B022A30D12A68802613402B60FFF742
:1040D0005DF80700B6042B682149334218D1226BE2
:1040E000E06ACB681043626B80241043204AA4042A
:1040F000134080220343CB600B68520413430B60D0
:10410000FFF744F806002B68234207D000201CE08C
:10411000FFF73CF8C01B0228DDD902E6FFF736F8AE
:10412000801B0228EFD9FCE52A68802413402B600D
:10413000FFF72CF80600A4042B682342E6D0FFF713
:1041400025F8801B0228F7D9EBE505B0F0BDC04685
:10415000FFFEFFFFFFFBFFFF88130000FFFFFFEFE5
:104160000010024000000140FFDFFFFFFFFFFFFEE5
:10417000FFFF02FF0C22184B10B5D9680A40082A2D
:1041800026D00C2A06D0042A1AD11B68DB0621D4BB
:10419000124820E08A021248120F805C0902DA6895
:1041A000890F0131D20301D50E4B05E01B68DB06F8
:1041B00001D50D4B00E0094B5843FBF7EDFF0AE03A
:1041C00080205B6800021B045B0F0133984002E013
:1041D000044800E0044810BD001002400024F40030
:1041E00099BF000800127A0000093D000123F7B5CD
:1041F000514E0500326801911A408A420AD32A685A
:10420000930713D5F0204D49CB688343A868034337
:10421000CB600BE0326801999A430A4332603268FE
:104220001340019A9A42EAD0012083E0D30707D4D1
:10423000012331680198404A1940884253D358E01D
:104240003E4C6B682268022B02D192030CD4EBE740
:10425000032B02D1920107D4E6E7012B02D15207CA
:1042600002D4E1E79205DFD50321E2688A431343D4
:10427000E360FEF78BFF6B680700022B0CD10C226A
:10428000E3681340082BD3D0FEF780FF2C4BC01BF4
:104290009842F4D903204DE0032B0BD10C22E368A4
:1042A00013409342C4D0FEF771FF254BC01B9842C8
:1042B000F4D9EFE7012B11D10C22E3681340042B52
:1042C000B6D0FEF763FF1E4BC01B9842F4D9E1E75E
:1042D000FEF75CFF1A4BC01B9842DBD80C22E36848
:1042E0001342F5D1A4E711689943116012681A428C
:1042F0009AD12A68114C530705D5E168114B0B4040
:10430000E9680B43E360130706D5E36829690E4AA1
:10431000C90013400B43E360FFF72CFFE3680B4A2F
:104320001B061B0FD35CD840094B18600320FEF717
:10433000FDFE0020FEBDC0460020024000100240ED
:1043400088130000FFF8FFFFFFC7FFFFA2BF0008B0
:1043500070010020044B054ADB685B055B0FD35CF2
:10436000034A1068D840704700100240B2BF0008EE
:1043700070010020044B054ADB689B045B0FD35C93
:10438000034A1068D840704700100240B2BF0008CE
:10439000700100208223F7B502681B0105001A4254
:1043A00000D188E0802200215F4C5205A36B009170
:1043B000134204D1A36B1343A3630123009380270B
:1043C0005A4E7F0033683B4209D06968C023080019
:1043D00022689B031A401840824215D110E03368CE
:1043E0003B433360FEF7D2FE019033683B42ECD191
:1043F000FEF7CCFE019BC01A6428F6D9032092E098
:10440000A86803409A420AD0C0230A009B021A40BF
:104410009A4204D1236801209B0300D583E0C02386
:10442000226D9B021A4010D16B68C02218009202C4
:104430001040904234D122683D491140C02292037D
:104440001A400B00134323602AE019408A4202D02D
:104450002968890606D4A9680B409A42E4D02B68E3
:104460001B05E1D58020216D226D000302432265EA
:10447000206D304B304A0B40024022652365CB054E
:10448000D2D5FEF783FE80270600BF00236D3B4296
:10449000CAD1FEF77BFE294B801B9842F6D9ADE7C7
:1044A000236D214A03432365009B012B03D1916BAC
:1044B000234B0B4093632B68DA0706D503201A4978
:1044C000CA6C8243E8680243CA649A0706D50C2086
:1044D0001549CA6C824328690243CA645A0706D543
:1044E0001149184AC86C024068690243CA641A0735
:1044F00006D50D49144AC86C0240A8690243CA6433
:104500005A0606D50849114AC86C0240286A024377
:10451000CA6400201B0606D503490D4BCA6C134024
:10452000EA691343CB64FEBD0010024000700040F6
:10453000FFFFCFFFFFFFFCFFFFFFF7FF8813000027
:10454000FFFFFFEFFFF3FFFFFFCFFFFFFFFFFFFBCB
:10455000FFFFF3FF10B5082800D1B1E009D8022809
:1045600000D188E0042800D195E0012800D0C4E003
:104570006AE020280BD003D8102800D1B6E0BCE0B8
:10458000402836D080231B01984200D0B5E0C024DB
:1045900080215C4AA402106D136D490223408B42B6
:1045A00065D0802189028B4206D102230340181E68
:1045B00000D1A5E05448A3E00020A34200D09FE032
:1045C00013680B4200D19BE01368C0228021920344
:1045D000134089038B4208D0934200D18FE08022A0
:1045E0005203934203D149488AE0494888E0494848
:1045F00086E08021434BC904DA6C0A401CD119685B
:1046000010008A0100D47BE0DA684348D96892023E
:10461000120F825C0902D868890F0131C00304D4EB
:104620001B68DB0603D43D4802E03D4800E0394802
:104630005043FBF7B1FD63E000208A4260D19B68E4
:104640009B075DD537485BE003232E4AD16C0B40B6
:1046500002D1FFF78FFE53E0022B3BD0012B02D19A
:10466000FFF788FD4CE00020032B49D1106D800539
:10467000C00FC00344E00C23224AD16C0B4002D18E
:10468000FFF768FE3CE0082B24D0042BE8D0002084
:104690000C2B35D1EAE7C0211A4A0901D36C0B4033
:1046A000EED080242401A34202D11368034014E019
:1046B0008020C0008342D3D000208B4220D1D5E798
:1046C000C023104A9B01D16C0B40D9D080218901B5
:1046D0008B4206D1042312681340181E10D00F48D5
:1046E0000EE080225201934207D1B9E7054B986B47
:1046F0008023DB03184003D0C2E7002000E00A4813
:1047000010BDC046001002408890000080841E004A
:1047100040420F0000093D0099BF00080024F4004A
:1047200000127A00006CDC0220A10700A0210268C0
:10473000F8B5D36804008B43D360FEF727FDFA2752
:1047400006002025BF002368DB682B4206D1FEF758
:104750001DFD801BB842F6D9032000E00020F8BD03
:10476000F8B5402403680500DA68224201D0002031
:1047700011E001225242DA60FEF708FDFA27060036
:10478000BF002B68DB682342F1D1FEF7FFFC801BE2
:10479000B842F6D90320F8BD70B504000120002C02
:1047A00041D0A51CEB7FDBB2002B04D12218D377BC
:1047B0002000FEF7FDFB0223CA22EB7723682000CE
:1047C0005A62773A5A62FFF7CBFF2368002805D078
:1047D000FF225A6204230120EB7724E09968124AF1
:1047E0000A409A609A6861680A4321690A43A1698C
:1047F0000A439A60E268A1681A611A6909040A43C7
:1048000080211A61DA688A43DA60DA6C7D398A437A
:10481000DA64DA6CE1690A4361690A43DA64FF2207
:104820005A620123EB7770BDBFFF8FFF0023092879
:1048300003D90A380133C0B2F9E71B011843C0B2EB
:10484000704700000223F7B5471C0C00F97F0500F4
:104850001E0001296DD00121F977C118CB77009195
:104860004021036866789B6820780B40002A16D1A7
:10487000002B00D1E370FFF7D9FF01903000FFF764
:10488000D5FF0600A078FFF7D1FFE37836021B04BE
:104890001843019B1B041843304301900BE0002B8D
:1048A00000D1E370000436020643E378A0781B04CD
:1048B00006431E430196CA222B6828005A62773AA3
:1048C0005A62FFF74DFF2B68061E07D0FF225A627F
:1048D0000423009AD3770023FB7720E01648019A3F
:1048E00002401A609968154A0A409A609A68E1681D
:1048F0000A4321690A4380219A60DA688A43DA60B0
:104900009B689B060DD42800FFF710FF002808D0F5
:10491000FF222B685A620423009AD377FE77012680
:1049200007E0FF222B685A620123009AD377002305
:10493000FB773000FEBDC0467F7F7F00FFFFFBFF9F
:104940000223F0B5471C0D00F97F85B004001E005E
:1049500001295FD00121F977C1180191CB776B78DC
:10496000E878AE78002A4DD11032134203D0934339
:104970001A000A326A70FFF759FF02906878FFF751
:1049800055FF03903000FFF751FF2D78029B6D0318
:1049900028431B041843039B1D020543CA222368B6
:1049A00020005A62773A5A62FFF7DAFE2368061E41
:1049B00007D0FF225A620423019AD3770023FB77A2
:1049C00015E08021154805405D60DA688A43DA60A9
:1049D0009B689B060DD42000FFF7A8FE002808D096
:1049E000FF2223685A620423019AD377FE770126B7
:1049F00010E0FF2223685A620123019AD377002333
:104A0000FB7707E000041B022D78034333436D035B
:104A10001D43C3E7300005B0F0BDC0463FFFFF00B7
:104A20000A2302095A43053318401018C0B27047D0
:104A300070B50C0001683F208B6A63600B690D68DC
:104A40005B045B0CA3600E4B1D407F232E0A290CD8
:104A50001E401D403F3B08400B4020706670A57013
:104A6000E370002A0AD1FFF7DBFF20703000FFF768
:104A7000D7FF60702800FFF7D3FFA070002070BD43
:104A80007F7F7F0070B53F250C00036859680D4B90
:104A90000B40180CDE041D401B04F60E5B0FE0708B
:104AA0006670A5702370002A0AD1FFF7B9FFE07085
:104AB0003000FFF7B5FF60702800FFF7B1FFA0706E
:104AC000002070BD3FFFFF000368064A19686A3086
:104AD0000A4001211A609A688A439A602023037071
:104AE0007047C046DFFEFFFF70470000F8B51300B7
:104AF00002006A32147805000220202C3CD10138D3
:104B0000002939D0002B37D08024AE686401A6423A
:104B100004D12C69002C01D101422DD12E00683620
:104B200034780220012C27D0280001275830377014
:104B30000024696503802220EC661070686E0F4ABD
:104B40008463C2620E4A02630E4A42632A682432B8
:104B500094460A006146FEF715FC802120002B6870
:104B600049001A6834700A431A609A68C0391743BA
:104B70009F609A680A439A60F8BDC0468D4B000852
:104B8000CF4B0008DB4B0008704700000368826AC7
:104B900020201B6810B5034012D111005A310B8040
:104BA000136809491C682140012419609968A143D0
:104BB000996099683F34A143996013006A33187073
:104BC0001000FFF7E1FF10BDFFFEFFFF704710B5BB
:104BD000806AFFF7FBFF10BD704710B5846A2100A3
:104BE00069310B78212B0DD123689A68120609D5FB
:104BF00022000020523210801A68C03082431A60AE
:104C000020230B7023006A331B78222B0AD12368E0
:104C10009B685B0606D5230000225A331A802000C9
:104C2000FFF752FF1022E36E20001343E366FFF705
:104C3000D3FF10BDF8B505000368296980681A68BC
:104C4000084369697F4E0843E96908437E490A4081
:104C500002431A6059687D4A0A40E9680A435A606B
:104C6000AA69B34201D0296A0A4398687849014089
:104C70000A439A60774A934206D1774BDA6C032352
:104C80001340764AD45C25E0754A934207D1724BB3
:104C9000DA6C0C231340714AD3181C791AE01024E3
:104CA000B34217D1C02280216B4B1201DB6CC900CB
:104CB00013400C3C8B420DD003D80024A34209D0F2
:104CC00007E08021022409018B4203D0063493427D
:104CD00000D010240220FFF73DFC2F680300B742EC
:104CE00038D1082C00D9A4E02000FBF74BFA05A22C
:104CF00008A20FA2A2A2A400FFF72CFB08E0564BCB
:104D00001B68DB0600D599E0564B06E0FFF732FA48
:104D10000024031EA34200D192E003216A6801240B
:104D20005143994200D98BE01103994200D287E0A8
:104D300000275608190E1802801979413B00FBF72D
:104D4000FFFB494BC218494B9A4279D82B683C006B
:104D5000D86075E08022E9691202914239D1082CAD
:104D60002DD82000FBF70EFA05070A2B1A2B2B2B48
:104D70002000580015E0FFF7FDFA11E0364B696896
:104D80001C68102348081C4002D0394BC01811E0A1
:104D9000384BC018FBF700FA80B212E0FFF7EAF9CF
:104DA00040006B685B0803E06B68580880235B0277
:104DB0006968C018FBF7F0F9002480B201E0012413
:104DC00000200F2203075B0F90432A681843D0602E
:104DD00036E0082C2DD82000FBF7D4F90508132B5A
:104DE000232B2B2B2600FFF7B5FA01E0FFF7C2FAC1
:104DF00069684B081818FBF7CFF980B2F8600024F7
:104E00001EE0154B69681C68102348081C4001D03F
:104E1000194BEFE7134BC018FBF7BEF980B2F860EF
:104E20000EE0FFF7A7F9E3E7802369681B02480853
:104E3000E0E7012404E080231B026EE70E4B6CE7E1
:104E40002000F8BD00480040F369FFEFFFCFFFFFEF
:104E5000FFF4FFFF003801400010024088BF000847
:104E6000004400400024F40000FDFFFFFFFC0F00A1
:104E700000127A000048E80100093D00436A30B59D
:104E8000DA0706D50168284A4C682240846A224322
:104E90004A609A0706D50168244A4C682240C46AD1
:104EA00022434A605A0706D50168214A4C682240CD
:104EB000046B22434A601A0706D501681D4A4C68F4
:104EC0002240446B22434A60DA0606D501681A4A3A
:104ED0008C682240846B22438A609A0606D501685A
:104EE000164A8C682240C46B22438A605A0610D549
:104EF0000168134A4D68046C2A4022434A608022AC
:104F00005203944205D14C680E4A2240446C22431D
:104F10004A601B0606D501680B4B4A681340826C39
:104F200013434B6030BDC046FFFFFDFFFFFFFEFF98
:104F3000FFFFFBFFFF7FFFFFFFEFFFFFFFDFFFFF35
:104F4000FFFFEFFFFFFF9FFFFFFFF7FFF8B5040034
:104F50000E0015001F002268D36933409B1B594285
:104F60004B41AB421FD1069B0133F5D0069B002B72
:104F700012D123680D4A196803200A4001211A60E2
:104F80009A688A439A602200202369321370537012
:104F900000236834237007E0FEF7F8F8069BC01B77
:104FA0008342D8D2E5E70020F8BDC0465FFEFFFF90
:104FB000F0B5070085B0039369373B7804000D0016
:104FC00016000220202B57D10138002954D0002A86
:104FD00052D08023A2685B019A4204D12369002B3E
:104FE00001D1014248D1230068331A780220012AF6
:104FF00042D001221A700023E36621333B70FEF792
:10500000C5F8230050331E805E8080260290760112
:10501000210052310A8892B2002A20D00B88002247
:10502000013B9BB20B80039B802100932000029BDD
:10503000FFF78CFF002801D003201DE0A368226841
:10504000B34208D12369002B05D12B880235DB053B
:10505000DB0D9362DCE72B7801359362D8E7039B85
:10506000402100932000029BFFF770FF0028E3D14E
:10507000202368343B70207005B0F0BD73B5002666
:105080000400C666FEF782F8236805001B681B074C
:1050900004D423681B685B0718D50CE08021104BF3
:1050A00032000093890303002000FFF74FFF002820
:1050B000EFD0032012E08021094B00220093C903A6
:1050C0002B002000FFF742FF0028F2D1220020230E
:1050D00000206932683413705370207076BDC0466A
:1050E000FFFFFF0170B5041E01D101202CE0050077
:1050F00069352B78DBB2002B04D1020068321370C3
:10510000FFF7F2FC2423012122682B7013688B43E4
:105110001360636A002B02D02000FFF7AFFE20006F
:10512000FFF788FD0128E0D02368084A596820006D
:105130000A402A215A609A688A439A601A68293973
:105140000A431A60FFF79AFF70BDC046FFB7FFFF22
:105150008021104B49001A680A431A60D9680E4A28
:105160000A40DA6019680D4A0A4001211A609A68FB
:105170008A439A6019680A4A0A401A60D968094A3B
:105180000A40DA6000221A618022074B12059A60F9
:105190007047C046001002400C40FF88F6FFF6FE44
:1051A000FFFFFBFFFFFF02FF00ED00E0F0B5224C28
:1051B00087B02000FEF728FD061E34D11F4B0127C3
:1051C00063603323A3601E4B1E4D23600223E76000
:1051D000EA6A01A91A43EA62EA6A04931A40009251
:1051E000009AC022920001921222DB180390164806
:1051F00002920593FEF7F2F88021AA6B89030A4315
:10520000AA63AB6A17200B43AB62AA6A0F4B31004B
:105210001340AB623A00FDF7CBFF1720FDF7F8FF14
:105220002000FEF7F1FA2000FEF7EEFC2038431EC6
:105230009841C0B207B0F0BDE00500202E11B100CA
:10524000005400400010024000040050FFFFDFFF48
:1052500010B50448FEF731FB002801D1FFF7A6FF87
:1052600010BDC046E00500201FB514008AB281B20F
:105270008020400102900193009401230548FEF72D
:1052800037FB0023984202D0FFF7E2FF012318000A
:1052900004B010BDE00500201FB514008AB281B231
:1052A0008020400102900193009401230548FEF7FD
:1052B000E3FB0023984202D0FFF7CAFF0123180046
:1052C00004B010BDE005002010B5FFF76FFF10BD62
:1052D000F0B51427022489B01F4D3A00002103A81D
:1052E00005F057FDEB6A1D4E2343EB62EB6A03A901
:1052F00023400193019B20230393194B3000049317
:105300000694FEF76BF8002207201100FDF750FF0E
:105310000720FDF77DFF3A00002103A805F039FDC5
:10532000EB6A03A92343EB62EB6A3000234002934C
:10533000029B102303930A4B06940493FEF74EF846
:10534000002207201100FDF733FF0720FDF760FF63
:10535000002009B0F0BDC04600100240000400501B
:10536000000011100223104A10B5D16A86B019430B
:10537000D162D26A00241A400092009A8022D200A0
:1053800001920A4A01A90A48049302920394FEF783
:1053900025F8220021000720FDF70AFF0720FDF76E
:1053A00037FF200006B010BD0010024000001110B1
:1053B00000040050F7B51E00037807000D000192AD
:1053C000402B0BD002D8332B1BD107E0B12B02D0DE
:1053D000BC2B16D102E0002420000FE0012E10D9D2
:1053E00080231D430DE0002811D1019B29191A19B2
:1053F000C9B2B8780123FFF737FF0134B442F2DBBA
:1054000005E0B8783300019A2900FFF72DFF431E0D
:105410009841C0B2FEBDF7B51E00037807000D002D
:105420000192402B0BD002D8332B1BD107E0B12BBC
:1054300002D0BC2B16D102E0002420000FE0012E88
:1054400010D980231D430DE0002811D1019B29199B
:105450001A19C9B2B8780123FFF71EFF0134B4420C
:10546000F2DB05E0B8783300019A2900FFF714FF5A
:10547000431E9841C0B2FEBDF8B51E4C0600637EC7
:10548000012B01D1012432E0FFF71EFF0128F9D0E2
:10549000332320002375013BA375174B3030236263
:1054A000164B0025A36303000127E06108331C3875
:1054B0002363657527766576A576E776656265630D
:1054C0003060236A1C68AC4205D11422210005F02B
:1054D00060FC3460D6E7A047041E012C06D11422DC
:1054E0002900306805F055FC356000E02C002000F4
:1054F000F8BDC0462C060020C8020020A40D0020E4
:10550000F8B51F4C06006379012B25D0FFF7DCFEB0
:10551000012821D06A2323706C33A370D53BE3713B
:1055200023000025174A2833E260174AA36022614E
:10553000164A1833657025716571A571A3622264DE
:10554000E5623460E3681F68AF4207D11422390076
:10555000200005F01EFC376001240EE02000B84753
:10556000041E012C06D114222900306805F011FC1C
:10557000356002E0FFF7ACFE2C002000F8BDC0460D
:105580002C060020B00300203C040020A60D0020C3
:1055900070B500240D000C60A04209D001280BD08A
:1055A0000800FFF7ADFF03002000012B0BD103E043
:1055B0000800FFF7A5FF02E02800FFF75DFF0138B4
:1055C00043425841C0B270BD10B50123002809D034
:1055D000C3689A680123002A04D0904701384342E7
:1055E0004341DBB2180010BD10B50123002809D0DB
:1055F000C368DA680123002A04D090470138434287
:105600004341DBB2180010BD0123002804D000295B
:1056100002D043790B700023180070470123002843
:1056200004D0002902D003790B70002318007047C2
:1056300010B5012300280AD0C268002907D092695A
:10564000002A04D09047013843424341DBB218009E
:1056500010BD10B50123002809D0C368DA6A012300
:10566000002A04D09047013843424341DBB218007E
:1056700010BD10B50123002809D0C3689A6B01231F
:10568000002A04D09047013843424341DBB218005E
:1056900010BD10B5012300280AD0C468002A07D025
:1056A000646C002C04D0A047013843424341DBB274
:1056B000180010BD10B50123002809D0C3689C6CE8
:1056C0000123002C04D0A047013843424341DBB200
:1056D000180010BD10B50123002809D0C368DA6C8A
:1056E0000123002A04D09047013843424341DBB2F2
:1056F000180010BDF8B51F4C06006379012B25D0AA
:10570000FFF7E2FD012821D06A2323706C33A370D8
:10571000D53BE37123000025174A1433E260174A92
:10572000A3602261164A0833657025716571A57101
:105730006361E261A5613460E3681F68AF4207D12D
:1057400014223900200005F024FB376001240EE00C
:105750002000B847041E012C06D11422290030680D
:1057600005F017FB356002E0FFF7B2FD2C002000CA
:10577000F8BDC0467406002060030020000400202D
:10578000A60D0020002310B50B600800FFF7B2FF44
:10579000013843425841C0B210BD10B50123002862
:1057A00009D0C3689A680123002A04D090470138C1
:1057B00043424341DBB2180010BD10B5012300285D
:1057C00009D0C368DA680123002A04D09047013861
:1057D00043424341DBB2180010BD0123002804D02E
:1057E000002902D043790B70002318007047012371
:1057F000002804D0002902D003790B700023180080
:10580000704710B5012300280AD0C268002907D0CC
:105810009269002A04D09047013843424341DBB2E9
:10582000180010BD10B50123002809D0C368DA6A3A
:105830000123002A04D09047013843424341DBB2A0
:10584000180010BD10B50123002809D0C3689A6B59
:105850000123002A04D09047013843424341DBB280
:10586000180010BD10B5012300280AD0C468002A12
:1058700007D0646C002C04D0A04701384342434158
:10588000DBB2180010BD10B50123002809D0C36891
:105890009C6C0123002C04D0A047013843424341B3
:1058A000DBB2180010BD10B50123002809D0C36871
:1058B000DA6C0123002A04D0904701384342434167
:1058C000DBB2180010BD0000F8B51D4C060063796E
:1058D000012B24D0FFF7F8FC012820D0BC23237033
:1058E0000233A370BD3BE37123000025154A143336
:1058F000E260154AA3600833657025716571A57172
:1059000063612561E261A5613460E3681F68AF42AD
:1059100007D114223900200005F03BFA376001243A
:105920000CE02000B847041E012C06D114222900E7
:10593000306805F02EFA356000E02C002000F8BD3C
:1059400098060020B4010020980D0020002310B517
:105950000B600800FFF7B8FF013843425841C0B25E
:1059600010BD10B50123002809D0C3689A6801232F
:10597000002A04D09047013843424341DBB218006B
:1059800010BD10B50123002809D0C368DA680123CF
:10599000002A04D09047013843424341DBB218004B
:1059A00010BD0123002804D0002902D043790B70D8
:1059B0000023180070470123002804D0002902D0DA
:1059C00003790B7000231800704710B501230028DD
:1059D0000AD0C268002907D09269002A04D09047F3
:1059E000013843424341DBB2180010BD10B501231A
:1059F000002809D0C3685A6A0123002A04D09047BE
:105A0000013843424341DBB2180010BD10B50123F9
:105A100000280AD0C468002A07D0A46A002C04D049
:105A2000A047013843424341DBB2180010BD10B516
:105A30000123002809D0C368DC6A0123002C04D0AC
:105A4000A047013843424341DBB2180010BD10B5F6
:105A50000123002809D0C3681A6B0123002A04D04F
:105A60009047013843424341DBB2180010BD0000AB
:105A7000F8B51D4C06006379012B24D0FFF724FCF8
:105A8000012820D040232370043BA3703B3BE371EB
:105A900023000025154A1433E260154AA360083339
:105AA000657025716571A57163612561E261A5610C
:105AB0003460E3681F68AF4207D114223900200028
:105AC00005F067F9376001240CE02000B847041E98
:105AD000012C06D114222900306805F05AF93560EE
