:020000040800F2
:1000000000800120112500086524000869240008EB
:100010006125000861250008612500080000000036
:100020000000000000000000000000006125000842
:100030006D240008000000006125000871240008FC
:100040006125000861250008612500086125000878
:100050006125000861250008612500086125000868
:100060006125000861250008612500086125000858
:100070006125000861250008612500086125000848
:1000800061250008612500086125000800000000C6
:1000900000000000000000000000000061250008D2
:1000A0006125000861250008612500086125000818
:1000B00061250008752400086125000861250008F5
:1000C00061250008612500086125000861250008F8
:1000D0006125000861250008612500080000000076
:1000E0008124000861250008612500080000000047
:1000F0000000000000000000000000006125000872
:100100000000000061250008612500086125000845
:1001100000000000000000000000000000000000DF
:100120006125000861250008612500086125000897
:100130006125000800000000000000000000000031
:100140000000000000000000000000006125000821
:100150006125000861250008612500086125000867
:100160006125000861250008000000000000000073
:10017000000000000000000000000000000000007F
:1001800000000000612500080000000000000000E1
:1001900061250008000000000000000000000000D1
:1001A000044B05481B1A062B02D9044B03B1184710
:1001B000704700BF1316002010160020000000003A
:1001C00005490648091A891001EBD171491002D07E
:1001D000034B03B11847704710160020101600207B
:1001E0000000000010B5064C237843B9FFF7D8FF94
:1001F000044B13B10448AFF300800123237010BDFA
:1002000010160020000000004CA1010808B5084BA2
:100210001BB108490848AFF300800848036813B9C8
:10022000BDE80840CCE7064B002BF9D09847F7E72C
:1002300000000000141600204CA101081016002038
:1002400000000000000000000000000000000000AE
:1002500001F0FF01102A2BDB10F0070F08D010F877
:10026000013B013A8B422DD010F0070F42B3F6D17B
:10027000F0B441EA012141EA014122F007047FF094
:1002800000070023F0E80256083C85EA010586EAEB
:10029000010685FA47F5A3FA87F586FA47F6A5FA27
:1002A00087F68EB9EED1F0BC01F0FF0102F0070233
:1002B00032B110F8013B013A83EA010313B1F8D1DE
:1002C0000020704701387047002D06BF35460338BF
:1002D000073815F0010F07D1013015F4807F02BFF8
:1002E000013015F4C03F0130F0BC0138704700BF49
:1002F00081F0004102E000BF83F0004330B54FEAD7
:1003000041044FEA430594EA050F08BF90EA020F43
:100310001FBF54EA000C55EA020C7FEA645C7FEAD6
:10032000655C00F0E2804FEA5454D4EB5555B8BFF9
:100330006D420CDD2C4480EA020281EA030382EA6A
:10034000000083EA010180EA020281EA0303362DFC
:1003500088BF30BD11F0004F4FEA01314FF4801CCF
:100360004CEA113102D0404261EB410113F0004FE1
:100370004FEA03334CEA133302D0524263EB430398
:1003800094EA050F00F0A780A4F10104D5F1200E36
:100390000DDB02FA0EFC22FA05F2801841F1000191
:1003A00003FA0EF2801843FA05F359410EE0A5F165
:1003B00020050EF1200E012A03FA0EFC28BF4CF096
:1003C000020C43FA05F3C01851EBE37101F000454C
:1003D00007D54FF0000EDCF1000C7EEB00006EEB59
:1003E0000101B1F5801F1BD3B1F5001F0CD34908E3
:1003F0005FEA30004FEA3C0C04F101044FEA44523A
:1004000012F5800F80F09A80BCF1004F08BF5FEAC0
:10041000500C50F1000041EB045141EA050130BDA0
:100420005FEA4C0C404141EB010111F4801FA4F143
:100430000104E9D191F0000F04BF01460020B1FA98
:1004400081F308BF2033A3F10B03B3F120020CDAD0
:100450000C3208DD02F1140CC2F10C0201FA0CF0AE
:1004600021FA02F10CE002F11402D8BFC2F1200C13
:1004700001FA02F120FA0CFCDCBF41EA0C019040C9
:10048000E41AA2BF01EB0451294330BD6FEA040412
:100490001F3C1CDA0C340EDC04F11404C4F12002FD
:1004A00020FA04F001FA02F340EA030021FA04F30F
:1004B00045EA030130BDC4F10C04C4F1200220FA66
:1004C00002F001FA04F340EA0300294630BD21FAA4
:1004D00004F0294630BD94F0000F83F4801306BF6A
:1004E00081F480110134013D4EE77FEA645C18BF5E
:1004F0007FEA655C29D094EA050F08BF90EA020FF5
:1005000005D054EA000C04BF1946104630BD91EAEC
:10051000030F1EBF0021002030BD5FEA545C05D1EF
:100520004000494128BF41F0004130BD14F580042E
:100530003CBF01F5801130BD01F0004545F0FE41A2
:1005400041F470014FF0000030BD7FEA645C1ABFD7
:10055000194610467FEA655C1CBF0B46024650EA0E
:10056000013406BF52EA033591EA030F41F400213A
:1005700030BD00BF90F0000F04BF0021704730B5C0
:100580004FF4806404F132044FF000054FF0000195
:1005900050E700BF90F0000F04BF0021704730B556
:1005A0004FF4806404F1320410F0004548BF40422B
:1005B0004FF000013EE700BF42004FEAE2014FEA80
:1005C00031014FEA02701FBF12F07F4393F07F4F5B
:1005D00081F06051704792F0000F14BF93F07F4F8D
:1005E000704730B54FF4607401F0004521F00041D0
:1005F00020E700BF50EA010208BF704730B54FF056
:1006000000050AE050EA010208BF704730B511F05A
:10061000004502D5404261EB41014FF4806404F192
:1006200032045FEA915C3FF4DCAE4FF003025FEA14
:10063000DC0C18BF03325FEADC0C18BF033202EB9C
:10064000DC02C2F1200300FA03FC20FA02F001FAF6
:1006500003FE40EA0E0021FA02F11444C1E600BF95
:1006600070B54FF0FF0C4CF4E06C1CEA11541DBF48
:100670001CEA135594EA0C0F95EA0C0F00F0DEF813
:100680002C4481EA030621EA4C5123EA4C5350EAF8
:10069000013518BF52EA033541F4801143F4801349
:1006A00038D0A0FB02CE4FF00005E1FB02E506F0DA
:1006B0000042E0FB03E54FF00006E1FB03569CF02F
:1006C000000F18BF4EF0010EA4F1FF04B6F5007F35
:1006D00064F5407404D25FEA4E0E6D4146EB0606A7
:1006E00042EAC62141EA55514FEAC52040EA5E5030
:1006F0004FEACE2EB4F1FD0C88BFBCF5E06F1ED8DA
:10070000BEF1004F08BF5FEA500E50F1000041EB10
:10071000045170BD06F0004646EA010140EA0200BD
:1007200081EA0301B4EB5C04C2BFD4EB0C0541EADF
:10073000045170BD41F480114FF0000E013C00F3F4
:10074000AB8014F1360FDEBF002001F0004170BD18
:10075000C4F10004203C35DA0C341BDC04F1140431
:10076000C4F1200500FA05F320FA04F001FA05F2BD
:1007700040EA020001F0004221F0004110EBD3708A
:1007800021FA04F642EB06015EEA430E08BF20EAB6
:10079000D37070BDC4F10C04C4F1200500FA04F359
:1007A00020FA05F001FA04F240EA020001F00041EB
:1007B00010EBD37041F100015EEA430E08BF20EA5E
:1007C000D37070BDC4F1200500FA05F24EEA020EA6
:1007D00020FA04F301FA05F243EA020321FA04F0D5
:1007E00001F0004121FA04F220EA020000EBD3708C
:1007F0005EEA430E08BF20EAD37070BD94F0000F8C
:100800000FD101F00046400041EB010111F4801FBF
:1008100008BF013CF7D041EA060195F0000F18BF70
:10082000704703F00046520043EB030313F4801FAC
:1008300008BF013DF7D043EA0603704794EA0C0F66
:100840000CEA135518BF95EA0C0F0CD050EA41067C
:1008500018BF52EA4306D1D181EA030101F00041F9
:100860004FF0000070BD50EA410606BF1046194621
:1008700052EA430619D094EA0C0F02D150EA01362D
:1008800013D195EA0C0F05D152EA03361CBF10466E
:1008900019460AD181EA030101F0004141F0FE410D
:1008A00041F470014FF0000070BD41F0FE4141F491
:1008B000780170BD70B54FF0FF0C4CF4E06C1CEA91
:1008C00011541DBF1CEA135594EA0C0F95EA0C0F46
:1008D00000F0A7F8A4EB050481EA030E52EA033501
:1008E0004FEA013100F088804FEA03334FF0805522
:1008F00045EA131343EA12634FEA022245EA11154F
:1009000045EA10654FEA00260EF000419D4208BFFF
:10091000964244F1FD0404F5407402D25B084FEAAC
:100920003202B61A65EB03055B084FEA32024FF458
:1009300080104FF4002CB6EB020E75EB030E22BFB5
:10094000B61A754640EA0C005B084FEA3202B6EB75
:10095000020E75EB030E22BFB61A754640EA5C0024
:100960005B084FEA3202B6EB020E75EB030E22BFB4
:10097000B61A754640EA9C005B084FEA3202B6EBB5
:10098000020E75EB030E22BFB61A754640EADC0074
:1009900055EA060E18D04FEA051545EA16754FEAD6
:1009A00006164FEAC30343EA52734FEAC2025FEAF4
:1009B0001C1CC0D111F4801F0BD141EA00014FF083
:1009C00000004FF0004CB6E711F4801F04BF014354
:1009D0000020B4F1FD0C88BFBCF5E06F3FF6AFAE70
:1009E000B5EB030C04BFB6EB020C5FEA500C50F100
:1009F000000041EB045170BD0EF0004E4EEA113183
:100A000014EB5C04C2BFD4EB0C0541EA045170BD89
:100A100041F480114FF0000E013C90E645EA060ECD
:100A20008DE60CEA135594EA0C0F08BF95EA0C0FFB
:100A30003FF43BAF94EA0C0F0AD150EA01347FF443
:100A400034AF95EA0C0F7FF425AF104619462CE71A
:100A500095EA0C0F06D152EA03353FF4FDAE10467D
:100A6000194622E750EA410618BF52EA43067FF4CE
:100A7000C5AE50EA41047FF40DAF52EA43057FF45E
:100A8000EBAE12E74FF0FF3C06E000BF4FF0010C69
:100A900002E000BF4FF0010C4DF804CD4FEA410CCD
:100AA0007FEA6C5C4FEA430C18BF7FEA6C5C1BD09A
:100AB00001B050EA410C0CBF52EA430C91EA030F1B
:100AC00002BF90EA020F0020704710F1000F91EA78
:100AD000030F58BF994208BF90422CBFD8176FEA46
:100AE000E37040F0010070474FEA410C7FEA6C5C14
:100AF00002D150EA013C07D14FEA430C7FEA6C5C1B
:100B0000D6D152EA033CD3D05DF8040B704700BF46
:100B10008446104662468C461946634600E000BF94
:100B200001B5FFF7B7FF002848BF10F1000F01BD66
:100B30004DF808EDFFF7F4FF0CBF012000205DF831
:100B400008FB00BF4DF808EDFFF7EAFF34BF0120B6
:100B500000205DF808FB00BF4DF808EDFFF7E0FF4F
:100B600094BF012000205DF808FB00BF4DF808EDA0
:100B7000FFF7CEFF94BF012000205DF808FB00BF07
:100B80004DF808EDFFF7C4FF34BF012000205DF8E9
:100B900008FB00BF4A0011D212F5001211D20DD588
:100BA0006FF47873B3EB62520ED44FEAC12343F073
:100BB000004343EA505323FA02F070474FF000001D
:100BC000704750EA013002D14FF0FF3070474FF0CC
:100BD000000070474FEA4102B2F1E04324BFB3F591
:100BE000001CDCF1FE5C0DD901F0004C4FEAC002A4
:100BF0004CEA5070B2F1004F40EB830008BF20F088
:100C00000100704711F0804F21D113F13872BCBF41
:100C100001F00040704741F480114FEA5252C2F196
:100C20001802C2F1200C10FA0CF320FA02F018BFDF
:100C300040F001004FEAC1234FEAD32303FA0CFC32
:100C400040EA0C0023FA02F34FEA4303CCE77FEAC1
:100C5000625307D150EA01331EBF4FF0FE4040F40B
:100C60004000704701F0004040F0FE4040F40000BA
:100C7000704700BF7BB972B90029BEBF00204FF09A
:100C8000004106E008BF00281CBF6FF000414FF094
:100C9000FF3000F0C9B9ADF1080C6DE904CE0029B0
:100CA00009DB002B1ADB00F04DF8DDF804E0DDE98C
:100CB000022304B07047404261EB4101002B1BDB73
:100CC00000F040F8DDF804E0DDE9022304B0404222
:100CD00061EB4101524263EB43037047524263EBC5
:100CE000430300F02FF8DDF804E0DDE9022304B04F
:100CF000404261EB41017047524263EB430300F015
:100D000021F8DDF804E0DDE9022304B0524263EB90
:100D10004303704753B94AB9002908BF00281CBFD4
:100D20004FF0FF314FF0FF3000F07EB9ADF1080C0D
:100D30006DE904CE00F006F8DDF804E0DDE90223F9
:100D400004B070472DE9F0478C460E460446089DD6
:100D5000002B50D18A4217466CD9B2FA82FEBEF1FE
:100D6000000F0BD0CEF1200420FA04F401FA0EF6A5
:100D700044EA060C02FA0EF700FA0EF44FEA17499D
:100D8000220CBCFBF9F01FFA87F809FB10C642EAF7
:100D9000064600FB08F3B34209D9F61900F1FF3209
:100DA00080F02281B34240F21F8102383E44F61A9D
:100DB000A2B2B6FBF9F309FB136642EA064403FB51
:100DC00008F8A04509D9E41903F1FF3280F00A813F
:100DD000A04540F20781023B3C44C8EB040443EACF
:100DE00000400021002D62D024FA0EF400232C6074
:100DF0006B60BDE8F0878B4207D9002D55D00021EC
:100E000085E841000846BDE8F087B3FA83F1002980
:100E100040F09080B34202D3824200F2F880841AFC
:100E200066EB03060120B446002D40D085E8101083
:100E3000BDE8F08712B90127B7FBF2F7B7FA87FED2
:100E4000BEF1000F35D1F31B4FEA17481FFA87FC9C
:100E50000121B3FBF8F0220C08FB103642EA0646EB
:100E60000CFB00F3B34207D9F61900F1FF3202D2AE
:100E7000B34200F2CE801046F61AA2B2B6FBF8F3E7
:100E800008FB136642EA06440CFB03FCA44507D9A1
:100E9000E41903F1FF3202D2A44500F2B5801346F3
:100EA000CCEB040443EA00409CE729462846BDE811
:100EB000F087CEF1200106FA0EF307FA0EF720FABA
:100EC00001F94FEA1748CE4049EA0309B6FBF8FAA0
:100ED0004FEA194408FB1A661FFA87FC44EA0643E6
:100EE0000AFB0CF29A4200FA0EF40AD9DB190AF155
:100EF000FF3180F087809A4240F28480AAF1020A92
:100F00003B449B1A1FFA89F9B3FBF8F108FB113334
:100F100049EA034301FB0CF69E4207D9DB1901F1B4
:100F2000FF326BD29E4269D902393B449B1B41EA96
:100F30000A418EE7C1F1200E22FA0EF48B402343C2
:100F400020FA0EF706FA01F44FEA134C26FA0EF6D1
:100F50003C43B6FBFCF9270C0CFB19661FFA83F81F
:100F600047EA064609FB08F7B74202FA01F200FA1F
:100F700001FA08D9F61809F1FF3041D2B7423FD93A
:100F8000A9F102091E44F61BA0B2B6FBFCF40CFB4F
:100F9000146640EA064704FB08F8B84507D9FF186D
:100FA00004F1FF3028D2B84526D9023C1F4444EA58
:100FB0000940C8EB0707A0FB02894F4544464E464F
:100FC00014D329D065B3BAEB040367EB060707FA1D
:100FD0000EFECB40CF404EEA030385E88800002197
:100FE000BDE8F0871346F8E61046E0E6B8EB0204E9
:100FF00069EB03060138E5E70446D8E7114695E7B3
:101000008146C0E78A467CE7023B3C4448E7084605
:101010000AE702383E442FE7C245E7D33E46D1E710
:101020002946BDE8F08700BF704700BFF0B587B024
:1010300000230122022506240E4600930193049208
:1010400007460595039401F025FD164BF322DA605F
:10105000694601A801F06AFD08B101F05BF801F0F2
:101060002DFD01F017FD0F4BF322DA60B7B10E4DE5
:10107000043E002404E00134BC4205F104050DD017
:1010800056F8042F00232946022001F05FFC0028B7
:10109000F1D0013401F03EF8BC42F1D101F00EFD77
:1010A00007B0F0BD003C024000000408800000F1E1
:1010B0000060064B00F58020984205D053F8042BC1
:1010C00041F8042B8342F9D3704700BF00000408A5
:1010D00000B587B00023062101220220009301936E
:1010E00003910492059001F0D5FC074BF322DA60DE
:1010F000694601A801F01AFD08B101F00BF801F0F2
:10110000DDFC07B05DF804FB003C0240044B1B789B
:1011100003713221082203234171827103607047F9
:10112000000000200268012A40F2828070B5067932
:10113000322E82B002D0002002B070BD84790C2C17
:10114000054600F04A8151D8072C00F0328171D851
:10115000012C00F01181022CEDD1032AEBD1BC4B04
:101160004279027103F10801EA1D05F10F048220A2
:10117000914288BF9C426E71A87100F2878151072D
:1011800040F08481083BD3E90201C2E90001D3E9C0
:101190000401C4E90001D3E9060105F11702C2E91F
:1011A0000001D3E9080105F11F02C2E9000193F82B
:1011B000282085F8272093F8292085F8282093F8FF
:1011C0002A2085F8292093F82B2085F82A2093F8E7
:1011D0002C2085F82B2093F82D3085F82C302923EE
:1011E00028462B6000F08AFA0120A5E7622C00F067
:1011F000D08052D80E2C00F0B480602C9BD1022AF3
:1012000099D04379934A2B71E023AB7110686E71CA
:101210000DF1070104F0A4FB9DF80730002B54D119
:1012200004220321E81D01F0AFF807232B604CE0F6
:1012300000207047082C4DD0092C7FF47CAF022A87
:101240003FF479AF844B854800241C7003F004F907
:10125000804B186804F06CFB814B186804F094FC18
:10126000804B186804F0F6F97F4B186804F084F896
:101270007E4B186804F038F97D4B186804F098FA32
:10128000AB7969797B4A2971803B2846AB716E71D5
:10129000146000F033FA01204EE7762C4ED07A2C01
:1012A0007FF449AF022A3FF446AF4379704A2B716D
:1012B000FA23AB7110686E710DF1070104F090FA1A
:1012C0009DF80730002B00F0A780284600F016FAA2
:1012D000012031E7022A3FF42EAF0421073001F04C
:1012E00047F8644CC207206000F1CA80830700F110
:1012F000A880460700F19F80C10600F19680820613
:1013000000F18D80430603D5594B186804F040FA6C
:101310005248514E03F094F8AB7957496A790A70F4
:10132000803B01243220032134706871AB71284660
:101330002A71296000F0E2F92046FDE6022A3FF416
:10134000FAAE4379494A2B71F623AB7110686E717E
:101350000DF1070104F0E0F89DF80730002BB4D13F
:101360005EE7032A7FF4E7AE417902608E230171C4
:10137000467183710120DFE6032A7FF4DCAE4179F8
:101380000260812301714671837100F0B7F9204634
:10139000D2E6022A3FF4CFAE43790371E2234671CD
:1013A000837104220121E81D00F0EEFF07232B606A
:1013B0008BE7022A3FF4BFAEC379304A012B13708A
:1013C00025D000F0F1F800F0F3F8AB796A792A71D2
:1013D000803B3222AB716A7177E7022A3FF4ABAEF1
:1013E000437903718C22032382710360427A017A6C
:1013F0004671C07900F074FE6B7B2A7BE97AA87A8B
:1014000000F056FE284600F079F9012094E600F03D
:10141000D3F800F0C5F8D8E704220221C3E7134B44
:10142000186804F051F820686CE70F4B186803F057
:1014300093FF206863E70B4B186804F0FBF8206803
:101440005AE7074B186804F08FFB206851E700BF8C
:101450000800002048160020801600201C2C0020C8
:1014600044160020401600203416002038160020B4
:101470003C16002078160020000000202C160020CA
:10148000084B186804F044FA20682FE7064BAA1DA1
:1014900003F1260013F8011F02F8011F8342F9D15E
:1014A0009DE600BF481600200700002030B585B03B
:1014B0000DF1030104F030F89DF803500DB105B0B3
:1014C00030BD234C6E227523772165208DF80420D2
:1014D0008DF808208DF80C208DF806308DF80A3034
:1014E0008DF80E308DF805108DF809108DF80D006F
:1014F00013F0FAFF206814F03FFA246801A904F100
:10150000290017F059FF02A904F12D0017F054FF2C
:1015100003A904F1310017F04FFF01230D490E4AD2
:101520000E48A16161622261E26184F83530237363
:1015300084F8283060612062204614F0B5F928460E
:1015400014F070FA284614F093FA05B030BD00BFCD
:10155000300000206F12833BA69B443B488AC83A68
:1015600070B50D4A0D4C13686468A34202D0013374
:10157000136070BD0C4610EE106A05460146204609
:1015800014F06AFC00EE106A294620460022BDE8ED
:10159000704014F095BA00BF3016002030000020D3
:1015A000012014F03FBA00BF002014F03BBA00BF86
:1015B000012014F05DBA00BF002014F059BA00BF3A
:1015C00010B50C4615F03AFE206010BD10B50C4663
:1015D00015F0D6FC2046BDE8104015F001BE00BF56
:1015E000012115F0CDBB00BF002115F0C9BB00BF24
:1015F00008B58008FFF75AFD002008BD08B580082F
:10160000FFF714FD002008BD2DE9F04F814683B09F
:10161000374800F043F918B1002003B0BDE8F08F5F
:10162000334800F0A7F9334BC0F500709C8883B2B3
:10163000A34236BFC4F5007BC4EB030B9B4401936C
:101640001FFA8BF30093002BE6D04FF0000ADFF86F
:10165000A8B05546D046564605E00136009B1FFA15
:1016600086F843453CD9621C1BF8043094B2B4F5AB
:10167000007F28BF0024F02BEFD11E4B9C880EB3B7
:10168000002701E047451DD204F1010ACAF3080A08
:1016900009EB05021BF804001BF80A10043200F0E5
:1016A00089FDC0B283B21F4401352344BFB2C3F3E6
:1016B0000804ADB20028E5D10E4BA3F804A003B096
:1016C000BDE8F08F01340B4BC9F80050C4F3080497
:1016D00048469C8000F0E6FD0028BED001209CE733
:1016E000B3F5807F98D9034BBDF804209A8093E727
:1016F00010260020702600201827002070B5084C06
:10170000054600F069FD2946204600F023FD2146EC
:1017100082B241F288330348BDE8704003F0ECB96F
:101720001829002078260020F0B58BB0334B3448C0
:10173000344C002501951A6B42F001021A631A6BB2
:1017400002F001020192019A02951A6B42F0010225
:101750001A631A6B02F001020292029A03951A6C44
:1017600042F400321A641A6C02F400320392039AB3
:1017700004951A6B42F400121A631B6B079503F46D
:1017800000130422049305A9022307260592069359
:101790000893049F099601F077FA082318480593E7
:1017A00005A9099601F070FA174B184A1B68636087
:1017B00020460C23A560E5602561A5612260636178
:1017C00003F06AF910B100F0A5FCFEE7104D114ED0
:1017D0000746284600F0D2F8284600F095FF4FF45F
:1017E000007331461A4620466563AC63E763A66220
:1017F000A38503F011FA0BB0F0BD00BF0038024022
:1018000000000240782600203800002000440040FC
:101810001026002018270020F0B595B000241D4B9D
:101820000194196C1C4A41F0805119641B6C03F03F
:1018300080530193019B0294136823F4404343F4C3
:101840000043136013680F9403F44043022502938E
:1018500004211023072201274FF4A87608A8DDF8F9
:1018600008E00C9310931291139208950E950B9724
:10187000119601F0FDFF0F224FF48053294603A873
:101880000495059407940392069302F0E7F915B0C6
:10189000F0BD00BF003802400070004003682A4AD3
:1018A00093420FD92949583A8B42526842D0183195
:1018B0008B4243D0264883420CBF4FF480334FF411
:1018C000800338E0234A934210D9234902F552722B
:1018D0008B4212682ED018318B422FD01F48834282
:1018E0000CBF4FF480334FF4800324E01C4A934232
:1018F0000FD91C49583A8B4252681BD018318B4281
:101900001CD0194883420CBF4FF480334FF480033E
:1019100011E0164A16499342086813D018329342D0
:101920000ED0183293420CBF4FF480334FF4800333
:1019300018407047012303EA020070474023FAE78A
:101940004023F5E70123F3E7586402407064024046
:10195000A0640240B860024010640240406402404B
:101960005860024070600240A06002401060024077
:101970000060024003685868704700BFF0B40E4B27
:1019800003604FF0006700234FF480664FF48075CA
:101990004FF480344FF40002032147600661C561B3
:1019A000046281628360C360436183614362C26297
:1019B0000263F0BC704700BF886002402DE9F04F21
:1019C000BDB000F0F3FDFFF727FF00220E214FF01E
:1019D000FF3000F03BFE002004F000F90121002060
:1019E00004F038F90025924B09951A6B914C42F49A
:1019F00080521A631B6B03F48053099321464FF006
:101A0000FF30099B03F0B2FB211D4FF0FF3003F0C4
:101A1000DDFC04F108014FF0FF3003F045FE04F156
:101A20000C014FF0FF3003F091FD04F110014FF075
:101A3000FF3003F0AFFF04F114014FF0FF3003F06B
:101A4000E9FE6068FFF732FD08A90EA8FFF7B8FDB0
:101A50000126FFF769FE0C2320A8269525952093E3
:101A6000229601F005FF7F2210B3F923A66162627E
:101A7000A362E3636F4F704BE3614022002307F1E1
:101A80001C002262E3622363636302F047FA00B141
:101A9000FEE70DF1F00B4FF001334BF8943D0122BE
:101AA000594607F11C0002F097FB034630B1FEE7F0
:101AB000FF23A0616262A362E363DBE7012220A946
:101AC00007F11C0020932393249302F093FA064617
:101AD00000B1FEE7594D5A49A8604AF20F4214235B
:101AE000286128466A602960EB6002F049FC4FF4E7
:101AF000805320A92846209302F0C4FC594628466A
:101B00001796189602F030FE304604F08FF84FF426
:101B1000FA7000F077FD304604F092F80A20FFF7E3
:101B20005FFD0AA815F05CFB9DF83430032B00F034
:101B30009582444EDFF81091DFF8F8A0C8460025E2
:101B400002E094F84230E3B93F48FFF75DFD18B179
:101B500098F80430322B66D094F84130002BF0D046
:101B6000344B356083F8415083F840507560B56060
:101B7000FFF7AEFA0A20FFF733FD94F84230002B4E
:101B8000E2D0002220A931488AF8425002F0EEFA51
:101B9000002259462D4802F0C3FBDAF83C00219A96
:101BA0009DF88010DAF8443089F80710821A642111
:101BB00001FB02F29DF882109DF881E089F809107E
:101BC000D90600F101008DF8805092FBF0F289F8FF
:101BD00008E089F80A2000F11C819A068DF88050EF
:101BE00000F1FC805F068DF81F5000F10681580758
:101BF0008DF85C5000F1D88099078DF85C5000F1A9
:101C0000E280DA078DF85C5022D403F07003702B69
:101C10002DD00D48FFF77AFA6F230B48C9F8003032
:101C2000FFF76CFD90E70848FFF77CFA94E700BFE8
:101C30000038024034160020002800401C2C0020F0
:101C400000040040702C0020182B002050160020AB
:101C50005946606903F07CFE20B99DF85C30012B89
:101C600000F0E380636C03F07003702BD1D1B14BB3
:101C7000DFEDB17A1B680193AE4B9DED017A5B6895
:101C80000293AC4BDFEDAD6A9B680393AC4B1B68D2
:101C90000493AB4B5B680593A94B9B680193A94BDD
:101CA000F8EEC72A1B689DED027A0293A54B9DEDC5
:101CB000026A5B68B8EEC73A9DED037A0393F8EECB
:101CC000C73AA04B9DED047A9B68B8EEC74AB8EEC0
:101CD000C65A9DED057A9DED036AF8EEC74AF8EE07
:101CE000C65A9DED017A019306EE103AB8EEC77A16
:101CF000B8EEC66A62EEA72A23EE273A63EEA73A49
:101D000024EE274A64EEA74A25EE265A67EE277A84
:101D100025EEA67A66EE266A0020CDED1D2A8DED11
:101D20001E3ACDED1F3A8DED1A4ACDED1B4ACDED91
:101D30001C7A8DED175A8DED187ACDED196A03F0E6
:101D400075FF9FED810A20A95846FFF709FC002086
:101D500003F076FF7D4B1B78012B00F015810DF110
:101D60008C0EBEE80F007A4F0DF1800E386079605E
:101D7000BA60BEE80700103738600DF19C0E79603C
:101D8000BA60BEE80700F8600C370DF1A80E796064
:101D9000BA60BEE80700F8602D9847F8103C0C3791
:101DA0007960BA60F86034E75946E06803F062FC95
:101DB00018B99DF85C30012B4DD0636C8DF85C50E8
:101DC00099077FF51EAF5946206903F0EDFE18B95B
:101DD0009DF85C30012B33D0636C12E720A960685A
:101DE00003F092FB18B99DF88030012B6ED0636C24
:101DF0008DF81F505F067FF5FAAE0DF11F01A06848
:101E000003F0E6FC18B99DF81F30012B2ED0636C4F
:101E1000EDE620A9DAF8000003F0BEFA18B99DF843
:101E20008030012B6CD0636CD7E64A4B20A95869EF
:101E300003F09EFD474B484A20985B6C1060E4E637
:101E4000444B20A9186903F0B7FE424B434A20983F
:101E50005B6C1060D5E63F4B20A9D86803F012FCFC
:101E60003C4B3F4A20985B6C1060C5E6354A0293B4
:101E7000384B01921146986803F0BAFC354B019A31
:101E800093F84010029B002900F09D802D4B316893
:101E90001B682C4A2B4F5068BF687268591AB36888
:101EA000801AFB1A274A274F1160786004222D48B8
:101EB000BB6000F069FA79682B48042200F064FAEC
:101EC0000422B968294800F05FFAA0E7214B1949BC
:101ED000586803F029FB174B25481968042200F0C5
:101EE00053FA144B23485968042200F04DFA114B61
:101EF00021489968042200F047FA164B5B6C71E6A2
:101F00000F49DAF8000003F04FFA0D4B1B4819682F
:101F1000042200F039FA0A4B19485968042200F0EB
:101F200033FA074B17489968042200F02DFADAF8C3
:101F3000443052E6582C00206F12833A6F12033B54
:101F4000642C00207C2C00200AD7233C2C16002077
:101F5000532B002034160020232B0020272B002099
:101F60002B2B0020472B00204B2B00204F2B002039
:101F70003B2B00203F2B0020432B00202F2B002049
:101F8000332B0020372B00200DF1C40EBEE80F00CC
:101F9000424F0DF1B80E38607960BA60BEE80700B4
:101FA000103738600DF1D40E7960BA60BEE80700D2
:101FB000F8600C370DF1E00E7960BA60BEE80700FA
:101FC000F8603B98E9E692ED006AD2ED016A92ED85
:101FD000027A0193324BDFED337A9A6C1A92B8EEA3
:101FE000C77AB8EEC66AF8EEE66A26EE276A66EEAB
:101FF000A76A67EE277A0A3220A958469A648DEDBF
:10200000176ACDED186ACDED197AFFF7DFFA9DF862
:102010008C20019B032A7FF439AFDFED237A9DEDFD
:10202000206ADDED216A9DED227A1D4A26EE276A9F
:1020300066EEA76A67EE277ABDEEC66AFDEEE66A2F
:10204000FDEEE77A0A2082F8403086ED006AC6EDA0
:10205000016AC6ED027AFFF7C7FA17E79FED126A29
:10206000DDED0A6A9DED0B7ADDED0C7A0F4E66EE22
:10207000866A27EE067A67EE867AFDEEE66ABDEEA0
:10208000C77AFDEEE77A0123C6ED006A86ED017A94
:10209000C6ED027A87F840304CE500BF532B002094
:1020A000341600206F12033B0000FA43702C00200E
:1020B00010B5002463F3070482B061F30F2462F3C8
:1020C000174402A960F31F6441F8044D002203483D
:1020D00002F082F800B1FEE702B010BD50160020F9
:1020E00000B587B000238DF804008DF805108DF839
:1020F000062001A91A4606488DF80730029304937A
:10210000059301F077FF00B1FEE707B05DF804FB2F
:1021100050160020FEE700BFB0F5005F00D070470A
:1021200008B5002003F0D6FD18B9024B012283F850
:10213000412008BD341600200268044B9A4200D0AA
:102140007047034B012283F842207047000400408F
:10215000341600200A68F0B5074642B30022104644
:10216000CD1C4FF0F10C4FF0F20E09E0F12B1BD11A
:102170002370637002260B680130834232440FD90A
:1021800015F8013FF02B07EB0204EFD107F802C06E
:1021900084F801E00B680130022683423244EFD814
:1021A000501CF023BB54F0BD01262370E3E701204F
:1021B000F7E700BFF12802D0107001207047F12925
:1021C00003D0F22904D0002070471170022070471C
:1021D000F0231370022070470268002A5CD0F0B52B
:1021E000141FA408531E0134042B4FEA840550D950
:1021F00000273E4600F1040E5EF8043B03F07F31F9
:102200006FEA030CC1F180310CF080334B4003F0D6
:102210007F310137734006F07F3603F080330E4480
:10222000BC4286EA0306E7D8C6F307233344C6F365
:1022300007441C4404EB166395422946DBB223D0C5
:1022400045184C1C2D799442A3EB0503DBB21BD23D
:1022500005198C1C2D79A242A3EB0503DBB213D91F
:102260000519CC1C2D79A242A3EB0503DBB20BD9D7
:102270000444043124798A42A3EB0403DBB203D97A
:10228000014409795B1ADBB2511C024413710160ED
:10229000F0BD00210B46D3E7134602440121137120
:1022A000016070470168F0B500295CD00D1FAD08D2
:1022B0004F1E0135062F4FEA850251D900263346BD
:1022C00000F1040C5CF8044B013604F07F3E5C40E6
:1022D00003F07F3304F080347344AE4283EA040396
:1022E000F0D3C3F307241D19C3F307442C4404EBB4
:1022F00013639142DBB22DD08518541C2D798C428A
:102300002B44DBB226D20519941C2D79A1422B4413
:10231000DBB21FD90519D41C2D79A1422B44DBB2A5
:1023200018D90519141D2D79A1422B44DBB211D9FE
:102330000519541D2D79A1422B44DBB20AD904445E
:102340000632247991422344DBB203D90244127944
:102350001344DBB2B3FA83F35B0907601846F0BDA0
:1023600000221346C8E701234FF0FF37F5E700BF0F
:1023700001394318425C29B113F8011D984201EB61
:102380000222F9D11046704732B1024400F8011B15
:1023900090424FEA2121F9D1704700BF00B51F4B91
:1023A0001B6893B00C210BBB012206A80C930B9366
:1023B0000691089201F05CFA60BB02224FF4807330
:1023C00001A80192049301F001FD08B1FFF7A2FEFC
:1023D000134B01221A600F210022022000F036F96F
:1023E000022000F06BF913B05DF804FB002301221A
:1023F00006A806910C9308930B9201F039FA18B9CC
:1024000002224FF40073DBE7FFF784FE02224FF451
:102410000073D5E7FFF77EFECFE700BF4C16002024
:102420003C0E474202680E4B9A4200D0704700B5FE
:1024300083B0002203F50D330192196C41F00201C3
:1024400019641B6C03F0020301930F211D20019BF3
:1024500000F0FCF81D2000F031F903B05DF804FB3A
:1024600000040040704700BFFEE700BF704700BF98
:1024700000F0B6B8014802F0CDB800BF1C2C002017
:102480004FF4005000F0F0BC70B5161E07DD0C468E
:102490008D19AFF3008004F8010BA542F9D1304645
:1024A00070BD00BF70B5161E07DD0C468D1914F8FF
:1024B000010BAFF30080A542F9D1304670BD00BFDB
:1024C0000A4A08B5136873B118446946884202D8AD
:1024D0001060184608BD16F017FF0C2303604FF07C
:1024E000FF33184608BD024B1360EDE78416002049
:1024F000C42C00204FF0FF30704700BF4FF4005352
:102500004B600020704700BF0120704700207047DB
:10251000DFF834D0002103E00C4B5B58435004310A
:102520000B480C4B42189A42F6D30B4A02E00023A8
:1025300042F8043B094B9A42F9D302F00FFC16F023
:10254000E9FEFFF73BFA70470080012014A901085B
:10255000000000201016002010160020C42C0020BF
:10256000FEE70000704700BF70B50E4B0E4D1B68B4
:102570002A7806464FF47A70B0FBF2F0B3FBF0F025
:1025800000F0A8F808B90F2E01D9012070BD04464B
:10259000024631464FF0FF3000F058F86E6020469A
:1025A00070BD00BF440000203C00002008B50B4B6C
:1025B0001A6842F400721A601A6842F480621A6063
:1025C0001A6842F480721A60032000F02DF80F2080
:1025D000FFF7CAFFFFF7C6FF002008BD003C02401E
:1025E000034A0449136809780B441360704700BF1D
:1025F000882C00203C000020014B1868704700BF69
:10260000882C002038B50446FFF7F6FF631C05460A
:1026100002D0044B1B781C44FFF7EEFF401B8442A2
:10262000FAD838BD3C000020074AD1684FF6FF03B6
:102630000B40000243F0BF6300F4E06043F400335A
:102640000343D360704700BF00ED00E0194BDB6827
:10265000C3F3022330B4C3F10705042D03F10404CE
:1026600028BF0425062C18D9033B01249C40013CBB
:1026700022400124AC40013C214001FA03F3002830
:1026800042EA03020CDB00F1604000F561401201F8
:10269000D2B280F8002330BC704700221346E8E72E
:1026A000054B00F00F0012010344D2B21A7630BC81
:1026B000704700BF00ED00E0FCEC00E000F01F01FF
:1026C00001234009024A8B4042F82030704700BF86
:1026D00000E100E00138B0F1807F0ED2084B10B469
:1026E000084C5860F02084F823000022072110468F
:1026F0009A6019605DF8044B70470120704700BF75
:1027000010E000E000ED00E0F8B50446FFF774FFCC
:10271000002C72D00222236884F835201A68002128
:1027200022F0010284F8341005461A6005E0FFF734
:1027300063FF401B05283AD823681A68D107F6D4EE
:1027400004F10C0027C86768A6683E433043014384
:102750001143E669206A1F68344A29430E43616ABF
:1027600030433A40042942EA000227D01A605A69ED
:1027700022F007021143DAB22D4D5961103AA5FB40
:10278000021212092B4823F47F73815CE16523F068
:102790000303032A88BF04333F228A400125002116
:1027A000A36508469A60616584F83550F8BD032337
:1027B00020226265184684F83530F8BDE06A216B46
:1027C000A66A01430A431A605A6946F0040122F0DE
:1027D000070211430028CED08DB1B5F5005F18D0A7
:1027E000022E03D9032EC6D1C201C4D50123402233
:1027F0006265184684F83530F8BD0120F8BD012E19
:1028000003D0F1D3022EB6D1EEE7B0F1C07FB2D142
:10281000ECE7032EAFD801A252F826F0ED2700080E
:10282000E9270008ED2700080B2800083F8010F07A
:10283000ABAAAAAA68A10108F0B490F83440012C10
:102840000DD090F83540866D0125AC4280F83450AB
:1028500008D0002380F834300220F0BC70470220FA
:10286000F0BC704704680227002580F83570456584
:102870002568876825F48025402F256063600ABF9E
:10288000A260A160E160C16D18BFE2603F238B4090
:10289000026CB360236843F016032360636943F05E
:1028A000800363611AB1236843F00803236023683F
:1028B00043F0010323600020CFE700BF214BDA681B
:1028C000D00605D52049CA6910200243CA61D860E4
:1028D0001C4BDA68910606D51B49CA69202042F0D4
:1028E0000802CA61D860174BDA68520606D5164945
:1028F000CA69402042F00402CA61D860114BDA680C
:10290000100606D51049CA69802042F00202CA6149
:10291000D8600C4BDA68D10507D50B49CA694FF46A
:10292000807042F00102CA61D860064BDA689207F3
:1029300006D50549CA69022042F02002CA61D86062
:10294000704700BF003C02408C2C00202DE9F84F5E
:102950004E4F3C7E012C02D10220BDE8F88F9B46F1
:102960009046002301228A4681463A76FB61FFF7B2
:1029700043FE474C06464CF2503504E0FFF73CFE60
:10298000801BA8424DD8E368414ADB03F6D4D368E4
:10299000D80744BF0123D3603D4BDA6812F4F97FB6
:1029A00038D1B9F1000F41D11A6922F440721A618D
:1029B0001A691A6119695FFA88F841F00101196111
:1029C0008AF800800023FB61FFF716FE304C0646B4
:1029D0004CF2503504E0FFF70FFE801BA8423CD8B4
:1029E000E3682B4AD903F6D4D368DB0744BF01233D
:1029F000D360274BD86810F4F97002D0FFF75EFF60
:102A00000120234A136923F00103136100233B765D
:102A1000BDE8F88FFFF752FF002301203B76BDE8A9
:102A2000F88F002303203B76BDE8F88F1A6922F463
:102A300040721A61B9F1010F1A691AD0B9F1020F87
:102A40000DD042F440721A611A6942F001021A6113
:102A5000CAF80080CAF804B0B4E70320D1E742F412
:102A600000721A611A6942F001021A61CAF8008004
:102A7000A8E742F480721A611A691FFA88F842F0D6
:102A800001021A61AAF800809CE700BF8C2C00208C
:102A9000003C0240064B1A69002A01DB0020704707
:102AA0000449054A59605A601869C00F704700BF51
:102AB000003C024023016745AB89EFCD034A13690F
:102AC00043F0004313610020704700BF003C024008
:102AD000144B70B500220446DA61FFF78DFD124DEC
:102AE0000646631C12D1104AD368D803FCD40E4B9F
:102AF000DA68D20744BF0122DA600B4BDB6813F4BB
:102B0000F97002D0FFF7DAFE012070BDEB68D9033F
:102B1000EDD524B1FFF770FD801B8442E1D2032084
:102B200070BD00BF8C2C0020003C02402DE9F84312
:102B3000534E337E012B02D10220BDE8F8830123DE
:102B400080464CF250300F463376FFF7C1FF054602
:102B5000002840F08B804FF0FF333B60D8F8003006
:102B6000012B3FD0D8F80890D8F80C304B44994549
:102B700054D2444C2DE0022B0CBF4FF400734FF4A1
:102B80004073226922F44072226122691343236157
:102B9000236923F0F8032361236943F0020343EA26
:102BA000C9032361236943F4803323614CF250301D
:102BB000FFF78EFF236923F0FA03236100285AD11F
:102BC000D8F80C20D8F8083009F1010913444B4516
:102BD00024D998F81030002BD3D0012BCBD14FF44F
:102BE0008073CEE7274CD8F81020236923F4407374
:102BF0002361236943F0040323612369120202F471
:102C00007F4243F48033134323614CF25030FFF78B
:102C10005FFF236923F0040305462361194B1A68FB
:102C200091050FD51A6822F400721A601A6842F4EE
:102C300000621A601A6822F400621A601A6842F48C
:102C400000721A600F4B1A6852050FD51A6822F4E9
:102C500080621A601A6842F480521A601A6822F47C
:102C600080521A601A6842F480621A600023284673
:102C70003376BDE8F883C7F800900546CEE700BF7D
:102C80008C2C0020003C02402DE9F04FD1F800C010
:102C9000DFF8B881DFF8B8E183B000254FF0010913
:102CA00003E00135102D00F0838009FA05F232EAC5
:102CB0000C03F6D14C6824F01006022E7BD04FEAAC
:102CC000450A0323076803FA0AF3DB4304F0030B06
:102CD0001F400BFA0AFB013E4BEA0707012E076073
:102CE00040F28C80C7688E683B4006FA0AF6334390
:102CF000C360E300D5D500230193D8F8443043F4F2
:102D00008043C8F84430D8F8443025F0030606F173
:102D1000804603F4804306F59C36019305F00303D7
:102D2000019FD6F808A09B000F279F402AEA070BB7
:102D3000424FB84272D007F58067B84270D0404F1A
:102D4000B84270D03F4FB84272D03F4FB8420CBF2C
:102D50004FF0040A4FF0070A0AFA03F343EA0B03A1
:102D6000B360DEF80030D643E7034CBF1343334073
:102D7000CEF80030DEF80430A7034CBF13433340D5
:102D8000CEF80430DEF80830E7024CBF134333407E
:102D9000CEF80830DEF80C30A40205F1010554BF6E
:102DA00006EA03021A43102DCEF80C207FF47DAF03
:102DB00003B0BDE8F08F4FEAD50A00EB8A0A05F0B0
:102DC0000703DAF820700E699B004FF00F0B0BFA27
:102DD00003FB27EA0B0706FA03F33B43CAF820304C
:102DE0004FEA450A0323066803FA0AF3DB4304F0BB
:102DF00003071E4007FA0AF73E4306608668CF685D
:102E00001E4007FA0AF7374387604668C4F3001785
:102E100026EA0206AF403E43466063E700239DE793
:102E200009FA03F39AE74FF0020A0AFA03F395E767
:102E30004FF0030A0AFA03F390E700BF00000240D4
:102E400000080240000C024000100240003802401E
:102E5000003C01400369194214BF01200020704763
:102E600002B9090481617047044A5169014200D1E5
:102E7000704708B55061FFF74FF908BD003C0140AD
:102E8000F8B504460D46164623685869C04310F04D
:102E9000020026D05A69510511D51A6800216FF435
:102EA000806742F40072042620251A6001205F61C9
:102EB000266484F83C10216384F83D50F8BD6A1CF8
:102EC000E3D045B900232022236384F83C3084F802
:102ED0003D200320F8BDFFF78FFB801B8542D3D236
:102EE000F0E7F8BD2DE9F0410546006882B00668BC
:102EF000089C884646F480711F4616460160621C95
:102F000041D14369DB07FCD508F0FE010161631C78
:102F100014D043699B0714D443695A053FD4002C4D
:102F200000F09380FFF768FB099BC01A8442C0F051
:102F30008C802868EBE743695A0530D443699907C8
:102F4000F9D5002301934369019383690193019BA0
:102F5000621C5CD143691B0648D443695905F9D505
:102F600000236FF48064042120224461296485F8E1
:102F70003C302B6385F83D202B6C042B2FD0032095
:102F800002B0BDE8F0814369D907BDD4E4B1FFF7D1
:102F900033FB099BC01A844216D32868AFE7036845
:102FA00000226FF4806643F4007304242021036040
:102FB00046612C6485F83C202A6385F83D102B6C13
:102FC000042BDCD10120DBE7002320222B6385F8D2
:102FD0003C3085F83D20032085F83E30D0E72A6854
:102FE000136843F4007313600120C9E7012F0AD06E
:102FF000330A0361671C19D14369190603D4436975
:103000005A05ADD4F8E7F6B206610020B8E7436987
:103010001A06EBD443695905A2D4F4B1FFF7ECFAD0
:10302000099BC01A844218D3286891E743691B069C
:10303000E9D443695B0593D47CB1FFF7DDFA099BC2
:10304000C01A844209D32868D4E7002320222B63C6
:1030500085F83C3085F83D20B1E72B6C002243F029
:10306000200320212B6485F83C202A6385F83D103D
:1030700082E700BF2DE9F0430446006889460168F5
:1030800041F48061016083B001680A9E0B9D41F4A8
:103090008071174698460160711C42D14369DA0776
:1030A000FCD55FFA89F909F0FE030361721C13D0A5
:1030B00043699A0713D4436959053DD4002E00F0A3
:1030C000A880FFF799FA401B8642C0F0A2802068D2
:1030D000ECE7436959052FD443699B07F9D50023D1
:1030E00001934369019383690193019B711C63D12F
:1030F00043691A0647D443695B05F9D500236FF489
:103100008065042120224561216484F83C302363DA
:1031100084F83D20236C042B2ED0032003B0BDE89F
:10312000F0834369DB07BCD4DEB1FFF765FA401BCF
:10313000864216D32068AFE7036800226FF48066EA
:1031400043F400730425202103604661256484F85C
:103150003C20226384F83D10236C042BDDD1012038
:10316000DCE700232022236384F83C3084F83D20F0
:10317000032084F83E30D1E72268136843F40073DB
:1031800013600120CAE7B8F1010F0AD03B0A0361BE
:10319000731C2FD14369190603D443695A05ADD472
:1031A000F8E7FFB20761711C15D143691A0638D4DC
:1031B00043695B05A2D4F8E743691906E3D4436980
:1031C0005B059BD4002E4CD0FFF716FA401B8642BD
:1031D00047D320688AE743691F0622D443695F0505
:1031E0008CD4002E3DD0FFF707FA401B864238D31F
:1031F0002068D8E743691B06D3D443695A053FF5D5
:103200007DAF76B3FFF7F8F9401B864229D32068DB
:10321000BEE700232022236384F83C3084F83D205D
:103220009AE7036843F480730360711C0DD143690E
:10323000DA07FCD549F0010303612A4631462046EE
:10324000FFF71EFE002887D168E74369DB07F1D44A
:10325000002E86D0FFF7D0F9401B864281D320682C
:10326000E3E7236C002243F020032021236484F849
:103270003C20226384F83D104CE700BF704700BF3C
:1032800000286CD0F8B590F83D30044603F0FF02FA
:10329000002B4FD02268334D242384F83D3013682F
:1032A00023F00103136000F071FD2F4A6168236869
:1032B000A2FB0062920CA9425A6026D84900B0FBDA
:1032C000F1F0C0F30B01013203291A6298BF042008
:1032D000256AD4F81CE02769E1686669A269D861AB
:1032E00039434EEA0500324318609960DA60196884
:1032F000002241F00101202519601046226484F863
:103300003D50226384F83E20F8BD4FF49675174F68
:10331000A66805FB02F2A7FB0252920901321A626B
:103320006EB901EB4101B0FBF1F0C0F30B029AB9A9
:103330000120CDE780F83C20FFF7A0FFAAE701EBD2
:10334000810101EB8101B0FBF1F0C0F30B02002A17
:10335000EED040F44040BBE740F40040B8E7012025
:10336000704700BFA086010083DE1B43D34D62106F
:10337000704700BFB0B10268242310B580F83D301B
:10338000136823F0010304461360FFF7F1FF0023E5
:10339000236484F83C3084F83D301846236384F875
:1033A0003E3010BD012070472DE9F047044682B041
:1033B00098460E461746BDF82C90FFF71DF994F875
:1033C0003D30202B04D00226304602B0BDE8F08705
:1033D000054605E0FFF710F9401B192800F28B8025
:1033E00022689369DB4313F0020AF3D094F83C306F
:1033F000012BE8D013680121D80784F83C1002D4CF
:1034000013680B43136013685B4923F40063136074
:103410004FF0000A2122402384F83D2084F83E30FA
:10342000C4F840A0A4F82A90E162608D0A9B636210
:1034300031460C9E00960195434620853A4620462B
:10344000FFF750FD0646002870D12368228D002A20
:1034500029D00C9A013259D15A6912062DD45A69D1
:103460005705F9D500226FF48065042020215D61A5
:10347000206484F83C20226384F83D10236C042BE4
:1034800074D00326A0E75A69520756D45A695705E3
:10349000E8D40C9B002B5DD0FFF7AEF80C9B401BD3
:1034A000834257D323680C9A0132ECD15A695007F2
:1034B00043D45A695105D5D4F8E7606A278D421C78
:1034C000626202781A61618D013989B26185596938
:1034D0007A1E92B249072285B9D5002AE3D0821C10
:1034E000626242781A61618DBA1E013992B289B264
:1034F00022856185ABE72023C4F830A084F83CA086
:1035000084F83D30022684F83EA05DE75A69100633
:10351000D3D45A695105A5D40C9BDBB1FFF76CF8E5
:103520000C9B401B834215D3236892E7236C84F8DD
:103530003CA0042BA5D1012646E71A6800212020D3
:1035400042F400721A6084F83D0084F83C1084F85C
:103550003E1039E7236C002243F02003202123642E
:1035600084F83C20226384F83D1087E722681368C2
:1035700043F400731360DEE70000FFFF2DE9F04F16
:10358000044687B099460F469046BDF844A0129E67
:10359000FFF732F894F83D30202B04D0022738464C
:1035A00007B0BDE8F08F054604E0FFF725F8401BA3
:1035B00019283AD822689369DB4313F0020BF4D040
:1035C00094F83C30012BE9D013680121DB0784F823
:1035D0003C1002D413680B4313601368994923F419
:1035E000006313604FF0000B2222402384F83D203B
:1035F00084F83E30C4F840B0A4F82AA0E162608D9F
:10360000109B63623946019500964B4620854246E1
:103610002046FFF72FFD074690B1236C84F83CB09D
:10362000042B00F0E0800327B9E72023C4F830B072
:1036300084F83CB084F83D30022784F83EB0AEE711
:10364000228D236892B902905A6902929A69029275
:10365000029A1A6842F400721A600023202284F849
:103660003D2084F83C3084F83E3098E7012A00F091
:10367000DA80022A00F0E88005905969059199697D
:1036800005910599032A76D8012A00F0AE80022A16
:1036900046D0701C50D15A695107FCD51A68616A2E
:1036A00022F480621A601B694A1C62620B70638D8F
:1036B000228D013B9BB2013A63852285701C2268F2
:1036C00045D153695907FCD51368616A43F4007307
:1036D000136013694A1C62620B70638D218D606AEE
:1036E0002268013B9BB2638512694B1E411C2385F6
:1036F00061620270228D638D013A013B92B29BB2EE
:1037000022856385002AA8D02368BBE75A6952073F
:103710000BD42EB3FEF770FF401B864220D32368E4
:10372000701CF3D15A695107FCD51A68616A42F4DA
:1037300000721A601B69CDE75A695207AED47EB198
:10374000FEF75AFF401B86420AD32368A1E753695C
:103750005B07B9D426B1FEF74FFF401B8642ADD2BE
:1037600000232022236384F83C3084F83D20032783
:1037700084F83E3013E74EB922E05A69D20642D4AB
:10378000FEF73AFF401B864220D323685A69510650
:10379000F3D5626A1B69511C61621370618D2368E5
:1037A000228D013989B261855969013A92B249077E
:1037B0002285A7D5626A1B69511C6162137099E763
:1037C0005A695006E5D45A69D0061CD4236C2022CD
:1037D00013430021236484F83C1084F83D20236CBB
:1037E000202B3FF420AF0127D9E636B917E0FEF7CA
:1037F00003FF401B8642E9D323685A695006D9D497
:103800005A69D106F3D500226FF0100020215861CB
:10381000226484F83C20226384F83D10DFE75A6973
:103820005206D0D5C6E7196821F48061196003906B
:1038300059690391996903910399196841F40071D9
:1038400019601FE70000FFFF196821F4806119600B
:10385000196841F4006119600490596904919969EB
:10386000049104990EE700BF90F83D00704700BF37
:10387000002800F03C812DE9F0410368DD0782B0AB
:1038800004462FD5AD498A6802F00C02042A00F0E4
:1038900024818A6802F00C02082A00F01A81636809
:1038A000B3F5803F00F05E81B3F5A02F00F0E68015
:1038B000A24D2A6822F480322A602A6822F48022EB
:1038C0002A60002B40F0E380FEF796FE064605E0F6
:1038D000FEF792FE801B642800F2F7802B689B03A2
:1038E000F6D423689F0729D5944A916811F00C0FEC
:1038F00000F09180916801F00C01082900F08780A8
:10390000E368002B00F012818D4B8C4D01221A6070
:10391000FEF772FE064605E0FEF76EFE801B0228EB
:1039200000F2D3802B68854A9807F5D51368216982
:1039300023F0F80343EAC103136023681A0752D443
:10394000580730D57D4A136C13F080537ED0002683
:103950007C4D2B68D90540F1A880A368012B00F0AD
:103960000781052B00F0C580744D2A6F22F00102FB
:103970002A672A6F22F004022A67002B40F0C280D7
:10398000FEF73AFE41F28837804606E0FEF734FE45
:10399000C8EB0000B84200F298802B6F9807F5D46E
:1039A000002E40F0EB80A269CAB1644B996801F027
:1039B0000C01082936D0022A634A4FF00001116039
:1039C00000F0E2801C46FEF717FE054604E0FEF715
:1039D00013FE401B022878D823689B01F7D40020EF
:1039E00002B0BDE8F081636903B3584B534D012227
:1039F0001A60FEF701FE064604E0FEF7FDFD801B9F
:103A0000022862D86B6F9B07F7D5236898E7526846
:103A100056023FF575AF494A1268950722D5E2680C
:103A2000012A1FD0012002B0BDE8F081474A434D72
:103A30001360FEF7E1FD064604E0FEF7DDFD801BA6
:103A4000022842D86B6F9F07F7D4DEE70193136C0F
:103A500043F080531364136C03F080530193019B74
:103A6000012675E7354920690A6822F0F80242EA22
:103A7000C0020A601A077FF563AFB4E72F4B1A68DC
:103A800042F480221A601A6842F480321A60FEF70B
:103A9000B3FD2A4D064604E0FEF7AEFD801B642808
:103AA00013D82B689A03F7D51BE72B6843F4807370
:103AB0002B60FEF7A1FD07462B68DA053FF54DAFF9
:103AC000FEF79AFDC01B0228F6D9032002B0BDE81C
:103AD000F0814A6850027FF5E2AE184A12689103FD
:103AE0007FF500AF6268002A7FF4FCAE9AE7012000
:103AF0007047124B1A6F42F004021A671A6F42F0B5
:103B000001021A67FEF778FD0C4D804641F28837B6
:103B100005E0FEF771FDC8EB0000B842D5D82B6F69
:103B20009B07F6D5002E3FF43EAF27E0044A034D35
:103B30001360FEF761FD06460FE000BF003802404B
:103B4000000047420070004060004742800E47423C
:103B5000FEF752FD801B0228B7D82B689907F7D4CF
:103B60002368EBE6204A136843F4803313608EE742
:103B70001D4A136F43F001031367C3E71A4A136C1E
:103B800023F0805313640EE71D46FEF735FD06460D
:103B900004E0FEF731FD801B022896D82B68124AFC
:103BA0009901F6D4E669216A636AA06AE56A0F4C56
:103BB000314341EA8313410843EA0563013943EA8B
:103BC00001430121536021601446FEF715FD0546AF
:103BD00005E0FEF711FD401B02283FF676AF236893
:103BE0009A01F6D5FBE600BF00380240600047426C
:103BF000174908B58B6803F00C03042B1BD0082B66
:103C000017D14A684B6813F4800302F03F0214D1C5
:103C100049681048C1F38811A1FB0001FDF77AF84B
:103C20000B4B5B68C3F3014301335B00B0FBF3F064
:103C300008BD084808BD084808BD4B680648C3F3DE
:103C40008813A3FB00010023FDF764F8E8E700BF39
:103C5000003802400024F40000127A002DE9F041FF
:103C600060B1464A136803F00F038B4209D2CBB20E
:103C70001370136803F00F03994202D00120BDE8CE
:103C8000F08103689D0714D55C0704D53C4CA268FD
:103C900042F4E052A2601A0704D5394CA26842F4FB
:103CA0006042A260364D8268AC6824F0F004224382
:103CB000AA60DF0704460D4622D54368012B58D081
:103CC0009A1E012A2E4A12684DD99107D6D52C4E3C
:103CD000B26822F003021343B360FEF78DFC41F299
:103CE0008837804605E0FEF787FCC8EB0000B84245
:103CF0003CD8B368626803F00C03B3EB820FF2D1D7
:103D00001E4A136803F00F039D4206D2EBB21370F4
:103D1000136803F00F039D42B0D123685A0706D5FC
:103D20001748E268816821F4E0510A4382601B076A
:103D300007D5134A2169936823F4604343EAC1031A
:103D40009360FFF755FF0E4B0E499B680E4AC3F375
:103D50000313CB5C20FA03F30F201360FEF704FC7F
:103D60000020BDE8F0819001B1D487E70320BDE8D1
:103D7000F081034A12689603A9D47FE7003C024011
:103D80000038024070A1010844000020044B054A9D
:103D90009B680549C3F382230868D35CD840704709
:103DA0000038024080A1010844000020044B054A6D
:103DB0009B680549C3F342330868D35CD840704719
:103DC0000038024080A1010844000020F0B50368DB
:103DD00013F0050F83B005460BD12868830732D452
:103DE00010F0080003D0484B2A7C1A60002003B072
:103DF000F0BD464B464C00221A60FEF7FDFB06461E
:103E000004E0FEF7F9FB801B022819D82368404A1A
:103E10001F01F6D4AB6868683C491B0743EA80136E
:103E20000120C2F8843008601446FEF7E5FB064620
:103E300023681801D1D4FEF7DFFB801B0228F7D9D5
:103E4000032003B0F0BD324B324C002201921A6CB9
:103E500042F080521A641B6C03F080530193019B63
:103E6000236843F480732360FEF7C6FB064604E034
:103E7000FEF7C2FB801B0228E2D82368D905F7D5DC
:103E800023490B6F13F44072EB6803F4407010D0B9
:103E900082420ED00B6F204A23F44073012400208D
:103EA000146010600B670B6FDA071DD4EB6803F426
:103EB0004070B0F5407F0CD015498A6822F4F812A2
:103EC0008A6013490A6FC3F30B0313430B67286817
:103ED00086E70F48816823F0704221F4F81122F43C
:103EE00040720A438260ECE70C46FEF785FB41F224
:103EF00088360746236F9B07D8D4FEF77DFBC01B8F
:103F0000B042F7D99CE700BFE01147426800474242
:103F10000038024000700040400E4742002867D041
:103F2000F8B5437F044603F0FF02002B4AD0236814
:103F300053220220CA21607759625A62DA68550614
:103F400029D59A68616825696069A668E76822F4DE
:103F5000E00222F040029A609A681143294301432B
:103F600099601F611A6942EA06421A61DA6822F012
:103F70008002DA609A68920628D5196CA26921F449
:103F800080211964196CFF250A4301211A6400205D
:103F90005D626177F8BD4FF0FF32DA60FEF72CFB0F
:103FA00005462368DA685006CBD4FEF725FB401B94
:103FB000B0F57A7FF5D92268FF21042351620120F0
:103FC0006377F8BD0277FEF7E9F9B0E7DA6822F027
:103FD000A002DA60FEF710FB05462368DA68910656
:103FE000CBD4FEF709FB401BB0F57A7FF5D9E2E7A9
:103FF000012070472DE9F843037F012B00F08280F8
:1040000001240223047743770468002A3CD0A76880
:104010004E780B7817F0400516BFCF78CD703D0471
:104020004FEA06268F7808BF046846EA03433B43FD
:1040300043EA0507CA22532362626362E3685A06B1
:104040008846064661D507F07F3323F0FE432360A0
:10405000A168D8F80C30D8F8102021F48021A16094
:10406000A1680B431343A360E36823F08003E3607C
:10407000A3689B0664D50023FF21012261621846D4
:1040800072773377BDE8F883A6680B7816F04006A0
:1040900015BFCE78CE7036040468092B63D9002290
:1040A0000A3BDBB2092B02F10102F9D84FEA021EEA
:1040B0005FFA8EFE4A7843EA0E03092A4FEA034E5E
:1040C0004FF0000507D90A3AD2B2092A05F10105D5
:1040D000F9D82D01EDB28B782A43092B4FEA02253E
:1040E0004FF0000707D90A3BDBB2092B07F10107A4
:1040F000F9D83F01FFB24EEA06022A433B4342EAA7
:10410000030797E70220BDE8F8834FF0FF33E36031
:10411000FEF772FA81463468E36813F0400592D1E5
:10412000FEF76AFAC9EB0000B0F57A7FF3D932687E
:10413000FF2104235162012035777377BDE8F883AE
:10414000E36823F0A003E360FEF756FA07463468FD
:10415000E36813F020058ED1FEF74EFAC01BB0F5D0
:104160007A7FF4D9E3E74FF0000EA3E70368F0B5D8
:104170009D6A1C691B684D6003F07F3323F0FE438A
:10418000180CC3F30627C4F30E04DBB200F0400E94
:1041900000F03F068C6081F803E00E704F708B706A
:1041A000BAB93D091C09360906EB860605EB8505FB
:1041B00004EB840400F00F0007F00F0703F00F0377
:1041C00000EB460007EB450503EB440408704D7017
:1041D0008C700020F0BD00BFF8B5037F012B61D0CB
:1041E000012402230477437732B34A78CB788D7861
:1041F0000C78110241EA03422A4342EA443403683C
:10420000CA21532259625A62DA68510607464BD5D1
:1042100024F07F4424F0C0045C60DA6822F080025D
:10422000DA609A6892065ED50022FF20012158626A
:10423000104679773A77F8BD4B78DC064DD4CA78CA
:10424000092A4FF0000407D90A3AD2B2092A04F128
:104250000104F9D82401E4B22243092B4FEA0242B7
:104260005BD900240A3BDBB2092B04F10104F9D825
:104270002501EDB28C782B43092C4FEA03254FF032
:10428000000607D90A3CE4B2092C06F10106F9D868
:104290003601F6B20B7842EA433242EA0503344370
:1042A0001C43ACE70220F8BD4FF0FF32DA60FEF7A6
:1042B000A3F906463B68DA6812F04005A8D1FEF77C
:1042C0009BF9801BB0F57A7FF4D93A68FF2104236B
:1042D000516201203D777B77F8BD23F010030A334C
:1042E000DBB24B70ABE7DA6822F0A002DA60FEF7CF
:1042F00083F905463B68DA6812F0200494D1FEF792
:104300007BF9401BB0F57A7FF4D93A68FF2104238A
:10431000516201203C777B77F8BD0025AAE700BFFA
:1043200003685B6823F07F4323F0C003F0B4C3F35A
:104330000725DEB2C3F3423705F01F001B0C0F70D8
:104340004870CB708E70BAB9000934091A09870019
:1043500004EB840405F00F0506F00F06384402EB69
:10436000820203F00F0306EB440405EB400003EB6D
:1043700042038C704870CB700020F0BC704700BFC7
:10438000002858D0F8B590F83930044603F0FF0201
:10439000002B3BD023682949022284F839208B4224
:1043A0001A6838D0B3F1804F22D0A1F57C418B42FE
:1043B0001ED001F580618B421AD001F580618B42DD
:1043C00016D001F59A318B4216D001F580618B42EF
:1043D00012D001F580618B420ED0E06861681A60EE
:1043E000D862996201225A61002084F83920F8BD10
:1043F000A16822F070020A432169E568606822F42E
:1044000040720A431A60DD629862EBE780F8382058
:10441000FEF708F8BEE7A1682069E7686668656985
:1044200022F07002114321F4407101431960DF62F0
:104430009E621D63D6E70120704700BF0000014067
:104440000368DA6842F00102DA601A6842F0010299
:104450001A600020704700BF0368DA6822F001028A
:10446000DA60196A41F211120A4042B9196A40F23F
:1044700044420A401AB91A6822F001021A60002068
:10448000704700BF90F83830012B40D002220368FB
:1044900070B480F839209A680C6822F47F4222F0C8
:1044A00077020125402C80F838509A6073D018D9D3
:1044B000702C60D02DD9B4F5805F57D0B4F5005F73
:1044C0001CD19C688A684D68CE682A4324F47F41D9
:1044D0000A4342EA06229A609A6842F480429A604D
:1044E0000CE0102C32D038D9202C6CD0302C05D1D7
:1044F0009A6822F0700242F037029A60002301228B
:1045000080F8392080F8383070BC18467047022097
:104510007047502C5ED0602CF0D11C6A4D68CE687C
:1045200024F010041C6299691A6A21F4704122F087
:10453000A00242EA051241EA063199611A629A68BC
:1045400022F0700242F067029A60D7E79A6822F080
:10455000700242F017029A60D0E7002CCED19A6820
:1045600022F0700242F007029A60C7E79A6822F0D0
:1045700007029A60C2E79C688A684D68CE682A4341
:1045800024F47F410A4342EA06229A609A6842F084
:1045900077029A60B2E71A6A1C6A4E68CD6824F006
:1045A00001041C62996922F00A0221F0F0013243F1
:1045B00041EA051199611A629A6822F0700242F08C
:1045C00047029A609AE79A6822F0700242F0270246
:1045D0009A6093E71A6A1C6A4E68CD6824F0010459
:1045E0001C62996922F00A0221F0F001324341EA8B
:1045F000051199611A629A6822F0700242F057021E
:104600009A607BE7704700BF704700BF704700BFEC
:10461000704700BF03681A69910710B5044602D5B8
:10462000DA68920762D41A69500702D5DA6851072E
:1046300049D41A69120702D5DA68100731D41A6909
:10464000D20602D5DA68D00618D41A69D10702D585
:10465000DA68D2076BD41A69100602D5DA68110637
:104660006DD41A69520602D5DA68500657D41A6911
:10467000910602D5DA68920649D410BD6FF0100297
:104680001A61DB69082213F4407F2276204661D14B
:10469000FFF7B8FF2046FFF7B9FF00222368227614
:1046A000D3E76FF008021A61DB69042299072276CA
:1046B000204655D1FFF7A6FF2046FFF7A7FF0022AF
:1046C00023682276BBE76FF004021A619B6902221D
:1046D00013F4407F227620463FD1FFF793FF204618
:1046E000FFF794FF002223682276A2E76FF0020210
:1046F0001A619B6901229B07027628D1FFF782FF8E
:104700002046FFF783FF0022236822768BE76FF0B5
:10471000200220461A61BDE8104000F049B86FF051
:1047200040021A612046FFF773FF23689FE76FF08E
:1047300001021A612046FDF7FFFC23688BE76FF04A
:1047400080021A61204600F035F8236889E7FFF7F8
:104750005BFFD8E7FFF758FF9FE7FFF755FFC1E77B
:10476000FFF752FFABE700BF90F83830012B1DD0A8
:1047700002460220136830B482F839005C6824F0E5
:10478000700403C95C605C6820435860986820F03E
:1047900080009860986800240125014399602046B4
:1047A00082F8395082F8384030BC70470220704798
:1047B000704700BF704700BF2DE9F04706683769B2
:1047C0000546C068EC69D5F808E02A69696927F4EC
:1047D000405738433061F368A8694EEA020223F477
:1047E00016430A4323F00C0322431343F360736917
:1047F00023F440730343B4F5004F7361A34B5DD0C2
:104800009E4200F0F68003F580639E4200F0F18046
:10481000FFF7BCFA6F68DFF8788200EB800000EBEE
:104820008000BF00B0FBF7F7FFF7B0FA6C6800EB51
:10483000800000EB8000A400B0FBF4F4FFF7A6FAC0
:10484000A8FB07376B6800EB80009B0000EB800043
:10485000B0FBF3F0A8FB003040094FF0640A0AFBFC
:104860001044FFF793FA696800EB80008A0000EBC0
:104870008000B0FBF2F9FFF789FA24016A6832344C
:1048800000EB80009200A8FB043400EB8000B0FB3A
:10489000F2F0A8FB00307F09640940093F0104F0F1
:1048A000F0040AFB109212013232A8FB0223C3F378
:1048B00043131C442744B760BDE8F0879E4259D09B
:1048C00003F580639E4255D0FFF760FA6F68DFF80A
:1048D000C08100EB800000EB80007F00B0FBF7F7A9
:1048E000FFF754FA6C6800EB800000EB8000640076
:1048F000B0FBF4F4FFF74AFA6A6800EB8000A8FB0B
:10490000073700EB80005300B0FBF3F3A8FB032351
:104910005B094FF0640A0AFB1344E400FFF736FA20
:104920003234A8FB04346B687F09240900EB800053
:1049300000EB80005A003F0104F4F874B0FBF2F978
:10494000FFF724FA696800EB800000EB8000490063
:10495000B0FBF1F1A8FB013149090AFB1192D20029
:104960003232A8FB0223C3F342133B441C44B4601D
:10497000BDE8F087FFF71AFA6F68DFF8148100EBE3
:10498000800000EB80007F00B0FBF7F7FFF70EFA26
:104990006C6800EB800000EB80006400B0FBF4F476
:1049A000FFF704FA6A6800EB8000A8FB073700EB0A
:1049B00080005300B0FBF3F3A8FB03235B094FF027
:1049C000640A0AFB1344E400FFF7F0F93234A8FB51
:1049D00004346B687F09240900EB80005A003F0112
:1049E00004F4F87400EB8000B0FBF2F9FFF7DEF995
:1049F000A8E7FFF7DBF96F68DFF8948000EB800031
:104A000000EB8000BF00B0FBF7F7FFF7CFF96C6851
:104A100000EB800000EB8000A400B0FBF4F4FFF793
:104A2000C5F96A6800EB8000A8FB073700EB80003F
:104A30009300B0FBF3F3A8FB03235B094FF0640A78
:104A40000AFB13442401FFF7B1F93234A8FB043404
:104A50006B6800EB80009A0000EB8000B0FBF2F97D
:104A6000FFF7A4F9696800EB800000EB8000890083
:104A7000B0FBF1F1A8FB01317F09640949093F014D
:104A800004F0F0040AFB11920DE700BF0010014092
:104A90001F85EB51704700BF60B338B590F83930CF
:104AA000044603F0FF0203B32268242384F839305C
:104AB000D36823F40053D3602046FFF77DFE2368BC
:104AC0001A6922F490421A615A6922F02A025A6144
:104AD000DA680025202142F40052DA602846E563B6
:104AE00084F8391084F83A1038BD80F83820FFF780
:104AF000D1FFD9E701207047F0B50E4690F8391084
:104B0000202983B002D0022003B0F0BD002E2ED0A9
:104B1000002A2CD01F4690F83830012B0446F2D0E2
:104B2000002001212123E06384F8381084F8393013
:104B30000192FDF761FD019AA28405462068E28496
:104B4000E38C9BB2002B3BD0E28CA368013A92B27B
:104B5000B3F5805FE28418D07A1C3FD1026802F07E
:104B60008002002AFAD0337843600136E8E701205A
:104B7000CAE7036803F0800373B9002F3AD0FDF74A
:104B80003BFD401B8742206834D3791CF1D1026879
:104B900002F08002002AFAD033882269C3F30803A6
:104BA0004360002AE1D10236CAE7036803F04003FC
:104BB0006BB9FFB1FDF720FD401B8742206819D378
:104BC0007B1CF2D1036803F04003002BFAD02023B2
:104BD000002084F8393084F8380095E7036803F042
:104BE0008003002BBFD12FB1FDF706FD401B87428C
:104BF0002068B1D2C36823F4D073C3604369202214
:104C000023F001030021436184F83920032084F854
:104C1000381084F83A2077E7F0B590F83A40202C25
:104C200083B002D0022003B0F0BD002935D0002AA5
:104C300033D090F83830012BF4D004460127406B74
:104C4000174E84F838700025134622270A4621683B
:104C5000A262A385E56384F83A70C663114F124ED1
:104C600005650764C6640431FDF7E6FD2368019518
:104C70001A6801925A680192019ADA6884F83850E9
:104C800042F48072DA605A6942F001025A615A694C
:104C900042F0400228465A61C5E70120C3E700BF41
:104CA000B14C0008ED4C0008FD4C0008704700BFF7
:104CB00008B50368806B1B6813F4807310D1026819
:104CC000C385D36823F48073D360536923F0010351
:104CD00053615369202123F04003536180F83A1057
:104CE000FFF7E4FF08BD00BF704700BF08B5806B49
:104CF000FFF7FAFF08BD00BF704700BF806B08B523
:104D00000368596990F83920212A1BD0596990F815
:104D10003A20222A06D0C36B43F01003C363FFF787
:104D2000EBFF08BD4A06F6D50022C285DA6822F4F8
:104D30009072DA605A69202122F001025A6180F8EB
:104D40003A10E8E70906E1D50022C284DA6820219A
:104D500022F0C002DA6080F83910D7E71049114B11
:104D6000D1F8882042F4700210B4C1F888201A6883
:104D70000D4C002042F001021A6098601A6822F07F
:104D8000847222F480321A605C601A684FF000640A
:104D900022F480221A60D8608C605DF8044B704762
:104DA00000ED00E00038024010300024F0B52C4C3B
:104DB00089B02046FEF758FD38B12948FEF754FD6A
:104DC000203818BF012009B0F0BD264E0190264BB7
:104DD0002360336B254A054643F00203A560336325
:104DE000336B626003F00203019333224FF480437C
:104DF0004FF44071E26023610222042303911C48B6
:104E0000DDF804E0069203A912270793059504979D
:104E1000FDF73AFF0295336C43F400133364336CAF
:104E200003F400130293029B336A43F400133362CA
:104E3000336A23F400133362294601221F20FDF751
:104E400005FC1F20FDF73AFC2A4629462020FDF7E5
:104E5000FDFB2020FDF732FC2046FEF711FAACE7FF
:104E60008C1600200038024000540040801A0600D2
:104E700000040240F0B52C4C89B02046FEF7F4FC4B
:104E800038B12948FEF7F0FC203818BF012009B0DE
:104E9000F0BD264E0190264B2360336B254A054614
:104EA00043F00203A5603363336B626003F00203D7
:104EB000019333224FF480434FF44071E260236149
:104EC0000222042303911C48DDF804E0069203A9A2
:104ED0001227079305950497FDF7D6FE0295336CCC
:104EE00043F400133364336C03F400130293029B06
:104EF000336A43F400133362336A23F400133362DA
:104F0000294601221F20FDF7A1FB1F20FDF7D6FB3C
:104F10002A4629462020FDF799FB2020FDF7CEFBED
:104F20002046FEF7ADF9ACE78C16002000380240B1
:104F300000540040801A0600000402402DE9F041B0
:104F400088B00024244D019404940394069405949D
:104F500007942B6B214E224F43F002032B632B6BE4
:104F6000049703F002034FF00208019303A92023E2
:104F700030460393019ACDF81880FDF785FE22464E
:104F800021461720FDF762FB1720FDF797FB0294DF
:104F9000039404940694059407942B6B43EA080346
:104FA0002B632B6B049703EA0803029303A91023D6
:104FB00030460393029ACDF81880FDF765FE22462D
:104FC00021460A20FDF742FB0A20FDF777FB204629
:104FD00008B0BDE8F08100BF003802400004024084
:104FE0000000111070B586B00024114B00941A6BAC
:104FF000104D114842F002021A631B6B039403F038
:10500000020300934FF48062022301A904930192EA
:10501000009E0295FDF738FE224621462820FDF726
:1050200015FB2820FDF74AFB204606B070BD00BFE7
:105030000038024000001110000402402DE9F04742
:105040000E460178402984B00546174698462FD071
:105050002CD9B12917D12BB300244FF4805A4FF02B
:1050600001093B193219A97819480093CDF808A015
:10507000CDF80490D2B20123FEF796F90134E8B9D5
:10508000A045EED10EE0BC2912D04FF48053A97890
:105090000F480293CDF80480009732460123FEF7B3
:1050A00083F958B9002004B0BDE8F0873329ECD16A
:1050B000B8F1010FE9D946F08006E6E70448FEF7AB
:1050C00059F908B9FFF772FE012004B0BDE8F08776
:1050D0008C1600202DE9F0470E460178402984B057
:1050E0000546174698462FD02CD9B12917D12BB396
:1050F00000244FF4805A4FF001093B193219A97866
:1051000019480093CDF808A0CDF80490D2B201233D
:10511000FEF734FA0134E8B9A045EED10EE0BC291F
:1051200012D04FF48053A9780F480293CDF8048031
:10513000009732460123FEF721FA58B9002004B047
:10514000BDE8F0873329ECD1B8F1010FE9D946F079
:105150008006E6E70448FEF70DF908B9FFF726FEDA
:10516000012004B0BDE8F0878C160020F8B50025BA
:105170000F460D600646724C002800F0978001280B
:105180002FD1637E012B00F08F80FFF773FE012883
:1051900000F08A8023466B4A43F8402F4FF0330CCF
:1051A0004FF0320E04F13001674A657504F11400C6
:1051B00026766576A576E676236384F814C084F8AF
:1051C00016E0226265626563E1613860236A1B68EC
:1051D000002B00F09F809847012800F0938000206A
:1051E000F8BD6379012B2DD0FFF744FE012829D0AB
:1051F0002346564A43F8382F4FF06A0EA362D6264C
:10520000534B544A6570012004F1280125716571E2
:10521000A57184F800E0A670E071E2602361E562A8
:10522000A1603C60E3681B68002B00F08280204690
:105230009847012862D13B681D605D609D60DD601C
:105240001D613D60637E3E4D012B2DD0FFF712FEA8
:10525000012829D02B463B4A43F8402F3220002614
:10526000A87501222B634FF0330E374B85F814E0FD
:1052700005F1300105F114006E756E76AE762A7672
:10528000EA762B626E626E63E96138602B6A1B6896
:10529000002B3FD098470128A1D13B681E605E607B
:1052A0009E60DE601E613E600120F8BD6379012BC7
:1052B000FAD0FFF7DFFD0128F6D02346234A43F852
:1052C000382F4FF06A0EA362D625214B214A667013
:1052D000012004F1280126716671A67184F800E0AE
:1052E000A570E071E2602361E662A1603C60E36862
:1052F0001B68BBB1204698470128CED0FFF71EFEA1
:105300000020F8BD3B681D605D609D60DD601D6133
:105310003D60C9E70023636143608360C36003614C
:105320003B60C1E723606360A360E36023613B608F
:10533000BAE723606360A360E36023613B6081E7B9
:10534000E0160020B82C00209C010020BC2C00207E
:10535000100300208402002060B108B5C3689B6878
:1053600033B19847A0F10100B0FA80F0400908BDC0
:10537000012008BD0120704760B108B5C368DB6833
:1053800033B19847A0F10100B0FA80F0400908BDA0
:10539000012008BD0120704720B119B143790B707D
:1053A000002070470120704768B108B5C26841B15C
:1053B000936933B19847A0F10100B0FA80F0400939
:1053C00008BD012008BD0120704700BFF8B50026C8
:1053D000394C0E600F466379002833D0012B2FD053
:1053E000FFF748FD01282BD02346344A43F81C2FF1
:1053F0004FF06A0E6361D625314B324A6670012048
:1054000004F1140126716671A67184F800E0A5709C
:10541000E071E2602361A661A1603C60E3681B6803
:105420003BB12046984701283DD0FFF787FD00207B
:10543000F8BD002323606360A360E36023613B60E9
:105440000120F8BD012BFBD00546FFF713FD012815
:10545000F6D02346194A43F81C2F4FF06A0E6361B9
:10546000D626174B174A6570012004F114012571E7
:105470006571A57184F800E0A670E071E2602361B7
:10548000A561A1603C60E3681B68002BD1D0204679
:1054900098470128C9D13B681D605D609D60DD6053
:1054A0001D613D60CCE73B681E605E609E60DE6013
:1054B0001E613E60C4E700BF28170020BC2C0020FE
:1054C000D40200203402002060B108B5C3689B6894
:1054D00033B19847A0F10100B0FA80F0400908BD4F
:1054E000012008BD0120704760B108B5C368DB68C2
:1054F00033B19847A0F10100B0FA80F0400908BD2F
:10550000012008BD0120704720B119B143790B700B
:10551000002070470120704720B119B103790B704A
:10552000002070470120704768B108B5C26841B1DA
:10553000936933B19847A0F10100B0FA80F04009B7
:1055400008BD012008BD0120704700BFF8B5002646
:10555000354C0E600F46637900282FD0012B2BD0DD
:10556000FFF788FC012827D02346304A43F81C2F38
:10557000BC256361BE202E4B6670012104F114022C
:1055800026716671A6712570A070E171E3602661D5
:10559000A661A2603C60E3681B68002B3BD02046FC
:1055A0009847012801D00020F8BD3B681E605E606E
:1055B0009E60DE601E613E600120F8BD012BFBD0C5
:1055C0000546FFF757FC0128F6D02346174A43F853
:1055D0001C2FBC266361BE20154B6570012104F1B0
:1055E000140225716571A5712670A070E171E360E8
:1055F0002561A561A2603C60E3681B685BB1204641
:1056000098470128CFD13B681D605D609D60DD60DB
:105610001D613D60D0E7002323606360A360E36009
:1056200023613B60C8E700BF4C170020AC2C002072
:105630008800002060B108B5C3689B6833B1984703
:10564000A0F10100B0FA80F0400908BD012008BDBA
:105650000120704760B108B5C368DB6833B1984773
:10566000A0F10100B0FA80F0400908BD012008BD9A
:105670000120704720B119B143790B7000207047A9
:105680000120704768B108B5C26841B1936933B170
:105690009847A0F10100B0FA80F0400908BD012050
:1056A00008BD0120704700BFF8B50026354C0E60DC
:1056B0000F46637900282FD0012B2BD0FFF7DAFBA0
:1056C000012827D02346304A43F81C2F4025636128
:1056D0003C202E4B6670012104F114022671667184
:1056E000A6712570A070E171E3602661A661A260D9
:1056F0003C60E3681B68002B3BD02046984701289C
:1057000001D00020F8BD3B681E605E609E60DE60D8
:105710001E613E600120F8BD012BFBD00546FFF75E
:10572000A9FB0128F6D02346174A43F81C2F402630
:1057300063613C20154B6570012104F11402257151
:105740006571A5712670A070E171E3602561A561A6
:10575000A2603C60E3681B685BB120469847012863
:10576000CFD13B681D605D609D60DD601D613D6067
:10577000D0E7002323606360A360E36023613B60A4
:10578000C8E700BF6C170020B82C0020EC010020F7
:1057900060B108B5C3689B6833B19847A0F10100B8
:1057A000B0FA80F0400908BD012008BD0120704713
:1057B00060B108B5C368DB6833B19847A0F1010058
:1057C000B0FA80F0400908BD012008BD01207047F3
:1057D00020B119B143790B70002070470120704748
:1057E00020B119B103790B70002070470120704778
:1057F00068B108B5C26841B1936933B19847A0F167
:105800000100B0FA80F0400908BD012008BD012068
:10581000704700BFF8B50026394C0E600F4663791B
:10582000002833D0012B2FD0FFF724FB01282BD0E9
:105830002346344A43F81C2F4FF0B10E6361BA255A
:10584000314B324A6670012004F1140126716671F1
:10585000A67184F800E0A570E071E2602361A661A2
:10586000A1603C60E3681B683BB120469847012873
:105870003DD0FFF7B7FB0020F8BD00232360636035
:10588000A360E36023613B600120F8BD012BFBD0E6
:105890000546FFF7EFFA0128F6D02346194A43F8E8
:1058A0001C2F4FF0B10E6361BA26174B174A657073
:1058B000012004F1140125716571A57184F800E0DF
:1058C000A670E071E2602361A561A1603C60E368BD
:1058D0001B68002BD1D0204698470128C9D13B68CE
:1058E0001D605D609D60DD601D613D60CCE73B68D3
:1058F0001E605E609E60DE601E613E60C4E700BFA9
:105900008C170020B02C0020F80000206801002037
:1059100060B108B5C3689B6833B19847A0F1010036
:10592000B0FA80F0400908BD012008BD0120704791
:1059300060B108B5C368DB6833B19847A0F10100D6
:10594000B0FA80F0400908BD012008BD0120704771
:1059500020B119B143790B700020704701207047C6
:1059600020B119B103790B700020704701207047F6
:1059700068B108B5C26841B1936933B19847A0F1E5
:105980000100B0FA80F0400908BD012008BD0120E7
:10599000704700BFF8B500260F460E6005466C4CF8
:1059A000002800F0908001282FD1637E012B00F0A9
:1059B0008880FFF75FFA012800F083802346654A5C
:1059C00043F83C2FB12023632075634B634A226266
:1059D0004FF0BA0E04F1300104F1140063626675F1
:1059E00025766676A676E576666384F816E0E1614C
:1059F0003860236A1B68002B5CD09847012800F0B0
:105A00008980FFF7EFFA0020F8BD6379012B29D0D8
:105A1000FFF730FA012825D02346514A43F8382FA2
:105A2000BC25A362BE204F4B6670012104F1280201
:105A300026716671A6712570A070E171E360266120
:105A4000E662A2603C60E3681B68002B72D02046CF
:105A5000984701285CD13B681E605E609E60DE60F6
:105A60001E613E60637E3A4D012B2AD0FFF702FA99
:105A7000012826D02B46374A43F83C2FB121BA20C3
:105A800000262B632975A8750122334B33492962FF
:105A900005F1300E05F114006B626E756E76AE7610
:105AA0006E632A76EA76C5F81CE038602B6A1B68BC
:105AB000002BA2D10023636143608360C360036154
:105AC0003B600120F8BD6379012BFAD0FFF7D2F9D2
:105AD0000128F6D02346224A43F8382FBC26A36279
