:020000040800F2
:1000000000800120F53000080D2F00081D2F00088A
:100010004531000845310008453100080000000066
:100020000000000000000000000000004531000852
:10003000252F00080000000045310008352F00087A
:1000400045310008453100084531000845310008B8
:1000500045310008453100084531000845310008A8
:100060004531000845310008453100084531000898
:100070004531000845310008453100084531000888
:100080004531000845310008453100084531000878
:100090004531000845310008453100084531000868
:1000A0004531000845310008453100084531000858
:1000B00045310008412F000845310008453100084E
:1000C0004531000845310008453100084531000838
:1000D0004531000845310008453100084531000828
:1000E000552F00084531000845310008453100080A
:1000F0004531000845310008453100084531000808
:1001000045310008453100084531000845310008F7
:1001100045310008453100084531000845310008E7
:1001200045310008453100084531000845310008D7
:1001300045310008453100084531000845310008C7
:1001400045310008453100084531000845310008B7
:1001500045310008453100084531000845310008A7
:100160004531000845310008453100084531000897
:100170004531000845310008453100080000000005
:100180004531000845310008000000000000000073
:10019000044B05481B1A062B02D9044B03B1184720
:1001A000704700BF530400205004002000000000EE
:1001B00005490648091A891001EBD171491002D08E
:1001C000034B03B11847704750040020500400202F
:1001D0000000000010B5064C237843B9FFF7D8FFA4
:1001E000044B13B10448AFF300800123237010BD0A
:1001F0005004002000000000BC76010808B5084B40
:100200001BB108490848AFF300800848036813B9D8
:10021000BDE80840CCE7064B002BF9D09847F7E73C
:100220000000000054040020BC76010850040020A7
:1002300000000000000000000000000000000000BE
:1002400001F0FF01102A2BDB10F0070F08D010F887
:10025000013B013A8B422DD010F0070F42B3F6D18B
:10026000F0B441EA012141EA014122F007047FF0A4
:1002700000070023F0E80256083C85EA010586EAFB
:10028000010685FA47F5A3FA87F586FA47F6A5FA37
:1002900087F68EB9EED1F0BC01F0FF0102F0070243
:1002A00032B110F8013B013A83EA010313B1F8D1EE
:1002B0000020704701387047002D06BF35460338CF
:1002C000073815F0010F07D1013015F4807F02BF08
:1002D000013015F4C03F0130F0BC0138704700BF59
:1002E00081F0004102E000BF83F0004330B54FEAE7
:1002F00041044FEA430594EA050F08BF90EA020F54
:100300001FBF54EA000C55EA020C7FEA645C7FEAE6
:10031000655C00F0E2804FEA5454D4EB5555B8BF09
:100320006D420CDD2C4480EA020281EA030382EA7A
:10033000000083EA010180EA020281EA0303362D0C
:1003400088BF30BD11F0004F4FEA01314FF4801CDF
:100350004CEA113102D0404261EB410113F0004FF1
:100360004FEA03334CEA133302D0524263EB4303A8
:1003700094EA050F00F0A780A4F10104D5F1200E46
:100380000DDB02FA0EFC22FA05F2801841F10001A1
:1003900003FA0EF2801843FA05F359410EE0A5F175
:1003A00020050EF1200E012A03FA0EFC28BF4CF0A6
:1003B000020C43FA05F3C01851EBE37101F000455C
:1003C00007D54FF0000EDCF1000C7EEB00006EEB69
:1003D0000101B1F5801F1BD3B1F5001F0CD34908F3
:1003E0005FEA30004FEA3C0C04F101044FEA44524A
:1003F00012F5800F80F09A80BCF1004F08BF5FEAD1
:10040000500C50F1000041EB045141EA050130BDB0
:100410005FEA4C0C404141EB010111F4801FA4F153
:100420000104E9D191F0000F04BF01460020B1FAA8
:1004300081F308BF2033A3F10B03B3F120020CDAE0
:100440000C3208DD02F1140CC2F10C0201FA0CF0BE
:1004500021FA02F10CE002F11402D8BFC2F1200C23
:1004600001FA02F120FA0CFCDCBF41EA0C019040D9
:10047000E41AA2BF01EB0451294330BD6FEA040422
:100480001F3C1CDA0C340EDC04F11404C4F120020D
:1004900020FA04F001FA02F340EA030021FA04F31F
:1004A00045EA030130BDC4F10C04C4F1200220FA76
:1004B00002F001FA04F340EA0300294630BD21FAB4
:1004C00004F0294630BD94F0000F83F4801306BF7A
:1004D00081F480110134013D4EE77FEA645C18BF6E
:1004E0007FEA655C29D094EA050F08BF90EA020F05
:1004F00005D054EA000C04BF1946104630BD91EAFD
:10050000030F1EBF0021002030BD5FEA545C05D1FF
:100510004000494128BF41F0004130BD14F580043E
:100520003CBF01F5801130BD01F0004545F0FE41B2
:1005300041F470014FF0000030BD7FEA645C1ABFE7
:10054000194610467FEA655C1CBF0B46024650EA1E
:10055000013406BF52EA033591EA030F41F400214A
:1005600030BD00BF90F0000F04BF0021704730B5D0
:100570004FF4806404F132044FF000054FF00001A5
:1005800050E700BF90F0000F04BF0021704730B566
:100590004FF4806404F1320410F0004548BF40423B
:1005A0004FF000013EE700BF42004FEAE2014FEA90
:1005B00031014FEA02701FBF12F07F4393F07F4F6B
:1005C00081F06051704792F0000F14BF93F07F4F9D
:1005D000704730B54FF4607401F0004521F00041E0
:1005E00020E700BF50EA010208BF704730B54FF066
:1005F00000050AE050EA010208BF704730B511F06B
:10060000004502D5404261EB41014FF4806404F1A2
:1006100032045FEA915C3FF4DCAE4FF003025FEA24
:10062000DC0C18BF03325FEADC0C18BF033202EBAC
:10063000DC02C2F1200300FA03FC20FA02F001FA06
:1006400003FE40EA0E0021FA02F11444C1E600BFA5
:1006500070B54FF0FF0C4CF4E06C1CEA11541DBF58
:100660001CEA135594EA0C0F95EA0C0F00F0DEF823
:100670002C4481EA030621EA4C5123EA4C5350EA08
:10068000013518BF52EA033541F4801143F4801359
:1006900038D0A0FB02CE4FF00005E1FB02E506F0EA
:1006A0000042E0FB03E54FF00006E1FB03569CF03F
:1006B000000F18BF4EF0010EA4F1FF04B6F5007F45
:1006C00064F5407404D25FEA4E0E6D4146EB0606B7
:1006D00042EAC62141EA55514FEAC52040EA5E5040
:1006E0004FEACE2EB4F1FD0C88BFBCF5E06F1ED8EA
:1006F000BEF1004F08BF5FEA500E50F1000041EB21
:10070000045170BD06F0004646EA010140EA0200CD
:1007100081EA0301B4EB5C04C2BFD4EB0C0541EAEF
:10072000045170BD41F480114FF0000E013C00F304
:10073000AB8014F1360FDEBF002001F0004170BD28
:10074000C4F10004203C35DA0C341BDC04F1140441
:10075000C4F1200500FA05F320FA04F001FA05F2CD
:1007600040EA020001F0004221F0004110EBD3709A
:1007700021FA04F642EB06015EEA430E08BF20EAC6
:10078000D37070BDC4F10C04C4F1200500FA04F369
:1007900020FA05F001FA04F240EA020001F00041FB
:1007A00010EBD37041F100015EEA430E08BF20EA6E
:1007B000D37070BDC4F1200500FA05F24EEA020EB6
:1007C00020FA04F301FA05F243EA020321FA04F0E5
:1007D00001F0004121FA04F220EA020000EBD3709C
:1007E0005EEA430E08BF20EAD37070BD94F0000F9C
:1007F0000FD101F00046400041EB010111F4801FD0
:1008000008BF013CF7D041EA060195F0000F18BF80
:10081000704703F00046520043EB030313F4801FBC
:1008200008BF013DF7D043EA0603704794EA0C0F76
:100830000CEA135518BF95EA0C0F0CD050EA41068C
:1008400018BF52EA4306D1D181EA030101F0004109
:100850004FF0000070BD50EA410606BF1046194631
:1008600052EA430619D094EA0C0F02D150EA01363D
:1008700013D195EA0C0F05D152EA03361CBF10467E
:1008800019460AD181EA030101F0004141F0FE411D
:1008900041F470014FF0000070BD41F0FE4141F4A1
:1008A000780170BD70B54FF0FF0C4CF4E06C1CEAA1
:1008B00011541DBF1CEA135594EA0C0F95EA0C0F56
:1008C00000F0A7F8A4EB050481EA030E52EA033511
:1008D0004FEA013100F088804FEA03334FF0805532
:1008E00045EA131343EA12634FEA022245EA11155F
:1008F00045EA10654FEA00260EF000419D4208BF10
:10090000964244F1FD0404F5407402D25B084FEABC
:100910003202B61A65EB03055B084FEA32024FF468
:1009200080104FF4002CB6EB020E75EB030E22BFC5
:10093000B61A754640EA0C005B084FEA3202B6EB85
:10094000020E75EB030E22BFB61A754640EA5C0034
:100950005B084FEA3202B6EB020E75EB030E22BFC4
:10096000B61A754640EA9C005B084FEA3202B6EBC5
:10097000020E75EB030E22BFB61A754640EADC0084
:1009800055EA060E18D04FEA051545EA16754FEAE6
:1009900006164FEAC30343EA52734FEAC2025FEA04
:1009A0001C1CC0D111F4801F0BD141EA00014FF093
:1009B00000004FF0004CB6E711F4801F04BF014364
:1009C0000020B4F1FD0C88BFBCF5E06F3FF6AFAE80
:1009D000B5EB030C04BFB6EB020C5FEA500C50F110
:1009E000000041EB045170BD0EF0004E4EEA113193
:1009F00014EB5C04C2BFD4EB0C0541EA045170BD9A
:100A000041F480114FF0000E013C90E645EA060EDD
:100A10008DE60CEA135594EA0C0F08BF95EA0C0F0B
:100A20003FF43BAF94EA0C0F0AD150EA01347FF453
:100A300034AF95EA0C0F7FF425AF104619462CE72A
:100A400095EA0C0F06D152EA03353FF4FDAE10468D
:100A5000194622E750EA410618BF52EA43067FF4DE
:100A6000C5AE50EA41047FF40DAF52EA43057FF46E
:100A7000EBAE12E74FF0FF3C06E000BF4FF0010C79
:100A800002E000BF4FF0010C4DF804CD4FEA410CDD
:100A90007FEA6C5C4FEA430C18BF7FEA6C5C1BD0AA
:100AA00001B050EA410C0CBF52EA430C91EA030F2B
:100AB00002BF90EA020F0020704710F1000F91EA88
:100AC000030F58BF994208BF90422CBFD8176FEA56
:100AD000E37040F0010070474FEA410C7FEA6C5C24
:100AE00002D150EA013C07D14FEA430C7FEA6C5C2B
:100AF000D6D152EA033CD3D05DF8040B704700BF57
:100B00008446104662468C461946634600E000BFA4
:100B100001B5FFF7B7FF002848BF10F1000F01BD76
:100B20004DF808EDFFF7F4FF0CBF012000205DF841
:100B300008FB00BF4DF808EDFFF7EAFF34BF0120C6
:100B400000205DF808FB00BF4DF808EDFFF7E0FF5F
:100B500094BF012000205DF808FB00BF4DF808EDB0
:100B6000FFF7CEFF94BF012000205DF808FB00BF17
:100B70004DF808EDFFF7C4FF34BF012000205DF8F9
:100B800008FB00BF4FEA410212F5001215D211D541
:100B90006FF47873B3EB625212D94FEAC12343F07A
:100BA000004343EA505311F0004F23FA02F018BFFC
:100BB000404270474FF00000704750EA013005D1C5
:100BC00011F0004008BF6FF0004070474FF0000088
:100BD000704700BF4FEA4102B2F1E04324BFB3F5D2
:100BE000001CDCF1FE5C0DD901F0004C4FEAC002A4
:100BF0004CEA5070B2F1004F40EB830008BF20F088
:100C00000100704711F0804F21D113F13872BCBF41
:100C100001F00040704741F480114FEA5252C2F196
:100C20001802C2F1200C10FA0CF320FA02F018BFDF
:100C300040F001004FEAC1234FEAD32303FA0CFC32
:100C400040EA0C0023FA02F34FEA4303CCE77FEAC1
:100C5000625307D150EA01331EBF4FF0FE4040F40B
:100C60004000704701F0004040F0FE4040F40000BA
:100C7000704700BF7BB972B90029BEBF00204FF09A
:100C8000004106E008BF00281CBF6FF000414FF094
:100C9000FF3000F0C9B9ADF1080C6DE904CE0029B0
:100CA00009DB002B1ADB00F04DF8DDF804E0DDE98C
:100CB000022304B07047404261EB4101002B1BDB73
:100CC00000F040F8DDF804E0DDE9022304B0404222
:100CD00061EB4101524263EB43037047524263EBC5
:100CE000430300F02FF8DDF804E0DDE9022304B04F
:100CF000404261EB41017047524263EB430300F015
:100D000021F8DDF804E0DDE9022304B0524263EB90
:100D10004303704753B94AB9002908BF00281CBFD4
:100D20004FF0FF314FF0FF3000F07EB9ADF1080C0D
:100D30006DE904CE00F006F8DDF804E0DDE90223F9
:100D400004B070472DE9F0478C460E460446089DD6
:100D5000002B50D18A4217466CD9B2FA82FEBEF1FE
:100D6000000F0BD0CEF1200420FA04F401FA0EF6A5
:100D700044EA060C02FA0EF700FA0EF44FEA17499D
:100D8000220CBCFBF9F01FFA87F809FB10C642EAF7
:100D9000064600FB08F3B34209D9F61900F1FF3209
:100DA00080F02281B34240F21F8102383E44F61A9D
:100DB000A2B2B6FBF9F309FB136642EA064403FB51
:100DC00008F8A04509D9E41903F1FF3280F00A813F
:100DD000A04540F20781023B3C44C8EB040443EACF
:100DE00000400021002D62D024FA0EF400232C6074
:100DF0006B60BDE8F0878B4207D9002D55D00021EC
:100E000085E841000846BDE8F087B3FA83F1002980
:100E100040F09080B34202D3824200F2F880841AFC
:100E200066EB03060120B446002D40D085E8101083
:100E3000BDE8F08712B90127B7FBF2F7B7FA87FED2
:100E4000BEF1000F35D1F31B4FEA17481FFA87FC9C
:100E50000121B3FBF8F0220C08FB103642EA0646EB
:100E60000CFB00F3B34207D9F61900F1FF3202D2AE
:100E7000B34200F2CE801046F61AA2B2B6FBF8F3E7
:100E800008FB136642EA06440CFB03FCA44507D9A1
:100E9000E41903F1FF3202D2A44500F2B5801346F3
:100EA000CCEB040443EA00409CE729462846BDE811
:100EB000F087CEF1200106FA0EF307FA0EF720FABA
:100EC00001F94FEA1748CE4049EA0309B6FBF8FAA0
:100ED0004FEA194408FB1A661FFA87FC44EA0643E6
:100EE0000AFB0CF29A4200FA0EF40AD9DB190AF155
:100EF000FF3180F087809A4240F28480AAF1020A92
:100F00003B449B1A1FFA89F9B3FBF8F108FB113334
:100F100049EA034301FB0CF69E4207D9DB1901F1B4
:100F2000FF326BD29E4269D902393B449B1B41EA96
:100F30000A418EE7C1F1200E22FA0EF48B402343C2
:100F400020FA0EF706FA01F44FEA134C26FA0EF6D1
:100F50003C43B6FBFCF9270C0CFB19661FFA83F81F
:100F600047EA064609FB08F7B74202FA01F200FA1F
:100F700001FA08D9F61809F1FF3041D2B7423FD93A
:100F8000A9F102091E44F61BA0B2B6FBFCF40CFB4F
:100F9000146640EA064704FB08F8B84507D9FF186D
:100FA00004F1FF3028D2B84526D9023C1F4444EA58
:100FB0000940C8EB0707A0FB02894F4544464E464F
:100FC00014D329D065B3BAEB040367EB060707FA1D
:100FD0000EFECB40CF404EEA030385E88800002197
:100FE000BDE8F0871346F8E61046E0E6B8EB0204E9
:100FF00069EB03060138E5E70446D8E7114695E7B3
:101000008146C0E78A467CE7023B3C4448E7084605
:101010000AE702383E442FE7C245E7D33E46D1E710
:101020002946BDE8F08700BF704700BF80B582B099
:1010300000AF0C4B7B603B1D184600F0B9F8024630
:10104000094B1B681344084A1360074B1B68074A87
:10105000934201D9002300E0012318460837BD461A
:1010600080BD00BF00F80D08000000205FF20F08EF
:1010700090B587B000AF0346FB712A4B3B6101235B
:10108000FB7502F091FB0023FB60274A264B9B690E
:1010900043F000439361244B4CF2FA321A6100236F
:1010A000BB7533E0BB7D1B01204A1344FB60FB7919
:1010B0001B013A69D21A1E4B1B689A4221D90023A0
:1010C0007B751AE01A4B19687B7DDB00FA681344C4
:1010D000D3E900341A462346002002F0F7FA03460B
:1010E000002B05D1124B1B680833114A136001E035
:1010F00001F00AFD7B7D01337B757B7D012BE1D9FE
:1011000001E00023FB75BB7D0133BB75BA7DFB7924
:101110009A42C7D302F06AFBFB7D18461C37BD46D6
:1011200090BD00BF00F80F0800200240F019002019
:101130000000002080B586B000AF0123FB750023BE
:101140003B6000237B60174800F00AF90346BB6050
:10115000144800F0C3F80346FB6040233B6102F0F3
:1011600023FB114A104B9B6943F0004393610E4BE4
:101170004CF2FA321A613A463B1D1146184602F00B
:1011800097FC0346002B03D001F0BEFC0023FB7547
:1011900002F02CFB054B034A1A60FB7D18461837FA
:1011A000BD4680BD00F80D08002002400000002070
:1011B00090B589B000AF78604FF000034FF00004A5
:1011C000C7E9023400237B617B681B6803F5803329
:1011D00007F108010422184600F03AF8D7E9023472
:1011E000B4F1FF3F08BFB3F1FF3F08D07B681B6835
:1011F00003F580327B681A604FF480337B610023F3
:10120000FB611AE07B681A68FB69134407F1080167
:101210000422184600F01CF8D7E90234B4F1FF3F6D
:1012200008BFB3F1FF3F02D1FB69BB6109E04FF496
:101230008033BB61FB690833FB61FB69B3F5803F19
:10124000E0D3BA697B69134418462437BD4690BD84
:1012500090B486B000AFF860B9607A60FB687B61DB
:101260000BE07B69D3E90034BA68C2E900347B69DA
:1012700008337B61BB680833BB60FA687B681A443B
:101280007B699A42EDD800BF1837BD4690BC7047C5
:1012900080B584B000AF78600B46FB700023BB6064
:1012A0000023FB600FE0FB681B010B4A1344BB608B
:1012B0001022B9687868FFF7CBFF7B6810337B603A
:1012C000FB680133FB60FA78FB689A42EBD800BFF9
:1012D0001037BD4680BD00BFF019002080B485B036
:1012E00000AF78600023FB601A4B1B884FF6FF723B
:1012F000934209D0174B1B889B025B101A46164B72
:10130000134003F1006300E0144B7A68934205D95F
:101310007B6803F17843DB0AFB6014E00D4B1B880C
:101320004FF6FF72934209D00A4B1B889B025B1059
:101330001A46094B134003F1006300E0074B7A683B
:10134000D31ADB0AFB60FB6818461437BD465DF80C
:10135000047B7047E075FF1F00FE1F0000000808B7
:1013600080B485B000AF78600023FB601F4B1B6822
:1013700003F48073002B19D11D4B1B884FF6FF72AD
:10138000934209D01A4B1B889B025B101A46194BDB
:10139000134003F1006300E0174B7A68934202D9CF
:1013A0000123FB601BE00223FB6018E0104B1B884D
:1013B0004FF6FF72934209D00D4B1B889B025B10C6
:1013C0001A460C4B134003F1006300E00A4B7A68A5
:1013D000934202D90223FB6001E00123FB60FB681A
:1013E00018461437BD465DF8047B70470000014085
:1013F000E075FF1F00FE1F000000080880B483B0E6
:1014000000AF78607B685A797B681A717B683222FA
:101410005A717B689B79803BDAB27B689A7100BF16
:101420000C37BD465DF8047B704700BF80B483B0C5
:1014300000AF7860094B1B78DAB27B681A717B6861
:1014400032225A717B6808229A717B6803221A60E3
:1014500000BF0C37BD465DF8047B704704000020D8
:1014600080B586B000AF78600023FB817B681B6885
:10147000012B01D800232CE27B681B79322B01D091
:10148000002326E27B689B790C2B00F089810C2BD2
:1014900010DC052B00F0BE81052B04DC012B19D0DC
:1014A000022B36D014E2082B00F0DF80092B00F06D
:1014B00042810DE2622B76D0622B04DC0E2B1AD017
:1014C000602B4BD004E2762B00F085807A2B00F065
:1014D000A780FDE17B681B68032B01D00023F8E1A6
:1014E0007868FFF78BFF7B6803221A60786800F04A
:1014F00001FB0123EDE17B681B68032B01D0002376
:10150000E7E17868FFF77AFF7B6803221A6001231E
:10151000DFE17B681B68032B01D00023D9E17868E9
:10152000FFF76CFF00237B610CE07B6903339F496D
:101530007A690A4411787A6813440A461A717B69F9
:1015400001337B617B69262BEFD97B69DA1C7B68D1
:101550001A60786800F0CEFA0123BAE17B681B6854
:10156000022B01D80023B4E17868FFF747FF904BC6
:101570001B6807F10D021146184607F089FD7B7BB9
:10158000002B00D00AE07B680733042203211846B1
:1015900001F0F8FB7B6807221A6000BF786800F052
:1015A000A9FA012395E17B681B68022B01D800236F
:1015B0008FE17868FFF722FF7B680733042201215F
:1015C000184601F0DFFB7B6807221A60786800F09C
:1015D00091FA01237DE17B681B68022B01D800236F
:1015E00077E17868FFF70AFF724B1B6807F10D027D
:1015F0001146184607F08CF97B7B002B00D00AE0DF
:101600007B68073304220321184601F0BBFB7B688B
:1016100007221A6000BF786800F06CFA012358E1D5
:101620007B681B68022B01D8002352E17868FFF722
:10163000E5FE614B1B6807F10D021146184607F0E5
:10164000DBFB7B7B002B00D00AE07B6807330422A6
:101650000221184601F096FB7B6807221A6000BF42
:10166000786800F047FA012333E17B681B68022B9E
:1016700001D800232DE17B6807330421184601F0CF
:101680005BFB02464D4B1A604C4B1B6803F0010399
:10169000002B04D0464B1B68184607F095FC474BBF
:1016A0001B6803F00203002B04D0454B1B6818464F
:1016B00007F062FE414B1B6803F00403002B04D0CB
:1016C000404B1B68184607F007FA3C4B1B6803F0B9
:1016D0001003002B04D03C4B1B68184606F018FF83
:1016E000364B1B6803F02003002B04D0314B1B68E2
:1016F000184607F0A9F8314B1B6803F04003002B94
:1017000004D02D4B1B68184607F012FB2F4805F03C
:1017100099F82F4B01221A707B685A792D4B1A7059
:101720007868FFF76BFE7B6803221A60786800F028
:10173000E1F90123CDE07B681B68022B01D800236F
:10174000C7E0234B00221A70204805F097F8184B89
:101750001B68184607F05CFC194B1B68184607F01D
:101760002FFE184B1B68184607F0DAF9164B1B685A
:10177000184606F0F1FE0F4B1B68184607F088F874
:101780000D4B1B68184607F0F7FA0C4B00221A6045
:101790007868FFF733FE786800F0ACF9012398E031
:1017A0007B681B68022B17D8002392E008000020FA
:1017B0008C0400207C0400208004002070040020A1
:1017C0008804002084040020780400208024002065
:1017D0006E040020040000207868FFF70FFE7B688D
:1017E00003221A607B68D8797B68197A7B685B7AF8
:1017F0001A4601F05FF97B68987A7B68D97A7B6832
:101800001A7B7B685B7B01F02BF9786800F072F93A
:1018100001235EE07B681B68022B01D8002358E09F
:101820002E4B1A682E4B13443B617B6804221A60CE
:101830003B691B0EDAB27B681A713B691B0CDAB28A
:101840007B685A713B691B0ADAB27B689A713B6903
:10185000DAB27B68DA717B68191D41F288330422A1
:10186000204805F055FC204B3B6125E004213869F8
:10187000FFF70EFD7B68043340221C49184615F023
:1018800015F8164B1A68FB89D21A154B1344402BD6
:1018900028BF40237B61FB894033FB817B699AB27F
:1018A00041F2883311490F4805F032FC0A2001F05B
:1018B00097FC3B6940333B61084B1B683A699A428D
:1018C000D4D3FFF737FC002007F030FE012300E0FF
:1018D000002318461837BD4680BD00BF0000002019
:1018E0000008F2F7C01F002000F80D08F0190020D2
:1018F00080B584B000AF786011F014FA07F10F03DF
:101900001946786806F068FE6E233B7377237B7375
:101910007523BB7300BF07F10C03184611F026FABC
:1019200000BF1037BD4680BD80B582B000AF786083
:1019300011F03EF911F0F0F911F0E8F900BF0837A5
:10194000BD4680BD80B582B000AF7860396039682F
:10195000786811F053F900BF0837BD4680BD00BF5D
:1019600080B582B000AF78603960786811F0A8F96E
:1019700003461A463B681A6000BF0837BD4680BD63
:1019800080B588B000AF78600023FB8200237B75B0
:10199000544800F0ABF90346002B40F09E805148BC
:1019A00000F0AEFA03469BB2C3F500737B824E4B48
:1019B0009B887A8A9A4205D34B4B9B887A8AD31AA2
:1019C0003B8307E0484B9B887A8AD31A9BB203F586
:1019D00000733B83444B9B88BB8300237B8371E074
:1019E000BB8B424AD35C7B74BB8B0133BB83BB8B09
:1019F000B3F5007F01D30023BB837B7CF02B5ED14A
:101A0000394B9B88BB830023FB8339E0BB8B5A1C7B
:101A1000374B1340002B05DA013B6FEAC3536FEAE3
:101A2000D3530133FB81BB8B304AD35C7B73FB897F
:101A30002E4AD35C3B73FB8A7A6813440433BB6041
:101A4000397B7B7BBA68184601F0FAF803467B7550
:101A50007B7D002B04D1244AFB89938000233DE049
:101A60007B7D9AB2BB8B13449BB2C3F30803BB8349
:101A7000FB8A0133FB827B7D9AB2FB8B1344FB8391
:101A8000FA8B7B8B9A42C1D3FA8A7B681A60BB8B34
:101A90005A1C174B1340002B05DA013B6FEAC35366
:101AA0006FEAD3530133BB830F4ABB8B93807868B3
:101AB00001F018F90346002B01D001230EE07B8BC7
:101AC00001337B837A8B3B8B9A4289D33B8BB3F573
:101AD000807F02D9044A7B8A9380002318462037EE
:101AE000BD4680BD701F0020B81F00208020002050
:101AF000FF01008080B584B000AF7860786801F0A5
:101B0000C7F87968074801F06DF80346FB81FA8948
:101B100041F288330349044805F0FAFA00BF103750
:101B2000BD4680BD80220020C01F002080B500AFD0
:101B3000064800F0F3F9054801F07CFC044B034A29
:101B4000DA66024B024A9A6200BF80BD701F002015
:101B5000C01F002080B58AB000AF414A404BDB6C0B
:101B600043F00103D3643E4BDB6C03F001033B61A4
:101B70003B693B4A3A4BDB6C43F00103D364384B7F
:101B8000DB6C03F00103FB60FB68354A344B9B6D53
:101B900043F400339365324B9B6D03F40033BB6019
:101BA000BB682F4A2E4B9B6C43F0010393642C4B74
:101BB0009B6C03F001037B607B6804237B61022341
:101BC000BB610023FB6102233B6207237B6207F1B9
:101BD000140319464FF0904002F0BEF808237B61D1
:101BE00007237B6207F1140319464FF0904002F07F
:101BF000B3F81C4B1C4A1A601C4B1B68194A5360F3
:101C0000184B00229A60174B0022DA60154B002215
:101C10001A61144B00229A61124B0C225A6111482E
:101C200005F01AFA0346002B02D000F06DFFFEE724
:101C3000FFF77CFF0B4B0E4A5A650A4B4FF40072BC
:101C4000A3F85820074B00225A674FF40072084946
:101C5000044805F0EBFA00BF2837BD4680BD00BF41
:101C600000100240C01F002000440040300000204F
:101C70008020002080B596B000AF10233B60012388
:101C8000BB6160233B620023FB610223BB62012333
:101C9000FB6201233B6328237B6302233B6407230E
:101CA000BB630423FB633B46184602F0C9FF0346AF
:101CB000002B01D000F028FF0F237B640323BB64BB
:101CC0000023FB6400233B6500237B6507F144038D
:101CD0000421184603F016FB0346002B01D000F048
:101CE00013FF00BF5837BD4680BD00BF80B483B02E
:101CF00000AF78607B681B681A46724B9A426DD9B8
:101D0000714B1A687B681B681946704B994262D008
:101D10007B681B6819466E4B99425AD07B681B68DA
:101D200019466C4B994252D07B681B6819466A4B26
:101D300099424AD07B681B681946684B994241D04A
:101D40007B681B681946664B994238D07B681B68D4
:101D50001946644B99422FD07B681B681946624B29
:101D6000994226D07B681B681946604B99421DD06A
:101D70007B681B6819465E4B994214D07B681B68D0
:101D800019465C4B99420BD07B681B6819465A4B2D
:101D9000994202D14FF400031EE04FF000631BE0B4
:101DA0004FF4000318E04FF4002315E04FF4002334
:101DB00012E04FF400430FE04FF400430CE04FF407
:101DC000006309E04FF4006306E0802304E0802311
:101DD00002E0082300E0082313406CE0474B1A6838
:101DE0007B681B681946394B994262D07B681B6837
:101DF0001946374B99425AD07B681B681946354BB8
:101E0000994252D07B681B681946334B99424AD09D
:101E10007B681B681946314B994241D07B681B682F
:101E200019462F4B994238D07B681B6819462D4BB9
:101E300099422FD07B681B6819462B4B994226D0BC
:101E40007B681B681946294B99421DD07B681B682B
:101E50001946274B994214D07B681B681946254BBD
:101E600099420BD07B681B681946234B994202D1DB
:101E70004FF400031EE04FF000631BE04FF400033B
:101E800018E04FF4002315E04FF4002312E04FF464
:101E900000430FE04FF400430CE04FF4006309E00F
:101EA0004FF4006306E0802304E0802302E008236F
:101EB00000E00823134018460C37BD465DF8047B4C
:101EC000704700BF8000024000040240080002404A
:101ED000080402401C0002401C0402403000024082
:101EE00030040240440002404404024058000240D2
:101EF000580402406C0002406C04024000000240A2
:101F000080B483B000AF78607B681B685B6818465C
:101F10000C37BD465DF8047B704700BF80B483B0CA
:101F200000AF78607B68104A1A607B6800229A6074
:101F30007B680022DA607B6880221A617B6800225D
:101F40005A617B6800229A617B682022DA617B6893
:101F50004FF440521A627B6802225A6000BF0C376D
:101F6000BD465DF8047B70476C00024080B58CB0C4
:101F700000AF01F0E9F8FFF77DFE00220E214FF0DF
:101F8000FF3001F021FA00F039F900F043F900F0D8
:101F9000F7F86F4B1B681846FFF7C6FC6C4B1B68C5
:101FA0001846FFF7A5FC3A1D07F10803114618462D
:101FB000FFF7D6FCFFF7CEFD00F0D0FC00F01CFDD3
:101FC00000F040F9FFF732F803461A46614B1A70E9
:101FD000604B1B78002B03D1002007F093FA09E037
:101FE000002007F08FFA4FF4FA7001F0F9F80020A2
:101FF00007F09CFA5848FFF7C3FC0346002B0AD0B1
:10200000554B1B79322B06D1544B1B78002B02D138
:102010005148FFF725FA524B1B78DBB2002B21D039
:102020004F4B00221A70002007F080FAFFF782F869
:102030000023FB6210E0002007F08CFA4FF4FA70E6
:1020400001F0CEF8002007F085FA4FF47A7001F025
:10205000C7F8FB6A0133FB62FB6A022BEBDD3D4BE9
:1020600001221A703F4B1B78DBB2002B18D03D4B7E
:1020700000221A703C4804F001FC354B1B681846DE
:1020800006F06AFA394B1B6823F01003374A1360D5
:10209000374B1B781846FEF7EBFF304B00221A70C7
:1020A000344B1B78DBB2002B16D0324B00221A7057
:1020B000314B01221A70264B1B68184606F028FA8D
:1020C0002A4B1B6843F01003284A1360264804F08B
:1020D000B9FB224B01221A70284B1B78DBB2002B74
:1020E00088D0264B00221A701C4B1B78002B02D084
:1020F000012B22D028E0184800F0D4F8164800F050
:1021000033F9154800F076F9134800F0B3F9124896
:1021100000F054FA104800F01FFA0F4800F0EAF9F6
:102120000D4800F07DFA0C48FFF780F90A4B432276
:102130001A600948FFF7DEFC08E0074800F014F9D0
:10214000054800F06DFA01E000F0DEFC52E700BF48
:102150007804002034000020C02400206D040020FA
:102160006C040020910400208024002070040020D2
:102170009404002092040020930400209004002086
:1021800080B500AF16494FF0FF3006F095F8144BBC
:102190001B689FED140A184606F066FA104B1B6880
:1021A000B2EE000A184606F087FA0F494FF0FF30EA
:1021B00006F0AAFA0D494FF0FF3006F01DFD0C495C
:1021C0004FF0FF3006F0ACFF0A494FF0FF3006F049
:1021D000E7FB09494FF0FF3006F056FE00BF80BD17
:1021E00078040020000048427C0400208004002085
:1021F00088040020840400208C04002080B500AFF7
:10220000002007F049F90121002007F0B7F900BFCD
:1022100080BD00BF80B483B000AF094A084B9B6CFF
:1022200043F480539364064B9B6C03F480537B60B0
:102230007B6800BF0C37BD465DF8047B704700BF6C
:102240000010024080B588B000AF144B144A1A60E9
:10225000124B49F63F425A60104B00229A600F4BD6
:102260002722DA600D4B00221A610C4804F0BEFAF6
:102270004FF480533B6107F110031946074804F0FF
:1022800031FC00237B600023FB603B1D19460348A3
:1022900004F07AFE00BF2037BD4680BD80240020B8
:1022A0000004004080B58AB000AF7860002387F852
:1022B000273007F10C0300221946144804F09AF85D
:1022C00007F1200300221946104804F0AFF9104B23
:1022D0001B683A699B1A642202FB03F20C4B1B68D1
:1022E000013392FBF3F387F827303A7B7B68DA718E
:1022F0007A7B7B681A72BA7B7B685A727B6897F824
:1023000027209A7200BF2837BD4680BD9804002060
:10231000BC04002080B588B000AF786007F10803E6
:10232000002219460F4804F065F807F11C0300224B
:1023300019460C4804F07AF97A7F7B681A70BA7FE4
:102340007B685A70FA7F7B689A703A7A7B68DA7099
:102350007A7A7B681A71BA7A7B685A7100BF203723
:10236000BD4680BD9804002080B584B000AF786081
:102370000023FB731C4B1B6803F01003002B2ED0B3
:102380001A4B1B6807F10F021146184606F008F9B0
:102390000346002B23D1FB7B012B20D1134B1B6861
:1023A0001349184606F034F97B6803F11700104B07
:1023B0001B680422194600F0E5FC7B6803F11B0052
:1023C0000B4B5B680422194600F0DCFC7B6803F1D0
:1023D0001F00074B9B680422194600F0D3FC00BF86
:1023E0001037BD4680BD00BF700400207804002077
:1023F000C425002080B586B000AF78600023FB754F
:102400001A4B1B6803F02003002B2AD0184B1B68C3
:1024100007F117021146184606F05EFA0346002B34
:102420001FD1FB7D012B1CD1114B1B6807F108024A
:102430001146184606F088FA7B682333B9680422EF
:10244000184600F09FFC7B682733F9680422184681
:1024500000F098FC7B682B3339690422184600F0A1
:1024600091FC00BF1837BD4680BD00BF700400203E
:102470007C04002080B586B000AF78600023FB7537
:102480001A4B1B6803F04003002B2AD0184B1B6823
:1024900007F117021146184606F092FC0346002B7E
:1024A0001FD1FB7D012B1CD1114B1B6807F10802CA
:1024B0001146184606F0BCFC7B682F33B96804222D
:1024C000184600F05FFC7B683333F9680422184635
:1024D00000F058FC7B68373339690422184600F055
:1024E00051FC00BF1837BD4680BD00BF70040020FE
:1024F0008004002080B584B000AF78600023FB73B7
:10250000134B1B6803F00103002B1DD0114B1B68FC
:1025100007F10F021146184606F09EFD0346002BF8
:1025200012D1FB7B012B0FD10A4B1B6807F108026C
:102530001146184606F0C8FD7B680B3307F1080109
:102540000422184614F0B2F900BF1037BD4680BD12
:10255000700400208C04002080B584B000AF786047
:102560000023FB73134B1B6803F00203002B1DD0E9
:10257000114B1B6807F10F021146184606F044FF85
:102580000346002B12D1FB7B012B0FD10A4B1B689A
:1025900007F108021146184606F052FF7B680F3318
:1025A00007F108010422184614F080F900BF103723
:1025B000BD4680BD700400208804002080B584B032
:1025C00000AF78600023FB73134B1B6803F0040318
:1025D000002B1DD0114B1B6807F10F021146184646
:1025E00006F0C2FA0346002B12D1FB7B012B0FD160
:1025F0000A4B1B6807F108021146184606F0D0FA8C
:102600007B68133307F108010422184614F04EF9D1
:1026100000BF1037BD4680BD700400208404002038
:1026200080B58AB000AF786007F1180300221A6005
:102630005A609A60DA604FF00003FB604FF00003CD
:102640003B614FF000037B616C4B1B6803F0100390
:10265000002B00F073816A4B1B6807EE903AB8EECE
:10266000E77ADFED686AC7EE267AC7ED037AFB6882
:10267000BB61634B5B6807EE903AB8EEE77ADFED3B
:10268000616AC7EE267AC7ED047A3B69FB615C4B51
:102690009B6807EE903AB8EEE77ADFED5A6AC7EE2C
:1026A000267AC7ED057A7B693B62574B1B7801336D
:1026B000DAB2554B1A70544B1B78032B1DD107F11E
:1026C0000C035249184610F0DDFB504B1B78043BBD
:1026D0004F4A13604E4B1B68002B03DB4C4B1B68AF
:1026E000032B02DD4A4B00221A60494B1B68DBB208
:1026F00087F82430444B00221A70002006F002FFB5
:1027000007F1180343491846FFF71CF9002006F0AB
:102710000DFF414B1B78002B1BD17B6803F13B0065
:102720003C4B1B780422194600F02CFB7B6803F11C
:102730003F00384B5B680422194600F023FB7B689E
:1027400003F14300334B1B7A0422194600F01AFBB5
:10275000F4E0314B1B78012B40F0EE802F4B1B78BF
:10276000012B65D12D4B00221A702D4B00221A60CF
:102770002C4B00221A702B4B1B781B012A4A134446
:102780001846FFF7C7FD274B1B78274A1B01134448
:10279000063300221A70234B1B781846234B1978F6
:1027A000214A0301134407330A461A701D4B1B7854
:1027B00018461E4B5A681C4903010B4408331A6023
:1027C000184B1B781846194B197A174A0301134402
:1027D0000C330A461A70134B1B780133DAB2114BD3
:1027E0001A700C4B1A78114B1A700A4B5B680F4A1F
:1027F0005360084B1A7A0D4B1A729FE07004002048
:10280000C425002000007A44C0040020C404002035
:10281000F0040020F40400206D0400209304002044
:102820000005002094040020F01900200405002079
:10283000444B1B78572B0DD9424B1B781846FEF79B
:1028400017FC0346002B02D13F4B01221A703D4B6F
:1028500000221A703D4B1A783D4B1B789A420BD1DF
:102860003A4B5A683A4B5B689A4205D1374B1A7A11
:10287000374B1B7A9A4241D0324B1B781B01354AA9
:1028800013441846FFF746FD2E4B1B78314A1B01B7
:102890001344063301221A702A4B1B7818462B4B1F
:1028A00019782C4A0301134407330A461A70254B42
:1028B0001B781846254B5A68264903010B440833F8
:1028C0001A60204B1B781846204B197A214A0301C5
:1028D00013440C330A461A701A4B1B780133DAB2D0
:1028E000184B1A70194B1A78194B1A70174B5B68F2
:1028F000174A5360154B1A7A154B1A72164B1B6800
:1029000043F69722934211D90E4B1B781846FEF7D7
:10291000AFFB0346002B02D10B4B01221A700E4B6A
:1029200000221A60074B00221A7007E00A4B1B684E
:102930000133094A136001E000F0E6F82837BD468C
:1029400080BD00BF9404002091040020F404002006
:1029500004050020F01900200005002080B592B089
:1029600000AF0C237B600023FB620123FB6000238C
:10297000BB613B1D184602F063F90346002B0CD0E7
:10298000194B01221A60194B7F229A60174BF922CA
:10299000DA60174BF9221A600BE0134B00221A6021
:1029A000124B7F229A60114BFF22DA60104BFF22FC
:1029B0001A600E4B0F4A1A600C4B40225A600B4BA8
:1029C00000221A61094B00229A61084B0022DA6149
:1029D000064803F0A7FB0346002B01D000F094F853
:1029E00000BF4837BD4680BD740400209804002015
:1029F000BC0400200028004080B586B000AF012351
:102A0000FB7501237B750123BB7501233B7507F122
:102A1000140301221946114803F04AFD0346002B16
:102A200001D000F071F800233B7000237B7000237D
:102A3000BB700023FB700023FB6000233B613B461F
:102A400001221946054803F007FC0346002B01D07C
:102A500000F05AF800BF1837BD4680BD980400202A
:102A600090B585B000AF0446084611461A46234685
:102A7000FB710346BB710B467B7113463B71FB79BF
:102A8000FB73BB797B737B79BB733B793B7307F13A
:102A90000C0300221946064803F00AFD0346002BEA
:102AA00001D000F031F800BF1437BD4690BD00BF23
:102AB0009804002080B588B000AF0346FB710B4638
:102AC000BB7113467B710023FB73FB793B73BB79AE
:102AD0007B737B79BB7300233B610023BB610023C5
:102AE000FB6107F10C0300221946064803F0B4FB12
:102AF0000346002B01D000F007F800BF2037BD4689
:102B000080BD00BF9804002080B400AFFEE700BF86
:102B100080B582B000AF0346FB80FB88B3F5005F51
:102B200017D1002006F08EFD0346002B11D10B4B70
:102B30001B78002B03D10A4B01221A7009E0074BC6
:102B40001B78012B03D1074B01221A7001E0FFF71C
:102B5000DBFF00BF0837BD4680BD00BF6D0400200D
:102B6000920400209104002080B483B000AF78600C
:102B70007B681B68054A934202D1054B01221A70FB
:102B800000BF0C37BD465DF8047B70470004004071
:102B90009004002080B483B000AF78600B46FB70D7
:102BA000FB78F02B02D0F12B09D011E07B68F122E9
:102BB0001A707B680133F2221A7002230CE07B68E2
:102BC000F1221A707B680133F1221A70022303E0AC
:102BD0007B68FA781A70012318460C37BD465DF8F9
:102BE000047B704780B584B000AF78603960002303
:102BF000BB600023FB6011E0BB687A68D0183A68BC
:102C0000FB68134404331B781946FFF7C3FF0246E1
:102C1000BB681344BB60FB680133FB603B681A6808
:102C2000FB689A42E8D8BB687A681344F0221A70AD
:102C3000BB680133BB60BB6818461037BD4680BD1A
:102C400080B483B000AF03463A60FB710B46BB71A2
:102C5000FB79F12B11D1BB79F12B04D13B68F12227
:102C60001A7002230DE0BB79F22B04D13B68F022ED
:102C70001A70022305E0002303E03B68FA791A701A
:102C8000012318460C37BD465DF8047B704700BF32
:102C900080B485B000AF78600023FB730023BB6075
:102CA0000AE07A68BB68134404331B78FA7BD31AB2
:102CB000FB73BB680133BB607B681A68BB689A42D0
:102CC000EFD87A68BB6813440433FA7B1A707B68C8
:102CD0001B685A1C7B681A6000BF1437BD465DF83C
:102CE000047B704780B485B000AF78600023FB732D
:102CF0000023BB600AE07A68BB68134404331A7887
:102D0000FB7B1344FB73BB680133BB607B681A68B1
:102D1000BB689A42EFD87B681B685A1E7B681A60B2
:102D2000FB7B002B0CBF01230023DBB218461437BA
:102D3000BD465DF8047B704780B485B000AF786015
:102D400039603B68013B3B607A683B6813441B7801
:102D5000FB600DE0FB681B02FB603B68013B3B60D6
:102D60007A683B6813441B781A46FB681344FB607F
:102D70003B68002BEED1FB6818461437BD465DF862
:102D8000047B704780B487B000AFF860B9607A60A8
:102D900000237B610BE07B69FA681344BA68D2B206
:102DA0001A70BB681B12BB607B6901337B617A6957
:102DB0007B689A42EFD300BF1C37BD465DF8047BA9
:102DC000704700BF80B5B6B000AF78603A4A3A4B62
:102DD0009B6D43F080539365374B9B6D03F080539D
:102DE000BB60BB6801F00EFF344B1B68002B27D182
:102DF0000C23C7F894300023C7F8BC300123C7F870
:102E00009C300023C7F8A83007F19403184601F05E
:102E100017FF0346002B01D0FFF776FE4FF4003377
:102E2000FB604FF48073C7F8903007F10C0318462D
:102E300002F0C6FC0346002B29D0FFF765FE26E012
:102E40000C23C7F894300023C7F8BC300123C7F81F
:102E5000A8300023C7F89C3007F19403184601F00E
:102E6000EFFE0346002B01D0FFF74EFE4FF4003378
:102E7000FB604FF40073C7F8903007F10C0318465D
:102E800002F09EFC0346002B01D0FFF73DFE0A4AEC
:102E9000094BD3F8903043F40043C2F8903000223D
:102EA0000F21292000F090FA292000F0A9FA00BF94
:102EB000D837BD4680BD00BF00100240740400201A
:102EC00080B584B000AF78607B681B680D4A934280
:102ED00013D10D4A0C4B9B6D43F0020393650A4BD3
:102EE0009B6D03F00203FB60FB6800220F211D2095
:102EF00000F06AFA1D2000F083FA00BF1037BD46CB
:102F000080BD00BF000400400010024080B400AF4C
:102F100000BFBD465DF8047B704700BF80B400AFC2
:102F2000FEE700BF80B400AF00BFBD465DF8047B84
:102F3000704700BF80B500AF00F038F900BF80BD1A
:102F400080B500AF024803F0C5FC00BF80BD00BFE4
:102F50008024002080B500AF144B5B6903F400535C
:102F6000002B22D0124B1B78002B04D00F4B4FF4B8
:102F700000525A6119E00F4B1B78002B11D140F61B
:102F8000AC5000F02DF9002006F05CFB0346002B4E
:102F900002D1094B01221A70044B4FF400525A61BE
:102FA00003E04FF4005001F0C5F880BD000401407B
:102FB0006E040020340000206C04002090B587B01F
:102FC00000AFF860B9607A6000237B610AE0BC68FA
:102FD000631CBB60AFF300800346DBB223707B69E8
:102FE00001337B617A697B689A42F0DB7B68184623
:102FF0001C37BD4690BD00BF80B586B000AFF860FD
:10300000B9607A6000237B6109E0BB685A1CBA6032
:103010001B781846AFF300807B6901337B617A69C6
:103020007B689A42F1DB7B6818461837BD4680BD45
:1030300080B584B000AF7860114B1B68002B02D1C3
:103040000F4B104A1A600E4B1B68FB600C4B1A6842
:103050007B6813446A46934207D913F0FBFB024690
:103060000C2313604FF0FF3306E0054B1A687B68B2
:103070001344034A1360FB6818461037BD4680BDF1
:10308000140500200C26002080B483B000AF7860C7
:103090004FF0FF3318460C37BD465DF8047B704790
:1030A00080B483B000AF786039603B684FF4005261
:1030B0005A60002318460C37BD465DF8047B704704
:1030C00080B483B000AF7860012318460C37BD464A
:1030D0005DF8047B704700BF80B485B000AFF86036
:1030E000B9607A60002318461437BD465DF8047B4A
:1030F000704700BFDFF834D0002103E00C4B5B5871
:10310000435004310B480C4B42189A42F6D30B4AF9
:1031100002E0002342F8043B094B9A42F9D304F041
:1031200043FE13F09DFBFEF721FFFEE70080012028
:1031300028790108000000205004002050040020DD
:103140000C260020FEE7000080B500AF032000F051
:103150002FF90F2000F00EF800F004F800231846B5
:1031600080BD00BF80B400AF00BFBD465DF8047BEA
:10317000704700BF80B582B000AF7860094B1B6814
:10318000094AA2FB03239B09184600F047F90022D5
:1031900079684FF0FF3000F017F900231846083720
:1031A000BD4680BD38000020D34D621080B400AF12
:1031B000044B1B680133034A136000BFBD465DF832
:1031C000047B7047D025002080B400AF034B1B6800
:1031D0001846BD465DF8047B704700BFD02500202F
:1031E00080B584B000AF7860FFF7EEFFB8607B6811
:1031F000FB60FB68B3F1FF3F02D0FB680133FB606B
:1032000000BFFFF7E1FF0246BB68D21AFB689A4293
:10321000F7D300BF1037BD4680BD00BF80B485B076
:1032200000AF78607B6803F00703FB600C4BDB6842
:10323000BB60BA684FF6FF031340BB60FB681A021D
:10324000BB68134343F0BF6343F40033BB60044ADD
:10325000BB68D36000BF1437BD465DF8047B704780
:1032600000ED00E080B400AF044BDB6803F4E063E2
:103270001B0A1846BD465DF8047B704700ED00E070
:1032800080B483B000AF0346FB71094997F907305A
:103290005B09FA7902F01F02012000FA02F241F8FC
:1032A000232000BF0C37BD465DF8047B704700BF8C
:1032B00000E100E080B483B000AF03463960FB71E9
:1032C00097F90730002B0BDA0D49FB7903F00F0358
:1032D000043B3A68D2B21201D2B20B441A7609E02A
:1032E000084997F907303A68D2B21201D2B20B44BA
:1032F00083F8002300BF0C37BD465DF8047B7047A0
:1033000000ED00E000E100E080B489B000AFF860BB
:10331000B9607A60FB6803F00703FB61FB69C3F1E6
:103320000703042B28BF0423BB61FB690433062B6E
:1033300002D9FB69033B00E000237B610122BB69EA
:1033400002FA03F35A1EBB681A407B699A400121B6
:103350007B6901FA03F3591E7B680B40134318463F
:103360002437BD465DF8047B704700BF80B582B04E
:1033700000AF78607B68013BB3F1807F01D301230C
:103380000FE00A4A7B68013B53600F214FF0FF308A
:10339000FFF790FF054B00229A60044B07221A604A
:1033A000002318460837BD4680BD00BF10E000E08E
:1033B00080B582B000AF78607868FFF72FFF00BF5C
:1033C0000837BD4680BD00BF80B586B000AF03465C
:1033D000B9607A60FB7300237B61FFF743FF78617C
:1033E0007A68B9687869FFF78FFF024697F90F305E
:1033F00011461846FFF75EFF00BF1837BD4680BD77
:1034000080B582B000AF0346FB7197F907301846CC
:10341000FFF736FF00BF0837BD4680BD80B582B0DC
:1034200000AF78607868FFF7A1FF034618460837B9
:10343000BD4680BD80B485B000AF78600023FB60DE
:103440007B68002B01D101239CE07B681B681A4636
:103450004F4B9A420FD87B681B681A464D4B13445A
:103460004D4AA2FB03231B099A007B685A647B68C0
:103470004A4A1A640EE07B681B681A46484B13449C
:10348000454AA2FB03231B099A007B685A647B68A8
:10349000444A1A647B68022283F825207B681B68F3
:1034A0001B68FB60FB6823F4FF4323F07003FB60A1
:1034B0007B689A687B68DB681A437B681B691A43E0
:1034C0007B685B691A437B689B691A437B68DB698D
:1034D0001A437B681B6A1343FA681343FB607B68DB
:1034E0001B68FA681A607B689B68B3F5804F31D01F
:1034F0007B681B6C294A934216D12B492A4B1A68C8
:103500007B685B6C0F2000FA03F3DB4313400B6016
:103510002548254B1A687B6859687B685B6C01FA03
:1035200003F31343036015E02049204B1A687B68BE
:103530005B6C0F2000FA03F3DB4313400B601B4866
:103540001A4B1A687B6859687B685B6C01FA03F355
:10355000134303607B680022DA627B6800221A63EF
:103560007B6800225A637B6800229A637B68002292
:10357000DA637B68012283F825207B68002283F8C8
:103580002420002318461437BD465DF8047B70479D
:1035900007040240F8FFFDBFCDCCCCCC00000240B8
:1035A000F8FBFDBF00040240A8000240A80402404E
:1035B00080B586B000AFF860B9607A603B600023E8
:1035C000FB75FB6893F82430012B01D102234BE0FB
:1035D000FB68012283F82420FB6893F82530DBB2D6
:1035E000012B3AD1FB68022283F82520FB680022D8
:1035F000DA63FB681B68FA681268126822F001023D
:103600001A603B687A68B968F86800F031F8FB68BE
:103610001B6B002B08D0FB681B68FA6812681268E5
:1036200042F00E021A600FE0FB681B68FA6812682D
:10363000126822F004021A60FB681B68FA681268BC
:10364000126842F00A021A60FB681B68FA68126886
:10365000126842F001021A6005E0FB68002283F85C
:1036600024200223FB75FB7D18461837BD4680BD1C
:1036700080B485B000AFF860B9607A603B60FB68E9
:103680001B6CFA68526C012101FA02F25A60FB6865
:103690001B683A685A60FB689B68102B08D1FB686E
:1036A0001B687A689A60FB681B68BA68DA6007E092
:1036B000FB681B68BA689A60FB681B687A68DA6006
:1036C00000BF1437BD465DF8047B704780B586B0F7
:1036D00000AFF860B960C7E900230123FB75002340
:1036E0003B612F4B1B78012B01D1022353E02C4B64
:1036F00001221A704CF2503000F088F80346FB7536
:10370000FB7D002B43D1264B00225A60254B1B68C2
:1037100003F48063002B09D0224A224B1B6823F458
:10372000806313601E4B02221A7702E01C4B0022BA
:103730001A77FB68002B07D1D7E90023B86800F09F
:103740006DF901233B6110E0FB68012B02D0FB689F
:10375000022B0AD13B681946B86800F07FF9FB6874
:10376000022B02D14FF480233B614CF2503000F029
:103770004DF80346FB753B69002B06D00949094B00
:103780005A693B69DB4313404B6100F09FFA044BDD
:1037900000221A70FB7D18461837BD4680BD00BF59
:1037A000D42500200020024080B483B000AF002365
:1037B000FB710B4B5B69002B0BDA094B094A9A60D2
:1037C000074B094A9A60064B5B69002B01DA01231B
:1037D000FB71FB7918460C37BD465DF8047B7047DA
:1037E0000020024023016745AB89EFCD80B400AFD4
:1037F000054A054B5B6943F00043536100231846BB
:10380000BD465DF8047B70470020024080B584B05F
:1038100000AF7860FFF7D8FCF8600DE07B68B3F18B
:10382000FF3F09D0FFF7D0FC0246FB68D21A7B6845
:103830009A4201D3032353E02B4B1B6903F48033DB
:10384000002BEBD1284B1B6903F00203002B39D16D
:10385000254B1B6903F00803002B33D1224B1B6956
:1038600003F01003002B2DD11F4B1B6903F0200325
:10387000002B27D11C4B1B6903F04003002B21D1E7
:10388000194B1B6903F08003002B1BD1164B1B69DE
:1038900003F48073002B15D1134B1B6903F40073E1
:1038A000002B0FD1104B1B6903F48043002B09D16F
:1038B0000D4B1B6903F40043002B03D10A4B9B699A
:1038C000002B03DA00F012F8012309E0064B1B6914
:1038D00003F00103002B02D0034B01221A610023E5
:1038E00018461037BD4680BD0020024080B400AFAE
:1038F000484B1B6903F00203002B05D0464B5B6865
:1039000043F00103444A5360424B1B6903F0080330
:10391000002B05D0404B5B6843F002033E4A5360E6
:103920003C4B1B6903F01003002B05D03A4B5B683E
:1039300043F00403384A5360364B1B6903F02003FD
:10394000002B05D0344B5B6843F00803324A5360C8
:10395000304B1B6903F04003002B05D02E4B5B68F6
:1039600043F010032C4A53602A4B1B6903F0800379
:10397000002B05D0284B5B6843F02003264A536098
:10398000244B1B6903F48073002B05D0224B5B682A
:1039900043F04003204A53601E4B1B6903F400733D
:1039A000002B05D01C4B5B6843F080031A4A536020
:1039B000184B1B6903F48043002B05D0164B5B6842
:1039C00043F48073144A5360124B1B6903F40043A1
:1039D000002B05D0104B5B6843F400730E4A536014
:1039E0000C4B9B69002B05DA0B4B5B6843F480633F
:1039F000094A5360074A074B9B6943F000439361B0
:103A0000044B4CF2FA321A6100BFBD465DF8047BEC
:103A1000704700BF00200240D4250020F0B484B0DD
:103A200000AFF860C7E900230B4A0B4B5B6943F01A
:103A300001035361FB683A681A60FB6804331A4655
:103A4000D7E90034250000262B46136000BF10374D
:103A5000BD46F0BC704700BF0020024080B487B074
:103A600000AF786039604023FB757B683B613B6841
:103A7000FB600E4A0D4B5B6943F48023536172B6C1
:103A80003B691A1D3A61FA68111DF96012681A60E3
:103A9000FB7D013BFB75FB7D002BF1D162B600BFC6
:103AA0001C37BD465DF8047B704700BF0020024014
:103AB00080B584B000AF786039600123FB730023C8
:103AC000BB604C4B1B78012B01D102238DE0494B8D
:103AD00001221A704CF25030FFF798FE0346FB7338
:103AE000FB7B002B7DD1434B00225A60424B1B686D
:103AF00003F40073002B19D03F4A3F4B1B6823F49B
:103B0000007313603C4B1B6803F48063002B09D0E7
:103B1000394A394B1B6823F480631360354B032209
:103B20001A7716E0334B01221A7712E0324B1B68EA
:103B300003F48063002B09D02F4A2F4B1B6823F41A
:103B4000806313602B4B02221A7702E0294B00227C
:103B50001A777B681B68012B13D17B685B6818465A
:103B600000F04CF84CF25030FFF750FE0346FB7368
:103B7000214A214B5B6923F4004323F00403536182
:103B80002DE03B684FF0FF321A607B689B68BB609A
:103B90001DE07B685B681946B86800F057F84CF286
:103BA0005030FFF733FE0346FB73134A124B5B6939
:103BB00023F4FF6323F002035361FB7B002B03D04C
:103BC0003B68BA681A600AE0BB680133BB607B6877
:103BD0009A687B68DB681A44BB689A42D9D800F0BF
:103BE00075F8044B00221A70FB7B18461037BD464F
:103BF00080BD00BFD42500200020024080B483B0E7
:103C000000AF78607B6803F00103002B05D00E4AFB
:103C10000D4B5B6943F0040353617B6803F00203BF
:103C2000002B05D0084A084B5B6943F400435361FD
:103C3000054A054B5B6943F48033536100BF0C3781
:103C4000BD465DF8047B70470020024080B485B01B
:103C500000AF786039603B6803F00103002B06D0A9
:103C6000194A194B5B6923F40063536105E0164A56
:103C7000154B5B6943F4006353611348124B5B6956
:103C800023F4FF624FF4FF63FB60FB6893FAA3F336
:103C9000BB60BB68B3FA83F3796801FA03F313439B
:103CA0004361094A084B5B6943F002035361064ACA
:103CB000054B5B6943F48033536100BF1437BD4645
:103CC0005DF8047B704700BF0020024080B400AF65
:103CD0001F4B1B7FDBB2012B04D01D4B1B7FDBB2C4
:103CE000032B11D11B4A1B4B1B6843F40063136069
:103CF000184A184B1B6823F400631360154A154BD0
:103D00001B6843F400731360114B1B7FDBB2022B63
:103D100004D00F4B1B7FDBB2032B11D10D4A0D4B8F
:103D20001B6843F4805313600A4A0A4B1B6823F450
:103D300080531360074A074B1B6843F4806313608A
:103D4000034B00221A7700BFBD465DF8047B704725
:103D5000D42500200020024080B487B000AF7860F6
:103D6000396000237B610023FB6000233B617FE11E
:103D70003B681A6801217B6901FA03F31340FB6079
:103D8000FB68002B00F071813B685B68022B03D05D
:103D90003B685B68122B23D17B69DA087B680832A9
:103DA00053F822303B617B6903F007039B000F222D
:103DB00002FA03F3DB433A6913403B613B681A693B
:103DC0007B6903F007039B0002FA03F33A6913438C
:103DD0003B617B69DA087B680832396943F8221055
:103DE0007B681B683B617B695B00032202FA03F37B
:103DF000DB433A6913403B613B685B6803F00302B5
:103E00007B695B0002FA03F33A6913433B617B6809
:103E10003A691A603B685B68012B0BD03B685B68B2
:103E2000022B07D03B685B68112B03D03B685B68B3
:103E3000122B30D17B689B683B617B695B0003225E
:103E400002FA03F3DB433A6913403B613B68DA68EB
:103E50007B695B0002FA03F33A6913433B617B68B9
:103E60003A699A607B685B683B6101227B6902FA70
:103E700003F3DB433A6913403B613B685B681B0912
:103E800003F001027B6902FA03F33A6913433B61D1
:103E90007B683A695A603B685B6803F00303032B55
:103EA00018D17B68DB6A3B6101227B6902FA03F36C
:103EB000DB433A6913403B613B685B68DB0803F016
:103EC00001027B6902FA03F33A6913433B617B68A1
:103ED0003A69DA627B68DB683B617B695B000322DD
:103EE00002FA03F3DB433A6913403B613B689A688B
:103EF0007B695B0002FA03F33A6913433B617B6819
:103F00003A69DA603B685B6803F08053002B00F08D
:103F1000AC805E4A5D4B1B6E43F0010313665B4B46
:103F20001B6E03F00103BB60BB68594A7B699B08A9
:103F3000023352F823303B617B6903F003039B009B
:103F40000F2202FA03F3DB433A6913403B617B68BB
:103F5000B3F1904F25D07B684E4A93421FD07B68C7
:103F60004D4A934219D07B684C4A934213D07B68E8
:103F70004B4A93420DD07B684A4A934207D07B68F4
:103F8000494A934201D106230CE007230AE00523A6
:103F900008E0042306E0032304E0022302E00123F7
:103FA00000E000237A6902F00302920093403A692C
:103FB00013433B6136497B699B0802333A6941F8F8
:103FC00023203A4B1B683B61FB68DB433A69134093
:103FD0003B613B685B6803F48033002B03D03A6994
:103FE000FB6813433B61314A3B6913602F4B5B68AD
:103FF0003B61FB68DB433A6913403B613B685B68AC
:1040000003F40033002B03D03A69FB6813433B6190
:10401000264A3B695360254B9B683B61FB68DB4349
:104020003A6913403B613B685B6803F48013002BE3
:1040300003D03A69FB6813433B611C4A3B699360B8
:104040001A4BDB683B61FB68DB433A6913403B6119
:104050003B685B6803F40013002B03D03A69FB68EC
:1040600013433B61114A3B69D3607B6901337B6138
:104070003B681A687B6922FA03F3002B7FF478AE61
:1040800000BF1C37BD465DF8047B7047001002403E
:10409000000001400004004800080048000C0048EF
:1040A00000100048001400480018004800040140B7
:1040B00080B485B000AF78600B467B807B681A695E
:1040C0007B881340002B02D00123FB7301E0002307
:1040D000FB73FB7B18461437BD465DF8047B7047C5
:1040E00080B483B000AF78600B467B8013467B7052
:1040F0007B78002B03D07A887B689A6102E07A880B
:104100007B689A6200BF0C37BD465DF8047B704740
:1041100080B483B000AF78600B467B807B685A69BF
:104120007B885A407B685A6100BF0C37BD465DF8FA
:10413000047B704780B582B000AF0346FB80084B1C
:104140005A69FB881340002B06D0054AFB8853614F
:10415000FB881846FEF7DCFC00BF0837BD4680BD73
:104160000004014080B582B000AF78607B68002B0E
:1041700001D1012380E07B6893F84130DBB2002B52
:1041800006D17B68002283F84020786800F0A8F808
:104190007B68242283F841207B681B687A68126858
:1041A000126822F001021A607B681B687A68526804
:1041B00022F070621A617B681B687A6812689268E4
:1041C00022F400429A607B68DB68012B07D17B6890
:1041D0001B687A68926842F400429A6006E07B6845
:1041E0001B687A68926842F404429A607B68DB68D4
:1041F000022B04D17B681B684FF400625A607B6815
:104200001A687B681B685B6843F0007343F40043E3
:1042100053607B681B687A681268D26822F4004297
:10422000DA607B681B687A6811697A6852691143A1
:104230007A68926912020A43DA607B681B687A68BE
:10424000D1697A68126A0A431A607B681B687A68C7
:104250001268126842F001021A607B6800225A64F8
:104260007B68202283F841207B6800221A637B68E8
:10427000002283F84220002318460837BD4680BD3F
:1042800080B582B000AF78607B68002B01D101233C
:1042900021E07B68242283F841207B681B687A68D0
:1042A0001268126822F001021A60786800F022F8A1
:1042B0007B6800225A647B68002283F841207B6877
:1042C00000221A637B68002283F842207B68002268
:1042D00083F84020002318460837BD4680BD00BF44
:1042E00080B483B000AF786000BF0C37BD465DF886
:1042F000047B704780B483B000AF786000BF0C3798
:10430000BD465DF8047B704780B588B002AFF860A9
:10431000084611461A4603467B810B463B811346ED
:10432000FB8000237B61FB6893F84130DBB2202BDC
:1043300040F009813B6A002B02D0BB8C002B01D1DD
:10434000012301E1FB6893F84030012B01D10223E6
:10435000FAE0FB68012283F84020FEF735FF786120
:104360007B690093192301224FF40041F86800F0A3
:1043700009FB0346002B01D00323E5E0FB68212263
:1043800083F84120FB68402283F84220FB6800222A
:104390005A64FB683A6A5A62FB68BA8C5A85FB68B1
:1043A00000225A63F8883A8979897B690193BB6A4C
:1043B00000930346F86800F001FA0346002B0FD083
:1043C000FB685B6C042B05D1FB68002283F840205E
:1043D0000123B9E0FB68002283F840200323B3E007
:1043E000FB685B8D9BB2FF2B0ED9FB68FF221A8501
:1043F000FB681B8DDAB27989002300934FF080733C
:10440000F86800F0D3FB0FE0FB685B8D9AB2FB68A5
:104410001A85FB681B8DDAB27989002300934FF06F
:104420000073F86800F0C2FB7A69B96AF86800F0B6
:10443000E3FA0346002B07D0FB685B6C042B01D129
:10444000012381E003237FE0FB681A68FB685B6A55
:10445000581CF96848621B789362FB685B8D9BB2BD
:10446000013B9AB2FB685A85FB681B8D013B9AB2EF
:10447000FB681A85FB681B8D002B35D1FB685B8DB3
:104480009BB2002B30D07B690093BB6A0022802155
:10449000F86800F077FA0346002B01D0032353E0BD
:1044A000FB685B8D9BB2FF2B0ED9FB68FF221A8540
:1044B000FB681B8DDAB27989002300934FF080737B
:1044C000F86800F073FB0FE0FB685B8D9AB2FB6845
:1044D0001A85FB681B8DDAB27989002300934FF0AF
:1044E0000073F86800F062FBFB685B8D9BB2002BE9
:1044F0009AD17A69B96AF86800F0BEFA0346002BCF
:1045000007D0FB685B6C042B01D101231CE0032363
:104510001AE0FB681B682022DA61FB681A68FB68F6
:104520001B6859680A4B0B405360FB68202283F8D4
:104530004120FB68002283F84220FB68002283F8B8
:104540004020002300E0022318461837BD4680BDF6
:1045500000E800FE80B588B002AFF860084611465A
:104560001A4603467B810B463B811346FB800023A2
:104570007B61FB6893F84130DBB2202B40F0078170
:104580003B6A002B02D0BB8C002B01D10123FFE042
:10459000FB6893F84030012B01D10223F8E0FB685F
:1045A000012283F84020FEF70FFE78617B690093BB
:1045B000192301224FF40041F86800F0E3F90346A3
:1045C000002B01D00323E3E0FB68222283F8412083
:1045D000FB68402283F84220FB6800225A64FB6893
:1045E0003A6A5A62FB68BA8C5A85FB6800225A63A1
:1045F000F8883A8979897B690193BB6A00930346FD
:10460000F86800F03BF90346002B0FD0FB685B6CA9
:10461000042B05D1FB68002283F840200123B7E07A
:10462000FB68002283F840200323B1E0FB685B8D28
:104630009BB2FF2B0ED9FB68FF221A85FB681B8DEE
:10464000DAB27989544B00934FF08073F86800F028
:10465000ADFA0FE0FB685B8D9AB2FB681A85FB68C8
:104660001B8DDAB279894C4B00934FF00073F868D8
:1046700000F09CFA7B690093BB6A00220421F86871
:1046800000F080F90346002B01D0032380E0FB6893
:104690005B6A591CFA685162FA681268526AD2B2AF
:1046A0001A70FB681B8D013B9AB2FB681A85FB6888
:1046B0005B8D9BB2013B9AB2FB685A85FB681B8DF0
:1046C000002B35D1FB685B8D9BB2002B30D07B6912
:1046D0000093BB6A00228021F86800F053F903467A
:1046E000002B01D0032353E0FB685B8D9BB2FF2BB3
:1046F0000ED9FB68FF221A85FB681B8DDAB2798917
:10470000002300934FF08073F86800F04FFA0FE039
:10471000FB685B8D9AB2FB681A85FB681B8DDAB269
:104720007989002300934FF00073F86800F03EFA97
:10473000FB685B8D9BB2002B9CD17A69B96AF868E3
:1047400000F09AF90346002B07D0FB685B6C042B42
:1047500001D101231CE003231AE0FB681B6820221F
:10476000DA61FB681A68FB681B6859680B4B0B40E1
:104770005360FB68202283F84120FB68002283F805
:104780004220FB68002283F84020002300E002233F
:1047900018461837BD4680BD0024008000E800FEA2
:1047A00080B483B000AF78607B6893F84130DBB2AF
:1047B00018460C37BD465DF8047B704780B586B05F
:1047C00002AFF860084611461A4603467B810B4645
:1047D0003B811346FB80FB88DAB27989264B009334
:1047E0004FF08073F86800F0E1F9FA69B969F86888
:1047F00000F002F90346002B07D0FB685B6C042B2A
:1048000001D1012334E0032332E0FB88012B05D1E1
:10481000FB681B683A89D2B29A621BE0FB681B688E
:104820003A89120A92B2D2B29A62FA69B969F86800
:1048300000F0E2F80346002B07D0FB685B6C042B0A
:1048400001D1012314E0032312E0FB681B683A89BD
:10485000D2B29A62FB690093BB6900228021F8689A
:1048600000F090F80346002B01D0032300E0002362
:1048700018461037BD4680BD0020008080B586B048
:1048800002AFF860084611461A4603467B810B4684
:104890003B811346FB80FB88DAB27989264B009373
:1048A0000023F86800F082F9FA69B969F86800F045
:1048B000A3F80346002B07D0FB685B6C042B01D1E7
:1048C000012334E0032332E0FB88012B05D1FB6890
:1048D0001B683A89D2B29A621BE0FB681B683A896E
:1048E000120A92B2D2B29A62FA69B969F86800F013
:1048F00083F80346002B07D0FB685B6C042B01D1C7
:10490000012314E0032312E0FB681B683A89D2B24A
:104910009A62FB690093BB6900224021F86800F0AD
:1049200031F80346002B01D0032300E00023184692
:104930001037BD4680BD00BF0020008080B483B02A
:1049400000AF78607B681B689B6903F00203002B53
:1049500003D07B681B6800229A627B681B689B6996
:1049600003F00103002B07D17B681B687A6812688B
:10497000926942F001029A6100BF0C37BD465DF8B2
:10498000047B704780B584B000AFF860B9603B60CD
:104990001346FB711CE03B68B3F1FF3F18D03B6846
:1049A000002B07D0FEF710FC0246BB69D21A3B6809
:1049B0009A420DD9FB68202283F84120FB6800222F
:1049C00083F84220FB68002283F8402003230FE095
:1049D000FB681B689A69BB681A40BB689A420CBFA7
:1049E00001230023DBB21A46FB799A42D3D000237D
:1049F00018461037BD4680BD80B584B000AFF86062
:104A0000B9607A602CE07A68B968F86800F070F8EC
:104A10000346002B01D001232AE0BB68B3F1FF3F1E
:104A20001ED0BB68002B07D0FEF7CEFB02467B688A
:104A3000D21ABB689A4213D9FB685B6C43F0200220
:104A4000FB685A64FB68202283F84120FB6800223F
:104A500083F84220FB68002283F84020032307E00C
:104A6000FB681B689B6903F00203002BCBD000237B
:104A700018461037BD4680BD80B584B000AFF860E1
:104A8000B9607A6028E07A68B968F86800F030F8B0
:104A90000346002B01D0012326E0BB68002B07D082
:104AA000FEF792FB02467B68D21ABB689A4213D982
:104AB000FB685B6C43F02002FB685A64FB682022B1
:104AC00083F84120FB68002283F84220FB68002223
:104AD00083F84020032307E0FB681B689B6903F011
:104AE0002003002BCFD0002318461037BD4680BDD1
:104AF00080B584B000AFF860B9607A60FB681B686D
:104B00009B6903F01003002B48D01CE0BB68B3F195
:104B1000FF3F18D0BB68002B07D0FEF755FB0246BD
:104B20007B68D21ABB689A420DD9FB68202283F8B1
:104B30004120FB68002283F84220FB68002283F8B2
:104B4000402003232BE0FB681B689B6903F02003D4
:104B5000002BDBD0FB681B681022DA61FB681B6846
:104B60002022DA61F868FFF7E9FEFB681A68FB6843
:104B70001B6859680C4B0B405360FB6804225A6455
:104B8000FB68202283F84120FB68002283F8422042
:104B9000FB68002283F84020012300E00023184630
:104BA0001037BD4680BD00BF00E800FE80B485B070
:104BB00000AFF8607B600B467B8113467B72FB681D
:104BC0001A68FB681B685968BB695B0D03F4806059
:104BD0000B4B0343DB4319407B89C3F309007B7A0A
:104BE0001B0403F47F0318437B681843BB6903432A
:104BF0000B43536000BF1437BD465DF8047B70471C
:104C0000FF63FF0380B400AF054A054B1B6843F404
:104C10008073136000BFBD465DF8047B704700BF22
:104C20000070004080B400AF044B1B6803F4C06305
:104C30001846BD465DF8047B704700BF0070004019
:104C400080B586B000AF786000233B617B681B684D
:104C500003F01003002B00F0D080A14B9B6803F001
:104C60000C03002B79D19E4B1B6803F00203002B31
:104C700005D07B689B69002B01D101233CE37B6855
:104C80001A6A974B1B6803F00803002B04D0944B5F
:104C90001B6803F0F00305E0914BD3F8943003F464
:104CA00070631B099A4223D97B681B6A184600F07F
:104CB00025FD0346002B01D001231DE3884A884BC4
:104CC0001B6843F0080313608549854B1B6823F07C
:104CD000F0027B681B6A13430B608149804B5B6861
:104CE00023F47F427B68DB691B0213434B6022E0A5
:104CF0007B4A7B4B1B6843F0080313607849784B71
:104D00001B6823F0F0027B681B6A13430B60744935
:104D1000734B5B6823F47F427B68DB691B021343A0
:104D20004B607B681B6A184600F0E8FC0346002BCA
:104D300001D00123E0E200F0FDFB0146684B9B68D7
:104D400003F0F0031B09674AD35C21FA03F3664AB8
:104D500013600F20FEF70EFA4FE07B689B69002B73
:104D600032D05F4A5E4B1B6843F001031360FEF7CD
:104D70002BFA386108E0FEF727FA02463B69D31A9E
:104D8000022B01D90323B7E2554B1B6803F0020342
:104D9000002BF0D0524A524B1B6843F008031360BB
:104DA0004F494F4B1B6823F0F0027B681B6A13438B
:104DB0000B604B494A4B5B6823F47F427B68DB699D
:104DC0001B0213434B6018E0454A454B1B6823F018
:104DD00001031360FEF7F8F9386108E0FEF7F4F913
:104DE00002463B69D31A022B01D9032384E23C4BD0
:104DF0001B6803F00203002BF0D17B681B6803F0F3
:104E00000103002B7AD0364B9B6803F00C03082B70
:104E10000BD0334B9B6803F00C030C2B11D1304BA0
:104E2000DB6803F00303032B0BD12D4B1B6803F44A
:104E30000033002B61D07B685B68002B5DD10123C0
:104E40005AE27B685B68B3F5803F06D1244A244B65
:104E50001B6843F4803313601DE07B685B68B3F527
:104E6000A02F0CD11E4A1E4B1B6843F480231360F5
:104E70001B4A1B4B1B6843F4803313600BE0184A3A
:104E8000174B1B6823F480331360154A144B1B68BF
:104E900023F4802313607B685B68002B13D0FEF73C
:104EA00093F9386108E0FEF78FF902463B69D31A9F
:104EB000642B01D903231FE2094B1B6803F4003361
:104EC000002BF0D01AE0FEF77FF938610EE0FEF714
:104ED0007BF902463B69D31A642B07D903230BE203
:104EE00000100240D876010838000020A94B1B684A
:104EF00003F40033002BEAD100E000BF7B681B689D
:104F000003F00203002B69D0A24B9B6803F00C0353
:104F1000042B0BD09F4B9B6803F00C030C2B1CD174
:104F20009C4BDB6803F00303022B16D1994B1B68E3
:104F300003F48063002B05D07B68DB68002B01D174
:104F40000123D9E19349934B5B6823F0F8527B68C6
:104F50001B691B0613434B6040E07B68DB68002B3A
:104F600023D08C4A8B4B1B6843F480731360FEF78D
:104F70002BF9386108E0FEF727F902463B69D31A9E
:104F8000022B01D90323B7E1824B1B6803F4806332
:104F9000002BF0D07F497F4B5B6823F0F8527B6891
:104FA0001B691B0613434B6018E07A4A794B1B6858
:104FB00023F480731360FEF707F9386108E0FEF709
:104FC00003F902463B69D31A022B01D9032393E16B
:104FD000704B1B6803F48063002BF0D17B681B6867
:104FE00003F00803002B3CD07B685B69002B1CD0CE
:104FF000684A684BD3F8943043F00103C2F8943008
:10500000FEF7E2F8386108E0FEF7DEF802463B6999
:10501000D31A022B01D903236EE15E4BD3F89430EF
:1050200003F00203002BEFD01BE05A4A594BD3F890
:10503000943023F00103C2F89430FEF7C5F83861CC
:1050400008E0FEF7C1F802463B69D31A022B01D9EA
:10505000032351E14F4BD3F8943003F00203002BAC
:10506000EFD17B681B6803F00403002B00F0A680DF
:105070000023FB75474B9B6D03F08053002B0DD134
:10508000444A444B9B6D43F080539365414B9B6D69
:1050900003F08053FB60FB680123FB753E4B1B68EC
:1050A00003F48073002B18D13B4A3B4B1B6843F43D
:1050B00080731360FEF788F8386108E0FEF784F823
:1050C00002463B69D31A022B01D9032314E1324B68
:1050D0001B6803F48073002BF0D07B689B68012B66
:1050E00008D12C4A2B4BD3F8903043F00103C2F87F
:1050F000903024E07B689B68052B10D1254A254B16
:10510000D3F8903043F00403C2F89030214A214B89
:10511000D3F8903043F00103C2F890300FE01D4AFD
:105120001C4BD3F8903023F00103C2F89030194A99
:10513000184BD3F8903023F00403C2F890307B680A
:105140009B68002B16D0FEF73FF838610AE0FEF7A7
:105150003BF802463B69D31A41F28832934201D9A7
:105160000323C9E00B4BD3F8903003F00203002B6C
:10517000EDD01AE0FEF728F838610FE0FEF724F8CA
:1051800002463B69D31A41F28832934206D903237F
:10519000B2E000BF0010024000700040584BD3F84E
:1051A000903003F00203002BE8D1FB7D012B05D1E9
:1051B000534A534B9B6D23F0805393657B689B6AE6
:1051C000002B00F098804E4B9B6803F00C030C2BD7
:1051D00000F08F807B689B6A022B56D1484A484B6F
:1051E0001B6823F080731360FDF7EEFF386108E061
:1051F000FDF7EAFF02463B69D31A022B01D90323CC
:105200007AE03F4B1B6803F00073002BF0D13C4960
:105210007B681B6B013B1A017B685B6B1B021A43AB
:105220007B689B6B1B095B041A437B68DB6A1A4330
:105230007B68DB6B5B08013B5B051A437B681B6C7F
:105240005B08013B5B061343CB602D4A2C4B1B686C
:1052500043F0807313602A4A294BDB6843F0807364
:10526000D360FDF7B1FF386108E0FDF7ADFF0246FE
:105270003B69D31A022B01D903233DE0204B1B6865
:1052800003F00073002BF0D035E01D4A1C4B1B6867
:1052900023F0807313601A4B1B6803F00063002B2C
:1052A0000BD1174B1B6803F00053002B05D1144A98
:1052B000134BDB6823F00303D360114A104BDB6808
:1052C00023F0887323F48033D360FDF77DFF3861CA
:1052D00008E0FDF779FF02463B69D31A022B01D99A
:1052E000032309E0064B1B6803F00073002BF0D189
:1052F00001E0012300E0002318461837BD4680BDB9
:105300000010024080B584B000AF7860396000239F
:10531000FB60844B1B6803F007023B689A4210D283
:105320008049804B1B6823F007023B6813430B60E6
:105330007C4B1B6803F007023B689A4201D00123B3
:10534000ECE07B681B6803F00103002B00F08E800B
:105350007B685B68032B07D1734B1B6803F00073FA
:10536000002B21D10123D9E07B685B68022B07D198
:105370006D4B1B6803F40033002B15D10123CDE0E6
:105380007B685B68002B07D1674B1B6803F0020347
:10539000002B09D10123C1E0634B1B6803F4806338
:1053A000002B01D10123B9E05F495F4B9B6823F0DB
:1053B00003027B685B6813438B60FDF705FFF860B1
:1053C0007B685B68032B12D10AE0FDF7FDFE024605
:1053D000FB68D31A41F28832934201D903239DE03E
:1053E000514B9B6803F00C030C2BEED13EE07B6825
:1053F0005B68022B12D10AE0FDF7E6FE0246FB686D
:10540000D31A41F28832934201D9032386E0464BF6
:105410009B6803F00C03082BEED127E07B685B68E8
:10542000002B1DD10AE0FDF7CFFE0246FB68D31A20
:1054300041F28832934201D903236FE03A4B9B68D3
:1054400003F00C03002BEED110E0FDF7BDFE024689
:10545000FB68D31A41F28832934201D903235DE0FD
:10546000314B9B6803F00C03042BEED17B681B6867
:1054700003F00203002B08D02B492B4B9B6823F031
:10548000F0027B689B6813438B60264B1B6803F01C
:1054900007023B689A4210D92249224B1B6823F02D
:1054A00007023B6813430B601E4B1B6803F00702A7
:1054B0003B689A4201D0012330E07B681B6803F00F
:1054C0000403002B08D01849174B9B6823F4E062B3
:1054D0007B68DB6813438B607B681B6803F0080301
:1054E000002B09D01049104B9B6823F460527B6855
:1054F0001B69DB0013438B6000F01CF801460A4B6C
:105500009B6803F0F0031B09084AD35C21FA03F3FC
:10551000074A13600F20FDF72DFE002318461037B1
:10552000BD4680BD0020024000100240D876010830
:105530003800002080B487B000AF00237B610023D7
:105540003B610023BB6002237B6002233B6000239E
:10555000FB604C4B9B6803F00C03002B0BD0494BBA
:105560009B6803F00C030C2B27D1464BDB6803F040
:105570000303012B21D1434B1B6803F00803002BCD
:1055800007D1404BD3F8943003F470631B0A7B615E
:1055900005E03C4B1B6803F0F0031B097B613A4AB2
:1055A0007B6952F823307B61364B9B6803F00C0318
:1055B000002B13D17B69FB6010E0324B9B6803F03A
:1055C0000C03042B02D1314BFB6007E02D4B9B6891
:1055D00003F00C03082B01D12D4BFB60294B9B687A
:1055E00003F00C030C2B45D1264BDB6803F00303BF
:1055F000BB60244BDB6803F070031B0901333B6085
:10560000BB68022B02D0032B0DD019E01F4A3B6868
:10561000B2FBF3F31B4AD26802F4FE42120A02FB09
:1056200003F33B6119E01A4A3B68B2FBF3F3154AF6
:10563000D26802F4FE42120A02FB03F33B610CE063
:105640007A693B68B2FBF3F30E4AD26802F4FE4279
:10565000120A02FB03F33B6100BF0A4BDB6803F055
:10566000C0635B0E01335B007B603A697B68B2FB11
:10567000F3F3FB60FB6818461C37BD465DF8047BFE
:10568000704700BF00100240F07601080024F400CB
:1056900000127A0080B400AF034B1B681846BD4669
:1056A0005DF8047B704700BF3800002080B500AF74
:1056B000FFF7F0FF0146054B9B6803F4E0631B0A0C
:1056C000034AD35C21FA03F3184680BD0010024060
:1056D000E876010880B500AFFFF7DCFF0146054B17
:1056E0009B6803F46053DB0A034AD35C21FA03F39B
:1056F000184680BD00100240E876010880B586B0EB
:1057000000AF786000237B6100233B612A4B9B6DD7
:1057100003F08053002B03D0FFF784FA786114E084
:10572000254A254B9B6D43F080539365224B9B6D1F
:1057300003F08053FB60FB68FFF774FA78611E4A40
:105740001D4B9B6D23F0805393657B69B3F5007F00
:105750000BD17B68802B19D97B68A02B02D902233F
:105760003B6113E001233B6110E07B68802B02D991
:1057700003233B610AE07B68802B02D102233B615B
:1057800004E07B68702B01D101233B610B490B4B7B
:105790001B6823F007023B6913430B60074B1B6830
:1057A00003F007023B699A4201D0012300E0002385
:1057B00018461837BD4680BD001002400020024048
:1057C00080B586B000AF786000237B610023FB606A
:1057D0000023FB740023BB747B681B6803F4006325
:1057E000002B3FD07B685B6EB3F5800F1CD0B3F508
:1057F000800F02D8002B0ED01FE0B3F5000F03D0AE
:10580000B3F5400F1CD018E0824A824BDB6843F4AA
:105810008033D36015E07B6804330021184600F024
:10582000B3FA0346FB740CE07B6820330021184672
:1058300000F09CFB0346FB7403E00123FB7400E0D3
:1058400000BFFB7C002B0BD17249724BD3F8883020
:1058500023F440027B685B6E1343C1F8883001E09B
:10586000FB7CBB747B681B6803F48053002B3FD028
:105870007B689B6EB3F1807F1CD0B3F1807F02D830
:10588000002B0ED01FE0B3F1007F03D0B3F1407FB7
:105890001CD018E05F4A5F4BDB6843F48033D36071
:1058A00015E07B6804330021184600F06DFA0346CA
:1058B000FB740CE07B6820330021184600F056FB97
:1058C0000346FB7403E00123FB7400E000BFFB7C94
:1058D000002B0BD14F494F4BD3F8883023F0407247
:1058E0007B689B6E1343C1F8883001E0FB7CBB747E
:1058F0007B681B6803F40033002B00F09A800023C0
:105900007B74444B9B6D03F08053002B0DD1414AB7
:10591000404B9B6D43F0805393653E4B9B6D03F072
:105920008053BB60BB6801237B743B4A3A4B1B68C6
:1059300043F480731360FDF747FCF86009E0FDF75E
:1059400043FC0246FB68D31A022B02D90323FB74E3
:1059500005E0314B1B6803F48073002BEFD0FB7C18
:10596000002B5BD12B4BD3F8903003F440737B6159
:105970007B69002B1FD07B68D3F884207B699A4217
:1059800019D0244BD3F8903023F440737B61214A23
:10599000204BD3F8903043F48033C2F890301D4A46
:1059A0001C4BD3F8903023F48033C2F89030194A5E
:1059B0007B69C2F890307B6903F00103002B16D09D
:1059C000FDF702FCF8600BE0FDF7FEFB0246FB680A
:1059D000D31A41F28832934202D90323FB7406E0C2
:1059E0000C4BD3F8903003F00203002BECD0FB7C7F
:1059F000002B0CD10749074BD3F8903023F44072A9
:105A00007B68D3F884301343C1F8903008E0FB7C06
:105A1000BB7405E00010024000700040FB7CBB74CA
:105A20007B7C012B05D19E4A9D4B9B6D23F08053BF
:105A300093657B681B6803F00103002B0AD098492B
:105A4000974BD3F8883023F003027B689B6B13439A
:105A5000C1F888307B681B6803F00203002B0AD072
:105A60008F498F4BD3F8883023F00C027B68DB6BB7
:105A70001343C1F888307B681B6803F00403002BD4
:105A80000AD08749864BD3F8883023F030027B68F0
:105A90001B6C1343C1F888307B681B6803F0080354
:105AA000002B0AD07E497E4BD3F8883023F0C00209
:105AB0007B685B6C1343C1F888307B681B6803F01C
:105AC0001003002B0AD07649754BD3F8883023F4A5
:105AD00040727B689B6C1343C1F888307B681B68FD
