:020000040800F2
:100000000080012061200008B51F0008B91F00080A
:10001000B1200008B1200008B12000080000000055
:10002000000000000000000000000000B1200008F7
:10003000BD1F000800000000B1200008C11F00081B
:10004000B1200008B1200008B1200008B12000084C
:10005000B1200008B1200008B1200008B12000083C
:10006000B1200008B1200008B1200008B12000082C
:10007000B1200008B1200008B1200008B12000081C
:10008000B1200008B1200008B1200008B12000080C
:10009000B1200008B1200008B1200008B1200008FC
:1000A000B1200008B1200008B1200008B1200008EC
:1000B000B1200008C51F0008B1200008B1200008C9
:1000C000B1200008B1200008B1200008B1200008CC
:1000D000B1200008B1200008B1200008B1200008BC
:1000E000D11F0008B1200008B1200008B12000088D
:1000F000B1200008B1200008B1200008B12000089C
:10010000B1200008B1200008B1200008B12000088B
:10011000B1200008B1200008B1200008B12000087B
:10012000B1200008B1200008B1200008B12000086B
:10013000B1200008B1200008B1200008B12000085B
:10014000B1200008B1200008B1200008B12000084B
:10015000B1200008B1200008B1200008B12000083B
:10016000B1200008B1200008B1200008B12000082B
:10017000B1200008B1200008B120000800000000F4
:10018000B1200008B12000080000000000000000BD
:10019000044B05481B1A062B02D9044B03B1184720
:1001A000704700BF4304002040040020000000000E
:1001B00005490648091A891001EBD171491002D08E
:1001C000034B03B11847704740040020400400204F
:1001D0000000000010B5064C237843B9FFF7D8FFA4
:1001E000044B13B10448AFF300800123237010BD0A
:1001F000400400200000000020D9000808B5084B8A
:100200001BB108490848AFF300800848036813B9D8
:10021000BDE80840CCE7064B002BF9D09847F7E73C
:10022000000000004404002020D900084004002001
:1002300000000000000000000000000000000000BE
:1002400001F0FF01102A2BDB10F0070F08D010F887
:10025000013B013A8B422DD010F0070F42B3F6D18B
:10026000F0B441EA012141EA014122F007047FF0A4
:1002700000070023F0E80256083C85EA010586EAFB
:10028000010685FA47F5A3FA87F586FA47F6A5FA37
:1002900087F68EB9EED1F0BC01F0FF0102F0070243
:1002A00032B110F8013B013A83EA010313B1F8D1EE
:1002B0000020704701387047002D06BF35460338CF
:1002C000073815F0010F07D1013015F4807F02BF08
:1002D000013015F4C03F0130F0BC0138704700BF59
:1002E00081F0004102E000BF83F0004330B54FEAE7
:1002F00041044FEA430594EA050F08BF90EA020F54
:100300001FBF54EA000C55EA020C7FEA645C7FEAE6
:10031000655C00F0E2804FEA5454D4EB5555B8BF09
:100320006D420CDD2C4480EA020281EA030382EA7A
:10033000000083EA010180EA020281EA0303362D0C
:1003400088BF30BD11F0004F4FEA01314FF4801CDF
:100350004CEA113102D0404261EB410113F0004FF1
:100360004FEA03334CEA133302D0524263EB4303A8
:1003700094EA050F00F0A780A4F10104D5F1200E46
:100380000DDB02FA0EFC22FA05F2801841F10001A1
:1003900003FA0EF2801843FA05F359410EE0A5F175
:1003A00020050EF1200E012A03FA0EFC28BF4CF0A6
:1003B000020C43FA05F3C01851EBE37101F000455C
:1003C00007D54FF0000EDCF1000C7EEB00006EEB69
:1003D0000101B1F5801F1BD3B1F5001F0CD34908F3
:1003E0005FEA30004FEA3C0C04F101044FEA44524A
:1003F00012F5800F80F09A80BCF1004F08BF5FEAD1
:10040000500C50F1000041EB045141EA050130BDB0
:100410005FEA4C0C404141EB010111F4801FA4F153
:100420000104E9D191F0000F04BF01460020B1FAA8
:1004300081F308BF2033A3F10B03B3F120020CDAE0
:100440000C3208DD02F1140CC2F10C0201FA0CF0BE
:1004500021FA02F10CE002F11402D8BFC2F1200C23
:1004600001FA02F120FA0CFCDCBF41EA0C019040D9
:10047000E41AA2BF01EB0451294330BD6FEA040422
:100480001F3C1CDA0C340EDC04F11404C4F120020D
:1004900020FA04F001FA02F340EA030021FA04F31F
:1004A00045EA030130BDC4F10C04C4F1200220FA76
:1004B00002F001FA04F340EA0300294630BD21FAB4
:1004C00004F0294630BD94F0000F83F4801306BF7A
:1004D00081F480110134013D4EE77FEA645C18BF6E
:1004E0007FEA655C29D094EA050F08BF90EA020F05
:1004F00005D054EA000C04BF1946104630BD91EAFD
:10050000030F1EBF0021002030BD5FEA545C05D1FF
:100510004000494128BF41F0004130BD14F580043E
:100520003CBF01F5801130BD01F0004545F0FE41B2
:1005300041F470014FF0000030BD7FEA645C1ABFE7
:10054000194610467FEA655C1CBF0B46024650EA1E
:10055000013406BF52EA033591EA030F41F400214A
:1005600030BD00BF90F0000F04BF0021704730B5D0
:100570004FF4806404F132044FF000054FF00001A5
:1005800050E700BF90F0000F04BF0021704730B566
:100590004FF4806404F1320410F0004548BF40423B
:1005A0004FF000013EE700BF42004FEAE2014FEA90
:1005B00031014FEA02701FBF12F07F4393F07F4F6B
:1005C00081F06051704792F0000F14BF93F07F4F9D
:1005D000704730B54FF4607401F0004521F00041E0
:1005E00020E700BF50EA010208BF704730B54FF066
:1005F00000050AE050EA010208BF704730B511F06B
:10060000004502D5404261EB41014FF4806404F1A2
:1006100032045FEA915C3FF4DCAE4FF003025FEA24
:10062000DC0C18BF03325FEADC0C18BF033202EBAC
:10063000DC02C2F1200300FA03FC20FA02F001FA06
:1006400003FE40EA0E0021FA02F11444C1E600BFA5
:1006500070B54FF0FF0C4CF4E06C1CEA11541DBF58
:100660001CEA135594EA0C0F95EA0C0F00F0DEF823
:100670002C4481EA030621EA4C5123EA4C5350EA08
:10068000013518BF52EA033541F4801143F4801359
:1006900038D0A0FB02CE4FF00005E1FB02E506F0EA
:1006A0000042E0FB03E54FF00006E1FB03569CF03F
:1006B000000F18BF4EF0010EA4F1FF04B6F5007F45
:1006C00064F5407404D25FEA4E0E6D4146EB0606B7
:1006D00042EAC62141EA55514FEAC52040EA5E5040
:1006E0004FEACE2EB4F1FD0C88BFBCF5E06F1ED8EA
:1006F000BEF1004F08BF5FEA500E50F1000041EB21
:10070000045170BD06F0004646EA010140EA0200CD
:1007100081EA0301B4EB5C04C2BFD4EB0C0541EAEF
:10072000045170BD41F480114FF0000E013C00F304
:10073000AB8014F1360FDEBF002001F0004170BD28
:10074000C4F10004203C35DA0C341BDC04F1140441
:10075000C4F1200500FA05F320FA04F001FA05F2CD
:1007600040EA020001F0004221F0004110EBD3709A
:1007700021FA04F642EB06015EEA430E08BF20EAC6
:10078000D37070BDC4F10C04C4F1200500FA04F369
:1007900020FA05F001FA04F240EA020001F00041FB
:1007A00010EBD37041F100015EEA430E08BF20EA6E
:1007B000D37070BDC4F1200500FA05F24EEA020EB6
:1007C00020FA04F301FA05F243EA020321FA04F0E5
:1007D00001F0004121FA04F220EA020000EBD3709C
:1007E0005EEA430E08BF20EAD37070BD94F0000F9C
:1007F0000FD101F00046400041EB010111F4801FD0
:1008000008BF013CF7D041EA060195F0000F18BF80
:10081000704703F00046520043EB030313F4801FBC
:1008200008BF013DF7D043EA0603704794EA0C0F76
:100830000CEA135518BF95EA0C0F0CD050EA41068C
:1008400018BF52EA4306D1D181EA030101F0004109
:100850004FF0000070BD50EA410606BF1046194631
:1008600052EA430619D094EA0C0F02D150EA01363D
:1008700013D195EA0C0F05D152EA03361CBF10467E
:1008800019460AD181EA030101F0004141F0FE411D
:1008900041F470014FF0000070BD41F0FE4141F4A1
:1008A000780170BD70B54FF0FF0C4CF4E06C1CEAA1
:1008B00011541DBF1CEA135594EA0C0F95EA0C0F56
:1008C00000F0A7F8A4EB050481EA030E52EA033511
:1008D0004FEA013100F088804FEA03334FF0805532
:1008E00045EA131343EA12634FEA022245EA11155F
:1008F00045EA10654FEA00260EF000419D4208BF10
:10090000964244F1FD0404F5407402D25B084FEABC
:100910003202B61A65EB03055B084FEA32024FF468
:1009200080104FF4002CB6EB020E75EB030E22BFC5
:10093000B61A754640EA0C005B084FEA3202B6EB85
:10094000020E75EB030E22BFB61A754640EA5C0034
:100950005B084FEA3202B6EB020E75EB030E22BFC4
:10096000B61A754640EA9C005B084FEA3202B6EBC5
:10097000020E75EB030E22BFB61A754640EADC0084
:1009800055EA060E18D04FEA051545EA16754FEAE6
:1009900006164FEAC30343EA52734FEAC2025FEA04
:1009A0001C1CC0D111F4801F0BD141EA00014FF093
:1009B00000004FF0004CB6E711F4801F04BF014364
:1009C0000020B4F1FD0C88BFBCF5E06F3FF6AFAE80
:1009D000B5EB030C04BFB6EB020C5FEA500C50F110
:1009E000000041EB045170BD0EF0004E4EEA113193
:1009F00014EB5C04C2BFD4EB0C0541EA045170BD9A
:100A000041F480114FF0000E013C90E645EA060EDD
:100A10008DE60CEA135594EA0C0F08BF95EA0C0F0B
:100A20003FF43BAF94EA0C0F0AD150EA01347FF453
:100A300034AF95EA0C0F7FF425AF104619462CE72A
:100A400095EA0C0F06D152EA03353FF4FDAE10468D
:100A5000194622E750EA410618BF52EA43067FF4DE
:100A6000C5AE50EA41047FF40DAF52EA43057FF46E
:100A7000EBAE12E74FEA4102B2F1E04324BFB3F517
:100A8000001CDCF1FE5C0DD901F0004C4FEAC00205
:100A90004CEA5070B2F1004F40EB830008BF20F0E9
:100AA0000100704711F0804F21D113F13872BCBFA3
:100AB00001F00040704741F480114FEA5252C2F1F8
:100AC0001802C2F1200C10FA0CF320FA02F018BF41
:100AD00040F001004FEAC1234FEAD32303FA0CFC94
:100AE00040EA0C0023FA02F34FEA4303CCE77FEA23
:100AF000625307D150EA01331EBF4FF0FE4040F46D
:100B00004000704701F0004040F0FE4040F400001B
:100B1000704700BF7BB972B90029BEBF00204FF0FB
:100B2000004106E008BF00281CBF6FF000414FF0F5
:100B3000FF3000F0C9B9ADF1080C6DE904CE002911
:100B400009DB002B1ADB00F04DF8DDF804E0DDE9ED
:100B5000022304B07047404261EB4101002B1BDBD4
:100B600000F040F8DDF804E0DDE9022304B0404283
:100B700061EB4101524263EB43037047524263EB26
:100B8000430300F02FF8DDF804E0DDE9022304B0B0
:100B9000404261EB41017047524263EB430300F076
:100BA00021F8DDF804E0DDE9022304B0524263EBF2
:100BB0004303704753B94AB9002908BF00281CBF36
:100BC0004FF0FF314FF0FF3000F07EB9ADF1080C6F
:100BD0006DE904CE00F006F8DDF804E0DDE902235B
:100BE00004B070472DE9F0478C460E460446089D38
:100BF000002B50D18A4217466CD9B2FA82FEBEF160
:100C0000000F0BD0CEF1200420FA04F401FA0EF606
:100C100044EA060C02FA0EF700FA0EF44FEA1749FE
:100C2000220CBCFBF9F01FFA87F809FB10C642EA58
:100C3000064600FB08F3B34209D9F61900F1FF326A
:100C400080F02281B34240F21F8102383E44F61AFE
:100C5000A2B2B6FBF9F309FB136642EA064403FBB2
:100C600008F8A04509D9E41903F1FF3280F00A81A0
:100C7000A04540F20781023B3C44C8EB040443EA30
:100C800000400021002D62D024FA0EF400232C60D5
:100C90006B60BDE8F0878B4207D9002D55D000214D
:100CA00085E841000846BDE8F087B3FA83F10029E2
:100CB00040F09080B34202D3824200F2F880841A5E
:100CC00066EB03060120B446002D40D085E81010E5
:100CD000BDE8F08712B90127B7FBF2F7B7FA87FE34
:100CE000BEF1000F35D1F31B4FEA17481FFA87FCFE
:100CF0000121B3FBF8F0220C08FB103642EA06464D
:100D00000CFB00F3B34207D9F61900F1FF3202D20F
:100D1000B34200F2CE801046F61AA2B2B6FBF8F348
:100D200008FB136642EA06440CFB03FCA44507D902
:100D3000E41903F1FF3202D2A44500F2B580134654
:100D4000CCEB040443EA00409CE729462846BDE872
:100D5000F087CEF1200106FA0EF307FA0EF720FA1B
:100D600001F94FEA1748CE4049EA0309B6FBF8FA01
:100D70004FEA194408FB1A661FFA87FC44EA064347
:100D80000AFB0CF29A4200FA0EF40AD9DB190AF1B6
:100D9000FF3180F087809A4240F28480AAF1020AF3
:100DA0003B449B1A1FFA89F9B3FBF8F108FB113396
:100DB00049EA034301FB0CF69E4207D9DB1901F116
:100DC000FF326BD29E4269D902393B449B1B41EAF8
:100DD0000A418EE7C1F1200E22FA0EF48B40234324
:100DE00020FA0EF706FA01F44FEA134C26FA0EF633
:100DF0003C43B6FBFCF9270C0CFB19661FFA83F881
:100E000047EA064609FB08F7B74202FA01F200FA80
:100E100001FA08D9F61809F1FF3041D2B7423FD99B
:100E2000A9F102091E44F61BA0B2B6FBFCF40CFBB0
:100E3000146640EA064704FB08F8B84507D9FF18CE
:100E400004F1FF3028D2B84526D9023C1F4444EAB9
:100E50000940C8EB0707A0FB02894F4544464E46B0
:100E600014D329D065B3BAEB040367EB060707FA7E
:100E70000EFECB40CF404EEA030385E888000021F8
:100E8000BDE8F0871346F8E61046E0E6B8EB02044A
:100E900069EB03060138E5E70446D8E7114695E714
:100EA0008146C0E78A467CE7023B3C4448E7084667
:100EB0000AE702383E442FE7C245E7D33E46D1E772
:100EC0002946BDE8F08700BF704700BF044B1B7880
:100ED000037132210822032341718271036070473C
:100EE000000000200268012A64D9F0B50679322E8C
:100EF00083B002D0002003B0F0BD84790C2C0546ED
:100F000000F0398120D9622C00F0218154D80E2CB8
:100F100072D0602CEED1022AECD04379B54A2B7105
:100F2000E023AB7110686E710DF1070104F04CFD08
:100F30009DF80730002B5AD104220321E81D00F050
:100F4000B9FF07232B6052E0022C00F0B78040F27B
:100F5000A580082C6ED0092CCCD1022ACAD0A64B71
:100F6000A64800241C7003F09BF9A24B186804F0FB
:100F700013FDA34B186804F03BFEA24B186804F065
:100F80009DFBA14B186804F0FBF9A04B186804F016
:100F9000BFFA9F4B186804F03FFCAB7969799D4A12
:100FA0002971803B2846AB716E71146000F034FAF1
:100FB0000120A0E700207047762C28D07A2C99D108
:100FC000022A97D04379924A2B71FA23AB711068A9
:100FD0006E710DF1070104F037FC9DF8073033B94D
:100FE00004220221E81D00F065FF07232B6028463C
:100FF00000F012FA01207EE7032A7FF47BAF4179EB
:1010000002608E23017146718371012073E7022A09
:101010003FF470AF43797D4A2B71F623AB711068B2
:101020006E710DF1070104F08BFA9DF80730002B6B
:10103000DDD181E7022A3FF45DAF0421073000F0E3
:101040002DFF744CC307206000F1C380870700F1B7
:10105000BA80460700F1B180C10600F1A88082067F
:1010600000F19F80430603D5694B186804F0C4FB68
:101070006248614E03F008F9AB7967496A790A70F2
:10108000803B01243220032134706871AB71284603
:101090002A71296000F0C0F920462CE7012C7FF46A
:1010A00029AF032A7FF426AF4179026081230171C1
:1010B0004671837100F0B0F920461CE7032A7FF4E3
:1010C00019AF554B4279027103F1100103F1080089
:1010D000EA1D05F10F048227914288BF84426E7198
:1010E000AF717CD851077AD1D3E90201C2E900017E
:1010F000D3E90401C4E90001D3E9060105F11702AF
:10110000C2E90001D3E9080105F11F02C2E90001AB
:1011100093F8282085F8272093F8292085F828209F
:1011200093F82A2085F8292093F82B2085F82A2087
:1011300093F82C2085F82B2093F82D3085F82C304F
:10114000292328462B6000F067F90120D3E6022A04
:101150003FF4D0AE43790371E223837146710422D8
:101160000121073000F0A6FE072328462B6000F07F
:1011700053F90120BFE6022A3FF4BCAE4379037164
:101180008C220323467182710360427A017AC0790E
:1011900000F04AFD6B7B2A7BE97AA87A00F02CFDEF
:1011A00025E71A4B186804F0A3F920685AE7164B94
:1011B000186804F0D5F8206851E7124B186804F05D
:1011C0006DFA206848E70E4B186804F001FD2068AE
:1011D0003FE7084B186804F0CFFB206836E70F4B59
:1011E000AA1D03F1260013F8011F02F8011F834214
:1011F000F9D1A5E770040020A00400204C0D0020C8
:10120000680400206C0400205C04002060040020BE
:1012100064040020A4040020000000200700002037
:101220000AF012BF0AF074BF0AF086BF0AF0A0BF2E
:101230000BF056BB0BF066BB10B50C460BF074FB05
:10124000206010BD30B587B0054603A80C460BF0F2
:1012500037FBDDED037ADFED256A2B686968F5EE73
:10126000C07AF1EE10FAACBFB6EE007ABEEE007AAC
:10127000A7EEA67ADFED1D6AFDEEC77ACDED017A05
:10128000DDED047ABDF80420F5EEC07AF1EE10FA37
:10129000ACBFB6EE007ABEEE007AA7EEA67A12B226
:1012A0009A1ADFED126A2260FDEEC77AAA68CDEDC8
:1012B000017ADDED057ABDF80430F5EEC07AF1EE85
:1012C00010FAACBFB6EE007ABEEE007AA7EEA67AB0
:1012D0001BB2CB1A6360FDEEC77ACDED017ABDF883
:1012E00004301BB2D31AA36007B030BD00007A44AB
:1012F000B5EEC00AF1EE10FA9FED097AACBFF6EE3A
:10130000007AFEEE007AE0EE077A82B0FDEEE77A30
:10131000CDED017ABDF8040000B202B0704700BF05
:1013200000007A442DE9F04F814683B0374800F041
:101330002BF918B1002003B0BDE8F08F334800F05E
:1013400081F9334BC0F500709C8883B2A34236BF4D
:10135000C4F5007BC4EB030B9B4401931FFA8BF392
:101360000093002BE6D04FF0000ADFF8A8B05546F6
:10137000D046564605E00136009B1FFA86F84345E5
:101380003CD9621C1BF8043094B2B4F5007F28BF2E
:101390000024F02BEFD11E4B9C880EB3002701E0F8
:1013A00047451DD204F1010ACAF3080A09EB0502F8
:1013B0001BF804001BF80A10043200F091FCC0B2C4
:1013C00083B21F4401352344BFB2C3F30804ADB256
:1013D0000028E5D10E4BA3F804A003B0BDE8F08FC0
:1013E00001340B4BC9F80050C4F3080448469C80F4
:1013F00000F0EEFC0028BED001209CE7B3F5807F12
:1014000098D9034BBDF804209A8093E73807002051
:10141000800700204808002070B5084C054600F001
:1014200071FC2946204600F02BFC214682B241F295
:1014300088330348BDE8704003F0F2B8480A002042
:1014400088070020334BF0B5DA6C334C42F00102D0
:10145000DA64DA6C8BB002F001020192019ADA6C64
:1014600042F00102DA64DA6C02F001020292029A9E
:101470009A6D42F400329A659A6D02F4003203923A
:10148000039A9A6C42F001029A649B6C03F0010388
:1014900000250422049305A9022307264FF090405B
:1014A000059206930893049F0795099600F068FF3C
:1014B00008234FF0904005A90593099600F060FFBE
:1014C000164B174A1B68636020460C23A560E56035
:1014D0002561A5612260636103F024FA10B100F078
:1014E000BDFBFEE70F4D104E0746284600F0AEF854
:1014F000284600F08FFE4FF4007331461A4620460E
:10150000E566AC6267676665A4F8583003F014F9C5
:101510000BB0F0BD00100240880700203000002012
:10152000004400403807002048080020F0B597B07C
:1015300010200123022260270026282507240421E9
:10154000059005A80B93109311930D970C960F928D
:10155000159212951394149101F0BCFC80B90023EC
:101560000F240322042168460094019202930393FE
:10157000049301F0B1FF08B100F070FB17B0F0BDAB
:1015800000F06CFBEBE700BF0368294A934219D9CE
:10159000284902F560728B4212682FD014318B42B9
:1015A00032D014318B4231D014318B4237D01431C8
:1015B0008B423AD0204883420CBF4FF400034FF0D7
:1015C00000631CE01D4A1E499342086813D0143280
:1015D000934217D0143293421ED01432934221D03A
:1015E0001432934215D0143293420CBF4FF40003CF
:1015F0004FF0006300E0082318407047082303EA17
:10160000020070478023F7E78023F8E74FF4006378
:10161000F5E74FF40023EFE74FF40063ECE74FF4F6
:101620000043ECE74FF40043E6E74FF40023E6E71E
:1016300080000240080402406C040240080002409E
:101640000000024003685868704700BF30B4094B7F
:1016500003608025002320244FF4405102220561BD
:10166000C461016242608360C3604361836130BCD6
:10167000704700BF6C0002402DE9F04F2DED028B4A
:10168000ADB000F02FFDFFF751FF00220E214FF00B
:10169000FF3000F061FD002004F0D4FA01210020A9
:1016A00004F00AFB4A4B4B4C9A6C42F480529A6409
:1016B0009B6C03F48053214601934FF0FF30019B54
:1016C00003F058FD9FED440A206803F083FE211DBE
:1016D0004FF0FF3003F08EFE9FED3F0A606803F08D
:1016E00049FF0221606803F055FF04F108014FF043
:1016F000FF3004F00DF804F10C014FF0FF3004F05E
:101700007DF904F110014FF0FF3003F053FF04F1B5
:1017100014014FF0FF3004F0B1F89FED2F0AFFF7EE
:101720007FFD694612A8FFF787FD0CA8FFF77AFD39
:101730002A4A2B4B0C920CA80D93FFF775FD002342
:1017400003A8039304930593FFF772FD9FED220A0C
:10175000FFF770FD0125FFF775FE0C2200231BA883
:101760001B92259320931D9501F0B4FB7F22F0B1CD
:10177000F923A5616262A36223641A4BE3614022EC
:10178000002319482262E3626363A36302F0AEFAA6
:1017900000B1FEE72CAF4FF0013347F88C3D01223A
:1017A0003946114802F010FC034630B1FEE7FF2332
:1017B000A0616262A3622364DFE701221BA90A48D9
:1017C0001B931E931F9302F005FB064670B1FEE7C4
:1017D000001002405C040020000048426F12033CED
:1017E0009A99193E0028004078040020C64DC74948
:1017F000A86049F63F422723284685E806002E6167
:10180000EB6002F0BDFC4FF4805328461BA91B93EC
:1018100002F05CFD3946284609960B9602F0D0FE90
:10182000304604F035FA4FF4FA7000F075FC30469B
:1018300004F038FAB64EDFF80C93DFF8E482B54DC9
:101840009FEDB58AB246B248FFF76CFD20B19AF819
:101850000430322B00F0D58094F84430002BF2D0C5
:1018600095F84530002BEED04FF0000B5A461BA9DF
:10187000AA4885F845B002F071FB5A463946A74898
:1018800002F04EFC286C1C9A9DF86C10AB6C9DF815
:101890006DE0F171821A642101FB02F286F808E022
:1018A000D9069DF86EE08DF86CB000F1010086F865
:1018B00009E092FBF0F2B27200F1A78000228DF8ED
:1018C0006C209A0600F1B180002258068DF8242081
:1018D00000F1BC80002259078DF8242000F1C68059
:1018E00000228DF824209A0700F1D1800022DB0726
:1018F0008DF8242000F1DC80D9ED007AB8EEE75AAB
:10190000D9ED017AF8EEE75AD9ED027AB8EEE76A36
:10191000D8ED007AF8EEE76AD8ED017AB8EEE77A0A
:10192000D8ED027AF8EEE77AC5EE084A4FF0000BE0
:101930005846CDF808B085EE885AC6EE085A86EEAD
:10194000886AC7EE086A87EE887ACDED1B4A8DED6E
:101950001C5ACDED1D5A8DED1E6ACDED1F6A8DED21
:10196000207A04F095F902AA06A91BA8FFF75EFCED
:10197000584604F097F939466948FFF763FC9DED36
:10198000060AFFF7B5FC04220146664800F092FA09
:101990009DED070AFFF7ACFC04220146624800F007
:1019A00089FA9DED080AFFF7A3FC042201465F486F
:1019B00000F080FA042209995D4800F07BFA0422C5
:1019C0000A995C4800F076FA04220B995A4800F014
:1019D00071FA04220299594800F06CFA4C48FFF75A
:1019E00075FA53234A483360FFF716FD4848FFF75E
:1019F00099FC00283FF430AF9AF80430322B7FF482
:101A00002BAF4348FFF76EFA26E71BA9286803F0BF
:101A1000C7FC18B99DF86C30012B5DD0A36C002277
:101A20008DF86C209A067FF54FAF1BA9606803F014
:101A30007FFD20B99DF86C30012B00F0A080A36CD5
:101A4000002258068DF824207FF544AF3946A0685F
:101A500003F0F2FE18B99DF82430012B7AD0A36C64
:101A6000002259078DF824207FF53AAF39462069C6
:101A700003F034FE20B99DF82430012B00F0A08043
:101A8000A36C00228DF824209A077FF52FAF3946EA
:101A9000E06804F0BDF820B99DF82430012B00F077
:101AA0008680A36C0022DB078DF824207FF524AF0D
:101AB0003946606903F080FF00287FF41DAF9DF870
:101AC0002430012B7FF418AF1BA9686903F084FF51
:101AD0001B4B1B9818600FE71A49286803F068FC35
:101AE0000422D9F80010184800F0E4F90422D9F8CB
:101AF0000410164800F0DEF90422D9F80810144842
:101B000000F0D8F9AB6CD9E64C0D00200004004081
:101B1000480C00205C04002000007A447804002077
:101B20008C0D0020830C0020870C00208B0C0020E3
:101B30008F0C0020930C0020970C00209B0C0020A1
:101B4000530C0020980D00205F0C0020630C002037
:101B5000670C00201BA9A86803F07EFE04221B99D5
:101B60001C4800F0A7F904221C991B4800F0A2F9B8
:101B700004221D99194800F09DF9AB6CAAE618499A
:101B8000686803F0E5FC0422D8F80010154800F05E
:101B900091F90422D8F80410134800F08BF90422BC
:101BA000D8F80810114800F085F9AB6C8CE61BA939
:101BB000E86804F035F80E4A1B98AB6C106095E6A7
:101BC0001BA9286903F092FD0A4A1B98AB6C1060B0
:101BD00086E600BF770C00207B0C00207F0C0020E5
:101BE0008C0D00206B0C00206F0C0020730C00206B
:101BF000570C00205B0C002010B5002463F3070491
:101C000082B061F30F2462F3174402A960F31F64EA
:101C100041F8044D0022034802F0D6F900B1FEE776
:101C200002B010BD7804002000B587B000238DF805
:101C300004008DF805108DF8062001A91A46064803
:101C40008DF8073002930493059302F0C3F800B1B6
:101C5000FEE707B05DF804FB78040020FEE700BF54
:101C6000704700BF0268044B9A4200D07047034B94
:101C7000012283F845207047000400405C040020E6
:101C80000A68F0B5074642B300221046CD1C4FF05B
:101C9000F10C4FF0F20E09E0F12B1BD123706370B1
:101CA00002260B680130834232440FD915F8013FF8
:101CB000F02B07EB0204EFD107F802C084F801E033
:101CC0000B680130022683423244EFD8501CF023C7
:101CD000BB54F0BD01262370E3E70120F7E700BF06
:101CE000F12802D0107001207047F12903D0F229A9
:101CF00004D000207047117002207047F023137049
:101D0000022070470268002A5CD0F0B5141FA408B6
:101D1000531E0134042B4FEA840550D900273E4658
:101D200000F1040E5EF8043B03F07F316FEA030C10
:101D3000C1F180310CF080334B4003F07F3101372B
:101D4000734006F07F3603F080330E44BC4286EACF
:101D50000306E7D8C6F307233344C6F307441C44FD
:101D600004EB166395422946DBB223D045184C1C80
:101D70002D799442A3EB0503DBB21BD205198C1C11
:101D80002D79A242A3EB0503DBB213D90519CC1CB4
:101D90002D79A242A3EB0503DBB20BD90444043135
:101DA00024798A42A3EB0403DBB203D90144097905
:101DB0005B1ADBB2511C024413710160F0BD0021BB
:101DC0000B46D3E7134602440121137101607047AB
:101DD0000168F0B500295CD00D1FAD084F1E01351C
:101DE000062F4FEA850251D90026334600F1040C34
:101DF0005CF8044B013604F07F3E5C4003F07F3317
:101E000004F080347344AE4283EA0403F0D3C3F396
:101E100007241D19C3F307442C4404EB13639142B8
:101E2000DBB22DD08518541C2D798C422B44DBB2AB
:101E300026D20519941C2D79A1422B44DBB21FD95F
:101E40000519D41C2D79A1422B44DBB218D90519F0
:101E5000141D2D79A1422B44DBB211D90519541D53
:101E60002D79A1422B44DBB20AD9044406322479ED
:101E700091422344DBB203D9024412791344DBB20A
:101E8000B3FA83F35B0907601846F0BD00221346DE
:101E9000C8E701234FF0FF37F5E700BF01394318CA
:101EA000425C29B113F8011D984201EB0222F9D1DD
:101EB0001046704732B1024400F8011B90424FEACD
:101EC0002121F9D1704700BF284B00B59A6D42F02F
:101ED00080529A659B6DB5B003F080530093009BD0
:101EE00000F06AFF224B1B680C2133BB012201A8C2
:101EF0000B9306930191039200F0ECFF98BB4FF413
:101F000000324FF4807312A81292339301F0D6FC82
:101F100008B1FFF7A3FE154AD2F8903043F400430E
:101F2000C2F890300F210022292000F015F9292055
:101F300000F04AF935B05DF804FB0023012201A846
:101F400001910B930393069200F0C4FF20B94FF464
:101F500000324FF40073D6E7FFF780FE4FF40032F3
:101F60004FF40073CFE7FFF779FEC8E70010024097
:101F70007404002002680E4B9A4200D0704703F5AB
:101F8000033300B59A6D42F002029A659B6D83B0EF
:101F900003F00203019300220F211D20019B00F09A
:101FA000DBF81D2000F010F903B05DF804FB00BF62
:101FB00000040040704700BFFEE700BF704700BF4D
:101FC00000F09CB8014802F051BA00BF4C0D00204F
:101FD0004FF4005000F0F4BA70B5161E07DD0C4641
:101FE0008D19AFF3008004F8010BA542F9D13046FA
:101FF00070BD00BF70B5161E07DD0C468D1914F8B4
:10200000010BAFF30080A542F9D1304670BD00BF8F
:102010000A4A08B5136873B118446946884202D861
:102020001060184608BD0AF06DFD0C2303604FF0E8
:10203000FF33184608BD024B1360EDE7A8040020EB
:10204000C00D00204FF0FF30704700BF4FF4005329
:102050004B600020704700BF012070470020704790
:10206000DFF834D0002103E00C4B5B5843500431BF
:102070000B480C4B42189A42F6D30B4A02E000235D
:1020800042F8043B094B9A42F9D302F077FE0AF07A
:102090003FFDFFF7F1FAFEE70080012058DB000862
:1020A000000000204004002040040020C00D00205B
:1020B000FEE70000704700BF084B094A1B6810B5D7
:1020C000A2FB03230446980900F08AF82146002267
:1020D0004FF0FF3000F040F8002010BD3400002029
:1020E000D34D621008B5032000F024F80F20FFF74D
:1020F000E3FFFFF7DFFF002008BD00BF024A1368BF
:1021000001331360704700BFA40D0020014B186815
:10211000704700BFA40D002038B50446FFF7F6FF56
:10212000631C054618BF0134FFF7F0FF401B8442D3
:10213000FAD838BD074AD1684FF6FF030B400002BA
:1021400043F0BF6300F4E06043F400330343D36023
:10215000704700BF00ED00E0194BDB68C3F30223BA
:1021600030B4C3F10705042D03F1040428BF04258E
:10217000062C18D9033B01249C40013C2240012439
:10218000AC40013C214001FA03F3002842EA03027B
:102190000CDB00F1604000F561401201D2B280F822
:1021A000002330BC704700221346E8E7054B00F0DF
:1021B0000F0012010344D2B21A7630BC704700BF40
:1021C00000ED00E0FCEC00E000F01F0101234009FD
:1021D000024A8B4042F82030704700BF00E100E027
:1021E0000138B0F1807F0ED2084B10B4084C586013
:1021F000F02084F823000022072110469A6019601D
:102200005DF8044B70470120704700BF10E000E00C
:1022100000ED00E0002851D0F0B5324A0468944245
:10222000034641D9304A3149DFF8D0E02244A1FBCE
:102230000212120992009F68DD681E695869C3F88E
:1022400040E002213D4383F8251035439969DE695A
:102250005A6405430D4320682E431D6A20F4FF4154
:10226000354321F070012943B7F5804F21600FD02D
:102270001F498E4524D01F490F200C68904024EA46
:10228000000008605C68086804FA02F202430A6011
:1022900000200122D863D86218635863986383F8DA
:1022A000240083F82520F0BD134A1049DFF840E0F0
:1022B0002244A1FB021212099200BCE701207047E0
:1022C000D1F8A8400F20904024EA0000C1F8A800EF
:1022D0005C68D1F8A80004FA02F20243C1F8A82011
:1022E000D6E700BF07040240F8FBFDBFCDCCCCCC45
:1022F00000000240A8040240F8FFFDBF00040240B5
:10230000F0B590F82440012C0CD090F82540012520
:10231000E4B2AC4280F8245006D0002380F8243088
:102320000220F0BD0220F0BD05680227002680F8DB
:102330002570C6632E68076C26F0010E466CC5F842
:1023400000E0B44086687C606B60036B102E0BBFAE
:10235000AA60A960E960EA604BB12B6843F00E0304
:102360002B602B6843F001032B600020F0BD2B682D
:1023700023F004032B602B6843F00A032B60F0E783
:102380008C460968002900F003812DE9F04FDFF841
:1023900020E283B0002588E04FEA45080323D0F807
:1023A000009003FA08F3DB4304F0030A09EA030987
:1023B0000AFA08FB013F4BEA0909012FC0F8009017
:1023C00040F2A780BAF1030F00F0BB80C768DCF8C9
:1023D00008203B4002FA08F21343C360E30060D5D3
:1023E0006C4B6C4A1B6E43F001031366136E25F0B1
:1023F000030202F1804203F0010302F580320193EF
:1024000005F00303019FD2F8089098460F279B0020
:102410009F40B0F1904F29EA070900F09F805E4F7E
:10242000B84200F09D805D4FB84200F09D805C4F47
:10243000B84200F09E805B4FB84200F09F805A4F38
:10244000B84200F0A080594FB8420CBF4FF00608C8
:102450004FF0070808FA03F343EA09039360DEF834
:102460000030F243E7034CBF33431340CEF8003053
:10247000DEF80430A7034CBF33431340CEF80430DA
:10248000DEF80830E7024CBF33431340CEF8083083
:10249000DEF80C30A40254BF02EA03061E43CEF855
:1024A0000C60013531FA05F355D0012303FA05F22A
:1024B00012EA0106F5D0DCF8044024F01007022FE0
:1024C0007FF46AAF4FEAD50A00EB8A0A05F00709E4
:1024D000DAF82030DCF810704FEA89094FF00F0865
:1024E00008FA09F823EA080807FA09F343EA080397
:1024F000CAF820304FEA45080323076803FA08F3B7
:10250000DB4304F0030A1F400AFA08F949EA070707
:102510000760876807EA0309DCF80C7007FA08F718
:1025200047EA090787604768C4F3001927EA0207EA
:1025300009FA05F949EA0707BAF1030F47607FF482
:1025400045AFC76AC4F3C00927EA02024F46AF404D
:102550003A43C2623AE703B0BDE8F08F00237BE75D
:10256000012707FA03F377E74FF0020808FA03F3AD
:1025700072E74FF0030808FA03F36DE74FF0040821
:1025800008FA03F368E74FF0050808FA03F363E776
:10259000704700BF001002400004004800080048D7
:1025A000000C0048001000480014004800180048C3
:1025B000000401400AB9816270478161704700BF21
:1025C000044A5169014200D1704708B55061FFF7D4
:1025D00047FB08BD0004014070B504460D46164691
:1025E0006B1C226828D19369980728D49369D9066F
:1025F000F9D593699D06FCD510212023D161D361C3
:102600009369980744BF002393629369D90703D461
:10261000936943F00103936151681F4B04250B40FC
:10262000202000215360656484F8401084F8410044
:1026300084F84210012070BD93699B0701D50020EA
:1026400070BD9369D90619D425B1FFF75FFD801BD2
:102650008542C5D2636C202100220B43636484F859
:10266000402084F84110032084F8422070BD4DB111
:10267000FFF74CFD801B854204D3226893699B06BB
:10268000F5D5B9E70023202284F8412084F84030B2
:1026900084F84230012070BD00E800FE70B50446A9
:1026A00016460D4629B93BE0FFF730FD801B8542F9
:1026B0003DD322689369980646D49369D906F3D529
:1026C000681C22D193699906FCD510212023D16181
:1026D000D3619369980744BF002393629369D90734
:1026E00003D4936943F00103936151681D4B0425A2
:1026F0000B40202000215360656484F8401084F86A
:10270000410084F84210012070BD93699B06DCD41F
:10271000E5B1FFF7FBFC801B854217D32268CFE7AA
:10272000026893699B061BD49369DB06C8D4636C6B
:10273000202100220B43636484F8402084F8411078
:10274000032084F8422070BD002070BD00232022A9
:1027500084F8412084F8403084F84230012070BD74
:10276000084670BD00E800FE2DE9F84307682B4CD1
:10277000D7F804E0089E0EEA040444F00044C1F3D4
:10278000090144F400540C43D9B244EA014491468F
:102790007C60099A314605469846FFF71DFF68B9E7
:1027A000B8F1010F044610D02B684FEA19229A6243
:1027B0003146099A2846FFF70FFF30B16B6C042BA6
:1027C0001FD003242046BDE8F88329685FFA89F307
:1027D0008B62731C07D18B6903F04003002BFAD086
:1027E0002046BDE8F8838B6903F04003002BE9D154
:1027F0005EB1FFF78BFC099BC01A864205D329689E
:10280000E7E701242046BDE8F8830023202285F86D
:10281000412085F8403085F84230D2E7009800FC2E
:102820002DE9F84307682B4CD7F804E0089E0EEA20
:10283000040444F00144C1F3090144F400540C437E
:10284000D9B244EA014491467C60099A3146054672
:102850009846FFF7C1FE68B9B8F1010F044610D0E1
:102860002B684FEA19229A623146099A2846FFF7E7
:10287000B3FE30B16B6C042B1FD003242046BDE89F
:10288000F88329685FFA89F38B62731C07D18B691F
:1028900003F08003002BFAD02046BDE8F8838B6953
:1028A00003F08003002BE9D15EB1FFF72FFC099BF9
:1028B000C01A864205D32968E7E701242046BDE80F
:1028C000F8830023202285F8412085F8403085F8E0
:1028D0004230D2E7009800FC704700BF002850D07B
:1028E000F8B590F84130044603F0FF02002B3FD0CA
:1028F0002368E068242284F841201968626821F086
:10290000010122F0706219601A619A68012822F4AC
:1029100000429A60A26830D042F4044202289A60D1
:1029200004BF4FF400625A6058686169256A2269E1
:10293000A769E66940F0007040F400405860D8682C
:102940000A4342EA072246EA050120F40040D86023
:10295000DA6019601968002241F001012025196030
:102960001046626484F84150226384F84220F8BD26
:1029700080F84020FFF7B0FFBAE742F400429A60C7
:10298000D2E70120704700BF704700BFB0B10268B6
:10299000242310B580F84130136823F00103044666
:1029A0001360FFF7F1FF0023636484F8403084F87C
:1029B00041301846236384F8423010BD012070472F
:1029C0002DE9F04790F8414082B0202CBDF82C5002
:1029D00003D0022002B0BDE8F0870A9C002C40D052
:1029E000002D3ED090F84040012CF2D01F4601232C
:1029F00080F84030164688460446FFF787FB81463C
:102A000005E0FFF783FBC9EB000019282BD82368EA
:102A1000986900F400400028F3D10A9B63622120EA
:102A200040214FF0000A0C9B0093CDF804903B46E8
:102A300084F84100324684F84210C4F834A0C4F847
:102A400044A0414665852046FFF7EAFEA0B1636CCD
:102A500084F840A0042B04D00320BBE7636C042B54
:102A6000FAD10120B6E70023202284F8412084F81F
:102A7000403084F84230EFE7638D9BB2FF2B67D97B
:102A80002268474B51680B4043F0FF73C8F30908B5
:102A900043F4803343EA0803FF2121855360FF2577
:102AA00003E0638D9BB2002B64D04A460C9920460C
:102AB000FFF792FD0028D1D1626A2168238D501C56
:102AC000606212788A62628D013B013A92B29BB2D7
:102AD00062852385002BE4D1638D9BB2002BE0D06F
:102AE0000C9B013314D18B6903F08003002BFAD0C7
:102AF000638D9BB2FF2B1CD94A68294B2585134057
:102B000043F0FF7343F4803343EA08034B60C8E7A4
:102B10008B6903F08003002BEAD10C9B002BA2D021
:102B2000FFF7F4FA0C9BC9EB000083429BD32168AA
:102B3000D7E7628D1A4B486892B2034043F00073A6
:102B4000D0B243EA004343EA080322854B60A8E77A
:102B50002168628D124B486892B2034043F00073C3
:102B6000D0B2C8F3090843EA004343EA08032285C8
:102B70004B6094E74A460C992046FFF78FFD0028EA
:102B80007FF46CAF2368074A2021D9615D682A4031
:102B90005A6084F8411084F8400084F8420019E734
:102BA000009C00FC00E800FE2DE9F04790F8414051
:102BB00082B0202CBDF82C5003D0022002B0BDE81A
:102BC000F0870A9C002C48D0002D46D090F8404059
:102BD000012CF2D09946012380F8403017460E466A
:102BE0000446FFF793FA804605E0FFF78FFAC8EB3B
:102BF0000000192841D82368986900F40040002893
:102C0000F3D10A9B6362222040214FF0000A0C9B03
:102C10000093CDF804804B4684F841003A4684F88E
:102C20004210C4F834A0C4F844A03146658520465B
:102C3000FFF79AFD58B3636C84F840A0042B0CD0C6
:102C40000320BBE742460C992046FFF727FD0028EA
:102C500000F09780636C042BF2D10120AEE79369FA
:102C600003F08003002B5DD10C9B33B1FFF74EFACC
:102C70000C9BC8EB000083424CD20023202284F836
:102C8000412084F8403084F84230032096E7638D79
:102C900022689BB2FF2B62D950684149414B0140E9
:102CA0000B43C6F309063343FF21218553600C9B78
:102CB000FF2501331CD1936903F00403002BFAD0E4
:102CC000636A526A591C61621A70238D628D013BDE
:102CD000013A9BB292B22385628513B9638D9BB290
:102CE000BBB9638D9BB2002BACD022680C9BE0E794
:102CF000936903F00403002BE2D10C9B002BBCD0A2
:102D0000FFF704FA0C9BC8EB00008342B5D322689E
:102D1000CFE70C9B22680133A1D1936903F08003B4
:102D2000002BFAD0638D9BB2FF2B0AD951681E4B42
:102D300025850B4043F0FF7343F4803333435360E6
:102D4000CFE7618D184B506889B2034043F00073A0
:102D5000C8B243EA0043334321855360C1E7618D24
:102D60000F4B5068034089B243F00243C8B243F4AA
:102D70001053C6F3090643EA0043334321855360E9
:102D800095E72368094A2021D9615D682A405A6085
:102D900084F8411084F8400084F842000EE700BF38
:102DA000009800FC0024FF81009C00FC00E800FE6D
:102DB00090F84100704700BF024A136843F48073E3
:102DC0001360704700700040024B186800F4C06048
:102DD000704700BF007000403A4B9A6812F00C0F29
:102DE00030B439D09A6802F00C020C2A2FD0354A40
:102DF000936803F00C03042B55D0936803F00C0385
:102E0000082B5CD02F4CA16801F00C0100200C298C
:102E100005463DD1E168E26801F00301C2F3021208
:102E2000022902F1010341D0032933D0B5FBF3F3AA
:102E3000E268C2F3062203FB02F3224AD068C0F321
:102E400041600130400030BCB3FBF0F07047DB68FC
:102E500003F00303012BCAD11A4B1B491A6812074E
:102E600054BFD3F894301B68164A54BFC3F30323EE
:102E7000C3F30313926851F8235012F00C0F0CBFE8
:102E8000284600200F4CA16801F00C010C29C1D08C
:102E900030BC7047E0680D4AB2FBF3F2C0F3062085
:102EA00002FB00F3C9E70A480025EBE7E0680849A0
:102EB000B1FBF3F2C0F3062002FB00F3BDE70348C9
:102EC0000025DFE7001002404CD9000800127A000C
:102ED0000024F4002DE9F0410368DC0684B00546C7
:102EE0005DD5AB4B9A6812F00C0F40F044811B6823
:102EF000980703D5AB69002B00F0CA81A44B2C6A5C
:102F00001A68A34E110756BFD3F894301B681B09EB
:102F100003F0F003A34280F08B81B36DDA0040F13F
:102F20003E82FFF751FFB0F5007F00F08382802CD6
:102F300000F2628200F0CA82A4F17004B4FA84F450
:102F40006409944A136823F007032343136013684A
:102F500003F007039C4240F09B818D4B1A6842F0BE
:102F600008021A6019682A6A21F0F0010A431A60FF
:102F70005A68E96922F47F4242EA01225A60FFF767
:102F80002BFF834B84499B68844AC3F30313CB5CB8
:102F900020FA03F30F201360FFF78EF82B68D90790
:102FA0002FD57B498A6802F00C02082A00F08C8138
:102FB0008A6802F00C020C2A00F080816B68B3F57D
:102FC000803F00F08B81B3F5A02F00F00882704C99
:102FD000226822F480322260226822F48022226059
:102FE000002B40F08081FFF791F8064605E0FFF7DF
:102FF0008DF8801B642800F2AA8123689F03F6D411
:103000002B689E072BD562498A6802F00C02042ABD
:1030100000F07D818A6802F00C020C2A00F07181B8
:10302000EB685B4C002B00F03781236843F480731E
:103030002360FFF76BF8064605E0FFF767F8801B93
:10304000022800F284812368514A5805F5D5536857
:10305000296923F0F85343EA016353602B681A0788
:1030600019D56B694A4C002B00F0CD80D4F8943010
:1030700043F00103C4F89430FFF748F8064605E032
:10308000FFF744F8801B022800F26181D4F89430E5
:103090009B07F5D52B685E073ED53D4B9A6DD40056
:1030A00000F159819A6D42F080529A659B6D03F050
:1030B00080530193019B0126394C2368D80540F1C8
:1030C0003681AB68012B00F0A681052B00F045810D
:1030D0002F4CD4F8902022F00102C4F89020D4F8AC
:1030E000902022F00402C4F89020002B40F042818E
:1030F000FFF70CF841F28837804606E0FFF706F844
:10310000C8EB0000B84200F22281D4F890309B074F
:10311000F4D4002E40F07981AA6A42B31C4B99681E
:1031200001F00C010C2900F0B380022A1A6822F089
:1031300080721A6000F085811A68110103D41A6840
:10314000920040F15D81124CE36823F0887323F410
:103150008033E360FEF7DAFF054605E0FEF7D6FFB1
:10316000401B022800F2F38023689B01F6D4002064
:1031700004B0BDE8F0818269002A30D01A6842F0BC
:1031800001021A601C46FEF7C1FF064610E000BFB0
:1031900000100240002002407CD9000834000020CA
:1031A00000700040FEF7B2FF801B022800F2CF80C3
:1031B0002368A64A9F07F5D5136843F008031360F8
:1031C00011682B6A21F0F0010B4313605368E96921
:1031D00023F47F4343EA012353602B68DFE61A6838
:1031E00022F001021A601C46FEF790FF064605E039
:1031F000FEF78CFF801B022800F2A9802368980745
:10320000F6D42B68CBE6D4F8943023F00103C4F84D
:103210009430FEF77BFF064605E0FEF777FF801B44
:10322000022800F29480D4F894309F07F5D431E757
:10323000336843F008033360336823F0F00323431B
:1032400033607368EA6923F47F4343EA02237360BF
:10325000B36DDB0040F1B380FFF7B6FDB0F5007F42
:1032600000F0E180802C00F2C98000F03181A4F1EF
:103270007004B4FA84F46409754A136823F00703F0
:1032800023431360136803F007039C423FF477AEB7
:10329000012004B0BDE8F081236823F4807323602B
:1032A000FEF734FF064604E0FEF730FF801B0228DD
:1032B0004DD823685905F7D42B68D0E6CA6802F0C8
:1032C0000302032A7FF47AAE604A126892037FF504
:1032D00098AE6A68002A7FF494AED9E75B4A136817
:1032E00043F480331360FEF711FF584C064604E0A8
:1032F000FEF70CFF801B642829D823689B03F7D5B1
:103300007EE6CA6802F00302022A7FF489AE4F4AC1
:103310001268540502D5EA68002AB9D04B492869D9
:103320004A6822F0F85242EA00624A6097E623684F
:1033300043F480732360FEF7E9FE07462368D9054E
:103340003FF5BFAEFEF7E2FEC01B0228F6D9032010
:1033500004B0BDE8F0810026AEE63C4BD3F89020E7
:1033600042F00402C3F89020D3F8902042F001020A
:10337000C3F89020FEF7CAFE344C804641F28837ED
:1033800005E0FEF7C3FEC8EB0000B842DFD8D4F872
:1033900090309A07F5D5002E3FF4BEAE35E0B36D00
:1033A00043F08053B365B36D03F080530293029BE7
:1033B000FFF70AFDB36D23F08053B365B3E5B36D3A
:1033C00043F08053B365B36D03F080530393039BC5
:1033D000FFF7FAFCB36D23F08053B3653EE703F1CA
:1033E0008043A3F53C331A6842F480221A601A68BD
:1033F00042F480321A6076E70324A2E503243BE717
:10340000DA6822F00302DA609DE6104A936D23F039
:103410008053936580E60D4AD2F8903043F0010363
:10342000C2F89030A6E7802C4CD9A12C34BF0124DF
:10343000022421E7802C47D9A12C34BF0124022487
:103440007FE51C46FEF762FE064609E000100240DA
:1034500000200240FEF75AFE801B02283FF677AF9D
:1034600023681C4A9F01F5D405F12C03C8CBAC6B33
:10347000E86B296C43EA0723751E43EA0513240908
:10348000400843EA44430138490843EA40530139BC
:1034900043EA4163D360136843F080731360D368D9
:1034A00043F08073D3601446FEF730FE054605E016
:1034B000FEF72CFE401B02283FF649AF2368980117
:1034C000F6D554E60024D7E600243AE5022438E590
:1034D0000224D1E600100240564A136803F00703A5
:1034E0008B422DE9F0410CD2136823F007030B4304
:1034F0001360136803F00703994202D00120BDE86E
:10350000F08103680C46D90705463DD4990706D5D6
:103510004948AA68816821F0F0010A438260454960
:103520000A6802F00702944209D20A6822F00702F0
:1035300022430A600A6802F007029442DED15A0769
:1035400006D53D48EA68816821F4E0610A4382605B
:103550001B0707D5384A2969936823F4605343EA67
:10356000C1039360FFF738FC334B34499B68344AFE
:10357000C3F30313CB5C20FA03F30F201360FEF7B1
:103580009BFD0020BDE8F08143682B4A032B1268A5
:1035900049D0022B41D0002B48D19607AED5264EFC
:1035A000B26822F003021343B360FEF7AFFD6B680D
:1035B000032B074641F2883813D0022B27D0DBB902
:1035C00004E0FEF7A3FDC01B404529D8B36813F003
:1035D0000C0FF6D12B6899E7FEF798FDC01B40450C
:1035E0001ED8B36803F00C030C2BF5D1F2E7FEF7FD
:1035F0008DFDC01B404513D8B36803F00C03042BAA
:10360000F5D1E7E7FEF782FDC01B404508D8B36857
:1036100003F00C03082BF5D1DCE79703BFD46DE76B
:103620000320BDE8F0819201B9D467E750057FF52A
:1036300065AFB4E700200240001002407CD90008CA
:1036400034000020044B054A9B680549C3F302235C
:103650000868D35CD8407047001002408CD900083D
:1036600034000020044B054A9B680549C3F3C2237C
:103670000868D35CD8407047001002408CD900081D
:1036800034000020494AF8B5D3689B0707D0D368B7
:10369000046803F00303A3420DD00120F8BD0368C2
:1036A000022B12D0032B5AD0012BF6D112689707A8
:1036B0000ED41846F8BD002BEFD0D3684268C3F390
:1036C000021301339342E8D10CE012685605E4D5A9
:1036D000364D4268EC6824F073042343013A43EA10
:1036E0000213EB60314C236823F0806323600F46A4
:1036F0000546FEF70BFD064604E0FEF707FD801BBE
:1037000002282AD82368294A1901F6D4002F2DD17E
:103710001169AC68E86821F41F3323F4407343EA6D
:103720000423000943EA40431361204C236843F01B
:1037300080632360FEF7EAFC064604E0FEF7E6FC41
:10374000801B022809D82368184A1B01F6D5AB69EB
:1037500011690B4313610020F8BD0320F8BD146804
:10376000A503B5D41268540397D5B1E7012F1169A9
:103770000DD06869AC6821F0C06323F4FE434008B3
:1037800043EA0423013843EA40631361CDE7286923
:10379000AC6821F4C00323F4FE43410843EA042348
:1037A000013943EA41531361BFE700BF00100240F3
:1037B000414AF8B5D3689B0707D0D368046803F083
:1037C0000303A3420DD00120F8BD0368022B12D0E1
:1037D000032B5AD0012BF6D1126897070ED4184646
:1037E000F8BD002BEFD0D3684268C3F30213013356
:1037F0009342E8D10CE012685605E4D52E4D42689C
:10380000EC6824F073042343013A43EA0213EB60AB
:10381000294C236823F0805323600F460546FEF7AA
:1038200075FC064604E0FEF771FC801B02282AD8CE
:103830002368214A9900F6D4002F2DD15169AC6834
:10384000E86821F41F3323F4407343EA042300099A
:1038500043EA40435361184C236843F0805323608C
:10386000FEF754FC064604E0FEF750FC801B0228DD
:1038700009D82368104A9B00F6D56B6951690B4340
:1038800053610020F8BD0320F8BD1468A503B5D42A
:103890001268540397D5B1E751692869AC6821F0E3
:1038A000C06323F4FE43400843EA0423013843EA9B
:1038B00040635361CFE700BF001002402DE9F043A1
:1038C000036813F4006683B0044617D0416EB1F567
:1038D000800F00F0B88140F2CF81B1F5000F00F009
:1038E0009981B1F5400F40F0D681C348D0F88820C7
:1038F00022F440021143C0F888100026D80440F199
:103900000081A16EB1F1807F00F0958140F2BA8113
:10391000B1F1007F00F08481B1F1407F40F0F08090
:103920003746002F40F08581B348A26ED0F888104A
:1039300021F040710A439903C0F8882000F1E58026
:10394000DA0708D5AC48A26BD0F8881021F0030143
:103950000A43C0F888209F0708D5A748E26BD0F833
:10396000881021F00C010A43C0F888205D0708D5B3
:10397000A148226CD0F8881021F030010A43C0F829
:103980008820180708D59C48626CD0F8881021F070
:10399000C0010A43C0F88820D90608D59648A26C11
:1039A000D0F8881021F440710A43C0F888209A06A4
:1039B00008D59148E26CD0F8881021F440610A43A0
:1039C000C0F888209F0508D58B48E26DD0F8881094
:1039D00021F440210A43C0F888205D0508D58648B7
:1039E000226ED0F8881021F440110A43C0F88820D4
:1039F000580608D58048226DD0F8881021F440512F
:103A00000A43C0F88820190608D57B48626DD0F8B3
:103A1000881021F440410A43C0F88820DA0508D50F
:103A20007548A26DD0F8881021F440310A43C0F8DF
:103A300088209F0410D57048E16ED0F8882022F0CD
:103A400040620A43B1F1006FC0F8882000F0D880CE
:103A5000B1F1806F00F026811D0310D56648216FFB
:103A6000D0F8882022F040620A43B1F1006FC0F81C
:103A7000882000F0CA80B1F1806F00F023815803E4
:103A800010D55D48616FD0F8882022F040620A436B
:103A9000B1F1006FC0F8882000F0A880B1F1806F0C
:103AA00000F00881590410D55348A16FD0F8882040
:103AB00022F040520A43B1F1805FC0F8882000F044
:103AC000CA80B1F1005F00F0CE801A0408D54A48E0
:103AD000E26FD0F8881021F080410A43C0F88820B6
:103AE000DB0309D54449D4F88020D1F8883023F08D
:103AF00000431343C1F88830304603B0BDE8F0837B
:103B00000126374699037FF51BAF3B4B9A6DD200D8
:103B100056D54FF00008394D2B6843F480732B6065
:103B2000FEF7F4FA814605E0FEF7F0FAC9EB000073
:103B3000022851D82B68DB05F6D5002F40F0D28043
:103B40002D4AD2F8903013F440732AD0D4F8841060
:103B50008B4200F0BF80D2F89030D2F8900040F451
:103B60008030C2F89000D2F8900023F4407320F423
:103B70008030C2F89000C2F89030D80740F18D80B4
:103B8000FEF7C4FA1C4D814641F2883705E0FEF786
:103B9000BDFAC9EB0000B8421ED8D5F8903099079D
:103BA000F5D5D4F884301449D1F8902022F440722D
:103BB0001343C1F89030B8F1000F11D12368BFE66C
:103BC0009A6D42F080529A659B6D03F08053019389
:103BD000019B4FF001089EE70326B8F1000FEDD0DE
:103BE000054A936D23F080539365E7E7C26842F47A
:103BF0008012C26056E700BF001002400070004013
:103C0000C26842F48012C26026E7C26842F48012A1
:103C1000C26034E73448C26842F48032C26064E66D
:103C20003149CA68374642F48032CA60002F3FF4F7
:103C30007BAE3E4666E7002104F12000FFF7B8FDA9
:103C4000236807466DE600212030FFF7B1FD0646E8
:103C50002EB3236852E60221201DFFF713FD48B161
:103C60000646236831E7022104F12000FFF7A0FD9A
:103C70000028F5D1236828E769B90430FFF702FD71
:103C80000646E5E700297FF43BAF201DFFF7FAFC6D
:103C90002368074645E6012630E60B4683E7616E5A
:103CA000236822E60121201DFFF7ECFCA0B10646A7
:103CB0002368D1E60121201DFFF7E4FC70B1064620
:103CC0002368EFE60121201DFFF7DCFC40B106462A
:103CD0002368D4E60B4650E72368BDE62368E1E697
:103CE0002368CCE63E4666E70010024000286ED00E
:103CF000F8B590F82130044603F0FF02002B4FD0B6
:103D0000236853220220CA2184F8210059625A6292
:103D1000DA6855062CD59A6861682569A069A66895
:103D2000E76822F4E00222F040029A609A681143A8
:103D30002943014399601F611A6942EA06421A61E8
:103D4000DA6822F08002DA609A6892062DD5D86C83
:103D50006169E26920F00300D864D86C02430A4329
:103D6000FF250121DA6400205D6284F82110F8BD8E
:103D70004FF0FF32DA60FEF7C9F905462368DA68CA
:103D80005006C8D4FEF7C2F9401BB0F57A7FF5D9CA
:103D90002268FF2104235162012084F82130F8BDFC
:103DA00080F82020FEF790F8AAE7DA6822F0A00257
:103DB000DA60FEF7ABF905462368DA689106C6D4E7
:103DC000FEF7A4F9401BB0F57A7FF5D9E0E70120B2
:103DD000704700BF2DE9F84390F82030012B00F028
:103DE00086800124022380F8204080F82130046876
:103DF000002A3ED0A7684E780B7817F0400516BF12
:103E0000CF78CD703D044FEA06268F7808BF04684E
:103E100046EA03433B4343EA0507CA22532362624F
:103E20006362E3685A068846064663D507F07F3327
:103E300023F0FE432360A168D8F80C30D8F8102096
:103E400021F48021A160A1680B431343A360E368C0
:103E500023F08003E360A3689B0668D50023FF215D
:103E600001226162184686F8212086F82030BDE8DC
:103E7000F883A6680B7816F0400615BFCE78CE7092
:103E800036040468092B65D900220A3BDBB2092BF2
:103E900002F10102F9D84FEA021E5FFA8EFE4A785B
:103EA00043EA0E03092A4FEA034E4FF0000507D9F3
:103EB0000A3AD2B2092A05F10105F9D82D01EDB26D
:103EC0008B782A43092B4FEA02254FF0000707D9C8
:103ED0000A3BDBB2092B07F10107F9D83F01FFB21A
:103EE0004EEA06022A433B4342EA030795E70220D3
:103EF000BDE8F8834FF0FF33E360FEF707F9814632
:103F00003468E36813F0400590D1FEF7FFF8C9EB81
:103F10000000B0F57A7FF3D93268FF2104235162A3
:103F2000012086F8205086F82130BDE8F883E36848
:103F300023F0A003E360FEF7E9F807463468E3687E
:103F400013F020058AD1FEF7E1F8C01BB0F57A7FA7
:103F5000F4D9E1E74FF0000EA1E700BF0368F0B528
:103F60009D6A1C691B684D6003F07F3323F0FE439C
:103F7000180CC3F30627C4F30E04DBB200F0400EA6
:103F800000F03F068C6081F803E00E704F708B707C
:103F9000BAB93D091C09360906EB860605EB85050D
:103FA00004EB840400F00F0007F00F0703F00F0389
:103FB00000EB460007EB450503EB440408704D7029
:103FC0008C700020F0BD00BFF8B590F82030012BB8
:103FD00065D00124022380F8204080F8213042B3CC
:103FE0004A78CB788D780C78110241EA03422A4353
:103FF00042EA44340368CA21532259625A62DA6899
:10400000510607464DD524F07F4424F0C0045C607F
:10401000DA6822F08002DA609A68920662D500229D
:10402000FF2001215862104687F8211087F82020D0
:10403000F8BD4B78DC064FD4CA78092A4FF000044B
:1040400007D90A3AD2B2092A04F10104F9D82401A5
:10405000E4B22243092B4FEA02425FD900240A3B13
:10406000DBB2092B04F10104F9D82501EDB28C78FB
:104070002B43092C4FEA03254FF0000607D90A3CD1
:10408000E4B2092C06F10106F9D83601F6B20B7834
:1040900042EA433242EA050334431C43AAE70220C2
:1040A000F8BD4FF0FF32DA60FEF730F806463B68A5
:1040B000DA6812F04005A6D1FEF728F8801BB0F5AB
:1040C0007A7FF4D93A68FF2104235162012087F8EE
:1040D000205087F82130F8BD23F010030A33DBB2FB
:1040E0004B70A9E7DA6822F0A002DA60FEF70EF85A
:1040F00005463B68DA6812F0200490D1FEF706F816
:10410000401BB0F57A7FF4D93A68FF21042351624D
:10411000012087F8204087F82130F8BD0025A6E768
:1041200003685B6823F07F4323F0C003F0B4C3F35C
:104130000725DEB2C3F3423705F01F001B0C0F70DA
:104140004870CB708E70BAB9000934091A0987001B
:1041500004EB840405F00F0506F00F06384402EB6B
:10416000820203F00F0306EB440405EB400003EB6F
:1041700042038C704870CB700020F0BC704700BFC9
:10418000002878D0F8B590F83D30044603F0FF02DF
:10419000002B57D023683949022284F83D208B42F6
:1041A0001A6854D0B3F1804F2AD0A1F594318B42D4
:1041B00026D001F580618B4222D001F580618B42CF
:1041C0001ED001F594318B421AD001F540618B422B
:1041D0001AD001F580618B4216D001F580618B42C7
:1041E00012D0A169E568606822F08002114319606D
:1041F000DD62986201225A61002084F83D20F8BDFA
:10420000A16822F070020A432169A0691C4DE76889
:10421000666822F44072114321F080010143AB42F1
:104220001960DF629E620AD0164A934207D002F5F7
:104230008062934203D002F580629342DAD16269D0
:104240001A63D7E780F83C20FDF794FEA2E7A06848
:104250002169A56922F07002104320F440700143E7
:1042600021F0800129431960E268DA6262689A628B
:1042700062691A63BEE70120704700BF002C01404D
:1042800000340140004001400368DA6842F0010256
:10429000DA601A6842F001021A600020704700BF1D
:1042A0000368DA6822F00102DA60196A41F2111239
:1042B0000A4042B9196A40F244420A401AB91A68DF
:1042C00022F001021A600020704700BF90F83C30D5
:1042D000012B40D00222036870B480F83D209D6815
:1042E0000C685D4A402C02EA05024FF0010580F897
:1042F0003C509A6079D018D9702C62D02DD9B4F581
:10430000805F57D0B4F5005F1CD19C688A684D6807
:10431000CE682A4324F47F410A4342EA06229A6087
:104320009A6842F480429A600CE0102C32D038D95E
:10433000202C72D0302C05D19A6822F0700242F005
:1043400037029A600023012280F83D2080F83C303B
:1043500070BC1846704702207047502C64D0602C07
:10436000F0D11C6A4D68CE6824F010041C62996973
:104370001A6A21F4704122F0A00242EA051241EAD1
:10438000063199611A629A6822F0700242F067025F
:104390009A60D7E79A6822F0700242F017029A609A
:1043A000D0E7002CCED19A6822F0700242F00702CA
:1043B0009A60C7E79A6822F4803222F007029A6076
:1043C000C0E79C688A684D68CE682A4324F47F4120
:1043D0000A4342EA06229A609A6822F4803222F066
:1043E000770242F077029A60ACE71A6A1C6A4E685C
:1043F000CD6824F001041C62996922F00A0221F0C0
:10440000F001324341EA051199611A629A6822F07B
:10441000700242F047029A6094E79A6822F07002B4
:1044200042F027029A608DE71A6A1C6A4E68CD68CE
:1044300024F001041C62996922F00A0221F0F001C3
:10444000324341EA051199611A629A6822F07002BA
:1044500042F057029A6075E78800FEFF704700BF80
:10446000704700BF704700BF704700BF03681A69FC
:10447000910710B5044602D5DA68920762D41A692A
:10448000500702D5DA68510749D41A69120702D5D4
:10449000DA68100731D41A69D20602D5DA68D00674
:1044A00018D41A69D10702D5DA68D2076BD41A6911
:1044B000100602D5DA6811066DD41A69520602D5C3
:1044C000DA68500657D41A69910602D5DA6892065E
:1044D00049D410BD6FF010021A61DB69082213F491
:1044E000407F2277204661D1FFF7B8FF2046FFF7D3
:1044F000B9FF002223682277D3E76FF008021A6120
:10450000DB69042299072277204655D1FFF7A6FFE1
:104510002046FFF7A7FF002223682277BBE76FF052
:1045200004021A619B69022213F4407F227720461D
:104530003FD1FFF793FF2046FFF794FF0022236847
:104540002277A2E76FF002021A619B6901229B07A2
:10455000027728D1FFF782FF2046FFF783FF002272
:10456000236822778BE76FF0200220461A61BDE8AE
:10457000104000F04FB86FF040021A612046FFF77C
:1045800073FF23689FE76FF001021A612046FDF771
:1045900069FB23688BE76FF080021A61204600F008
:1045A0003BF8236889E7FFF75BFFD8E7FFF758FF81
:1045B0009FE7FFF755FFC1E7FFF752FFABE700BFEB
:1045C00090F83C30012B1BD0036870B4104CA34210
:1045D000024658689E6815D004F50064A34211D0C5
:1045E0000D688C6820F0700026F08001284321437C
:1045F000002458602046996082F83C4070BC7047A7
:10460000022070474C6820F470002043E8E700BFA8
:10461000002C0140704700BF704700BF704700BFCB
:10462000F0B50E4690F87110202983B002D0022018
:1046300003B0F0BD002E45D0002A43D01D4690F8AF
:104640007030012B0446F2D0212300200121606745
:1046500084F8701084F871300192FDF757FD019ACB
:10466000A4F85220B4F85230A4F850209BB2074668
:10467000002B5ED020686A1C26D1C26902F080023D
:10468000002AFAD0A368B3F5805F3BD03378038566
:104690000136B4F85230013B9BB2A4F85230B4F862
:1046A00052309BB2002BE6D16B1C34D1C36903F0AE
:1046B0004003002BFAD02023002084F8713084F8C6
:1046C0007000B5E70120B3E7C36903F08003002B56
:1046D000D8D12DB1FDF71AFDC01B85422068CAD282
:1046E000036823F4D07303608368202223F001035E
:1046F0000021836084F87120032084F8701084F80E
:10470000722095E72369002BC0D136F8023BC3F332
:1047100008030385BDE7C36903F04003002BCAD13A
:10472000002DDDD0FDF7F2FCC01B85422068BBD216
:10473000D6E72068B8E700BFF8B590F87240202CA3
:1047400001D00220F8BD002930D0002A2ED090F8E8
:104750007030012BF5D004460127C06E144E84F84A
:1047600070700025134622270A4621686265A4F866
:104770005830656784F872700E4FC6620E4E8563BE
:10478000076346632431FDF7BBFD236884F870504E
:104790001A6842F480721A609A6842F001029A60C4
:1047A0009A6842F0400228469A60F8BD0120F8BDA0
:1047B000C1470008FD4700080D480008704700BFCA
:1047C00008B50368806A1B6813F0200311D10268E2
:1047D000A0F85A30136823F480731360936823F0B1
:1047E000010393609368202123F04003936080F8D5
:1047F0007210FFF7E3FF08BD704700BF08B5806A7D
:10480000FFF7FAFF08BD00BF704700BF806A90F84D
:104810007130212B10B51ED090F87230222B06D0AB
:10482000436F43F010034367FFF7EEFF10BD0368CB
:104830009A685206F4D50021A0F85A101A6822F49A
:1048400090721A609A68202422F001029A60016630
:1048500080F87240E4E703689A681106DCD500220C
:10486000A0F852201A68202122F0C0021A6080F8B5
:104870007110D1E7436ADA0710B406D50468826A7A
:10488000616821F400310A4362609C0706D5046820
:10489000C26A616821F480310A436260590706D513
:1048A0000468026B616821F480210A4362601A0780
:1048B00006D50468426B616821F400410A436260D6
:1048C000DC0606D50468826BA16821F480510A4396
:1048D000A260990606D50468C26BA16821F4005154
:1048E0000A43A2605A0609D50168046C4A6822F49A
:1048F00080122243B4F5801F4A600BD01B0606D5F8
:104900000168826C4B6823F4002313434B605DF80D
:10491000044B70474C68426C24F4C00422434A6044
:10492000ECE700BF002800F03D81F8B590F8713049
:10493000044603F0FF02002B3CD02368A7682169DE
:104940006069E569242284F871201E68BD4A26F05A
:1049500001061E601E6839430143324029430A4361
:104960001A605868E168B84AA66920F440500143CB
:104970009342596000F0B5809968226AB34821F4E7
:10498000306132430A4383429A6000F0E780B04AC4
:10499000934200F0E281AF4A934210D0AE4A934274
:1049A00000F00281AD4A934223D000232366636660
:1049B0000120F8BD80F87020FFF730FEBDE7A84B5E
:1049C000D3F8883003F03003102B00F0FD801BD9A2
:1049D000202B00F08481302BE7D1B5F5004F00F09B
:1049E00025816268530803F50043B3FBF2F39BB2E1
:1049F00018E09B4BD3F8883003F44073B3F5807F05
:104A000000F0E28000F20781002BCED1B5F5004F17
:104A100000F01481FEF716FE636800EB5300B0FB54
:104A2000F3F39BB2A3F110014FF6EF729142BCD8A1
:104A30002268D360626A002323666366002A4CD131
:104A400023685A6822F490425A609A6822F02A0237
:104A50009A601A68002142F001021A606167FDF74E
:104A600055FB23681A68110705460BD41A685207CC
:104A700026D42023002084F8713084F8700084F854
:104A80007230F8BDDA6902F40012002AEED1FDF7A7
:104A90003DFB401BB0F1007F2368F3D31A6822F47A
:104AA000D0721A609A68202122F0010200259A60D3
:104AB000032084F8711084F8705084F87210F8BDE7
:104AC000DB6903F48003002BD3D1FDF71FFB401BF0
:104AD000B0F1007F2368F3D3E0E72046FFF7CAFE7A
:104AE000AEE79A685E4922F4306232439A60D1F8A8
:104AF000885005F44065B5F5806F00F0278140F2DD
:104B00001C81B5F5006F00F08E80B5F5406F7FF425
:104B10004CAF08254FF40040626802EB4203834229
:104B20003FF643AFB0EB023F3FF63FAF082D3FF6F5
:104B30003CAF01A353F825F0C54C0008AB49000871
:104B4000AF4C0008AB490008914C0008AB49000885
:104B5000AB490008AB4900086D4C0008404B414A86
:104B6000D3F8883003F00303D35CB5F5004F40F071
:104B7000C380082B3FF619AF01A252F823F000BF03
:104B80003D4C0008E74B0008CB4C0008AB4900083F
:104B9000CF4B0008AB490008AB490008AB490008FF
:104BA0002D4C0008012070472D4BD3F8883003F0BE
:104BB000C003402B08D07FF627AF802B00F08F80FA
:104BC000C02B3FF40AAFF0E6B5F5004F02D1FEF777
:104BD00003F90AE0FEF700F9636800EB5300B0FB4D
:104BE000F3F39BB21EE7FEF73DFD6268530803EB4B
:104BF0004000B0FBF2F39BB2A3F110014FF6EF724D
:104C000091423FF6D2AEC3F34201226823F00F0374
:104C10000B43D3600EE7B3F5007F60D0B3F5407F60
:104C20003FF4DBAEC1E602250F4875E76268530822
:104C300003F58033B3FBF2F39BB2DDE7FEF702FD31
:104C4000D3E700BFF369FFEF008000400038014068
:104C50000044004000480040004C0040005000402C
:104C60000010024038D900080024F4005008002148
:104C700010F5000041F100010023FBF79BFF3B4BC7
:104C8000A0F540729A423FF690AE2368D860D1E614
:104C9000FEF7A2F862684FF4807356080027E3FB22
:104CA0000067304639460023FBF784FFE7E73048CA
:104CB0005308C0184FF0000141F100010023FBF739
:104CC00079FFDCE7FEF7BEFCE4E761684A0802F121
:104CD000F47303F59043B3FBF1F39BB28CE7B5F5A6
:104CE000004FF2D061684A0802F5740303F51053CF
:104CF000B3FBF1F39BB295E6082B3FF656AE01A24B
:104D000052F823F0154A0008294D0008E54C000828
:104D1000AB490008D54B0008AB490008AB49000877
:104D2000AB490008E3490008FEF79CFC636800EB10
:104D30005300B0FBF3F39BB274E6002D7FF435AE65
:104D4000FEF780FC00287FF4E7AE73E6FEF744F838
:104D5000042500287FF4E0AE6CE6064B064AD3F843
:104D6000883003F00C0313441B79FEE6FFFC0F00B0
:104D7000000024F40010024038D900081149124BF9
:104D8000D1F8882042F4700210B4C1F888201A6863
:104D9000002042F001021A6098601A6822F0A852BE
:104DA00022F410224FF480541A60DC601A684FF02D
:104DB000006422F480221A6098618C605DF8044BD4
:104DC000704700BF00ED00E000100240F0B52A4C33
:104DD00089B02046FDF7ECFF38B12748FDF7E8FF22
:104DE000203818BF012009B0F0BD244D244B2360AA
:104DF000EB6C244A626043F00203EB64EB6C03F05B
:104E00000203019333224FF4407312210646012717
:104E1000A26003930222042304911B48DDF804E0FE
:104E2000069203A907930596E760FDF7A9FAAB6D13
:104E300043F40013AB65AB6D03F400130293029BC4
:104E4000AB6B43F40013AB63AB6B23F40013AB63A6
:104E50003A4631461F20FDF77FF91F20FDF7B4F9D0
:104E6000324631462020FDF777F92020FDF7ACF9D6
:104E70002046FDF733FDB0E7B004002000100240EB
:104E8000005400403A14D11000040048F0B52A4CF8
:104E900089B02046FDF78CFF38B12748FDF788FF21
:104EA000203818BF012009B0F0BD244D244B2360E9
:104EB000EB6C244A626043F00203EB64EB6C03F09A
:104EC0000203019333224FF4407312210646012757
:104ED000A26003930222042304911B48DDF804E03E
:104EE000069203A907930596E760FDF749FAAB6DB3
:104EF00043F40013AB65AB6D03F400130293029B04
:104F0000AB6B43F40013AB63AB6B23F40013AB63E5
:104F10003A4631461F20FDF71FF91F20FDF754F9CF
:104F2000324631462020FDF717F92020FDF74CF9D5
:104F30002046FDF7D3FCB0E7B0040020001002408B
:104F4000005400403A14D110000400482DE9F0410B
:104F500088B00024234D0494039406940594079488
:104F6000EB6C214E214F43F00203EB64EB6C049792
:104F700003F002034FF00208019303A920233046F7
:104F80000393019ACDF81880FDF7FAF922462146DD
:104F90001720FDF7E1F81720FDF716F903940494A4
:104FA000069405940794EB6C43EA0803EB64EB6CFE
:104FB000049703EA0803029303A9102330460393DE
:104FC000029ACDF81880FDF7DBF9224621460A2027
:104FD000FDF7C2F80A20FDF7F7F8204608B0BDE853
:104FE000F08100BF001002400004004800001110D2
:104FF000114B1249DA6C124830B542F00202DA6401
:10500000DB6C87B003F002030024009302910223BB
:105010004FF4806201A904930192009D0394FDF76F
:10502000AFF9224621462820FDF796F82820FDF703
:10503000CBF8204607B030BD001002400000111030
:10504000000400482DE9F0470E460178402984B05D
:105050000546174698462FD02CD9B12917D12BB326
:1050600000244FF4805A4FF001093B193219A978F6
:1050700019480093CDF808A0CDF80490D2B20123CE
:10508000FDF79EFC0134E8B9A045EED10EE0BC2945
:1050900012D04FF48053A9780F480293CDF80480C2
:1050A000009732460123FDF78BFC58B9002004B06D
:1050B000BDE8F0873329ECD1B8F1010FE9D946F00A
:1050C0008006E6E70448FDF761FC08B9FFF77EFEBD
:1050D000012004B0BDE8F087B00400202DE9F047BE
:1050E0000E460178402984B00546174698462FD0D1
:1050F0002CD9B12917D12BB300244FF4805A4FF08B
:1051000001093B193219A97819480093CDF808A074
:10511000CDF80490D2B20123FDF746FD0134E8B981
:10512000A045EED10EE0BC2912D04FF48053A978EF
:105130000F480293CDF80480009732460123FDF713
:1051400033FD58B9002004B0BDE8F0873329ECD115
:10515000B8F1010FE9D946F08006E6E70448FDF70B
:1051600015FC08B9FFF732FE012004B0BDE8F08756
:10517000B0040020F8B500250F460D600646724CBD
:10518000002800F0978001282FD1637E012B00F0CA
:105190008F80FFF77BFE012800F08A8023466B4A50
:1051A00043F8402F4FF0330C4FF0320E04F1300132
:1051B000674A657504F1140026766576A576E6766D
:1051C000236384F814C084F816E022626562656384
:1051D000E1613860236A1B68002B00F09F809847CC
:1051E000012800F093800020F8BD6379012B2DD0B9
:1051F000FFF74CFE012829D02346564A43F8382FA2
:105200004FF06A0EA362D626534B544A65700120B4
:1052100004F1280125716571A57184F800E0A6707C
:10522000E071E2602361E562A1603C60E3681B68B5
:10523000002B00F0828020469847012862D13B680D
:105240001D605D609D60DD601D613D60637E3E4D63
:10525000012B2DD0FFF71AFE012829D02B463B4AFF
:1052600043F8402F32200026A87501222B634FF00F
:10527000330E374B85F814E005F1300105F11400C9
:105280006E756E76AE762A76EA762B626E626E6305
:10529000E96138602B6A1B68002B3FD098470128D2
:1052A000A1D13B681E605E609E60DE601E613E6054
:1052B0000120F8BD6379012BFAD0FFF7E7FD012843
:1052C000F6D02346234A43F8382F4FF06A0EA362E4
:1052D000D625214B214A6670012004F12801267150
:1052E0006671A67184F800E0A570E071E260236148
:1052F000E662A1603C60E3681B68BBB1204698474A
:105300000128CED0FFF722FE0020F8BD3B681D60CB
:105310005D609D60DD601D613D60C9E700236361E4
:1053200043608360C36003613B60C1E723606360E7
:10533000A360E36023613B60BAE723606360A3601E
:10534000E36023613B6081E7FC040020B40D002092
:105350008C010020B80D0020000300207402002002
:1053600060B108B5C3689B6833B19847A0F10100EC
:10537000B0FA80F0400908BD012008BD0120704747
:1053800060B108B5C368DB6833B19847A0F101008C
:10539000B0FA80F0400908BD012008BD0120704727
:1053A00020B119B143790B7000207047012070477C
:1053B00068B108B5C26841B1936933B19847A0F1AB
:1053C0000100B0FA80F0400908BD012008BD0120AD
:1053D000704700BF60B108B5C368DB6A33B1984756
:1053E000A0F10100B0FA80F0400908BD012008BD1D
:1053F00001207047F8B50026394C0E600F466379DE
:10540000002833D0012B2FD0FFF740FD01282BD0EF
:105410002346344A43F81C2F4FF06A0E6361D625A9
:10542000314B324A6670012004F114012671667115
:10543000A67184F800E0A570E071E2602361A661C6
:10544000A1603C60E3681B683BB120469847012897
:105450003DD0FFF77BFD0020F8BD00232360636093
:10546000A360E36023613B600120F8BD012BFBD00A
:105470000546FFF70BFD0128F6D02346194A43F8ED
:105480001C2F4FF06A0E6361D626174B174A6570C2
:10549000012004F1140125716571A57184F800E003
:1054A000A670E071E2602361A561A1603C60E368E1
:1054B0001B68002BD1D0204698470128C9D13B68F2
:1054C0001D605D609D60DD601D613D60CCE73B68F7
:1054D0001E605E609E60DE601E613E60C4E700BFCD
:1054E00044050020B80D0020C40200202402002042
:1054F00060B108B5C3689B6833B19847A0F101005B
:10550000B0FA80F0400908BD012008BD01207047B5
:1055100060B108B5C368DB6833B19847A0F10100FA
:10552000B0FA80F0400908BD012008BD0120704795
:1055300020B119B143790B700020704701207047EA
:1055400020B119B103790B7000207047012070471A
:1055500068B108B5C26841B1936933B19847A0F109
:105560000100B0FA80F0400908BD012008BD01200B
:10557000704700BF60B108B5C368DB6A33B19847B4
:10558000A0F10100B0FA80F0400908BD012008BD7B
:105590000120704760B108B5C3685B6B33B19847B1
:1055A000A0F10100B0FA80F0400908BD012008BD5B
:1055B00001207047F8B50026354C0E600F46637920
:1055C00000282FD0012B2BD0FFF760FC012827D01B
:1055D0002346304A43F81C2FBC256361BE202E4B66
:1055E0006670012104F1140226716671A67125709E
:1055F000A070E171E3602661A661A2603C60E3688F
:105600001B68002B3BD020469847012801D0002082
:10561000F8BD3B681E605E609E60DE601E613E609D
:105620000120F8BD012BFBD00546FFF72FFC012818
:10563000F6D02346174A43F81C2FBC266361BE20D0
:10564000154B6570012104F1140225716571A57176
:105650002670A070E171E3602561A561A2603C60E5
:10566000E3681B685BB1204698470128CFD13B68AF
:105670001D605D609D60DD601D613D60D0E70023C1
:1056800023606360A360E36023613B60C8E700BF01
:1056900068050020A80D00207800002060B108B542
:1056A000C3689B6833B19847A0F10100B0FA80F05D
:1056B000400908BD012008BD0120704760B108B550
:1056C000C368DB6833B19847A0F10100B0FA80F0FD
:1056D000400908BD012008BD0120704720B119B163
:1056E00043790B70002070470120704768B108B5FE
:1056F000C26841B1936933B19847A0F10100B0FA93
:1057000080F0400908BD012008BD0120704700BF9E
:10571000F8B50026354C0E600F46637900282FD06F
:10572000012B2BD0FFF7B2FB012827D02346304AAC
:1057300043F81C2F402563613C202E4B66700121ED
:1057400004F1140226716671A6712570A070E171D2
:10575000E3602661A661A2603C60E3681B68002BE1
:105760003BD020469847012801D00020F8BD3B6877
:105770001E605E609E60DE601E613E600120F8BDBE
:10578000012BFBD00546FFF781FB0128F6D023460D
:10579000174A43F81C2F402663613C20154B657067
:1057A000012104F1140225716571A5712670A070A4
:1057B000E171E3602561A561A2603C60E3681B685C
:1057C0005BB1204698470128CFD13B681D605D60E2
:1057D0009D60DD601D613D60D0E700232360636054
:1057E000A360E36023613B60C8E700BF8805002039
:1057F000B40D0020DC01002060B108B5C3689B68CF
:1058000033B19847A0F10100B0FA80F0400908BD1B
:10581000012008BD0120704760B108B5C368DB688E
:1058200033B19847A0F10100B0FA80F0400908BDFB
:10583000012008BD0120704720B119B143790B70D8
:10584000002070470120704720B119B103790B7017
:10585000002070470120704768B108B5C26841B1A7
:10586000936933B19847A0F10100B0FA80F0400984
:1058700008BD012008BD0120704700BFF8B5002613
:10588000394C0E600F466379002833D0012B2FD09E
:10589000FFF7FCFA01282BD02346344A43F81C2F8B
:1058A0004FF0B10E6361BA25314B324A6670012068
:1058B00004F1140126716671A67184F800E0A570E8
:1058C000E071E2602361A661A1603C60E3681B684F
:1058D0003BB12046984701283DD0FFF789FB0020C7
:1058E000F8BD002323606360A360E36023613B6035
:1058F0000120F8BD012BFBD00546FFF7C7FA0128B0
:10590000F6D02346194A43F81C2F4FF0B10E6361BD
:10591000BA26174B174A6570012004F1140125714E
:105920006571A57184F800E0A670E071E260236102
:10593000A561A1603C60E3681B68002BD1D02046C4
:1059400098470128C9D13B681D605D609D60DD609E
:105950001D613D60CCE73B681E605E609E60DE605E
:105960001E613E60C4E700BFA8050020AC0D00200A
:10597000E80000205801002060B108B5C3689B68AA
:1059800033B19847A0F10100B0FA80F0400908BD9A
:10599000012008BD0120704760B108B5C368DB680D
:1059A00033B19847A0F10100B0FA80F0400908BD7A
:1059B000012008BD0120704720B119B143790B7057
:1059C000002070470120704720B119B103790B7096
:1059D000002070470120704768B108B5C26841B126
:1059E000936933B19847A0F10100B0FA80F0400903
:1059F00008BD012008BD0120704700BFF8B5002692
:105A00000F460E6005466C4C002800F0908001287F
:105A10002FD1637E012B00F08880FFF737FA012831
:105A200000F083802346654A43F83C2FB12023636E
:105A30002075634B634A22624FF0BA0E04F13001C5
:105A400004F114006362667525766676A676E576BF
:105A5000666384F816E0E1613860236A1B68002BF6
:105A60005CD09847012800F08980FFF7C1FA002038
:105A7000F8BD6379012B29D0FFF708FA012825D05A
:105A80002346514A43F8382FBC25A362BE204F4B12
:105A90006670012104F1280226716671A6712570D5
:105AA000A070E171E3602661E662A2603C60E36899
:105AB0001B68002B72D02046984701285CD13B68B8
:105AC0001E605E609E60DE601E613E60637E3A4DD9
:105AD000012B2AD0FFF7DAF9012826D02B46374AC6
