:020000040800F2
:1000000000400120A50D0008510D0008550D000805
:10001000ED0D0008ED0D0008ED0D000800000000DA
:10002000000000000000000000000000ED0D0008CE
:10003000590D000800000000ED0D00085D0D0008DE
:10004000ED0D0008ED0D0008ED0D0008ED0D0008A8
:10005000ED0D0008ED0D0008ED0D0008ED0D000898
:10006000ED0D0008ED0D0008610D0008ED0D000814
:10007000ED0D0008ED0D0008ED0D0008ED0D000878
:10008000ED0D0008ED0D0008ED0D0008ED0D000868
:10009000ED0D0008ED0D0008ED0D0008ED0D000858
:1000A000ED0D0008ED0D0008ED0D0008ED0D000848
:1000B000ED0D0008ED0D0008ED0D0008ED0D000838
:1000C000ED0D0008ED0D0008ED0D0008ED0D000828
:1000D000ED0D0008ED0D0008ED0D0008ED0D000818
:1000E000690D0008ED0D0008ED0D0008ED0D00088C
:1000F000ED0D000800000000ED0D0008ED0D0008FA
:10010000ED0D0008ED0D0008ED0D0008ED0D0008E7
:10011000ED0D0008ED0D0008ED0D000800000000D9
:10012000ED0D0008000000000000000000000000CD
:1001300000000000000000005FF808F1044B0548D3
:100140001B1A062B02D9044B03B11847704700BF96
:10015000CB020020C802002000000000054906482C
:10016000091A891001EBD171491002D0034B03B178
:1001700018477047C8020020C80200200000000095
:1001800010B5064C237843B9FFF7D8FF044B13B1E1
:100190000448AFF300800123237010BDC802002083
:1001A00000000000AC8A000808B5084B1BB10849E4
:1001B0000848AFF300800848036813B9BDE8084059
:1001C000CCE7064B002BF9D09847F7E7000000007A
:1001D000CC020020AC8A0008C80200200000000009
:1001E000034613F8012B002AFBD1181A0138704777
:1001F00080F0004002E000BF81F0004142001FBFDC
:100200005FEA410392EA030F7FEA226C7FEA236CE4
:100210006AD04FEA1262D2EB1363C1BFD2184140D9
:1002200048404140B8BF5B42192B88BF704710F06F
:10023000004F40F4000020F07F4018BF404211F012
:10024000004F41F4000121F07F4118BF494292EA7A
:10025000030F3FD0A2F1010241FA03FC10EB0C00A6
:10026000C3F1200301FA03F100F0004302D5494233
:1002700060EB4000B0F5000F13D3B0F1807F06D3E0
:1002800040084FEA310102F10102FE2A51D2B1F1D8
:10029000004F40EBC25008BF20F0010040EA0300CD
:1002A0007047490040EB000010F4000FA2F101027A
:1002B000EDD1B0FA80FCACF1080CB2EB0C0200FA04
:1002C0000CF0AABF00EBC25052421843BCBFD04052
:1002D0001843704792F0000F81F4000106BF80F4CC
:1002E00000000132013BB5E74FEA41037FEA226C8F
:1002F00018BF7FEA236C21D092EA030F04D092F05A
:10030000000F08BF0846704790EA010F1CBF00208D
:10031000704712F07F4F04D1400028BF40F00040EA
:10032000704712F100723CBF00F50000704700F00A
:10033000004343F0FE4040F4000070477FEA226231
:1003400016BF08467FEA23630146420206BF5FEA02
:10035000412390EA010F40F4800070474FF0000302
:1003600004E000BF10F0004348BF40425FEA000CC9
:1003700008BF704743F0964301464FF000001CE071
:1003800050EA010208BF70474FF000030AE000BFC7
:1003900050EA010208BF704711F0004302D5404205
:1003A00061EB41015FEA010C02BF84460146002077
:1003B00043F0B64308BFA3F18053A3F50003BCFA92
:1003C0008CF2083AA3EBC25310DB01FA02FC63443F
:1003D00000FA02FCC2F12002BCF1004F20FA02F246
:1003E00043EB020008BF20F00100704702F1200239
:1003F00001FA02FCC2F1200250EA4C0021FA02F29A
:1004000043EB020008BF20EADC7070474FF0FF0C9E
:100410001CEAD0521EBF1CEAD15392EA0C0F93EA99
:100420000C0F6FD01A4480EA010C400218BF5FEA3B
:1004300041211ED04FF0006343EA501043EA5111AE
:10044000A0FB01310CF00040B1F5000F3EBF4900A8
:1004500041EAD3715B0040EA010062F17F02FD2AAC
:100460001DD8B3F1004F40EBC25008BF20F001008F
:10047000704790F0000F0CF0004C08BF49024CEAA6
:10048000502040EA51207F3AC2BFD2F1FF0340EA38
:10049000C250704740F400004FF00003013A5DDCA9
:1004A00012F1190FDCBF00F000407047C2F10002EA
:1004B000410021FA02F1C2F1200200FA02FC5FEAD7
:1004C000310040F1000053EA4C0308BF20EADC7021
:1004D000704792F0000F00F0004C02BF400010F493
:1004E000000F013AF9D040EA0C0093F0000F01F040
:1004F000004C02BF490011F4000F013BF9D041EA62
:100500000C018FE70CEAD15392EA0C0F18BF93EA63
:100510000C0F0AD030F0004C18BF31F0004CD8D18D
:1005200080EA010000F00040704790F0000F17BF14
:1005300090F0004F084691F0000F91F0004F14D05A
:1005400092EA0C0F01D142020FD193EA0C0F03D1B2
:100550004B0218BF084608D180EA010000F00040B5
:1005600040F0FE4040F40000704740F0FE4040F490
:10057000400070474FF0FF0C1CEAD0521EBF1CEA2F
:10058000D15392EA0C0F93EA0C0F69D0A2EB03024D
:1005900080EA010C49024FEA402037D04FF08053E7
:1005A00043EA111143EA10130CF000408B4238BFAC
:1005B0005B0042F17D024FF4000C8B4224BF5B1ABA
:1005C00040EA0C00B3EB510F24BFA3EB510340EA08
:1005D0005C00B3EB910F24BFA3EB910340EA9C00B6
:1005E000B3EBD10F24BFA3EBD10340EADC001B0126
:1005F00018BF5FEA1C1CE0D1FD2A3FF650AF8B42CA
:1006000040EBC25008BF20F0010070470CF0004CD6
:100610004CEA50207F32C2BFD2F1FF0340EAC25001
:10062000704740F400004FF00003013A37E792F0C2
:10063000000F00F0004C02BF400010F4000F013A20
:10064000F9D040EA0C0093F0000F01F0004C02BF1B
:10065000490011F4000F013BF9D041EA0C0195E784
:100660000CEAD15392EA0C0F08D142027FF47DAF1D
:1006700093EA0C0F7FF470AF084676E793EA0C0F0D
:1006800004D14B023FF44CAF08466EE730F0004C0B
:1006900018BF31F0004CCAD130F000427FF45CAF9B
:1006A00031F000437FF43CAF5FE700BF4FF0FF3C09
:1006B00006E000BF4FF0010C02E000BF4FF0010C5C
:1006C0004DF804CD4FEA40024FEA41037FEA226C25
:1006D00018BF7FEA236C11D001B052EA530C18BF47
:1006E00090EA010F58BFB2EB030088BFC81738BFAC
:1006F0006FEAE17018BF40F0010070477FEA226C9A
:1007000002D15FEA402C05D17FEA236CE4D15FEA95
:10071000412CE1D05DF8040B704700BF84460846C9
:100720006146FFE70FB5FFF7C9FF002848BF10F18A
:10073000000F0FBD4DF808EDFFF7F4FF0CBF0120CF
:1007400000205DF808FB00BF4DF808EDFFF7EAFF59
:1007500034BF012000205DF808FB00BF4DF808ED14
:10076000FFF7E0FF94BF012000205DF808FB00BF09
:100770004DF808EDFFF7D2FF94BF012000205DF88F
:1007800008FB00BF4DF808EDFFF7C8FF34BF01209C
:1007900000205DF808FB00BF4FEA4002B2F1FE4FB7
:1007A0000FD34FF09E03B3EB12620DD94FEA002333
:1007B00043F0004310F0004F23FA02F018BF40420C
:1007C00070474FF00000704712F1610F01D14202F3
:1007D00005D110F0004008BF6FF0004070474FF0A7
:1007E00000007047254B70B5DA6988B042F001020D
:1007F000DA61DA69042002F001020092009ADA69F3
:10080000002542F00102DA61DA69022402F00102F5
:100810000192019A5A6A03A942F400325A625B6A51
:10082000072603F40033039002931548029B0494B7
:1008300006940595134C079600F092FB082303A934
:100840000F480393079600F08BFB0F494FF4E132FA
:100850000C232046A560E5602561A56184E80600BB
:10086000636102F0A3F800B1FEE7084A4FF4807319
:10087000E063A262A38508B070BD00BF00380240EB
:10088000000002409404002000440040D4040020F2
:1008900030B5002395B01946342207A8029303937C
:1008A000049305930693012507F0D0FC102402233E
:1008B0004FF400214FF4000207A8079310930A9504
:1008C0000B941291139201F08BF930BB1549164B22
:1008D0000A46586A40F0805058625B6A03F08053C1
:1008E0000193019B0B6823F4C05343F400630B6036
:1008F000536813F01003FBD10F24032202A8012137
:100900000493059306930294039201F075FD10B1D0
:10091000064800F00DF815B030BD044800F008F8A6
:10092000D4E700BF0070004000380240C48A0008CD
:1009300008B50F4A03464FF480710E4807F08EFC4D
:100940000C48FFF74DFC41F2883382B209490A484E
:1009500002F05AF8002002F0A9FC642000F084FAAA
:10096000002002F0ADFC642000F07EFAF2E700BF48
:100970001C8B0008E4020020940400202DE9F04FB5
:1009800000278BB08DF81D70ADF81E70C94C00F0BB
:1009900047FAFFF77DFF384602F060FC3846012138
:1009A00002F098FCFFF71EFF04F58071012002F0B1
:1009B000C1FA012854D0D4F8000102F09FFB0128AD
:1009C0004ED03946D4F8000102F0A8FB012847D0E8
:1009D0000821D4F8000102F0F3FB012840D0B64909
:1009E000D4F8000102F0AAFB012839D02021D4F864
:1009F000000102F00FFC012832D05B21D4F8000185
:100A000002F014FC01282BD00121D4F8000102F0DF
:100A100019FC012824D02546A84EBB460FCE0FC591
:100A20000FCE0FC50FCE0FC5366841F288332E604A
:100A300033222146A24801F0E7FFA246A14D2B78C0
:100A4000042B0DD801A252F823F000BF3F0A000882
:100A5000710C00082F0C0008D30A0008670A000870
:100A60009948FFF765FFD4F80001002102F0C6FBAA
:100A70000128F5D0954C8F4E0FCC0FC60FCC0FC66A
:100A800023683146A6F120042646914F41F82039CB
:100A9000232241F288338A4801F0B6FF0FCF0FC6F8
:100AA0000FCF0FC697E8070003C6170C26F8022BD6
:100AB0004FF0000B214641F288332A2280483770DC
:100AC00001F0A2FF8AF804B1ADF81EB085F800B0BD
:100AD000B5E70DF11D01D4F8000102F03BFB012840
:100AE000BED09DF81D30012BA9D1002002F0DEFB05
:100AF0004FF000080AA921F8088DDAF8000102F089
:100B00004DFB0128ACD0BDF820300326B3FBF6F630
:100B1000704A33464FF480716648ADF8206007F0A4
:100B20009DFB6448FFF75CFB6B4F624E82B241F263
:100B300088336049624801F067FF0FCF0FC60FCFBF
:100B40000FC697E8070003C6314641F2883321F803
:100B500028295B48292201F057FFBDF82030002BDF
:100B600061D0C146A046CDF814B000244FF0000378
:100B7000A3460AAE0494ADF8223046F8044D03278C
:100B80000DF12201D8F8000102F0F6FA01283FF435
:100B900067AF3146DAF8000102F01EFB01283FF48E
:100BA0005FAFBDF82230012B00F0A680C0F0A1801D
:100BB000022B7FF455AF099C013FE1D1B9F1090F38
:100BC00009F1010915DC049B444A4FF4807100933C
:100BD00002944B46CDF804B0364807F03FFB354849
:100BE000FFF7FEFA41F2883382B23249344801F00D
:100BF0000BFFBDF820309945B7DB0A2BDDF814B0A8
:100C0000444610D90A23364A4FF48071294807F028
:100C100025FB2848FFF7E4FA41F2883382B22549E0
:100C2000274801F0F1FE002002F04AFB3EE00DF102
:100C30001E01D4F8000102F0B1FA012854D0BDF829
:100C40001E60B34509D02E2741F28833012219498D
:100C50001B48AAF8007001F0D7FE94F80431002B6D
:100C600045D0032200232A70B3468AF80431E6E611
:100C7000104C1C4E27460FCE0FC70FCE0FC70FCEFE
:100C80000FC73668214641F2883333220C483E6054
:100C900001F0BAFE4FF47A7000F0E6F80621DAF8B7
:100CA000000102F0ABFA01283FF4DAAE02232B7008
:100CB000C5E600BFE40200200040CE45748C000869
:100CC0009404002000000020D88A0008248C00082A
:100CD000488C00086C8B0008B48B0008E08B00087F
:100CE000008C0008388B00080BB0BDE8F08FB346CD
:100CF000A5E6099B04935FE7DDF824B05CE700BF3D
:100D0000B0F5005F08B506D0102818D10D4B0122B0
:100D100083F8042108BD002002F01AFB40B90A4AFA
:100D20001378042B0BD8DFE803F007030403030058
:100D300008BD0423137008BD0123137008BD0348C8
:100D4000FFF7F6FDE402002000000020E08A000822
:100D5000704700BFFEE700BF704700BF00F076B8E5
:100D6000102000F0FFB900BF4FF4005000F0FAB9B6
:100D70000A4A08B50346106860B1694603448B42CD
:100D800001D8136008BD07F035FA0C2303604FF05B
:100D9000FF3008BD024908461160EEE7EC03002071
:100DA000E8060020002103E00B4B5B584350043160
:100DB0000A480B4B42189A42F6D30A4A02E0002333
:100DC00042F8043B084B9A42F9D301F0E9FE07F0E0
:100DD00017FAFFF7D3FD7047E88C000800000020E9
:100DE000C8020020C8020020E4060020FEE7000040
:100DF000704700BF10B50446074B08481B68A0FBAE
:100E00000330800900F094F8214600224FF0FF30B3
:100E100000F04AF8002010BD04000020D34D6210FD
:100E200008B5094B03201A6842F004021A601A68D8
:100E300042F002021A6000F025F80F20FFF7DAFFF7
:100E4000FFF7D6FF002008BD003C0240024A1368AD
:100E500001331360704700BFD4060020014B1868AF
:100E6000704700BFD406002010B582B00190FFF794
:100E7000F5FF0446FFF7F2FF019B001B9842F9D3F0
:100E800002B010BD4FF6FF0206490002CB6800F425
:100E9000E0601A4042F0BF6343F400330343CB6089
:100EA000704700BF00ED00E0194B30B4DB68C3F3BE
:100EB0000223C3F10705042D03F1040428BF042510
:100EC000062C18D9033B01249C40013C22400124FC
:100ED000AC40013C214001FA03F3002842EA03023E
:100EE0000CDB120100F16040D2B200F5614080F8E5
:100EF000002330BC704700221346E8E7054B00F0A2
:100F00000F001201D2B203441A7630BC704700BF02
:100F100000ED00E0FCEC00E000F01F010123034ABB
:100F200040098B4042F82030704700BF00E100E0EC
:100F30000138B0F1807F0DD230B4074B074CF0255B
:100F40005860002284F823500721104630BC9A6074
:100F5000196070470120704710E000E000ED00E0EC
:100F6000D1F800C0BCF1000F00F0E0802DE9F04F97
:100F7000884683B0DFF8D491002579E0D0F800E00E
:100F800001F0030A0EEA030E0AFA07FA013E4AEAE2
:100F90000E0E012EC0F800E040F29C80C668D8F822
:100FA00008203340BA401343CF00C3605CD5604B88
:100FB0005F4E1B6A25F0030243F001033362336A7C
:100FC00002F1804203F00103019302F5803205F043
:100FD0000303019E9B0097680F269E4027EA0606A2
:100FE000544FB84200F08C8007F58067B84200F09B
:100FF0008980514FB84200F08980504FB84200F0CC
:1010000089804F4FB84200F089804E4FB84200F0BF
:1010100089804D4FB8420CBF0627072707FA03F314
:1010200033439360E243D9F80030CE034CBF2343EF
:101030001340C9F80030D9F804308F034CBF234364
:101040001340C9F80430D9F80830CE024CBF23430E
:101050001340C9F80830D9F80C30890254BF02EAAD
:1010600003041C43C9F80C4001353CFA05F344D095
:101070000122AA4012EA0C04F6D0D8F804106F003E
:1010800021F010060323BB40022E6FEA03037FF416
:1010900075AF4FEAD50A00EB8A0A05F0070EDAF8B9
:1010A00020B04FEA8E0E0F2606FA0EF62BEA060B3C
:1010B000D8F8106006FA0EF646EA0B06CAF8206069
:1010C000066801F0030A06EA030E5646BE4046EAE9
:1010D0000E060660866806EA030ED8F80C60BE406D
:1010E00046EA0E0686604668C1F3001E26EA02063E
:1010F0007246AA403243426050E703B0BDE8F08F29
:1011000000238DE7012707FA03F389E7022707FA8F
:1011100003F385E7032707FA03F381E7042707FAB8
:1011200003F37DE7052707FA03F379E7704700BF6C
:10113000003802400000024000080240000C02405B
:101140000010024000140240001802400004014058
:101150000369194214BF01200020704702B9090435
:1011600081617047044A5169014200D1704708B556
:101170005061FFF7C5FD08BD00040140F8B5044605
:101180000D46164623685869C04310F0020026D069
:101190005A69510511D51A6800216FF4806742F42D
:1011A0000072042620251A6001205F61266484F8FD
:1011B0003C10216384F83D50F8BD6A1CE3D045B96A
:1011C00000232022236384F83C3084F83D20032050
:1011D000F8BDFFF743FE801B8542D3D2F0E7F8BD90
:1011E0002DE9F041884616461F460546006882B044
:1011F000046844F480740460089C621C41D1436913
:10120000DB07FCD508F0FE010161631C14D04369C3
:101210009B0714D443695A053FD4002C00F09380F7
:10122000FFF71CFE099BC01A8442C0F08C8028681E
:10123000EBE743695A0530D443699907F9D5002390
:1012400001934369019383690193019B621C5CD103
:1012500043691B0648D443695905F9D500236FF447
:101260008064042120224461296485F83C302B638A
:1012700085F83D202B6C042B2FD0032002B0BDE855
:10128000F0814369D907BDD4E4B1FFF7E7FD099BBD
:10129000C01A844216D32868AFE7036800226FF4AF
:1012A000806643F4007304242021036046612C64AB
:1012B00085F83C202A6385F83D102B6C042BDCD18B
:1012C0000120DBE7002320222B6385F83C3085F8E2
:1012D0003D20032085F83E30D0E72A6801201368BE
:1012E00043F400731360C9E7012F0AD0330A036186
:1012F000671C19D14369190603D443695A05ADD453
:10130000F8E7F6B206610020B8E743691A06EBD4A5
:1013100043695905A2D4F4B1FFF7A0FD099BC01A97
:10132000844218D3286891E743691B06E9D44369CE
:101330005B0593D47CB1FFF791FD099BC01A8442F1
:1013400009D32868D4E7002320222B6385F83C309A
:1013500085F83D20B1E72B6C002243F020032021CB
:101360002B6485F83C202A6385F83D1082E700BF96
:101370002DE9F043984604460068894601681746FF
:1013800041F480610160026883B042F480720A9E79
:101390000B9D0260711C42D14369DA07FCD55FFAEC
:1013A00089F909F0FE030361721C13D043699A079F
:1013B00013D4436959053DD4002E00F0A880FFF7EF
:1013C0004DFD401B8642C0F0A2802068ECE74369D7
:1013D00059052FD443699B07F9D50023019343692D
:1013E000019383690193019B711C63D143691A06C0
:1013F00047D443695B05F9D500236FF48065042168
:1014000020224561216484F83C30236384F83D2028
:10141000236C042B2ED0032003B0BDE8F083436976
:10142000DB07BCD4DEB1FFF719FD401B864216D3A3
:101430002068AFE7036800226FF4806643F400730E
:101440000425202103604661256484F83C20226342
:1014500084F83D10236C042BDDD10120DCE7002350
:101460002022236384F83C3084F83D20032084F854
:101470003E30D1E722680120136843F40073136003
:10148000CAE7B8F1010F0AD03B0A0361731C2FD1E0
:101490004369190603D443695A05ADD4F8E7FFB28E
:1014A0000761711C15D143691A0638D443695B057D
:1014B000A2D4F8E743691906E3D443695B059BD4DA
:1014C000002E4CD0FFF7CAFC401B864247D3206851
:1014D0008AE743691F0622D443695F058CD4002E36
:1014E0003DD0FFF7BBFC401B864238D32068D8E7CD
:1014F00043691B06D3D443695A053FF57DAF76B3E4
:10150000FFF7ACFC401B864229D32068BEE70023CE
:101510002022236384F83C3084F83D209AE7036856
:1015200043F480730360711C0DD14369DA07FCD565
:1015300049F0010303612A4631462046FFF71EFEAB
:10154000002887D168E74369DB07F1D4002E86D0F5
:10155000FFF784FC401B864281D32068E3E7236CBD
:10156000002243F020032021236484F83C202263DE
:1015700084F83D104CE700BF704700BF002800F022
:101580009080F8B590F83D30044603F0FF02002B40
:1015900074D001F055F8444B98426DD92368242249
:1015A00084F83D201A68414922F00102A1FB005154
:1015B0001A605A68890C22F03F020A435A603C4E76
:1015C00062681D6AB24225F03F0539D85200B0FB6F
:1015D000F2F2013129431962D969C2F30B0521F4F2
:1015E0004F41032D21F0FF0198BF04220A43DA6125
:1015F0001968E669226A21F0C00132430A431A6081
:1016000099682769E66821F403423E4322F0FF020D
:1016100032439A60D9686669A26921F0FF013243BA
:101620000A43DA601A680025202142F001021A609C
:101630002846256484F83D10256384F83E50F8BDA3
:101640004FF4967606FB01F11A4FA668A7FB0171CD
:101650008909013129431962D96921F44F4121F0E7
:10166000FF0186B902EB4202B0FBF2F0C0F30B02BD
:10167000AAB140F40042B9E70120F8BD80F83C204F
:10168000FFF77AFF85E702EB820202EB8202B0FBF2
:10169000F2F0C0F30B0212B140F44042A6E701227F
:1016A000A4E70120704700BF7F841E0083DE1B4338
:1016B000A0860100D34D6210704700BFB0B110B5D5
:1016C00004460268242380F83D30136823F00103A8
:1016D0001360FFF7F1FF0023236484F83C3084F8A3
:1016E0003D301846236384F83E3010BD012070471A
:1016F0002DE9F047044682B099460F469046BDF862
:101700002C60FFF7ABFB94F83D30202B04D0022671
:10171000304602B0BDE8F0870A9B03B126B9012626
:10172000304602B0BDE8F087054605E0FFF796FBBE
:10173000401B192800F2898022689369DB4313F06B
:10174000020AF3D094F83C30012BE0D01368012159
:10175000D80784F83C1002D413680B431360136855
:101760005A4923F4006313604FF0000A21224023FA
:1017700084F83D2084F83E30C4F840A066850A9E77
:10178000E162608D66620C9E019500964B46208555
:10179000424639462046FFF723FD064600286FD112
:1017A0002368228D4AB30C9A013259D15A69120624
:1017B0002DD45A695705F9D500226FF480650420AD
:1017C00020215D61206484F83C20226384F83D1070
:1017D000236C042B73D003269AE75A69520755D419
:1017E0005A695705E8D40C9B002B5CD0FFF736FBF9
:1017F0000C9B401B834256D323680C9A0132ECD1D8
:101800005A69500742D45A695105D5D4F8E7606A3D
:10181000278D421C626201787A1E1961618D92B235
:10182000013989B26185596922854907BAD5002AEB
:10183000E3D0821C62624178BA1E1961618D92B256
:10184000013989B222856185ACE72023C4F830A034
:1018500084F83CA084F83D30022684F83EA057E787
:101860005A691006D3D45A695105A5D40C9BD3B13B
:10187000FFF7F4FA0C9B401B834214D3236892E7D2
:10188000236C84F83CA0042BA5D148E71A680021FA
:10189000202042F400721A6084F83D0084F83C1065
:1018A00084F83E1034E7236C002243F0200320210B
:1018B000236484F83C20226384F83D1088E7226882
:1018C0000126136843F40073136021E70000FFFF53
:1018D0002DE9F047044686B099460F469046BDF87C
:1018E0003C60FFF7BBFA94F83D30202B04D0022770
:1018F000384606B0BDE8F0870E9B03B126B9012734
:10190000384606B0BDE8F087054604E0FFF7A6FAC2
:10191000401B192839D822689369DB4313F0020A67
:10192000F4D094F83C30012BE1D013680121D807A2
:1019300084F83C1002D413680B43136013689D496C
:1019400023F4006313604FF0000A2222402384F83E
:101950003D2084F83E30C4F840A06685E1623946F7
:101960000E9F608D6762109F019500974B46208502
:1019700042462046FFF7FCFC074688B1236C84F8FA
:101980003CA0042BBBD00327B2E72023C4F830A02F
:1019900084F83CA084F83D30022784F83EA0A7E7F5
:1019A000238D2268012B00F0F680022B00F00481C9
:1019B00005905169059192690592059A002B00F0F6
:1019C000E280032B65D8012B00F0C280022E00F0CC
:1019D0009D80109B2268013338D153695807FCD58C
:1019E0001368616A23F48063136013694A1C62629E
:1019F0000B70638D228D013B9BB2013A6385109B76
:101A000022850133226837D153695B07FCD51368FF
:101A1000616A43F40073136013694A1C62620B70BD
:101A2000638D2268013B9BB26385616A238D1269D5
:101A3000013B481C238560620A70238D628D013B47
:101A4000013A9BB292B223856285B7E75369590781
:101A5000C6D4109B2BB1FFF701FA109B401B8342A9
:101A6000B7D200232022236384F83C3084F83D2041
:101A7000032784F83E303BE753695807C7D4109BCF
:101A8000002BEED0FFF7EAF9109B401B8342B8D23F
:101A9000E7E7109B4BB924E05A69D0064CD4FFF716
:101AA000DDF9109B401B834222D323685A695206FA
:101AB000F2D5626A1B69511C61621370628D2168E4
:101AC000013A92B2238D62854A69013B9BB252076B
:101AD00023857FF573AF636A0A69591C61621A70C6
:101AE000ABE723685A695106E3D45A69D10623D477
:101AF000236C202213430021236484F83C1084F8D3
:101B00003D20236C202B7FF4FAAE3CE7109B013381
:101B1000226803D153695907FCD578E753695B07FD
:101B20003FF575AF109B002B9BD0FFF797F9109BEB
:101B3000401B8342EBD294E700226FF0100020217B
:101B40005861226484F83C20226384F83D10D8E771
:101B5000109B4BB912E05A69D206EDD4FFF77EF91B
:101B6000109B401B8342C3D323685A695106F2D5A8
:101B7000626A1B69511C616213705EE723685A69CF
:101B80005006B2D5F4E7202284F83D2084F83C309A
:101B900084F83E30ACE6116821F480611160039056
:101BA00051690391916903910399116841F400719E
:101BB000116003E70000FFFF116821F480611160EC
:101BC000116841F4006111600490516904919269B7
:101BD0000492049AF2E600BF90F83D00704700BFFF
:101BE0002DE9F043036885B0DE0704463BD5BD49C7
:101BF0008A6802F00C02082A00F0B6818A6802F0B6
:101C00000C020C2A00F0AC816368012B00F0B98251
:101C1000002B00F00D82052BB24B1A6800F0B9833F
:101C200022F480321A601A6822F480221A60FFF7C8
:101C300015F94FF400380746AA4E012505E0FFF7D5
:101C40000DF9C01B642800F26A8298FAA8F3326882
:101C500098FAA8F3B3FA83F303F01F0305FA03F32A
:101C60001342ECD02368980745D59E498A6802F054
:101C70000C02042A00F05B828A6802F00C020C2A33
:101C800000F05182E2680125002A00F0878195FA70
:101C9000A5F3B3FA83F303F1845303F58E139B008A
:101CA0001D60FFF7DBF84FF0020807468D4E05E098
:101CB000FFF7D4F8C01B022800F2318298FAA8F38B
:101CC0008849326898FAA8F3B3FA83F303F01F0344
:101CD00005FA03F31342EBD04A684FF4F85393FA32
:101CE000A3F3B3FA83F3206922F4F85200FA03F362
:101CF00013434B602368DA0600F1AD801D0728D539
:101D00006269002A00F07081012292FAA2F1B1FA10
:101D100081F1754B16460B449B001A60FFF79EF845
:101D20004FF0020807466F4D05E0FFF797F8C01B1C
:101D3000022800F2F48198FAA8F36A6B98FAA8F3E3
:101D4000B3FA83F303F01F0306FA03F31342ECD054
:101D50002368580748D5634B5A6AD10000F10E82B8
:101D60005A6A4FF0010842F080525A625B6A03F0EF
:101D700080530193019B5D4B1A68D20540F1BE81EF
:101D8000A368012B00F0A482002B00F02582052B14
:101D9000544B5A6B00F0948222F480725A635A6B4F
:101DA00022F480625A63FFF759F84FF4007907462E
:101DB0004C4E012507E0FFF751F841F28833C01B74
:101DC000984200F2AC8199FAA9F3726B99FAA9F3DF
:101DD000B3FA83F303F01F0305FA03F31342EAD0C7
:101DE000B8F1000F40F06682636A83B33D4DAA6884
:101DF00002F00C020C2A00F0CD80022B4FF0807311
:101E000000F06C8293FAA3F3B3FA83F303F18453E3
:101E100003F58E139B0000221A60FFF71FF84FF0A6
:101E200000740746012605E0FFF718F8C01B0228DA
:101E300000F2758194FAA4F32A6894FAA4F3B3FA31
:101E400083F303F01F0306FA03F31342ECD10020DF
:101E500005B0BDE8F083234DAB6813F00C0F47D0FD
:101E6000A2694FF48073002A00F0918193FAA3F3E2
:101E7000B3FA83F303F1845303F58E139B00012619
:101E80001E60FEF7EBFF4FF40078074605E0FEF713
:101E9000E5FFC01B022800F2428198FAA8F311491D
:101EA0002A6898FAA8F3B3FA83F303F01F0306FA3B
:101EB00003F31342EBD04A68236A22F460421343CF
:101EC0004B604A684FF07F4393FAA3F3B3FA83F36E
:101ED000E06922F07F4200FA03F313434B6023686A
:101EE0000CE700BF00380240A0C191100070004014
:101EF0004FF4007393FAA3F2296893FAA3F3B3FAA9
:101F000083F3012203F01F0302FA03F30B4202D012
:101F1000A369002B3ED0C54B216A5A6802F4604287
:101F2000914240F28D819A6812F0F00F40F0A48047
:101F30005A6AD70040F14782A3F5E4331A6802F4E5
:101F4000C052B2F5C05F40F09780B1F5404F40F00D
:101F50009380B74A0120136843F0040313608CE0B8
:101F60008A68D5037FF550AE4FF4003292FAA2F1A1
:101F7000AE49086892FAA2F2B2FA82F2012102F0A6
:101F80001F0201FA02F202423FF46DAE6268002ABB
:101F90007FF469AE012005B0BDE8F08395FAA5F3A2
:101FA000B3FA83F303F1845303F58E139B001A6095
:101FB000FEF754FF4FF0020807469C4E05E0FEF77F
:101FC0004DFFC01B022800F2AA8098FAA8F33268DD
:101FD00098FAA8F3B3FA83F303F01F0305FA03F3A7
:101FE0001342ECD1236886E6012595FAA5F1B1FAF2
:101FF00081F1904B4FF002080B449B001A60FEF7F2
:102000002DFF8A4E074605E0FEF728FFC01B022879
:1020100000F2858098FAA8F3726B98FAA8F3B3FAE5
:1020200083F303F01F0305FA03F31342ECD18FE6A9
:102030007E4B4FF400381A681E4622F480321A6034
:102040001A68012522F480221A60FEF707FF07466E
:1020500004E0FEF703FFC01B642860D898FAA8F3D9
:10206000326898FAA8F3B3FA83F303F01F0305FA72
:1020700003F31342EDD1F5E500206D4A136823F018
:10208000010303431360136803F00103984281D1F5
:1020900066484FF07F43426822F46042114341603A
:1020A000426893FAA3F3B3FA83F3E16922F07F4223
:1020B00001FA03F313434360216A4FF4604393FA38
:1020C000A3F35A4AB3FA83F39268F02090FAA0F08F
:1020D000B0FA80F002F0F002574DC24021FA03F34B
:1020E0000133A95C4FF4004202FA03F3534ACB4098
:1020F0000F201360FEF77EFE2368FFE51A681D4679
:1021000042F480721A60FEF7A9FE06462B68DB05D2
:102110003FF536AEFEF7A2FE801B6428F6D90320F9
:1021200005B0BDE8F0838A68D1033FF5ABAD02226C
:1021300092FAA2F13D49086892FAA2F2B2FA82F24A
:10214000012102F01F0201FA02F2024203D0E2680A
:102150008A427FF41FAF354D4FF4F852696892FA06
:10216000A2F2B2FA82F2206921F4F85100FA02F2E6
:102170000A436A60DA067FF5C1AD6CE64FF00008ED
:10218000F9E52A4A136843F4803313604FE593FA64
:10219000A3F3B3FA83F303F1845303F58E139B0087
:1021A0001A60FEF75BFE4FF400780746012604E054
:1021B000FEF754FEC01B0228B1D898FAA8F32A688B
:1021C00098FAA8F3B3FA83F303F01F0306FA03F3B4
:1021D0001342EDD1236891E5144B4FF400795A6B0B
:1021E0001E4622F480725A635A6B012522F48062E3
:1021F0005A63FEF733FE074606E0FEF72FFE41F274
:102200008833C01B98428AD899FAA9F3726B99FA5D
:10221000A9F3B3FA83F303F01F0305FA03F31342A0
:10222000EBD1B8F1000F3FF4DFAD43E000380240DE
:10223000003C0240A0C19110048B00080400002063
:1022400058684FF07F4220F4604008435860586857
:1022500092FAA2F2B2FA82F2E56920F07F4005FA22
:1022600002F202435A609A6812F0F00F14D15A6ACF
:10227000D60040F196805D4B1A6802F4C052B2F568
:10228000C05F09D1B1F5404F06D1594A012013680A
:1022900043F00403136000E00020554A136823F064
:1022A000010303431360136803F0010398427FF4B2
:1022B00071AE02E74F4A536A23F08053536293E5AD
:1022C00042F480625A635A6B42F480725A636AE540
:1022D000484A536B43F48073536364E593FAA3F362
:1022E000B3FA83F303F1845303F58E139B000022AA
:1022F0001A60FEF7B3FD4FF000780746012605E0AF
:10230000FEF7ACFDC01B02283FF609AF98FAA8F310
:1023100038492A6898FAA8F3B3FA83F303F01F0345
:1023200006FA03F313424FF00100E9D1A66AE56A09
:10233000226B8B6846EA0504224323F47D03134392
:102340008B604FF0807393FAA3F3B3FA83F303F136
:10235000845303F58E139B0018600C460546FEF768
:102360007DFD4FF00076074605E0FEF777FDC01BC8
:1023700002283FF6D4AE96FAA6F3226896FAA6F3A0
:10238000B3FA83F303F01F0305FA03F31342ECD00F
:102390005DE542F480221A601A6842F480321A60C5
:1023A00045E45A6A114842F080525A625A6A02F071
:1023B00080520392039A0268586A02F4C05220F0D5
:1023C000805058625BE75A6A084842F080525A626D
:1023D0005A6A02F080520292029A0268586A02F423
:1023E000C05220F080505862ABE500BF0070004042
:1023F000003C0240003802408A4A2DE9F04113684F
:1024000003F001038B4215D20129136807D023F092
:1024100001031943116001201368BDE8F08143F006
:1024200004031360136843F0010313601368DE07AD
:1024300040F18D8003689F0706D57B4D8268AC68AC
:1024400024F0F0042243AA60DD0706460C4637D587
:102450004368022B00F0CE80032B00F0C580012BD7
:1024600000F0CF804FF4007292FAA2F16E49086832
:1024700092FAA2F2B2FA82F2012102F01F0201FAEC
:1024800002F2024263D0684D41F28838AA6822F015
:1024900003021343AB60FEF7E1FC73680746022BAF
:1024A0005DD0032B66D0012B06D16EE0FEF7D6FC83
:1024B000C01B404500F29B80AB6813F00C0FF5D1B8
:1024C000584A136803F001039C4239D33368580714
:1024D00006D55548F268816821F4E0610A438260BC
:1024E000190758D450498B6803F00C02082A00F0F1
:1024F00086800C2A58D0042A7FD04B684FF4604263
:1025000092FAA2F2B2FA82F203F46043D3405A1C68
:102510004FF400439340444AF021926891FAA1F1AC
:10252000B1FA81F1414802F0F002CA40815C404AB0
:10253000CB400F201360FEF75DFC0020BDE8F0816A
:10254000136823F0010313601368DC07BED5012074
:10255000BDE8F081FEF782FCC01B404547D8AB6860
:1025600003F00C03082BF5D1AAE7FEF777FCC01B9C
:1025700040453CD8AB6803F00C030C2BF5D19FE72A
:10258000FEF76CFCC01B404531D8AB6803F00C0370
:10259000042BF5D194E7244A3169936823F46053FE
:1025A00043EAC10393609DE74FF4701292FAA2F2DE
:1025B000B2FA82F203F470101E4C20FA02F2A05C10
:1025C0004FF4400292FAA2F2B2FA82F2896803F45E
:1025D0004003D340CA034CBF174A184A013302FBD9
:1025E00000F0B0FBF3F396E74FF000723CE70320F6
:1025F000BDE8F0814FF4003236E7104B8BE70E4B0D
:1026000089E7022292FAA2F10749096892FAA2F236
:10261000B2FA82F202F01F0203FA02F20A427FF4D7
:1026200032AF94E7003C024000380240048B0008BF
:1026300004000020F88A000800127A000024F40048
:10264000084B4FF4E0629B6892FAA2F2B2FA82F26F
:102650000548064903F4E063D340C35C0868D840EA
:10266000704700BF00380240148B000804000020AF
:10267000084B4FF460529B6892FAA2F2B2FA82F2CF
:102680000548064903F46053D340C35C0868D8404A
:10269000704700BF00380240148B0008040000207F
:1026A0002DE9F04782460668C0683469DAF80850B8
:1026B00024F4405420433061DAF81010F368DAF85B
:1026C0001420DAF81C00294323F416430A4302437A
:1026D00023F00C031343F3607269DAF8183022F424
:1026E00040721343B0F5004F7361AD4B5CD09E4216
:1026F00000F0B780FFF7A4FFDAF8045000EB800089
:1027000000EB8000AD00B0FBF5F5FFF799FFA54F9A
:1027100000EB8000A7FB0535DAF8043000EB800001
:102720009C00B0FBF4F4FFF78BFFDAF8043000EB09
:1027300080009B0000EB8000B0FBF3F0A7FB0030B3
:102740004FF06408400908FB1044FFF779FFDAF8FE
:10275000041000EB80008A0000EB8000B0FBF2F96F
:10276000FFF76EFFDAF8042000EB8000920000EB28
:102770008000B0FBF2F0A7FB003024013234A7FB4D
:102780000434400908FB10926D0964092D0104F01E
:10279000F00412013232A7FB0223C3F343131C449B
:1027A0002544B560BDE8F0879E4200F0AA80FFF79F
:1027B00047FFDAF8045000EB800000EB80006D006A
:1027C000B0FBF5F5FFF73CFF764F00EB8000A7FB71
:1027D0000535DAF8043000EB80005C00B0FBF4F45F
:1027E000FFF72EFFDAF8042000EB8000530000EB27
:1027F0008000B0FBF3F3A7FB03234FF064085B09F1
:1028000008FB1344FFF71CFFE4003234A7FB043439
:10281000DAF8043000EB80005A0000EB8000B0FBD7
:10282000F2F9FFF70DFFDAF8042000EB8000520008
:1028300000EB8000B0FBF2F0A7FB00326D09240929
:102840002D0104F4F874520908FB1292D2003232BE
:10285000A7FB0223C3F342132B441C44B460BDE81E
:10286000F087FFF705FFDAF8045000EB800000EB7B
:102870008000AD00B0FBF5F5FFF7FAFE494F00EB25
:102880008000A7FB0535DAF8043000EB80009C00DF
:10289000B0FBF4F4FFF7ECFEDAF8042000EB800064
:1028A000930000EB8000B0FBF3F3A7FB03234FF092
:1028B00064085B0908FB1344FFF7DAFE2401323495
:1028C000A7FB0434DAF8043000EB80009A0000EB38
:1028D0008000B0FBF2F9FFF7CBFEDAF8042000EB42
:1028E0008000920000EB8000B0FBF2F0A7FB00320A
:1028F0006D09640952092D0104F0F00408FB1292DD
:1029000047E7FFF7B5FEDAF8045000EB800000EB74
:1029100080006D00B0FBF5F5FFF7AAFE214F00EB3C
:102920008000A7FB0535DAF8043000EB80005C007E
:10293000B0FBF4F4FFF79CFEDAF8042000EB800013
:10294000530000EB8000B0FBF3F3A7FB03234FF031
:1029500064085B0908FB1344FFF78AFEE400323485
:10296000A7FB0434DAF8043000EB80005A0000EBD7
:102970008000B0FBF2F9FFF77BFEDAF8043000EBE1
:10298000800000EB80005B00B0FBF3F3A7FB0323A8
:102990006D0924092D0104F4F8745A0954E700BFA5
:1029A000003801401F85EB51704700BF50B338B568
:1029B00090F83930044603F0FF02F3B12268022395
:1029C00084F83930D368204623F40053D360FFF7EE
:1029D00067FE236800211A69012522F490421A61DA
:1029E0005A69084622F02A025A61DA6842F4005213
:1029F000DA60E16384F8395038BD80F83820FFF799
:102A0000D3FFDBE7012070472DE9F041054690F840
:102A100039000E46C1B201291F4604D0222902D036
:102A20000220BDE8F081002E00F08D80002A00F029
:102A30008A8095F83830012BF2D010460023EB63E2
:102A400095F839300121222B0CBF3223122385F84F
:102A5000381085F83930AA84AB680138B3F5805F47
:102A6000E8844DD0FEF7FAF980467A1C2C6821D113
:102A7000226802F08002002AFAD0337801366360BF
:102A8000E88C0028E8D1FEF7E9F904467B1C2A68A7
:102A90005CD1136803F04003002BFAD095F839306D
:102AA000322B78D0012385F83930002085F83800A2
:102AB000BDE8F081236803F08003002BDDD137B13E
:102AC000FEF7CCF9C8EB00008742CED22C68E36851
:102AD000012123F08003E360E368002223F0200358
:102AE000E360E368032023F48073E360636923F009
:102AF0000103636185F8391085F83820BDE8F0815D
:102B0000FEF7ACF98046791C2C680CD1226802F0E3
:102B10008002002AFAD033882A69C3F3080363606D
:102B20007AB90236ACE7236803F08003002BF2D1B8
:102B3000002FCCD0FEF792F9C8EB00008742E2D21A
:102B4000C4E701369CE70120BDE8F081136803F07B
:102B50004003002BA2D12FB1FEF780F9001B874262
:102B600094D22A68D368012423F08003D360D36809
:102B7000002123F02003D360D368032023F4807363
:102B8000D360536923F00103536185F8394085F818
:102B90003810BDE8F081222385F8393085E700BF81
:102BA0000F4B10B419680F4A41F48071196099688D
:102BB0000D480A409A601A68002422F0885222F0D8
:102BC00001121A601A684FF0006122F480221A6024
:102BD0009A6822F47D029A60DC60816010BC7047C4
:102BE000003802400CC0FF8800ED00E0F0B52C4C2E
:102BF00089B02046FEF7F0FF38B12948FEF7ECFF18
:102C0000203818BF012009B0F0BD0546254E264BDF
:102C1000264A2360F3694FF4804143F00203F361D5
:102C2000F3694FF4407003F0020301934FF0330E49
:102C3000019B6260042302222161039003A91227F1
:102C40001B48C4F80CE006920793A560059504970D
:102C5000FEF786F9736A2A4643F400137362736AB7
:102C6000294603F400130293029BB3691F2043F427
:102C70000013B361B36923F40013B361FEF714F9D1
:102C80001F20FEF749F92A4629462020FEF70CF9B5
:102C90002020FEF741F92046FEF770FCADE700BFAB
:102CA000F40300200038024000540040801A06005F
:102CB00000040240F0B52C4C89B02046FEF78CFF92
:102CC00038B12948FEF788FF203818BF012009B025
:102CD000F0BD0546254E264B264A2360F3694FF486
:102CE000804143F00203F361F3694FF4407003F055
:102CF000020301934FF0330E019B62600423022212
:102D00002161039003A912271B48C4F80CE0069226
:102D10000793A56005950497FEF722F9736A2A4682
:102D200043F400137362736A294603F40013029399
:102D3000029BB3691F2043F40013B361B36923F40A
:102D40000013B361FEF7B0F81F20FEF7E5F82A463E
:102D500029462020FEF7A8F82020FEF7DDF82046BF
:102D6000FEF70CFCADE700BFF40300200038024082
:102D700000540040801A060000040240F0B51D4DCA
:102D80008DB0EB691C4F43F00103EB61EB6900244C
:102D900003F0010302261022009302A91748009BAA
:102DA0000292039705960494FEF7DAF8224621462C
:102DB0000A20FEF779F80A20FEF7AEF8EB69012247
:102DC0003343EB61EB6907A9334001930C48019B46
:102DD000079208970A960994FEF7C2F82246214600
:102DE0000620FEF761F80620FEF796F820460DB0A3
:102DF000F0BD00BF0038024000001110000002408A
:102E0000000402402DE9F0470546007884B0B1285F
:102E10000F4690461E461BD012D83D2813D04FF4C3
:102E20008053A9783A4602930196CDF80080012399
:102E30001948FEF75DFC30BB002004B0BDE8F08708
:102E4000BC380128EBD8012E88BF47F08007E6E7A1
:102E5000002BF1D000244FF4805A4FF0010901E01B
:102E6000B442E9D008EB04033A19A978D2B200932E
:102E7000CDF808A0CDF8049001230748FEF738FCF0
:102E800001340028ECD00448FEF718FCFFF7AEFE32
:102E9000012004B0BDE8F087F40300202DE9F047DD
:102EA0000546007884B0B1280F4690461E461BD0D8
:102EB00012D83D2813D04FF48053A9783A46029394
:102EC0000196CDF8008001231948FEF701FD30BBC3
:102ED000002004B0BDE8F087BC380128EBD8012EF3
:102EE00088BF47F08007E6E7002BF1D000244FF4BD
:102EF000805A4FF0010901E0B442E9D008EB040325
:102F00003A19A978D2B20093CDF808A0CDF8049070
:102F100001230748FEF7DCFC01340028ECD004480C
:102F2000FEF7CCFBFFF762FE012004B0BDE8F0879E
:102F3000F4030020F8B500260F460E6005466A4CE3
:102F4000002800F08C800128637E2BD1012B00F03B
:102F50008480FFF7AFFE01287FD0644B6448236272
:102F6000606204F138034FF0690ED42104F130029D
:102F700004F11400667525766676A676E57684F803
:102F800014E0A17523636663E2613860236A1B68FD
:102F9000002B00F09B809847012857D0FFF7EEFEEA
:102FA0000020F8BD012B29D0FFF784FE012825D091
:102FB0004E494F4A69200123216220756262D4255F
:102FC00004F1300104F1380204F114002376E376B1
:102FD00066756676A676A5756663E16122633860DC
:102FE000236A1B68002B78D098470128D6D13B680C
:102FF0001E605E609E60DE601E613E6063793A4DD9
:10300000012B2AD0FFF756FE012826D039493A4A2B
:1030100068230026E9602B702A6405F13C03D62062
:10302000012105F128026E702E716E71AE71A870CB
:10303000E971AB622E61EE62AA603D60EB681B68CD
:10304000002B3BD02846984701282DD13B681E60B5
:103050005E609E60DE601E613E600120F8BD6379A7
:10306000012BFAD0FFF726FE0128F6D0214A224B89
:10307000E2602364682604F13C03D620012104F1B8
:103080002802657025716571A5712670A070E171C7
:10309000A3622561E562A2603C60E3681B686BB1D6
:1030A00020469847012801D00020F8BD3B681D60EC
:1030B0005D609D60DD601D613D60CEE700232360A3
:1030C0006360A360E36023613B60C6E763614360C4
:1030D0008360C36003613B60BFE7636143608360FB
:1030E000C36003613B6089E748040020B40000200E
:1030F0005401002014000020D806002060B108B55B
:10310000C3689B6833B19847A0F10100B0FA80F022
:10311000400908BD012008BD0120704760B108B515
:10312000C3689B6A33B19847A0F10100B0FA80F000
:10313000400908BD012008BD0120704720B1026987
:1031400012B10378692B01D0012070471368002B5E
:10315000FAD0184770B1026962B110B411B10378A6
:10316000692B02D0012010BC70475368002BF9D0A6
:1031700010BC18470120704770B1026962B110B4E9
:1031800011B10378692B02D0012010BC704713697C
:10319000002BF9D010BC18470120704770B10269AC
:1031A00062B110B411B10378692B02D0012010BCB8
:1031B00070479369002BF9D010BC18470120704765
:1031C00020B1026912B10378692B01D00120704748
:1031D000D369002BFAD0184770B1026962B110B4FC
:1031E00011B10378692B02D0012010BC7047136A1B
:1031F000002BF9D010BC18470120704720B102699C
:1032000012B10378692B01D001207047536A002B5B
:10321000FAD0184720B1026912B10378692B01D0A6
:1032200001207047936A002BFAD0184720B1026939
:1032300012B10378692B01D001207047D36A002BAB
:10324000FAD0184720B1026912B10378692B01D076
:1032500001207047136B002BFAD01847F0B50446D5
:1032600087B048B90F4BDA6942F00102DA61DB69D5
:1032700003F001030093009B0B4D0223202655F819
:1032800024000122002701A90292049301960397CA
:10329000FDF766FE3A46314655F82400FDF75EFF1D
:1032A00007B0F0BD0038024008000020034B0122A7
:1032B00053F820002021FDF751BF00BF0800002077
:1032C000034B002253F820002021FDF747BF00BF29
:1032D0000800002010B50B4686B048B9194AD169DC
:1032E00041F00401D161D26902F004020092009A17
:1032F0004FF40051002401220191039404921BB168
:10330000012B0BD006B010BD0F4A01A902EB8000C3
:1033100040680293FDF724FE06B010BD0A4B0B4A2D
:1033200003EB800001A940680292FDF719FE2246D6
:103330000F212820FDF7B8FD2820FDF7EDFD06B090
:1033400010BD00BF0038024008000020000021101E
:1033500008B5044B4FF4005103EB80004068FDF7C3
:10336000F7FE08BD0800002008B5FFF74BFDB0FAD6
:1033700080F0400908BD00BF08B5FFF78FFDB0FA27
:1033800080F0400908BD00BF08B50A4601230F219F
:10339000FFF784FDB0FA80F0400908BD30B583B076
:1033A0000C460DF10702012310210546FFF776FDBB
:1033B00010B1002003B030BD9DF807300DF10702B9
:1033C00023F018031C432846012310218DF80740E1
:1033D000FFF718FDB0FA80F0400903B030BD00BF20
:1033E00010B50A460C4601231021FFF757FD08B11E
:1033F000002010BD2378012003F01803237010BDB6
:1034000030B583B00C460DF10702012310210546AB
:10341000FFF744FD10B1002003B030BD9DF8073028
:103420000DF1070203F01F031C432846012310215E
:103430008DF80740FFF7E6FCB0FA80F0400903B0D2
:1034400030BD00BF10B50A460C4601231021FFF71E
:1034500025FD08B1002010BD2378012023F01F03B3
:10346000237010BD30B583B00C460DF10702012367
:1034700020210546FFF712FD10B1002003B030BD3A
:103480009DF807300DF1070223F018031C4328466E
:10349000012320218DF80740FFF7B4FCB0FA80F03B
:1034A000400903B030BD00BF10B50A460C460123E9
:1034B0002021FFF7F3FC08B1002010BD2378012084
:1034C00003F01803237010BD30B583B00C460DF126
:1034D0000702012320210546FFF7E0FC10B1002080
:1034E00003B030BD9DF807300DF1070203F01F0354
:1034F0001C432846012320218DF80740FFF782FC5A
:10350000B0FA80F0400903B030BD00BF10B50A46E4
:103510000C4601232021FFF7C1FC08B1002010BD9B
:103520002378012023F01F03237010BD30B583B032
:103530000C460DF10702012322210546FFF7AEFCE0
:1035400010B1002003B030BD9DF807300DF1070227
:1035500023F040031C432846012322218DF8074015
:10356000FFF750FCB0FA80F0400903B030BD00BF57
:103570002DE9F04180460F4603260024A51CEDB23C
:1035800004F118013A19C9B201234046FFF786FC3D
:103590000134E4B248B9A542F2D1731E13F0FF061C
:1035A0002C46EBD10120BDE8F0810020BDE8F08180
:1035B0002DE9F04180460F4603260024A51CEDB2FC
:1035C00004F128013A19C9B201234046FFF766FC0D
:1035D0000134E4B248B9A542F2D1731E13F0FF06DC
:1035E0002C46EBD10120BDE8F0810020BDE8F08140
:1035F00010B50A460C4601232721FFF74FFC08B1FE
:10360000002010BD237801200340237010BD00BFAF
:1036100010B50A460C4601232721FFF73FFC08B1ED
:10362000002010BD2378012003F00203237010BD99
:1036300030B583B00C460DF1070201231E2105466B
:10364000FFF72CFC10B1002003B030BD9DF807300F
:103650000DF1070223F008031C43284601231E2115
:103660008DF80740FFF7CEFBB0FA80F0400903B0B9
:1036700030BD00BF10B50A460C4601231E21FFF7DE
:103680000DFC08B1002010BD2378012003F00803D1
:10369000237010BD30B583B00C460DF10702012335
:1036A0001E210546FFF7FAFB10B1002003B030BD24
:1036B0009DF807300DF1070223F010031C43284644
:1036C00001231E218DF80740FFF79CFBB0FA80F024
:1036D000400903B030BD00BF10B50A460C460123B7
:1036E0001E21FFF7DBFB08B1002010BD237801206D
:1036F00003F01003237010BD30B583B00C460DF1FC
:10370000070201231E210546FFF7C8FB10B1002068
:1037100003B030BD9DF807300DF1070223F0200300
:103720001C43284601231E218DF80740FFF76AFB42
:10373000B0FA80F0400903B030BD00BF10B50A46B2
:103740000C4601231E21FFF7A9FB08B1002010BD84
:103750002378012003F02003237010BD30B583B01F
:103760000C460DF1070201231F210546FFF796FBCA
:1037700010B1002003B030BD9DF807300DF10702F5
:1037800023F008031C43284601231F218DF807401E
:10379000FFF738FBB0FA80F0400903B030BD00BF3E
:1037A00010B50A460C4601231F21FFF777FB08B12D
:1037B000002010BD2378012003F00803237010BD02
:1037C00030B583B00C460DF1070201231F210546D9
:1037D000FFF764FB10B1002003B030BD9DF8073047
:1037E0000DF1070223F010031C43284601231F217B
:1037F0008DF80740FFF706FBB0FA80F0400903B0F0
:1038000030BD00BF10B50A460C4601231F21FFF74B
:1038100045FB08B1002010BD2378012003F0100300
:10382000237010BD30B583B00C460DF107020123A3
:103830001F210546FFF732FB10B1002003B030BD59
:103840009DF807300DF1070223F020031C432846A2
:1038500001231F218DF80740FFF7D4FAB0FA80F05A
:10386000400903B030BD00BF10B50A460C46012325
:103870001F21FFF713FB08B1002010BD23780120A2
:1038800003F02003237010BD30B583B00C460DF15A
:103890000702012322210546FFF700FB10B100209B
:1038A00003B030BD9DF807300DF1070223F004038B
:1038B0001C432846012322218DF80740FFF7A2FA76
:1038C000B0FA80F0400903B030BD00BF10B582B03F
:1038D0000C460DF10701FFF78BFE40B19DF8070084
:1038E00040B1012803D12070002002B010BD01209A
:1038F00002B010BD207002B010BD00BF00B583B093
:1039000002AB03F8012D1A460123FFF72DFDB0FA93
:1039100080F0400903B05DF804FB00BF08B5012347
:10392000FFF72AFDB0FA80F0400908BD30B583B03A
:103930000D460DF105010446FFF732FF10B90120D5
:1039400003B030BD0DF106012046FFF75BFF0028F4
:10395000F5D020460DF10701FFF786FF0028EED0D5
:103960009DF805109DF806209DF80730A1F108018B
:10397000A2F11002A3F12003B1FA81F1B2FA82F2AE
:10398000B3FA83F3490952095B0929706A70AB7075
:103990000020D5E738B50C4605464FF0804120465B
:1039A000FCF7DCFE38B94FF081412046FCF7D6FE2B
:1039B00048B1102100E000212846FFF753FDB0FA7E
:1039C00080F0400938BD4FF082412046FCF7C6FE2A
:1039D000002814BF18210821EEE700BF022908B50E
:1039E0000BD0042902D011B1012008BD1821FFF726
:1039F00039FDB0FA80F0400908BD1021FFF732FD13
:103A0000B0FA80F0400908BD10B582B00C460DF147
:103A10000701FFF749FD90B19DF80730182B29D811
:103A2000DFE803F016282828282828281C2828281A
:103A3000282828282228282828282828100001207B
:103A400002B010BD4FF082430020236002B010BDD1
:103A50004FF080430020236002B010BD4FF083433D
:103A60000020236002B010BD4FF08143002023608E
:103A700002B010BD024B0120236002B010BD00BF98
:103A8000000080BF10B582B00C460DF10701FFF7B2
:103A90000BFD90B19DF80730182B25D8DFE803F017
:103AA00015242424242424241A24242424242424EF
:103AB0001F242424242424241000012002B010BD3B
:103AC0000C4B0020236002B010BD0B4B0020236084
:103AD00002B010BD094B0020236002B010BD084B9E
:103AE0000020236002B010BD064B0120236002B00D
:103AF00010BD00BF23DB793E23DB793D5A643B3F99
:103B000023DBF93D000080BF08B5FFF73DFCB0FAAC
:103B100080F0400908BD00BF10B582B00C460DF121
:103B20000701FFF775FD48B19DF8070048B102286D
:103B300004D101230020237002B010BD012002B087
:103B400010BD207002B010BD30B583B00D460DF130
:103B500005010446FFF78EFD10B9012003B030BD0A
:103B60000DF106012046FFF7B7FD0028F5D02046ED
:103B70000DF10701FFF7E2FD0028EED09DF80510DA
:103B80009DF806209DF80730A1F10801A2F110026E
:103B9000A3F12003B1FA81F1B2FA82F2B3FA83F30E
:103BA000490952095B0929706A70AB700020D5E79A
:103BB00038B50C4605460B492046FCF7CFFD70B9D9
:103BC00009492046FCF7CAFD002814BF0821182126
:103BD0002846FFF7E3FBB0FA80F0400938BD00212A
:103BE000F6E700BF000075430000FA43022908B55C
:103BF0000BD0042902D011B1012008BD1821FFF714
:103C0000CDFBB0FA80F0400908BD0821FFF7C6FBE4
:103C1000B0FA80F0400908BD10B582B00C460DF135
:103C20000701FFF7DDFB58B19DF8070008280AD00F
:103C3000182811D060B10B4B0120236002B010BDD9
:103C4000012002B010BD084B0020236002B010BD5F
:103C5000064B236002B010BD054B0020236002B06C
:103C600010BD00BF000080BF0000FA430000754394
:103C70000000FA4410B582B00C460DF10701FFF7C1
:103C8000AFFB58B19DF8070008280AD0182811D0BA
:103C900060B10B4B0120236002B010BD012002B0C7
:103CA00010BD084B0020236002B010BD064B2360FE
:103CB00002B010BD054B0020236002B010BD00BF54
:103CC000000080BF00008C4100000C4100008C42CD
:103CD00010B582B00C460DF10701FFF7B3FBB8B188
:103CE0009DF8070060281ED009D9A02813D0C0284D
:103CF00025D080281FD0144B0120236009E0202804
:103D00000DD0402813D00028F5D10023236000E017
:103D1000012002B010BD0D4B00202360F9E70C4BD1
:103D200000202360F5E70B4B00202360F1E70A4BEE
:103D300000202360EDE7094B00202360E9E7084BF2
:103D400000202360E5E700BF000080BF0000EE43D5
:103D5000000070410000EE420000704200006E431F
:103D600000006E4438B50B780C46012B0CBF0821BF
:103D700000210546FFF7F2FCA0B163782846012B2D
:103D80000CBF10210021FFF71BFD58B1A378284676
:103D9000012B0CBF20210021FFF744FDB0FA80F079
:103DA000400938BD012038BD38B583790446012B60
:103DB0000D462AD083682C4928461C68FCF7CEFCA7
:103DC00018B1294B2360002038BD28492846FCF74C
:103DD000C5FC90B926492846FCF7C0FC88B925499E
:103DE0002846FCF7BBFC002834D128462249FCF7C2
:103DF000B5FC002832D0204BE4E71C4B00202360A8
:103E000038BD1B4B0020236038BD17492846FCF7FE
:103E1000A5FCB8B915492846FCF7A0FCE0B914493F
:103E20002846FCF79BFCD8B912492846FCF796FCBB
:103E3000C0B911492846FCF791FC002814BFA02105
:103E4000C02100E020212046FFF73EFBB0FA80F0C1
:103E5000400938BD074BB5E74021F4E7074BB1E710
:103E60006021F0E78021EEE7000020410000484299
:103E70000000EE4200006E430000EE4300006E447E
:103E800008B58379012B14D083681B6804291CD8DA
:103E9000DFE801F0070703030B000F4A1A60002058
:103EA00008BD0E4A00201A6008BD0D4A00201A60A5
:103EB00008BD042909D8DFE801F00A0A03030C0051
:103EC0004021FFF701FB0028E9D1012008BD202196
:103ED000F7E76021F5E700BF0000484200002041FD
:103EE0000000EE4238B50B780C46012B0CBF0821C0
:103EF00000210546FFF79CFBA0B163782846012B03
:103F00000CBF10210021FFF7C5FB58B1A37828464C
:103F1000012B0CBF20210021FFF7EEFBB0FA80F04F
:103F2000400938BD012038BD08B5FFF72DFAB0FAB9
:103F300080F0400908BD00BF08B50123FFF71CFA57
:103F4000B0FA80F0400908BD00B583B002AB03F8B9
:103F5000012D1A460123FFF707FAB0FA80F0400955
:103F600003B05DF804FB00BF38B58379012B0FD097
:103F7000836804461B6817491D682846FCF7EEFB5A
:103F800040B120212046FFF79FFAA0B10123A37181
:103F9000002038BD10492846FCF7E0FB68B90F49FE
:103FA0002846FCF7DBFB50B90D492846FCF7D6FB49
:103FB00038B18021E6E7012038BD4021E2E76021E9
:103FC000E0E708492846FCF7C9FB002814BFA021F8
:103FD000C021D7E700002041000048420000EE4227
:103FE00000006E430000EE43F0B583B000240D46A0
:103FF0006946ADF804400094FFF7BAFAB8B19DF8ED
:1040000005009DF804309DF8017003EB0023204665
:104010009DF800109DF803609DF8022001EB072138
:1040200002EB062229806A80AB8003B0F0BD01203C
:1040300003B0F0BDF0B583B000240D466946ADF87D
:1040400004400094FFF7B4FAB8B19DF805009DF85C
:1040500004309DF8017003EB002320469DF800100A
:104060009DF803609DF8022001EB072102EB062278
:1040700029806A80AB8003B0F0BD012003B0F0BDA1
:104080002DE9F04182B000230E466946ADF80430B8
:1040900000930546FFF76CFA002842D09DF80130E6
:1040A0009DF800409DF8057004EB03249DF803E0A3
:1040B0009DF802209DF80430284603EB072302EB0D
:1040C0000E226946A7B295B29CB2FFF789F940B3B8
:1040D0009DF80030082B2CD0182B27D00BBBDFF815
:1040E000588038B2FCF73EF94146FCF78FF9FCF7EF
:1040F00053FB306028B2FCF735F94146FCF786F9EE
:10410000FCF74AFB706020B2FCF72CF94146FCF743
:104110007DF9FCF741FB0023B060184602B0BDE812
:10412000F0810123184602B0BDE8F081DFF80C8071
:10413000D7E7DFF80C80D4E700000C4100008C4288
:1041400000008C4110B582B002A9002301F8013DA6
:104150000446FFF719F910B9012002B010BD237809
:104160009DF80700181A18BF012002B010BD00BF4B
:1041700010B582B002A9002301F8013D0446FFF703
:1041800003F910B9012002B010BD23789DF8070093
:10419000181A18BF012002B010BD00BF83681B6849
:1041A0005B681A78012A19D010B582B00C460DF15F
:1041B0000701FFF7ABF970B19DF8070060281ED02A
:1041C00010D9A0282BD0C02825D0802813D0164B7A
:1041D0000120236000E0012002B010BD5B680020D8
:1041E0000B607047202812D040280CD00028EED158
:1041F00000232360F0E70D4B00202360ECE70C4B1D
:1042000000202360E8E70B4B00202360E4E70A4B23
:1042100000202360E0E7094B00202360DCE7084B27
:1042200000202360D8E700BF000080BF00006E437D
:104230000000EE42000048420000204100006E44B1
:104240000000EE432DE9F04182B000230E4669469E
:10425000ADF8043000930546FFF7AAF960B39DF866
:1042600001309DF800409DF8057004EB03249DF893
:1042700003E09DF802209DF80430284603EB072355
:1042800002EB0E226946A7B295B29CB2FFF70CF979
:1042900090B19DF80030182B0ED8DFE803F03A0DEE
:1042A0000D0D0D0D0D0D370D0D0D0D0D0D0D340DED
:1042B0000D0D0D0D0D0D12000123184602B0BDE8C5
:1042C000F081DFF8548038B2FCF74CF84146FCF737
:1042D0009DF8FCF761FA306028B2FCF743F84146DC
:1042E000FCF794F8FCF758FA706020B2FCF73AF843
:1042F0004146FCF78BF8FCF74FFA0023B0601846F4
:1043000002B0BDE8F081DFF81480DCE7DFF8108050
:10431000D9E7DFF81080D6E723DB793E23DBF93DD0
:104320005A643B3F23DB793DF0B5826883B002AD30
:104330000023166805F8013D29460446FFF724F8D6
:1043400020B122789DF807309A4202D0012003B0B4
:10435000F0BDA37913B3A3681F687B681A78012A9C
:1043600012D029462046FFF7D1F80028EED09DF85C
:104370000730602B2BD018D8202B22D0402B23D0F5
:10438000CBB900233B6001E05B683B600021204625
:10439000FFF79AF80028D9D00023A371002318460C
:1043A00000223260637103B0F0BDA02B06D0C02B99
:1043B00013D0802B0ED00A4B3B60C7E7094B3B6004
:1043C000E4E7094B3B60E1E7084B3B60DEE7084B65
:1043D0003B60DBE7074B3B60D8E7074B3B60D5E72B
:1043E000000080BF0000EE43000020410000484272
:1043F0000000EE4200006E4300006E4483798BB3F0
:10440000836830B51D6883B06B6804461A78012A4A
:1044100011D00DF10701FFF779F800B39DF80730CF
:10442000602B30D013D8202B2AD0402B1FD0A3B91B
:1044300000232B6001E05B682B6000212046FFF722
:1044400043F860B100231846A37103B030BDA02B20
:1044500010D0C02B08D0802B0FD00C4B2B6001202C
:1044600003B030BD18467047094B2B60E5E7094B98
:104470002B60E2E7084B2B60DFE7084B2B60DCE7A3
:10448000074B2B60D9E7074B2B60D6E7000080BFB6
:1044900000006E44000048420000EE4300006E43FE
:1044A000000020410000EE4283790BB918467047A6
:1044B00030B5836883B00DF1070104461D68FEF72F
:1044C000C1FF60B19DF80730602B32D00AD9A02B14
:1044D00026D0C02B1ED0802B25D0174B2B6001205F
:1044E00003B030BD202B21D0402B16D0002BF4D1AF
:1044F00000232B6000212046FEF782FF0028EED02B
:10450000002318466A68002113706A685160A3711D
:1045100003B030BD094B2B60ECE7094B2B60E9E79A
:10452000084B2B60E6E7084B2B60E3E7074B2B605B
:10453000E0E7074B2B60DDE7000080BF00006E4422
:10454000000070420000EE4300006E430000704126
:104550000000EE4230B583B002A9002401F8014DFD
:104560000546FEF711FF20B12A789DF807309A42E0
:1045700002D0012003B030BD04212846FFF784F9A2
:104580000028F6D0AB68154A1B6840211A602846FF
:10459000FEF7CCFF0028ECD021462846FEF794FF1A
:1045A0000028E6D021462846FEF75CFF0028E0D030
:1045B00008212846FFF7D2F80028DAD01021284633
:1045C000FFF7FEF80028D4D020212846FFF72AF96B
:1045D0000028CED0012320466B71CBE70000EE42CD
:1045E00070B582B002A9002401F8014D0546FEF71E
:1045F000CBFE20B12A789DF807309A4202D00120E4
:1046000002B070BD04212846FFF73EF90028F6D01D
:10461000AA68164B126840215668136028467360DA
:10462000FEF784FF0028EAD021462846FEF7E8FE80
:104630000028E4D018212846FEF7B0FE0028DED07E
:1046400008212846FEF7F4FF0028D8D0102128467C
:10465000FFF720F80028D2D020212846FFF74CF899
:104660000028CCD0012320466B71C9E70000EE4240
:1046700070B5826882B002AD0023166805F8013D6E
:1046800029460446FEF780FE10B9012002B070BD35
:1046900022789DF807309A42F7D1A37933B90023E5
:1046A000184600223260637102B070BDA3682946CB
:1046B00020461D68FEF7C6FE0028E6D09DF80730AC
:1046C000602B27D014D8202B1ED0402B1FD0ABB985
:1046D00000232B6000212046FEF792FE0028D4D054
:1046E0006A68002313706A6800215160A371D6E7DD
:1046F000A02B06D0C02B13D0802B0ED00A4B2B60E2
:10470000C3E70A4B2B60E5E7094B2B60E2E7094B57
:104710002B60DFE7084B2B60DCE7084B2B60D9E709
:10472000074B2B60D6E700BF000080BF0000EE43C0
:1047300000007041000070420000EE4200006E4335
:1047400000006E448379012B23D0836870B51D6807
:1047500082B02E68044631493046FBF7FFFF38B17E
:1047600020212046FEF74CFEA8B9012002B070BD02
:104770002B493046FBF7F2FF40BB2A493046FBF796
:10478000EDFF28BB28493046FBF7E8FF58B38021EE
:10479000E7E7002070470DF1070120466E68FEF73D
:1047A00051FE0028E1D09DF80730602B2DD011D8A4
:1047B000202B24D0402B25D093B9002373606A6846
:1047C000012300201370A37102B070BD4021C8E71F
:1047D0006021C6E7A02B0FD0C02B1CD0802B17D098
:1047E000124B7360C1E712493046FBF7B7FF002850
:1047F00014BFA021C021B4E70D4B7360DFE7074B66
:104800007360DCE7064B7360D9E7064B7360D6E74D
:10481000054B7360D3E7074B7360D0E7000070412E
:10482000000070420000EE4200006E43000080BFB6
:104830000000EE4300006E4470B5837982B0012B16
:1048400006460C4637D05F4D8368294620461E68D1
:10485000FBF784FF28B1356076687560002002B0F0
:1048600070BD59492046FBF779FF002833D0564BDD
:104870003360544920467668FBF770FF002840F00B
:104880009E8051492046FBF769FF002852D14F49CD
:104890002046FBF763FF002864D14D492046FBF713
:1048A0005DFF002864D120464A49FBF757FF0028E6
:1048B0006DD1494DD1E78368424920461D68FBF719
:1048C0004DFFE0B120213046FEF79AFD002833D19C
:1048D000012002B070BD3D492046FBF73FFF002894
:1048E00042D13B492046FBF739FF002842D13949E4
:1048F0002046FBF733FF00284BD0364BB8E7324950
:104900002046FBF72BFF002830D130492046FBF72B
:1049100025FF002830D12E492046FBF71FFF002835
:1049200039D12C492046FBF719FF002814BFA021DC
:10493000C021C8E7244D90E730460DF107016C68AF
:10494000FEF780FD0028C3D09DF80730602B24D0EF
:1049500014D8202B27D0402B22D0ABB90023636082
:1049600000207CE7194D78E7184B81E74021AAE742
:10497000174D72E7164B7BE76021A4E7A02B1BD0F5
:10498000C02B16D0802B11D0144B6360A0E7114DC3
:1049900063E7114B6CE7802195E70C4B6360DFE721
:1049A000094B6360DCE7074B6360D9E7084B636042
:1049B000D6E7094B6360D3E7064B6360D0E7014D50
:1049C0004BE700BF00007041000070420000EE4263
:1049D00000006E430000EE4300006E44000080BF04
:1049E00030B5837983B0012B14D083681B68042908
:1049F00031D8DFE801F00A0A03033300294A596875
:104A00001A604A60002003B030BD274A59681A6016
:104A10004A60F7E704291ED8DFE801F027270303DF
:104A200025004021836804461D68FEF7E9FC90B12B
:104A300020460DF107016C68FEF704FD58B19DF8A2
:104A40000730602B13D015D8202B1CD0402B26D03C
:104A500013B3164B6360012003B030BD144A59688C
:104A60001A604A60CEE76021DCE72021DAE7104BCC
:104A70006360C7E7A02B0CD0C02B07D0802BE8D1F8
:104A80000C4B6360BEE7084B6360BBE70A4B636097
:104A9000B8E70A4B6360B5E700236360B2E7014BF8
:104AA0006360AFE70000704200007041000080BF0B
:104AB0000000EE4200006E4300006E440000EE4332
:104AC00008B5FEF79FF9B0FA80F0400908BD00BFB5
:104AD00008B5FEF7E3F9B0FA80F0400908BD00BF61
:104AE00008B50A4601230F21FEF7D8F9B0FA80F085
:104AF000400908BD30B583B00C460DF10702012313
:104B000012210546FEF7CAF910B1002003B030BDEE
:104B10009DF807300DF1070223F040031C4328469F
:104B2000012312218DF80740FEF76CF9B0FA80F0EE
:104B3000400903B030BD00BF30B583B00C460DF165
:104B40000702012310210546FEF7A8F910B1002045
:104B500003B030BD9DF807300DF1070223F00C03C0
:104B60001C432846012310218DF80740FEF74AF91F
:104B7000B0FA80F0400903B030BD00BF10B50A465E
:104B80000C4601231021FEF789F908B1002010BD61
:104B90002378012003F00C03237010BD2DE9F041B0
:104BA00080460F4603260024A51CEDB204F128011F
:104BB0003A19C9B201234046FEF770F90134E4B254
:104BC00048B9A542F2D1731E13F0FF062C46EBD173
:104BD0000120BDE8F0810020BDE8F08130B583B050
:104BE0000C460DF10702012310210546FEF756F988
:104BF00010B1002003B030BD9DF807300DF1070261
:104C000003F00F031C432846012310218DF80740B1
:104C1000FEF7F8F8B0FA80F0400903B030BD00BFED
:104C200010B50A460C4601231021FEF737F908B1EA
:104C3000002010BD2378012023F00F03237010BD46
:104C400030B583B00C460DF1070201231121054652
:104C5000FEF724F910B1002003B030BD9DF80730F5
:104C60000DF1070223F00C031C43284601231121F8
:104C70008DF80740FEF7C6F8B0FA80F0400903B09F
:104C800030BD00BF10B50A460C4601231121FEF7C6
:104C900005F908B1002010BD2378012003F00C03B2
:104CA000237010BD30B583B00C460DF1070201230F
:104CB00011210546FEF7F2F810B1002003B030BD17
:104CC0009DF807300DF1070203F00F031C4328463F
:104CD000012311218DF80740FEF794F8B0FA80F017
:104CE000400903B030BD00BF10B50A460C46012391
:104CF0001121FEF7D3F808B1002010BD2378012060
:104D000023F00F03237010BD2DE9F04180460F46BC
:104D100003260024A51CEDB204F122013A19C9B200
:104D200001234046FEF7BAF80134E4B248B9A5427F
:104D3000F2D1731E13F0FF062C46EBD10120BDE823
:104D4000F0810020BDE8F08130B583B00C460DF154
:104D50000702012311210546FEF7A0F810B100203B
:104D600003B030BD9DF807300DF1070223F00203B8
:104D70001C432846012311218DF80740FEF742F815
:104D8000B0FA80F0400903B030BD00BF10B50A464C
:104D90000C4601231121FEF781F808B1002010BD57
:104DA0002378012003F00203237010BD30B583B0D7
:104DB0000C460DF10702012306210546FEF76EF8A9
:104DC00048B901230DF10702062128468DF8074056
:104DD000FEF718F810B1002003B030BD01230DF12B
:104DE000070207212846FEF759F80028F3D19DF85D
:104DF0000730C4F3032423F00F031C430DF1070213
:104E00002846012307218DF80740FDF7FBFFB0FA84
:104E100080F04009E0E700BF30B583B00C460DF1EB
:104E20000702012308210546FEF738F810B10020DB
:104E300003B030BD9DF807300DF1070223F00703E2
:104E40001C432846012308218DF80740FDF7DAFFAF
:104E5000B0FA80F0400903B030BD00BF30B583B078
:104E60000C460DF10702012308210546FEF716F84E
:104E700010B1002003B030BD9DF807300DF10702DE
:104E800023F038031C432846012308218DF80740EE
:104E9000FDF7B8FFB0FA80F0400903B030BD00BFA5
:104EA00030B583B00C460DF1070201230A210546F7
:104EB000FDF7F4FF10B1002003B030BD9DF80730BE
:104EC0000DF1070223F007031C43284601230A21A2
:104ED0008DF80740FDF796FFB0FA80F0400903B067
:104EE00030BD00BF30B583B00C460DF10702012381
:104EF0000A210546FDF7D2FF10B1002003B030BDF6
:104F00009DF807300DF1070223F078031C43284673
:104F100001230A218DF80740FDF774FFB0FA80F0F5
:104F2000400903B030BD00BF30B583B00C460DF171
:104F3000070201230D210546FDF7B0FF10B1002047
:104F400003B030BD9DF807300DF1070223F02003B8
:104F50001C43284601230D218DF80740FDF752FF21
:104F6000B0FA80F0400903B030BD00BF30B583B067
:104F70000C460DF1070201230D210546FDF78EFFBA
:104F800010B1002003B030BD9DF807300DF10702CD
:104F900003F07F031C43284601230D218DF80740B1
:104FA000FDF730FFB0FA80F0400903B030BD00BF1C
:104FB00030B583B00C460DF10702012312210546DE
:104FC000FDF76CFF10B1002003B030BD9DF8073035
:104FD0000DF1070223F004031C432846012312218C
:104FE0008DF80740FDF70EFFB0FA80F0400903B0DE
:104FF00030BD00BF30B583B00C460DF10702012370
:1050000013210546FDF74AFF10B1002003B030BD63
:105010009DF807300DF1070223F001031C432846D9
:10502000012313218DF80740FDF7ECFEB0FA80F064
:10503000400903B030BD00BF30B583B00C460DF160
:105040000702012314210546FDF728FF10B10020B7
:1050500003B030BD9DF807300DF1070223F00303C4
:105060001C432846012314218DF80740FDF7CAFE92
:10507000B0FA80F0400903B030BD00BF30B583B056
:105080000C460DF10702012314210546FDF706FF2A
:1050900010B1002003B030BD9DF807300DF10702BC
:1050A00023F00C031C432846012314218DF80740EC
:1050B000FDF7A8FEB0FA80F0400903B030BD00BF94
:1050C00030B583B00C460DF10702012318210546C7
:1050D000FDF7E4FE10B1002003B030BD9DF80730AD
:1050E0000DF1070223F008031C4328460123182171
:1050F0008DF80740FDF786FEB0FA80F0400903B056
:1051000030BD00BF10B50A460C4601231821FDF73B
:10511000C5FE08B1002010BD2378012003F008036C
:10512000237010BD30B583B00C460DF1070201238A
:1051300018210546FDF7B2FE10B1002003B030BDC6
:105140009DF807300DF1070223F010031C43284699
:10515000012318218DF80740FDF754FEB0FA80F0C6
:10516000400903B030BD00BF10B50A460C4601230C
:105170001821FDF793FE08B1002010BD237801200F
:1051800003F01003237010BD30B583B00C460DF151
:105190000702012318210546FDF780FE10B100200B
:1051A00003B030BD9DF807300DF1070223F0200356
:1051B0001C432846012318218DF80740FDF722FEE5
:1051C000B0FA80F0400903B030BD00BF10B50A4608
:1051D0000C4601231821FDF761FE08B1002010BD27
:1051E0002378012003F02003237010BD30B583B075
:1051F0000C460DF10702012319210546FDF74EFE6D
:1052000010B1002003B030BD9DF807300DF107024A
:1052100023F002031C432846012319218DF807407F
:10522000FDF7F0FDB0FA80F0400903B030BD00BFDB
:1052300030B583B00C460DF1070201231921054654
:10524000FDF72CFE10B1002003B030BD9DF80730F3
:105250000DF1070223F008031C43284601231921FE
:105260008DF80740FDF7CEFDB0FA80F0400903B09D
:1052700030BD00BF10B50A460C4601231921FDF7C9
:105280000DFE08B1002010BD2378012003F00803B3
:10529000237010BD30B583B00C460DF10702012319
:1052A00019210546FDF7FAFD10B1002003B030BD0D
:1052B0009DF807300DF1070223F010031C43284628
:1052C000012319218DF80740FDF79CFDB0FA80F00D
:1052D000400903B030BD00BF10B50A460C4601239B
:1052E0001921FDF7DBFD08B1002010BD2378012056
:1052F00003F01003237010BD30B583B00C460DF1E0
:105300000702012319210546FDF7C8FD10B1002051
:1053100003B030BD9DF807300DF1070223F02003E4
:105320001C432846012319218DF80740FDF76AFD2B
:10533000B0FA80F0400903B030BD00BF10B50A4696
:105340000C4601231921FDF7A9FD08B1002010BD6D
:105350002378012003F02003237010BD30B583B003
:105360000C460DF10702012319210546FDF796FDB4
:1053700010B1002003B030BD9DF807300DF10702D9
:1053800023F004031C432846012319218DF807400C
:10539000FDF738FDB0FA80F0400903B030BD00BF22
:1053A00010B50A460C4601231B21FDF777FD08B115
:1053B000002010BD2378012003F00803237010BDE6
:1053C00010B50A460C4601231B21FDF767FD08B105
:1053D000002010BD2378012003F02003237010BDAE
:1053E00010B50A460C4601231C21FDF757FD08B1F4
:1053F000002010BD2378012003F01003237010BD9E
:1054000010B50A460C4601231C21FDF747FD08B1E3
:10541000002010BD2378012003F02003237010BD6D
:1054200010B50A460C4601231D21FDF737FD08B1D2
:10543000002010BD237801200340237010BD00BF61
:1054400010B50A460C4601231D21FDF727FD08B1C2
:10545000002010BD2378012003F00203237010BD4B
:1054600010B50A460C4601231D21FDF717FD08B1B2
:10547000002010BD2378012003F00403237010BD29
:1054800010B50A460C4601231D21FDF707FD08B1A2
:10549000002010BD2378012003F00803237010BD05
:1054A00010B50A460C4601231D21FDF7F7FC08B193
:1054B000002010BD2378012003F01003237010BDDD
:1054C00010B50A460C4601231D21FDF7E7FC08B183
:1054D000002010BD2378012003F02003237010BDAD
:1054E00010B50A460C4601231D21FDF7D7FC08B173
:1054F000002010BD2378012003F04003237010BD6D
:1055000010B50A460C4601231E21FDF7C7FC08B161
:10551000002010BD237801200340237010BD00BF80
:1055200010B50A460C4601231E21FDF7B7FC08B151
:10553000002010BD2378012003F00203237010BD6A
:1055400030B583B00D4601230DF107023A21044620
:10555000FDF7A4FC38B9204601230DF106023B21DA
:10556000FDF79CFC10B1002003B030BD9DF8063063
:105570009DF8072003F00F0342EA032301202B804C
:1055800003B030BD10B50A460C4601233B21FDF7A0
:1055900085FC08B1002010BD2378012003F0100322
:1055A000237010BD10B50A460C4601233B21FDF7C0
:1055B00075FC08B1002010BD2378012003F0200302
:1055C000237010BD10B50A460C4601233B21FDF7A0
:1055D00065FC08B1002010BD2378012003F04003D2
:1055E000237010BD30B583B00D4601230DF10702C5
:1055F0003C210446FDF752FC38B9204601230DF149
:1056000006023D21FDF74AFC10B1002003B030BD79
:105610009DF806309DF8072003F0030342EA0323B8
:1056200001202B8003B030BD10B50A460C46012383
:105630005321FDF733FC08B1002010BD2378012071
:1056400003F01003237010BD10B50A460C46012369
:105650005321FDF723FC08B1002010BD2378012061
:1056600003F02003237010BD30B583B00C460DF15C
:105670000702012358210546FDF710FC10B1002058
:1056800003B030BD9DF807300DF1070223F0010390
:105690001C432846012358218DF80740FDF7B2FB33
:1056A000B0FA80F0400903B030BD00BF30B583B020
:1056B0000C460DF10702012358210546FDF7EEFBCC
:1056C00010B1002003B030BD9DF807300DF1070286
:1056D00023F002031C432846012358218DF807407C
:1056E000FDF790FBB0FA80F0400903B030BD00BF79
:1056F00030B583B00C460DF1070201235821054651
:10570000FDF7CCFB10B1002003B030BD9DF8073091
:105710000DF1070223F004031C43284601235821FE
:105720008DF80740FDF76EFBB0FA80F0400903B03A
:1057300030BD00BF30B583B00C460DF10702012328
:1057400058210546FDF7AAFB10B1002003B030BD7B
:105750009DF807300DF1070223F008031C4328468B
:10576000012358218DF80740FDF74CFBB0FA80F07B
:10577000400903B030BD00BF30B583B00C460DF119
:105780000702012358210546FDF788FB10B10020D0
:1057900003B030BD9DF807300DF1070223F0200360
:1057A0001C432846012358218DF80740FDF72AFBAA
:1057B000B0FA80F0400903B030BD00BF30B583B00F
:1057C0000C460DF10702012358210546FDF766FB43
:1057D00010B1002003B030BD9DF807300DF1070275
:1057E00023F040031C432846012358218DF807402D
:1057F000FDF708FBB0FA80F0400903B030BD00BFF0
:1058000030B583B00C460DF107020123592105463E
:10581000FDF744FB10B1002003B030BD9DF8073008
:1058200004F01F0423F01F031C430DF10702284658
:10583000012359218DF80740FDF7E4FAB0FA80F012
:10584000400903B030BD00BF30B583B00C460DF148
:105850000702012359210546FDF720FB10B1002066
:1058600003B030BD9DF807300DF1070223F060034F
:105870001C432846012359218DF80740FDF7C2FA41
:10588000B0FA80F0400903B030BD00BF30B583B03E
:105890000C460DF1070201235A210546FDF7FEFAD9
:1058A00010B1002003B030BD9DF8073004F00304B0
:1058B00023F003031C430DF10702284601235A215C
:1058C0008DF80740FDF79EFAB0FA80F0400903B06A
:1058D00030BD00BF30B583B00C460DF10702012387
:1058E0005A210546FDF7DAFA10B1002003B030BDA9
:1058F0009DF80720A40004F00C0322F00C041C43C4
:105900000DF10702284601235A218DF80740FDF7C3
:1059100079FAB0FA80F0400903B030BD30B583B0F9
:105920000C460DF1070201235A210546FDF7B6FA90
:1059300010B1002003B030BD9DF807300DF1070213
:1059400003F00F0343EA0414284601235A218DF87B
:105950000740FDF757FAB0FA80F0400903B030BDB8
:1059600030B583B00C460DF1070201235B210546DB
:10597000FDF794FA10B1002003B030BD9DF8073058
:1059800004F03F0423F03F031C430DF107022846B7
:1059900001235B218DF80740FDF734FAB0FA80F05F
:1059A000400903B030BD00BF30B583B00C460DF1E7
:1059B000070201235B210546FDF770FA10B10020B4
:1059C00003B030BD9DF807300DF1070203F07F03EF
:1059D0001C43284601235B218DF80740FDF712FA8E
:1059E000B0FA80F0400903B030BD00BF30B583B0DD
:1059F0000C460DF1070201235C210546FDF74EFA26
:105A000010B1002003B030BD9DF8073004F00F0442
:105A100023F00F031C430DF10702284601235C21EC
:105A20008DF80740FDF7EEF9B0FA80F0400903B0B9
:105A300030BD00BF30B583B00C460DF10702012325
:105A40005C210546FDF72AFA10B1002003B030BDF5
:105A50009DF807300DF1070223F010031C43284680
:105A600001235C218DF80740FDF7CCF9B0FA80F0F6
:105A7000400903B030BD00BF30B583B00C460DF116
:105A8000070201235C210546FDF708FA10B100204A
:105A900003B030BD9DF80720640104F0600322F0DC
:105AA00060041C430DF10702284601235C218DF898
:105AB0000740FDF7A7F9B0FA80F0400903B030BD08
:105AC00030B583B00C460DF1070201235D21054678
:105AD000FDF7E4F910B1002003B030BD9DF80730A8
