:020000040800F2
:100000000080012075300008D52F0008D92F000886
:10001000C5300008C5300008C530000800000000E9
:10002000000000000000000000000000C5300008D3
:10003000DD2F000800000000C5300008E12F000897
:10004000C5300008C5300008C5300008C5300008BC
:10005000C5300008C5300008C5300008C5300008AC
:10006000C5300008C5300008C5300008C53000089C
:10007000C5300008C5300008C5300008C53000088C
:10008000C5300008C5300008C5300008C53000087C
:10009000C5300008C5300008C5300008C53000086C
:1000A000C5300008C5300008C5300008C53000085C
:1000B000C5300008C5300008C5300008C53000084C
:1000C000C5300008C5300008C5300008C53000083C
:1000D000C5300008C5300008C5300008C53000082C
:1000E000E52F0008C5300008C5300008C5300008FD
:1000F000C5300008C5300008C5300008C53000080C
:10010000C5300008C5300008C5300008C5300008FB
:10011000C5300008C5300008C5300008C5300008EB
:10012000C5300008C5300008C5300008C5300008DB
:10013000C5300008C5300008C5300008C5300008CB
:10014000C5300008C5300008C5300008C5300008BB
:10015000C5300008C5300008C5300008C5300008AB
:10016000C5300008C5300008C5300008C53000089B
:10017000C5300008C5300008C53000080000000088
:10018000C5300008C5300008000000000000000075
:10019000044B05481B1A062B02D9044B03B1184720
:1001A000704700BF13070020100700200000000068
:1001B00005490648091A891001EBD171491002D08E
:1001C000034B03B1184770471007002010070020A9
:1001D0000000000010B5064C237843B9FFF7D8FFA4
:1001E000044B13B10448AFF300800123237010BD0A
:1001F00010070020000000004CFE000808B5084B66
:100200001BB108490848AFF300800848036813B9D8
:10021000BDE80840CCE7064B002BF9D09847F7E73C
:1002200000000000140700204CFE0008100700200A
:1002300000000000034613F8012B002AFBD1181A16
:1002400001387047000000000000000000000000BE
:1002500001F0FF01102A2BDB10F0070F08D010F877
:10026000013B013A8B422DD010F0070F42B3F6D17B
:10027000F0B441EA012141EA014122F007047FF094
:1002800000070023F0E80256083C85EA010586EAEB
:10029000010685FA47F5A3FA87F586FA47F6A5FA27
:1002A00087F68EB9EED1F0BC01F0FF0102F0070233
:1002B00032B110F8013B013A83EA010313B1F8D1DE
:1002C0000020704701387047002D06BF35460338BF
:1002D000073815F0010F07D1013015F4807F02BFF8
:1002E000013015F4C03F0130F0BC0138704700BF49
:1002F00081F0004102E000BF83F0004330B54FEAD7
:1003000041044FEA430594EA050F08BF90EA020F43
:100310001FBF54EA000C55EA020C7FEA645C7FEAD6
:10032000655C00F0E2804FEA5454D4EB5555B8BFF9
:100330006D420CDD2C4480EA020281EA030382EA6A
:10034000000083EA010180EA020281EA0303362DFC
:1003500088BF30BD11F0004F4FEA01314FF4801CCF
:100360004CEA113102D0404261EB410113F0004FE1
:100370004FEA03334CEA133302D0524263EB430398
:1003800094EA050F00F0A780A4F10104D5F1200E36
:100390000DDB02FA0EFC22FA05F2801841F1000191
:1003A00003FA0EF2801843FA05F359410EE0A5F165
:1003B00020050EF1200E012A03FA0EFC28BF4CF096
:1003C000020C43FA05F3C01851EBE37101F000454C
:1003D00007D54FF0000EDCF1000C7EEB00006EEB59
:1003E0000101B1F5801F1BD3B1F5001F0CD34908E3
:1003F0005FEA30004FEA3C0C04F101044FEA44523A
:1004000012F5800F80F09A80BCF1004F08BF5FEAC0
:10041000500C50F1000041EB045141EA050130BDA0
:100420005FEA4C0C404141EB010111F4801FA4F143
:100430000104E9D191F0000F04BF01460020B1FA98
:1004400081F308BF2033A3F10B03B3F120020CDAD0
:100450000C3208DD02F1140CC2F10C0201FA0CF0AE
:1004600021FA02F10CE002F11402D8BFC2F1200C13
:1004700001FA02F120FA0CFCDCBF41EA0C019040C9
:10048000E41AA2BF01EB0451294330BD6FEA040412
:100490001F3C1CDA0C340EDC04F11404C4F12002FD
:1004A00020FA04F001FA02F340EA030021FA04F30F
:1004B00045EA030130BDC4F10C04C4F1200220FA66
:1004C00002F001FA04F340EA0300294630BD21FAA4
:1004D00004F0294630BD94F0000F83F4801306BF6A
:1004E00081F480110134013D4EE77FEA645C18BF5E
:1004F0007FEA655C29D094EA050F08BF90EA020FF5
:1005000005D054EA000C04BF1946104630BD91EAEC
:10051000030F1EBF0021002030BD5FEA545C05D1EF
:100520004000494128BF41F0004130BD14F580042E
:100530003CBF01F5801130BD01F0004545F0FE41A2
:1005400041F470014FF0000030BD7FEA645C1ABFD7
:10055000194610467FEA655C1CBF0B46024650EA0E
:10056000013406BF52EA033591EA030F41F400213A
:1005700030BD00BF90F0000F04BF0021704730B5C0
:100580004FF4806404F132044FF000054FF0000195
:1005900050E700BF90F0000F04BF0021704730B556
:1005A0004FF4806404F1320410F0004548BF40422B
:1005B0004FF000013EE700BF42004FEAE2014FEA80
:1005C00031014FEA02701FBF12F07F4393F07F4F5B
:1005D00081F06051704792F0000F14BF93F07F4F8D
:1005E000704730B54FF4607401F0004521F00041D0
:1005F00020E700BF50EA010208BF704730B54FF056
:1006000000050AE050EA010208BF704730B511F05A
:10061000004502D5404261EB41014FF4806404F192
:1006200032045FEA915C3FF4DCAE4FF003025FEA14
:10063000DC0C18BF03325FEADC0C18BF033202EB9C
:10064000DC02C2F1200300FA03FC20FA02F001FAF6
:1006500003FE40EA0E0021FA02F11444C1E600BF95
:1006600070B54FF0FF0C4CF4E06C1CEA11541DBF48
:100670001CEA135594EA0C0F95EA0C0F00F0DEF813
:100680002C4481EA030621EA4C5123EA4C5350EAF8
:10069000013518BF52EA033541F4801143F4801349
:1006A00038D0A0FB02CE4FF00005E1FB02E506F0DA
:1006B0000042E0FB03E54FF00006E1FB03569CF02F
:1006C000000F18BF4EF0010EA4F1FF04B6F5007F35
:1006D00064F5407404D25FEA4E0E6D4146EB0606A7
:1006E00042EAC62141EA55514FEAC52040EA5E5030
:1006F0004FEACE2EB4F1FD0C88BFBCF5E06F1ED8DA
:10070000BEF1004F08BF5FEA500E50F1000041EB10
:10071000045170BD06F0004646EA010140EA0200BD
:1007200081EA0301B4EB5C04C2BFD4EB0C0541EADF
:10073000045170BD41F480114FF0000E013C00F3F4
:10074000AB8014F1360FDEBF002001F0004170BD18
:10075000C4F10004203C35DA0C341BDC04F1140431
:10076000C4F1200500FA05F320FA04F001FA05F2BD
:1007700040EA020001F0004221F0004110EBD3708A
:1007800021FA04F642EB06015EEA430E08BF20EAB6
:10079000D37070BDC4F10C04C4F1200500FA04F359
:1007A00020FA05F001FA04F240EA020001F00041EB
:1007B00010EBD37041F100015EEA430E08BF20EA5E
:1007C000D37070BDC4F1200500FA05F24EEA020EA6
:1007D00020FA04F301FA05F243EA020321FA04F0D5
:1007E00001F0004121FA04F220EA020000EBD3708C
:1007F0005EEA430E08BF20EAD37070BD94F0000F8C
:100800000FD101F00046400041EB010111F4801FBF
:1008100008BF013CF7D041EA060195F0000F18BF70
:10082000704703F00046520043EB030313F4801FAC
:1008300008BF013DF7D043EA0603704794EA0C0F66
:100840000CEA135518BF95EA0C0F0CD050EA41067C
:1008500018BF52EA4306D1D181EA030101F00041F9
:100860004FF0000070BD50EA410606BF1046194621
:1008700052EA430619D094EA0C0F02D150EA01362D
:1008800013D195EA0C0F05D152EA03361CBF10466E
:1008900019460AD181EA030101F0004141F0FE410D
:1008A00041F470014FF0000070BD41F0FE4141F491
:1008B000780170BD70B54FF0FF0C4CF4E06C1CEA91
:1008C00011541DBF1CEA135594EA0C0F95EA0C0F46
:1008D00000F0A7F8A4EB050481EA030E52EA033501
:1008E0004FEA013100F088804FEA03334FF0805522
:1008F00045EA131343EA12634FEA022245EA11154F
:1009000045EA10654FEA00260EF000419D4208BFFF
:10091000964244F1FD0404F5407402D25B084FEAAC
:100920003202B61A65EB03055B084FEA32024FF458
:1009300080104FF4002CB6EB020E75EB030E22BFB5
:10094000B61A754640EA0C005B084FEA3202B6EB75
:10095000020E75EB030E22BFB61A754640EA5C0024
:100960005B084FEA3202B6EB020E75EB030E22BFB4
:10097000B61A754640EA9C005B084FEA3202B6EBB5
:10098000020E75EB030E22BFB61A754640EADC0074
:1009900055EA060E18D04FEA051545EA16754FEAD6
:1009A00006164FEAC30343EA52734FEAC2025FEAF4
:1009B0001C1CC0D111F4801F0BD141EA00014FF083
:1009C00000004FF0004CB6E711F4801F04BF014354
:1009D0000020B4F1FD0C88BFBCF5E06F3FF6AFAE70
:1009E000B5EB030C04BFB6EB020C5FEA500C50F100
:1009F000000041EB045170BD0EF0004E4EEA113183
:100A000014EB5C04C2BFD4EB0C0541EA045170BD89
:100A100041F480114FF0000E013C90E645EA060ECD
:100A20008DE60CEA135594EA0C0F08BF95EA0C0FFB
:100A30003FF43BAF94EA0C0F0AD150EA01347FF443
:100A400034AF95EA0C0F7FF425AF104619462CE71A
:100A500095EA0C0F06D152EA03353FF4FDAE10467D
:100A6000194622E750EA410618BF52EA43067FF4CE
:100A7000C5AE50EA41047FF40DAF52EA43057FF45E
:100A8000EBAE12E74FEA410212F5001215D211D572
:100A90006FF47873B3EB625212D94FEAC12343F07B
:100AA000004343EA505311F0004F23FA02F018BFFD
:100AB000404270474FF00000704750EA013005D1C6
:100AC00011F0004008BF6FF0004070474FF0000089
:100AD000704700BF53B94AB9002908BF00281CBF9E
:100AE0004FF0FF314FF0FF3000F07EB9ADF1080C50
:100AF0006DE904CE00F006F8DDF804E0DDE902233C
:100B000004B070472DE9F0478C460E460446089D18
:100B1000002B50D18A4217466CD9B2FA82FEBEF140
:100B2000000F0BD0CEF1200420FA04F401FA0EF6E7
:100B300044EA060C02FA0EF700FA0EF44FEA1749DF
:100B4000220CBCFBF9F01FFA87F809FB10C642EA39
:100B5000064600FB08F3B34209D9F61900F1FF324B
:100B600080F02281B34240F21F8102383E44F61ADF
:100B7000A2B2B6FBF9F309FB136642EA064403FB93
:100B800008F8A04509D9E41903F1FF3280F00A8181
:100B9000A04540F20781023B3C44C8EB040443EA11
:100BA00000400021002D62D024FA0EF400232C60B6
:100BB0006B60BDE8F0878B4207D9002D55D000212E
:100BC00085E841000846BDE8F087B3FA83F10029C3
:100BD00040F09080B34202D3824200F2F880841A3F
:100BE00066EB03060120B446002D40D085E81010C6
:100BF000BDE8F08712B90127B7FBF2F7B7FA87FE15
:100C0000BEF1000F35D1F31B4FEA17481FFA87FCDE
:100C10000121B3FBF8F0220C08FB103642EA06462D
:100C20000CFB00F3B34207D9F61900F1FF3202D2F0
:100C3000B34200F2CE801046F61AA2B2B6FBF8F329
:100C400008FB136642EA06440CFB03FCA44507D9E3
:100C5000E41903F1FF3202D2A44500F2B580134635
:100C6000CCEB040443EA00409CE729462846BDE853
:100C7000F087CEF1200106FA0EF307FA0EF720FAFC
:100C800001F94FEA1748CE4049EA0309B6FBF8FAE2
:100C90004FEA194408FB1A661FFA87FC44EA064328
:100CA0000AFB0CF29A4200FA0EF40AD9DB190AF197
:100CB000FF3180F087809A4240F28480AAF1020AD4
:100CC0003B449B1A1FFA89F9B3FBF8F108FB113377
:100CD00049EA034301FB0CF69E4207D9DB1901F1F7
:100CE000FF326BD29E4269D902393B449B1B41EAD9
:100CF0000A418EE7C1F1200E22FA0EF48B40234305
:100D000020FA0EF706FA01F44FEA134C26FA0EF613
:100D10003C43B6FBFCF9270C0CFB19661FFA83F861
:100D200047EA064609FB08F7B74202FA01F200FA61
:100D300001FA08D9F61809F1FF3041D2B7423FD97C
:100D4000A9F102091E44F61BA0B2B6FBFCF40CFB91
:100D5000146640EA064704FB08F8B84507D9FF18AF
:100D600004F1FF3028D2B84526D9023C1F4444EA9A
:100D70000940C8EB0707A0FB02894F4544464E4691
:100D800014D329D065B3BAEB040367EB060707FA5F
:100D90000EFECB40CF404EEA030385E888000021D9
:100DA000BDE8F0871346F8E61046E0E6B8EB02042B
:100DB00069EB03060138E5E70446D8E7114695E7F5
:100DC0008146C0E78A467CE7023B3C4448E7084648
:100DD0000AE702383E442FE7C245E7D33E46D1E753
:100DE0002946BDE8F08700BF704700BF837941798D
:100DF00001713222803B427183717047044B1B7832
:100E0000037132210822032341718271036070470C
:100E100000000020F8B50368012B02D90279322ABC
:100E200001D00020F8BD8279013A04464F2AF8D853
:100E300001A151F822F000BF870F0008A30F00089E
:100E4000230E000817100008230E0008230E0008C8
:100E5000230E00084110000879100008230E000836
:100E6000230E00089F100008230E0008C910000878
:100E7000230E0008230E0008230E0008230E00088E
:100E8000230E0008230E0008230E0008230E00087E
:100E9000230E0008230E0008230E0008230E00086E
:100EA000230E0008230E0008230E0008230E00085E
:100EB000230E0008230E0008230E0008230E00084E
:100EC000230E0008230E0008230E0008230E00083E
:100ED000230E0008230E0008230E0008230E00082E
:100EE000230E0008230E0008230E0008230E00081E
:100EF000230E0008230E0008230E0008230E00080E
:100F0000230E0008230E0008230E0008230E0008FD
:100F1000230E0008230E0008230E0008230E0008ED
:100F2000230E0008230E0008230E0008230E0008DD
:100F3000230E0008230E0008230E0008230E0008CD
:100F4000230E0008230E0008230E0008230E0008BD
:100F5000230E0008230E0008230E0008230E0008AD
:100F6000230E0008230E0008230E0008230E00089D
:100F7000230E0008790F0008042B7FF652AF01F012
:100F80004FFE0120F8BD032B7FF44BAF4179036086
:100F90003222812301714271837100F02FF9012007
:100FA000F8BD032B7FF43DAF534B4279027103F13F
:100FB000100103F10800E21D04F10F05322782261B
:100FC000914288BF85426771A67100F289805107FE
:100FD00040F08680D3E90201C2E90001D3E90401AF
:100FE000C5E90001D3E9060104F11702C2E90001D5
:100FF000D3E9080104F11F02C2E90001D3E90A01A3
:1010000004F12703C3E900012B232046236000F0ED
:10101000F5F80120F8BD022B3FF403AF43790371CB
:10102000322284234271837104226521073001F04A
:1010300071FF07232046236000F0E0F80120F8BD8F
:10104000022B3FF4EEAE0421073001F057FFA379E5
:101050002A492B4F284E0860627922710125803B76
:10106000032132203D70607132702046A3712160EF
:1010700000F0C4F82846F8BD022B3FF4D2AE437905
:1010800003711E491E4A322589200023A071657113
:1010900020460B60137000F0B1F80120F8BD022B60
:1010A0003FF4BFAE43790371322103238C220360E6
:1010B00041718271017A427AC07900F02BFE20469C
:1010C00000F09CF80120F8BD032B7FF4AAAE417913
:1010D000036032228E230171427183710120F8BDB9
:1010E000084BA21D03F1280013F8011F02F8011F8D
:1010F0008342F9D188E700BF0000002048070020A4
:1011000080090020070000202DE9F04F814683B0C0
:10111000374800F039F918B1002003B0BDE8F08F6E
:10112000334800F08FF9334BC0F500709C8883B2D0
:10113000A34236BFC4F5007BC4EB030B9B44019371
:101140001FFA8BF30093002BE6D04FF0000ADFF874
:10115000A8B05546D046564605E00136009B1FFA1A
:1011600086F843453CD9621C1BF8043094B2B4F5B0
:10117000007F28BF0024F02BEFD11E4B9C880EB3BC
:10118000002701E047451DD204F1010ACAF3080A0D
:1011900009EB05021BF804001BF80A10043201F0E9
:1011A000C5FDC0B283B21F4401352344BFB2C3F3AF
:1011B0000804ADB20028E5D10E4BA3F804A003B09B
:1011C000BDE8F08F01340B4BC9F80050C4F308049C
:1011D00048469C8001F022FE0028BED001209CE7FA
:1011E000B3F5807F98D9034BBDF804209A8093E72C
:1011F00084090020CC090020940A002070B5084C16
:10120000054601F0A5FD2946204601F05FFD214677
:1012100082B241F288330348BDE8704003F0C0BF9A
:10122000940C0020D409002010B5054C204600F095
:101230000DF9204601F0F8FF024BA362DC6610BDF9
:1012400084090020D40900202F4BF0B5DA6C2F4C14
:1012500042F00102DA64DA6C8BB002F00102019212
:10126000019ADA6C42F00102DA64DA6C02F00102EF
:101270000292029A9A6D42F400329A659A6D02F4D3
:1012800000320392039A9A6C42F001029A649B6CBA
:1012900003F0010300250422049305A90223072675
:1012A0004FF09040059206930893049F0795099686
:1012B00002F070F808234FF0904005A905930996B5
:1012C00002F068F8124B134A1B68636020460C2337
:1012D000A560E5602561A5612260636104F0E2F824
:1012E00000B1FEE70C4D0646FFF79EFF4FF400737A
:1012F00029461A46204666676565A4F8583003F00B
:10130000DBFF0BB0F0BD00BF00100240D40900208D
:101310003400002000440040940A002070B50023EF
:1013200096B01946442205A80193009302930393B3
:1013300004930DF0D3FC10210123022260262825FE
:101340000724059105A804210B93109311930D9682
:101350000F92159212951394149102F0C9FD80B961
:1013600000230F2403226846042100940192029373
:101370000393049303F0BEF808B100F0E5FC16B047
:1013800070BD00F0E1FCEBE70368294A934219D9EC
:10139000284902F560728B4212682FD014318B42BB
:1013A00032D014318B4231D014318B4237D01431CA
:1013B0008B423AD0204883420CBF4FF400034FF0D9
:1013C00000631CE01D4A1E499342086813D0143282
:1013D000934217D0143293421ED01432934221D03C
:1013E0001432934215D0143293420CBF4FF40003D1
:1013F0004FF0006300E0082318407047082303EA19
:10140000020070478023F7E78023F8E74FF400637A
:10141000F5E74FF40023EFE74FF40063ECE74FF4F8
:101420000043ECE74FF40043E6E74FF40023E6E720
:1014300080000240080402406C04024008000240A0
:101440000000024003685868704700BF30B4094B81
:1014500003608025002320244FF4405102220561BF
:10146000C461016242608360C3604361836130BCD8
:10147000704700BF6C0002402DE9F0412DED028B5A
:10148000CCB001F039FEFFF749FF002005F07AFDEE
:10149000002005F09DFD0121002005F0ABFD012499
:1014A000FFF7D2FE00230C220BA80B92159310938A
:1014B0000D9402F01DFD2C4F2C4A2D4BE0B1146011
:1014C0007F21F9229960DA603A602A4A1A60402145
:1014D0000022274859601A619A61DA6103F014FC0E
:1014E00000B1FEE7244B2248069306A9012203F02F
:1014F00079FD034638B1FEE710607F21FF22996035
:10150000DA603A60E1E741F2080401220BA91848C9
:101510000E930F930B9403F06BFC054600B1FEE7AE
:101520001649174E0C464FF0FF3004F0D3FB211D37
:101530004FF0FF3004F048FD04F10801284604F0A4
:10154000B3FF04F10C01284604F0B6FE284604F16E
:10155000100105F09DFA04F114014FF0FF3005F081
:10156000A1F8254657E000BFE80F002078070020CB
:10157000B80F002000280040020218142C07002099
:1015800080090020237EC3B19DF81A009DF8191030
:101590009DF8183002920190B74A0091B7484FF475
:1015A00080710DF0BBFBB548FEF744FE41F2883375
:1015B00082B2B249B24803F0F3FDE369DA0700F101
:1015C0009380E3695B0700F1F280E369980700F11B
:1015D0006581E369D90600F1C481E3699A0600F1E7
:1015E0000F82E3695B0600F15A8233782BB9237EC0
:1015F00003F0FF00002B00F0BC82002005F0F2FC9D
:10160000337823B194F82430002B40F0B582237E48
:10161000002B40F0C6820BA8FFF776FD20B19DF8A5
:101620003030322B00F0C282E369226A9A422BD01A
:10163000EA69EB692A62DA07686940F1978205F086
:10164000A3F9E369E8685B0740F1868204F0A8FE2D
:10165000E3692869990740F1868205F00FFCE36988
:101660002868DA0640F1678204F01AFCE3696868CA
:101670009B0640F1678204F08BFDE369A868590678
:1016800000F1678204F08AFF33781BB9237E03F0F0
:10169000FF029BB1002206A97A4803F06DFC0022EC
:1016A00005A9784803F04AFD3968079A64238A1A25
:1016B00003FB02F2013192FBF1F2D2B23378002B3C
:1016C0003FF460AF9DF818308DF833309DF81A3034
:1016D0008DF83530E3698DF836209DF819208DF8A6
:1016E0003420DA077FF56DAF002305A968698DF80E
:1016F00014308DF8183005F067F900287FF461AFD9
:101700009DF81430012B7FF45CAF06A9686905F0E1
:10171000AFF99DF81830002B3FF453AF95F8242013
:1017200095F82530DFF86C81686943F008030132D1
:10173000414685F8253085F8242005F055F93378A1
:10174000002B40F073822B7E002B3FF43AAFD8ED94
:10175000007AF5EEC07AF1EE10FAB8BFF1EE677AD2
:10176000BDEEE78AB8EE487A77EEC77A17EE900AB0
:10177000FEF722FF0022444BFEF772FFFFF782F9CB
:1017800018EE103A414A00904FF480713B480DF03A
:10179000C5FA3A48FEF74EFD41F2883382B2374926
:1017A000374803F0FDFCE3695B077FF50EAF0023CC
:1017B00005A9E8688DF814308DF8183004F010FE93
:1017C00000287FF402AF9DF81430012B7FF4FDAEAA
:1017D00006A9E86804F058FE9DF81830002B3FF485
:1017E000F4AE95F8242095F82530DFF8AC80E86851
:1017F00043F010030132414685F8253085F8242056
:1018000004F0FEFD3378002B40F0F0812B7E002B9E
:101810003FF4DBAED8ED007AF5EEC07AF1EE10FAC7
:10182000B8BFF1EE677ABDEEE78AB8EE487A77EE98
:10183000C77A17EE900AFEF7BFFE0022124BFEF7A2
:101840000FFFFFF71FF918EE103A114A00904FF4FE
:1018500080710A480DF062FA0848FEF7EBFC41F28D
:10186000883382B20549064803F09AFCE369980779
:101870007FF5AFAE12E000BFC4FE0008AC0E002042
:10188000D4090020B80F002000005940E0FE0008F5
:10189000F4FE0008980E0020A80E0020002305A9E1
:1018A00028698DF814308DF8183005F007FB0028F2
:1018B0007FF48FAE9DF81430012B7FF48AAE06A919
:1018C000286905F04FFB9DF81830002B3FF481AEDE
:1018D00095F8242095F82530DFF87883286943F0BF
:1018E00020030132414685F8253085F8242005F093
:1018F000F5FA3378002B40F094812B7E002B3FF4D7
:1019000068AED8ED007AF5EEC07AF1EE10FAC0F2CA
:10191000BF81BDEEE78AB8EE487A77EEC77A17EE58
:10192000900AFEF749FEC44B0022FEF799FEFFF72E
:10193000A9F82B23C14A01904FF480718DED008AE4
:10194000BF480DF0EBF9BE48FEF774FC41F2883356
:1019500082B2BB49BB4803F023FCE369D9067FF59B
:101960003CAE002305A928688DF814308DF8183096
:1019700004F0B6FA00287FF430AE9DF81430012B45
:101980007FF42BAE06A9286804F00EFB9DF81830F2
:10199000002B3FF422AE95F8242095F82530DFF88F
:1019A000B882286843F001030132414685F82530AA
:1019B00085F8242004F0A4FA3378002B40F01B8132
:1019C0002B7E002B3FF409AED8F80810D8F804207D
:1019D000D8F800309A48019100924FF480719A4AE9
:1019E0000DF09CF99648FEF725FC41F2883382B24F
:1019F0009349944803F0D4FBE3699A067FF5F1AD6F
:101A0000002305A968688DF814308DF8183004F0AB
:101A1000DFFB00287FF4E5AD9DF81430012B7FF447
:101A2000E0AD06A9686804F037FC9DF81830002B7B
:101A30003FF4D7AD95F8242095F82530DFF81C82C7
:101A4000686843F002030132414685F8253085F885
:101A5000242004F0CDFB3378002B40F0B1802B7EA6
:101A6000002B3FF4BEADD8F80810D8F80420D8F801
:101A700000307348019100924FF48071734A0DF069
:101A80004DF96F48FEF7D6FB41F2883382B26C49BC
:101A90006C4803F085FBE3695B067FF5A6AD002388
:101AA00005A9A8688DF814308DF8183004F086FD6B
:101AB00000287FF49AAD9DF81430012B7FF495AD8A
:101AC00006A9A86804F0DEFD9DF81830002B3FF44D
:101AD0008CAD95F8242095F82530DFF88481A8682E
:101AE00043F004030132414685F8253085F824206F
:101AF00004F074FD3378002B40F0B4802B7E002B73
:101B00003FF473ADD8F80810D8F80420D8F80030A6
:101B10004B48019100924FF480714D4A0DF0FEF850
:101B20004748FEF787FB41F2883382B24449454873
:101B300003F036FB59E504F0C3F9E36968689B06D6
:101B40003FF599AD04F034FBE369A86859067FF5C9
:101B500099AD04F013FD97E504F032FCE3692869C0
:101B600099073FF57AAD05F099F978E504F01CFF87
:101B700067E505F02DFA43E50BA8FFF73FF995F867
:101B800025308DF867300BA838230B93FFF736FB11
:101B9000002385F8243085F82530237E002B3FF480
:101BA0003AAD4FF4FA7001F0C1FA34E50BA8FFF733
:101BB00031F93378002B3FF437AD0023237633E53A
:101BC000D8F800100DF14F00042201F0A3F9D8F865
:101BD00004100DF15300042201F09CF9D8F808100C
:101BE00004220DF1570001F095F9FAE4D8F800004D
:101BF000CDF83F00E9E4D8F800100DF143000422CD
:101C000001F088F9D8F804100DF14700042201F022
:101C100081F9D8F8081004220DF14B0001F07AF98F
:101C2000DBE4D8F80000CDF83B00D2E4D8F800009F
:101C3000CDF83700C5E400BF0000594004FF00089C
:101C4000AC0E0020D409002018FF00083CFF00085B
:101C500060FF0008940E0020AC0F00209C0E0020B6
:101C6000DC0F0020D8F800100DF15B00042201F019
:101C700051F9D8F804100DF15F00042201F04AF97F
:101C8000D8F8081004220DF1630001F043F9ACE428
:101C9000F1EE677ABDEEE78AB8EE487A77EEC77A5A
:101CA00017EE900AFEF788FC034B0022FEF7D8FCE3
:101CB000FEF7E8FE2D233DE600005940B0F5005F39
:101CC00000D0704710B5114CA36A0BB9E36AABB1F1
:101CD00001F026FAE062E36AA16A0C4A5B1AB3F5E6
:101CE000967F0AD9D36A9362094B1B7853B9237E36
:101CF000B3FA83F35B09237610BD10BD01F010FA2F
:101D0000A062F1E70023237610BD00BF2C0700205E
:101D10008009002000B587B000238DF804008DF8FD
:101D200005108DF8062001A91A4606488DF80730DF
:101D300002930493059303F05BF800B1FEE707B04C
:101D40005DF804FBB80F0020FEE700BFF0B5037A92
:101D5000013B83B00546052B0FD8DFE803F03A5A64
:101D60007A960311A44B0DF10701186804F040FBAB
:101D70009DF80740002C00F09780002003B0F0BDD4
:101D80009E4B0DF10701186804F026FE9DF8073000
:101D9000012B00F01E81C0F00981022BEDD12846F5
:101DA000FFF724F8964F05F10806002404E017F821
:101DB000013F06F8013F01349248FEF73BFA8442A6
:101DC000F5D3053428462C60FFF718FA012003B03C
:101DD000F0BD8D4B0DF10701186804F089F89DF8EE
:101DE0000740002C00F0BE80012CC6D12846FEF72B
:101DF000FDFF864F05F10806002404E017F8013FB7
:101E000006F8013F01348248FEF714FA8442F5D304
:101E1000D7E7804B0DF10701186804F0E1F99DF850
:101E20000740002C00F0B080012CA6D12846FEF718
:101E3000DDFF764F05F10806002404E017F8013FA6
:101E400006F8013F01347248FEF7F4F98442F5D3F5
:101E5000B7E7714B0DF10701186804F0B7FB9DF867
:101E60000740002C89D12846FEF7C0FF6B4F05F1D3
:101E7000080604E017F8013F06F8013F01346848FE
:101E8000FEF7D8F98442F5D39BE7664B0DF10701C5
:101E9000186805F01BF89DF80730032B3FF66DAF6F
:101EA000DFE803F0143A274D2846FEF79FFF5E4F08
:101EB00005F1080604E017F8013F06F8013F013478
:101EC0005A48FEF7B7F98442F5D37AE72846FEF779
:101ED0008DFF554F05F10806002404E017F8013F77
:101EE00006F8013F01345148FEF7A4F98442F5D3C6
:101EF00067E72846FEF77AFF4D4F05F108060024F4
:101F000004E017F8013F06F8013F01344948FEF7A5
:101F100091F98442F5D354E72846FEF767FF464F10
:101F200005F10806002404E017F8013F06F8013F18
:101F300001344248FEF77EF98442F5D341E7284652
:101F4000FEF754FF2E4F05F10806002404E017F8B1
:101F5000013F06F8013F01342A48FEF76BF984423D
:101F6000F5D32EE72846FEF741FF354F05F1080669
:101F700004E017F8013F06F8013F01343148FEF74D
:101F800059F98442F5D31CE72846FEF72FFF2C4F62
:101F900005F1080604E017F8013F06F8013F013497
:101FA0002848FEF747F98442F5D30AE72846FEF7AA
:101FB0001DFF214F05F10806002404E017F8013F3A
:101FC00006F8013F01341D48FEF734F98442F5D389
:101FD000F7E62846FEF70AFF154F05F1080600242C
:101FE00004E017F8013F06F8013F01341148FEF7FD
:101FF00021F98442F5D3E4E63807002040070020A9
:1020000077000020780000202C0700203F000020EF
:102010004000002030070020340700204F0000203F
:10202000500000203C0700205700002058000020EE
:1020300067000020680000205F0000206000002092
:10204000370000203800002010B5037A013B82B031
:102050000446052B41D8DFE803F018202830380368
:102060001F4B417A18680DF1070204F0DFFC20468F
:10207000FEF7BCFE9DF80730A372072320462360BD
:10208000FFF7BCF8012002B010BD164B417A18686A
:102090000DF1070203F066FFE9E7134B417A186878
:1020A0000DF1070204F0D6F8E1E7104B417A186809
:1020B0000DF1070204F0C4FAD9E70D4B417A186814
:1020C0000DF1070204F02CFFD1E70A4B417A1868A2
:1020D0000DF1070204F0B6F9C9E70020D3E700BF0D
:1020E000400700202C070020300700203407002084
:1020F0003C0700203807002010B5037A013B044656
:10210000052B37D8DFE803F0131A21282F031A4BC9
:10211000827A617A186804F09BFC2046FEF766FE1E
:10212000072320462360FFF769F8012010BD134BF9
:10213000827A617A186803F027FFEEE7104B827A03
:10214000617A186804F098F8E7E70E4B827A617AB2
:10215000186804F087FAE0E70B4B827A617A186816
:1021600004F0F0FED9E7094B827A617A186804F02E
:102170007BF9D2E7002010BD400700202C0700208B
:1021800030070020340700203C07002038070020DB
:102190002DE9F041037A013B82B00446052B0FD8AC
:1021A000DFE803F04A77A7D40312CD4B0DF1070106
:1021B000186804F01DF99DF80760002E00F0D58026
:1021C000002002B0BDE8F081C64B0DF10701186890
:1021D00004F002FC9DF80730012B00F0CF81C0F025
:1021E000AE81022BECD1C04D2046FEF7FFFD6969A0
:1021F000042204F1090000F077FE6B69002B00F067
:102200009C8105F1140804F10D07002638460422CC
:1022100058F8041F00F068FE6B6901369E4207F112
:102220000407F3D3B600093620462660FEF7E6FF22
:10223000012002B0BDE8F081AC4B0DF10701186838
:1022400003F056FE9DF80760002E00F02A81012E53
:10225000B6D1A74D2046FEF7C9FD696E042204F1F0
:10226000090000F041FE6B6E002B00F0668105F165
:10227000640804F10D0700263846042258F8041FAC
:1022800000F032FE6B6E01369E4207F10407F3D375
:10229000C8E7984B0DF10701186803F0A1FF9DF8FE
:1022A0000760002E00F02C81012E89D1904D204630
:1022B000FEF79CFDD5F88810042204F1090000F017
:1022C00013FED5F88830002B00F0378105F188081F
:1022D00004F10D0700263846042258F8041F00F0C8
:1022E00003FED5F8883001369E4207F10407F2D389
:1022F00098E7814B0DF10701186804F067F99DF824
:102300000760002E7FF45CAF794D2046FEF76EFD2E
:10231000D5F89C10042204F1090000F0E5FDD5F881
:102320009C30002B00F0098105F19C0804F10D0799
:102330003846042258F8041F00F0D6FDD5F89C302A
:1023400001369E4207F10407F2D36BE76B4B0DF1A8
:102350000701186804F0BAFD9DF80730032B3FF61B
:102360002FAFDFE803F0417F60215F4D2046FEF78D
:102370003DFDE968042204F1090000F0B5FDEB68B9
:10238000002B00F0DA8005F10C0804F10D07384647
:10239000042258F8041F00F0A7FDEB6801369E42A6
:1023A00007F10407F3D33DE74F4D2046FEF71EFD2E
:1023B000A968042204F1090000F096FDAB68002B27
:1023C00000F0BB8005F1080804F10D07002638462F
:1023D000042258F8041F00F087FDAB6801369E42C6
:1023E00007F10407F3D31DE73F4D2046FEF7FEFC3F
:1023F0002968042204F1090000F076FD2B68002B07
:1024000000F09B80A84604F10D0700263846042200
:1024100058F8041F00F068FD2B6801369E4207F152
:102420000407F3D3FEE6304D2046FEF7DFFC696873
:10243000042204F1090000F057FD6B68002B7CD0EA
:1024400005F1040804F10D0700263846042258F867
:10245000041F00F049FD6B6801369E4207F1040736
:10246000F3D3DFE6204D2046FEF7C0FC6968042266
:1024700004F1090000F038FD6B68002B5DD005F118
:10248000040804F10D0700263846042258F8041FFA
:1024900000F02AFD6B6801369E4207F10407F3D372
:1024A000C0E6134D2046FEF7A1FC296D042204F17D
:1024B000090000F019FD2B6D002B3ED005F15008EE
:1024C00004F10D073846042258F8041F00F00CFDF3
:1024D0002B6D01369E4207F10407F3D3A2E600BF3D
:1024E0003807002040070020600700202C0700204C
:1024F0003800002030070020340700203C0700206F
:102500002E4D2046FEF772FCA96F042204F109004B
:1025100000F0EAFCAB6F83B105F1780804F10D0718
:102520003846042258F8041F00F0DEFCAB6F013679
:102530009E4207F10407F3D374E6092674E6204DA2
:102540002046FEF753FC2969042204F1090000F03B
:10255000CBFC2B69002BF0D005F1100804F10D071E
:1025600000263846042258F8041F00F0BDFC2B69F1
:1025700001369E4207F10407F3D353E6104D20467F
:10258000FEF734FC2969042204F1090000F0ACFCD8
:102590002B69002BD1D005F1100804F10D0700269E
:1025A0003846042258F8041F00F09EFC2B690136BF
:1025B0009E4207F10407F3D334E600BF3800002041
:1025C0006007002070B5037A013B8EB00546052BED
:1025D00012D8DFE813F05A009600D3000D01060070
:1025E0001400D14B0DF10301186803F001FF9DF8B1
:1025F0000360002E00F00B8100200EB070BDCB4BAD
:102600000DF10301186804F0E7F99DF80330012B80
:1026100000F08182C0F05182022BEDD1C44C2846DB
:10262000FEF7E4FBD4ED6F7AFDEEE77A042217EEB5
:10263000901A05F1090000F057FCD4ED6F7AF5EE21
:10264000C07AF1EE10FA40F3368204F5DE7105F13E
:102650000D02002351F8040F0D900D9842F8040B61
:10266000013307EE103AD4ED6F7AB8EEC77AB4EEC4
:10267000E77AF1EE10FAEDD49B00093328462B607F
:10268000FEF7BCFD01200EB070BDAA4B0DF1030199
:10269000186803F02DFC9DF80360002E00F0AF8158
:1026A000012EA9D1A24C2846FEF7A0FBD4ED337A27
:1026B000FDEEE77A042217EE901A05F1090000F00A
:1026C00013FCD4ED337AF5EEC07AF1EE10FA40F354
:1026D000F28104F1CC0105F10D02002351F8040F41
:1026E0000290029842F8040B013307EE103AD4ED41
:1026F000337AB8EEC77AB4EEE77AF1EE10FAEDD499
:10270000BAE78D4B0DF10301186803F069FD9DF8E0
:102710000360002E00F0A181012E7FF46DAF844C88
:102720002846FEF763FBD4ED457AFDEEE77A0422F6
:1027300017EE901A05F1090000F0D6FBD4ED457AAA
:10274000F5EEC07AF1EE10FA40F3B58104F58A7126
:1027500005F10D02002351F8040F0490049842F88B
:10276000040B013307EE103AD4ED457AB8EEC77A80
:10277000B4EEE77AF1EE10FAEDD47DE76F4B0DF190
:102780000301186803F022FF9DF80360002E7FF418
:1027900033AF674C2846FEF729FBD4ED4E7AFDEEA9
:1027A000E77A042217EE901A05F1090000F09CFB6D
:1027B000D4ED4E7AF5EEC07AF1EE10FA40F37B815B
:1027C000334604F59C7105F10D0251F8040F059094
:1027D000059842F8040B013307EE103AD4ED4E7A17
:1027E000B8EEC77AB4EEE77AF1EE10FAEDD443E72B
:1027F000534B0DF10301186804F068FB9DF803309A
:10280000032B3FF6F9AEDFE803F060CC9D31484C76
:102810002846FEF7EBFAD4ED667AFDEEE77A04225D
:1028200017EE901A05F1090000F05EFBD4ED667A10
:10283000F5EEC07AF1EE10FA40F33D81334604F52F
:10284000CC7105F10D0251F8040F0A900A9842F874
:10285000040B013307EE103AD4ED667AB8EEC77A6E
:10286000B4EEE77AF1EE10FAEDD405E7304C2846E5
:10287000FEF7BCFAD4ED607AFDEEE77A042217EE9B
:10288000901A05F1090000F02FFBD4ED607AF5EE07
:10289000C07AF1EE10FA40F30E8104F5C07105F133
:1028A0000D02002351F8040F0990099842F8040B17
:1028B000013307EE103AD4ED607AB8EEC77AB4EE81
:1028C000E77AF1EE10FAEDD4D6E6194C2846FEF779
:1028D0008DFAD4ED577AFDEEE77A042217EE901ABE
:1028E00005F1090000F000FBD4ED577AF5EEC07A4F
:1028F000F1EE10FA40F3DF8004F5AE7105F10D0240
:10290000002351F8040F0690069842F8040B013397
:1029100007EE103AD4ED577AB8EEC77AB4EEE77AFC
:10292000F1EE10FAEDD4A7E63807002040070020AA
:10293000380000202C07002030070020340700203A
:102940003C0700208B4C2846FEF750FAD4ED5B7A0A
:10295000FDEEE77A042217EE901A05F1090000F067
:10296000C3FAD4ED5B7AF5EEC07AF1EE10FA40F3DB
:10297000A28004F5B67105F10D02002351F8040F91
:102980000890089842F8040B013307EE103AD4ED92
:102990005B7AB8EEC77AB4EEE77AF1EE10FAEDD4CE
:1029A0006AE6744C2846FEF721FAD4ED5B7AFDEE18
:1029B000E77A042217EE901A05F1090000F094FA64
:1029C000D4ED5B7AF5EEC07AF1EE10FA73DD04F522
:1029D000B67105F10D02002351F8040F0790079816
:1029E00042F8040B013307EE103AD4ED5B7AB8EEEF
:1029F000C77AB4EEE77AF1EE10FAEDD43CE65D4C1E
:102A00002846FEF7F3F9D4ED2C7AFDEEE77A04229E
:102A100017EE901A05F1090000F066FAD4ED2C7A51
:102A2000F5EEC07AF1EE10FA45DD334604F1B0015F
:102A300005F10D0251F8040F0190019842F8040BC2
:102A4000013307EE103AD4ED2C7AB8EEC77AB4EE23
:102A5000E77AF1EE10FAEDD40EE6464C2846FEF782
:102A6000C5F9D4ED3E7AFDEEE77A042217EE901A0E
:102A700005F1090000F038FAD4ED3E7AF5EEC07A9F
:102A8000F1EE10FA17DD334604F1F80105F10D02FD
:102A900051F8040F0390039842F8040B013307EE3A
:102AA000103AD4ED3E7AB8EEC77AB4EEE77AF1EE9A
:102AB00010FAEDD4E0E50923E0E52E4C2846FEF7B8
:102AC00095F9D4ED6A7AFDEEE77A042217EE901AB2
:102AD00005F1090000F008FAD4ED6A7AF5EEC07A43
:102AE000F1EE10FAE7DD04F5D47105F10D020023D3
:102AF00051F8040F0B900B9842F8040B013307EECA
:102B0000103AD4ED6A7AB8EEC77AB4EEE77AF1EE0D
:102B100010FAEDD4B0E5174C2846FEF767F9D4ED6E
:102B20006A7AFDEEE77A042217EE901A05F10900A1
:102B300000F0DAF9D4ED6A7AF5EEC07AF1EE10FA27
:102B4000B9DD04F5D47105F10D02002351F8040F2D
:102B50000C900C9842F8040B013307EE103AD4EDB8
:102B60006A7AB8EEC77AB4EEE77AF1EE10FAEDD4ED
:102B700082E500BF3800002010B5037A82B0044619
:102B8000013BD0F809000190052B3AD8DFE803F0AB
:102B90000C1D242B32031C4B9DED010A186803F019
:102BA00035FF002002B010BD184B9DED010A1868DA
:102BB00003F0B8F92046FEF719F9092320462360EF
:102BC000FEF71CFB012002B010BD114B9DED010A68
:102BD000186803F01FFBEDE70E4B9DED010A186826
:102BE00003F00EFDE6E70C4B9DED010A186804F0BA
:102BF00087F9DFE7094B9DED010A186803F012FC25
:102C0000D8E70020CEE700BF400700202C070020B7
:102C100030070020340700203C0700203807002040
:102C2000C379013B062B49D8DFE803F006080A0CFC
:102C30000E1F0400FFF7A0BFFFF788B8FFF704BA24
:102C4000FFF75ABAFFF7A4BA10B5044682B00421C0
:102C5000093000F053F9237A0190013B042B2BD863
:102C6000DFE803F02118050D0D00FFF7ABBC144B96
:102C7000DDED017A1868B8EE670A03F0D1FC204652
:102C8000FEF7B4F8092320462360FEF7B7FA0120C7
:102C900002B010BD0B4BDDED017A1868B8EE670A83
:102CA00003F0C8FAEBE7084BDDED017A1868B8EEDF
:102CB000670A03F047F9E2E70020E9E700207047E0
:102CC00034070020300700202C0700200A68F0B5E8
:102CD000074642B300221046CD1C4FF0F10C4FF0D6
:102CE000F20E09E0F12B1BD12370637002260B68F2
:102CF0000130834232440FD915F8013FF02B07EB26
:102D00000204EFD107F802C084F801E00B6801303B
:102D1000022683423244EFD8501CF023BB54F0BD4E
:102D200001262370E3E70120F7E700BFF12802D076
:102D3000107001207047F12903D0F22904D000203F
:102D40007047117002207047F02313700220704703
:102D50000268002A5CD0F0B5141FA408531E013489
:102D6000042B4FEA840550D900273E4600F1040E9B
:102D70005EF8043B03F07F316FEA030CC1F1803150
:102D80000CF080334B4003F07F310137734006F085
:102D90007F3603F080330E44BC4286EA0306E7D850
:102DA000C6F307233344C6F307441C4404EB1663FD
:102DB00095422946DBB223D045184C1C2D7994420C
:102DC000A3EB0503DBB21BD205198C1C2D79A242A3
:102DD000A3EB0503DBB213D90519CC1C2D79A24254
:102DE000A3EB0503DBB20BD90444043124798A42F6
:102DF000A3EB0403DBB203D9014409795B1ADBB20C
:102E0000511C024413710160F0BD00210B46D3E751
:102E10001346024401211371016070470168F0B547
:102E200000295CD00D1FAD084F1E0135062F4FEA5B
:102E3000850251D90026334600F1040C5CF8044B9E
:102E4000013604F07F3E5C4003F07F3304F08034B1
:102E50007344AE4283EA0403F0D3C3F307241D197D
:102E6000C3F307442C4404EB13639142DBB22DD02F
:102E70008518541C2D798C422B44DBB226D20519BF
:102E8000941C2D79A1422B44DBB21FD90519D41C07
:102E90002D79A1422B44DBB218D90519141D2D79C7
:102EA000A1422B44DBB211D90519541D2D79A14241
:102EB0002B44DBB20AD904440632247991422344DC
:102EC000DBB203D9024412791344DBB2B3FA83F3C1
:102ED0005B0907601846F0BD00221346C8E70123CE
:102EE0004FF0FF37F5E700BF32B1024400F8011B95
:102EF00090424FEA1121F9D1704700BF01394318C0
:102F0000425C29B113F8011D984201EB0222F9D16C
:102F10001046704732B1024400F8011B90424FEA5C
:102F20002121F9D1704700BF284B00B59A6D42F0BE
:102F300080529A659B6DB5B003F080530093009B5F
:102F400000F048FF224B1B680C2133BB012201A873
:102F50000B9306930191039200F0CAFF98BB4FF4C4
:102F600000324FF4807312A81292339301F0B4FC34
:102F700008B1FEF7E9FE154AD2F8903043F4004359
:102F8000C2F890300F210022292000F0EFF829200C
:102F900000F024F935B05DF804FB0023012201A8FC
:102FA00001910B930393069200F0A2FF20B94FF416
:102FB00000324FF40073D6E7FEF7C6FE4FF400323E
:102FC0004FF40073CFE7FEF7BFFEC8E700100240E2
:102FD00078070020704700BFFEE700BF704700BFC2
:102FE00000F096B84FF4005000F0F8BA70B5161E15
:102FF00007DD0C468D19AFF3008004F8010BA542E4
:10300000F9D1304670BD00BF70B5161E07DD0C4605
:103010008D1914F8010BAFF30080A542F9D13046A9
:1030200070BD00BF0A4A08B5136873B118446946F9
:10303000884202D81060184608BD0BF023FE0C230E
:1030400003604FF0FF33184608BD024B1360EDE7F5
:103050007C070020101000204FF0FF30704700BFA9
:103060004FF400534B600020704700BF01207047B1
:1030700000207047DFF834D0002103E00C4B5B5890
:10308000435004310B480C4B42189A42F6D30B4A7A
:1030900002E0002342F8043B094B9A42F9D302F0C4
:1030A0002DFC0BF0F5FDFEF7E7F9FEE700800120AF
:1030B0003801010800000020100700201007002040
:1030C00010100020FEE70000704700BF084B094ABF
:1030D0001B6810B5A2FB03230446980900F08AF888
:1030E000214600224FF0FF3000F040F8002010BDD4
:1030F00054020020D34D621008B5032000F024F8DC
:103100000F20FFF7E3FFFFF7DFFF002008BD00BF40
:10311000024A136801331360704700BFEC0F0020B0
:10312000014B1868704700BFEC0F002038B504460B
:10313000FFF7F6FF631C054618BF0134FFF7F0FFE9
:10314000401B8442FAD838BD074AD1684FF6FF03C6
:103150000B40000243F0BF6300F4E06043F400332F
:103160000343D360704700BF00ED00E0194BDB68FC
:10317000C3F3022330B4C3F10705042D03F10404A3
:1031800028BF0425062C18D9033B01249C40013C90
:1031900022400124AC40013C214001FA03F3002805
:1031A00042EA03020CDB00F1604000F561401201CD
:1031B000D2B280F8002330BC704700221346E8E703
:1031C000054B00F00F0012010344D2B21A7630BC56
:1031D000704700BF00ED00E0FCEC00E000F01F01D4
:1031E00001234009024A8B4042F82030704700BF5B
:1031F00000E100E00138B0F1807F0ED2084B10B43E
:10320000084C5860F02084F8230000220721104663
:103210009A6019605DF8044B70470120704700BF49
:1032200010E000E000ED00E0002851D0F0B5324A97
:1032300004689442034641D9304A3149DFF8D0E06E
:103240002244A1FB0212120992009F68DD681E69E8
:103250005869C3F840E002213D4383F82510354307
:103260009969DE695A6405430D4320682E431D6A3F
:1032700020F4FF41354321F070012943B7F5804F19
:1032800021600FD01F498E4524D01F490F200C68A4
:10329000904024EA000008605C68086804FA02F2C2
:1032A00002430A6000200122D863D8621863586381
:1032B000986383F8240083F82520F0BD134A104951
:1032C000DFF840E02244A1FB021212099200BCE7A1
:1032D00001207047D1F8A8400F20904024EA000058
:1032E000C1F8A8005C68D1F8A80004FA02F2024311
:1032F000C1F8A820D6E700BF07040240F8FBFDBFD5
:10330000CDCCCCCC00000240A8040240F8FFFDBFA9
:1033100000040240F0B590F82440012C0CD090F845
:1033200025400125E4B2AC4280F8245006D00023A9
:1033300080F824300220F0BD0220F0BD056802278D
:10334000002680F82570C6632E68076C26F0010EF3
:10335000466CC5F800E0B44086687C606B60036B27
:10336000102E0BBFAA60A960E960EA604BB12B6820
:1033700043F00E032B602B6843F001032B60002009
:10338000F0BD2B6823F004032B602B6843F00A0385
:103390002B60F0E78C460968002900F003812DE9D5
:1033A000F04FDFF820E283B0002588E04FEA4508BF
:1033B0000323D0F8009003FA08F3DB4304F0030A78
:1033C00009EA03090AFA08FB013F4BEA0909012F40
:1033D000C0F8009040F2A780BAF1030F00F0BB8064
:1033E000C768DCF808203B4002FA08F21343C360C8
:1033F000E30060D56C4B6C4A1B6E43F0010313660F
:10340000136E25F0030202F1804203F0010302F57E
:103410008032019305F00303019FD2F8089098468B
:103420000F279B009F40B0F1904F29EA070900F059
:103430009F805E4FB84200F09D805D4FB84200F023
:103440009D805C4FB84200F09E805B4FB84200F018
:103450009F805A4FB84200F0A080594FB8420CBF2D
:103460004FF006084FF0070808FA03F343EA090390
:103470009360DEF80030F243E7034CBF3343134060
:10348000CEF80030DEF80430A7034CBF33431340BE
:10349000CEF80430DEF80830E7024CBF3343134067
:1034A000CEF80830DEF80C30A40254BF02EA03065E
:1034B0001E43CEF80C60013531FA05F355D00123D7
:1034C00003FA05F212EA0106F5D0DCF8044024F014
:1034D0001007022F7FF46AAF4FEAD50A00EB8A0A81
:1034E00005F00709DAF82030DCF810704FEA890996
:1034F0004FF00F0808FA09F823EA080807FA09F359
:1035000043EA0803CAF820304FEA45080323076856
:1035100003FA08F3DB4304F0030A1F400AFA08F930
:1035200049EA07070760876807EA0309DCF80C70B7
:1035300007FA08F747EA090787604768C4F30019E4
:1035400027EA020709FA05F949EA0707BAF1030F62
:1035500047607FF445AFC76AC4F3C00927EA020297
:103560004F46AF403A43C2623AE703B0BDE8F08F3E
:1035700000237BE7012707FA03F377E74FF0020800
:1035800008FA03F372E74FF0030808FA03F36DE754
:103590004FF0040808FA03F368E74FF0050808FA4B
:1035A00003F363E7704700BF0010024000040048C7
:1035B00000080048000C00480010004800140048B3
:1035C00000180048000401400AB981627047816117
:1035D000704700BF4369594041617047044A5169CF
:1035E000014200D1704708B55061FEF767FB08BD86
:1035F0000004014070B504460D4616466B1C226857
:1036000028D19369980728D49369D906F9D5936985
:103610009D06FCD510212023D161D36193699807C1
:1036200044BF002393629369D90703D4936943F09D
:103630000103936151681F4B04250B40202000219A
:103640005360656484F8401084F8410084F84210A7
:10365000012070BD93699B0701D5002070BD93695F
:10366000D90619D425B1FFF75BFD801B8542C5D271
:10367000636C202100220B43636484F8402084F8AB
:103680004110032084F8422070BD4DB1FFF748FD82
:10369000801B854204D3226893699B06F5D5B9E760
:1036A0000023202284F8412084F8403084F84230FE
:1036B000012070BD00E800FE70B5044616460D46B8
:1036C00029B93BE0FFF72CFD801B85423DD32268E2
:1036D0009369980646D49369D906F3D5681C22D11C
:1036E00093699906FCD510212023D161D361936998
:1036F000980744BF002393629369D90703D4936961
:1037000043F00103936151681D4B04250B402020B9
:1037100000215360656484F8401084F8410084F807
:103720004210012070BD93699B06DCD4E5B1FFF720
:10373000F7FC801B854217D32268CFE702689369A4
:103740009B061BD49369DB06C8D4636C202100223E
:103750000B43636484F8402084F84110032084F80C
:10376000422070BD002070BD0023202284F841203B
:1037700084F8403084F84230012070BD084670BDA6
:1037800000E800FE2DE9F84307682B4CD7F804E069
:10379000089E0EEA040444F00044C1F3090144F415
:1037A00000540C43D9B244EA014491467C60099A22
:1037B000314605469846FFF71DFF68B9B8F1010F7D
:1037C000044610D02B684FEA19229A623146099AB2
:1037D0002846FFF70FFF30B16B6C042B1FD003247A
:1037E0002046BDE8F88329685FFA89F38B62731C71
:1037F00007D18B6903F04003002BFAD02046BDE8C7
:10380000F8838B6903F04003002BE9D15EB1FFF729
:1038100087FC099BC01A864205D32968E7E7012483
:103820002046BDE8F8830023202285F8412085F852
:10383000403085F84230D2E7009800FC2DE9F8438B
:1038400007682B4CD7F804E0089E0EEA040444F005
:103850000144C1F3090144F400540C43D9B244EAD1
:10386000014491467C60099A314605469846FFF727
:10387000C1FE68B9B8F1010F044610D02B684FEAB9
:1038800019229A623146099A2846FFF7B3FE30B1F1
:103890006B6C042B1FD003242046BDE8F8832968F5
:1038A0005FFA89F38B62731C07D18B6903F0800385
:1038B000002BFAD02046BDE8F8838B6903F0800323
:1038C000002BE9D15EB1FFF72BFC099BC01A8642A1
:1038D00005D32968E7E701242046BDE8F8830023E3
:1038E000202285F8412085F8403085F84230D2E723
:1038F000009800FC704700BF002850D0F8B590F841
:103900004130044603F0FF02002B3FD02368E068FB
:10391000242284F841201968626821F0010122F014
:10392000706219601A619A68012822F400429A6054
:10393000A26830D042F4044202289A6004BF4FF4D7
:1039400000625A6058686169256A2269A769E66958
:1039500040F0007040F400405860D8680A4342EAE2
:10396000072246EA050120F40040D860DA601960B9
:103970001968002241F00101202519601046626497
:1039800084F84150226384F84220F8BD80F840203A
:10399000FFF7B0FFBAE742F400429A60D2E7012095
:1039A000704700BF704700BFB0B10268242310B554
:1039B00080F84130136823F0010304461360FFF7D9
:1039C000F1FF0023636484F8403084F841301846E6
:1039D000236384F8423010BD012070472DE9F04781
:1039E00090F8414082B0202CBDF82C5003D002202A
:1039F00002B0BDE8F0870A9C002C40D0002D3ED0DC
:103A000090F84040012CF2D01F46012380F840304E
:103A1000164688460446FFF783FB814605E0FFF71C
:103A20007FFBC9EB000019282BD82368986900F4A4
:103A300000400028F3D10A9B6362212040214FF00F
:103A4000000A0C9B0093CDF804903B4684F841009B
:103A5000324684F84210C4F834A0C4F844A0414669
:103A600065852046FFF7EAFEA0B1636C84F840A0AC
:103A7000042B04D00320BBE7636C042BFAD1012094
:103A8000B6E70023202284F8412084F8403084F8EF
:103A90004230EFE7638D9BB2FF2B67D92268474B1B
:103AA00051680B4043F0FF73C8F3090843F48033B7
:103AB00043EA0803FF2121855360FF2503E0638D5E
:103AC0009BB2002B64D04A460C992046FFF792FD2A
:103AD0000028D1D1626A2168238D501C606212785F
:103AE0008A62628D013B013A92B29BB26285238564
:103AF000002BE4D1638D9BB2002BE0D00C9B0133F3
:103B000014D18B6903F08003002BFAD0638D9BB234
:103B1000FF2B1CD94A68294B2585134043F0FF73BE
:103B200043F4803343EA08034B60C8E78B6903F032
:103B30008003002BEAD10C9B002BA2D0FFF7F0FAF8
:103B40000C9BC9EB000083429BD32168D7E7628DB1
:103B50001A4B486892B2034043F00073D0B243EA74
:103B6000004343EA080322854B60A8E72168628D81
:103B7000124B486892B2034043F00073D0B2C8F3CE
:103B8000090843EA004343EA080322854B6094E7AF
:103B90004A460C992046FFF78FFD00287FF46CAF52
:103BA0002368074A2021D9615D682A405A6084F859
:103BB000411084F8400084F8420019E7009C00FCA2
:103BC00000E800FE2DE9F04790F8414082B0202C3B
:103BD000BDF82C5003D0022002B0BDE8F0870A9C4B
:103BE000002C48D0002D46D090F84040012CF2D057
:103BF0009946012380F8403017460E460446FFF7E9
:103C00008FFA804605E0FFF78BFAC8EB0000192811
:103C100041D82368986900F400400028F3D10A9B3A
:103C20006362222040214FF0000A0C9B0093CDF8E4
:103C300004804B4684F841003A4684F84210C4F8A8
:103C400034A0C4F844A0314665852046FFF79AFDAC
:103C500058B3636C84F840A0042B0CD00320BBE75E
:103C600042460C992046FFF727FD002800F0978078
:103C7000636C042BF2D10120AEE7936903F080035B
:103C8000002B5DD10C9B33B1FFF74AFA0C9BC8EBBC
:103C9000000083424CD20023202284F8412084F883
:103CA000403084F84230032096E7638D22689BB24F
:103CB000FF2B62D950684149414B01400B43C6F389
:103CC00009063343FF21218553600C9BFF250133F7
:103CD0001CD1936903F00403002BFAD0636A526A83
:103CE000591C61621A70238D628D013B013A9BB2AF
:103CF00092B22385628513B9638D9BB2BBB9638D84
:103D00009BB2002BACD022680C9BE0E7936903F0D8
:103D10000403002BE2D10C9B002BBCD0FFF700FA70
:103D20000C9BC8EB00008342B5D32268CFE70C9B05
:103D300022680133A1D1936903F08003002BFAD0EC
:103D4000638D9BB2FF2B0AD951681E4B25850B4012
:103D500043F0FF7343F4803333435360CFE7618D07
:103D6000184B506889B2034043F00073C8B243EA6D
:103D70000043334321855360C1E7618D0F4B506889
:103D8000034089B243F00243C8B243F41053C6F370
:103D9000090643EA004333432185536095E72368CE
:103DA000094A2021D9615D682A405A6084F841108F
:103DB00084F8400084F842000EE700BF009800FC41
:103DC0000024FF81009C00FC00E800FE90F8410008
:103DD000704700BF024A136843F480731360704752
:103DE00000700040024B186800F4C060704700BFCC
:103DF000007000403A4B9A6812F00C0F30B439D082
:103E00009A6802F00C020C2A2FD0354A936803F00E
:103E10000C03042B55D0936803F00C03082B5CD0E3
:103E20002F4CA16801F00C0100200C2905463DD162
:103E3000E168E26801F00301C2F30212022902F113
:103E4000010341D0032933D0B5FBF3F3E268C2F399
:103E5000062203FB02F3224AD068C0F3416001301E
:103E6000400030BCB3FBF0F07047DB6803F00303A5
:103E7000012BCAD11A4B1B491A68120754BFD3F839
:103E800094301B68164A54BFC3F30323C3F30313D0
:103E9000926851F8235012F00C0F0CBF28460020F6
:103EA0000F4CA16801F00C010C29C1D030BC704747
:103EB000E0680D4AB2FBF3F2C0F3062002FB00F308
:103EC000C9E70A480025EBE7E0680849B1FBF3F2CF
:103ED000C0F3062002FB00F3BDE703480025DFE73F
:103EE000001002407CFE000800127A000024F4005A
:103EF0002DE9F0410368DC0684B005465DD5AB4B87
:103F00009A6812F00C0F40F044811B68980703D5A3
:103F1000AB69002B00F0CA81A44B2C6A1A68A34E2F
:103F2000110756BFD3F894301B681B0903F0F00348
:103F3000A34280F08B81B36DDA0040F13E82FFF73F
:103F400051FFB0F5007F00F08382802C00F2628286
:103F500000F0CA82A4F17004B4FA84F46409944AAB
:103F6000136823F0070323431360136803F0070368
:103F70009C4240F09B818D4B1A6842F008021A6007
:103F800019682A6A21F0F0010A431A605A68E9693F
:103F900022F47F4242EA01225A60FFF72BFF834B53
:103FA00084499B68844AC3F30313CB5C20FA03F370
:103FB0000F201360FFF78AF82B68D9072FD57B49AC
:103FC0008A6802F00C02082A00F08C818A6802F0EC
:103FD0000C020C2A00F080816B68B3F5803F00F082
:103FE0008B81B3F5A02F00F00882704C226822F478
:103FF00080322260226822F480222260002B40F06E
:104000008081FFF78DF8064605E0FFF789F8801BF1
:10401000642800F2AA8123689F03F6D42B689E07C8
:104020002BD562498A6802F00C02042A00F07D81D7
:104030008A6802F00C020C2A00F07181EB685B4C7C
:10404000002B00F03781236843F480732360FFF76F
:1040500067F8064605E0FFF763F8801B022800F2C8
:1040600084812368514A5805F5D55368296923F09E
:10407000F85343EA016353602B681A0719D56B693B
:104080004A4C002B00F0CD80D4F8943043F001036B
:10409000C4F89430FFF744F8064605E0FFF740F80F
:1040A000801B022800F26181D4F894309B07F5D57B
:1040B0002B685E073ED53D4B9A6DD40000F15981C7
:1040C0009A6D42F080529A659B6D03F08053019384
:1040D000019B0126394C2368D80540F13681AB6835
:1040E000012B00F0A681052B00F045812F4CD4F860
:1040F000902022F00102C4F89020D4F8902022F001
:104100000402C4F89020002B40F04281FFF708F829
:1041100041F28837804606E0FFF702F8C8EB00005E
:10412000B84200F22281D4F890309B07F4D4002EDC
:1041300040F07981AA6A42B31C4B996801F00C01E6
:104140000C2900F0B380022A1A6822F080721A60EB
:1041500000F085811A68110103D41A68920040F1B9
:104160005D81124CE36823F0887323F48033E360AD
:10417000FEF7D6FF054605E0FEF7D2FF401B0228FA
:1041800000F2F38023689B01F6D4002004B0BDE860
:10419000F0818269002A30D01A6842F001021A6068
:1041A0001C46FEF7BDFF064610E000BF00100240AF
:1041B00000200240ACFE00085402002000700040C5
:1041C000FEF7AEFF801B022800F2CF802368A64ACC
:1041D0009F07F5D5136843F00803136011682B6A35
:1041E00021F0F0010B4313605368E96923F47F4326
:1041F00043EA012353602B68DFE61A6822F00102CC
:104200001A601C46FEF78CFF064605E0FEF788FFA5
:10421000801B022800F2A98023689807F6D42B6837
:10422000CBE6D4F8943023F00103C4F89430FEF7C1
:1042300077FF064605E0FEF773FF801B022800F2B9
:104240009480D4F894309F07F5D431E7336843F075
:1042500008033360336823F0F0032343336073684B
:10426000EA6923F47F4343EA02237360B36DDB0002
:1042700040F1B380FFF7B6FDB0F5007F00F0E180BC
:10428000802C00F2C98000F03181A4F17004B4FAEE
:1042900084F46409754A136823F007032343136009
:1042A000136803F007039C423FF477AE012004B08B
:1042B000BDE8F081236823F480732360FEF730FFAC
:1042C000064604E0FEF72CFF801B02284DD8236829
:1042D0005905F7D42B68D0E6CA6802F00302032A16
:1042E0007FF47AAE604A126892037FF598AE6A68EE
:1042F000002A7FF494AED9E75B4A136843F4803315
:104300001360FEF70DFF584C064604E0FEF708FF69
:10431000801B642829D823689B03F7D57EE6CA68EA
:1043200002F00302022A7FF489AE4F4A1268540554
:1043300002D5EA68002AB9D04B4928694A6822F0B8
:10434000F85242EA00624A6097E6236843F48073B9
:104350002360FEF7E5FE07462368D9053FF5BFAEAB
:10436000FEF7DEFEC01B0228F6D9032004B0BDE82C
:10437000F0810026AEE63C4BD3F8902042F00402D8
:10438000C3F89020D3F8902042F00102C3F89020A7
:10439000FEF7C6FE344C804641F2883705E0FEF752
:1043A000BFFEC8EB0000B842DFD8D4F890309A07BF
:1043B000F5D5002E3FF4BEAE35E0B36D43F080532B
:1043C000B365B36D03F080530293029BFFF70AFDC0
:1043D000B36D23F08053B365B3E5B36D43F0805301
:1043E000B365B36D03F080530393039BFFF7FAFCAF
:1043F000B36D23F08053B3653EE703F18043A3F52B
:104400003C331A6842F480221A601A6842F48032FF
:104410001A6076E70324A2E503243BE7DA6822F07A
:104420000302DA609DE6104A936D23F08053936592
:1044300080E60D4AD2F8903043F00103C2F8903084
:10444000A6E7802C4CD9A12C34BF0124022421E7FB
:10445000802C47D9A12C34BF012402247FE51C46BF
:10446000FEF75EFE064609E0001002400020024012
:10447000FEF756FE801B02283FF677AF23681C4AE2
:104480009F01F5D405F12C03C8CBAC6BE86B296C0C
:1044900043EA0723751E43EA05132409400843EA4B
:1044A00044430138490843EA4053013943EA416330
:1044B000D360136843F080731360D36843F0807354
:1044C000D3601446FEF72CFE054605E0FEF728FEF5
:1044D000401B02283FF649AF23689801F6D554E601
:1044E0000024D7E600243AE5022438E50224D1E688
:1044F00000100240564A136803F007038B422DE96F
:10450000F0410CD2136823F007030B4313601368C8
:1045100003F00703994202D00120BDE8F08103684F
:104520000C46D90705463DD4990706D54948AA68DF
:10453000816821F0F0010A43826045490A6802F06F
:104540000702944209D20A6822F0070222430A6055
:104550000A6802F007029442DED15A0706D53D48A8
:10456000EA68816821F4E0610A4382601B0707D58D
:10457000384A2969936823F4605343EAC10393607E
:10458000FFF738FC334B34499B68344AC3F30313B9
:10459000CB5C20FA03F30F201360FEF797FD002099
:1045A000BDE8F08143682B4A032B126849D0022BE7
:1045B00041D0002B48D19607AED5264EB26822F0E6
:1045C00003021343B360FEF7ABFD6B68032B074692
:1045D00041F2883813D0022B27D0DBB904E0FEF774
:1045E0009FFDC01B404529D8B36813F00C0FF6D1CE
:1045F0002B6899E7FEF794FDC01B40451ED8B368B1
:1046000003F00C030C2BF5D1F2E7FEF789FDC01B7C
:10461000404513D8B36803F00C03042BF5D1E7E74A
:10462000FEF77EFDC01B404508D8B36803F00C03BD
:10463000082BF5D1DCE79703BFD46DE70320BDE875
:10464000F0819201B9D467E750057FF565AFB4E713
:104650000020024000100240ACFE0008540200207E
:10466000044B054A9B680549C3F302230868D35CE1
:10467000D840704700100240BCFE000854020020E1
:10468000044B054A9B680549C3F3C2230868D35C01
:10469000D840704700100240BCFE000854020020C1
:1046A000494AF8B5D3689B0707D0D368046803F07C
:1046B0000303A3420DD00120F8BD0368022B12D0E2
:1046C000032B5AD0012BF6D1126897070ED4184647
:1046D000F8BD002BEFD0D3684268C3F30213013357
:1046E0009342E8D10CE012685605E4D5364D426895
:1046F000EC6824F073042343013A43EA0213EB60AD
:10470000314C236823F0806323600F460546FEF793
:1047100007FD064604E0FEF703FD801B02282AD8A9
:104720002368294A1901F6D4002F2DD11169AC68EC
:10473000E86821F41F3323F4407343EA042300099B
:1047400043EA40431361204C236843F080632360B5
:10475000FEF7E6FC064604E0FEF7E2FC801B0228BA
:1047600009D82368184A1B01F6D5AB6911690B43B8
:1047700013610020F8BD0320F8BD1468A503B5D46B
:104780001268540397D5B1E7012F11690DD06869FC
:10479000AC6821F0C06323F4FE43400843EA0423DD
:1047A000013843EA40631361CDE72869AC6821F41E
:1047B000C00323F4FE43410843EA0423013943EADA
:1047C00041531361BFE700BF00100240414AF8B5F2
:1047D000D3689B0707D0D368046803F00303A342A0
:1047E0000DD00120F8BD0368022B12D0032B5AD044
:1047F000012BF6D1126897070ED41846F8BD002B8E
:10480000EFD0D3684268C3F3021301339342E8D177
:104810000CE012685605E4D52E4D4268EC6824F091
:1048200073042343013A43EA0213EB60294C2368E3
:1048300023F0805323600F460546FEF771FC0646C1
:1048400004E0FEF76DFC801B02282AD82368214A69
:104850009900F6D4002F2DD15169AC68E86821F495
:104860001F3323F4407343EA0423000943EA40431F
:104870005361184C236843F080532360FEF750FCCB
:10488000064604E0FEF74CFC801B022809D823688A
:10489000104A9B00F6D56B6951690B4353610020A8
:1048A000F8BD0320F8BD1468A503B5D412685403FD
:1048B00097D5B1E751692869AC6821F0C06323F44A
:1048C000FE43400843EA0423013843EA406353614E
:1048D000CFE700BF001002402DE9F043036813F456
:1048E000006683B0044617D0416EB1F5800F00F02A
:1048F000B88140F2CF81B1F5000F00F09981B1F598
:10490000400F40F0D681C348D0F8882022F44002FE
:104910001143C0F888100026D80440F10081A16E30
:10492000B1F1807F00F0958140F2BA81B1F1007F52
:1049300000F08481B1F1407F40F0F0803746002FD5
:1049400040F08581B348A26ED0F8881021F0407104
:104950000A439903C0F8882000F1E580DA0708D5FA
:10496000AC48A26BD0F8881021F003010A43C0F8CC
:1049700088209F0708D5A748E26BD0F8881021F05F
:104980000C010A43C0F888205D0708D5A148226CB5
:10499000D0F8881021F030010A43C0F888201807A9
:1049A00008D59C48626CD0F8881021F0C0010A43F9
:1049B000C0F88820D90608D59648A26CD0F888108F
:1049C00021F440710A43C0F888209A0608D591481E
:1049D000E26CD0F8881021F440610A43C0F88820C6
:1049E0009F0508D58B48E26DD0F8881021F440214E
:1049F0000A43C0F888205D0508D58648226ED0F8A5
:104A0000881021F440110A43C0F88820580608D5C0
:104A10008048226DD0F8881021F440510A43C0F834
:104A20008820190608D57B48626DD0F8881021F4DB
:104A300040410A43C0F88820DA0508D57548A26DC0
:104A4000D0F8881021F440310A43C0F888209F0430
:104A500010D57048E16ED0F8882022F040620A43F9
:104A6000B1F1006FC0F8882000F0D880B1F1806FFC
:104A700000F026811D0310D56648216FD0F88820EC
:104A800022F040620A43B1F1006FC0F8882000F0C4
:104A9000CA80B1F1806F00F02381580310D55D48C2
:104AA000616FD0F8882022F040620A43B1F1006FB4
:104AB000C0F8882000F0A880B1F1806F00F0088174
:104AC000590410D55348A16FD0F8882022F04052E5
:104AD0000A43B1F1805FC0F8882000F0CA80B1F1CC
:104AE000005F00F0CE801A0408D54A48E26FD0F883
:104AF000881021F080410A43C0F88820DB0309D5E3
:104B00004449D4F88020D1F8883023F0004313437F
:104B1000C1F88830304603B0BDE8F083012637463F
:104B200099037FF51BAF3B4B9A6DD20056D54FF0E2
:104B30000008394D2B6843F480732B60FEF7F0FAC0
:104B4000814605E0FEF7ECFAC9EB0000022851D8D7
:104B50002B68DB05F6D5002F40F0D2802D4AD2F825
:104B6000903013F440732AD0D4F884108B4200F0B4
:104B7000BF80D2F89030D2F8900040F48030C2F874
:104B80009000D2F8900023F4407320F48030C2F8F3
:104B90009000C2F89030D80740F18D80FEF7C0FA3F
:104BA0001C4D814641F2883705E0FEF7B9FAC9EBA2
:104BB0000000B8421ED8D5F890309907F5D5D4F842
:104BC00084301449D1F8902022F440721343C1F884
:104BD0009030B8F1000F11D12368BFE69A6D42F012
:104BE00080529A659B6D03F080530193019B4FF0B7
:104BF00001089EE70326B8F1000FEDD0054A936D3A
:104C000023F080539365E7E7C26842F48012C260E4
:104C100056E700BF0010024000700040C26842F436
:104C20008012C26026E7C26842F48012C26034E794
:104C30003448C26842F48032C26064E63149CA68CE
:104C4000374642F48032CA60002F3FF47BAE3E46C6
:104C500066E7002104F12000FFF7B8FD236807464E
:104C60006DE600212030FFF7B1FD06462EB3236824
:104C700052E60221201DFFF713FD48B106462368C6
:104C800031E7022104F12000FFF7A0FD0028F5D153
:104C9000236828E769B90430FFF702FD0646E5E717
:104CA00000297FF43BAF201DFFF7FAFC236807467D
:104CB00045E6012630E60B4683E7616E236822E66F
:104CC0000121201DFFF7ECFCA0B106462368D1E6C8
:104CD0000121201DFFF7E4FC70B106462368EFE6D2
:104CE0000121201DFFF7DCFC40B106462368D4E615
:104CF0000B4650E72368BDE62368E1E62368CCE66F
:104D00003E4666E70010024000286ED0F8B590F8E5
:104D10002130044603F0FF02002B4FD023685322BA
:104D20000220CA2184F8210059625A62DA685506C5
:104D30002CD59A6861682569A069A668E76822F49D
:104D4000E00222F040029A609A681143294301432D
:104D500099601F611A6942EA06421A61DA6822F014
:104D60008002DA609A6892062DD5D86C6169E26992
:104D700020F00300D864D86C02430A43FF250121C8
:104D8000DA6400205D6284F82110F8BD4FF0FF3234
:104D9000DA60FEF7C5F905462368DA685006C8D41C
:104DA000FEF7BEF9401BB0F57A7FF5D92268FF21E6
:104DB00004235162012084F82130F8BD80F82020BE
:104DC000FEF7B2F8AAE7DA6822F0A002DA60FEF78E
:104DD000A7F905462368DA689106C6D4FEF7A0F95C
:104DE000401BB0F57A7FF5D9E0E70120704700BF9E
:104DF0002DE9F84390F82030012B00F08680012443
:104E0000022380F8204080F821300468002A3ED038
:104E1000A7684E780B7817F0400516BFCF78CD7095
:104E20003D044FEA06268F7808BF046846EA03432C
:104E30003B4343EA0507CA22532362626362E36885
:104E40005A068846064663D507F07F3323F0FE43B3
:104E50002360A168D8F80C30D8F8102021F4802104
:104E6000A160A1680B431343A360E36823F08003B0
:104E7000E360A3689B0668D50023FF2101226162DD
:104E8000184686F8212086F82030BDE8F883A66809
:104E90000B7816F0400615BFCE78CE703604046845
:104EA000092B65D900220A3BDBB2092B02F1010272
:104EB000F9D84FEA021E5FFA8EFE4A7843EA0E03E3
:104EC000092A4FEA034E4FF0000507D90A3AD2B239
:104ED000092A05F10105F9D82D01EDB28B782A4395
:104EE000092B4FEA02254FF0000707D90A3BDBB236
:104EF000092B07F10107F9D83F01FFB24EEA06027C
:104F00002A433B4342EA030795E70220BDE8F883C2
:104F10004FF0FF33E360FEF703F981463468E3683E
:104F200013F0400590D1FEF7FBF8C9EB0000B0F597
:104F30007A7FF3D93268FF2104235162012086F879
:104F4000205086F82130BDE8F883E36823F0A00301
:104F5000E360FEF7E5F807463468E36813F02005E0
:104F60008AD1FEF7DDF8C01BB0F57A7FF4D9E1E70E
:104F70004FF0000EA1E700BF0368F0B59D6A1C6901
:104F80001B684D6003F07F3323F0FE43180CC3F31E
:104F90000627C4F30E04DBB200F0400E00F03F061B
:104FA0008C6081F803E00E704F708B70BAB93D09C8
:104FB0001C09360906EB860605EB850504EB84041F
:104FC00000F00F0007F00F0703F00F0300EB46009F
:104FD00007EB450503EB440408704D708C7000200E
:104FE000F0BD00BFF8B590F82030012B65D001244A
:104FF000022380F8204080F8213042B34A78CB78F1
:105000008D780C78110241EA03422A4342EA443483
:105010000368CA21532259625A62DA685106074668
:105020004DD524F07F4424F0C0045C60DA6822F09F
:105030008002DA609A68920662D50022FF20012180
:105040005862104687F8211087F82020F8BD4B7869
:10505000DC064FD4CA78092A4FF0000407D90A3A6F
:10506000D2B2092A04F10104F9D82401E4B222439E
:10507000092B4FEA02425FD900240A3BDBB2092B1D
:1050800004F10104F9D82501EDB28C782B43092CE9
:105090004FEA03254FF0000607D90A3CE4B2092C79
:1050A00006F10106F9D83601F6B20B7842EA43322E
:1050B00042EA050334431C43AAE70220F8BD4FF03F
:1050C000FF32DA60FEF72CF806463B68DA6812F029
:1050D0004005A6D1FEF724F8801BB0F57A7FF4D9FD
:1050E0003A68FF2104235162012087F8205087F895
:1050F0002130F8BD23F010030A33DBB24B70A9E76F
:10510000DA6822F0A002DA60FEF70AF805463B688A
:10511000DA6812F0200490D1FEF702F8401BB0F5D7
:105120007A7FF4D93A68FF2104235162012087F87D
:10513000204087F82130F8BD0025A6E703685B68AA
:1051400023F07F4323F0C003F0B4C3F30725DEB29E
:10515000C3F3423705F01F001B0C0F704870CB7073
:105160008E70BAB9000934091A09870004EB840467
:1051700005F00F0506F00F06384402EB820203F03B
:105180000F0306EB440405EB400003EB42038C7075
:105190004870CB700020F0BC704700BF704700BF64
:1051A000F0B50E4690F87110202983B002D002208D
:1051B00003B0F0BD002E45D0002A43D01D4690F824
:1051C0007030012B0446F2D02123002001216067BA
:1051D00084F8701084F871300192FDF7A1FF019AF4
:1051E000A4F85220B4F85230A4F850209BB20746DD
:1051F000002B5ED020686A1C26D1C26902F08002B2
:10520000002AFAD0A368B3F5805F3BD033780385DA
:105210000136B4F85230013B9BB2A4F85230B4F8D6
:1052200052309BB2002BE6D16B1C34D1C36903F022
:105230004003002BFAD02023002084F8713084F83A
:105240007000B5E70120B3E7C36903F08003002BCA
:10525000D8D12DB1FDF764FFC01B85422068CAD2AA
:10526000036823F4D07303608368202223F00103D2
:105270000021836084F87120032084F8701084F882
:10528000722095E72369002BC0D136F8023BC3F3A7
:1052900008030385BDE7C36903F04003002BCAD1AF
:1052A000002DDDD0FDF73CFFC01B85422068BBD23E
:1052B000D6E72068B8E700BFF8B590F87240202C18
:1052C00001D00220F8BD002930D0002A2ED090F85D
:1052D0007030012BF5D004460127C06E144E84F8BF
:1052E00070700025134622270A4621686265A4F8DB
:1052F0005830656784F872700E4FC6620E4E856333
:10530000076346632431FEF705F8236884F870507C
:105310001A6842F480721A609A6842F001029A6038
:105320009A6842F0400228469A60F8BD0120F8BD14
:10533000415300087D5300088D530008704700BF9B
:1053400008B50368806A1B6813F0200311D1026856
:10535000A0F85A30136823F480731360936823F025
:10536000010393609368202123F04003936080F849
:105370007210FFF7E3FF08BD704700BF08B5806AF1
:10538000FFF7FAFF08BD00BF704700BF806A90F8C2
:105390007130212B10B51ED090F87230222B06D020
:1053A000436F43F010034367FFF7EEFF10BD036840
:1053B0009A685206F4D50021A0F85A101A6822F40F
:1053C00090721A609A68202422F001029A600166A5
:1053D00080F87240E4E703689A681106DCD5002281
:1053E000A0F852201A68202122F0C0021A6080F82A
:1053F0007110D1E7436ADA0710B406D50468826AEF
:10540000616821F400310A4362609C0706D5046894
:10541000C26A616821F480310A436260590706D587
:105420000468026B616821F480210A4362601A07F4
:1054300006D50468426B616821F400410A4362604A
:10544000DC0606D50468826BA16821F480510A430A
:10545000A260990606D50468C26BA16821F40051C8
:105460000A43A2605A0609D50168046C4A6822F40E
:1054700080122243B4F5801F4A600BD01B0606D56C
:105480000168826C4B6823F4002313434B605DF882
:10549000044B70474C68426C24F4C00422434A60B9
:1054A000ECE700BF002800F03D81F8B590F87130BE
:1054B000044603F0FF02002B3CD02368A768216953
:1054C0006069E569242284F871201E68BD4A26F0CF
:1054D00001061E601E6839430143324029430A43D6
:1054E0001A605868E168B84AA66920F44050014340
:1054F0009342596000F0B5809968226AB34821F45C
:10550000306132430A4383429A6000F0E780B04A38
:10551000934200F0E281AF4A934210D0AE4A9342E8
:1055200000F00281AD4A934223D0002323666366D4
:105530000120F8BD80F87020FFF730FEBDE7A84BD2
:10554000D3F8883003F03003102B00F0FD801BD916
:10555000202B00F08481302BE7D1B5F5004F00F00F
:1055600025816268530803F50043B3FBF2F39BB255
:1055700018E09B4BD3F8883003F44073B3F5807F79
:1055800000F0E28000F20781002BCED1B5F5004F8C
:1055900000F01481FFF764F8636800EB5300B0FB80
:1055A000F3F39BB2A3F110014FF6EF729142BCD816
:1055B0002268D360626A002323666366002A4CD1A6
:1055C00023685A6822F490425A609A6822F02A02AC
:1055D0009A601A68002142F001021A606167FDF7C3
:1055E0009FFD23681A68110705460BD41A685207F5
:1055F00026D42023002084F8713084F8700084F8C9
:105600007230F8BDDA6902F40012002AEED1FDF71B
:1056100087FD401BB0F1007F2368F3D31A6822F4A2
:10562000D0721A609A68202122F0010200259A6047
:10563000032084F8711084F8705084F87210F8BD5B
:10564000DB6903F48003002BD3D1FDF769FD401B18
:10565000B0F1007F2368F3D3E0E72046FFF7CAFEEE
:10566000AEE79A685E4922F4306232439A60D1F81C
:10567000885005F44065B5F5806F00F0278140F251
:105680001C81B5F5006F00F08E80B5F5406F7FF49A
:105690004CAF08254FF40040626802EB420383429E
:1056A0003FF643AFB0EB023F3FF63FAF082D3FF66A
:1056B0003CAF01A353F825F0455800082B550008CE
:1056C0002F5800082B550008115800082B550008CA
:1056D0002B5500082B550008ED570008404B414A58
:1056E000D3F8883003F00303D35CB5F5004F40F0E6
:1056F000C380082B3FF619AF01A252F823F000BF78
:10570000BD570008675700084B5800082B55000884
:105710004F5700082B5500082B5500082B55000843
:10572000AD570008012070472D4BD3F8883003F0A7
:10573000C003402B08D07FF627AF802B00F08F806E
:10574000C02B3FF40AAFF0E6B5F5004F02D1FEF7EB
:1057500051FB0AE0FEF74EFB636800EB5300B0FB21
:10576000F3F39BB21EE7FEF78BFF6268530803EB6F
:105770004000B0FBF2F39BB2A3F110014FF6EF72C1
:1057800091423FF6D2AEC3F34201226823F00F03E9
:105790000B43D3600EE7B3F5007F60D0B3F5407FD5
:1057A0003FF4DBAEC1E602250F4875E76268530897
:1057B00003F58033B3FBF2F39BB2DDE7FEF750FF56
:1057C000D3E700BFF369FFEF0080004000380140DD
:1057D0000044004000480040004C004000500040A1
:1057E0000010024068FE00080024F4005008002168
:1057F00010F5000041F100010023FBF76BF93B4B72
:10580000A0F540729A423FF690AE2368D860D1E688
:10581000FEF7F0FA62684FF4807356080027E3FB46
:105820000067304639460023FBF754F9E7E7304874
:105830005308C0184FF0000141F100010023FBF7AD
:1058400049F9DCE7FEF70CFFE4E761684A0802F17A
:10585000F47303F59043B3FBF1F39BB28CE7B5F51A
:10586000004FF2D061684A0802F5740303F5105343
:10587000B3FBF1F39BB295E6082B3FF656AE01A2BF
:1058800052F823F095550008A958000865580008FB
:105890002B550008555700082B5500082B550008BC
:1058A0002B55000863550008FEF7EAFE636800EB1D
:1058B0005300B0FBF3F39BB274E6002D7FF435AEDA
:1058C000FEF7CEFE00287FF4E7AE73E6FEF792FA0D
:1058D000042500287FF4E0AE6CE6064B064AD3F8B8
:1058E000883003F00C0313441B79FEE6FFFC0F0025
:1058F000000024F40010024068FE00081149124B19
:10590000D1F8882042F4700210B4C1F888201A68D7
:10591000002042F001021A6098601A6822F0A85232
:1059200022F410224FF480541A60DC601A684FF0A1
:10593000006422F480221A6098618C605DF8044B48
:10594000704700BF00ED00E000100240F0B52A4CA7
:1059500089B02046FEF73AFA38B12748FEF736FA02
:10596000203818BF012009B0F0BD244D244B23601E
:10597000EB6C244A626043F00203EB64EB6C03F0CF
:1059800002030193332201234FF440710646A260C3
:10599000E3600222042303911B48DDF804E0069231
:1059A00003A91227079305960497FDF7F3FCAB6D47
:1059B00043F40013AB65AB6D03F400130293029B39
:1059C000AB6B43F40013AB63AB6B23F40013AB631B
:1059D000324631461F20FDF7C9FB1F20FDF7FEFBB5
:1059E000324631462020FDF7C1FB2020FDF7F6FBB3
:1059F0002046FDF781FFB0E7840700200010024039
:105A0000005400403A14D11000040048F0B52A4C6C
:105A100089B02046FEF7DAF938B12748FEF7D6F903
:105A2000203818BF012009B0F0BD244D244B23605D
:105A3000EB6C244A626043F00203EB64EB6C03F00E
:105A400002030193332201234FF440710646A26002
:105A5000E3600222042303911B48DDF804E0069270
:105A600003A91227079305960497FDF793FCAB6DE6
:105A700043F40013AB65AB6D03F400130293029B78
:105A8000AB6B43F40013AB63AB6B23F40013AB635A
:105A9000324631461F20FDF769FB1F20FDF79EFBB4
:105AA000324631462020FDF761FB2020FDF796FBB2
:105AB0002046FDF721FFB0E78407002000100240D8
:105AC000005400403A14D1100004004800207047F0
:105AD000F0B51D4D1D4EEB6C43F00103EB64EB6C18
