:020000040800F2
:100000000080012039040008190400081D040008BC
:100010008904000889040008890400080000000021
:10002000000000000000000000000000890400083B
:1000300021040008000000008904000825040008CD
:10004000890400088904000889040008890400085C
:10005000890400088904000889040008890400084C
:10006000890400088904000829040008890400089C
:10007000890400088904000889040008890400082C
:10008000890400088904000889040008890400081C
:10009000890400088904000889040008890400080C
:1000A00089040008890400088904000889040008FC
:1000B00089040008890400088904000889040008EC
:1000C00089040008890400088904000889040008DC
:1000D00089040008890400088904000889040008CC
:1000E0003104000889040008890400088904000814
:1000F00089040008890400088904000889040008AC
:10010000890400088904000889040008890400089B
:10011000890400088904000889040008890400088B
:10012000890400088904000889040008890400087B
:10013000890400088904000889040008890400086B
:10014000890400088904000889040008890400085B
:10015000890400088904000889040008890400084B
:10016000890400088904000889040008890400083B
:1001700089040008890400088904000800000000C0
:100180008904000889040008044B05481B1A062B43
:1001900002D9044B03B11847704700BF6B0200201F
:1001A000680200200000000005490648091A89106D
:1001B00001EBD171491002D0034B03B118477047CE
:1001C00068020020680200200000000010B5064C04
:1001D000237843B9FFF7D8FF044B13B10448AFF3BA
:1001E00000800123237010BD680200200000000081
:1001F000AC6F000808B5084B1BB108490848AFF3BD
:1002000000800848036813B9BDE80840CCE7064BF6
:10021000002BF9D09847F7E7000000006C0200209F
:10022000AC6F0008680200200000000070B50023D9
:1002300096B01946442205A80193009302930393B4
:10024000049306F0ABFE102101230222602628252C
:100250000724059105A804210B93109311930D9683
:100260000F92159212951394149100F067FF80B9C4
:1002700000230F2403226846042100940192029374
:100280000393049301F05CFA08B100F0C3F816B0D0
:1002900070BD00F0BFF8EBE72DE9F04F83B000F040
:1002A0000DF9474DFFF7C2FF002001F0FFFD0121CE
:1002B000002001F035FE2946012001F0BBFC012899
:1002C00079D0DFF800B1286801F09AFDD9462E46B2
:1002D000A8460027AA460AE09BF80040E4B2012C99
:1002E00035D0AB79012B3ED0EB79012B4CD02B795B
:1002F000012BF1D173793771012B50D0022BEBD147
:1003000001A9306801F0BCFD04460028E4D19DF845
:1003100004305B07E0D501F0EFFD642000F0E8F861
:10032000204601F0F3FD642000F0E2F8204601F0E1
:10033000E3FD642000F0DCF8204601F0E7FD6420D6
:1003400000F0D6F89BF80040E4B2012CC9D100219E
:10035000286801F065FD0028C3D189F80000AB7959
:100360007471012BC0D1306801F066FD0028BBD14B
:100370000146306801F06CFD0028B5D10223B07150
:100380007371EB79012BB2D1D8F8000001F06CFD4C
:100390000028ACD18AF805008AF80700A7E701A970
:1003A000306801F06DFD0446002895D19DF80430B9
:1003B0009A0791D5BBE7002001F09EFDFEE700BF44
:1003C0008402002000000020B0F5005F08B506D0D0
:1003D000102800D0FEE70D4B01221A7108BD002045
:1003E00001F0E6FD80B9094A53794BB1012B05D0E4
:1003F000022B00D0FEE70123D37108BD937108BD25
:10040000034B01221A7008BD08BD00BF8402002002
:1004100000000020FEE700BF704700BFFEE700BFFE
:10042000704700BF00F056B8102000F005BA00BFBA
:100430004FF4005000F000BADFF834D0002103E0A0
:100440000C4B5B58435004310B480C4B42189A42FA
:10045000F6D30B4A02E0002342F8043B094B9A42D0
:10046000F9D301F023FA06F073FDFFF715FFFEE75D
:1004700000800120187000080000002068020020A1
:100480006802002028030020FEE70000704700BF3C
:10049000084B094A1B6810B5A2FB032304469809C0
:1004A00000F08AF8214600224FF0FF3000F040F8BB
:1004B000002010BD04000020D34D621008B50320B9
:1004C00000F024F80F20FFF7E3FFFFF7DFFF002025
:1004D00008BD00BF024A136801331360704700BFB4
:1004E0001C030020014B1868704700BF1C0300204C
:1004F00038B50446FFF7F6FF631C054618BF013404
:10050000FFF7F0FF401B8442FAD838BD074AD16894
:100510004FF6FF030B40000243F0BF6300F4E060BE
:1005200043F400330343D360704700BF00ED00E0A5
:10053000194BDB68C3F3022330B4C3F10705042D64
:1005400003F1040428BF0425062C18D9033B012419
:100550009C40013C22400124AC40013C214001FA76
:1005600003F3002842EA03020CDB00F1604000F5CF
:1005700061401201D2B280F8002330BC70470022E3
:100580001346E8E7054B00F00F0012010344D2B216
:100590001A7630BC704700BF00ED00E0FCEC00E0D4
:1005A00000F01F0101234009024A8B4042F820302D
:1005B000704700BF00E100E00138B0F1807F0ED24B
:1005C000084B10B4084C5860F02084F82300002237
:1005D000072110469A6019605DF8044B70470120AE
:1005E000704700BF10E000E000ED00E08C460968B5
:1005F000002900F003812DE9F04FDFF820E283B0FD
:10060000002588E04FEA45080323D0F8009003FA5C
:1006100008F3DB4304F0030A09EA03090AFA08FBBA
:10062000013F4BEA0909012FC0F8009040F2A78072
:10063000BAF1030F00F0BB80C768DCF808203B402C
:1006400002FA08F21343C360E30060D56C4B6C4AB6
:100650001B6E43F001031366136E25F0030202F1D3
:10066000804203F0010302F58032019305F0030399
:10067000019FD2F8089098460F279B009F40B0F149
:10068000904F29EA070900F09F805E4FB84200F0C2
:100690009D805D4FB84200F09D805C4FB84200F0F5
:1006A0009E805B4FB84200F09F805A4FB84200F0E6
:1006B000A080594FB8420CBF4FF006084FF0070812
:1006C00008FA03F343EA09039360DEF80030F243CB
:1006D000E7034CBF33431340CEF80030DEF804305C
:1006E000A7034CBF33431340CEF80430DEF8083084
:1006F000E7024CBF33431340CEF80830DEF80C302D
:10070000A40254BF02EA03061E43CEF80C60013572
:1007100031FA05F355D0012303FA05F212EA010676
:10072000F5D0DCF8044024F01007022F7FF46AAF04
:100730004FEAD50A00EB8A0A05F00709DAF82030FB
:10074000DCF810704FEA89094FF00F0808FA09F831
:1007500023EA080807FA09F343EA0803CAF8203035
:100760004FEA45080323076803FA08F3DB4304F064
:10077000030A1F400AFA08F949EA07070760876871
:1007800007EA0309DCF80C7007FA08F747EA0907DB
:1007900087604768C4F3001927EA020709FA05F9D8
:1007A00049EA0707BAF1030F47607FF445AFC76A0C
:1007B000C4F3C00927EA02024F46AF403A43C2627F
:1007C0003AE703B0BDE8F08F00237BE7012707FA83
:1007D00003F377E74FF0020808FA03F372E74FF0EC
:1007E000030808FA03F36DE74FF0040808FA03F36F
:1007F00068E74FF0050808FA03F363E7704700BFA6
:10080000001002400004004800080048000C0048A6
:10081000001000480014004800180048000401407F
:100820000369194214BF0120002070470AB9816290
:1008300070478161704700BF044A5169014200D18D
:10084000704708B55061FFF7BFFD08BD00040140C7
:1008500070B504460D4616466B1C226828D1936974
:10086000980728D49369D906F9D593699D06FCD5D4
:1008700010212023D161D3619369980744BF0023DD
:1008800093629369D90703D4936943F00103936199
:1008900051681F4B04250B402020002153606564E4
:1008A00084F8401084F8410084F84210012070BDA3
:1008B00093699B0701D5002070BD9369D90619D4AF
:1008C00025B1FFF70FFE801B8542C5D2636C202146
:1008D00000220B43636484F8402084F84110032015
:1008E00084F8422070BD4DB1FFF7FCFD801B8542AE
:1008F00004D3226893699B06F5D5B9E7002320222B
:1009000084F8412084F8403084F84230012070BDE2
:1009100000E800FE70B5044616460D4629B93BE0D6
:10092000FFF7E0FD801B85423DD32268936998065E
:1009300046D49369D906F3D5681C22D193699906E8
:10094000FCD510212023D161D3619369980744BF5E
:10095000002393629369D90703D4936943F0010399
:10096000936151681D4B04250B40202000215360EA
:10097000656484F8401084F8410084F84210012036
:1009800070BD93699B06DCD4E5B1FFF7ABFD801B1E
:10099000854217D32268CFE7026893699B061BD470
:1009A0009369DB06C8D4636C202100220B43636487
:1009B00084F8402084F84110032084F8422070BD60
:1009C000002070BD0023202284F8412084F84030AC
:1009D00084F84230012070BD084670BD00E800FE7A
:1009E0002DE9F84307682B4CD7F804E0089E0EEA7F
:1009F000040444F00044C1F3090144F400540C43DE
:100A0000D9B244EA014491467C60099A31460546D0
:100A10009846FFF71DFF68B9B8F1010F044610D0E2
:100A20002B684FEA19229A623146099A2846FFF745
:100A30000FFF30B16B6C042B1FD003242046BDE8A0
:100A4000F88329685FFA89F38B62731C07D18B697D
:100A500003F04003002BFAD02046BDE8F8838B69F1
:100A600003F04003002BE9D15EB1FFF73BFD099B8A
:100A7000C01A864205D32968E7E701242046BDE86D
:100A8000F8830023202285F8412085F8403085F83E
:100A90004230D2E7009800FC2DE9F84307682B4C60
:100AA000D7F804E0089E0EEA040444F00144C1F3C0
:100AB000090144F400540C43D9B244EA014491467C
:100AC0007C60099A314605469846FFF7C1FE68B931
:100AD000B8F1010F044610D02B684FEA19229A6230
:100AE0003146099A2846FFF7B3FE30B16B6C042BF0
:100AF0001FD003242046BDE8F88329685FFA89F3F4
:100B00008B62731C07D18B6903F08003002BFAD032
:100B10002046BDE8F8838B6903F08003002BE9D100
:100B20005EB1FFF7DFFC099BC01A864205D3296836
:100B3000E7E701242046BDE8F8830023202285F85A
:100B4000412085F8403085F84230D2E7009800FC1B
:100B5000704700BF002850D0F8B590F841300446E7
:100B600003F0FF02002B3FD02368E068242284F8C2
:100B700041201968626821F0010122F07062196059
:100B80001A619A68012822F400429A60A26830D063
:100B900042F4044202289A6004BF4FF400625A6093
:100BA00058686169256A2269A769E66940F00070A2
:100BB00040F400405860D8680A4342EA072246EAF7
:100BC000050120F40040D860DA601960196800223D
:100BD00041F00101202519601046626484F84150FB
:100BE000226384F84220F8BD80F84020FFF7B0FF70
:100BF000BAE742F400429A60D2E70120704700BF92
:100C0000704700BFB0B10268242310B580F84130AE
:100C1000136823F0010304461360FFF7F1FF00237C
:100C2000636484F8403084F841301846236384F8C4
:100C3000423010BD012070472DE9F04790F8414047
:100C400082B0202CBDF82C5003D0022002B0BDE8A9
:100C5000F0870A9C002C40D0002D3ED090F84040F8
:100C6000012CF2D01F46012380F8403016468846FA
:100C70000446FFF737FC814605E0FFF733FCC9EB7C
:100C8000000019282BD82368986900F40040002838
:100C9000F3D10A9B6362212040214FF0000A0C9B94
:100CA0000093CDF804903B4684F84100324684F826
:100CB0004210C4F834A0C4F844A0414665852046DB
:100CC000FFF7EAFEA0B1636C84F840A0042B04D0C7
:100CD0000320BBE7636C042BFAD10120B6E70023A5
:100CE000202284F8412084F8403084F84230EFE735
:100CF000638D9BB2FF2B67D92268474B51680B402D
:100D000043F0FF73C8F3090843F4803343EA080350
:100D1000FF2121855360FF2503E0638D9BB2002BEB
:100D200064D04A460C992046FFF792FD0028D1D1A5
:100D3000626A2168238D501C606212788A62628D1B
:100D4000013B013A92B29BB262852385002BE4D12C
:100D5000638D9BB2002BE0D00C9B013314D18B69C7
:100D600003F08003002BFAD0638D9BB2FF2B1CD9BC
:100D70004A68294B2585134043F0FF7343F48033C1
:100D800043EA08034B60C8E78B6903F08003002B3C
:100D9000EAD10C9B002BA2D0FFF7A4FB0C9BC9EB64
:100DA000000083429BD32168D7E7628D1A4B4868C5
:100DB00092B2034043F00073D0B243EA004343EAE7
:100DC000080322854B60A8E72168628D124B4868B2
:100DD00092B2034043F00073D0B2C8F3090843EA6B
:100DE000004343EA080322854B6094E74A460C9986
:100DF0002046FFF78FFD00287FF46CAF2368074A79
:100E00002021D9615D682A405A6084F8411084F835
:100E1000400084F8420019E7009C00FC00E800FE56
:100E20002DE9F04790F8414082B0202CBDF82C50BD
:100E300003D0022002B0BDE8F0870A9C002C48D005
:100E4000002D46D090F84040012CF2D09946012365
:100E500080F8403017460E460446FFF743FB8046B5
:100E600005E0FFF73FFBC8EB0000192841D82368D5
:100E7000986900F400400028F3D10A9B63622220A5
:100E800040214FF0000A0C9B0093CDF804804B46A4
:100E900084F841003A4684F84210C4F834A0C4F8FB
:100EA00044A0314665852046FFF79AFD58B3636C30
:100EB00084F840A0042B0CD00320BBE742460C99D9
:100EC0002046FFF727FD002800F09780636C042B75
:100ED000F2D10120AEE7936903F08003002B5DD1CE
:100EE0000C9B33B1FFF7FEFA0C9BC8EB000083426A
:100EF0004CD20023202284F8412084F8403084F82A
:100F00004230032096E7638D22689BB2FF2B62D9A3
:100F100050684149414B01400B43C6F30906334336
:100F2000FF21218553600C9BFF2501331CD1936960
:100F300003F00403002BFAD0636A526A591C616201
:100F40001A70238D628D013B013A9BB292B22385C8
:100F5000628513B9638D9BB2BBB9638D9BB2002BC5
:100F6000ACD022680C9BE0E7936903F00403002BEC
:100F7000E2D10C9B002BBCD0FFF7B4FA0C9BC8EB62
:100F800000008342B5D32268CFE70C9B226801336F
:100F9000A1D1936903F08003002BFAD0638D9BB23B
:100FA000FF2B0AD951681E4B25850B4043F0FF7378
:100FB00043F4803333435360CFE7618D184B50685F
:100FC00089B2034043F00073C8B243EA004333439D
:100FD00021855360C1E7618D0F4B5068034089B292
:100FE00043F00243C8B243F41053C6F3090643EA80
:100FF000004333432185536095E72368094A202144
:10100000D9615D682A405A6084F8411084F8400034
:1010100084F842000EE700BF009800FC0024FF8126
:10102000009C00FC00E800FE90F84100704700BF03
:10103000024B186800F4C060704700BF00700040A9
:101040003A4B9A6812F00C0F30B439D09A6802F01B
:101050000C020C2A2FD0354A936803F00C03042BA2
:1010600055D0936803F00C03082B5CD02F4CA1687B
:1010700001F00C0100200C2905463DD1E168E26831
:1010800001F00301C2F30212022902F1010341D06F
:10109000032933D0B5FBF3F3E268C2F3062203FB66
:1010A00002F3224AD068C0F341600130400030BCF6
:1010B000B3FBF0F07047DB6803F00303012BCAD1E8
:1010C0001A4B1B491A68120754BFD3F894301B6897
:1010D000164A54BFC3F30323C3F30313926851F8B2
:1010E000235012F00C0F0CBF284600200F4CA168B3
:1010F00001F00C010C29C1D030BC7047E0680D4AEA
:10110000B2FBF3F2C0F3062002FB00F3C9E70A4882
:101110000025EBE7E0680849B1FBF3F2C0F30620D5
:1011200002FB00F3BDE703480025DFE700100240A3
:10113000C86F000800127A000024F4002DE9F04185
:101140000368DC0684B005465DD5AB4B9A6812F0A7
:101150000C0F40F044811B68980703D5AB69002B46
:1011600000F0CA81A44B2C6A1A68A34E110756BF1F
:10117000D3F894301B681B0903F0F003A34280F0FE
:101180008B81B36DDA0040F13E82FFF751FFB0F57D
:10119000007F00F08382802C00F2628200F0CA821D
:1011A000A4F17004B4FA84F46409944A136823F037
:1011B000070323431360136803F007039C4240F0C6
:1011C0009B818D4B1A6842F008021A6019682A6ADE
:1011D00021F0F0010A431A605A68E96922F47F425B
:1011E00042EA01225A60FFF72BFF834B84499B6838
:1011F000844AC3F30313CB5C20FA03F30F2013607C
:10120000FFF746F92B68D9072FD57B498A6802F08A
:101210000C02082A00F08C818A6802F00C020C2A69
:1012200000F080816B68B3F5803F00F08B81B3F5EF
:10123000A02F00F00882704C226822F480322260D5
:10124000226822F480222260002B40F08081FFF788
:1012500049F9064605E0FFF745F9801B642800F2CE
:10126000AA8123689F03F6D42B689E072BD5624979
:101270008A6802F00C02042A00F07D818A6802F07C
:101280000C020C2A00F07181EB685B4C002B00F023
:101290003781236843F480732360FFF723F9064600
:1012A00005E0FFF71FF9801B022800F28481236804
:1012B000514A5805F5D55368296923F0F85343EA94
:1012C000016353602B681A0719D56B694A4C002BD0
:1012D00000F0CD80D4F8943043F00103C4F894308A
:1012E000FFF700F9064605E0FFF7FCF8801B02282F
:1012F00000F26181D4F894309B07F5D52B685E0726
:101300003ED53D4B9A6DD40000F159819A6D42F063
:1013100080529A659B6D03F080530193019B0126D7
:10132000394C2368D80540F13681AB68012B00F0B9
:10133000A681052B00F045812F4CD4F8902022F097
:101340000102C4F89020D4F8902022F00402C4F8DE
:101350009020002B40F04281FFF7C4F841F288371B
:10136000804606E0FFF7BEF8C8EB0000B84200F286
:101370002281D4F890309B07F4D4002E40F079817C
:10138000AA6A42B31C4B996801F00C010C2900F0C9
:10139000B380022A1A6822F080721A6000F08581F8
:1013A0001A68110103D41A68920040F15D81124C51
:1013B000E36823F0887323F48033E360FFF792F847
:1013C000054605E0FFF78EF8401B022800F2F38087
:1013D00023689B01F6D4002004B0BDE8F081826947
:1013E000002A30D01A6842F001021A601C46FFF74A
:1013F00079F8064610E000BF0010024000200240CD
:10140000F86F00080400002000700040FFF76AF841
:10141000801B022800F2CF802368A64A9F07F5D5DB
:10142000136843F00803136011682B6A21F0F00180
:101430000B4313605368E96923F47F4343EA0123B4
:1014400053602B68DFE61A6822F001021A601C461E
:10145000FFF748F8064605E0FFF744F8801B02282E
:1014600000F2A98023689807F6D42B68CBE6D4F85D
:10147000943023F00103C4F89430FFF733F80646A4
:1014800005E0FFF72FF8801B022800F29480D4F8C3
:1014900094309F07F5D431E7336843F00803336095
:1014A000336823F0F003234333607368EA6923F45D
:1014B0007F4343EA02237360B36DDB0040F1B380E6
:1014C000FFF7B6FDB0F5007F00F0E180802C00F260
:1014D000C98000F03181A4F17004B4FA84F4640985
:1014E000754A136823F0070323431360136803F05E
:1014F00007039C423FF477AE012004B0BDE8F081C1
:10150000236823F480732360FEF7ECFF064604E0B3
:10151000FEF7E8FF801B02284DD823685905F7D451
:101520002B68D0E6CA6802F00302032A7FF47AAE81
:10153000604A126892037FF598AE6A68002A7FF4C9
:1015400094AED9E75B4A136843F480331360FEF727
:10155000C9FF584C064604E0FEF7C4FF801B642810
:1015600029D823689B03F7D57EE6CA6802F00302F8
:10157000022A7FF489AE4F4A1268540502D5EA6800
:10158000002AB9D04B4928694A6822F0F85242EA49
:1015900000624A6097E6236843F480732360FEF795
:1015A000A1FF07462368D9053FF5BFAEFEF79AFFB6
:1015B000C01B0228F6D9032004B0BDE8F081002644
:1015C000AEE63C4BD3F8902042F00402C3F89020E2
:1015D000D3F8902042F00102C3F89020FEF782FF7A
:1015E000344C804641F2883705E0FEF77BFFC8EBBC
:1015F0000000B842DFD8D4F890309A07F5D5002E15
:101600003FF4BEAE35E0B36D43F08053B365B36DC8
:1016100003F080530293029BFFF70AFDB36D23F0A2
:101620008053B365B3E5B36D43F08053B365B36DD9
:1016300003F080530393039BFFF7FAFCB36D23F091
:101640008053B3653EE703F18043A3F53C331A684A
:1016500042F480221A601A6842F480321A6076E7F7
:101660000324A2E503243BE7DA6822F00302DA60F0
:101670009DE6104A936D23F08053936580E60D4AF2
:10168000D2F8903043F00103C2F89030A6E7802CE6
:101690004CD9A12C34BF0124022421E7802C47D946
:1016A000A12C34BF012402247FE51C46FEF71AFF5B
:1016B000064609E00010024000200240FEF712FF3B
:1016C000801B02283FF677AF23681C4A9F01F5D4A0
:1016D00005F12C03C8CBAC6BE86B296C43EA0723FC
:1016E000751E43EA05132409400843EA44430138C0
:1016F000490843EA4053013943EA4163D360136820
:1017000043F080731360D36843F08073D360144652
:10171000FEF7E8FE054605E0FEF7E4FE401B022862
:101720003FF649AF23689801F6D554E60024D7E682
:1017300000243AE5022438E50224D1E600100240F4
:10174000564A136803F007038B422DE9F0410CD28F
:10175000136823F007030B431360136803F00703B8
:10176000994202D00120BDE8F08103680C46D907F8
:1017700005463DD4990706D54948AA68816821F0F5
:10178000F0010A43826045490A6802F00702944268
:1017900009D20A6822F0070222430A600A6802F0AE
:1017A00007029442DED15A0706D53D48EA688168AF
:1017B00021F4E0610A4382601B0707D5384A296992
:1017C000936823F4605343EAC1039360FFF738FC46
:1017D000334B34499B68344AC3F30313CB5C20FA80
:1017E00003F30F201360FEF753FE0020BDE8F081E5
:1017F00043682B4A032B126849D0022B41D0002B9F
:1018000048D19607AED5264EB26822F003021343A4
:10181000B360FEF767FE6B68032B074641F288381A
:1018200013D0022B27D0DBB904E0FEF75BFEC01B10
:10183000404529D8B36813F00C0FF6D12B6899E70F
:10184000FEF750FEC01B40451ED8B36803F00C03E2
:101850000C2BF5D1F2E7FEF745FEC01B404513D82F
:10186000B36803F00C03042BF5D1E7E7FEF73AFE6B
:10187000C01B404508D8B36803F00C03082BF5D112
:10188000DCE79703BFD46DE70320BDE8F081920148
:10189000B9D467E750057FF565AFB4E70020024093
:1018A00000100240F86F0008040000201149124B9C
:1018B000D1F8882042F4700210B4C1F888201A6868
:1018C000002042F001021A6098601A6822F0A852C3
:1018D00022F410224FF480541A60DC601A684FF032
:1018E000006422F480221A6098618C605DF8044BD9
:1018F000704700BF00ED00E000100240F0B52A4C38
:1019000089B02046FFF790FB38B12748FFF78CFBE2
:10191000203818BF012009B0F0BD244D244B2360AE
:10192000EB6C244A626043F00203EB64EB6C03F05F
:1019300002030193332201234FF440710646A26053
:10194000E3600222042303911B48DDF804E00692C1
:1019500003A91227079305960497FEF747FEAB6D80
:1019600043F40013AB65AB6D03F400130293029BC9
:10197000AB6B43F40013AB63AB6B23F40013AB63AB
:10198000324631461F20FEF7D3FD1F20FEF708FE2A
:10199000324631462020FEF7CBFD2020FEF700FE28
:1019A0002046FFF7D7F8B0E78C0200200010024075
:1019B000005400403A14D11000040048F0B52A4CFD
:1019C00089B02046FFF730FB38B12748FFF72CFBE2
:1019D000203818BF012009B0F0BD244D244B2360EE
:1019E000EB6C244A626043F00203EB64EB6C03F09F
:1019F00002030193332201234FF440710646A26093
:101A0000E3600222042303911B48DDF804E0069200
:101A100003A91227079305960497FEF7E7FDAB6D20
:101A200043F40013AB65AB6D03F400130293029B08
:101A3000AB6B43F40013AB63AB6B23F40013AB63EA
:101A4000324631461F20FEF773FD1F20FEF7A8FD2A
:101A5000324631462020FEF76BFD2020FEF7A0FD28
:101A60002046FFF777F8B0E78C0200200010024014
:101A7000005400403A14D110000400480020704780
:101A8000F0B51D4D1D4EEB6C43F00103EB64EB6CA8
:101A90008DB003F0010300240227009302A9102354
:101AA0004FF090400293009A039605970494FEF736
:101AB0009DFD224621460A20FEF73AFD0A20FEF748
:101AC0006FFDEB6C0E483B43EB64EB6C08963B40C0
:101AD000019307A901230793019A0A970994FEF736
:101AE00085FD224621460620FEF722FD0620FEF750
:101AF00057FD20460DB0F0BD00100240000011104F
:101B0000000400482DE9F0470F460178B12984B060
:101B1000054690461E461BD012D83D2913D04FF4DF
:101B20008053A9781C4802930196CDF800803A466C
:101B30000123FFF781F830BB002004B0BDE8F08737
:101B4000BC390129EBD8012E88BF47F08007E6E7B2
:101B5000002BF1D000244FF4805A4FF0010901E02E
:101B6000B442E9D008EB04033A19A9780A48009373
:101B7000CDF808A0CDF80490D2B20123FFF75CF8AD
:101B800001340028ECD00448FFF73CF8FFF7B6FE1C
:101B9000012004B0BDE8F0878C0200202DE9F04759
:101BA0000F460178B12984B0054690461E461BD0E9
:101BB00012D83D2913D04FF48053A9781C480293C2
:101BC0000196CDF800803A460123FFF729F930BB92
:101BD000002004B0BDE8F087BC390129EBD8012E04
:101BE00088BF47F08007E6E7002BF1D000244FF4D0
:101BF000805A4FF0010901E0B442E9D008EB040338
:101C00003A19A9780A480093CDF808A0CDF80490B5
:101C1000D2B20123FFF704F901340028ECD00448C4
:101C2000FEF7F0FFFFF76AFE012004B0BDE8F08781
:101C30008C020020F8B500260F460E6005466B4C5E
:101C4000002800F08C800128637E2AD1012B00F04F
:101C50008480FFF7B3FE01287FD06923D420237549
:101C6000A07504F1380304F1300E6149614A6675CC
:101C700004F1140025766676A676E5762162236364
:101C80006663C4F81CE062623860236A1B68002B3C
:101C900000F09E809847012858D0FFF7F1FE002001
:101CA000F8BD012B2AD0FFF789FE012826D0692133
:101CB000D42201232175A27504F1300E4C4D4D49FB
:101CC000237604F1380204F11400E3766675667633
:101CD000A67625626663C4F81CE061622263386000
:101CE000236A1B68002B7AD098470128D5D13B681E
:101CF0001E605E609E60DE601E613E6063793B4DEB
:101D0000012B2AD0FFF75AFE012826D06821D622BF
:101D1000012300262970AA70EB7105F1280005F156
:101D20003C033549354A6E702E716E71AE71E960B3
:101D3000AB622E61EE62A8602A643D60EB681B68AE
:101D4000002B3DD02846984701282DD13B681E60C6
:101D50005E609E60DE601E613E600120F8BD6379BA
:101D6000012BFAD0FFF72AFE0128F6D06822D623ED
:101D70002270A370012604F13C0304F128001E49DF
:101D80001E4A657025716571A571E671E160A362F7
:101D90002561E562A06022643C60E3681B687BB15A
:101DA00020469847B04203D0FFF768FE0020F8BDF8
:101DB0003B681D605D609D60DD601D613D60CCE73E
:101DC000002323606360A360E36023613B60C4E79A
:101DD000636143608360C36003613B60BDE763612F
:101DE00043608360C36003613B6087E7D8020020E3
:101DF0000401002090010020640000202003002046
:101E000060B108B5C3689B6833B19847A0F1010081
:101E1000B0FA80F0400908BD012008BD01207047DC
:101E200020B1026912B10378692B01D001207047FB
:101E3000936C002BFAD0184720B1026912B10378D5
:101E4000692B01D001207047D36C002BFAD01847C2
:101E500020B1026912B10378692B01D001207047CB
:101E6000536D002BFAD0184720B1026912B10378E4
:101E7000692B01D001207047936D002BFAD01847D1
:101E800088B102697AB110B411B10378692B03D01B
:101E900001205DF8044B7047D2F89430002BF7D046
:101EA0005DF8044B18470120704700BF10B586B09D
:101EB00000230293019303930493059360B903F104
:101EC000804303F50433DA6C42F00102DA64DB6C20
:101ED00003F001030093009B064B012253F82000FE
:101EE0000292022301A9202401940493FEF77EFBB1
:101EF00006B010BD08000020034B012253F820005B
:101F00002021FEF793BC00BF08000020034B0022F5
:101F100053F820002021FEF789BC00BF08000020F4
:101F200000B587B0002302930193039304930593B4
:101F300060B903F1804303F50433DA6C42F0040224
:101F4000DA64DB6C03F004030093009B21B10129E8
:101F500011D007B05DF804FB134B03EB80004FF486
:101F60000052022301A9406801920493FEF73EFB50
:101F700007B05DF804FB0C4B0C4A029203EB8000A7
:101F800001A902234FF40052406804930192FEF726
:101F90002DFB00220F212820FEF7CAFA2820FEF789
:101FA000FFFA07B05DF804FB0800002000002110D4
:101FB00008B5044B03EB80004FF400514068FEF776
:101FC0002FFC08BD0800002008B5FFF79BFDB0FA04
:101FD00080F0400908BD00BF08B5FFF7DFFDB0FA8B
:101FE00080F0400908BD00BF08B50A4601230F2153
:101FF000FFF7D4FDB0FA80F0400908BD30B583B0DA
:102000000C460DF10702012310210546FFF7C6FD1E
:1020100010B1002003B030BD9DF8073023F0180345
:102020001C430DF107022846012310218DF80740BB
:10203000FFF768FDB0FA80F0400903B030BD00BF83
:1020400010B50A460C4601231021FFF7A7FD08B181
:10205000002010BD237803F018032370012010BD69
:1020600030B583B00C460DF107020123102105465F
:10207000FFF794FD10B1002003B030BD9DF807308C
:1020800003F01F031C430DF1070228460123102112
:102090008DF80740FFF736FDB0FA80F0400903B035
:1020A00030BD00BF10B50A460C4601231021FFF7D2
:1020B00075FD08B1002010BD237823F01F032370A5
:1020C000012010BD30B583B00C460DF1070201238D
:1020D00020210546FFF762FD10B1002003B030BD9E
:1020E0009DF8073023F018031C430DF10702284622
:1020F000012320218DF80740FFF704FDB0FA80F09E
:10210000400903B030BD00BF10B50A460C4601239C
:102110002021FFF743FD08B1002010BD237803F014
:1021200018032370012010BD30B583B00C460DF1AB
:102130000702012320210546FFF730FD10B10020E2
:1021400003B030BD9DF8073003F01F031C430DF1B1
:1021500007022846012320218DF80740FFF7D2FC13
:10216000B0FA80F0400903B030BD00BF10B50A4698
:102170000C4601232021FFF711FD08B1002010BDFE
:10218000237823F01F032370012010BD30B583B0E6
:102190000C460DF10702012322210546FFF7FEFC44
:1021A00010B1002003B030BD9DF8073023F040038C
:1021B0001C430DF107022846012322218DF8074018
:1021C000FFF7A0FCB0FA80F0400903B030BD00BFBB
:1021D0002DE9F04180460F4603260024A51CEDB2F0
:1021E00004F118013A19C9B201234046FFF7D6FCA1
:1021F0000134E4B248B9A542F2D1731E13F0FF06D0
:102200002C46EBD10120BDE8F0810020BDE8F08133
:102210002DE9F04180460F4603260024A51CEDB2AF
:1022200004F128013A19C9B201234046FFF7B6FC70
:102230000134E4B248B9A542F2D1731E13F0FF068F
:102240002C46EBD10120BDE8F0810020BDE8F081F3
:1022500010B50A460C4601232721FFF79FFC08B161
:10226000002010BD237803F001032370012010BD6E
:1022700010B50A460C4601232721FFF78FFC08B151
:10228000002010BD237803F002032370012010BD4D
:1022900030B583B00C460DF1070201231E2105461F
:1022A000FFF77CFC10B1002003B030BD9DF8073073
:1022B00023F008031C430DF10702284601231E21C9
:1022C0008DF80740FFF71EFCB0FA80F0400903B01C
:1022D00030BD00BF10B50A460C4601231E21FFF792
:1022E0005DFC08B1002010BD237803F008032370C3
:1022F000012010BD30B583B00C460DF1070201235B
:102300001E210546FFF74AFC10B1002003B030BD86
:102310009DF8073023F010031C430DF107022846F7
:1023200001231E218DF80740FFF7ECFBB0FA80F087
:10233000400903B030BD00BF10B50A460C4601236A
:102340001E21FFF72BFC08B1002010BD237803F0FD
:1023500010032370012010BD30B583B00C460DF181
:10236000070201231E210546FFF718FC10B10020CB
:1023700003B030BD9DF8073023F020031C430DF15E
:102380000702284601231E218DF80740FFF7BAFBFC
:10239000B0FA80F0400903B030BD00BF10B50A4666
:1023A0000C4601231E21FFF7F9FB08B1002010BDE8
:1023B000237803F020032370012010BD30B583B0D3
:1023C0000C460DF1070201231F210546FFF7E6FB2E
:1023D00010B1002003B030BD9DF8073023F0080392
:1023E0001C430DF10702284601231F218DF80740E9
:1023F000FFF788FBB0FA80F0400903B030BD00BFA2
:1024000010B50A460C4601231F21FFF7C7FB08B190
:10241000002010BD237803F008032370012010BDB5
:1024200030B583B00C460DF1070201231F2105468C
:10243000FFF7B4FB10B1002003B030BD9DF80730AA
:1024400023F010031C430DF10702284601231F212E
:102450008DF80740FFF756FBB0FA80F0400903B053
:1024600030BD00BF10B50A460C4601231F21FFF7FF
:1024700095FB08B1002010BD237803F010032370F2
:10248000012010BD30B583B00C460DF107020123C9
:102490001F210546FFF782FB10B1002003B030BDBD
:1024A0009DF8073023F020031C430DF10702284656
:1024B00001231F218DF80740FFF724FBB0FA80F0BD
:1024C000400903B030BD00BF10B50A460C460123D9
:1024D0001F21FFF763FB08B1002010BD237803F034
:1024E00020032370012010BD30B583B00C460DF1E0
:1024F0000702012322210546FFF750FB10B10020FF
:1025000003B030BD9DF8073023F004031C430DF1E8
:1025100007022846012322218DF80740FFF7F2FA2F
:10252000B0FA80F0400903B030BD00BF10B582B0F2
:102530000C460DF10701FFF78BFE40B19DF8070037
:1025400040B1012803D12070002002B010BD01204D
:1025500002B010BD207002B010BD00BF10B582B037
:1025600002AC012304F8012D2246FFF72DFDB0FA3D
:1025700080F0400902B010BD08B50123FFF72CFD23
:10258000B0FA80F0400908BD30B583B00D460DF1BA
:1025900005010446FFF734FF10B9012003B030BD38
:1025A0000DF106012046FFF75DFF0028F5D020461B
:1025B0000DF10701FFF788FF0028EED09DF8051008
:1025C0009DF806209DF80730A1F10801A2F1100244
:1025D000A3F12003B1FA81F1B2FA82F2B3FA83F3E4
:1025E000490952095B0929706A70AB700020D5E770
:1025F000F0EE007AB4EEE70AF1EE10FA08B50DD964
:10260000F1EE007AB4EEE70AF1EE10FA0DD81021DF
:10261000FFF758FDB0FA80F0400908BD0021FFF730
:1026200051FDB0FA80F0400908BDF2EE007AB4EE38
:10263000E70AF1EE10FA94BF18210821FFF742FDD6
:10264000B0FA80F0400908BD022908B50BD0042972
:1026500002D011B1012008BD1821FFF733FDB0FAF7
:1026600080F0400908BD1021FFF72CFDB0FA80F082
:10267000400908BD10B582B00C460DF10701FFF707
:1026800043FD90B19DF80730182B29D8DFE803F0FF
:1026900016282828282828281C28282828282828D8
:1026A00022282828282828281000012002B010BD40
:1026B0004FF082430020236002B010BD4FF08043F2
:1026C0000020236002B010BD4FF083430020236040
:1026D00002B010BD4FF081430020236002B010BD56
:1026E000024B2360012002B010BD00BF000080BF7C
:1026F00010B582B00C460DF10701FFF705FD90B152
:102700009DF80730182B25D8DFE803F01524242482
:10271000242424241A242424242424241F24242488
:10272000242424241000012002B010BD0C4B23608F
:10273000002002B010BD0B4B2360002002B010BD82
:10274000094B2360002002B010BD084B236000201D
:1027500002B010BD064B2360012002B010BD00BFC7
:1027600023DB793E23DB793D5A643B3F23DBF93D94
:10277000000080BF08B5FFF737FCB0FA80F04009D1
:1027800008BD00BF10B582B00C460DF10701FFF780
:102790006FFD48B19DF8070048B1022804D101231C
:1027A0000020237002B010BD012002B010BD2070C7
:1027B00002B010BD30B583B00D460DF105010446E1
:1027C000FFF788FD10B9012003B030BD0DF10601FF
:1027D0002046FFF7B1FD0028F5D020460DF1070196
:1027E000FFF7DCFD0028EED09DF805109DF80620CF
:1027F0009DF80730A1F10801A2F11002A3F1200316
:10280000B1FA81F1B2FA82F2B3FA83F349095209BB
:102810005B0929706A70AB700020D5E7DFED0E7A96
:10282000B4EEE70AF1EE10FA08B50ED9DFED0B7A37
:10283000B4EEE70AF1EE10FA94BF08211821FFF771
:10284000DDFBB0FA80F0400908BD0021FFF7D6FBA0
:10285000B0FA80F0400908BD000075430000FA435B
:10286000022908B50BD0042902D011B1012008BDFE
:102870001821FFF7C3FBB0FA80F0400908BD08211A
:10288000FFF7BCFBB0FA80F0400908BD10B582B07C
:102890000C460DF10701FFF7D3FB58B19DF8070077
:1028A00008280AD0182811D060B10B4B23600120F2
:1028B00002B010BD012002B010BD084B2360002003
:1028C00002B010BD064B236002B010BD054B236063
:1028D000002002B010BD00BF000080BF0000FA431E
:1028E000000075430000FA4410B582B00C460DF1AB
:1028F0000701FFF7A5FB58B19DF8070008280AD08B
:10290000182811D060B10B4B2360012002B010BD1C
:10291000012002B010BD084B2360002002B010BDA2
:10292000064B236002B010BD054B2360002002B0AF
:1029300010BD00BF000080BF00008C4100000C41B2
:1029400000008C4210B582B00C460DF10701FFF774
:10295000A9FBB8B19DF8070060281ED009D9A028AE
:1029600013D0C02825D080281FD0144B236001200D
:1029700009E020280DD0402813D00028F5D10023ED
:10298000236000E0012002B010BD0D4B2360002049
:10299000F9E70C4B23600020F5E70B4B2360002088
:1029A000F1E70A4B23600020EDE7094B236000208C
:1029B000E9E7084B23600020E5E700BF000080BF87
:1029C0000000EE43000070410000EE420000704243
:1029D00000006E4300006E4438B50B78012B0C46A6
:1029E0000CBF082100210546FFF7E8FCA0B1637881
:1029F000012B0CBF102100212846FFF711FD58B113
:102A0000A378012B28460CBF20210021FFF73AFDB7
:102A1000B0FA80F0400938BD012038BD08B583798F
:102A2000012B2CD0F2EE047A8368B4EEE70AF1EEC3
:102A300010FA1B681FD9DFED2B7AB4EEE70AF1EE2E
:102A400010FA18D9DFED287AB4EEE70AF1EE10FAA1
:102A500011D9DFED267AB4EEE70AF1EE10FA0AD9C1
:102A6000DFED237A9FED237AB4EEE70AF1EE10FA58
:102A700088BFF0EE477AC3ED007A002008BDF2EE81
:102A8000047AB4EEE70AF1EE10FA1ED9DFED157AFA
:102A9000B4EEE70AF1EE10FA1ED9DFED137AB4EEC8
:102AA000E70AF1EE10FA19D9DFED107AB4EEE70A71
:102AB000F1EE10FA14D9DFED0E7AB4EEE70AF1EE7A
:102AC00010FA94BFA021C02100E02021FFF72CFBC9
:102AD000B0FA80F0400908BD4021F7E76021F5E732
:102AE0008021F3E7000048420000EE4200006E4300
:102AF0000000EE4300006E4408B58379012B14D02A
:102B000083681B6804291CD8DFE801F0070703036A
:102B10000B000F4A1A60002008BD0E4A1A60002000
:102B200008BD0D4A1A60002008BD042909D8DFE855
:102B300001F00A0A03030C004021FFF7F5FA002810
:102B4000E9D1012008BD2021F7E76021F5E700BFAA
:102B500000004842000020410000EE4238B50B78EA
:102B6000012B0C460CBF082100210546FFF790FB06
:102B7000A0B16378012B0CBF102100212846FFF77C
:102B8000B9FB58B1A378012B28460CBF20210021A6
:102B9000FFF7E2FBB0FA80F0400938BD012038BDF4
:102BA00008B5FFF721FAB0FA80F0400908BD00BF70
:102BB00008B50123FFF710FAB0FA80F0400908BD0C
:102BC00010B582B002AC012304F8012D2246FFF7B4
:102BD000FBF9B0FA80F0400902B010BD8379012BF7
:102BE0002BD083681B68D3ED007AB2EE047AF4EE42
:102BF000C77AF1EE10FA10B508D820210446FFF785
:102C000093FAE0B10123A371002010BD9FED147A67
:102C1000F4EEC77AF1EE10FA13D99FED127AF4EEC2
:102C2000C77AF1EE10FA0ED99FED0F7AF4EEC77A5B
:102C3000F1EE10FA09D88021E0E70020704701206A
:102C400010BD4021DAE76021D8E79FED087AF4EE65
:102C5000C77AF1EE10FA94BFA021C021CEE700BFE1
:102C6000000048420000EE4200006E430000EE43C8
:102C7000F0B583B000240D466946ADF804400094D9
:102C8000FFF7A6FAB8B19DF805009DF801709DF810
:102C900000109DF803609DF802209DF8043001EBC0
:102CA000072103EB002302EB0622204629806A80DD
:102CB000AB8003B0F0BD012003B0F0BDF0B583B030
:102CC00000240D466946ADF804400094FFF7A0FAD1
:102CD000B8B19DF805009DF801709DF800109DF8B1
:102CE00003609DF802209DF8043001EB072103EBFF
:102CF000002302EB0622204629806A80AB8003B0C5
:102D0000F0BD012003B0F0BDF0B583B000230D4647
:102D10006946ADF8043000930646FFF759FA0028DB
:102D200046D09DF805709DF801C09DF800409DF8C3
:102D300003E09DF802209DF8043004EB0C2403EB23
:102D40000723304602EB0E226946A7B296B29CB228
:102D5000FFF776F960B39DF80030082B2ED0182BC2
:102D600029D02BBB9FED176A3BB206EE903A33B2E7
:102D700007EE103A23B207EE903AF8EEE66AB8EEA4
:102D8000C77AF8EEE77A66EE866A27EE067A67EE8D
:102D9000867AFDEEE66ABDEEC77AFDEEE77A0020A0
:102DA000C5ED006A85ED017AC5ED027A03B0F0BD8C
:102DB000012003B0F0BD9FED046AD5E79FED036AE3
:102DC000D2E700BF00000C4100008C4200008C41A3
:102DD00010B582B002A9002301F8013D0446FFF7B7
:102DE00003F910B9012002B010BD23789DF8070047
:102DF000181A18BF012002B010BD00BF10B582B074
:102E000002A9002301F8013D0446FFF7EDF810B9CF
:102E1000012002B010BD23789DF80700181A18BFD2
:102E2000012002B010BD00BF83681B685B681A7880
:102E3000012A19D010B582B00C460DF10701FFF739
:102E400095F970B19DF8070060281ED010D9A02810
:102E50002BD0C02825D0802813D0164B236001200A
:102E600000E0012002B010BD5B680B6000207047DD
:102E7000202812D040280CD00028EED10023236057
:102E8000F0E70D4B23600020ECE70C4B23600020A3
:102E9000E8E70B4B23600020E4E70A4B23600020A7
:102EA000E0E7094B23600020DCE7084B23600020AB
:102EB000D8E700BF000080BF00006E430000EE4274
:102EC000000048420000204100006E440000EE4334
:102ED000F0B583B000230D466946ADF80430009389
:102EE0000646FFF795F960B39DF805709DF801C09F
:102EF0009DF800409DF803E09DF802209DF8043005
:102F000004EB0C2403EB0723304602EB0E22694648
:102F1000A7B296B29CB2FFF7F7F890B19DF80030D7
:102F2000182B0ED8DFE803F03C0D0D0D0D0D0D0D27
:102F3000390D0D0D0D0D0D0D360D0D0D0D0D0D0D6C
:102F40001000012003B0F0BD9FED176A3BB206EE02
:102F5000903A33B207EE103A23B207EE903AF8EE09
:102F6000E66AB8EEC77AF8EEE77A66EE866A27EE8A
:102F7000067A67EE867AFDEEE66ABDEEC77AFDEE6A
:102F8000E77A0020C5ED006A85ED017AC5ED027A89
:102F900003B0F0BD9FED056AD8E79FED056AD5E760
:102FA0009FED046AD2E700BF23DB793E23DBF93DC6
:102FB0005A643B3F23DB793DF0B583B002AD8268B4
:102FC0000023166805F8013D29460446FFF70CF872
:102FD00020B122789DF807309A4202D0012003B038
:102FE000F0BDA37913B3A3681F687B681A78012A20
:102FF00012D029462046FFF7B9F80028EED09DF8F8
:103000000730602B2BD018D8202B22D0402B23D078
:10301000CBB900233B6001E05B683B6000212046A8
:10302000FFF782F80028D9D00023A37100230022E3
:1030300018463260637103B0F0BDA02B06D0C02BE0
:1030400013D0802B0ED00A4B3B60C7E7094B3B6087
:10305000E4E7094B3B60E1E7084B3B60DEE7084BE8
:103060003B60DBE7074B3B60D8E7074B3B60D5E7AE
:10307000000080BF0000EE430000204100004842F5
:103080000000EE4200006E4300006E4483798BB373
:10309000836830B51D686B681A78012A83B00446CE
:1030A00011D00DF10701FFF761F800B39DF807306B
:1030B000602B30D013D8202B2AD0402B1FD0A3B99F
:1030C00000232B6001E05B682B6000212046FFF7A6
:1030D0002BF860B100231846A37103B030BDA02BBC
:1030E00010D0C02B08D0802B0FD00C4B2B600120B0
:1030F00003B030BD18467047094B2B60E5E7094B1C
:103100002B60E2E7084B2B60DFE7084B2B60DCE726
:10311000074B2B60D9E7074B2B60D6E7000080BF39
:1031200000006E44000048420000EE4300006E4381
:10313000000020410000EE4283790BB91846704729
:1031400030B5836883B00DF1070104461D68FEF7B2
:10315000A9FF60B19DF80730602B32D00AD9A02BAF
:1031600026D0C02B1ED0802B25D0174B2B600120E2
:1031700003B030BD202B21D0402B16D0002BF4D132
:1031800000232B6000212046FEF76AFF0028EED0C6
:103190006A68002313706A68002118465160A371A1
:1031A00003B030BD094B2B60ECE7094B2B60E9E71E
:1031B000084B2B60E6E7084B2B60E3E7074B2B60DF
:1031C000E0E7074B2B60DDE7000080BF00006E44A6
:1031D000000070420000EE4300006E4300007041AA
:1031E0000000EE4230B583B002A9002401F8014D81
:1031F0000546FEF7F9FE20B12A789DF807309A427D
:1032000002D0012003B030BD04212846FFF76CF93D
:103210000028F6D0AB68154A1B6840211A60284682
:10322000FEF7B4FF0028ECD021462846FEF77CFFCD
:103230000028E6D021462846FEF744FF0028E0D0CB
:1032400008212846FFF7BAF80028DAD010212846CE
:10325000FFF7E6F80028D4D020212846FFF712F91E
:103260000028CED0012320466B71CBE70000EE4250
:1032700030B583B002A9002401F8014D0546FEF7E0
:10328000B3FE20B12A789DF807309A4202D001207F
:1032900003B030BD04212846FFF726F90028F6D0F8
:1032A000AA68164B12685068136040214360284694
:1032B000FEF76CFF0028EAD021462846FEF7D0FE34
:1032C0000028E4D018212846FEF798FE0028DED01A
:1032D00008212846FEF7DCFF0028D8D01021284618
:1032E000FFF708F80028D2D020212846FFF734F84D
:1032F0000028CCD0012320466B71C9E70000EE42C4
:1033000070B582B002AD82680023166805F8013DF1
:1033100029460446FEF768FE10B9012002B070BDD0
:1033200022789DF807309A42F7D1A37933B9002368
:10333000002218463260637102B070BDA36829464E
:1033400020461D68FEF7AEFE0028E6D09DF8073047
:10335000602B27D014D8202B1ED0402B1FD0ABB908
:1033600000232B6000212046FEF77AFE0028D4D0EF
:103370006A68002313706A6800215160A371D6E760
:10338000A02B06D0C02B13D0802B0ED00A4B2B6065
:10339000C3E70A4B2B60E5E7094B2B60E2E7094BDB
:1033A0002B60DFE7084B2B60DCE7084B2B60D9E78D
:1033B000074B2B60D6E700BF000080BF0000EE4344
:1033C00000007041000070420000EE4200006E43B9
:1033D00000006E448379012B2BD0836870B51D6883
:1033E000D5ED007AB2EE0E7AF4EEC77AF1EE10FA6D
:1033F00082B007D820210446FEF732FED8B901205A
:1034000002B070BD9FED2E7AF4EEC77AF1EE10FA9D
:103410002CD99FED2C7AF4EEC77AF1EE10FA27D969
:103420009FED297AF4EEC77AF1EE10FA2BD88021BD
:10343000E1E7002070470DF1070120466E68FEF7B6
:1034400031FE0028DBD09DF80730602B2ED011D83C
:10345000202B25D0402B26D093B9002373606A68B7
:10346000012300201370A37102B070BD4021C2E798
:103470006021C0E7A02B10D0C02B1DD0802B18D00E
:10348000124B7360BBE79FED127AF4EEC77AF1EE50
:1034900010FA94BFA021C021ADE70E4B7360DEE7A8
:1034A0000D4B7360DBE70D4B7360D8E70C4B73601B
:1034B000D5E70C4B7360D2E70B4B7360CFE700BFCF
:1034C000000070420000EE4200006E43000080BF2A
:1034D0000000EE430000EE43000070410000704227
:1034E0000000EE4200006E4300006E448379012B21
:1034F00043D0F2EE0E7A8368B4EEE70AF1EE10FAEA
:103500001B6806D8C3ED007A5B68C3ED017A002022
:103510007047DFED5C7AB4EEE70AF1EE10FA40D8BE
:10352000B0EE677AF2EE0E7AB4EEE70AF1EE10FA38
:1035300083ED007A5B68E8D9DFED527AB4EEE70AF2
:10354000F1EE10FAE1D9DFED507AB4EEE70AF1EED0
:1035500010FADAD9DFED4D7AB4EEE70AF1EE10FA9F
:10356000D3D9DFED4B7A9FED4B7AB4EEE70AF1EE5B
:1035700010FA88BFF0EE477AC7E730B5F2EE0E7A60
:103580008368B4EEE70AF1EE10FA83B01D6822D822
:1035900020210446FEF764FD00283BD1012003B042
:1035A00030BDDFED397AB4EEE70AF1EE10FAB7D9A3
:1035B000DFED367AB4EEE70AF1EE10FAB0D9DFEDBE
:1035C000347A9FED347AB4EEE70AF1EE10FA98BF40
:1035D000B0EE677AA6E7DFED2B7AB4EEE70AF1EEFC
:1035E00010FA2DD9DFED287AB4EEE70AF1EE10FAE1
:1035F00028D9DFED267AB4EEE70AF1EE10FA2CD9DD
:10360000DFED237AB4EEE70AF1EE10FA94BFA021C1
:10361000C021BEE720460DF107016C68FEF742FDB0
:103620000028BBD09DF80730602B18D00CD8202B79
:1036300024D0402B1FD06BB9002363600020AEE77D
:103640004021A6E76021A4E7A02B11D0C02B0CD00D
:10365000802B07D0104B6360A0E7802199E70F4BC8
:103660006360EBE70E4B6360E8E70E4B6360E5E7F2
:103670000D4B6360E2E70D4B6360DFE70C4B63606B
:10368000DCE700BF000070420000EE4200006E4325
:103690000000EE4300006E44000080BF0000EE42D8
:1036A00000006E4300006E440000EE4300007042D4
:1036B0000000704130B58379012B83B014D083684A
:1036C0001B68042931D8DFE801F00A0A030333003C
:1036D0005968294A1A604A60002003B030BD596811
:1036E000264A1A604A60F7E704291ED8DFE801F08D
:1036F0002727030325004021836804461D68FEF741
:10370000AFFC90B120460DF107016C68FEF7CAFCD2
:1037100058B19DF80730602B13D015D8202B1CD042
:10372000402B26D013B3164B6360012003B030BD8D
:103730005968144A1A604A60CEE76021DCE720210C
:10374000DAE7104B6360C7E7A02B0CD0C02B07D083
:10375000802BE8D10C4B6360BEE7084B6360BBE78E
:103760000A4B6360B8E70A4B6360B5E70023636008
:10377000B2E7014B6360AFE70000704200007041A8
:10378000000080BF0000EE4200006E4300006E4467
:103790000000EE4308B5FEF7B5F9B0FA80F0400935
:1037A00008BD00BF08B5FEF7F9F9B0FA80F040098E
:1037B00008BD00BF08B50A4601230F21FEF7EEF948
:1037C000B0FA80F0400908BD30B583B00C460DF169
:1037D0000702012312210546FEF7E0F910B100208F
:1037E00003B030BD9DF8073023F040031C430DF1BA
:1037F00007022846012312218DF80740FEF782F9BF
:10380000B0FA80F0400903B030BD00BF30B583B0DE
:103810000C460DF10702012310210546FEF7BEF903
:1038200010B1002003B030BD9DF8073023F00C0329
:103830001C430DF107022846012310218DF8074093
:10384000FEF760F9B0FA80F0400903B030BD00BF68
:1038500010B50A460C4601231021FEF79FF908B166
:10386000002010BD237803F00C032370012010BD4D
:103870002DE9F04180460F4603260024A51CEDB239
:1038800004F128013A19C9B201234046FEF786F92E
:103890000134E4B248B9A542F2D1731E13F0FF0619
:1038A0002C46EBD10120BDE8F0810020BDE8F0817D
:1038B00030B583B00C460DF10702012310210546F7
:1038C000FEF76CF910B1002003B030BD9DF8073051
:1038D00003F00F031C430DF10702284601231021BA
:1038E0008DF80740FEF70EF9B0FA80F0400903B0FA
:1038F00030BD00BF10B50A460C4601231021FEF76B
:103900004DF908B1002010BD237823F00F03237078
:10391000012010BD30B583B00C460DF10702012324
:1039200011210546FEF73AF910B1002003B030BD71
:103930009DF8073023F00C031C430DF107022846C5
:10394000012311218DF80740FEF7DCF8B0FA80F072
:10395000400903B030BD00BF10B50A460C46012334
:103960001121FEF71BF908B1002010BD237803F0E8
:103970000C032370012010BD30B583B00C460DF14F
:103980000702012311210546FEF708F910B10020B6
:1039900003B030BD9DF8073003F00F031C430DF159
:1039A00007022846012311218DF80740FEF7AAF8E7
:1039B000B0FA80F0400903B030BD00BF10B50A4630
:1039C0000C4601231121FEF7E9F808B1002010BDD3
:1039D000237823F00F032370012010BD2DE9F0415F
:1039E00080460F4603260024A51CEDB204F12201F7
:1039F0003A19C9B201234046FEF7D0F80134E4B2C7
:103A000048B9A542F2D1731E13F0FF062C46EBD144
:103A10000120BDE8F0810020BDE8F08130B583B021
:103A20000C460DF10702012311210546FEF7B6F8F9
:103A300010B1002003B030BD9DF8073023F0020321
:103A40001C430DF107022846012311218DF8074080
:103A5000FEF758F8B0FA80F0400903B030BD00BF5F
:103A600010B50A460C4601231121FEF797F808B15C
:103A7000002010BD237803F002032370012010BD45
:103A800030B583B00C460DF107020123062105462F
:103A9000FEF784F848B901230DF1070206212846F4
:103AA0008DF80740FEF72EF810B1002003B030BDAE
:103AB00001230DF1070207212846FEF76FF80028C1
:103AC000F3D19DF80730C4F3032423F00F031C4304
:103AD0000DF107022846012307218DF80740FEF764
:103AE00011F8B0FA80F04009E0E700BF30B583B0CC
:103AF0000C460DF10702012308210546FEF74EF89A
:103B000010B1002003B030BD9DF8073023F007034B
:103B10001C430DF107022846012308218DF80740B8
:103B2000FDF7F0FFB0FA80F0400903B030BD00BFF0
:103B300030B583B00C460DF107020123082105467C
:103B4000FEF72CF810B1002003B030BD9DF807300F
:103B500023F038031C430DF10702284601230821F6
:103B60008DF80740FDF7CEFFB0FA80F0400903B0B2
:103B700030BD00BF30B583B00C460DF10702012304
:103B80000A210546FEF70AF810B1002003B030BD47
:103B90009DF8073023F007031C430DF10702284668
:103BA00001230A218DF80740FDF7ACFFB0FA80F041
:103BB000400903B030BD00BF30B583B00C460DF1F5
:103BC000070201230A210546FDF7E8FF10B1002096
:103BD00003B030BD9DF8073023F078031C430DF18E
:103BE0000702284601230A218DF80740FDF78AFFC6
:103BF000B0FA80F0400903B030BD00BF30B583B0EB
:103C00000C460DF1070201230D210546FDF7C6FF05
:103C100010B1002003B030BD9DF8073023F0200321
:103C20001C430DF10702284601230D218DF80740A2
:103C3000FDF768FFB0FA80F0400903B030BD00BF67
:103C400030B583B00C460DF1070201230D21054666
:103C5000FDF7A4FF10B1002003B030BD9DF8073080
:103C600003F07F031C430DF10702284601230D21B9
:103C70008DF80740FDF746FFB0FA80F0400903B029
:103C800030BD00BF30B583B00C460DF107020123F3
:103C900012210546FDF782FF10B1002003B030BDB0
:103CA0009DF8073023F004031C430DF1070228465A
:103CB000012312218DF80740FDF724FFB0FA80F0B0
:103CC000400903B030BD00BF30B583B00C460DF1E4
:103CD0000702012313210546FDF760FF10B1002004
:103CE00003B030BD9DF8073023F001031C430DF1F4
:103CF00007022846012313218DF80740FDF702FF34
:103D0000B0FA80F0400903B030BD00BF30B583B0D9
:103D10000C460DF10702012314210546FDF73EFF75
:103D200010B1002003B030BD9DF8073023F003032D
:103D30001C430DF107022846012314218DF807408A
:103D4000FDF7E0FEB0FA80F0400903B030BD00BFDF
:103D500030B583B00C460DF107020123142105464E
:103D6000FDF71CFF10B1002003B030BD9DF80730F7
:103D700023F00C031C430DF10702284601231421F4
:103D80008DF80740FDF7BEFEB0FA80F0400903B0A1
:103D900030BD00BF30B583B00C460DF107020123E2
:103DA00018210546FDF7FAFE10B1002003B030BD22
:103DB0009DF8073023F008031C430DF10702284645
:103DC000012318218DF80740FDF79CFEB0FA80F022
:103DD000400903B030BD00BF10B50A460C460123B0
:103DE0001821FDF7DBFE08B1002010BD237803F099
:103DF00008032370012010BD30B583B00C460DF1CF
:103E00000702012318210546FDF7C8FE10B1002066
:103E100003B030BD9DF8073023F010031C430DF1B3
:103E200007022846012318218DF80740FDF76AFE96
:103E3000B0FA80F0400903B030BD00BF10B50A46AB
:103E40000C4601231821FDF7A9FE08B1002010BD82
:103E5000237803F010032370012010BD30B583B028
:103E60000C460DF10702012318210546FDF796FEC9
:103E700010B1002003B030BD9DF8073023F02003BF
:103E80001C430DF107022846012318218DF8074035
:103E9000FDF738FEB0FA80F0400903B030BD00BF36
:103EA00010B50A460C4601231821FDF777FE08B12C
:103EB000002010BD237803F020032370012010BDE3
:103EC00030B583B00C460DF10702012319210546D8
:103ED000FDF764FE10B1002003B030BD9DF807303F
:103EE00023F002031C430DF1070228460123192188
:103EF0008DF80740FDF706FEB0FA80F0400903B0E8
:103F000030BD00BF30B583B00C460DF10702012370
:103F100019210546FDF742FE10B1002003B030BD67
:103F20009DF8073023F008031C430DF107022846D3
:103F3000012319218DF80740FDF7E4FDB0FA80F068
:103F4000400903B030BD00BF10B50A460C4601233E
:103F50001921FDF723FE08B1002010BD237803F0DE
:103F600008032370012010BD30B583B00C460DF15D
:103F70000702012319210546FDF710FE10B10020AC
:103F800003B030BD9DF8073023F010031C430DF142
:103F900007022846012319218DF80740FDF7B2FDDD
:103FA000B0FA80F0400903B030BD00BF10B50A463A
:103FB0000C4601231921FDF7F1FD08B1002010BDC9
:103FC000237803F010032370012010BD30B583B0B7
:103FD0000C460DF10702012319210546FDF7DEFD10
:103FE00010B1002003B030BD9DF8073023F020034E
:103FF0001C430DF107022846012319218DF80740C3
:10400000FDF780FDB0FA80F0400903B030BD00BF7D
:1040100010B50A460C4601231921FDF7BFFD08B172
:10402000002010BD237803F020032370012010BD71
:1040300030B583B00C460DF1070201231921054666
:10404000FDF7ACFD10B1002003B030BD9DF8073086
:1040500023F004031C430DF1070228460123192114
:104060008DF80740FDF74EFDB0FA80F0400903B02F
:1040700030BD00BF10B50A460C4601231B21FDF7D9
:104080008DFD08B1002010BD237803F008032370D4
:10409000012010BD10B50A460C4601231B21FDF777
:1040A0007DFD08B1002010BD237803F020032370AC
:1040B000012010BD10B50A460C4601231C21FDF756
:1040C0006DFD08B1002010BD237803F010032370AC
:1040D000012010BD10B50A460C4601231C21FDF736
:1040E0005DFD08B1002010BD237803F0200323708C
:1040F000012010BD10B50A460C4601231D21FDF715
:104100004DFD08B1002010BD237803F0010323709A
:10411000012010BD10B50A460C4601231D21FDF7F4
:104120003DFD08B1002010BD237803F00203237089
:10413000012010BD10B50A460C4601231D21FDF7D4
:104140002DFD08B1002010BD237803F00403237077
:10415000012010BD10B50A460C4601231D21FDF7B4
:104160001DFD08B1002010BD237803F00803237063
:10417000012010BD10B50A460C4601231D21FDF794
:104180000DFD08B1002010BD237803F0100323704B
:10419000012010BD10B50A460C4601231D21FDF774
:1041A000FDFC08B1002010BD237803F0200323702C
:1041B000012010BD10B50A460C4601231D21FDF754
:1041C000EDFC08B1002010BD237803F040032370FC
:1041D000012010BD10B50A460C4601231E21FDF733
:1041E000DDFC08B1002010BD237803F0010323702B
:1041F000012010BD10B50A460C4601231E21FDF713
:10420000CDFC08B1002010BD237803F00203237019
:10421000012010BD30B583B00D4601230DF107021A
:104220003A210446FDF7BAFC38B9204601230DF1C6
:1042300006023B21FDF7B2FC10B1002003B030BDF7
:104240009DF806309DF8072003F00F0342EA032390
:1042500001202B8003B030BD10B50A460C46012367
:104260003B21FDF79BFC08B1002010BD237803F033
:1042700010032370012010BD10B50A460C4601231F
:104280003B21FDF78BFC08B1002010BD237803F023
:1042900020032370012010BD10B50A460C460123EF
:1042A0003B21FDF77BFC08B1002010BD237803F013
:1042B00040032370012010BD30B583B00D460123AB
:1042C0000DF107023C210446FDF768FC38B9204691
:1042D00001230DF106023D21FDF760FC10B1002025
:1042E00003B030BD9DF806309DF8072003F00303AE
:1042F00042EA032301202B8003B030BD10B50A46EB
:104300000C4601235321FDF749FC08B1002010BDE4
:10431000237803F010032370012010BD10B50A4666
:104320000C4601235321FDF739FC08B1002010BDD4
:10433000237803F020032370012010BD30B583B033
:104340000C460DF10702012358210546FDF726FC16
:1043500010B1002003B030BD9DF8073023F00103F9
:104360001C430DF107022846012358218DF8074010
:10437000FDF7C8FBB0FA80F0400903B030BD00BFC4
:1043800030B583B00C460DF10702012358210546D4
:10439000FDF704FC10B1002003B030BD9DF80730DC
:1043A00023F002031C430DF1070228460123582184
:1043B0008DF80740FDF7A6FBB0FA80F0400903B086
:1043C00030BD00BF30B583B00C460DF107020123AC
:1043D00058210546FDF7E2FB10B1002003B030BDC7
:1043E0009DF8073023F004031C430DF10702284613
:1043F000012358218DF80740FDF784FBB0FA80F0C7
:10440000400903B030BD00BF30B583B00C460DF19C
:104410000702012358210546FDF7C0FB10B100201B
:1044200003B030BD9DF8073023F008031C430DF1A5
:1044300007022846012358218DF80740FDF762FB4B
:10444000B0FA80F0400903B030BD00BF30B583B092
:104450000C460DF10702012358210546FDF79EFB8E
:1044600010B1002003B030BD9DF8073023F02003C9
:104470001C430DF107022846012358218DF80740FF
:10448000FDF740FBB0FA80F0400903B030BD00BF3B
:1044900030B583B00C460DF10702012358210546C3
:1044A000FDF77CFB10B1002003B030BD9DF8073054
:1044B00023F040031C430DF1070228460123582135
:1044C0008DF80740FDF71EFBB0FA80F0400903B0FD
:1044D00030BD00BF30B583B00C460DF1070201239B
:1044E00059210546FDF75AFB10B1002003B030BD3D
:1044F0009DF8073004F01F0423F01F031C430DF147
:1045000007022846012359218DF80740FDF7FAFAE2
:10451000B0FA80F0400903B030BD00BF30B583B0C1
:104520000C460DF10702012359210546FDF736FB24
:1045300010B1002003B030BD9DF8073023F06003B8
:104540001C430DF107022846012359218DF807402D
:10455000FDF7D8FAB0FA80F0400903B030BD00BFD3
:1045600030B583B00C460DF1070201235A210546F0
:10457000FDF714FB10B1002003B030BD9DF80730EB
:1045800004F0030423F003031C430DF10702284643
:1045900001235A218DF80740FDF7B4FAB0FA80F0F4
:1045A000400903B030BD00BF30B583B00C460DF1FB
:1045B000070201235A210546FDF7F0FA10B1002049
:1045C00003B030BD9DF80720A40004F00C0322F0D6
:1045D0000C041C430DF10702284601235A218DF8D3
:1045E0000740FDF78FFAB0FA80F0400903B030BD04
:1045F00030B583B00C460DF1070201235A21054660
:10460000FDF7CCFA10B1002003B030BD9DF80730A3
:1046100003F00F0343EA04140DF1070228460123B7
:104620005A218DF80740FDF76DFAB0FA80F0400985
:1046300003B030BD30B583B00C460DF10702012345
:104640005B210546FDF7AAFA10B1002003B030BD8A
:104650009DF8073004F03F0423F03F031C430DF1A5
:104660000702284601235B218DF80740FDF74AFA2F
:10467000B0FA80F0400903B030BD00BF30B583B060
:104680000C460DF1070201235B210546FDF786FA72
:1046900010B1002003B030BD9DF8073003F07F0358
:1046A0001C430DF10702284601235B218DF80740CA
:1046B000FDF728FAB0FA80F0400903B030BD00BF22
:1046C00030B583B00C460DF1070201235C2105468D
:1046D000FDF764FA10B1002003B030BD9DF807303B
:1046E00004F00F0423F00F031C430DF107022846CA
:1046F00001235C218DF80740FDF704FAB0FA80F041
:10470000400903B030BD00BF30B583B00C460DF199
:10471000070201235C210546FDF740FA10B1002095
:1047200003B030BD9DF8073023F010031C430DF19A
:104730000702284601235C218DF80740FDF7E2F9C6
:10474000B0FA80F0400903B030BD00BF30B583B08F
:104750000C460DF1070201235C210546FDF71EFA08
:1047600010B1002003B030BD9DF80720640104F0B3
:10477000600322F060041C430DF107022846012368
:104780005C218DF80740FDF7BDF9B0FA80F04009D3
:1047900003B030BD30B583B00C460DF107020123E4
:1047A0005D210546FDF7FAF910B1002003B030BDD8
:1047B0009DF8073023F007031C430DF1070228463C
:1047C00001235D218DF80740FDF79CF9B0FA80F0D8
:1047D000400903B030BD00BF70B582B00E460DF188
:1047E000070201235D210546FDF7D8F978B99DF848
:1047F000074004F0070444EAC60401230DF1070250
:104800005D2128468DF80740FDF77CF910B10020A6
:1048100002B070BD01230DF107025C212846FDF7AF
:10482000BDF90028F3D19DF80730760903F07F0326
:1048300043EAC6160DF10702284601235C218DF8D4
:104840000760FDF75FF9B0FA80F04009E0E700BFCC
:1048500030B583B00C460DF1070201235E210546F9
:10486000FDF79CF910B1002003B030BD9DF8073072
:1048700023F002031C430DF10702284601235E21A9
:104880008DF80740FDF73EF9B0FA80F0400903B01B
:1048900030BD00BF30B583B00C460DF107020123D7
:1048A0005E210546FDF77AF910B1002003B030BD56
:1048B0009DF8073023F004031C430DF1070228463E
:1048C00001235E218DF80740FDF71CF9B0FA80F056
:1048D000400903B030BD00BF30B583B00C460DF1C8
:1048E000070201235E210546FDF758F910B10020AB
:1048F00003B030BD9DF8073023F008031C430DF1D1
:104900000702284601235E218DF80740FDF7FAF8DB
:10491000B0FA80F0400903B030BD00BF30B583B0BD
:104920000C460DF1070201235E210546FDF736F91D
:1049300010B1002003B030BD9DF8073023F0100304
:104940001C430DF10702284601235E218DF8074024
:10495000FDF7D8F8B0FA80F0400903B030BD00BFD1
:1049600030B583B00C460DF1070201235E210546E8
:10497000FDF714F910B1002003B030BD9DF80730E9
:1049800023F020031C430DF10702284601235E217A
:104990008DF80740FDF7B6F8B0FA80F0400903B093
:1049A00030BD00BF30B583B00C460DF107020123C6
:1049B0005E210546FDF7F2F810B1002003B030BDCE
:1049C0009DF8073023F040031C430DF107022846F1
:1049D00001235E218DF80740FDF794F8B0FA80F0CE
:1049E000400903B030BD00BF30B583B00C460DF1B7
:1049F000070201235F210546FDF7D0F810B1002022
:104A000003B030BD9DF8073023F002031C430DF1C5
:104A10000702284601235F218DF80740FDF772F851
:104A2000B0FA80F0400903B030BD00BF30B583B0AC
:104A30000C460DF1070201235F210546FDF7AEF894
:104A400010B1002003B030BD9DF8073023F00403FF
:104A50001C430DF10702284601235F218DF8074012
:104A6000FDF750F8B0FA80F0400903B030BD00BF48
:104A700030B583B00C460DF1070201235F210546D6
:104A8000FDF78CF810B1002003B030BD9DF8073061
:104A900023F008031C430DF10702284601235F2180
:104AA0008DF80740FDF72EF8B0FA80F0400903B00A
:104AB00030BD00BF30B583B00C460DF107020123B5
:104AC0005F210546FDF76AF810B1002003B030BD44
:104AD0009DF8073023F010031C430DF10702284610
:104AE00001235F218DF80740FDF70CF8B0FA80F044
:104AF000400903B030BD00BF30B583B00C460DF1A6
:104B0000070201235F210546FDF748F810B1002098
:104B100003B030BD9DF8073023F020031C430DF196
:104B20000702284601235F218DF80740FCF7EAFFC2
:104B3000B0FA80F0400903B030BD00BF30B583B09B
:104B40000C460DF1070201235F210546FDF726F80B
:104B500010B1002003B030BD9DF8073023F04003B2
:104B60001C430DF10702284601235F218DF8074001
:104B7000FCF7C8FFB0FA80F0400903B030BD00BFB9
:104B800038B50A460C4601233E210546FDF706F8D6
:104B900048B9621C284601233F21FCF7FFFFB0FA09
:104BA00080F0400938BD002038BD00BF38B50A4646
:104BB0000C4601234B210546FCF7F0FF48B9621C67
:104BC000284601234C21FCF7E9FFB0FA80F04009A8
:104BD00038BD002038BD00BF70B5012382B00C463F
:104BE0000DF1070219460546FCF7D8FF60B99DF89C
:104BF0000760012366F07F0619460DF1070228467B
:104C00008DF80760FCF77EFF0DF1060201230F21EE
:104C10002846FCF7C3FF9DF8063004F01F0423F07C
:104C20001F030DF106021C430F21012328468DF8B6
:104C30000640FCF767FF012319460DF107022846DD
:104C4000FCF7ACFF60B99DF80740012304F07F0436
:104C50000DF10702284619468DF80740FCF752FF70
:104C6000012002B070BD00BF08B5FEF709FFB0FA21
:104C700080F0400908BD00BF10B582B00C460DF1B0
:104C80000701FEF7E5FD60B19DF807300C2B1FD83A
:104C9000DFE803F00F1E1E1E141E1E1E191E1E1E10
:104CA0000A00012002B010BD0C4B2360002002B0AE
:104CB00010BD0B4B2360002002B010BD094B2360D8
:104CC000002002B010BD084B2360002002B010BDD0
:104CD000064B2360012002B010BD00BF23DB793EEC
:104CE00023DB793D23DBF93E23DBF93D000080BF68
:104CF00010B582B00C460DF10701FEF7A9FD60B1B9
:104D00009DF807300C2B23D8DFE803F01022222275
:104D1000162222221C2222220A00012002B010BDEB
:104D20004FF082430020236002B010BD4FF080435B
:104D30000020236002B010BD4FF0834300202360A9
:104D400002B010BD4FF081430020236002B010BDBF
:104D5000024B2360012002B010BD00BF000080BFE5
:104D600008B5FFF757FAB0FA80F0400908BD00BF58
:104D700008B5FFF705FFB0FA80F0400908BD00BF95
:104D800008B5FFF799FAB0FA80F0400908BD00BFF6
:104D900010B582B00C460DF10701FFF77DFA48B15E
:104DA0009DF8070048B1402804D10123002023705A
:104DB00002B010BD012002B010BD207002B010BDC5
:104DC00010B582B00C460DF10701FFF745FA48B166
:104DD0009DF8070048B1102804D10123002023705A
:104DE00002B010BD012002B010BD207002B010BD95
:104DF00010B582B00C460DF10701FFF73DFA48B13E
:104E00009DF8070048B1202804D101230020237019
:104E100002B010BD012002B010BD207002B010BD64
:104E2000F2EE047AB4EEE70AF1EE10FA08B50DD905
:104E3000F3EE097AB4EEE70AF1EE10FA0DD810217C
:104E4000FEF7BAFEB0FA80F0400908BD0821FEF76F
:104E5000B3FEB0FA80F0400908BDDFED227AB4EE6F
:104E6000E70AF1EE10FA2CD9DFED1F7AB4EEE70A6B
:104E7000F1EE10FA2CD9DFED1D7AB4EEE70AF1EE6F
:104E800010FA27D9DFED1A7AB4EEE70AF1EE10FA3C
:104E900022D9DFED187AB4EEE70AF1EE10FA1DD947
:104EA000DFED157AB4EEE70AF1EE10FA18D9DFED6E
:104EB000137AB4EEE70AF1EE10FA94BF48215021BC
:104EC000C5E71821FEF778FEB0FA80F0400908BD6A
:104ED0002021BCE72821BAE73021B8E73821B6E71E
:104EE0004021B4E7000048420000C84200004843A7
:104EF0000000C843000048440000C84400404E453C
:104F000030B5012383B000240C600D460DEB030285
:104F10001B218DF801408DF802408DF803408DF87B
:104F200004408DF805408DF806408DF80740044692
:104F3000FEF738FC002800F0998001230DF10202F1
:104F40001C212046FEF72EFC002800F08F80012354
:104F50000DF103021D212046FEF724FC002800F07D
:104F60008580012301AA53212046FEF71BFC00285F
:104F70007CD001230DF105025E212046FEF712FCD4
:104F8000002873D001230DF106025F212046FEF7B1
:104F900009FC00286AD0204601230DF107020D21EB
:104FA000FEF700FC002861D09DF80530DC0603D434
:104FB0009DF80620D00607D59DF80120910603D55F
:104FC0002A7842F001022A709A0603D49DF806203E
:104FD000940607D59DF80120100703D52A7842F0E2
:104FE00008022A70590603D49DF80620520607D5F8
:104FF0009DF80220940603D52A7842F002022A7016
:10500000180703D49DF80620110707D59DF8022044
:10501000D20603D52A7842F004022A705C0703D432
:105020009DF80620500707D59DF80320510603D5AB
:105030002A7842F040022A709DF90720002A18DBE6
:105040009B0706D49DF8063003F0020303F0FF002F
:105050006BB19DF8043003F0200303F0FF0033B17F
:105060002B7843F020032B70002000E0012003B0D8
:1050700030BD9DF80420D206E2D52A7842F0100215
:105080002A70DDE708B50123FEF78CFBB0FA80F04B
:10509000400908BD10B582B00C460DF10701FFF7BD
:1050A00079F848B19DF8070048B1202804D10123C0
:1050B0000020237002B010BD012002B010BD20708E
:1050C00002B010BD10B582B00C460DF10701FFF71C
:1050D00051F848B19DF8070048B1102804D10123C8
:1050E0000020237002B010BD012002B010BD20705E
:1050F00002B010BD10B582B00C460DF10701FFF7EC
:1051000029F848B19DF8070048B1082804D10123C7
:105110000020237002B010BD012002B010BD20702D
:1051200002B010BD10B582B00C460DF10701FFF7BB
:1051300001F848B19DF8070048B1042804D10123C3
:105140000020237002B010BD012002B010BD2070FD
:1051500002B010BD10B582B00C460DF10701FEF78C
:10516000D9FF48B19DF8070048B1022804D10123B6
:105170000020237002B010BD012002B010BD2070CD
:1051800002B010BD10B582B00C460DF10701FEF75C
:10519000B1FF40B19DF8070040B1012803D1207054
:1051A000002002B010BD012002B010BD207002B07E
:1051B00010BD00BF10B582B00C460DF10701FEF71F
:1051C000F9FF48B19DF8070048B1402804D10123F8
:1051D0000020237002B010BD012002B010BD20706D
:1051E00002B010BDF0EE007AB4EEE70AF1EE10FA6C
:1051F00008B50DD9F1EE007AB4EEE70AF1EE10FA37
:105200000DD80821FEF702FBB0FA80F0400908BD76
:105210000021FEF7FBFAB0FA80F0400908BDF2EE7B
:10522000007AB4EEE70AF1EE10FA94BF0C210421E3
:10523000FEF7ECFAB0FA80F0400908BD022908B583
:105240000BD0042902D011B1012008BD0C21FEF7BA
:10525000DDFAB0FA80F0400908BD0821FEF7D6FA61
:10526000B0FA80F0400908BD08B5FFF7C1F9B0FAFF
:1052700080F0400908BD00BF08B5FFF795F9B0FA06
:1052800080F0400908BD00BF08B5FFF769F9B0FA22
:1052900080F0400908BD00BF08B5FFF71BF9B0FA60
:1052A00080F0400908BD00BF10B582B00C460DF17A
:1052B0000701FEF7FFFE48B19DF8070048B110282E
:1052C00004D101230020237002B010BD012002B0E0
:1052D00010BD207002B010BD10B582B00C460DF1AB
:1052E0000701FEF7F7FE48B19DF8070048B12028F6
:1052F00004D101230020237002B010BD012002B0B0
:1053000010BD207002B010BD08B5FFF793F9B0FAD8
:1053100080F0400908BD00BF10B582B00C460DF109
:105320000701FEF7A7FE48B19DF8070048B108281D
:1053300004D101230020237002B010BD012002B06F
:1053400010BD207002B010BD10B582B00C460DF13A
:105350000701FEF7E3FF48B19DF8070048B1202898
:1053600004D101230020237002B010BD012002B03F
:1053700010BD207002B010BD08B5FFF72DFCB0FACB
:1053800080F0400908BD00BF08B50021FEF798FD78
:10539000B0FA80F0400908BD08B50221FEF790FD83
:1053A000B0FA80F0400908BD08B5FFF7FFFBB0FA7E
:1053B00080F0400908BD00BF10B582B00C460DF169
:1053C0000701FEF79BFF48B19DF8070048B1102880
:1053D00004D101230020237002B010BD012002B0CF
:1053E00010BD207002B010BD08B5FFF7D3F9B0FAB8
:1053F00080F0400908BD00BF10B582B00C460DF129
:105400000701FEF747FE48B19DF8070048B1202884
:1054100004D101230020237002B010BD012002B08E
:1054200010BD207002B010BD30B583B00D460DF137
:1054300007010446FEF714FB10B9012003B030BD8C
:1054400020460DF10601FEF787FA0028F5D09DF8F9
:105450000730022B0CD09DF806300C2B1CD8DFE84F
:1054600003F0171B1B1B131B1B1B0F1B1B1B0B0012
:105470000B4B2B600020E1E70A4B2B600020DDE79F
:10548000094B2B600020D9E7084B2B600020D5E7A3
:10549000074B2B600020D1E7064B2B60CDE700BF08
:1054A0000000FA420000FA4400007A440000FA4387
:1054B00000007543000080BF10B582B00C460DF1AE
:1054C0000701FEF787FE40B19DF8070040B10128B3
:1054D00003D12070002002B010BD012002B010BD29
:1054E000207002B010BD00BF10B582B002AC012325
:1054F00004F8012D2246FEF74DF9B0FA80F040097C
:1055000002B010BD30B583B00D460DF10501044663
:10551000FEF762FC10B9012003B030BD0DF10601A9
:105520002046FEF78BFC0028F5D020460DF1070140
:10553000FEF7B6FC0028EED09DF805109DF8062079
:105540009DF80730A1F10801A2F11002A3F1200398
:10555000B1FA81F1B2FA82F2B3FA83F3490952093E
:105560005B0929706A70AB700020D5E710B582B076
:105570000C460DF10701FEF7BDF9D0B19DF807000B
:10558000502837D00AD8202825D015D9302835D032
:10559000402828D11F4B236000200BE0802831D009
:1055A00011D990281BD0A0281DD11B4B23600020AF
:1055B00000E0012002B010BDC8B1102813D1174B74
:1055C00023600020F6E7602820D070280BD1144B10
:1055D00023600020EEE7134B23600020EAE7124B24
:1055E00023600020E6E7114B23600120E2E700235F
:1055F0002360DFE70E4B23600020DBE70D4B2360C9
:105600000020D7E70C4B23600020D3E70B4B23602F
:105610000020CFE70000D0420020D04500005041DC
:10562000004050440000D04100205045000080BFA1
:1056300000005043000050420080CF440000D0439F
:1056400008B5FEF7B7F8B0FA80F0400908BD00BF12
:1056500010B582B00C460DF10701FEF7CBFD48B145
:105660009DF8070048B1022804D1012300202370CF
:1056700002B010BD012002B010BD207002B010BDFC
:1056800030B583B00D460DF105010446FEF75CFC14
:1056900010B9012003B030BD0DF106012046FEF720
:1056A00085FC0028F5D020460DF10701FEF7B0FC7F
:1056B0000028EED09DF805109DF806209DF80730D3
:1056C000A1F10801A2F11002A3F12003B1FA81F1C6
:1056D000B2FA82F2B3FA83F3490952095B092970DD
:1056E0006A70AB700020D5E7022908B50BD00429F9
:1056F00002D011B1012008BD0C21FEF70BF9B0FA60
:1057000080F0400908BD0421FEF704F9B0FA80F0EA
:10571000400908BD10B582B00C460DF10701FEF737
:105720004DF9D0B19DF8070040282FD00AD9602844
:1057300020D019D9702831D080282BD1194B236063
:1057400000200BE010281DD00AD9202816D03028C0
:1057500020D1154B2360002000E0012002B010BDD5
:10576000C0B900232360F9E7502813D10F4B236001
:105770000020F3E70E4B23600020EFE70D4B236082
:105780000020EBE70C4B23600020E7E70B4B236086
:105790000020E3E70A4B23600120DFE7094B236089
:1057A0000020DBE70080CF4400005042000050435F
:1057B0000000D0430000D041000050410000D04222
:1057C000000080BF00405044032901D901207047E8
:1057D00008B5FEF79BFAB0FA80F0400908BD00BF9B
:1057E000012901D90120704708B5FEF7A7FDB0FADD
:1057F00080F0400908BD00BF012901D90120704790
:1058000008B5FEF761FAB0FA80F0400908BD00BFA4
:1058100008B519B1202901D0012008BDFEF7EEF925
:10582000B0FA80F0400908BD062908D808B5012360
:1058300003FA01F212F05B0F03D1184608BD0120F4
:105840007047FEF797F9B0FA80F0400908BD00BF35
:10585000072901D90120704708B5FEF747F9B0FACA
:1058600080F0400908BD00BF10B500210446FFF7D5
:1058700011F808B9012010BD00212046FFF7D6F825
:105880000028F7D020460021FEF748FEB0FA80F04D
:10589000400910BD08B58379012B18D083681B68B7
:1058A000042920D8DFE801F003030B0F0700124A98
:1058B0001A60002008BD114A1A60002008BD104A75
:1058C0001A60002008BD0F4A1A60002008BD042994
:1058D00009D8DFE801F003030C0A0E001021FDF7E0
:1058E000E7FF0028E5D1012008BD3021F7E720219E
:1058F000F5E74021F3E700BF000050410000D0422F
:105900000000D0410000504210B500210446FEF7CF
:10591000E3FF08B9012010BD00212046FFF7A8F8D9
:105920000028F7D000212046FEF7D4FD0028F1D052
:1059300000212046FEF714FE0028EBD0002120466F
:10594000FEF732FE0028E5D000212046FEF750FE8B
:105950000028DFD000212046FEF790FE0028D9D095
:1059600000212046FEF70CFD0028D3D00021204660
:10597000FEF728FD0028CDD020460021FEF744FD8B
:10598000B0FA80F0400910BD10B500210446FFF7C1
:1059900009F808B9012010BD00212046FFF7CEF814
:1059A0000028F7D000212046FEF794FD0028F1D012
:1059B00000212046FEF7D4FD0028EBD00021204630
:1059C000FEF7F2FD0028E5D000212046FEF7D8FCC6
:1059D0000028DFD000212046FEF7F4FC0028D9D0B3
:1059E00020460021FEF710FDB0FA80F0400910BDFE
:1059F00010B500210446FEF7B3FF08B9012010BD21
:105A000000212046FFF778F80028F7D00021204633
:105A1000FEF79CFE0028F1D020460021FEF70AFE8A
:105A2000B0FA80F0400910BD10B500210446FEF721
:105A30000FFF08B9012010BD00212046FEF7D4FF5A
:105A40000028F7D000212046FEF700FD0028F1D005
:105A500020460021FEF7ECFAB0FA80F0400910BDB4
:105A600010B500210446FEF7EBF808B9012010BD7F
:105A700000212046FEF70CFD0028F7D0002120462B
:105A8000FEF7D6FA0028F1D020460021FFF7A4F84F
:105A9000B0FA80F0400910BD10B500210446FEF7B1
:105AA0003DFF08B9012010BD00212046FFF702F894
:105AB0000028F7D000212046FEF78EFE0028F1D006
:105AC00020460021FEF766FEB0FA80F0400910BDC6
:105AD0000C2909D8012310B503FA01F241F211147F
