:020000040800F2
:10000000004001206D0D0008190D00081D0D0008AD
:10001000B50D0008B50D0008B50D00080000000082
:10002000000000000000000000000000B50D000806
:10003000210D000800000000B50D0008250D000886
:10004000B50D0008B50D0008B50D0008B50D000888
:10005000B50D0008B50D0008B50D0008B50D000878
:10006000B50D0008B50D0008B50D0008B50D000868
:10007000B50D0008B50D0008B50D0008B50D000858
:10008000B50D0008B50D0008B50D0008B50D000848
:10009000B50D0008B50D0008B50D0008290D0008C4
:1000A000B50D0008B50D0008B50D0008B50D000828
:1000B000B50D0008B50D0008B50D0008B50D000818
:1000C000B50D0008B50D0008B50D0008B50D000808
:1000D000B50D0008B50D0008B50D0008B50D0008F8
:1000E000310D0008B50D0008B50D0008B50D00086C
:1000F000B50D000800000000B50D0008B50D0008A2
:10010000B50D0008B50D0008B50D0008B50D0008C7
:10011000B50D0008B50D0008B50D00080000000081
:10012000B50D000800000000000000000000000005
:1001300000000000000000005FF808F1044B0548D3
:100140001B1A062B02D9044B03B11847704700BF96
:100150002B0200202802002000000000054906486C
:10016000091A891001EBD171491002D0034B03B178
:1001700018477047280200202802002000000000D5
:1001800010B5064C237843B9FFF7D8FF044B13B1E1
:100190000448AFF300800123237010BD2802002023
:1001A000000000004870000808B5084B1BB1084962
:1001B0000848AFF300800848036813B9BDE8084059
:1001C000CCE7064B002BF9D09847F7E7000000007A
:1001D0002C020020487000082802002000000000C7
:1001E000034613F8012B002AFBD1181A0138704777
:1001F00080F0004002E000BF81F0004142001FBFDC
:100200005FEA410392EA030F7FEA226C7FEA236CE4
:100210006AD04FEA1262D2EB1363C1BFD2184140D9
:1002200048404140B8BF5B42192B88BF704710F06F
:10023000004F40F4000020F07F4018BF404211F012
:10024000004F41F4000121F07F4118BF494292EA7A
:10025000030F3FD0A2F1010241FA03FC10EB0C00A6
:10026000C3F1200301FA03F100F0004302D5494233
:1002700060EB4000B0F5000F13D3B0F1807F06D3E0
:1002800040084FEA310102F10102FE2A51D2B1F1D8
:10029000004F40EBC25008BF20F0010040EA0300CD
:1002A0007047490040EB000010F4000FA2F101027A
:1002B000EDD1B0FA80FCACF1080CB2EB0C0200FA04
:1002C0000CF0AABF00EBC25052421843BCBFD04052
:1002D0001843704792F0000F81F4000106BF80F4CC
:1002E00000000132013BB5E74FEA41037FEA226C8F
:1002F00018BF7FEA236C21D092EA030F04D092F05A
:10030000000F08BF0846704790EA010F1CBF00208D
:10031000704712F07F4F04D1400028BF40F00040EA
:10032000704712F100723CBF00F50000704700F00A
:10033000004343F0FE4040F4000070477FEA226231
:1003400016BF08467FEA23630146420206BF5FEA02
:10035000412390EA010F40F4800070474FF0000302
:1003600004E000BF10F0004348BF40425FEA000CC9
:1003700008BF704743F0964301464FF000001CE071
:1003800050EA010208BF70474FF000030AE000BFC7
:1003900050EA010208BF704711F0004302D5404205
:1003A00061EB41015FEA010C02BF84460146002077
:1003B00043F0B64308BFA3F18053A3F50003BCFA92
:1003C0008CF2083AA3EBC25310DB01FA02FC63443F
:1003D00000FA02FCC2F12002BCF1004F20FA02F246
:1003E00043EB020008BF20F00100704702F1200239
:1003F00001FA02FCC2F1200250EA4C0021FA02F29A
:1004000043EB020008BF20EADC7070474FF0FF0C9E
:100410001CEAD0521EBF1CEAD15392EA0C0F93EA99
:100420000C0F6FD01A4480EA010C400218BF5FEA3B
:1004300041211ED04FF0006343EA501043EA5111AE
:10044000A0FB01310CF00040B1F5000F3EBF4900A8
:1004500041EAD3715B0040EA010062F17F02FD2AAC
:100460001DD8B3F1004F40EBC25008BF20F001008F
:10047000704790F0000F0CF0004C08BF49024CEAA6
:10048000502040EA51207F3AC2BFD2F1FF0340EA38
:10049000C250704740F400004FF00003013A5DDCA9
:1004A00012F1190FDCBF00F000407047C2F10002EA
:1004B000410021FA02F1C2F1200200FA02FC5FEAD7
:1004C000310040F1000053EA4C0308BF20EADC7021
:1004D000704792F0000F00F0004C02BF400010F493
:1004E000000F013AF9D040EA0C0093F0000F01F040
:1004F000004C02BF490011F4000F013BF9D041EA62
:100500000C018FE70CEAD15392EA0C0F18BF93EA63
:100510000C0F0AD030F0004C18BF31F0004CD8D18D
:1005200080EA010000F00040704790F0000F17BF14
:1005300090F0004F084691F0000F91F0004F14D05A
:1005400092EA0C0F01D142020FD193EA0C0F03D1B2
:100550004B0218BF084608D180EA010000F00040B5
:1005600040F0FE4040F40000704740F0FE4040F490
:10057000400070474FF0FF0C1CEAD0521EBF1CEA2F
:10058000D15392EA0C0F93EA0C0F69D0A2EB03024D
:1005900080EA010C49024FEA402037D04FF08053E7
:1005A00043EA111143EA10130CF000408B4238BFAC
:1005B0005B0042F17D024FF4000C8B4224BF5B1ABA
:1005C00040EA0C00B3EB510F24BFA3EB510340EA08
:1005D0005C00B3EB910F24BFA3EB910340EA9C00B6
:1005E000B3EBD10F24BFA3EBD10340EADC001B0126
:1005F00018BF5FEA1C1CE0D1FD2A3FF650AF8B42CA
:1006000040EBC25008BF20F0010070470CF0004CD6
:100610004CEA50207F32C2BFD2F1FF0340EAC25001
:10062000704740F400004FF00003013A37E792F0C2
:10063000000F00F0004C02BF400010F4000F013A20
:10064000F9D040EA0C0093F0000F01F0004C02BF1B
:10065000490011F4000F013BF9D041EA0C0195E784
:100660000CEAD15392EA0C0F08D142027FF47DAF1D
:1006700093EA0C0F7FF470AF084676E793EA0C0F0D
:1006800004D14B023FF44CAF08466EE730F0004C0B
:1006900018BF31F0004CCAD130F000427FF45CAF9B
:1006A00031F000437FF43CAF5FE700BF4FF0FF3C09
:1006B00006E000BF4FF0010C02E000BF4FF0010C5C
:1006C0004DF804CD4FEA40024FEA41037FEA226C25
:1006D00018BF7FEA236C11D001B052EA530C18BF47
:1006E00090EA010F58BFB2EB030088BFC81738BFAC
:1006F0006FEAE17018BF40F0010070477FEA226C9A
:1007000002D15FEA402C05D17FEA236CE4D15FEA95
:10071000412CE1D05DF8040B704700BF84460846C9
:100720006146FFE70FB5FFF7C9FF002848BF10F18A
:10073000000F0FBD4DF808EDFFF7F4FF0CBF0120CF
:1007400000205DF808FB00BF4DF808EDFFF7EAFF59
:1007500034BF012000205DF808FB00BF4DF808ED14
:10076000FFF7E0FF94BF012000205DF808FB00BF09
:100770004DF808EDFFF7D2FF94BF012000205DF88F
:1007800008FB00BF4DF808EDFFF7C8FF34BF01209C
:1007900000205DF808FB00BF4FEA4002B2F1FE4FB7
:1007A0000FD34FF09E03B3EB12620DD94FEA002333
:1007B00043F0004310F0004F23FA02F018BF40420C
:1007C00070474FF00000704712F1610F01D14202F3
:1007D00005D110F0004008BF6FF0004070474FF0A7
:1007E00000007047254B70B5DA6988B042F001020D
:1007F000DA61DA69042002F001020092009ADA69F3
:10080000002542F00102DA61DA69022402F00102F5
:100810000192019A5A6A03A942F400325A625B6A51
:10082000072603F40033039002931548029B0494B7
:1008300006940595134C079600F076FB082303A950
:100840000F480393079600F06FFB0F494FF4E13216
:100850000C232046A560E5602561A56184E80600BB
:10086000636102F087F800B1FEE7084A4FF4807335
:10087000E063A262A38508B070BD00BF00380240EB
:1008800000000240D4030020004400401404002073
:1008900030B5002395B01946342207A8029303937C
:1008A000049305930693012505F09EFF102402236F
:1008B0004FF400214FF4000207A8079310930A9504
:1008C0000B941291139201F06FF930BB1549164B3E
:1008D0000A46586A40F0805058625B6A03F08053C1
:1008E0000193019B0B6823F4C05343F400630B6036
:1008F000536813F01003FBD10F24032202A8012137
:100900000493059306930294039201F059FD10B1EC
:10091000064800F00DF815B030BD044800F008F8A6
:10092000D4E700BF0070004000380240607000084B
:1009300008B50F4A03464FF480710E4805F05CFF7E
:100940000C48FFF74DFC41F2883382B209490A484E
:1009500002F03EF8002002F035FC642000F068FA56
:10096000002002F039FC642000F062FAF2E700BFD8
:10097000B870000844020020D40300202DE9F04F95
:1009800000278BB08DF81D70ADF81E70C64C00F0BE
:100990002BFAFFF77DFF384602F0ECFB38460121C9
:1009A00002F024FCFFF71EFF384604F5807102F0C8
:1009B000B3FA012856D0D4F8000102F02BFB01282D
:1009C00050D03946D4F8000102F034FB012849D058
:1009D0000821D4F8000102F07FFB012842D0B3497E
:1009E000D4F8000102F036FB01283BD02021D4F8D6
:1009F000000102F09BFB012834D01F21D4F8000134
:100A000002F0A0FB01282DD08021D4F8000102F0D3
:100A1000A5FB012826D02546A54EBB460FCE0FC507
:100A20000FCE0FC596E8070003C5160C25F8022B5C
:100A30002E7041F288332A2221469E4801F0C8FFD9
:100A4000A2469D4D2B78042B0CD801A252F823F01E
:100A5000450A00084F0C0008150C0008AF0A0008F2
:100A60006B0A00089548FFF763FF0021D4F80001E6
:100A700002F050FB0128F5D0914F8B4E0FCF0FC6DF
:100A80000FCF0FC697E8070003C631464FF0000BA3
:100A900001F8282941F288338648282201F098FF7E
:100AA0008AF804B1ADF81EB085F800B0CAE70DF1C0
:100AB0001D01D4F8000102F0D9FA0128D2D09DF826
:100AC0001D30012BBED1002002F07CFB4FF000084E
:100AD0000AA921F8088DDAF8000102F0EBFA0128E2
:100AE000C0D0BDF820300326B3FBF6F6754A334676
:100AF0004FF480716C48ADF8206005F07DFE6A48C7
:100B0000FFF76EFB704F82B241F288336649694845
:100B1000654E01F05DFF4FF47A7000F089F90FCF58
:100B20000FC60FCF0FC697E8070003C6314641F244
:100B3000883321F828295F48292201F049FFBDF8B0
:100B40002030002B4AD0C146CDF814B004940027C1
:100B50004FF00003BB46B8460AACADF8223044F86B
:100B6000047D0326049B0DF12201D3F8000102F05D
:100B70008FFA01283FF476AF2146DAF8000102F03F
:100B8000B7FA01283FF46EAFBDF82230012B00F018
:100B90008780C0F08280022B7FF464AF099F013E02
:100BA000E0D109F101094B46484A4FF480710297A0
:100BB0008DE800093C4805F01FFE3B48FFF710FB9D
:100BC00041F2883382B238493A4801F001FFBDF85A
:100BD00020304B45BBDCDDF814B0049C3C4F324E5A
:100BE0000FCF0FC697E80F0007C626F8023B314625
:100BF0001B0C01F81E391E2241F288332D4801F0EA
:100C0000E7FE642000F014F9002002F0E5FA042366
:100C10002B7017E70DF11E01D4F8000102F04AFA1B
:100C2000012835D0BDF81E60B34509D02E2741F20A
:100C3000883301221C491F48AAF8007001F0C8FE41
:100C400094F804313BB30323B3462B70FAE6164CF9
:100C5000204E27460FCE0FC70FCE0FC70FCE0FC7A0
:100C60003668214641F28833332212483E6001F053
:100C7000AFFE4FF47A7000F0DBF80121DAF80001E2
:100C800002F048FA01283FF4EDAE02232B70D9E6BA
:100C90000BB0BDE8F08FB346D4E6DDF824807EE7E4
:100CA000DDF824B07BE700BF440200200040CE45C1
:100CB000E8710008D40300200000002074700008D0
:100CC000BC71000808710008507100089C71000890
:100CD0007C710008D4700008B0F5005F08B506D03C
:100CE00020280FD1094B012283F8042108BD0020E0
:100CF00002F0BAFA28B9064B1A7812B901221A7012
:100D000008BD08BD0348FFF713FE00BF44020020E2
:100D1000000000207C700008704700BFFEE700BFA5
:100D2000704700BF00F076B8202000F0FFB900BF88
:100D30004FF4005000F0FAB90A4A08B503461068AB
:100D400060B1694603448B4201D8136008BD05F0C9
:100D50001FFD0C2303604FF0FF3008BD0249084619
:100D60001160EEE74C03002020060020002103E084
:100D70000B4B5B58435004310A480B4B42189A42C4
:100D8000F6D30A4A02E0002342F8043B084B9A4299
:100D9000F9D301F0E9FE05F001FDFFF7EFFD704723
:100DA00054720008000000202802002028020020C1
:100DB00020060020FEE70000704700BF10B5044683
:100DC000074B08481B68A0FB0330800900F094F82B
:100DD000214600224FF0FF3000F04AF8002010BDFD
:100DE00004000020D34D621008B5094B03201A6897
:100DF00042F004021A601A6842F002021A6000F01F
:100E000025F80F20FFF7DAFFFFF7D6FF002008BD17
:100E1000003C0240024A136801331360704700BF70
:100E200014060020014B1868704700BF140600200C
:100E300010B582B00190FFF7F5FF0446FFF7F2FF0F
:100E4000019B001B9842F9D302B010BD4FF6FF0280
:100E500006490002CB6800F4E0601A4042F0BF632C
:100E600043F400330343CB60704700BF00ED00E064
:100E7000194B30B4DB68C3F30223C3F10705042D1B
:100E800003F1040428BF0425062C18D9033B0124D0
:100E90009C40013C22400124AC40013C214001FA2D
:100EA00003F3002842EA03020CDB120100F1604068
:100EB000D2B200F5614080F8002330BC70470022B8
:100EC0001346E8E7054B00F00F001201D2B20344CD
:100ED0001A7630BC704700BF00ED00E0FCEC00E08B
:100EE00000F01F010123034A40098B4042F82030E3
:100EF000704700BF00E100E00138B0F1807F0DD203
:100F000030B4074B074CF0255860002284F823507A
:100F10000721104630BC9A60196070470120704765
:100F200010E000E000ED00E0D1F800C0BCF1000FDF
:100F300000F0E0802DE9F04F884683B0DFF8D491CF
:100F4000002579E0D0F800E001F0030A0EEA030E74
:100F50000AFA07FA013E4AEA0E0E012EC0F800E036
:100F600040F29C80C668D8F808203340BA4013434A
:100F7000CF00C3605CD5604B5F4E1B6A25F0030257
:100F800043F001033362336A02F1804203F001034C
:100F9000019302F5803205F00303019E9B009768E0
:100FA0000F269E4027EA0606544FB84200F08C8078
:100FB00007F58067B84200F08980514FB84200F0D1
:100FC0008980504FB84200F089804F4FB84200F0FE
:100FD00089804E4FB84200F089804D4FB8420CBF17
:100FE0000627072707FA03F333439360E243D9F850
:100FF0000030CE034CBF23431340C9F80030D9F86A
:1010000004308F034CBF23431340C9F80430D9F890
:101010000830CE024CBF23431340C9F80830D9F83A
:101020000C30890254BF02EA03041C43C9F80C4087
:1010300001353CFA05F344D00122AA4012EA0C041F
:10104000F6D0D8F804106F0021F010060323BB403F
:10105000022E6FEA03037FF475AF4FEAD50A00EB67
:101060008A0A05F0070EDAF820B04FEA8E0E0F2636
:1010700006FA0EF62BEA060BD8F8106006FA0EF602
:1010800046EA0B06CAF82060066801F0030A06EA81
:10109000030E5646BE4046EA0E060660866806EA1D
:1010A000030ED8F80C60BE4046EA0E06866046681D
:1010B000C1F3001E26EA02067246AA40324342608D
:1010C00050E703B0BDE8F08F00238DE7012707FA52
:1010D00003F389E7022707FA03F385E7032707FAF3
:1010E00003F381E7042707FA03F37DE7052707FAEF
:1010F00003F379E7704700BF003802400000024068
:1011000000080240000C024000100240001402409F
:1011100000180240000401400369194214BF012075
:101120000020704702B9090481617047044A51697F
:10113000014200D1704708B55061FFF7CDFD08BDF1
:1011400000040140F8B504460D4616462368586968
:10115000C04310F0020026D05A69510511D51A6813
:1011600000216FF4806742F40072042620251A6083
:1011700001205F61266484F83C10216384F83D50AF
:10118000F8BD6A1CE3D045B900232022236384F80C
:101190003C3084F83D200320F8BDFFF743FE801B60
:1011A0008542D3D2F0E7F8BD2DE9F04188461646D6
:1011B0001F460546006882B0046844F480740460E9
:1011C000089C621C41D14369DB07FCD508F0FE0195
:1011D0000161631C14D043699B0714D443695A0509
:1011E0003FD4002C00F09380FFF71CFE099BC01A2F
:1011F0008442C0F08C802868EBE743695A0530D4FC
:1012000043699907F9D500230193436901938369E1
:101210000193019B621C5CD143691B0648D443695E
:101220005905F9D500236FF480640421202244611C
:10123000296485F83C302B6385F83D202B6C042B0A
:101240002FD0032002B0BDE8F0814369D907BDD497
:10125000E4B1FFF7E7FD099BC01A844216D3286862
:10126000AFE7036800226FF4806643F40073042440
:101270002021036046612C6485F83C202A6385F8B0
:101280003D102B6C042BDCD10120DBE70023202256
:101290002B6385F83C3085F83D20032085F83E30EF
:1012A000D0E72A680120136843F400731360C9E78C
:1012B000012F0AD0330A0361671C19D1436919064B
:1012C00003D443695A05ADD4F8E7F6B206610020AD
:1012D000B8E743691A06EBD443695905A2D4F4B1BF
:1012E000FFF7A0FD099BC01A844218D3286891E734
:1012F00043691B06E9D443695B0593D47CB1FFF7CE
:1013000091FD099BC01A844209D32868D4E70023C1
:1013100020222B6385F83C3085F83D20B1E72B6C0B
:10132000002243F0200320212B6485F83C202A630F
:1013300085F83D1082E700BF2DE9F043984604464A
:10134000006889460168174641F4806101600268BF
:1013500083B042F480720A9E0B9D0260711C42D1E0
:101360004369DA07FCD55FFA89F909F0FE030361E6
:10137000721C13D043699A0713D4436959053DD4AD
:10138000002E00F0A880FFF74DFD401B8642C0F004
:10139000A2802068ECE7436959052FD443699B0775
:1013A000F9D5002301934369019383690193019B5C
:1013B000711C63D143691A0647D443695B05F9D5AB
:1013C00000236FF48065042120224561216484F8A4
:1013D0003C30236384F83D20236C042B2ED0032063
:1013E00003B0BDE8F0834369DB07BCD4DEB1FFF78F
:1013F00019FD401B864216D32068AFE70368002220
:101400006FF4806643F40073042520210360466175
:10141000256484F83C20226384F83D10236C042B5F
:10142000DDD10120DCE700232022236384F83C3057
:1014300084F83D20032084F83E30D1E72268012063
:10144000136843F400731360CAE7B8F1010F0AD0C0
:101450003B0A0361731C2FD14369190603D4436906
:101460005A05ADD4F8E7FFB20761711C15D1436985
:101470001A0638D443695B05A2D4F8E74369190614
:10148000E3D443695B059BD4002E4CD0FFF7CAFC24
:10149000401B864247D320688AE743691F0622D44F
:1014A00043695F058CD4002E3DD0FFF7BBFC401B89
:1014B000864238D32068D8E743691B06D3D44369F2
:1014C0005A053FF57DAF76B3FFF7ACFC401B864273
:1014D00029D32068BEE700232022236384F83C3010
:1014E00084F83D209AE7036843F480730360711C1D
:1014F0000DD14369DA07FCD549F0010303612A469F
:1015000031462046FFF71EFE002887D168E7436971
:10151000DB07F1D4002E86D0FFF784FC401B864207
:1015200081D32068E3E7236C002243F020032021CD
:10153000236484F83C20226384F83D104CE700BF0C
:10154000704700BF002800F09080F8B590F83D305B
:10155000044603F0FF02002B74D001F055F8444B11
:1015600098426DD92368242284F83D201A684149A5
:1015700022F00102A1FB00511A605A68890C22F086
:101580003F020A435A603C4E62681D6AB24225F02F
:101590003F0539D85200B0FBF2F2013129431962FC
:1015A000D969C2F30B0521F44F41032D21F0FF014E
:1015B00098BF04220A43DA611968E669226A21F0B9
:1015C000C00132430A431A6099682769E66821F42A
:1015D00003423E4322F0FF0232439A60D9686669B3
:1015E000A26921F0FF0132430A43DA601A6800253C
:1015F000202142F001021A602846256484F83D103B
:10160000256384F83E50F8BD4FF4967606FB01F151
:101610001A4FA668A7FB0171890901312943196294
:10162000D96921F44F4121F0FF0186B902EB420252
:10163000B0FBF2F0C0F30B02AAB140F40042B9E7EC
:101640000120F8BD80F83C20FFF77AFF85E702EB28
:10165000820202EB8202B0FBF2F0C0F30B0212B185
:1016600040F44042A6E70122A4E70120704700BFF2
:101670007F841E0083DE1B43A0860100D34D6210D1
:10168000704700BFB0B110B504460268242380F84B
:101690003D30136823F001031360FFF7F1FF0023CF
:1016A000236484F83C3084F83D301846236384F882
:1016B0003E3010BD012070472DE9F047044682B04E
:1016C00099460F469046BDF82C60FFF7ABFB94F8A7
:1016D0003D30202B04D00226304602B0BDE8F08712
:1016E0000A9B03B126B90126304602B0BDE8F08757
:1016F000054605E0FFF796FB401B192800F289809C
:1017000022689369DB4313F0020AF3D094F83C306B
:10171000012BE0D013680121D80784F83C1002D4D3
:1017200013680B43136013685A4923F40063136072
:101730004FF0000A2122402384F83D2084F83E30F7
:10174000C4F840A066850A9EE162608D66620C9EC8
:10175000019500964B462085424639462046FFF7C4
:1017600023FD064600286FD12368228D4AB30C9AC8
:10177000013259D15A6912062DD45A695705F9D543
:1017800000226FF48065042020215D61206484F8CC
:101790003C20226384F83D10236C042B73D0032675
:1017A0009AE75A69520755D45A695705E8D40C9BF1
:1017B000002B5CD0FFF736FB0C9B401B834256D3BB
:1017C00023680C9A0132ECD15A69500742D45A6905
:1017D0005105D5D4F8E7606A278D421C6262017812
:1017E0007A1E1961618D92B2013989B26185596998
:1017F00022854907BAD5002AE3D0821C626241786B
:10180000BA1E1961618D92B2013989B22285618552
:10181000ACE72023C4F830A084F83CA084F83D3025
:10182000022684F83EA057E75A691006D3D45A69B5
:101830005105A5D40C9BD3B1FFF7F4FA0C9B401BC8
:10184000834214D3236892E7236C84F83CA0042BD2
:10185000A5D148E71A680021202042F400721A60DE
:1018600084F83D0084F83C1084F83E1034E7236C83
:10187000002243F020032021236484F83C202263CB
:1018800084F83D1088E722680126136843F400734A
:10189000136021E70000FFFF2DE9F047044686B002
:1018A00099460F469046BDF83C60FFF7BBFA94F8A6
:1018B0003D30202B04D00227384606B0BDE8F08723
:1018C0000E9B03B126B90127384606B0BDE8F08764
:1018D000054604E0FFF7A6FA401B192839D822680C
:1018E0009369DB4313F0020AF4D094F83C30012BE7
:1018F000E1D013680121D80784F83C1002D41368A2
:101900000B43136013689D4923F4006313604FF089
:10191000000A2222402384F83D2084F83E30C4F897
:1019200040A06685E16239460E9F608D6762109F18
:10193000019500974B46208542462046FFF7FCFC68
:10194000074688B1236C84F83CA0042BBBD0032746
:10195000B2E72023C4F830A084F83CA084F83D30DE
:10196000022784F83EA0A7E7238D2268012B00F010
:10197000F680022B00F0048105905169059192696F
:101980000592059A002B00F0E280032B65D8012B0D
:1019900000F0C280022E00F09D80109B226801336F
:1019A00038D153695807FCD51368616A23F4806302
:1019B000136013694A1C62620B70638D228D013BB8
:1019C0009BB2013A6385109B22850133226837D18F
:1019D00053695B07FCD51368616A43F400731360B5
:1019E00013694A1C62620B70638D2268013B9BB2D3
:1019F0006385616A238D1269013B481C23856062FF
:101A00000A70238D628D013B013A9BB292B223850D
:101A10006285B7E753695907C6D4109B2BB1FFF70E
:101A200001FA109B401B8342B7D20023202223637C
:101A300084F83C3084F83D20032784F83E303BE7AF
:101A400053695807C7D4109B002BEED0FFF7EAF973
:101A5000109B401B8342B8D2E7E7109B4BB924E0B0
:101A60005A69D0064CD4FFF7DDF9109B401B834226
:101A700022D323685A695206F2D5626A1B69511C47
:101A800061621370628D2168013A92B2238D628582
:101A90004A69013B9BB2520723857FF573AF636AA6
:101AA0000A69591C61621A70ABE723685A695106CA
:101AB000E3D45A69D10623D4236C20221343002196
:101AC000236484F83C1084F83D20236C202B7FF4A1
:101AD000FAAE3CE7109B0133226803D153695907E2
:101AE000FCD578E753695B073FF575AF109B002B7A
:101AF0009BD0FFF797F9109B401B8342EBD294E7F2
:101B000000226FF0100020215861226484F83C20EC
:101B1000226384F83D10D8E7109B4BB912E05A6954
:101B2000D206EDD4FFF77EF9109B401B8342C3D34E
:101B300023685A695106F2D5626A1B69511C6162B9
:101B400013705EE723685A695006B2D5F4E7202285
:101B500084F83D2084F83C3084F83E30ACE61168CF
:101B600021F480611160039051690391916903919F
:101B70000399116841F40071116003E70000FFFF51
:101B8000116821F480611160116841F400611160F5
:101B900004905169049192690492049AF2E600BF9C
:101BA00090F83D00704700BF2DE9F043036885B011
:101BB000DE0704463BD5BD498A6802F00C02082ABC
:101BC00000F0B6818A6802F00C020C2A00F0AC81A9
:101BD0006368012B00F0B982002B00F00D82052B09
:101BE000B24B1A6800F0B98322F480321A601A6886
:101BF00022F480221A60FFF715F94FF400380746E7
:101C0000AA4E012505E0FFF70DF9C01B642800F27C
:101C10006A8298FAA8F3326898FAA8F3B3FA83F3C1
:101C200003F01F0305FA03F31342ECD0236898076F
:101C300045D59E498A6802F00C02042A00F05B82B6
:101C40008A6802F00C020C2A00F05182E268012539
:101C5000002A00F0878195FAA5F3B3FA83F303F124
:101C6000845303F58E139B001D60FFF7DBF84FF0E4
:101C7000020807468D4E05E0FFF7D4F8C01B022886
:101C800000F2318298FAA8F38849326898FAA8F3EA
:101C9000B3FA83F303F01F0305FA03F31342EBD007
:101CA0004A684FF4F85393FAA3F3B3FA83F3206925
:101CB00022F4F85200FA03F313434B602368DA0668
:101CC00000F1AD801D0728D56269002A00F07081FF
:101CD000012292FAA2F1B1FA81F1754B16460B443A
:101CE0009B001A60FFF79EF84FF0020807466F4D01
:101CF00005E0FFF797F8C01B022800F2F48198FA7C
:101D0000A8F36A6B98FAA8F3B3FA83F303F01F03FE
:101D100006FA03F31342ECD02368580748D5634B07
:101D20005A6AD10000F10E825A6A4FF0010842F05F
:101D300080525A625B6A03F080530193019B5D4BB2
:101D40001A68D20540F1BE81A368012B00F0A4827D
:101D5000002B00F02582052B544B5A6B00F0948227
:101D600022F480725A635A6B22F480625A63FFF73E
:101D700059F84FF4007907464C4E012507E0FFF76C
:101D800051F841F28833C01B984200F2AC8199FAB5
:101D9000A9F3726B99FAA9F3B3FA83F303F01F0363
:101DA00005FA03F31342EAD0B8F1000F40F066825F
:101DB000636A83B33D4DAA6802F00C020C2A00F05E
:101DC000CD80022B4FF0807300F06C8293FAA3F366
:101DD000B3FA83F303F1845303F58E139B000022BF
:101DE0001A60FFF71FF84FF000740746012605E060
:101DF000FFF718F8C01B022800F2758194FAA4F3CB
:101E00002A6894FAA4F3B3FA83F303F01F0306FAE3
:101E100003F31342ECD1002005B0BDE8F083234D5D
:101E2000AB6813F00C0F47D0A2694FF48073002AFF
:101E300000F0918193FAA3F3B3FA83F303F184538F
:101E400003F58E139B0001261E60FEF7EBFF4FF497
:101E50000078074605E0FEF7E5FFC01B022800F208
:101E6000428198FAA8F311492A6898FAA8F3B3FABC
:101E700083F303F01F0306FA03F31342EBD04A681F
:101E8000236A22F4604213434B604A684FF07F4359
:101E900093FAA3F3B3FA83F3E06922F07F4200FAE6
:101EA00003F313434B6023680CE700BF0038024084
:101EB000A0C19110007000404FF4007393FAA3F298
:101EC000296893FAA3F3B3FA83F3012203F01F0303
:101ED00002FA03F30B4202D0A369002B3ED0C54B9C
:101EE000216A5A6802F46042914240F28D819A68F8
:101EF00012F0F00F40F0A4805A6AD70040F14782F8
:101F0000A3F5E4331A6802F4C052B2F5C05F40F0A2
:101F10009780B1F5404F40F09380B74A0120136895
:101F200043F0040313608CE08A68D5037FF550AE5C
:101F30004FF4003292FAA2F1AE49086892FAA2F286
:101F4000B2FA82F2012102F01F0201FA02F2024209
:101F50003FF46DAE6268002A7FF469AE012005B0DF
:101F6000BDE8F08395FAA5F3B3FA83F303F1845344
:101F700003F58E139B001A60FEF754FF4FF0020822
:101F800007469C4E05E0FEF74DFFC01B022800F2FD
:101F9000AA8098FAA8F3326898FAA8F3B3FA83F300
:101FA00003F01F0305FA03F31342ECD1236886E61E
:101FB000012595FAA5F1B1FA81F1904B4FF0020895
:101FC0000B449B001A60FEF72DFF8A4E074605E082
:101FD000FEF728FFC01B022800F2858098FAA8F3BC
:101FE000726B98FAA8F3B3FA83F303F01F0305FAB0
:101FF00003F31342ECD18FE67E4B4FF400381A689E
:102000001E4622F480321A601A68012522F48022CA
:102010001A60FEF707FF074604E0FEF703FFC01B48
:10202000642860D898FAA8F3326898FAA8F3B3FA4B
:1020300083F303F01F0305FA03F31342EDD1F5E533
:1020400000206D4A136823F00103034313601368F3
:1020500003F00103984281D166484FF07F43426804
:1020600022F4604211434160426893FAA3F3B3FA49
:1020700083F3E16922F07F4201FA03F313434360E3
:10208000216A4FF4604393FAA3F35A4AB3FA83F3F5
:102090009268F02090FAA0F0B0FA80F002F0F0021E
:1020A000574DC24021FA03F30133A95C4FF40042BB
:1020B00002FA03F3534ACB400F201360FEF77EFE73
:1020C0002368FFE51A681D4642F480721A60FEF725
:1020D000A9FE06462B68DB053FF536AEFEF7A2FEED
:1020E000801B6428F6D9032005B0BDE8F0838A6818
:1020F000D1033FF5ABAD022292FAA2F13D49086847
:1021000092FAA2F2B2FA82F2012102F01F0201FA5F
:1021100002F2024203D0E2688A427FF41FAF354DDB
:102120004FF4F852696892FAA2F2B2FA82F2206988
:1021300021F4F85100FA02F20A436A60DA067FF5E8
:10214000C1AD6CE64FF00008F9E52A4A136843F484
:10215000803313604FE593FAA3F3B3FA83F303F1EB
:10216000845303F58E139B001A60FEF75BFE4FF459
:1021700000780746012604E0FEF754FEC01B022843
:10218000B1D898FAA8F32A6898FAA8F3B3FA83F3B7
:1021900003F01F0306FA03F31342EDD1236891E520
:1021A000144B4FF400795A6B1E4622F480725A6326
:1021B0005A6B012522F480625A63FEF733FE07460C
:1021C00006E0FEF72FFE41F28833C01B98428AD802
:1021D00099FAA9F3726B99FAA9F3B3FA83F303F0AE
:1021E0001F0305FA03F31342EBD1B8F1000F3FF4DC
:1021F000DFAD43E000380240003C0240A0C1911036
:10220000A07000080400002058684FF07F4220F4BE
:10221000604008435860586892FAA2F2B2FA82F21B
:10222000E56920F07F4005FA02F202435A609A689D
:1022300012F0F00F14D15A6AD60040F196805D4B2F
:102240001A6802F4C052B2F5C05F09D1B1F5404F2F
:1022500006D1594A0120136843F00403136000E0DB
:102260000020554A136823F00103034313601368E9
:1022700003F0010398427FF471AE02E74F4A536ABC
:1022800023F08053536293E542F480625A635A6BA1
:1022900042F480725A636AE5484A536B43F4807390
:1022A000536364E593FAA3F3B3FA83F303F184531E
:1022B00003F58E139B0000221A60FEF7B3FD4FF06A
:1022C00000780746012605E0FEF7ACFDC01B02289A
:1022D0003FF609AF98FAA8F338492A6898FAA8F3A4
:1022E000B3FA83F303F01F0306FA03F313424FF02C
:1022F0000100E9D1A66AE56A226B8B6846EA05040B
:10230000224323F47D0313438B604FF0807393FAD1
:10231000A3F3B3FA83F303F1845303F58E139B0005
:1023200018600C460546FEF77DFD4FF00076074627
:1023300005E0FEF777FDC01B02283FF6D4AE96FA03
:10234000A6F3226896FAA6F3B3FA83F303F01F0309
:1023500005FA03F31342ECD05DE542F480221A60E3
:102360001A6842F480321A6045E45A6A114842F011
:1023700080525A625A6A02F080520392039A0268AB
:10238000586A02F4C05220F0805058625BE75A6AE3
:10239000084842F080525A625A6A02F08052029211
:1023A000029A0268586A02F4C05220F080505862C3
:1023B000ABE500BF00700040003C02400038024026
:1023C0008A4A2DE9F041136803F001038B4215D2CC
:1023D0000129136807D023F001031943116001207C
:1023E0001368BDE8F08143F004031360136843F001
:1023F000010313601368DE0740F18D8003689F07B7
:1024000006D57B4D8268AC6824F0F0042243AA60B4
:10241000DD0706460C4637D54368022B00F0CE8018
:10242000032B00F0C580012B00F0CF804FF4007229
:1024300092FAA2F16E49086892FAA2F2B2FA82F216
:10244000012102F01F0201FA02F2024263D0684D3C
:1024500041F28838AA6822F003021343AB60FEF70A
:10246000E1FC73680746022B5DD0032B66D0012B7D
:1024700006D16EE0FEF7D6FCC01B404500F29B8003
:10248000AB6813F00C0FF5D1584A136803F0010341
:102490009C4239D33368580706D55548F26881689D
:1024A00021F4E0610A438260190758D450498B68CF
:1024B00003F00C02082A00F086800C2A58D0042A67
:1024C0007FD04B684FF4604292FAA2F2B2FA82F2E5
:1024D00003F46043D3405A1C4FF400439340444AF2
:1024E000F021926891FAA1F1B1FA81F1414802F02C
:1024F000F002CA40815C404ACB400F201360FEF7D7
:102500005DFC0020BDE8F081136823F00103136037
:102510001368DC07BED50120BDE8F081FEF782FC20
:10252000C01B404547D8AB6803F00C03082BF5D11E
:10253000AAE7FEF777FCC01B40453CD8AB6803F028
:102540000C030C2BF5D19FE7FEF76CFCC01B40453C
:1025500031D8AB6803F00C03042BF5D194E7244A7F
:102560003169936823F4605343EAC10393609DE7A4
:102570004FF4701292FAA2F2B2FA82F203F47010DF
:102580001E4C20FA02F2A05C4FF4400292FAA2F232
:10259000B2FA82F2896803F44003D340CA034CBF05
:1025A000174A184A013302FB00F0B0FBF3F396E739
:1025B0004FF000723CE70320BDE8F0814FF4003299
:1025C00036E7104B8BE70E4B89E7022292FAA2F115
:1025D0000749096892FAA2F2B2FA82F202F01F02E7
:1025E00003FA02F20A427FF432AF94E7003C024061
:1025F00000380240A0700008040000209470000819
:1026000000127A000024F400084B4FF4E0629B684B
:1026100092FAA2F2B2FA82F20548064903F4E063A4
:10262000D340C35C0868D840704700BF0038024000
:10263000B070000804000020084B4FF460529B6803
:1026400092FAA2F2B2FA82F20548064903F4605304
:10265000D340C35C0868D840704700BF00380240D0
:10266000B0700008040000202DE9F047824606689B
:10267000C0683469DAF8085024F4405420433061CB
:10268000DAF81010F368DAF81420DAF81C0029439D
:1026900023F416430A43024323F00C031343F3606D
:1026A0007269DAF8183022F440721343B0F5004F23
:1026B0007361AD4B5CD09E4200F0B780FFF7A4FF82
:1026C000DAF8045000EB800000EB8000AD00B0FBB6
:1026D000F5F5FFF799FFA54F00EB8000A7FB053547
:1026E000DAF8043000EB80009C00B0FBF4F4FFF754
:1026F0008BFFDAF8043000EB80009B0000EB8000D9
:10270000B0FBF3F0A7FB00304FF06408400908FB72
:102710001044FFF779FFDAF8041000EB80008A001C
:1027200000EB8000B0FBF2F9FFF76EFFDAF804204F
:1027300000EB8000920000EB8000B0FBF2F0A7FB02
:10274000003024013234A7FB0434400908FB109206
:102750006D0964092D0104F0F00412013232A7FB67
:102760000223C3F343131C442544B560BDE8F0873E
:102770009E4200F0AA80FFF747FFDAF8045000EB12
:10278000800000EB80006D00B0FBF5F5FFF73CFF2B
:10279000764F00EB8000A7FB0535DAF8043000EB3C
:1027A00080005C00B0FBF4F4FFF72EFFDAF80420A1
:1027B00000EB8000530000EB8000B0FBF3F3A7FBBD
:1027C00003234FF064085B0908FB1344FFF71CFF69
:1027D000E4003234A7FB0434DAF8043000EB800064
:1027E0005A0000EB8000B0FBF2F9FFF70DFFDAF8BA
:1027F000042000EB8000520000EB8000B0FBF2F000
:10280000A7FB00326D0924092D0104F4F874520964
:1028100008FB1292D2003232A7FB0223C3F3421309
:102820002B441C44B460BDE8F087FFF705FFDAF8DD
:10283000045000EB800000EB8000AD00B0FBF5F52C
:10284000FFF7FAFE494F00EB8000A7FB0535DAF8E9
:10285000043000EB80009C00B0FBF4F4FFF7ECFECA
:10286000DAF8042000EB8000930000EB8000B0FB5E
:10287000F3F3A7FB03234FF064085B0908FB134441
:10288000FFF7DAFE24013234A7FB0434DAF804300F
:1028900000EB80009A0000EB8000B0FBF2F9FFF73C
:1028A000CBFEDAF8042000EB8000920000EB800001
:1028B000B0FBF2F0A7FB00326D09640952092D014B
:1028C00004F0F00408FB129247E7FFF7B5FEDAF8D0
:1028D000045000EB800000EB80006D00B0FBF5F5CC
:1028E000FFF7AAFE214F00EB8000A7FB0535DAF8C1
:1028F000043000EB80005C00B0FBF4F4FFF79CFEBA
:10290000DAF8042000EB8000530000EB8000B0FBFD
:10291000F3F3A7FB03234FF064085B0908FB1344A0
:10292000FFF78AFEE4003234A7FB0434DAF80430FF
:1029300000EB80005A0000EB8000B0FBF2F9FFF7DB
:102940007BFEDAF8043000EB800000EB80005B00D7
:10295000B0FBF3F3A7FB03236D0924092D0104F455
:10296000F8745A0954E700BF003801401F85EB5145
:10297000704700BF50B338B590F83930044603F0C3
:10298000FF02F3B12268022384F83930D36820466D
:1029900023F40053D360FFF767FE236800211A6910
:1029A000012522F490421A615A69084622F02A024F
:1029B0005A61DA6842F40052DA60E16384F839500F
:1029C00038BD80F83820FFF7D3FFDBE701207047E0
:1029D0002DE9F041054690F839000E46C1B20129B3
:1029E0001F4604D0222902D00220BDE8F081002E2B
:1029F00000F08D80002A00F08A8095F83830012B95
:102A0000F2D010460023EB6395F839300121222BD8
:102A10000CBF3223122385F8381085F83930AA8488
:102A2000AB680138B3F5805FE8844DD0FEF7FAF962
:102A300080467A1C2C6821D1226802F08002002A8C
:102A4000FAD0337801366360E88C0028E8D1FEF7CD
:102A5000E9F904467B1C2A685CD1136803F0400343
:102A6000002BFAD095F83930322B78D0012385F835
:102A70003930002085F83800BDE8F081236803F084
:102A80008003002BDDD137B1FEF7CCF9C8EB000095
:102A90008742CED22C68E368012123F08003E360F3
:102AA000E368002223F02003E360E368032023F4BB
:102AB0008073E360636923F00103636185F8391073
:102AC00085F83820BDE8F081FEF7ACF98046791C26
:102AD0002C680CD1226802F08002002AFAD03388D8
:102AE0002A69C3F3080363607AB90236ACE7236846
:102AF00003F08003002BF2D1002FCCD0FEF792F927
:102B0000C8EB00008742E2D2C4E701369CE701200F
:102B1000BDE8F081136803F04003002BA2D12FB170
:102B2000FEF780F9001B874294D22A68D3680124FB
:102B300023F08003D360D368002123F02003D36007
:102B4000D368032023F48073D360536923F0010317
:102B5000536185F8394085F83810BDE8F0812223AB
:102B600085F8393085E700BF0F4B10B419680F4A5C
:102B700041F48071196099680D480A409A601A689A
:102B8000002422F0885222F001121A601A684FF0D5
:102B9000006122F480221A609A6822F47D029A6011
:102BA000DC60816010BC7047003802400CC0FF88B8
:102BB00000ED00E0F0B52C4C89B02046FEF7F0FFA8
:102BC00038B12948FEF7ECFF203818BF012009B0C2
:102BD000F0BD0646254D264B264A2360EB694FF48F
:102BE000804143F00203EB61EB694FF4407003F066
:102BF000020301934FF0330E019B62600423022213
:102C00002161039003A912271B48C4F80CE0069227
:102C10000793A66005960497FEF786F96B6A31461E
:102C200043F400136B626B6A012203F400130293F6
:102C3000029BAB691F2043F40013AB61AB6923F423
:102C40000013AB61FEF714F91F20FEF749F9324675
:102C500031462020FEF70CF92020FEF741F92046EE
:102C6000FEF770FCADE700BF5403002000380240BF
:102C700000540040801A060000040240F0B52C4CBD
:102C800089B02046FEF78CFF38B12948FEF788FF4F
:102C9000203818BF012009B0F0BD0646254D264B4F
:102CA000264A2360EB694FF4804143F00203EB6155
:102CB000EB694FF4407003F0020301934FF0330EC1
:102CC000019B6260042302222161039003A9122761
:102CD0001B48C4F80CE006920793A660059604977B
:102CE000FEF722F96B6A314643F400136B626B6A9C
:102CF000012203F400130293029BAB691F2043F4EB
:102D00000013AB61AB6923F40013AB61FEF7B0F8BD
:102D10001F20FEF7E5F8324631462020FEF7A8F8DE
:102D20002020FEF7DDF82046FEF70CFCADE700BFE3
:102D3000540300200038024000540040801A06006E
:102D4000000402402DE9F041002488B0234D049492
:102D50000394069405940794EB69214F43F0020312
:102D6000EB61EB691F4E03F002034FF00208019381
:102D700003A9202338460393019A0496CDF81880BE
:102D8000FEF7D2F8224621461720FEF771F81720E9
:102D9000FEF7A6F803940494069405940794EB694F
:102DA00003A943EA0803EB61EB69384603EA080329
:102DB000029310230393029A0496CDF81880FEF72D
:102DC000B3F8224621460A20FEF752F80A20FEF701
:102DD00087F8204608B0BDE8F08100BF0038024007
:102DE00000040240000011102DE9F047054600786C
:102DF00084B040280E46174698462ED02BD9B128CD
:102E000017D123B300244FF4805A4FF001093B1926
:102E10003219A978D2B20093CDF808A0CDF8049069
:102E200001231648FEF748FC0134E0B9A045EED175
:102E30000DE0BC2811D04FF48053A978324602939C
:102E40008DE8800101230D48FEF736FC58B90020BB
:102E500004B0BDE8F0873328EDD1B8F1010FEAD90D
:102E600046F08006E7E70548FEF70CFC08B9FFF7D7
:102E7000A1FE012004B0BDE8F08700BF540300208C
:102E80002DE9F0470546007884B040280E461746E5
:102E900098462ED02BD9B12817D123B300244FF454
:102EA000805A4FF001093B193219A978D2B2009328
:102EB000CDF808A0CDF8049001231648FEF7ECFCED
:102EC0000134E0B9A045EED10DE0BC2811D04FF49B
:102ED0008053A978324602938DE8800101230D4882
:102EE000FEF7DAFC58B9002004B0BDE8F0873328BB
:102EF000EDD1B8F1010FEAD946F08006E7E70548C1
:102F0000FEF7C0FB08B9FFF755FE012004B0BDE88D
:102F1000F08700BF54030020F8B50026394C0E603E
:102F20000F466379002833D0012B2FD0FFF7A6FE80
:102F300001282BD02346344ADFF8D4E043F81C2F75
:102F4000324D63616A2004F11403D62101226670B8
:102F500026716671A671C4F80CE02070A170E27150
:102F6000A360A66125613C60E3681B683BB1204615
:102F7000984701283DD0FFF7E5FE0020F8BD00236B
:102F800023606360A360E36023613B600120F8BDC0
:102F9000012BFBD00546FFF771FE0128F6D0234632
:102FA000194ADFF86CE043F81C2F184E63616A2061
:102FB00004F11403D6210122657025716571A57194
:102FC000C4F80CE02070A170E271A360A5612661D5
:102FD0003C60E3681B68002BD1D02046984701284D
:102FE000C9D13B681D605D609D60DD601D613D6015
:102FF000CCE73B681E605E609E60DE601E613E60E6
:10300000C4E700BFA803002018060020B400002079
:103010001400002060B108B5C3689B6833B19847BD
:10302000A0F10100B0FA80F0400908BD012008BD00
:103030000120704760B108B5C3689B6A33B19847F7
:10304000A0F10100B0FA80F0400908BD012008BDE0
:103050000120704720B1026912B103786A2B01D0B8
:10306000012070471368002BFAD0184770B102692D
:1030700062B110B411B103786A2B02D0012010BCE8
:1030800070475368002BF9D010BC184701207047D7
:1030900070B1026962B110B411B103786A2B02D029
:1030A000012010BC70471369002BF9D010BC1847E1
:1030B0000120704770B1026962B110B411B1037898
:1030C0006A2B02D0012010BC70479369002BF9D005
:1030D00010BC18470120704720B1026912B1037873
:1030E0006A2B01D001207047D369002BFAD0184712
:1030F00070B1026962B110B411B103786A2B02D0C9
:10310000012010BC7047136A002BF9D010BC18477F
:103110000120704720B1026912B103786A2B01D0F7
:1031200001207047536A002BFAD0184720B102697A
:1031300012B103786A2B01D001207047936A002BEB
:10314000FAD0184720B1026912B103786A2B01D076
:1031500001207047D36A002BFAD0184720B10269CA
:1031600012B103786A2B01D001207047136B002B3A
:10317000FAD01847F0B5044687B048B90F4BDA6962
:1031800042F00102DA61DB6903F001030093009B66
:103190000B4D0223202655F824000122002701A907
:1031A0000292049301960397FDF7BEFE3A4631461C
:1031B00055F82400FDF7B6FF07B0F0BD0038024017
:1031C00008000020034B012253F820002021FDF7C6
:1031D000A9BF00BF08000020034B002253F82000C5
:1031E0002021FDF79FBF00BF0800002010B50B464F
:1031F00086B048B9194AD16941F00401D161D26958
:1032000002F004020092009A4FF4005100240122BF
:103210000191039404921BB1012B0BD006B010BD99
:103220000F4A01A902EB800040680293FDF77CFE83
:1032300006B010BD0A4B0B4A03EB800001A94068A1
:103240000292FDF771FE22460F212820FDF710FEA5
:103250002820FDF745FE06B010BD00BF0038024033
:10326000080000200000211008B5044B4FF4005165
:1032700003EB80004068FDF74FFF08BD0800002009
:1032800008B5FFF7FDFDB0FA80F0400908BD00BFAA
:1032900008B5FFF7A9FDB0FA80F0400908BD00BFEE
:1032A00008B50A4601230F21FFF7EAFDB0FA80F0C6
:1032B000400908BD30B583B00C460DF1070201236B
:1032C00012210546FFF7DCFD10B1002003B030BD30
:1032D0009DF807300DF1070223F040031C432846F8
:1032E000012312218DF80740FFF77EFDB0FA80F030
:1032F000400903B030BD00BF30B583B00C460DF1BE
:103300000702012310210546FFF7BAFD10B1002086
:1033100003B030BD9DF807300DF1070223F00C0318
:103320001C432846012310218DF80740FFF75CFD60
:10333000B0FA80F0400903B030BD00BF10B50A46B6
:103340000C4601231021FFF79BFD08B1002010BDA2
:103350002378012003F00C03237010BD2DE9F04108
:1033600080460F4603260024A51CEDB204F1280177
:103370003A19C9B201234046FFF782FD0134E4B295
:1033800048B9A542F2D1731E13F0FF062C46EBD1CB
:103390000120BDE8F0810020BDE8F08130B583B0A8
:1033A0000C460DF10702012310210546FFF768FDC9
:1033B00010B1002003B030BD9DF807300DF10702B9
:1033C00003F00F031C432846012310218DF807400A
:1033D000FFF70AFDB0FA80F0400903B030BD00BF2E
:1033E00010B50A460C4601231021FFF749FD08B12C
:1033F000002010BD2378012023F00F03237010BD9F
:1034000030B583B00C460DF10702012311210546AA
:10341000FFF736FD10B1002003B030BD9DF8073036
:103420000DF1070223F00C031C4328460123112150
:103430008DF80740FFF7D8FCB0FA80F0400903B0E0
:1034400030BD00BF10B50A460C4601231121FFF71D
:1034500017FD08B1002010BD2378012003F00C03F4
:10346000237010BD2DE9F04180460F46032600244D
:10347000A51CEDB204F122013A19C9B2012340465C
:10348000FFF7FEFC0134E4B248B9A542F2D1731E45
:1034900013F0FF062C46EBD10120BDE8F08100209F
:1034A000BDE8F08130B583B00C460DF10702012371
:1034B00011210546FFF7E4FC10B1002003B030BD38
:1034C0009DF807300DF1070203F00F031C43284657
:1034D000012311218DF80740FFF786FCB0FA80F038
:1034E000400903B030BD00BF10B50A460C460123A9
:1034F0001121FFF7C5FC08B1002010BD2378012081
:1035000023F00F03237010BD30B583B00C460DF1CE
:103510000702012311210546FFF7B2FC10B100207C
:1035200003B030BD9DF807300DF1070223F0020310
:103530001C432846012311218DF80740FFF754FC56
:10354000B0FA80F0400903B030BD00BF10B50A46A4
:103550000C4601231121FFF793FC08B1002010BD98
:103560002378012003F00203237010BD30B583B02F
:103570000C460DF10702012306210546FFF780FCEA
:1035800048B901230DF10702062128468DF80740AE
:10359000FFF72AFC10B1002003B030BD01230DF16C
:1035A000070207212846FFF76BFC0028F3D19DF89E
:1035B0000730C4F3022423F007031C430DF1070274
:1035C0002846012307218DF80740FFF70DFCB0FACC
:1035D00080F04009E0E700BF30B583B00C460DF144
:1035E0000702012308210546FFF74AFC10B100201D
:1035F00003B030BD9DF807300DF1070223F007033B
:103600001C432846012308218DF80740FFF7ECFBF7
:10361000B0FA80F0400903B030BD00BF30B583B0D0
:103620000C460DF10702012308210546FFF728FC8F
:1036300010B1002003B030BD9DF807300DF1070236
:1036400023F038031C432846012308218DF8074046
:10365000FFF7CAFBB0FA80F0400903B030BD00BFED
:1036600030B583B00C460DF1070201230921054650
:10367000FFF706FC10B1002003B030BD9DF8073005
:103680000DF1070203F07F031C43284601230921A3
:103690008DF80740FFF7A8FBB0FA80F0400903B0AF
:1036A00030BD00BF30B583B00C460DF107020123D9
:1036B0000A210546FFF7E4FB10B1002003B030BD3E
:1036C0009DF807300DF1070223F007031C4328463D
:1036D00001230A218DF80740FFF786FBB0FA80F03E
:1036E000400903B030BD00BF30B583B00C460DF1CA
:1036F000070201230A210546FFF7C2FB10B1002093
:1037000003B030BD9DF807300DF1070223F07803B8
:103710001C43284601230A218DF80740FFF764FB6C
:10372000B0FA80F0400903B030BD00BF30B583B0BF
:103730000C460DF1070201230D210546FFF7A0FB02
:1037400010B1002003B030BD9DF807300DF1070225
:1037500023F020031C43284601230D218DF8074048
:10376000FFF742FBB0FA80F0400903B030BD00BF64
:1037700030B583B00C460DF1070201230D2105463B
:10378000FFF77EFB10B1002003B030BD9DF807307D
:103790000DF1070203F07F031C43284601230D218E
:1037A0008DF80740FFF720FBB0FA80F0400903B026
:1037B00030BD00BF30B583B00C460DF107020123C8
:1037C00012210546FFF75CFB10B1002003B030BDAD
:1037D0009DF807300DF1070223F004031C4328462F
:1037E000012312218DF80740FFF7FEFAB0FA80F0AE
:1037F000400903B030BD00BF30B583B00C460DF1B9
:103800000702012314210546FFF73AFB10B10020FF
:1038100003B030BD9DF807300DF1070223F003031C
:103820001C432846012314218DF80740FFF7DCFADA
:10383000B0FA80F0400903B030BD00BF30B583B0AE
:103840000C460DF10702012314210546FFF718FB72
:1038500010B1002003B030BD9DF807300DF1070214
:1038600023F00C031C432846012314218DF8074044
:10387000FFF7BAFAB0FA80F0400903B030BD00BFDC
:1038800030B583B00C460DF107020123192105461E
:10389000FFF7F6FA10B1002003B030BD9DF80730F5
:1038A0000DF1070223F002031C43284601231921CE
:1038B0008DF80740FFF798FAB0FA80F0400903B09E
:1038C00030BD00BF30B583B00C460DF107020123B7
:1038D00019210546FFF7D4FA10B1002003B030BD1E
:1038E0009DF807300DF1070223F008031C4328461A
:1038F000012319218DF80740FFF776FAB0FA80F01E
:10390000400903B030BD00BF30B583B00C460DF1A7
:103910000702012319210546FFF7B2FA10B1002072
:1039200003B030BD9DF807300DF1070223F01003FE
:103930001C432846012319218DF80740FFF754FA4C
:10394000B0FA80F0400903B030BD00BF30B583B09D
:103950000C460DF10702012319210546FFF790FAE5
:1039600010B1002003B030BD9DF807300DF1070203
:1039700023F004031C432846012319218DF8074036
:10398000FFF732FAB0FA80F0400903B030BD00BF53
:1039900010B50A460C4601231B21FFF771FA08B146
:1039A000002010BD2378012003F00803237010BD10
:1039B00010B50A460C4601231B21FFF761FA08B136
:1039C000002010BD2378012003F02003237010BDD8
:1039D00010B50A460C4601231C21FFF751FA08B125
:1039E000002010BD2378012003F01003237010BDC8
:1039F00010B50A460C4601231C21FFF741FA08B115
:103A0000002010BD2378012003F02003237010BD97
:103A100010B50A460C4601231D21FFF731FA08B103
:103A2000002010BD237801200340237010BD00BF8B
:103A300010B50A460C4601231D21FFF721FA08B1F3
:103A4000002010BD2378012003F00203237010BD75
:103A500010B50A460C4601231D21FFF711FA08B1E3
:103A6000002010BD2378012003F00403237010BD53
:103A700010B50A460C4601231D21FFF701FA08B1D3
:103A8000002010BD2378012003F00803237010BD2F
:103A900010B50A460C4601231D21FFF7F1F908B1C4
:103AA000002010BD2378012003F01003237010BD07
:103AB00010B50A460C4601231D21FFF7E1F908B1B4
:103AC000002010BD2378012003F02003237010BDD7
:103AD00010B50A460C4601231D21FFF7D1F908B1A4
:103AE000002010BD2378012003F04003237010BD97
:103AF00010B50A460C4601231E21FFF7C1F908B193
:103B0000002010BD237801200340237010BD00BFAA
:103B100010B50A460C4601231E21FFF7B1F908B182
:103B2000002010BD2378012003F00203237010BD94
:103B300030B583B00D4601230DF107023A2104464A
:103B4000FFF79EF938B9204601230DF106023B210B
:103B5000FFF796F910B1002003B030BD9DF8063094
:103B60009DF8072003F00F0342EA032301202B8076
:103B700003B030BD10B50A460C4601233B21FFF7C8
:103B80007FF908B1002010BD2378012003F0100355
:103B9000237010BD10B50A460C4601233B21FFF7E8
:103BA0006FF908B1002010BD2378012003F0200335
:103BB000237010BD10B50A460C4601233B21FFF7C8
:103BC0005FF908B1002010BD2378012003F0400305
:103BD000237010BD30B583B00D4601230DF10702EF
:103BE0003C210446FFF74CF938B9204601230DF17A
:103BF00006023D21FFF744F910B1002003B030BDAB
:103C00009DF806309DF8072003F0030342EA0323E2
:103C100001202B8003B030BD10B50A460C460123AD
:103C20005321FFF72DF908B1002010BD23780120A2
:103C300003F01003237010BD10B50A460C46012393
:103C40005321FFF71DF908B1002010BD2378012092
:103C500003F02003237010BD30B583B00C460DF186
:103C60000702012358210546FFF70AF910B1002089
:103C700003B030BD9DF807300DF1070223F00103BA
:103C80001C432846012358218DF80740FFF7ACF864
:103C9000B0FA80F0400903B030BD00BF30B583B04A
:103CA0000C460DF10702012358210546FFF7E8F8FD
:103CB00010B1002003B030BD9DF807300DF10702B0
:103CC00023F002031C432846012358218DF80740A6
:103CD000FFF78AF8B0FA80F0400903B030BD00BFAA
:103CE00030B583B00C460DF107020123582105467B
:103CF000FFF7C6F810B1002003B030BD9DF80730C3
:103D00000DF1070223F004031C4328460123582128
:103D10008DF80740FFF768F8B0FA80F0400903B06B
:103D200030BD00BF30B583B00C460DF10702012352
:103D300058210546FFF7A4F810B1002003B030BDAC
:103D40009DF807300DF1070223F008031C432846B5
:103D5000012358218DF80740FFF746F8B0FA80F0AC
:103D6000400903B030BD00BF30B583B00C460DF143
:103D70000702012358210546FFF782F810B1002001
:103D800003B030BD9DF807300DF1070203F07F034B
:103D90001C432846012358218DF80740FFF724F8DB
:103DA000B0FA80F0400903B030BD00BF30B583B039
:103DB0000C460DF10702012359210546FFF760F873
:103DC00010B1002003B030BD9DF8073004F01F048F
:103DD00023F01F031C430DF107022846012359213C
:103DE0008DF80740FFF700F8B0FA80F0400903B003
:103DF00030BD00BF30B583B00C460DF10702012382
:103E000059210546FFF73CF810B1002003B030BD42
:103E10009DF807300DF1070223F060031C4328468C
:103E2000012359218DF80740FEF7DEFFB0FA80F03C
:103E3000400903B030BD00BF30B583B00C460DF172
:103E4000070201235A210546FFF71AF810B1002096
:103E500003B030BD9DF8073004F0030423F00303E2
:103E60001C430DF10702284601235A218DF8074013
:103E7000FEF7BAFFB0FA80F0400903B030BD00BFD2
:103E800030B583B00C460DF1070201235A210546D7
:103E9000FEF7F6FF10B1002003B030BD9DF80720FB
:103EA000A40004F00C0322F00C041C430DF10702E3
:103EB000284601235A218DF80740FEF795FFB0FAF6
:103EC00080F0400903B030BD30B583B00C460DF131
:103ED000070201235A210546FEF7D2FF10B1002048
:103EE00003B030BD9DF807300DF1070203F00F035A
:103EF00043EA0414284601235A218DF80740FEF7AF
:103F000073FFB0FA80F0400903B030BD30B583B024
:103F10000C460DF1070201235B210546FEF7B0FFB9
:103F200010B1002003B030BD9DF8073004F03F040D
:103F300023F03F031C430DF10702284601235B21B8
:103F40008DF80740FEF750FFB0FA80F0400903B04B
:103F500030BD00BF30B583B00C460DF10702012320
:103F60005B210546FEF78CFF10B1002003B030BD89
:103F70009DF807300DF1070203F07F031C4328462C
:103F800001235B218DF80740FEF72EFFB0FA80F089
:103F9000400903B030BD00BF30B583B00C460DF111
:103FA000070201235C210546FEF76AFF10B10020DD
:103FB00003B030BD9DF8073004F00F0423F00F0369
:103FC0001C430DF10702284601235C218DF80740B0
:103FD000FEF70AFFB0FA80F0400903B030BD00BF21
:103FE00030B583B00C460DF1070201235C21054674
:103FF000FEF746FF10B1002003B030BD9DF807303A
:104000000DF1070223F010031C43284601235C2115
:104010008DF80740FEF7E8FEB0FA80F0400903B0E3
:1040200030BD00BF30B583B00C460DF1070201234F
:104030005C210546FEF724FF10B1002003B030BD1F
:104040009DF80720640104F0600322F060041C4323
:104050000DF10702284601235C218DF80740FEF789
:10406000C3FEB0FA80F0400903B030BD30B583B074
:104070000C460DF1070201235D210546FEF700FF06
:1040800010B1002003B030BD9DF807300DF10702DC
:1040900023F007031C43284601235D218DF80740C8
:1040A000FEF7A2FEB0FA80F0400903B030BD00BFB9
:1040B00070B582B00E460DF1070201235D21054661
:1040C000FEF7DEFE78B99DF80740012304F00704EF
:1040D00044EAC6040DF107025D2128468DF8074029
:1040E000FEF782FE10B1002002B070BD01230DF179
:1040F00007025C212846FEF7C3FE0028F3D19DF895
:104100000730760903F07F0343EAC6160DF1070274
:10411000284601235C218DF80760FEF765FEB0FAA2
:1041200080F04009E0E700BF30B583B00C460DF1E8
:10413000070201235E210546FEF7A2FE10B1002012
:1041400003B030BD9DF807300DF1070223F00203E4
:104150001C43284601235E218DF80740FEF744FEEC
:10416000B0FA80F0400903B030BD00BF30B583B075
:104170000C460DF1070201235E210546FEF780FE85
:1041800010B1002003B030BD9DF807300DF10702DB
:1041900023F004031C43284601235E218DF80740C9
:1041A000FEF722FEB0FA80F0400903B030BD00BF38
:1041B00030B583B00C460DF1070201235E210546A0
:1041C000FEF75EFE10B1002003B030BD9DF8073051
:1041D0000DF1070223F008031C43284601235E214A
:1041E0008DF80740FEF700FEB0FA80F0400903B0FA
:1041F00030BD00BF30B583B00C460DF1070201237E
:104200005E210546FEF73CFE10B1002003B030BD34
:104210009DF807300DF1070223F010031C432846D8
:1042200001235E218DF80740FEF7DEFDB0FA80F035
:10423000400903B030BD00BF30B583B00C460DF16E
:10424000070201235E210546FEF71AFE10B1002089
:1042500003B030BD9DF807300DF1070223F02003B5
:104260001C43284601235E218DF80740FEF7BCFD64
:10427000B0FA80F0400903B030BD00BF30B583B064
:104280000C460DF1070201235E210546FEF7F8FDFD
:1042900010B1002003B030BD9DF807300DF10702CA
:1042A00023F040031C43284601235E218DF807407C
:1042B000FEF79AFDB0FA80F0400903B030BD00BFB0
:1042C00030B583B00C460DF1070201235F2105468E
:1042D000FEF7D6FD10B1002003B030BD9DF80730C9
:1042E0000DF1070223F002031C43284601235F213E
:1042F0008DF80740FEF778FDB0FA80F0400903B072
:1043000030BD00BF30B583B00C460DF1070201236C
:104310005F210546FEF7B4FD10B1002003B030BDAB
:104320009DF807300DF1070223F004031C432846D3
:1043300001235F218DF80740FEF756FDB0FA80F0AB
:10434000400903B030BD00BF30B583B00C460DF15D
:10435000070201235F210546FEF792FD10B1002000
:1043600003B030BD9DF807300DF1070223F00803BC
:104370001C43284601235F218DF80740FEF734FDDA
:10438000B0FA80F0400903B030BD00BF30B583B053
:104390000C460DF1070201235F210546FEF770FD73
:1043A00010B1002003B030BD9DF807300DF10702B9
:1043B00023F010031C43284601235F218DF807409A
:1043C000FEF712FDB0FA80F0400903B030BD00BF27
:1043D00030B583B00C460DF1070201235F2105467D
:1043E000FEF74EFD10B1002003B030BD9DF8073040
:1043F0000DF1070223F020031C43284601235F210F
:104400008DF80740FEF7F0FCB0FA80F0400903B0E9
:1044100030BD00BF30B583B00C460DF1070201235B
:104420005F210546FEF72CFD10B1002003B030BD22
:104430009DF807300DF1070223F040031C43284686
:1044400001235F218DF80740FEF7CEFCB0FA80F023
:10445000400903B030BD00BF38B50A460C46012301
:104460003E210546FEF70CFD48B9621C2846012393
:104470003F21FEF705FDB0FA80F0400938BD00206D
:1044800038BD00BF38B50A460C4601234B2105460E
:10449000FEF7F6FC48B9621C284601234C21FEF7C2
:1044A000EFFCB0FA80F0400938BD002038BD00BFF5
:1044B00070B5012382B00C460DF10702194605467E
:1044C000FEF7DEFC60B99DF80760012366F07F0609
:1044D00019460DF1070228468DF80760FEF784FCA7
:1044E0000DF1060201230F212846FEF7C9FC9DF8B5
:1044F000063004F01F0423F01F030DF106021C43D5
:104500000F21012328468DF80640FEF76DFC01239C
:1045100019460DF107022846FEF7B2FC60B99DF876
:104520000740012304F07F040DF1070228461946D5
:104530008DF80740FEF758FC012002B070BD00BFA7
:1045400008B5FFF713F8B0FA80F0400908BD00BFC6
:1045500010B582B00C460DF10701FEF7EFFE60B119
:104560009DF807300C2B1FD8DFE803F00F1E1E1E2E
:10457000141E1E1E191E1E1E0A00012002B010BDB0
:104580000C4B0020236002B010BD0B4B00202360B9
:1045900002B010BD094B0020236002B010BD084BD3
:1045A0000020236002B010BD064B0120236002B042
:1045B00010BD00BF23DB793E23DB793D23DBF93ED1
:1045C00023DBF93D000080BF10B582B00C460DF131
:1045D0000701FEF7B3FE60B19DF807300C2B23D81E
:1045E000DFE803F010222222162222221C2222229D
:1045F0000A00012002B010BD4FF08243002023606A
:1046000002B010BD4FF080430020236002B010BD07
:104610004FF083430020236002B010BD4FF0814370
:104620000020236002B010BD024B0120236002B0C5
:1046300010BD00BF000080BF08B5FFF779FAB0FADF
:1046400080F0400908BD00BF08B5FFF705FFB0FACC
:1046500080F0400908BD00BF08B5FFF7BBFAB0FA0B
:1046600080F0400908BD00BF10B582B00C460DF1C6
:104670000701FFF79FFA48B19DF8070048B14028AD
:1046800004D101230020237002B010BD012002B02C
:1046900010BD207002B010BD10B582B00C460DF1F7
:1046A0000701FFF767FA48B19DF8070048B11028E5
:1046B00004D101230020237002B010BD012002B0FC
:1046C00010BD207002B010BD10B582B00C460DF1C7
:1046D0000701FFF75FFA48B19DF8070048B12028AD
:1046E00004D101230020237002B010BD012002B0CC
:1046F00010BD207002B010BD38B50C4605462349E8
:104700002046FCF72BF830B921492046FCF726F863
:1047100048B1102100E008212846FEF7E5FFB0FA75
:1047200080F0400938BD1B492046FCF717F808BB4C
:1047300019492046FCF712F8F0B918492046FCF751
:104740000DF8D8B916492046FCF708F8C0B9154944
:104750002046FCF703F8A8B913492046FBF7FEFFF3
:1047600090B912492046FBF7F9FF002814BF4821F1
:104770005021D1E71821CFE72021CDE72821CBE731
:104780003021C9E73821C7E74021C5E700002041B3
:104790000000C841000048420000C84200004843F1
:1047A0000000C843000048440000C84400404E4593
:1047B00030B5012383B000240C600D460DEB0302DD
:1047C0001B218DF801408DF802408DF803408DF8D3
:1047D00004408DF805408DF806408DF807400446EA
:1047E000FEF74EFD002800F0998001230DF1020232
:1047F0001C212046FEF744FD002800F08F80012395
:104800000DF103021D212046FEF73AFD002800F0BD
:104810008580012301AA53212046FEF731FD00289F
:104820007CD001230DF105025E212046FEF728FD14
:10483000002873D001230DF106025F212046FEF708
:104840001FFD00286AD0204601230DF107020D212B
:10485000FEF716FD002861D09DF80530DC0603D474
:104860009DF80620D00607D59DF80120910603D5B6
:104870002A7842F001022A709A0603D49DF8062095
:10488000940607D59DF80120100703D52A7842F039
:1048900008022A70590603D49DF80620520607D54F
:1048A0009DF80220940603D52A7842F002022A706D
:1048B000180703D49DF80620110707D59DF802209C
:1048C000D20603D52A7842F004022A705C0703D48A
:1048D0009DF80620500707D59DF80320510603D503
:1048E0002A7842F040022A709DF90720002A18DB3E
:1048F0009B0706D49DF8063003F0020303F0FF0087
:104900006BB19DF8043003F0200303F0FF0033B1D6
:104910002B78002043F020032B7000E0012003B02F
:1049200030BD9DF80420D206E2D52A7842F010026C
:104930002A70DDE708B50123FEF7A2FCB0FA80F08B
:10494000400908BD10B582B00C460DF10701FFF714
:10495000AFF848B19DF8070048B1202804D10123E1
:104960000020237002B010BD012002B010BD2070E5
:1049700002B010BD10B582B00C460DF10701FFF773
:1049800087F848B19DF8070048B1102804D10123E9
:104990000020237002B010BD012002B010BD2070B5
:1049A00002B010BD10B582B00C460DF10701FFF743
:1049B0005FF848B19DF8070048B1082804D10123E9
:1049C0000020237002B010BD012002B010BD207085
:1049D00002B010BD10B582B00C460DF10701FFF713
:1049E00037F848B19DF8070048B1042804D10123E5
:1049F0000020237002B010BD012002B010BD207055
:104A000002B010BD10B582B00C460DF10701FFF7E2
:104A10000FF848B19DF8070048B1022804D10123DE
:104A20000020237002B010BD012002B010BD207024
:104A300002B010BD10B582B00C460DF10701FEF7B3
:104A4000E7FF40B19DF8070040B1012803D1207075
:104A5000002002B010BD012002B010BD207002B0D5
:104A600010BD00BF10B582B00C460DF10701FFF775
:104A70002FF848B19DF8070048B1402804D1012320
:104A80000020237002B010BD012002B010BD2070C4
:104A900002B010BD38B50C4605464FF080412046A7
:104AA000FBF75CFE38B94FF081412046FBF756FE1C
:104AB00048B1082100E000212846FEF71DFCB0FAAD
:104AC00080F0400938BD4FF082412046FBF746FE9A
:104AD000002814BF0C210421EEE700BF022908B50D
:104AE0000BD0042902D011B1012008BD0C21FEF722
:104AF00003FCB0FA80F0400908BD0821FEF7FCFB7A
:104B0000B0FA80F0400908BD08B5FFF7DDF9B0FA4A
:104B100080F0400908BD00BF08B5FFF7B1F9B0FA51
:104B200080F0400908BD00BF08B5FFF785F9B0FA6D
:104B300080F0400908BD00BF08B5FFF737F9B0FAAB
:104B400080F0400908BD00BF10B582B00C460DF1E1
:104B50000701FEF73DFF48B19DF8070048B1102856
:104B600004D101230020237002B010BD012002B047
:104B700010BD207002B010BD10B582B00C460DF112
:104B80000701FEF735FF48B19DF8070048B120281E
:104B900004D101230020237002B010BD012002B017
:104BA00010BD207002B010BD08B5FFF7AFF9B0FA24
:104BB00080F0400908BD00BF10B582B00C460DF171
:104BC0000701FEF7E5FE48B19DF8070048B1082847
:104BD00004D101230020237002B010BD012002B0D7
:104BE00010BD207002B010BD10B582B00C460DF1A2
:104BF0000701FFF721F848B19DF8070048B12028C8
:104C000004D101230020237002B010BD012002B0A6
:104C100010BD207002B010BD08B5FFF749FCB0FA16
:104C200080F0400908BD00BF08B50021FEF728FE4E
:104C3000B0FA80F0400908BD08B50221FEF720FE59
:104C4000B0FA80F0400908BD08B5FFF71BFCB0FAC8
:104C500080F0400908BD00BF10B582B00C460DF1D0
:104C60000701FEF7D9FF48B19DF8070048B11028A9
:104C700004D101230020237002B010BD012002B036
:104C800010BD207002B010BD08B5FFF7EFF9B0FA03
:104C900080F0400908BD00BF10B582B00C460DF190
:104CA0000701FEF785FE48B19DF8070048B12028AE
:104CB00004D101230020237002B010BD012002B0F6
:104CC00010BD207002B010BD30B583B00D460DF19F
:104CD00007010446FEF73AFC10B9012003B030BDCD
:104CE00020460DF10601FEF7ADFB0028F5D09DF83A
:104CF0000730022B0CD09DF806300C2B1CD8DFE8B7
:104D000003F0171B1B1B131B1B1B0F1B1B1B0B0079
:104D10000B4B00202B60E1E70A4B00202B60DDE706
:104D2000094B00202B60D9E7084B00202B60D5E70A
:104D3000074B00202B60D1E7064B01202B60CDE70D
:104D40000000FA420000FA4400007A440000FA43EE
:104D500000007543000080BF10B582B00C460DF115
:104D60000701FEF7C5FE40B19DF8070040B10128DC
:104D700003D12070002002B010BD012002B010BD90
:104D8000207002B010BD00BF00B583B002AB03F8C5
:104D9000012D1A460123FEF77BFAB0FA80F0400994
:104DA00003B05DF804FB00BF10B582B00C460DF1F6
:104DB0000701FEF715FBD0B19DF80700502837D04A
:104DC0000AD8202825D015D9302835D0402828D118
:104DD0001F4B002023600BE0802831D011D9902890
:104DE0001BD0A0281DD11B4B0020236000E0012018
:104DF00002B010BDC8B1102813D1174B002023609A
:104E0000F6E7602820D070280BD1144B00202360D7
:104E1000EEE7134B00202360EAE7124B00202360EB
:104E2000E6E7114B01202360E2E700232360DFE780
:104E30000E4B00202360DBE70D4B00202360D7E7FB
:104E40000C4B00202360D3E70B4B00202360CFE7FF
:104E50000000D0420020D0450000504100405044A6
:104E60000000D04100205045000080BF00005043AA
:104E7000000050420080CF440000D04308B5FEF748
:104E80000FFAB0FA80F0400908BD00BF10B582B03B
:104E90000C460DF10701FEF73BFE48B19DF80700F7
:104EA00048B1022804D101230020237002B010BDB4
:104EB000012002B010BD207002B010BD022908B55B
:104EC0000BD0042902D011B1012008BD0C21FEF73E
:104ED00097FAB0FA80F0400908BD0421FEF790FA75
:104EE000B0FA80F0400908BD10B582B00C460DF153
:104EF0000701FEF7F9FAD0B19DF80700502837D026
:104F00000AD8202825D015D9302835D0402828D1D6
:104F10001F4B002023600BE0802831D011D990284E
:104F20001BD0A0281DD11B4B0020236000E00120D6
:104F300002B010BDC8B1102813D1174B0020236058
:104F4000F6E7602820D070280BD1144B0020236096
:104F5000EEE7134B00202360EAE7124B00202360AA
:104F6000E6E7114B01202360E2E700232360DFE73F
:104F70000E4B00202360DBE70D4B00202360D7E7BA
:104F80000C4B00202360D3E70B4B00202360CFE7BE
:104F90000000D0420020D045000050410040504465
:104FA0000000D04100205045000080BF0000504369
:104FB000000050420080CF440000D043032901D9B3
:104FC0000120704708B5FEF717FCB0FA80F04009E1
:104FD00008BD00BF012901D90120704708B5FEF7BF
:104FE0003BFEB0FA80F0400908BD00BF08B519B11A
:104FF000802901D0012008BDFEF732FBB0FA80F015
:10500000400908BD08B519B1202901D0012008BD0B
:10501000FEF78CFBB0FA80F0400908BD062908D8DD
:1050200008B5012303FA01F212F05B0F03D1184611
:1050300008BD01207047FEF735FBB0FA80F040094B
:1050400008BD00BF072901D90120704708B5FEF748
:10505000C3FAB0FA80F0400908BD00BF10B50021C6
:105060000446FFF783F808B9012010BD002120464F
:10507000FFF748F90028F7D000212046FEF774FE1C
:105080000028F1D020460021FEF7B4FEB0FA80F0EF
:10509000400910BD08B58379012B18D083681B68BF
:1050A000042920D8DFE801F003030B0F0700124AA0
:1050B0005A60002008BD114A00205A6008BD104AFD
:1050C00000205A6008BD0F4A00205A6008BD04291C
:1050D00009D8DFE801F003030C0A0E001021FEF7E7
:1050E0005DF90028E5D1012008BD3021F7E7202136
:1050F000F5E74021F3E700BF000050410000D04237
:105100000000D0410000504210B500210446FFF7D6
:105110004FF808B9012010BD00212046FFF714F90F
:105120000028F7D000212046FEF71EFE0028F1D00F
:1051300000212046FEF73AFE0028EBD00021204651
:10514000FEF77AFE0028E5D000212046FEF798FE03
:105150000028DFD000212046FEF7B6FE0028D9D077
:1051600000212046FEF7F6FE0028D3D0002120467D
:10517000FEF794FD0028CDD000212046FEF7B0FDBB
:105180000028C7D020460021FEF7CCFDB0FA80F001
:10519000400910BD10B500210446FFF76FF808B9AB
:1051A000012010BD00212046FFF734F90028F7D078
:1051B00000212046FEF7D8FD0028F1D0002120462E
:1051C000FEF7F4FD0028EBD000212046FEF734FE68
:1051D0000028E5D000212046FEF752FE0028DFD04F
:1051E00000212046FEF75AFD0028D9D00021204694
:1051F000FEF776FD0028D3D020460021FEF792FD71
:10520000B0FA80F0400910BD10B500210446FFF748
:1052100013F808B9012010BD00212046FFF7D8F887
:105220000028F7D000212046FEF79EFD0028F1D08F
:1052300000212046FEF7F6FE0028EBD02046002194
:10524000FEF764FEB0FA80F0400910BD10B50021F1
:105250000446FEF769FF08B9012010BD0021204671
:10526000FFF72EF80028F7D000212046FEF72AFB92
:105270000028F1D020460021FEF768FBB0FA80F04C
:10528000400910BD10B500210446FEF771FA08B9B7
:10529000012010BD00212046FEF736FB0028F7D084
:1052A00000212046FEF752FB0028F1D020460021C5
:1052B000FFF7FEF8B0FA80F0400910BD10B50021EC
:1052C0000446FEF797FF08B9012010BD00212046D3
:1052D000FFF75CF80028F7D000212046FEF744FDD8
:1052E0000028F1D000212046FEF7E2FE0028EBD096
:1052F00020460021FEF7BAFEB0FA80F0400910BD4A
:105300000C2909D810B541F21114012303FA01F256
:1053100014401CB9184610BD01207047FEF78EFAE4
:10532000B0FA80F0400910BD30B583B00C460DF1E5
:1053300006010546FEF70AF9B0B19DF80630022BCA
:1053400015D028460DF10701FEF77CF860B19DF8F5
:1053500007300C2B20D8DFE803F0131F1F1F171F87
:105360001F1F1B1F1F1F0F00012003B030BD0C4B60
:105370000020236003B030BD0A4B00202360F4E717
:10538000094B00202360F0E7084B00202360ECE786
:10539000074B00202360E8E7064B01202360E4E789
:1053A00000008C4000008C4200000C4100008C4149
:1053B00000000C42000080BF08B538291ED8DFE885
:1053C00001F01F1D1D1D1D1D1D1D1F1D1D1D1D1D52
:1053D0001D1D1F1D1D1D1D1D1D1D1F1D1D1D1D1DF9
:1053E0001D1D1F1D1D1D1D1D1D1D1F1D1D1D1D1DE9
:1053F0001D1D1F1D1D1D1D1D1D1D1F00012008BD84
:10540000FEF70CF9B0FA80F0400908BD70B50D4602
:1054100006461E492846FBF7A1F900BB04461C4975
:105420002846FBF79BF930B100213046FEF76CF8B7
:1054300068B9012070BD17492846FBF78FF9B0B154
:10544000002130460424FEF75FF80028F1D0214601
:105450003046FDF7D5FFB0FA80F0400970BD304608
:105460000221FEF751F8B0FA80F0400970BD0A49F8
:105470002846FBF773F900210028304614BF0824A2
:105480000C24FEF741F80028D3D0E0E70000FA42F0
:10549000000075430000FA4300007A4438B5837970
:1054A0000546012B0C463DD083684E4920461D68B9
:1054B000FBF754F9002831D14B492046FBF74EF950
:1054C000002871D149492046FBF748F9002867D1E7
:1054D00047492046FBF742F900286BD14549204651
:1054E000FBF73CF900286BD143492046FBF736F91E
:1054F000002863D141492046FBF730F9002863D1E9
:105500003F492046FBF72AF9002861D120463D4952
:10551000FBF724F900285DD13B4B00E0314B6B6079
:10552000002038BD2F492046FBF718F938B110216B
:105530002846FDF7B7FFB0FA80F0400938BD2A4988
:105540002046FBF70BF9002832D128492046FBF70B
:1055500005F9002830D126492046FBF7FFF800283E
:1055600030D124492046FBF7F9F800282ED12249F2
:105570002046FBF7F3F800282ED120492046FBF700
:10558000EDF858BB1E492046FBF7E8F840BB1D4923
:105590002046FBF7E3F8002814BF9021A021C7E7BD
:1055A000124B00206B6038BD0F4B00206B6038BD84
:1055B0002021BDE70E4BB2E73021B9E70E4BAEE735
:1055C0000C4BACE74021B3E70C4BA8E75021AFE709
:1055D0000B4BA4E70B4BA2E76021A9E77021A7E7DB
:1055E0008021A5E7000050410000D041000050425A
:1055F0000000D042000050430000D043004050441F
:105600000080CF44002050450020D04508B5837964
:10561000012B18D083681B68042920D8DFE801F02B
:1056200003030B0F0700124A5A60002008BD114AFD
:1056300000205A6008BD104A00205A6008BD0F4A79
:1056400000205A6008BD042909D8DFE801F00303EF
:105650000C0A0E001021FDF725FF0028E5D10120DE
:1056600008BD3021F7E72021F5E74021F3E700BF2F
:10567000000050410000D0420000D04100005042E4
:1056800008B5FDF70DFEB0FA80F0400908BD00BF77
:1056900038B583790546012B0C463DD083684E49C9
:1056A00020461D68FBF75AF8002831D14B492046A7
:1056B000FBF754F8002871D149492046FBF74EF812
:1056C000002867D147492046FBF748F800286BD1EE
:1056D00045492046FBF742F800286BD14349204654
:1056E000FBF73CF8002863D141492046FBF736F828
:1056F000002863D13F492046FBF730F8002861D1EC
:1057000020463D49FBF72AF800285DD13B4B00E0DD
:10571000314B6B60002038BD2F492046FBF71EF847
:1057200038B110212846FDF739FEB0FA80F0400963
:1057300038BD2A492046FBF711F8002832D1284904
:105740002046FBF70BF8002830D126492046FBF70E
:1057500005F8002830D124492046FAF7FFFF002839
:105760002ED122492046FAF7F9FF00282ED12049F0
:105770002046FAF7F3FF58BB1E492046FAF7EEFF22
:1057800040BB1D492046FAF7E9FF002814BF9021CD
:10579000A021C7E7124B00206B6038BD0F4B0020E3
:1057A0006B6038BD2021BDE70E4BB2E73021B9E771
:1057B0000E4BAEE70C4BACE74021B3E70C4BA8E730
:1057C0005021AFE70B4BA4E70B4BA2E76021A9E701
:1057D0007021A7E78021A5E7000050410000D041DB
:1057E000000050420000D042000050430000D0436F
:1057F000004050440080CF44002050450020D04558
:10580000012901D90120704708B5FEF725FAB0FA41
:1058100080F0400908BD00BF08B50123FDF730FD49
:10582000B0FA80F0400908BD00B583B002AB03F8C0
:10583000012D1A460123FDF72BFDB0FA80F0400937
:1058400003B05DF804FB00BF38B583790446012B33
:105850000D4639D08368244A1B685A6000212046CF
:10586000FDF74AFD08B9012038BD06212046FEF7A4
:105870001FFC0028F7D000212046FEF7D3FB0028AC
:10588000F1D000212046FEF7ABFB0028EBD0002131
:105890002046FEF781FB0028E5D003212046FEF7D5
:1058A000E5FB0028DFD080212046FEF75DFA0028C6
:1058B000D9D085B1012DD6D120461021FEF766FD45
:1058C000B0FA80F0400938BD6021FDF767FD00287F
:1058D000C4D1012038BD20461021FEF78BFCB0FA60
:1058E00080F0400938BD00BF0000D04338B583794F
:1058F0000446012B0D4621D08368184A1B685A6064
:1059000000212046FDF7F8FC08B9012038BD04212C
:105910002046FEF71BF80028F7D008212046FDF7A7
:10592000D1FF0028F1D085B1012DEED12046022112
:10593000FEF7C6FCB0FA80F0400938BD2021FDF723
:105940002DFD0028DCD1012038BD20460221FEF7C4
:10595000EBFBB0FA80F0400938BD00BF0000D04139
:1059600010B583790446012B24D08368154A1B683F
:105970005A6000212046FDF7BFFC08B9012010BD88
:1059800017212046FEF794FD0028F7D00421204679
:10599000FDF7DCFF0028F1D010212046FDF7B4FF11
:1059A0000028EBD020468021FDF7E2FEB0FA80F01F
:1059B000400910BD2021FDF7F1FC0028D9D10120BC
:1059C00010BD00BF0000D041F0B583B000240D46EB
:1059D0006946ADF804400094FDF7C0FCB8B19DF8ED
:1059E00005009DF804309DF8017003EB002320466C
:1059F0009DF800109DF803609DF8022001EB07213F
:105A000002EB062229806A80AB8003B0F0BD012042
:105A100003B0F0BDF0B583B000240D466946ADF883
:105A200004400094FDF71EFDB8B19DF805009DF8F7
:105A300004309DF8017003EB002320469DF8001010
:105A40009DF803609DF8022001EB072102EB06227E
:105A500029806A80AB8003B0F0BD012003B0F0BDA7
:105A600038B58379012B10D0836804461B6826491A
:105A70005D682846FAF772FE48B110212046FDF70E
:105A80008DFC00282FD00123A371002038BD1F49B1
:105A90002846FAF763FE40BB1D492846FAF75EFE2A
:105AA00028BB1C492846FAF759FE10BB1A4928465C
:105AB000FAF754FEF8B919492846FAF74FFEE0B94B
:105AC00017492846FAF74AFEC8B916492846FAF790
:105AD00045FEB0B914492846FAF740FE002814BF25
