:020000040800F2
:10000000008001208D0700086D07000871070008B7
:10001000DD070008DD070008DD070008000000001C
:10002000000000000000000000000000DD070008E4
:100030007507000800000000DD07000879070008C8
:10004000DD070008DD070008DD070008DD07000800
:10005000DD070008DD070008DD070008DD070008F0
:10006000DD070008DD0700087D070008DD07000840
:10007000DD070008DD070008DD070008DD070008D0
:10008000DD070008DD070008DD07000800000000AC
:10009000000000000000000000000000DD07000874
:1000A000DD070008DD070008DD070008DD070008A0
:1000B000DD070008DD070008DD070008DD07000890
:1000C000DD070008DD070008DD070008DD07000880
:1000D000DD070008DD070008DD070008000000005C
:1000E00085070008DD070008DD07000800000000A4
:1000F000000000000000000000000000DD07000814
:1001000000000000DD070008DD070008DD0700082B
:1001100000000000000000000000000000000000DF
:10012000DD070008DD070008DD070008DD0700081F
:10013000DD070008000000000000000000000000D3
:10014000000000000000000000000000DD070008C3
:10015000DD070008DD070008DD070008DD070008EF
:10016000DD070008DD0700080000000000000000B7
:10017000000000000000000000000000000000007F
:1001800000000000DD070008000000000000000083
:10019000DD070008044B05481B1A062B02D9044B47
:1001A00003B11847704700BF1F0200201C02002047
:1001B0000000000005490648091A891001EBD171B9
:1001C000491002D0034B03B1184770471C020020AE
:1001D0001C0200200000000010B5064C237843B933
:1001E000FFF7D8FF044B13B10448AFF3008001239D
:1001F000237010BD1C0200200000000040650008B4
:1002000008B5084B1BB108490848AFF300800848FF
:10021000036813B9BDE80840CCE7064B002BF9D0C2
:100220009847F7E700000000200200204065000822
:100230001C020020000000007BB972B90029BEBF7B
:1002400000204FF0004106E008BF00281CBF6FF0FF
:1002500000414FF0FF3000F0C9B9ADF1080C6DE975
:1002600004CE002909DB002B1ADB00F04DF8DDF885
:1002700004E0DDE9022304B07047404261EB410134
:10028000002B1BDB00F040F8DDF804E0DDE9022381
:1002900004B0404261EB4101524263EB43037047BB
:1002A000524263EB430300F02FF8DDF804E0DDE990
:1002B000022304B0404261EB41017047524263EBBC
:1002C000430300F021F8DDF804E0DDE9022304B087
:1002D000524263EB4303704753B94AB9002908BF40
:1002E00000281CBF4FF0FF314FF0FF3000F07EB907
:1002F000ADF1080C6DE904CE00F006F8DDF804E07D
:10030000DDE9022304B070472DE9F0478C460E4624
:100310000446089D002B50D18A4217466CD9B2FA88
:1003200082FEBEF1000F0BD0CEF1200420FA04F4BF
:1003300001FA0EF644EA060C02FA0EF700FA0EF481
:100340004FEA1749220CBCFBF9F01FFA87F809FBAA
:1003500010C642EA064600FB08F3B34209D9F61973
:1003600000F1FF3280F02281B34240F21F81023857
:100370003E44F61AA2B2B6FBF9F309FB136642EA51
:10038000064403FB08F8A04509D9E41903F1FF323C
:1003900080F00A81A04540F20781023B3C44C8EB53
:1003A000040443EA00400021002D62D024FA0EF438
:1003B00000232C606B60BDE8F0878B4207D9002DCD
:1003C00055D0002185E841000846BDE8F087B3FA22
:1003D00083F1002940F09080B34202D3824200F2C0
:1003E000F880841A66EB03060120B446002D40D045
:1003F00085E81010BDE8F08712B90127B7FBF2F7C6
:10040000B7FA87FEBEF1000F35D1F31B4FEA17484C
:100410001FFA87FC0121B3FBF8F0220C08FB103611
:1004200042EA06460CFB00F3B34207D9F61900F185
:10043000FF3202D2B34200F2CE801046F61AA2B2C8
:10044000B6FBF8F308FB136642EA06440CFB03FC18
:10045000A44507D9E41903F1FF3202D2A44500F202
:10046000B5801346CCEB040443EA00409CE72946E0
:100470002846BDE8F087CEF1200106FA0EF307FA10
:100480000EF720FA01F94FEA1748CE4049EA03096E
:10049000B6FBF8FA4FEA194408FB1A661FFA87FC04
:1004A00044EA06430AFB0CF29A4200FA0EF40AD917
:1004B000DB190AF1FF3180F087809A4240F2848094
:1004C000AAF1020A3B449B1A1FFA89F9B3FBF8F11F
:1004D00008FB113349EA034301FB0CF69E4207D99E
:1004E000DB1901F1FF326BD29E4269D902393B44DC
:1004F0009B1B41EA0A418EE7C1F1200E22FA0EF45D
:100500008B40234320FA0EF706FA01F44FEA134C0E
:1005100026FA0EF63C43B6FBFCF9270C0CFB1966D9
:100520001FFA83F847EA064609FB08F7B74202FAC2
:1005300001F200FA01FA08D9F61809F1FF3041D2A8
:10054000B7423FD9A9F102091E44F61BA0B2B6FB7F
:10055000FCF40CFB146640EA064704FB08F8B845B7
:1005600007D9FF1804F1FF3028D2B84526D9023C3C
:100570001F4444EA0940C8EB0707A0FB02894F4526
:1005800044464E4614D329D065B3BAEB040367EB57
:10059000060707FA0EFECB40CF404EEA030385E87C
:1005A00088000021BDE8F0871346F8E61046E0E633
:1005B000B8EB020469EB03060138E5E70446D8E727
:1005C000114695E78146C0E78A467CE7023B3C44FA
:1005D00048E708460AE702383E442FE7C245E7D31A
:1005E0003E46D1E72946BDE8F08700BF704700BF0F
:1005F000F0B595B000241D4B0194196C1C4A41F0D4
:10060000805119641B6C03F080530193019B029489
:10061000136823F4404343F40043136013680F94BA
:1006200003F44043022502930421102307220127EB
:100630004FF4A87608A8DDF808E00C931093129107
:10064000139208950E950B97119600F08FFF0F22CD
:100650004FF48053294603A8049505940794039208
:10066000069301F079F915B0F0BD00BF00380240E3
:10067000007000402DE9F04F83B000F0D5F82A4C0F
:10068000FFF7B6FF002001F01FFD0121002001F05F
:1006900057FD2146002001F0E3FB01283FD0234D08
:1006A000206801F0D3FCA8462646A1460027A246B2
:1006B00003E02B78DBB9A37933BB2379002BF8D087
:1006C00001A93068377101F0E9FC83460028F0D1B8
:1006D0009DF804301B07ECD501F01EFD642000F0EE
:1006E000CFF8584601F022FD2B78002BE3D00121F2
:1006F000206801F0BBFC0028DDD1012388F8000050
:100700007371A379002BD8D0D9F8000001F0BAFC9E
:100710000028D2D18AF805008AF80600CDE700202B
:1007200001F0FAFCFEE700BF3802002000000020C4
:10073000B0F5005F08B505D0102802D1094B0122A1
:100740001A7108BD002001F03BFD0028F9D1054BCE
:100750005A7912B101229A7108BD034B01221A7015
:1007600008BD00BF3802002000000020704700BF15
:10077000FEE700BF704700BF00F070B8102000F027
:10078000F1B900BF4FF4005000F0ECB9DFF834D0FD
:10079000002103E00C4B5B58435004310B480C4BD9
:1007A00042189A42F6D30B4A02E0002342F8043B77
:1007B000094B9A42F9D301F077F905F09BFEFFF758
:1007C00059FF704700800120E0650008000000200C
:1007D0001C0200201C020020E8020020FEE70000AE
:1007E000704700BF70B50E4B0E4D1B682A78064649
:1007F0004FF47A70B0FBF2F0B3FBF0F000F0A8F821
:1008000008B90F2E01D9012070BD044602463146B9
:100810004FF0FF3000F058F86E60204670BD00BF0A
:100820000C0000200400002008B50B4B1A6842F4AD
:1008300000721A601A6842F480621A601A6842F400
:1008400080721A60032000F02DF80F20FFF7CAFF16
:10085000FFF7C6FF002008BD003C0240034A0449E0
:10086000136809780B441360704700BFDC02002056
:1008700004000020014B1868704700BFDC02002014
:1008800038B50446FFF7F6FF631C054602D0044B5B
:100890001B781C44FFF7EEFF401B8442FAD838BD9A
:1008A00004000020074AD1684FF6FF030B40000206
:1008B00043F0BF6300F4E06043F400330343D360CC
:1008C000704700BF00ED00E0194BDB68C3F3022363
:1008D00030B4C3F10705042D03F1040428BF042537
:1008E000062C18D9033B01249C40013C22400124E2
:1008F000AC40013C214001FA03F3002842EA030224
:100900000CDB00F1604000F561401201D2B280F8CA
:10091000002330BC704700221346E8E7054B00F087
:100920000F0012010344D2B21A7630BC704700BFE8
:1009300000ED00E0FCEC00E000F01F0101234009A5
:10094000024A8B4042F82030704700BF00E100E0CF
:100950000138B0F1807F0ED2084B10B4084C5860BB
:10096000F02084F823000022072110469A601960C5
:100970005DF8044B70470120704700BF10E000E0B5
:1009800000ED00E02DE9F04FD1F800C0DFF8B881AC
:10099000DFF8B8E183B000254FF0010903E001352D
:1009A000102D00F0838009FA05F232EA0C03F6D12B
:1009B0004C6824F01006022E7BD04FEA450A032330
:1009C000076803FA0AF3DB4304F0030B1F400BFA3A
:1009D0000AFB013E4BEA0707012E076040F28C80BC
:1009E000C7688E683B4006FA0AF63343C360E300EB
:1009F000D5D500230193D8F8443043F48043C8F898
:100A00004430D8F8443025F0030606F1804603F45C
:100A1000804306F59C36019305F00303019FD6F849
:100A200008A09B000F279F402AEA070B424FB842BD
:100A300072D007F58067B84270D0404FB84270D08E
:100A40003F4FB84272D03F4FB8420CBF4FF0040A3C
:100A50004FF0070A0AFA03F343EA0B03B360DEF828
:100A60000030D643E7034CBF13433340CEF8003089
:100A7000DEF80430A7034CBF13433340CEF80430F4
:100A8000DEF80830E7024CBF13433340CEF808309D
:100A9000DEF80C30A40205F1010554BF06EA03029A
:100AA0001A43102DCEF80C207FF47DAF03B0BDE8C3
:100AB000F08F4FEAD50A00EB8A0A05F00703DAF84F
:100AC00020700E699B004FF00F0B0BFA03FB27EA17
:100AD0000B0706FA03F33B43CAF820304FEA450AF6
:100AE0000323066803FA0AF3DB4304F003071E40FE
:100AF00007FA0AF73E4306608668CF681E4007FA89
:100B00000AF7374387604668C4F3001726EA0206EF
:100B1000AF403E43466063E700239DE709FA03F3D5
:100B20009AE74FF0020A0AFA03F395E74FF0030A37
:100B30000AFA03F390E700BF0000024000080240F9
:100B4000000C02400010024000380240003C01400E
:100B50000369194214BF01200020704702B909043B
:100B600081617047044A5169014200D1704708B55C
:100B70005061FFF7DDFD08BD003C0140F8B50446BB
:100B80000D46164623685869C04310F0020026D06F
:100B90005A69510511D51A6800216FF4806742F433
:100BA0000072042620251A6001205F61266484F803
:100BB0003C10216384F83D50F8BD6A1CE3D045B970
:100BC00000232022236384F83C3084F83D20032056
:100BD000F8BDFFF74FFE801B8542D3D2F0E7F8BD8A
:100BE0002DE9F0410546006882B00668089C8846F9
:100BF00046F480711F4616460160621C41D143696C
:100C0000DB07FCD508F0FE010161631C14D04369C9
:100C10009B0714D443695A053FD4002C00F09380FD
:100C2000FFF728FE099BC01A8442C0F08C80286818
:100C3000EBE743695A0530D443699907F9D5002396
:100C400001934369019383690193019B621C5CD109
:100C500043691B0648D443695905F9D500236FF44D
:100C60008064042120224461296485F83C302B6390
:100C700085F83D202B6C042B2FD0032002B0BDE85B
:100C8000F0814369D907BDD4E4B1FFF7F3FD099BB7
:100C9000C01A844216D32868AFE7036800226FF4B5
:100CA000806643F4007304242021036046612C64B1
:100CB00085F83C202A6385F83D102B6C042BDCD191
:100CC0000120DBE7002320222B6385F83C3085F8E8
:100CD0003D20032085F83E30D0E72A68136843F4AE
:100CE000007313600120C9E7012F0AD0330A0361A2
:100CF000671C19D14369190603D443695A05ADD459
:100D0000F8E7F6B206610020B8E743691A06EBD4AB
:100D100043695905A2D4F4B1FFF7ACFD099BC01A91
:100D2000844218D3286891E743691B06E9D44369D4
:100D30005B0593D47CB1FFF79DFD099BC01A8442EB
:100D400009D32868D4E7002320222B6385F83C30A0
:100D500085F83D20B1E72B6C002243F020032021D1
:100D60002B6485F83C202A6385F83D1082E700BF9C
:100D70002DE9F043044600688946016841F480612A
:100D8000016083B001680A9E0B9D41F48071174693
:100D900098460160711C42D14369DA07FCD55FFABD
:100DA00089F909F0FE030361721C13D043699A07A5
:100DB00013D4436959053DD4002E00F0A880FFF7F5
:100DC00059FD401B8642C0F0A2802068ECE74369D1
:100DD00059052FD443699B07F9D500230193436933
:100DE000019383690193019B711C63D143691A06C6
:100DF00047D443695B05F9D500236FF4806504216E
:100E000020224561216484F83C30236384F83D202E
:100E1000236C042B2ED0032003B0BDE8F08343697C
:100E2000DB07BCD4DEB1FFF725FD401B864216D39D
:100E30002068AFE7036800226FF4806643F4007314
:100E40000425202103604661256484F83C20226348
:100E500084F83D10236C042BDDD10120DCE7002356
:100E60002022236384F83C3084F83D20032084F85A
:100E70003E30D1E72268136843F400731360012009
:100E8000CAE7B8F1010F0AD03B0A0361731C2FD1E6
:100E90004369190603D443695A05ADD4F8E7FFB294
:100EA0000761711C15D143691A0638D443695B0583
:100EB000A2D4F8E743691906E3D443695B059BD4E0
:100EC000002E4CD0FFF7D6FC401B864247D320684B
:100ED0008AE743691F0622D443695F058CD4002E3C
:100EE0003DD0FFF7C7FC401B864238D32068D8E7C7
:100EF00043691B06D3D443695A053FF57DAF76B3EA
:100F0000FFF7B8FC401B864229D32068BEE70023C8
:100F10002022236384F83C3084F83D209AE703685C
:100F200043F480730360711C0DD14369DA07FCD56B
:100F300049F0010303612A4631462046FFF71EFEB1
:100F4000002887D168E74369DB07F1D4002E86D0FB
:100F5000FFF790FC401B864281D32068E3E7236CB7
:100F6000002243F020032021236484F83C202263E4
:100F700084F83D104CE700BF704700BF00286CD0DC
:100F8000F8B590F83D30044603F0FF02002B4FD037
:100F90002268334D242384F83D30136823F0010385
:100FA000136000F071FD2F4A61682368A2FB0062A4
:100FB000920CA9425A6026D84900B0FBF1F0C0F368
:100FC0000B01013203291A6298BF0420256AD4F864
:100FD0001CE02769E1686669A269D86139434EEA75
:100FE0000500324318609960DA601968002241F008
:100FF0000101202519601046226484F83D502263C7
:1010000084F83E20F8BD4FF49675174FA66805FB8F
:1010100002F2A7FB0252920901321A626EB901EB89
:101020004101B0FBF1F0C0F30B029AB90120CDE70A
:1010300080F83C20FFF7A0FFAAE701EB810101EB5C
:101040008101B0FBF1F0C0F30B02002AEED040F4B6
:101050004040BBE740F40040B8E70120704700BFC4
:10106000A086010083DE1B43D34D6210704700BF92
:10107000B0B10268242310B580F83D30136823F026
:10108000010304461360FFF7F1FF0023236484F893
:101090003C3084F83D301846236384F83E3010BD60
:1010A000012070472DE9F047044682B098460E466D
:1010B0001746BDF82C90FFF7DDFB94F83D30202B50
:1010C00004D00226304602B0BDE8F087054605E0B0
:1010D000FFF7D0FB401B192800F28B802268936930
:1010E000DB4313F0020AF3D094F83C30012BE8D034
:1010F00013680121D80784F83C1002D413680B430D
:10110000136013685B4923F4006313604FF0000A17
:101110002122402384F83D2084F83E30C4F840A0CA
:10112000A4F82A90E162608D0A9B636231460C9EAE
:1011300000960195434620853A462046FFF750FD2C
:101140000646002870D12368228D002A29D00C9AE7
:10115000013259D15A6912062DD45A695705F9D569
:1011600000226FF48065042020215D61206484F8F2
:101170003C20226384F83D10236C042B74D003269A
:10118000A0E75A69520756D45A695705E8D40C9B10
:10119000002B5DD0FFF76EFB0C9B401B834257D3A7
:1011A00023680C9A0132ECD15A69500743D45A692A
:1011B0005105D5D4F8E7606A278D421C6262027837
:1011C0001A61618D013989B2618559697A1E92B2BD
:1011D00049072285B9D5002AE3D0821C6262427891
:1011E0001A61618DBA1E013992B289B22285618578
:1011F000ABE72023C4F830A084F83CA084F83D304D
:10120000022684F83EA05DE75A691006D3D45A69D5
:101210005105A5D40C9BDBB1FFF72CFB0C9B401BAD
:10122000834215D3236892E7236C84F83CA0042BF7
:10123000A5D1012646E71A680021202042F4007259
:101240001A6084F83D0084F83C1084F83E1039E7B9
:10125000236C002243F020032021236484F83C20E7
:10126000226384F83D1087E72268136843F4007313
:101270001360DEE70000FFFF2DE9F04F044687B062
:1012800099460F469046BDF844A0129EFFF7F2FA29
:1012900094F83D30202B04D00227384607B0BDE833
:1012A000F08F054604E0FFF7E5FA401B19283AD80D
:1012B00022689369DB4313F0020BF4D094F83C30BE
:1012C000012BE9D013680121DB0784F83C1002D41C
:1012D00013680B4313601368994923F40063136088
:1012E0004FF0000B2222402384F83D2084F83E304A
:1012F000C4F840B0A4F82AA0E162608D109B63623C
:101300003946019500964B46208542462046FFF718
:101310002FFD074690B1236C84F83CB0042B00F0FD
:10132000E0800327B9E72023C4F830B084F83CB04C
:1013300084F83D30022784F83EB0AEE7228D236862
:1013400092B902905A6902929A690292029A1A68B4
:1013500042F400721A600023202284F83D2084F8B1
:101360003C3084F83E3098E7012A00F0DA80022A07
:1013700000F0E880059059690591996905910599F2
:10138000032A76D8012A00F0AE80022A46D0701CCB
:1013900050D15A695107FCD51A68616A22F48062FB
:1013A0001A601B694A1C62620B70638D228D013BBF
:1013B0009BB2013A63852285701C226845D153692E
:1013C0005907FCD51368616A43F40073136013690D
:1013D0004A1C62620B70638D218D606A2268013B3A
:1013E0009BB2638512694B1E411C238561620270AA
:1013F000228D638D013A013B92B29BB222856385B7
:10140000002AA8D02368BBE75A6952070BD42EB331
:10141000FFF730FA401B864220D32368701CF3D1BB
:101420005A695107FCD51A68616A42F400721A6061
:101430001B69CDE75A695207AED47EB1FFF71AFA9D
:10144000401B86420AD32368A1E753695B07B9D4DE
:1014500026B1FFF70FFA401B8642ADD200232022AF
:10146000236384F83C3084F83D20032784F83E3021
:1014700013E74EB922E05A69D20642D4FFF7FAF9CF
:10148000401B864220D323685A695106F3D5626A0D
:101490001B69511C61621370618D2368228D0139B3
:1014A00089B261855969013A92B249072285A7D567
:1014B000626A1B69511C6162137099E75A69500690
:1014C000E5D45A69D0061CD4236C20221343002192
:1014D000236484F83C1084F83D20236C202B3FF4D7
:1014E00020AF0127D9E636B917E0FFF7C3F9401B53
:1014F0008642E9D323685A695006D9D45A69D1067D
:10150000F3D500226FF0100020215861226484F886
:101510003C20226384F83D10DFE75A695206D0D59B
:10152000C6E7196821F48061196003905969039135
:10153000996903910399196841F4007119601FE7D3
:101540000000FFFF196821F480611960196841F4F7
:101550000061196004905969049199690491049992
:101560000EE700BF90F83D00704700BF002800F074
:101570003C812DE9F0410368DD0782B004462FD598
:10158000AD498A6802F00C02042A00F024818A68BE
:1015900002F00C02082A00F01A816368B3F5803F5C
:1015A00000F05E81B3F5A02F00F0E680A24D2A681E
:1015B00022F480322A602A6822F480222A60002BDA
:1015C00040F0E380FFF756F9064605E0FFF752F9D1
:1015D000801B642800F2F7802B689B03F6D42368F5
:1015E0009F0729D5944A916811F00C0F00F0918063
:1015F000916801F00C01082900F08780E368002B56
:1016000000F012818D4B8C4D01221A60FFF732F9E8
:10161000064605E0FFF72EF9801B022800F2D38072
:101620002B68854A9807F5D51368216923F0F803DC
:1016300043EAC103136023681A0752D4580730D510
:101640007D4A136C13F080537ED000267C4D2B68AE
:10165000D90540F1A880A368012B00F00781052B74
:1016600000F0C580744D2A6F22F001022A672A6FAC
:1016700022F004022A67002B40F0C280FFF7FAF83C
:1016800041F28837804606E0FFF7F4F8C8EB000027
:10169000B84200F298802B6F9807F5D4002E40F0E6
:1016A000EB80A269CAB1644B996801F00C0108296A
:1016B00036D0022A634A4FF00001116000F0E28048
:1016C0001C46FFF7D7F8054604E0FFF7D3F8401BA8
:1016D000022878D823689B01F7D4002002B0BDE827
:1016E000F081636903B3584B534D01221A60FFF731
:1016F000C1F8064604E0FFF7BDF8801B022862D857
:101700006B6F9B07F7D5236898E7526856023FF541
:1017100075AF494A1268950722D5E268012A1FD0A1
:10172000012002B0BDE8F081474A434D1360FFF746
:10173000A1F8064604E0FFF79DF8801B022842D876
:101740006B6F9F07F7D4DEE70193136C43F0805370
:101750001364136C03F080530193019B012675E71A
:10176000354920690A6822F0F80242EAC0020A609C
:101770001A077FF563AFB4E72F4B1A6842F4802253
:101780001A601A6842F480321A60FFF773F82A4D23
:10179000064604E0FFF76EF8801B642813D82B6818
:1017A0009A03F7D51BE72B6843F480732B60FFF790
:1017B00061F807462B68DA053FF54DAFFFF75AF899
:1017C000C01B0228F6D9032002B0BDE8F0814A68A8
:1017D00050027FF5E2AE184A126891037FF500AF20
:1017E0006268002A7FF4FCAE9AE701207047124B32
:1017F0001A6F42F004021A671A6F42F001021A6768
:10180000FFF738F80C4D804641F2883705E0FFF7C6
:1018100031F8C8EB0000B842D5D82B6F9B07F6D53E
:10182000002E3FF43EAF27E0044A034D1360FFF75C
:1018300021F806460FE000BF003802400000474292
:101840000070004060004742800E4742FFF712F8E8
:10185000801B0228B7D82B689907F7D42368EBE6DA
:10186000204A136843F4803313608EE71D4A136FD8
:1018700043F001031367C3E71A4A136C23F0805344
:1018800013640EE71D46FEF7F5FF064604E0FEF77B
:10189000F1FF801B022896D82B68124A9901F6D4D2
:1018A000E669216A636AA06AE56A0F4C314341EA3E
:1018B0008313410843EA0563013943EA01430121E7
:1018C000536021601446FEF7D5FF054605E0FEF79C
:1018D000D1FF401B02283FF676AF23689A01F6D568
:1018E000FBE600BF0038024060004742174908B5D8
:1018F0008B6803F00C03042B1BD0082B17D14A680C
:101900004B6813F4800302F03F0214D14968104879
:10191000C1F38811A1FB0001FEF7DEFC0B4B5B68F5
:10192000C3F3014301335B00B0FBF3F008BD08488B
:1019300008BD084808BD4B680648C3F38813A3FBDD
:1019400000010023FEF7C8FCE8E700BF00380240B2
:101950000024F40000127A002DE9F04160B1464AFB
:10196000136803F00F038B4209D2CBB213701368D4
:1019700003F00F03994202D00120BDE8F081036813
:101980009D0714D55C0704D53C4CA26842F4E05294
:10199000A2601A0704D5394CA26842F46042A260E2
:1019A000364D8268AC6824F0F0042243AA60DF0759
:1019B00004460D4622D54368012B58D09A1E012AB1
:1019C0002E4A12684DD99107D6D52C4EB26822F016
:1019D00003021343B360FEF74DFF41F288378046A0
:1019E00005E0FEF747FFC8EB0000B8423CD8B368FB
:1019F000626803F00C03B3EB820FF2D11E4A136846
:101A000003F00F039D4206D2EBB21370136803F08C
:101A10000F039D42B0D123685A0706D51748E268E4
:101A2000816821F4E0510A4382601B0707D5134AFD
:101A30002169936823F4604343EAC1039360FFF78D
:101A400055FF0E4B0E499B680E4AC3F30313CB5C44
:101A500020FA03F30F201360FEF7C4FE0020BDE858
:101A6000F0819001B1D487E70320BDE8F081034AFB
:101A700012689603A9D47FE7003C02400038024078
:101A8000586500080C000020044B054A9B68054976
:101A9000C3F382230868D35CD84070470038024003
:101AA000686500080C0000201049114BD1F888200F
:101AB00042F4700210B4C1F888201A680D4C00205E
:101AC00042F001021A6098601A6822F0847222F4CF
:101AD00080321A605C601A684FF0006422F4802241
:101AE0001A60D8608C605DF8044B704700ED00E030
:101AF0000038024010300024F0B52C4C89B020464C
:101B0000FFF730FD38B12948FFF72CFD203818BF0A
:101B1000012009B0F0BD264E0190264B2360336BA7
:101B2000254A054643F00203A5603363336B6260C8
:101B300003F00203019333224FF480434FF44071CA
:101B4000E26023610222042303911C48DDF804E0D3
:101B5000069203A91227079305950497FEF712FF33
:101B60000295336C43F400133364336C03F40013B5
:101B70000293029B336A43F400133362336A23F403
:101B800000133362294601221F20FEF79DFE1F200D
:101B9000FEF7D2FE2A4629462020FEF795FE202099
:101BA000FEF7CAFE2046FFF7E9F9ACE74002002045
:101BB0000038024000540040801A06000004024031
:101BC000F0B52C4C89B02046FFF7CCFC38B1294841
:101BD000FFF7C8FC203818BF012009B0F0BD264E21
:101BE0000190264B2360336B254A054643F00203E0
:101BF000A5603363336B626003F002030193332209
:101C00004FF480434FF44071E260236102220423C9
:101C100003911C48DDF804E0069203A912270793FC
:101C200005950497FEF7AEFE0295336C43F400135E
:101C30003364336C03F400130293029B336A43F45E
:101C400000133362336A23F40013336229460122FE
:101C50001F20FEF739FE1F20FEF76EFE2A4629469A
:101C60002020FEF731FE2020FEF766FE2046FFF71B
:101C700085F9ACE7400200200038024000540040E3
:101C8000801A0600000402402DE9F04188B00024CB
:101C9000244D0194049403940694059407942B6BAB
:101CA000214E224F43F002032B632B6B049703F06A
:101CB00002034FF00208019303A920233046039347
:101CC000019ACDF81880FEF75DFE224621461720C6
:101CD000FEF7FAFD1720FEF72FFE029403940494FA
:101CE0000694059407942B6B43EA08032B632B6B34
:101CF000049703EA0803029303A9102330460393D1
:101D0000029ACDF81880FEF73DFE224621460A20B1
:101D1000FEF7DAFD0A20FEF70FFE204608B0BDE808
:101D2000F08100BF003802400004024000001110A2
:101D30002DE9F0470E460178402984B00546174644
:101D400098462FD02CD9B12917D12BB300244FF4AA
:101D5000805A4FF001093B193219A97819480093AC
:101D6000CDF808A0CDF80490D2B20123FFF79AF97C
:101D70000134E8B9A045EED10EE0BC2912D04FF4F1
:101D80008053A9780F480293CDF80480009732461B
:101D90000123FFF787F958B9002004B0BDE8F087A8
:101DA0003329ECD1B8F1010FE9D946F08006E6E716
:101DB0000448FFF75DF908B9FFF79EFE012004B063
:101DC000BDE8F087400200202DE9F0470E4601787B
:101DD000402984B00546174698462FD02CD9B12902
:101DE00017D12BB300244FF4805A4FF001093B194F
:101DF0003219A97819480093CDF808A0CDF80490BD
:101E0000D2B20123FFF738FA0134E8B9A045EED188
:101E10000EE0BC2912D04FF48053A9780F480293EA
:101E2000CDF80480009732460123FFF725FA58B910
:101E3000002004B0BDE8F0873329ECD1B8F1010FE0
:101E4000E9D946F08006E6E70448FFF711F908B93A
:101E5000FFF752FE012004B0BDE8F08740020020E9
:101E6000F8B500250F460D600646724C002800F0BC
:101E7000978001282FD1637E012B00F08F80FFF720
:101E80009FFE012800F08A8023466B4A43F8402FCA
:101E90004FF0330C4FF0320E04F13001674A657594
:101EA00004F1140026766576A576E676236384F839
:101EB00014C084F816E0226265626563E1613860EF
:101EC000236A1B68002B00F09F809847012800F0D0
:101ED00093800020F8BD6379012B2DD0FFF770FEB1
:101EE000012829D02346564A43F8382F4FF06A0E6E
:101EF000A362D626534B544A6570012004F1280191
:101F000025716571A57184F800E0A670E071E2604A
:101F10002361E562A1603C60E3681B68002B00F070
:101F2000828020469847012862D13B681D605D6031
:101F30009D60DD601D613D60637E3E4D012B2DD0B7
:101F4000FFF73EFE012829D02B463B4A43F8402F9D
:101F500032200026A87501222B634FF0330E374B39
:101F600085F814E005F1300105F114006E756E7608
:101F7000AE762A76EA762B626E626E63E96138602D
:101F80002B6A1B68002B3FD098470128A1D13B68E2
:101F90001E605E609E60DE601E613E600120F8BDD6
:101FA0006379012BFAD0FFF70BFE0128F6D0234608
:101FB000234A43F8382F4FF06A0EA362D625214BEF
:101FC000214A6670012004F1280126716671A6710C
:101FD00084F800E0A570E071E2602361E662A16030
:101FE0003C60E3681B68BBB1204698470128CED00F
:101FF000FFF74AFE0020F8BD3B681D605D609D60F4
:10200000DD601D613D60C9E700236361436083605B
:10201000C36003613B60C1E723606360A360E3606A
:1020200023613B60BAE723606360A360E3602361E0
:102030003B6081E794020020E00200201C000020A9
:10204000E402002048010020BC00002060B108B577
:10205000C3689B6833B19847A0F10100B0FA80F0E3
:10206000400908BD012008BD0120704720B1026968
:1020700012B103786A2B01D001207047936B002BBB
:10208000FAD0184720B1026912B103786A2B01D047
:1020900001207047D36B002BFAD0184788B1026932
:1020A0007AB110B411B103786A2B03D001205DF826
:1020B000044B7047D2F89430002BF7D05DF8044BF6
:1020C00018470120704700BFF0B587B00024104BBF
:1020D00000941A6B0F4D42F001021A631B6B0394BC
:1020E00003F001030646009355F82000009B2027CB
:1020F0000223012201A9029204930197FEF742FCF8
:102100002246394655F82600FEF728FD07B0F0BDF7
:102110000038024010000020034B012253F8200039
:102120002021FEF71BBD00BF10000020034B002242
:1021300053F820002021FEF711BD00BF1000002041
:1021400030B587B01B4B002500951C6B44F0040490
:102150001C631B6B03F004030093009B19B101295E
:1021600011D007B030BD144B029103EB80004FF447
:10217000005301934068022301A903930493FEF7DF
:1021800001FC07B030BD0C4B0C4A029203EB8000FF
:1021900001A94FF40053406801930395FEF7F2FB49
:1021A0002A460F212820FEF78FFB2820FEF7C4FBCC
:1021B00007B030BD003802401000002000002110A0
:1021C00008B5044B03EB80004FF400514068FEF764
:1021D000BFFC08BD1000002008B5FFF7A9FDB0FA4C
:1021E00080F0400908BD00BF08B5FFF7EDFDB0FA6B
:1021F00080F0400908BD00BF08B50A4601230F2141
:10220000FFF7E2FDB0FA80F0400908BD30B583B0B9
:102210000C460DF10702012323210546FFF7D4FDEB
:1022200010B1002003B030BD9DF8073003F07F03EC
:102230001C430DF107022846012323218DF8074096
:10224000FFF776FDB0FA80F0400903B030BD00BF63
:1022500030B583B00C460DF107020123232105465A
:10226000FFF7B2FD10B1002003B030BD9DF807307C
:1022700023F030031C430DF10702284601232321DC
:102280008DF80740FFF754FDB0FA80F0400903B025
:1022900030BD00BF10B50A460C4601232321FFF7CD
:1022A00093FD08B1002010BD237803F030032370A4
:1022B000012010BD08B50A4606232821FFF784FD3A
:1022C000B0FA80F0400908BD2DE9F04184B00D4618
:1022D00001230DF1060223210646FFF775FD28B9FB
:1022E0009DF8063003F008038DF8063001230DF148
:1022F000050220213046FFF767FD002879D09DF8C0
:10230000050008287ED0002840F082809DF8063025
:10231000002B40F0828001244FF0060801230DF1CC
:10232000070223213046FFF74FFD00287CD09DF89F
:102330000700202800F08180302800F08480A0F180
:102340001007B7FA87F77F0902AA3046062328212B
:10235000FFF73AFD3D4ABDF9083007EB840002EB78
:10236000C00152F830604C6843FA08F000FB04F1F9
:10237000C31706FB0313A0FB060110F5FA701944FE
:1023800041F100014FF47A720023FDF755FFBDF9CA
:102390000A30286043FA08F000FB04F1C31706FB7B
:1023A0000313A0FB060110F5FA70194441F1000176
:1023B0004FF47A720023FDF73FFFBDF90C306860DF
:1023C00043FA08F0C31700FB04F406FB0344A0FB28
:1023D000060110F5FA70214441F100014FF47A72C0
:1023E0000023FDF729FF0123A860184604B0BDE8CB
:1023F000F0819DF8050000F00800C0B208288DF8B3
:10240000050080D19DF8063013B98046022485E787
:102410000023184604B0BDE8F081082B0FD0034616
:10242000184604B0BDE8F0819DF8070000F03000C8
:1024300020288DF807007FF47FAF022784E7044649
:102440004FF004086AE703277EE700BF70650008C5
:1024500030B583B00C460DF107020123202105465B
:10246000FFF7B2FC10B1002003B030BD9DF807307B
:1024700003F00F031C430DF107022846012320211E
:102480008DF80740FFF754FCB0FA80F0400903B024
:1024900030BD00BF10B50A460C4601232021FFF7CE
:1024A00093FC08B1002010BD237823F00F032370A4
:1024B000012010BD30B583B00C460DF10702012399
:1024C00020210546FFF780FC10B1002003B030BD8D
:1024D0009DF8073023F001031C430DF10702284645
:1024E000012320218DF80740FFF722FCB0FA80F08D
:1024F000400903B030BD00BF10B50A460C460123A9
:102500002021FFF761FC08B1002010BD237803F003
:1025100001032370012010BD30B583B00C460DF1CE
:102520000702012320210546FFF74EFC10B10020D1
:1025300003B030BD9DF8073023F002031C430DF1BA
:1025400007022846012320218DF80740FFF7F0FB02
:10255000B0FA80F0400903B030BD00BF10B50A46A4
:102560000C4601232021FFF72FFC08B1002010BDED
:10257000237803F002032370012010BD30B583B02F
:102580000C460DF10702012320210546FFF71CFC34
:1025900010B1002003B030BD9DF8073023F00403D4
:1025A0001C430DF107022846012320218DF8074026
:1025B000FFF7BEFBB0FA80F0400903B030BD00BFAA
:1025C00010B50A460C4601232021FFF7FDFB08B198
:1025D000002010BD237803F004032370012010BDF8
:1025E00010B50A460C4601232021FFF7EDFB08B188
:1025F000002010BD237803F008032370012010BDD4
:1026000010B50A460C4601232321FFF7DDFB08B174
:10261000002010BD237803F008032370012010BDB3
:1026200010B50A460C4601232721FFF7CDFB08B160
:10263000002010BD237803F001032370012010BD9A
:1026400030B583B00C460DF1070201232E2105465B
:10265000FFF7BAFB10B1002003B030BD9DF8073082
:1026600003F03F031C430DF10702284601232E21EE
:102670008DF80740FFF75CFBB0FA80F0400903B02B
:1026800030BD00BF10B582B00C460DF10701FFF759
:10269000C7FF40B19DF8070040B1012803D1207069
:1026A000002002B010BD012002B010BD207002B0A9
:1026B00010BD00BF10B582B002AC012304F8012D9B
:1026C0002246FFF789FDB0FA80F0400902B010BD44
:1026D00008B50123FFF788FDB0FA80F0400908BD76
:1026E00030B583B00D460DF105010446FFF704FF38
:1026F00010B9012003B030BD0DF106012046FFF7EF
:102700002DFF0028F5D020460DF10701FFF758FFF7
:102710000028EED09DF805109DF806209DF80730A2
:10272000A1F10101A2F10202A3F10403B1FA81F1C6
:10273000B2FA82F2B3FA83F3490952095B092970AC
:102740006A70AB700020D5E7F0EE007AB4EEE70ACD
:10275000F1EE10FA08B50DD9F1EE007AB4EEE70A01
:10276000F1EE10FA0DD81021FFF772FDB0FA80F0EB
:10277000400908BD0021FFF76BFDB0FA80F0400969
:1027800008BDF2EE007AB4EEE70AF1EE10FA94BF5B
:1027900020213021FFF75CFDB0FA80F0400908BD30
:1027A000022908B50BD0042902D011B1012008BDBF
:1027B0002021FFF74DFDB0FA80F0400908BD10213F
:1027C000FFF746FDB0FA80F0400908BD10B582B0B1
:1027D0000C460DF10701FFF75DFD70B19DF8070094
:1027E000102813D018D920280AD030281AD14FF039
:1027F00083430020236002B010BD012002B010BD51
:102800004FF082430020236002B010BD4FF081439F
:102810000020236002B010BD20B94FF08043236038
:1028200002B010BD024B2360012002B010BD00BFFA
:10283000000080BF10B582B00C460DF10701FFF714
:1028400029FEC0B19DF8070030282AD00AD95028A7
:1028500023D013D960281CD0702808D1164B2360D0
:10286000002009E010280FD0202821D0E8B1134B18
:102870002360012000E0012002B010BD4028F6D105
:102880000F4B23600020F7E74FF07E5323600020BA
:10289000F2E70C4B23600020EEE70B4B2360002097
:1028A000EAE70A4B23600020E6E700232360E3E722
:1028B000074B23600020DFE70000C843000080BF13
:1028C00000004842000048430000C8420000C841E0
:1028D00000002041F0B583B00E460DF1050105461C
:1028E000FFF77EFE10B9012003B0F0BD0DF1060127
:1028F0002846FFF785FE0028F5D09DF80540C4B9AD
:102900009DF806707FB3082FEDD128460DF1070121
:10291000FFF7C0FC0028E6D09DF80700102850D033
:1029200039D9202845D0302831D12E4B33600020B2
:10293000DAE7082CD7D19DF80640002CD3D12846E1
:102940000DF10701FFF7A6FC0028CCD09DF8070089
:10295000102843D039D920283CD0302817D1224B19
:1029600033600020C0E728460DF10701FFF792FC15
:102970000028B8D09DF80700102816D010D92028BC
:102980001BD0302803D1194B33603846ACE7184BC5
:1029900033600120A8E70028F9D1164B3360A3E784
:1029A0000028F4D1144B33609EE7144B3360384653
:1029B0009AE7114B3360204696E7114B3360384657
:1029C00092E7104B336020468EE70028DFD10C4B96
:1029D000336089E70C4B3360204685E70B4B33604F
:1029E000204681E71F853B417B943B439A993B42BC
:1029F000000080BF48E17A3F9A997940713DFA40E2
:102A00007B147A419A99F93F7B147A427B14FA41FC
:102A100070B584B00C460DF107010646FFF7F0FDD6
:102A200010B9012004B070BD0DF106013046FFF76A
:102A3000D7FD0028F5D09DF80630082B1AD0002BC2
:102A4000EFD19DF80730DBB90625304602A9FFF724
:102A500031FC0028E5D0BDF90810BDF90A20BDF908
:102A60000C3029412A412B41002021806280A38023
:102A700004B070BD9DF80720002AD2D11D46E4E7BE
:102A8000082BCED10425E0E710B584B00C4601A98F
:102A9000FFF71AFC30B101A90EC9002084E80E002E
:102AA00004B010BD012004B010BD00BF08B5FFF791
:102AB000A3FBB0FA80F0400908BD00BF10B582B09A
:102AC00002A9002301F8013D0446FFF795FB10B968
:102AD000012002B010BD23789DF80700181A18BF16
:102AE000012002B010BD00BF38B50C460978A1F135
:102AF0000101B1FA81F149090546FFF7DBFCA0B1FC
:102B00006378012B0CBF022100212846FFF704FD4A
:102B100058B1A378012B28460CBF04210021FFF7F0
:102B20002DFDB0FA80F0400938BD012038BD00BF4E
:102B300008B58379012B34D0F7EE007A8368B4EEC0
:102B4000E70AF1EE10FA1B6806D9F2EE047AB4EE49
:102B5000E70AF1EE10FA03D8C3ED017A002008BDB0
:102B6000F3EE097AB4EEE70AF1EE10FAF4D9DFEDEC
:102B70002B7AB4EEE70AF1EE10FAEDD9DFED287A00
:102B8000B4EEE70AF1EE10FAE6D9DFED267A9FED12
:102B9000267AB4EEE70AF1EE10FA88BFF0EE477A33
:102BA000DAE7F7EE007AB4EEE70AF1EE10FA2ED982
:102BB000F2EE047AB4EEE70AF1EE10FA1ED9F3EE63
:102BC000097AB4EEE70AF1EE10FA1ED9DFED137AB6
:102BD000B4EEE70AF1EE10FA1BD9DFED117AB4EE8C
:102BE000E70AF1EE10FA16D9DFED0E7AB4EEE70A35
:102BF000F1EE10FA94BF6021702100E02021FFF770
:102C000027FCB0FA80F0400908BD3021F7E7102119
:102C1000F5E74021F3E75021F1E700BF000048420B
:102C20000000C842000048430000C84308B583794B
:102C3000012B1DD083681B68042925D8DFE801F02B
:102C4000070C10140300154A5A60002008BD4FF00D
:102C50007E525A60002008BD114A5A60002008BD0B
:102C6000104A5A60002008BD0F4A5A60002008BD73
:102C7000042909D8DFE801F0030A0C100E00102126
:102C8000FFF7E6FB0028E0D1012008BD2021F7E78F
:102C90003021F5E75021F3E74021F1E70000C84279
:102CA000000020410000C841000048428379012B08
:102CB00029D083681B68D3ED017AB7EE007AF4EE71
:102CC000C77AF1EE10FA10B52AD9B2EE047AF4EE12
:102CD000C77AF1EE10FA18D9B3EE097AF4EEC77A92
:102CE000F1EE10FA1ED99FED167AF4EEC77AF1EEE6
:102CF00010FA19D99FED137AF4EEC77AF1EE10FAB3
:102D000014D8502102E00020704720210446FFF72C
:102D10009FFB18B10123A371002010BD012010BD3D
:102D20001021F3E73021F1E74021EFE79FED067A2C
:102D3000F4EEC77AF1EE10FA94BF60217021E5E756
:102D4000000048420000C8420000484383790BB9A4
:102D50001846704730B5836883B00DF1070104460B
:102D60001D68FFF797FBF0B19DF80730302B32D08C
:102D700012D9502B2CD01FD9602B1AD0702B10D108
:102D8000164B6B6000212046FFF762FB58B1002311
:102D90001846A37103B030BD102B12D0202B05D0E4
:102DA0009BB10F4B6B60012003B030BD0D4B6B60CE
:102DB000E8E70D4B6B60E5E7402BF2D10B4B6B6006
:102DC000E0E74FF07E536B60DCE700236B60D9E7F0
:102DD000074B6B60D6E7074B6B60D3E70000C84337
:102DE000000080BF0000204100004843000048422E
:102DF0000000C8420000C841F0B5836883B01E6877
:102E000002AD0023376805F8013D29460446FFF767
:102E1000F3F910B9012003B0F0BD22789DF8073016
:102E20009A42F7D1A3793BB9002300221846726079
:102E30003B70637103B0F0BDA368294620461D684E
:102E4000FFF728FB0028E5D09DF80730302B29D06C
:102E500011D9502B23D016D9602B1DD0702B0FD138
:102E6000154B6B6000212046FFF7F2FA0028D1D005
:102E70000023A371D8E7102B0AD0202B18D0A3B1C0
:102E80000E4B6B60C6E7402BFAD10D4B6B60E9E748
:102E90004FF07E536B60E5E70A4B6B60E2E70A4B4D
:102EA0006B60DFE7094B6B60DCE700236B60D9E701
:102EB000074B6B60D6E700BF0000C843000080BF2F
:102EC00000004842000048430000C8420000C841DA
:102ED00000002041F0B5836883B01E6802A9002479
:102EE000376801F8014D0546FFF786F920B12A78C9
:102EF0009DF807309A4202D0012003B0F0BD802136
:102F00002846FFF783F90028F6D021462846FFF728
:102F100097FB0028F0D0124B736021462846FFF73C
:102F200097FA0028E8D021462846FFF791F90028B3
:102F3000E2D001212846FFF7BDFA0028DCD00221AB
:102F40002846FFF7E9FA0028D6D004212846FFF7E3
:102F500015FB0028D0D001233B7020466B71CCE7D5
:102F60000000C84208B5FEF72FFFB0FA80F0400914
:102F700008BD00BF08B5FEF7DBFEB0FA80F04009DF
:102F800008BD00BF08B50A4601230F21FEF71CFF4C
:102F9000B0FA80F0400908BD30B583B00C460DF1A1
:102FA0000702012312210546FEF70EFF10B1002093
:102FB00003B030BD9DF8073023F040031C430DF1F2
:102FC00007022846012312218DF80740FEF7B0FEC4
:102FD000B0FA80F0400903B030BD00BF30B583B017
:102FE0000C460DF10702012310210546FEF7ECFE09
:102FF00010B1002003B030BD9DF8073023F00C0362
:103000001C430DF107022846012310218DF80740CB
:10301000FEF78EFEB0FA80F0400903B030BD00BF6D
:1030200010B50A460C4601231021FEF7CDFE08B16B
:10303000002010BD237803F00C032370012010BD85
:103040002DE9F04180460F4603260024A51CEDB271
:1030500004F128013A19C9B201234046FEF7B4FE33
:103060000134E4B248B9A542F2D1731E13F0FF0651
:103070002C46EBD10120BDE8F0810020BDE8F081B5
:1030800030B583B00C460DF107020123102105462F
:10309000FEF79AFE10B1002003B030BD9DF8073056
:1030A00003F00F031C430DF10702284601231021F2
:1030B0008DF80740FEF73CFEB0FA80F0400903B0FF
:1030C00030BD00BF10B50A460C4601231021FEF7A3
:1030D0007BFE08B1002010BD237823F00F0323707E
:1030E000012010BD30B583B00C460DF1070201235D
:1030F00011210546FEF768FE10B1002003B030BD77
:103100009DF8073023F00C031C430DF107022846FD
:10311000012311218DF80740FEF70AFEB0FA80F076
:10312000400903B030BD00BF10B50A460C4601236C
:103130001121FEF749FE08B1002010BD237803F0ED
:103140000C032370012010BD2DE9F04180460F468D
:1031500003260024A51CEDB204F122013A19C9B2DC
:1031600001234046FEF730FE0134E4B248B9A542DF
:10317000F2D1731E13F0FF062C46EBD10120BDE8FF
:10318000F0810020BDE8F08130B583B00C460DF130
:103190000702012311210546FEF716FE10B100209B
:1031A00003B030BD9DF8073003F00F031C430DF151
:1031B00007022846012311218DF80740FEF7B8FDCC
:1031C000B0FA80F0400903B030BD00BF10B50A4628
:1031D0000C4601231121FEF7F7FD08B1002010BDB8
:1031E000237823F00F032370012010BD30B583B086
:1031F0000C460DF10702012311210546FEF7E4FDFF
:1032000010B1002003B030BD9DF8073023F0020359
:103210001C430DF107022846012311218DF80740B8
:10322000FEF786FDB0FA80F0400903B030BD00BF64
:1032300010B50A460C4601231121FEF7C5FD08B161
:10324000002010BD237803F002032370012010BD7D
:1032500030B583B00C460DF1070201230621054667
:10326000FEF7B2FD48B901230DF1070206212846F9
:103270008DF80740FEF75CFD10B1002003B030BDB3
:1032800001230DF1070207212846FEF79DFD0028C6
:10329000F3D19DF80730C4F3022423F007031C4345
:1032A0000DF107022846012307218DF80740FEF79C
:1032B0003FFDB0FA80F04009E0E700BF30B583B0D1
:1032C0000C460DF10702012308210546FEF77CFD9F
:1032D00010B1002003B030BD9DF8073023F0070384
:1032E0001C430DF107022846012308218DF80740F1
:1032F000FEF71EFDB0FA80F0400903B030BD00BFFC
:1033000030B583B00C460DF10702012308210546B4
:10331000FEF75AFD10B1002003B030BD9DF8073014
:1033200023F038031C430DF107022846012308212E
:103330008DF80740FEF7FCFCB0FA80F0400903B0BE
:1033400030BD00BF30B583B00C460DF1070201233C
:1033500009210546FEF738FD10B1002003B030BD4D
:103360009DF8073003F07F031C430DF10702284648
:10337000012309218DF80740FEF7DAFCB0FA80F04E
:10338000400903B030BD00BF30B583B00C460DF12D
:10339000070201230A210546FEF716FD10B10020A1
:1033A00003B030BD9DF8073023F007031C430DF137
:1033B0000702284601230A218DF80740FEF7B8FCD2
:1033C000B0FA80F0400903B030BD00BF30B583B023
:1033D0000C460DF1070201230A210546FEF7F4FC15
:1033E00010B1002003B030BD9DF8073023F0780302
:1033F0001C430DF10702284601230A218DF80740DE
:10340000FEF796FCB0FA80F0400903B030BD00BF73
:1034100030B583B00C460DF1070201230D2105469E
:10342000FEF7D2FC10B1002003B030BD9DF807308C
:1034300023F020031C430DF10702284601230D2130
:103440008DF80740FEF774FCB0FA80F0400903B035
:1034500030BD00BF30B583B00C460DF1070201232B
:103460000D210546FEF7B0FC10B1002003B030BDC1
:103470009DF8073003F07F031C430DF10702284637
:1034800001230D218DF80740FEF752FCB0FA80F0C1
:10349000400903B030BD00BF30B583B00C460DF11C
:1034A0000702012312210546FEF78EFC10B1002011
:1034B00003B030BD9DF8073023F004031C430DF129
:1034C00007022846012312218DF80740FEF730FC41
:1034D000B0FA80F0400903B030BD00BF30B583B012
:1034E0000C460DF10702012314210546FEF76CFC82
:1034F00010B1002003B030BD9DF8073023F0030366
:103500001C430DF107022846012314218DF80740C2
:10351000FEF70EFCB0FA80F0400903B030BD00BFEA
:1035200030B583B00C460DF1070201231421054686
:10353000FEF74AFC10B1002003B030BD9DF8073003
:1035400023F00C031C430DF107022846012314212C
:103550008DF80740FEF7ECFBB0FA80F0400903B0AD
:1035600030BD00BF30B583B00C460DF1070201231A
:1035700019210546FEF728FC10B1002003B030BD2C
:103580009DF8073023F002031C430DF10702284683
:10359000012319218DF80740FEF7CAFBB0FA80F02D
:1035A000400903B030BD00BF30B583B00C460DF10B
:1035B0000702012319210546FEF706FC10B1002081
:1035C00003B030BD9DF8073023F008031C430DF114
:1035D00007022846012319218DF80740FEF7A8FBB2
:1035E000B0FA80F0400903B030BD00BF30B583B001
:1035F0000C460DF10702012319210546FEF7E4FBF5
:1036000010B1002003B030BD9DF8073023F0100347
:103610001C430DF107022846012319218DF80740AC
:10362000FEF786FBB0FA80F0400903B030BD00BF62
:1036300030B583B00C460DF1070201231921054670
:10364000FEF7C2FB10B1002003B030BD9DF807307B
:1036500023F004031C430DF107022846012319211E
:103660008DF80740FEF764FBB0FA80F0400903B024
:1036700030BD00BF10B50A460C4601231B21FEF7E2
:10368000A3FB08B1002010BD237803F008032370CA
:10369000012010BD10B50A460C4601231B21FEF780
:1036A00093FB08B1002010BD237803F020032370A2
:1036B000012010BD10B50A460C4601231C21FEF75F
:1036C00083FB08B1002010BD237803F010032370A2
:1036D000012010BD10B50A460C4601231C21FEF73F
:1036E00073FB08B1002010BD237803F02003237082
:1036F000012010BD10B50A460C4601231D21FEF71E
:1037000063FB08B1002010BD237803F00103237090
:10371000012010BD10B50A460C4601231D21FEF7FD
:1037200053FB08B1002010BD237803F0020323707F
:10373000012010BD10B50A460C4601231D21FEF7DD
:1037400043FB08B1002010BD237803F0040323706D
:10375000012010BD10B50A460C4601231D21FEF7BD
:1037600033FB08B1002010BD237803F00803237059
:10377000012010BD10B50A460C4601231D21FEF79D
:1037800023FB08B1002010BD237803F01003237041
:10379000012010BD10B50A460C4601231D21FEF77D
:1037A00013FB08B1002010BD237803F02003237021
:1037B000012010BD10B50A460C4601231D21FEF75D
:1037C00003FB08B1002010BD237803F040032370F1
:1037D000012010BD10B50A460C4601231E21FEF73C
:1037E000F3FA08B1002010BD237803F00103237021
:1037F000012010BD10B50A460C4601231E21FEF71C
:10380000E3FA08B1002010BD237803F0020323700F
:10381000012010BD30B583B00D4601230DF1070224
:103820003A210446FEF7D0FA38B9204601230DF1BB
:1038300006023B21FEF7C8FA10B1002003B030BDEC
:103840009DF806309DF8072003F00F0342EA03239A
:1038500001202B8003B030BD10B50A460C46012371
:103860003B21FEF7B1FA08B1002010BD237803F028
:1038700010032370012010BD10B50A460C46012329
:103880003B21FEF7A1FA08B1002010BD237803F018
:1038900020032370012010BD10B50A460C460123F9
:1038A0003B21FEF791FA08B1002010BD237803F008
:1038B00040032370012010BD30B583B00D460123B5
:1038C0000DF107023C210446FEF77EFA38B9204686
:1038D00001230DF106023D21FEF776FA10B100201A
:1038E00003B030BD9DF806309DF8072003F00303B8
:1038F00042EA032301202B8003B030BD10B50A46F5
:103900000C4601235321FEF75FFA08B1002010BDD9
:10391000237803F010032370012010BD10B50A4670
:103920000C4601235321FEF74FFA08B1002010BDC9
:10393000237803F020032370012010BD30B583B03D
:103940000C460DF10702012358210546FEF73CFA0B
:1039500010B1002003B030BD9DF8073023F0010303
:103960001C430DF107022846012358218DF807401A
:10397000FEF7DEF9B0FA80F0400903B030BD00BFB9
:1039800030B583B00C460DF10702012358210546DE
:10399000FEF71AFA10B1002003B030BD9DF80730D1
:1039A00023F002031C430DF107022846012358218E
:1039B0008DF80740FEF7BCF9B0FA80F0400903B07B
:1039C00030BD00BF30B583B00C460DF107020123B6
:1039D00058210546FEF7F8F910B1002003B030BDBC
:1039E0009DF8073023F004031C430DF1070228461D
:1039F000012358218DF80740FEF79AF9B0FA80F0BC
:103A0000400903B030BD00BF30B583B00C460DF1A6
:103A10000702012358210546FEF7D6F910B1002010
:103A200003B030BD9DF8073023F008031C430DF1AF
:103A300007022846012358218DF80740FEF778F940
:103A4000B0FA80F0400903B030BD00BF30B583B09C
:103A50000C460DF10702012358210546FEF7B4F983
:103A600010B1002003B030BD9DF8073003F07F0394
:103A70001C430DF107022846012358218DF8074009
:103A8000FEF756F9B0FA80F0400903B030BD00BF30
:103A900030B583B00C460DF10702012359210546CC
:103AA000FEF792F910B1002003B030BD9DF8073049
:103AB00004F01F0423F01F031C430DF107022846E6
:103AC000012359218DF80740FEF732F9B0FA80F052
:103AD000400903B030BD00BF30B583B00C460DF1D6
:103AE0000702012359210546FEF76EF910B10020A7
:103AF00003B030BD9DF8073023F060031C430DF187
:103B000007022846012359218DF80740FEF710F9D6
:103B1000B0FA80F0400903B030BD00BF30B583B0CB
:103B20000C460DF1070201235A210546FEF74CF918
:103B300010B1002003B030BD9DF8073004F003043D
:103B400023F003031C430DF10702284601235A21E9
:103B50008DF80740FEF7ECF8B0FA80F0400903B0AA
:103B600030BD00BF30B583B00C460DF10702012314
:103B70005A210546FEF728F910B1002003B030BDE8
:103B80009DF80720A40004F00C0322F00C041C4351
:103B90000DF10702284601235A218DF80740FEF750
:103BA000C7F8B0FA80F0400903B030BD30B583B03B
:103BB0000C460DF1070201235A210546FEF704F9D0
:103BC00010B1002003B030BD9DF8073003F00F03A3
:103BD00043EA04140DF10702284601235A218DF807
:103BE0000740FEF7A5F8B0FA80F0400903B030BDF9
:103BF00030B583B00C460DF1070201235B21054669
:103C0000FEF7E2F810B1002003B030BD9DF8073098
:103C100004F03F0423F03F031C430DF10702284644
:103C200001235B218DF80740FEF782F8B0FA80F09F
:103C3000400903B030BD00BF30B583B00C460DF174
:103C4000070201235B210546FEF7BEF810B10020F4
:103C500003B030BD9DF8073003F07F031C430DF126
:103C60000702284601235B218DF80740FEF760F824
:103C7000B0FA80F0400903B030BD00BF30B583B06A
:103C80000C460DF1070201235C210546FEF79CF866
:103C900010B1002003B030BD9DF8073004F00F04D0
:103CA00023F00F031C430DF10702284601235C217A
:103CB0008DF80740FEF73CF8B0FA80F0400903B0F9
:103CC00030BD00BF30B583B00C460DF107020123B3
:103CD0005C210546FEF778F810B1002003B030BD36
:103CE0009DF8073023F010031C430DF1070228460E
:103CF00001235C218DF80740FEF71AF8B0FA80F036
:103D0000400903B030BD00BF30B583B00C460DF1A3
:103D1000070201235C210546FEF756F810B100208A
:103D200003B030BD9DF80720640104F0600322F069
:103D300060041C430DF10702284601235C218DF825
:103D40000740FDF7F5FFB0FA80F0400903B030BD41
:103D500030B583B00C460DF1070201235D21054605
:103D6000FEF732F810B1002003B030BD9DF80730E7
:103D700023F007031C430DF10702284601235D21B0
:103D80008DF80740FDF7D4FFB0FA80F0400903B08A
:103D900030BD00BF70B582B00E460DF107020123A1
:103DA0005D210546FEF710F878B99DF8074004F04C
:103DB000070444EAC60401230DF107025D212846E9
:103DC0008DF80740FDF7B4FF10B1002002B070BDC0
:103DD00001230DF107025C212846FDF7F5FF0028BD
:103DE000F3D19DF80730760903F07F0343EAC61646
:103DF0000DF10702284601235C218DF80760FDF7CD
:103E000097FFB0FA80F04009E0E700BF30B583B01B
:103E10000C460DF1070201235E210546FDF7D4FF94
:103E200010B1002003B030BD9DF8073023F002032D
:103E30001C430DF10702284601235E218DF807403F
:103E4000FDF776FFB0FA80F0400903B030BD00BF47
:103E500030B583B00C460DF1070201235E21054603
:103E6000FDF7B2FF10B1002003B030BD9DF8073060
:103E700023F004031C430DF10702284601235E21B1
:103E80008DF80740FDF754FFB0FA80F0400903B009
:103E900030BD00BF30B583B00C460DF107020123E1
:103EA0005E210546FDF790FF10B1002003B030BD44
:103EB0009DF8073023F008031C430DF10702284644
:103EC00001235E218DF80740FDF732FFB0FA80F044
:103ED000400903B030BD00BF30B583B00C460DF1D2
:103EE000070201235E210546FDF76EFF10B1002099
:103EF00003B030BD9DF8073023F010031C430DF1D3
:103F00000702284601235E218DF80740FDF710FFC8
:103F1000B0FA80F0400903B030BD00BF30B583B0C7
:103F20000C460DF1070201235E210546FDF74CFF0B
:103F300010B1002003B030BD9DF8073023F02003FE
:103F40001C430DF10702284601235E218DF807402E
:103F5000FDF7EEFEB0FA80F0400903B030BD00BFBF
:103F600030B583B00C460DF1070201235E210546F2
:103F7000FDF72AFF10B1002003B030BD9DF80730D7
:103F800023F040031C430DF10702284601235E2164
:103F90008DF80740FDF7CCFEB0FA80F0400903B081
:103FA00030BD00BF30B583B00C460DF107020123D0
:103FB0005F210546FDF708FF10B1002003B030BDBA
:103FC0009DF8073023F002031C430DF10702284639
:103FD00001235F218DF80740FDF7AAFEB0FA80F0BB
:103FE000400903B030BD00BF30B583B00C460DF1C1
:103FF000070201235F210546FDF7E6FE10B1002010
:1040000003B030BD9DF8073023F004031C430DF1CD
:104010000702284601235F218DF80740FDF788FE3F
:10402000B0FA80F0400903B030BD00BF30B583B0B6
:104030000C460DF1070201235F210546FDF7C4FE82
:1040400010B1002003B030BD9DF8073023F0080305
:104050001C430DF10702284601235F218DF807401C
:10406000FDF766FEB0FA80F0400903B030BD00BF36
:1040700030B583B00C460DF1070201235F210546E0
:10408000FDF7A2FE10B1002003B030BD9DF807304F
:1040900023F010031C430DF10702284601235F2182
:1040A0008DF80740FDF744FEB0FA80F0400903B0F8
:1040B00030BD00BF30B583B00C460DF107020123BF
:1040C0005F210546FDF780FE10B1002003B030BD32
:1040D0009DF8073023F020031C430DF1070228460A
:1040E00001235F218DF80740FDF722FEB0FA80F032
:1040F000400903B030BD00BF30B583B00C460DF1B0
:10410000070201235F210546FDF75EFE10B1002086
:1041100003B030BD9DF8073023F040031C430DF180
:104120000702284601235F218DF80740FDF700FEB6
:10413000B0FA80F0400903B030BD00BF38B50A4680
:104140000C4601233E210546FDF73EFE48B9621CA0
:10415000284601233F21FDF737FEB0FA80F04009E1
:1041600038BD002038BD00BF38B50A460C460123D3
:104170004B210546FDF728FE48B9621C284601235D
:104180004C21FDF721FEB0FA80F0400938BD002037
:1041900038BD00BF70B5012382B00C460DF1070297
:1041A00019460546FDF710FE60B99DF8076001232A
:1041B00066F07F0619460DF1070228468DF8076064
:1041C000FDF7B6FD0DF1060201230F212846FDF78C
:1041D000FBFD9DF8063004F01F0423F01F030DF1D2
:1041E00006021C430F21012328468DF80640FDF7E7
:1041F0009FFD012319460DF107022846FDF7E4FD56
:1042000060B99DF80740012304F07F040DF1070217
:10421000284619468DF80740FDF78AFD012002B0B7
:1042200070BD00BF08B5FFF713F8B0FA80F0400981
:1042300008BD00BF10B582B00C460DF10701FEF7B6
:10424000EFFE60B19DF807300C2B1FD8DFE803F0BC
:104250000F1E1E1E141E1E1E191E1E1E0A000120E9
:1042600002B010BD0C4B2360002002B010BD0B4B00
:104270002360002002B010BD094B2360002002B073
:1042800010BD084B2360002002B010BD064B236018
:10429000012002B010BD00BF23DB793E23DB793D56
:1042A00023DBF93E23DBF93D000080BF10B582B06F
:1042B0000C460DF10701FEF7B3FE60B19DF8073023
:1042C0000C2B23D8DFE803F0102222221622222210
:1042D0001C2222220A00012002B010BD4FF08243AE
:1042E0000020236002B010BD4FF080430020236007
:1042F00002B010BD4FF083430020236002B010BD18
:104300004FF081430020236002B010BD024B2360B8
:10431000012002B010BD00BF000080BF08B5FFF74C
:1043200079FAB0FA80F0400908BD00BF08B5FFF780
:1043300005FFB0FA80F0400908BD00BF08B5FFF7DF
:10434000BBFAB0FA80F0400908BD00BF10B582B0DA
:104350000C460DF10701FFF79FFA48B19DF80700E1
:1043600048B1402804D101230020237002B010BDC1
:10437000012002B010BD207002B010BD10B582B097
:104380000C460DF10701FFF767FA48B19DF80700E9
:1043900048B1102804D101230020237002B010BDC1
:1043A000012002B010BD207002B010BD10B582B067
:1043B0000C460DF10701FFF75FFA48B19DF80700C1
:1043C00048B1202804D101230020237002B010BD81
:1043D000012002B010BD207002B010BDF2EE047AD0
:1043E000B4EEE70AF1EE10FA08B50DD9F3EE097A4A
:1043F000B4EEE70AF1EE10FA0DD81021FEF7E6FF51
:10440000B0FA80F0400908BD0821FEF7DFFFB0FADE
:1044100080F0400908BDDFED227AB4EEE70AF1EE44
:1044200010FA2CD9DFED1F7AB4EEE70AF1EE10FA9C
:104430002CD9DFED1D7AB4EEE70AF1EE10FA27D998
:10444000DFED1A7AB4EEE70AF1EE10FA22D9DFEDC9
:10445000187AB4EEE70AF1EE10FA1DD9DFED157AFD
:10446000B4EEE70AF1EE10FA18D9DFED137AB4EEE4
:10447000E70AF1EE10FA94BF48215021C5E7182150
:10448000FEF7A4FFB0FA80F0400908BD2021BCE788
:104490002821BAE73021B8E73821B6E74021B4E750
:1044A000000048420000C842000048430000C843E2
:1044B000000048440000C84400404E4530B5012388
:1044C00083B000240C600D460DEB03021B218DF818
:1044D00001408DF802408DF803408DF804408DF8BE
:1044E00005408DF806408DF807400446FEF73AFD7A
:1044F000002800F0998001230DF102021C212046C2
:10450000FEF730FD002800F08F8001230DF103023B
:104510001D212046FEF726FD002800F0858001239E
:1045200001AA53212046FEF71DFD00287CD001235F
:104530000DF105025E212046FEF714FD002873D020
:1045400001230DF106025F212046FEF70BFD002836
:104550006AD0204601230DF107020D21FEF702FD6E
:10456000002861D09DF80530DC0603D49DF80620B4
:10457000D00607D59DF80120910603D52A7842F090
:1045800001022A709A0603D49DF80620940607D5E6
:104590009DF80120100703D52A7842F008022A70FE
:1045A000590603D49DF80620520607D59DF802202F
:1045B000940603D52A7842F002022A70180703D421
:1045C0009DF80620110707D59DF80220D20603D5D5
:1045D0002A7842F004022A705C0703D49DF8062072
:1045E000500707D59DF80320510603D52A7842F0DD
:1045F00040022A709DF90720002A18DB9B0706D489
:104600009DF8063003F0020303F0FF006BB19DF844
:10461000043003F0200303F0FF0033B12B7843F0A4
:1046200020032B70002000E0012003B030BD9DF876
:104630000420D206E2D52A7842F010022A70DDE783
:1046400008B50123FEF78EFCB0FA80F0400908BDE2
:1046500010B582B00C460DF10701FFF79BF848B189
:104660009DF8070048B1202804D1012300202370C1
:1046700002B010BD012002B010BD207002B010BD0C
:1046800010B582B00C460DF10701FFF773F848B181
:104690009DF8070048B1102804D1012300202370A1
:1046A00002B010BD012002B010BD207002B010BDDC
:1046B00010B582B00C460DF10701FFF74BF848B179
:1046C0009DF8070048B1082804D101230020237079
:1046D00002B010BD012002B010BD207002B010BDAC
:1046E00010B582B00C460DF10701FFF723F848B171
:1046F0009DF8070048B1042804D10123002023704D
:1047000002B010BD012002B010BD207002B010BD7B
:1047100010B582B00C460DF10701FEF7FBFF48B162
:104720009DF8070048B1022804D10123002023701E
:1047300002B010BD012002B010BD207002B010BD4B
:1047400010B582B00C460DF10701FEF7D3FF40B162
:104750009DF8070040B1012803D12070002002B06D
:1047600010BD012002B010BD207002B010BD00BF0E
:1047700010B582B00C460DF10701FFF71BF848B1E8
:104780009DF8070048B1402804D101230020237080
:1047900002B010BD012002B010BD207002B010BDEB
:1047A000F0EE007AB4EEE70AF1EE10FA08B50DD992
:1047B000F1EE007AB4EEE70AF1EE10FA0DD8082116
:1047C000FEF70CFCB0FA80F0400908BD0021FEF7AE
:1047D00005FCB0FA80F0400908BDF2EE007AB4EEB4
:1047E000E70AF1EE10FA94BF0C210421FEF7F6FB64
:1047F000B0FA80F0400908BD022908B50BD00429A1
:1048000002D011B1012008BD0C21FEF7E7FBB0FA80
:1048100080F0400908BD0821FEF7E0FBB0FA80F007
:10482000400908BD08B5FFF7C1F9B0FA80F04009AA
:1048300008BD00BF08B5FFF795F9B0FA80F0400950
:1048400008BD00BF08B5FFF769F9B0FA80F040096C
:1048500008BD00BF08B5FFF71BF9B0FA80F04009AA
:1048600008BD00BF10B582B00C460DF10701FEF780
:1048700021FF48B19DF8070048B1102804D1012359
:104880000020237002B010BD012002B010BD2070C6
:1048900002B010BD10B582B00C460DF10701FEF755
:1048A00019FF48B19DF8070048B1202804D1012321
:1048B0000020237002B010BD012002B010BD207096
:1048C00002B010BD08B5FFF793F9B0FA80F04009C7
:1048D00008BD00BF10B582B00C460DF10701FEF710
:1048E000C9FE48B19DF8070048B1082804D101234A
:1048F0000020237002B010BD012002B010BD207056
:1049000002B010BD10B582B00C460DF10701FFF7E3
:1049100005F848B19DF8070048B1202804D10123CB
:104920000020237002B010BD012002B010BD207025
:1049300002B010BD08B5FFF72DFCB0FA80F04009B9
:1049400008BD00BF08B50021FEF70CFEB0FA80F0EC
:10495000400908BD08B50221FEF704FEB0FA80F058
:10496000400908BD08B5FFF7FFFBB0FA80F0400929
:1049700008BD00BF10B582B00C460DF10701FEF76F
:10498000BDFF48B19DF8070048B1102804D10123AC
:104990000020237002B010BD012002B010BD2070B5
:1049A00002B010BD08B5FFF7D3F9B0FA80F04009A6
:1049B00008BD00BF10B582B00C460DF10701FEF72F
:1049C00069FE48B19DF8070048B1202804D10123B1
:1049D0000020237002B010BD012002B010BD207075
:1049E00002B010BD30B583B00D460DF1070104468D
:1049F000FEF71EFC10B9012003B030BD20460DF1BA
:104A00000601FEF791FB0028F5D09DF80730022B38
:104A10000CD09DF806300C2B1CD8DFE803F0171BD8
:104A20001B1B131B1B1B0F1B1B1B0B000B4B2B60A0
:104A30000020E1E70A4B2B600020DDE7094B2B60EB
:104A40000020D9E7084B2B600020D5E7074B2B60EF
:104A50000020D1E7064B2B60CDE700BF0000FA42F3
:104A60000000FA4400007A440000FA430000754355
:104A7000000080BF10B582B00C460DF10701FEF7B3
:104A8000A9FE40B19DF8070040B1012803D1207074
:104A9000002002B010BD012002B010BD207002B095
:104AA00010BD00BF10B582B002AC012304F8012D87
:104AB0002246FEF75FFAB0FA80F0400902B010BD5E
:104AC00010B582B00C460DF10701FEF7FBFAD0B12C
:104AD0009DF80700502837D00AD8202825D015D9AE
:104AE000302835D0402828D11F4B236000200BE010
:104AF000802831D011D990281BD0A0281DD11B4B64
:104B00002360002000E0012002B010BDC8B11028D1
:104B100013D1174B23600020F6E7602820D07028BF
:104B20000BD1144B23600020EEE7134B23600020D1
:104B3000EAE7124B23600020E6E7114B23600120D7
:104B4000E2E700232360DFE70E4B23600020DBE772
:104B50000D4B23600020D7E70C4B23600020D3E7E8
:104B60000B4B23600020CFE70000D0420020D0454F
:104B700000005041004050440000D041002050450A
:104B8000000080BF00005043000050420080CF442E
:104B90000000D04308B5FEF7F5F9B0FA80F04009FF
:104BA00008BD00BF10B582B00C460DF10701FEF73D
:104BB00021FE48B19DF8070048B1022804D1012325
:104BC0000020237002B010BD012002B010BD207083
:104BD00002B010BD022908B50BD0042902D011B1D2
:104BE000012008BD0C21FEF77DFAB0FA80F04009E3
:104BF00008BD0421FEF776FAB0FA80F0400908BD3E
:104C000010B582B00C460DF10701FEF7DFFAD0B106
:104C10009DF80700502837D00AD8202825D015D96C
:104C2000302835D0402828D11F4B236000200BE0CE
:104C3000802831D011D990281BD0A0281DD11B4B22
:104C40002360002000E0012002B010BDC8B1102890
:104C500013D1174B23600020F6E7602820D070287E
:104C60000BD1144B23600020EEE7134B2360002090
:104C7000EAE7124B23600020E6E7114B2360012096
:104C8000E2E700232360DFE70E4B23600020DBE731
:104C90000D4B23600020D7E70C4B23600020D3E7A7
:104CA0000B4B23600020CFE70000D0420020D0450E
:104CB00000005041004050440000D04100205045C9
:104CC000000080BF00005043000050420080CF44ED
:104CD0000000D043032901D90120704708B5FEF731
:104CE000FDFBB0FA80F0400908BD00BF012901D9E1
:104CF0000120704708B5FEF721FEB0FA80F04009A8
:104D000008BD00BF08B519B1802901D0012008BD38
:104D1000FEF718FBB0FA80F0400908BD08B519B1DC
:104D2000202901D0012008BDFEF772FBB0FA80F007
:104D3000400908BD062908D808B5012303FA01F285
:104D400012F05B0F03D1184608BD01207047FEF733
:104D50001BFBB0FA80F0400908BD00BF072901D94C
:104D60000120704708B5FEF7A9FAB0FA80F04009B3
:104D700008BD00BF10B500210446FFF769F808B967
:104D8000012010BD00212046FFF72EF90028F7D0A2
:104D900000212046FEF75AFE0028F1D020460021CF
:104DA000FEF79AFEB0FA80F0400910BD08B583798D
:104DB000012B18D083681B68042920D8DFE801F094
:104DC00003030B0F0700124A5A60002008BD114A66
:104DD0005A60002008BD104A5A60002008BD0F4AE2
:104DE0005A60002008BD042909D8DFE801F0030358
:104DF0000C0A0E001021FEF743F90028E5D101202E
:104E000008BD3021F7E72021F5E74021F3E700BF97
:104E1000000050410000D0420000D041000050424C
:104E200010B500210446FFF735F808B9012010BD80
:104E300000212046FFF7FAF80028F7D0002120468D
:104E4000FEF704FE0028F1D000212046FEF720FEE8
:104E50000028EBD000212046FEF760FE0028E5D0B8
:104E600000212046FEF77EFE0028DFD000212046EC
:104E7000FEF79CFE0028D9D000212046FEF7DCFE7C
:104E80000028D3D000212046FEF77AFD0028CDD09F
:104E900000212046FEF796FD0028C7D020460021BD
:104EA000FEF7B2FDB0FA80F0400910BD10B5002148
:104EB0000446FFF755F808B9012010BD002120462F
:104EC000FFF71AF90028F7D000212046FEF7BEFDB3
:104ED0000028F1D000212046FEF7DAFD0028EBD0B3
:104EE00000212046FEF71AFE0028E5D000212046CA
:104EF000FEF738FE0028DFD000212046FEF740FDF7
:104F00000028D9D000212046FEF75CFD0028D3D030
:104F100020460021FEF778FDB0FA80F0400910BD70
:104F200010B500210446FEF7F9FF08B9012010BDB5
:104F300000212046FFF7BEF80028F7D000212046C8
:104F4000FEF784FD0028F1D000212046FEF7DCFEAC
:104F50000028EBD020460021FEF74AFEB0FA80F090
:104F6000400910BD10B500210446FEF74FFF08B9F7
:104F7000012010BD00212046FFF714F80028F7D0CB
:104F800000212046FEF710FB0028F1D0204600212A
:104F9000FEF74EFBB0FA80F0400910BD10B50021BD
:104FA0000446FEF757FA08B9012010BD002120463B
:104FB000FEF71CFB0028F7D000212046FEF738FB47
:104FC0000028F1D020460021FFF7E4F8B0FA80F085
:104FD000400910BD10B500210446FEF77DFF08B959
:104FE000012010BD00212046FFF742F80028F7D02D
:104FF00000212046FEF72AFD0028F1D0002120469E
:10500000FEF7C8FE0028EBD020460021FEF7A0FEE8
:10501000B0FA80F0400910BD0C2909D8012310B561
:1050200003FA01F241F2111414401CB9184610BDE4
:1050300001207047FEF774FAB0FA80F0400910BD05
:1050400030B583B00C460DF106010546FEF7F0F8C9
:10505000B0B19DF80630022B15D028460DF107019E
:10506000FEF762F860B19DF807300C2B20D8DFE81E
:1050700003F0131F1F1F171F1F1F1B1F1F1F0F00D2
:10508000012003B030BD0C4B2360002003B030BDC5
:105090000A4B23600020F4E7094B23600020F0E76F
:1050A000084B23600020ECE7074B23600020E8E773
:1050B000064B23600120E4E700008C4000008C4296
:1050C00000000C4100008C4100000C42000080BF39
:1050D00008B538291ED8DFE801F01F1D1D1D1D1D54
:1050E0001D1D1F1D1D1D1D1D1D1D1F1D1D1D1D1DEC
:1050F0001D1D1F1D1D1D1D1D1D1D1F1D1D1D1D1DDC
:105100001D1D1F1D1D1D1D1D1D1D1F1D1D1D1D1DCB
:105110001D1D1F00012008BDFEF7F2F8B0FA80F057
:10512000400908BDDFED1F7AB4EEE70AF1EE10FA90
:1051300038B525D9DFED1C7AB4EEE70AF1EE10FAA6
:10514000044607D8002500212046FEF74FF878B91D
:10515000012038BDDFED157AB4EEE70AF1EE10FA62
:1051600015D8002120460425FEF740F80028EFD08E
:1051700029462046FDF7B6FFB0FA80F0400938BD59
:105180000221FEF733F8B0FA80F0400938BDDFEDB8
:10519000087AB4EEE70AF1EE10FA94BF08250C2560
:1051A000D1E700BF0000FA42000075430000FA4357
:1051B00000007A4408B58379012B48D0F2EE0A7AD0
:1051C0008368B4EEE70AF1EE10FA1B683BD9F3EE00
:1051D0000A7AB4EEE70AF1EE10FA34D9DFED477A35
:1051E000B4EEE70AF1EE10FA2DD9DFED457AB4EE10
:1051F000E70AF1EE10FA26D9DFED427AB4EEE70ABB
:10520000F1EE10FA1FD9DFED407AB4EEE70AF1EEC5
:1052100010FA18D9DFED3D7AB4EEE70AF1EE10FA94
:1052200011D9DFED3B7AB4EEE70AF1EE10FA0AD9B4
:10523000DFED387A9FED387AB4EEE70AF1EE10FA36
:1052400088BFF0EE477AC3ED017A002008BDF2EE88
:105250000A7AB4EEE70AF1EE10FA06D81021FDF74B
:1052600093FFB0FA80F0400908BDF3EE0A7AB4EE7D
:10527000E70AF1EE10FA33D9DFED207AB4EEE70A4F
:10528000F1EE10FA2ED9DFED1E7AB4EEE70AF1EE58
:1052900010FA29D9DFED1B7AB4EEE70AF1EE10FA25
:1052A00024D9DFED197AB4EEE70AF1EE10FA1FD92E
:1052B000DFED167AB4EEE70AF1EE10FA1AD9DFED57
:1052C000147AB4EEE70AF1EE10FA15D9DFED117A8F
:1052D000B4EEE70AF1EE10FA94BF9021A021BEE7E8
:1052E0002021BCE73021BAE74021B8E75021B6E7DA
:1052F0006021B4E77021B2E78021B0E7000050429E
:105300000000D042000050430000D0430040504411
:105310000080CF44002050450020D04508B5837957
:10532000012B18D083681B68042920D8DFE801F01E
:1053300003030B0F0700124A5A60002008BD114AF0
:105340005A60002008BD104A5A60002008BD0F4A6C
:105350005A60002008BD042909D8DFE801F00303E2
:105360000C0A0E001021FDF70FFF0028E5D10120E7
:1053700008BD3021F7E72021F5E74021F3E700BF22
:10538000000050410000D0420000D04100005042D7
:1053900008B5FDF7F7FDB0FA80F0400908BD00BF81
:1053A00008B58379012B48D0F2EE0A7A8368B4EE0F
:1053B000E70AF1EE10FA1B683BD9F3EE0A7AB4EE75
:1053C000E70AF1EE10FA34D9DFED477AB4EEE70AD6
:1053D000F1EE10FA2DD9DFED457AB4EEE70AF1EEE1
:1053E00010FA26D9DFED427AB4EEE70AF1EE10FAB0
:1053F0001FD9DFED407AB4EEE70AF1EE10FA18D9C2
:10540000DFED3D7AB4EEE70AF1EE10FA11D9DFEDE7
:105410003B7AB4EEE70AF1EE10FA0AD9DFED387AFA
:105420009FED387AB4EEE70AF1EE10FA88BFF0EE9D
:10543000477AC3ED017A002008BDF2EE0A7AB4EE95
:10544000E70AF1EE10FA06D81021FDF719FEB0FABE
:1054500080F0400908BDF3EE0A7AB4EEE70AF1EEF7
:1054600010FA33D9DFED207AB4EEE70AF1EE10FA44
:105470002ED9DFED1E7AB4EEE70AF1EE10FA29D943
:10548000DFED1B7AB4EEE70AF1EE10FA24D9DFED76
:10549000197AB4EEE70AF1EE10FA1FD9DFED167AA9
:1054A000B4EEE70AF1EE10FA1AD9DFED147AB4EE91
:1054B000E70AF1EE10FA15D9DFED117AB4EEE70A3A
:1054C000F1EE10FA94BF9021A021BEE72021BCE7A5
:1054D0003021BAE74021B8E75021B6E76021B4E7B0
:1054E0007021B2E78021B0E7000050420000D042B6
:1054F000000050430000D043004050440080CF449F
:10550000002050450020D045012901D901207047D5
:1055100008B5FEF713FAB0FA80F0400908BD00BFE5
:1055200008B50123FDF71EFDB0FA80F0400908BD63
:1055300010B582B002AC012304F8012D2246FDF71C
:1055400019FDB0FA80F0400902B010BD38B583797A
:10555000012B04460D4639D08368244A1B685A60E3
:1055600000212046FDF73AFD08B9012038BD06218B
:105570002046FEF70FFC0028F7D000212046FEF75A
:10558000C3FB0028F1D000212046FEF79BFB00283A
:10559000EBD000212046FEF771FB0028E5D0032167
:1055A0002046FEF7D5FB0028DFD080212046FEF7FD
:1055B0004DFA0028D9D085B1012DD6D12046102131
:1055C000FEF756FDB0FA80F0400938BD6021FDF7C6
:1055D00057FD0028C4D1012038BD20461021FEF718
:1055E0007BFCB0FA80F0400938BD00BF0000D0431A
:1055F00038B58379012B04460D4621D08368184ABB
:105600001B685A6000212046FDF7E8FC08B901201C
:1056100038BD04212046FEF70BF80028F7D00821FA
:105620002046FDF7C1FF0028F1D085B1012DEED154
:1056300020460221FEF7B6FCB0FA80F0400938BDE2
:105640002021FDF71DFD0028DCD1012038BD2046BA
:105650000221FEF7DBFBB0FA80F0400938BD00BF45
:105660000000D04110B58379012B044624D0836813
:10567000154A1B685A6000212046FDF7AFFC08B9A7
:10568000012010BD17212046FEF784FD0028F7D029
:1056900004212046FDF7CCFF0028F1D01021204640
:1056A000FDF7A4FF0028EBD020468021FDF7D2FEB5
:1056B000B0FA80F0400910BD2021FDF7E1FC002880
:1056C000D9D1012010BD00BF0000D041F0B583B09A
:1056D00000240D466946ADF804400094FDF7B0FC87
:1056E000B8B19DF805009DF801709DF800109DF877
:1056F00003609DF802209DF8043001EB072103EBC5
:10570000002302EB0622204629806A80AB8003B08A
:10571000F0BD012003B0F0BDF0B583B000240D460C
:105720006946ADF804400094FDF70EFDB8B19DF850
:1057300005009DF801709DF800109DF803609DF82C
:1057400002209DF8043001EB072103EB002302EB5C
:105750000622204629806A80AB8003B0F0BD01207C
:1057600003B0F0BD8379012B50D083681B68D3ED63
:10577000017AB2EE0A7AF4EEC77AF1EE10FA10B5B9
:1057800009D810210446FDF77BFC002840D00123F6
:10579000A371002010BDB3EE0A7AF4EEC77AF1EEE1
:1057A00010FA37D99FED227AF4EEC77AF1EE10FAAB
:1057B00032D99FED207AF4EEC77AF1EE10FA2DD9A6
:1057C0009FED1D7AF4EEC77AF1EE10FA28D99FED1D
:1057D0001B7AF4EEC77AF1EE10FA23D99FED187A0E
:1057E000F4EEC77AF1EE10FA1ED99FED167AF4EEB8
:1057F000C77AF1EE10FA19D99FED137AF4EEC77A51
:10580000F1EE10FA94BF9021A021BBE70020704771
:10581000012010BD2021B5E73021B3E74021B1E7D9
:105820005021AFE76021ADE77021ABE78021A9E708
:10583000000050420000D042000050430000D0431E
:10584000004050440080CF44002050458379012B14
:1058500050D083681B68D3ED017AB2EE0A7AF4EE79
:10586000C77AF1EE10FA10B509D810210446FDF7F9
:105870008BFC002840D00123A371002010BDB3EEA3
:105880000A7AF4EEC77AF1EE10FA37D99FED227A50
:10589000F4EEC77AF1EE10FA32D99FED207AF4EEE9
:1058A000C77AF1EE10FA2DD99FED1D7AF4EEC77A82
:1058B000F1EE10FA28D99FED1B7AF4EEC77AF1EEDB
:1058C00010FA23D99FED187AF4EEC77AF1EE10FAA8
:1058D0001ED99FED167AF4EEC77AF1EE10FA19D9B7
:1058E0009FED137AF4EEC77AF1EE10FA94BF90218F
:1058F000A021BBE700207047012010BD2021B5E7A3
:105900003021B3E74021B1E75021AFE76021ADE797
:105910007021ABE78021A9E7000050420000D0428F
:10592000000050430000D043004050440080CF446A
:105930000020504510B582B002A9002301F8013DB6
:105940000446FDF71FFB10B9012002B010BD2378FB
:105950009DF80700181A18BF012002B010BD00BF43
:1059600010B582B002A9002301F8013D0446FDF7FD
:1059700009FB10B9012002B010BD23789DF8070083
:10598000181A18BF012002B010BD00BF38B58379C6
:10599000012B04460D4621D08368184A1B685A60C3
:1059A00000212046FDF71AFB08B9012038BD40212F
:1059B0002046FEF791F80028F7D080212046FEF718
:1059C00045F80028F1D085B1012DEED12046042103
:1059D000FEF70AFBB0FA80F0400938BD6021FDF700
:1059E0004FFB0028DCD1012038BD20460421FEF702
:1059F0002FFAB0FA80F0400938BD00BF0000D04354
:105A000038B58379012B04460D464BD083682D4A67
:105A10001B685A6000212046FDF7E0FA08B9012012
:105A200038BD08212046FDF7EFFF0028F7D00421FC
:105A30002046FDF7C7FF0028F1D002212046FDF7E0
:105A40009FFF0028EBD008212046FEF721F8002810
:105A5000E5D003212046FEF761F80028DFD00321BE
:105A60002046FEF77FF80028D9D008212046FEF70F
:105A70009DF80028D3D080212046FEF7DDF80028CD
:105A8000CDD080212046FDF7E1FF0028C7D085B1A9
:105A9000012DC4D120460821FEF7C8FAB0FA80F0E3
:105AA000400938BD6021FDF7EBFA0028B2D1012092
:105AB00038BD20460821FEF7EDF9B0FA80F0400924
:105AC00038BD00BF0000D04338B58379012B0446B0
:105AD0000D4627D083681B4A1B685A600021204668
